{"abi":[{"anonymous":false,"inputs":[{"indexed":true,"internalType":"address","name":"owner","type":"address"},{"indexed":true,"internalType":"address","name":"spender","type":"address"},{"indexed":false,"internalType":"uint256","name":"amount","type":"uint256"}],"name":"Approval","type":"event"},{"anonymous":false,"inputs":[{"indexed":true,"internalType":"address","name":"from","type":"address"},{"indexed":true,"internalType":"address","name":"to","type":"address"},{"indexed":false,"internalType":"uint256","name":"amount","type":"uint256"}],"name":"Transfer","type":"event"},{"inputs":[{"internalType":"address","name":"","type":"address"},{"internalType":"address","name":"","type":"address"}],"name":"allowance","outputs":[{"internalType":"uint256","name":"","type":"uint256"}],"stateMutability":"view","type":"function"},{"inputs":[{"internalType":"address","name":"spender","type":"address"},{"internalType":"uint256","name":"amount","type":"uint256"}],"name":"approve","outputs":[{"internalType":"bool","name":"","type":"bool"}],"stateMutability":"nonpayable","type":"function"},{"inputs":[{"internalType":"address","name":"","type":"address"}],"name":"balanceOf","outputs":[{"internalType":"uint256","name":"","type":"uint256"}],"stateMutability":"view","type":"function"},{"inputs":[{"internalType":"uint256","name":"amount","type":"uint256"}],"name":"burn","outputs":[],"stateMutability":"nonpayable","type":"function"},{"inputs":[],"name":"decimals","outputs":[{"internalType":"uint8","name":"","type":"uint8"}],"stateMutability":"view","type":"function"},{"inputs":[{"internalType":"address","name":"","type":"address"}],"name":"has1000km","outputs":[{"internalType":"bool","name":"","type":"bool"}],"stateMutability":"view","type":"function"},{"inputs":[{"internalType":"address","name":"","type":"address"}],"name":"has100km","outputs":[{"internalType":"bool","name":"","type":"bool"}],"stateMutability":"view","type":"function"},{"inputs":[{"internalType":"address","name":"","type":"address"}],"name":"has500km","outputs":[{"internalType":"bool","name":"","type":"bool"}],"stateMutability":"view","type":"function"},{"inputs":[{"internalType":"uint256","name":"amount","type":"uint256"}],"name":"mint","outputs":[],"stateMutability":"nonpayable","type":"function"},{"inputs":[],"name":"name","outputs":[{"internalType":"string","name":"","type":"string"}],"stateMutability":"view","type":"function"},{"inputs":[{"internalType":"address","name":"","type":"address"}],"name":"personName","outputs":[{"internalType":"string","name":"","type":"string"}],"stateMutability":"view","type":"function"},{"inputs":[{"internalType":"string","name":"Pname","type":"string"}],"name":"setName","outputs":[],"stateMutability":"nonpayable","type":"function"},{"inputs":[{"internalType":"string","name":"person","type":"string"}],"name":"setPersonName","outputs":[],"stateMutability":"nonpayable","type":"function"},{"inputs":[{"internalType":"string","name":"user","type":"string"},{"internalType":"string","name":"pword","type":"string"}],"name":"setStravaInfo","outputs":[],"stateMutability":"nonpayable","type":"function"},{"inputs":[{"internalType":"address","name":"","type":"address"}],"name":"stravaID","outputs":[{"internalType":"string","name":"","type":"string"}],"stateMutability":"view","type":"function"},{"inputs":[{"internalType":"address","name":"","type":"address"}],"name":"stravaSecret","outputs":[{"internalType":"string","name":"","type":"string"}],"stateMutability":"view","type":"function"},{"inputs":[],"name":"symbol","outputs":[{"internalType":"string","name":"","type":"string"}],"stateMutability":"view","type":"function"},{"inputs":[],"name":"totalSupply","outputs":[{"internalType":"uint256","name":"","type":"uint256"}],"stateMutability":"view","type":"function"},{"inputs":[{"internalType":"address","name":"recipient","type":"address"},{"internalType":"uint256","name":"amount","type":"uint256"}],"name":"transfer","outputs":[{"internalType":"bool","name":"","type":"bool"}],"stateMutability":"nonpayable","type":"function"},{"inputs":[{"internalType":"address","name":"sender","type":"address"},{"internalType":"address","name":"recipient","type":"address"},{"internalType":"uint256","name":"amount","type":"uint256"}],"name":"transferFrom","outputs":[{"internalType":"bool","name":"","type":"bool"}],"stateMutability":"nonpayable","type":"function"}],"devdoc":{"kind":"dev","methods":{},"version":1},"evm":{"assembly":"    /* \"wmbToken.sol\":1231:4794  contract wmbToken is IERC20 {... */\n  mstore(0x40, 0x80)\n    /* \"wmbToken.sol\":1412:1443  string public name = \"WMBWalks\" */\n  mload(0x40)\n  dup1\n  0x40\n  add\n  0x40\n  mstore\n  dup1\n  0x08\n  dup2\n  mstore\n  0x20\n  add\n  0x574d4257616c6b73000000000000000000000000000000000000000000000000\n  dup2\n  mstore\n  pop\n  0x03\n  swap1\n  dup2\n  tag_1\n  swap2\n  swap1\n  tag_2\n  jump\t// in\ntag_1:\n  pop\n    /* \"wmbToken.sol\":1450:1478  string public symbol = \"WMB\" */\n  mload(0x40)\n  dup1\n  0x40\n  add\n  0x40\n  mstore\n  dup1\n  0x03\n  dup2\n  mstore\n  0x20\n  add\n  0x574d420000000000000000000000000000000000000000000000000000000000\n  dup2\n  mstore\n  pop\n  0x04\n  swap1\n  dup2\n  tag_3\n  swap2\n  swap1\n  tag_2\n  jump\t// in\ntag_3:\n  pop\n    /* \"wmbToken.sol\":1509:1510  2 */\n  0x02\n    /* \"wmbToken.sol\":1485:1510  uint8 public decimals = 2 */\n  0x05\n  exp(0x0100, 0x00)\n  dup2\n  sload\n  dup2\n  0xff\n  mul\n  not\n  and\n  swap1\n  dup4\n  0xff\n  and\n  mul\n  or\n  swap1\n  sstore\n  pop\n    /* \"wmbToken.sol\":1231:4794  contract wmbToken is IERC20 {... */\n  callvalue\n  dup1\n  iszero\n  tag_4\n  jumpi\n  0x00\n  dup1\n  revert\ntag_4:\n  pop\n  jump(tag_5)\n    /* \"#utility.yul\":7:106   */\ntag_6:\n    /* \"#utility.yul\":59:65   */\n  0x00\n    /* \"#utility.yul\":93:98   */\n  dup2\n    /* \"#utility.yul\":87:99   */\n  mload\n    /* \"#utility.yul\":77:99   */\n  swap1\n  pop\n    /* \"#utility.yul\":7:106   */\n  swap2\n  swap1\n  pop\n  jump\t// out\n    /* \"#utility.yul\":112:292   */\ntag_7:\n    /* \"#utility.yul\":160:237   */\n  0x4e487b7100000000000000000000000000000000000000000000000000000000\n    /* \"#utility.yul\":157:158   */\n  0x00\n    /* \"#utility.yul\":150:238   */\n  mstore\n    /* \"#utility.yul\":257:261   */\n  0x41\n    /* \"#utility.yul\":254:255   */\n  0x04\n    /* \"#utility.yul\":247:262   */\n  mstore\n    /* \"#utility.yul\":281:285   */\n  0x24\n    /* \"#utility.yul\":278:279   */\n  0x00\n    /* \"#utility.yul\":271:286   */\n  revert\n    /* \"#utility.yul\":298:478   */\ntag_8:\n    /* \"#utility.yul\":346:423   */\n  0x4e487b7100000000000000000000000000000000000000000000000000000000\n    /* \"#utility.yul\":343:344   */\n  0x00\n    /* \"#utility.yul\":336:424   */\n  mstore\n    /* \"#utility.yul\":443:447   */\n  0x22\n    /* \"#utility.yul\":440:441   */\n  0x04\n    /* \"#utility.yul\":433:448   */\n  mstore\n    /* \"#utility.yul\":467:471   */\n  0x24\n    /* \"#utility.yul\":464:465   */\n  0x00\n    /* \"#utility.yul\":457:472   */\n  revert\n    /* \"#utility.yul\":484:804   */\ntag_9:\n    /* \"#utility.yul\":528:534   */\n  0x00\n    /* \"#utility.yul\":565:566   */\n  0x02\n    /* \"#utility.yul\":559:563   */\n  dup3\n    /* \"#utility.yul\":555:567   */\n  div\n    /* \"#utility.yul\":545:567   */\n  swap1\n  pop\n    /* \"#utility.yul\":612:613   */\n  0x01\n    /* \"#utility.yul\":606:610   */\n  dup3\n    /* \"#utility.yul\":602:614   */\n  and\n    /* \"#utility.yul\":633:651   */\n  dup1\n    /* \"#utility.yul\":623:704   */\n  tag_31\n  jumpi\n    /* \"#utility.yul\":689:693   */\n  0x7f\n    /* \"#utility.yul\":681:687   */\n  dup3\n    /* \"#utility.yul\":677:694   */\n  and\n    /* \"#utility.yul\":667:694   */\n  swap2\n  pop\n    /* \"#utility.yul\":623:704   */\ntag_31:\n    /* \"#utility.yul\":751:753   */\n  0x20\n    /* \"#utility.yul\":743:749   */\n  dup3\n    /* \"#utility.yul\":740:754   */\n  lt\n    /* \"#utility.yul\":720:738   */\n  dup2\n    /* \"#utility.yul\":717:755   */\n  sub\n    /* \"#utility.yul\":714:798   */\n  tag_32\n  jumpi\n    /* \"#utility.yul\":770:788   */\n  tag_33\n  tag_8\n  jump\t// in\ntag_33:\n    /* \"#utility.yul\":714:798   */\ntag_32:\n    /* \"#utility.yul\":535:804   */\n  pop\n    /* \"#utility.yul\":484:804   */\n  swap2\n  swap1\n  pop\n  jump\t// out\n    /* \"#utility.yul\":810:951   */\ntag_10:\n    /* \"#utility.yul\":859:863   */\n  0x00\n    /* \"#utility.yul\":882:885   */\n  dup2\n    /* \"#utility.yul\":874:885   */\n  swap1\n  pop\n    /* \"#utility.yul\":905:908   */\n  dup2\n    /* \"#utility.yul\":902:903   */\n  0x00\n    /* \"#utility.yul\":895:909   */\n  mstore\n    /* \"#utility.yul\":939:943   */\n  0x20\n    /* \"#utility.yul\":936:937   */\n  0x00\n    /* \"#utility.yul\":926:944   */\n  keccak256\n    /* \"#utility.yul\":918:944   */\n  swap1\n  pop\n    /* \"#utility.yul\":810:951   */\n  swap2\n  swap1\n  pop\n  jump\t// out\n    /* \"#utility.yul\":957:1050   */\ntag_11:\n    /* \"#utility.yul\":994:1000   */\n  0x00\n    /* \"#utility.yul\":1041:1043   */\n  0x20\n    /* \"#utility.yul\":1036:1038   */\n  0x1f\n    /* \"#utility.yul\":1029:1034   */\n  dup4\n    /* \"#utility.yul\":1025:1039   */\n  add\n    /* \"#utility.yul\":1021:1044   */\n  div\n    /* \"#utility.yul\":1011:1044   */\n  swap1\n  pop\n    /* \"#utility.yul\":957:1050   */\n  swap2\n  swap1\n  pop\n  jump\t// out\n    /* \"#utility.yul\":1056:1163   */\ntag_12:\n    /* \"#utility.yul\":1100:1108   */\n  0x00\n    /* \"#utility.yul\":1150:1155   */\n  dup3\n    /* \"#utility.yul\":1144:1148   */\n  dup3\n    /* \"#utility.yul\":1140:1156   */\n  shl\n    /* \"#utility.yul\":1119:1156   */\n  swap1\n  pop\n    /* \"#utility.yul\":1056:1163   */\n  swap3\n  swap2\n  pop\n  pop\n  jump\t// out\n    /* \"#utility.yul\":1169:1562   */\ntag_13:\n    /* \"#utility.yul\":1238:1244   */\n  0x00\n    /* \"#utility.yul\":1288:1289   */\n  0x08\n    /* \"#utility.yul\":1276:1286   */\n  dup4\n    /* \"#utility.yul\":1272:1290   */\n  mul\n    /* \"#utility.yul\":1311:1408   */\n  tag_38\n    /* \"#utility.yul\":1341:1407   */\n  0xffffffffffffffffffffffffffffffffffffffffffffffffffffffffffffffff\n    /* \"#utility.yul\":1330:1339   */\n  dup3\n    /* \"#utility.yul\":1311:1408   */\n  tag_12\n  jump\t// in\ntag_38:\n    /* \"#utility.yul\":1429:1468   */\n  tag_39\n    /* \"#utility.yul\":1459:1467   */\n  dup7\n    /* \"#utility.yul\":1448:1457   */\n  dup4\n    /* \"#utility.yul\":1429:1468   */\n  tag_12\n  jump\t// in\ntag_39:\n    /* \"#utility.yul\":1417:1468   */\n  swap6\n  pop\n    /* \"#utility.yul\":1501:1505   */\n  dup1\n    /* \"#utility.yul\":1497:1506   */\n  not\n    /* \"#utility.yul\":1490:1495   */\n  dup5\n    /* \"#utility.yul\":1486:1507   */\n  and\n    /* \"#utility.yul\":1477:1507   */\n  swap4\n  pop\n    /* \"#utility.yul\":1550:1554   */\n  dup1\n    /* \"#utility.yul\":1540:1548   */\n  dup7\n    /* \"#utility.yul\":1536:1555   */\n  and\n    /* \"#utility.yul\":1529:1534   */\n  dup5\n    /* \"#utility.yul\":1526:1556   */\n  or\n    /* \"#utility.yul\":1516:1556   */\n  swap3\n  pop\n    /* \"#utility.yul\":1245:1562   */\n  pop\n  pop\n    /* \"#utility.yul\":1169:1562   */\n  swap4\n  swap3\n  pop\n  pop\n  pop\n  jump\t// out\n    /* \"#utility.yul\":1568:1645   */\ntag_14:\n    /* \"#utility.yul\":1605:1612   */\n  0x00\n    /* \"#utility.yul\":1634:1639   */\n  dup2\n    /* \"#utility.yul\":1623:1639   */\n  swap1\n  pop\n    /* \"#utility.yul\":1568:1645   */\n  swap2\n  swap1\n  pop\n  jump\t// out\n    /* \"#utility.yul\":1651:1711   */\ntag_15:\n    /* \"#utility.yul\":1679:1682   */\n  0x00\n    /* \"#utility.yul\":1700:1705   */\n  dup2\n    /* \"#utility.yul\":1693:1705   */\n  swap1\n  pop\n    /* \"#utility.yul\":1651:1711   */\n  swap2\n  swap1\n  pop\n  jump\t// out\n    /* \"#utility.yul\":1717:1859   */\ntag_16:\n    /* \"#utility.yul\":1767:1776   */\n  0x00\n    /* \"#utility.yul\":1800:1853   */\n  tag_43\n    /* \"#utility.yul\":1818:1852   */\n  tag_44\n    /* \"#utility.yul\":1827:1851   */\n  tag_45\n    /* \"#utility.yul\":1845:1850   */\n  dup5\n    /* \"#utility.yul\":1827:1851   */\n  tag_14\n  jump\t// in\ntag_45:\n    /* \"#utility.yul\":1818:1852   */\n  tag_15\n  jump\t// in\ntag_44:\n    /* \"#utility.yul\":1800:1853   */\n  tag_14\n  jump\t// in\ntag_43:\n    /* \"#utility.yul\":1787:1853   */\n  swap1\n  pop\n    /* \"#utility.yul\":1717:1859   */\n  swap2\n  swap1\n  pop\n  jump\t// out\n    /* \"#utility.yul\":1865:1940   */\ntag_17:\n    /* \"#utility.yul\":1908:1911   */\n  0x00\n    /* \"#utility.yul\":1929:1934   */\n  dup2\n    /* \"#utility.yul\":1922:1934   */\n  swap1\n  pop\n    /* \"#utility.yul\":1865:1940   */\n  swap2\n  swap1\n  pop\n  jump\t// out\n    /* \"#utility.yul\":1946:2215   */\ntag_18:\n    /* \"#utility.yul\":2056:2095   */\n  tag_48\n    /* \"#utility.yul\":2087:2094   */\n  dup4\n    /* \"#utility.yul\":2056:2095   */\n  tag_16\n  jump\t// in\ntag_48:\n    /* \"#utility.yul\":2117:2208   */\n  tag_49\n    /* \"#utility.yul\":2166:2207   */\n  tag_50\n    /* \"#utility.yul\":2190:2206   */\n  dup3\n    /* \"#utility.yul\":2166:2207   */\n  tag_17\n  jump\t// in\ntag_50:\n    /* \"#utility.yul\":2158:2164   */\n  dup5\n    /* \"#utility.yul\":2151:2155   */\n  dup5\n    /* \"#utility.yul\":2145:2156   */\n  sload\n    /* \"#utility.yul\":2117:2208   */\n  tag_13\n  jump\t// in\ntag_49:\n    /* \"#utility.yul\":2111:2115   */\n  dup3\n    /* \"#utility.yul\":2104:2209   */\n  sstore\n    /* \"#utility.yul\":2022:2215   */\n  pop\n    /* \"#utility.yul\":1946:2215   */\n  pop\n  pop\n  pop\n  jump\t// out\n    /* \"#utility.yul\":2221:2294   */\ntag_19:\n    /* \"#utility.yul\":2266:2269   */\n  0x00\n    /* \"#utility.yul\":2221:2294   */\n  swap1\n  jump\t// out\n    /* \"#utility.yul\":2300:2489   */\ntag_20:\n    /* \"#utility.yul\":2377:2409   */\n  tag_53\n  tag_19\n  jump\t// in\ntag_53:\n    /* \"#utility.yul\":2418:2483   */\n  tag_54\n    /* \"#utility.yul\":2476:2482   */\n  dup2\n    /* \"#utility.yul\":2468:2474   */\n  dup5\n    /* \"#utility.yul\":2462:2466   */\n  dup5\n    /* \"#utility.yul\":2418:2483   */\n  tag_18\n  jump\t// in\ntag_54:\n    /* \"#utility.yul\":2353:2489   */\n  pop\n    /* \"#utility.yul\":2300:2489   */\n  pop\n  pop\n  jump\t// out\n    /* \"#utility.yul\":2495:2681   */\ntag_21:\n    /* \"#utility.yul\":2555:2675   */\ntag_56:\n    /* \"#utility.yul\":2572:2575   */\n  dup2\n    /* \"#utility.yul\":2565:2570   */\n  dup2\n    /* \"#utility.yul\":2562:2576   */\n  lt\n    /* \"#utility.yul\":2555:2675   */\n  iszero\n  tag_58\n  jumpi\n    /* \"#utility.yul\":2626:2665   */\n  tag_59\n    /* \"#utility.yul\":2663:2664   */\n  0x00\n    /* \"#utility.yul\":2656:2661   */\n  dup3\n    /* \"#utility.yul\":2626:2665   */\n  tag_20\n  jump\t// in\ntag_59:\n    /* \"#utility.yul\":2599:2600   */\n  0x01\n    /* \"#utility.yul\":2592:2597   */\n  dup2\n    /* \"#utility.yul\":2588:2601   */\n  add\n    /* \"#utility.yul\":2579:2601   */\n  swap1\n  pop\n    /* \"#utility.yul\":2555:2675   */\n  jump(tag_56)\ntag_58:\n    /* \"#utility.yul\":2495:2681   */\n  pop\n  pop\n  jump\t// out\n    /* \"#utility.yul\":2687:3230   */\ntag_22:\n    /* \"#utility.yul\":2788:2790   */\n  0x1f\n    /* \"#utility.yul\":2783:2786   */\n  dup3\n    /* \"#utility.yul\":2780:2791   */\n  gt\n    /* \"#utility.yul\":2777:3223   */\n  iszero\n  tag_61\n  jumpi\n    /* \"#utility.yul\":2822:2860   */\n  tag_62\n    /* \"#utility.yul\":2854:2859   */\n  dup2\n    /* \"#utility.yul\":2822:2860   */\n  tag_10\n  jump\t// in\ntag_62:\n    /* \"#utility.yul\":2906:2935   */\n  tag_63\n    /* \"#utility.yul\":2924:2934   */\n  dup5\n    /* \"#utility.yul\":2906:2935   */\n  tag_11\n  jump\t// in\ntag_63:\n    /* \"#utility.yul\":2896:2904   */\n  dup2\n    /* \"#utility.yul\":2892:2936   */\n  add\n    /* \"#utility.yul\":3089:3091   */\n  0x20\n    /* \"#utility.yul\":3077:3087   */\n  dup6\n    /* \"#utility.yul\":3074:3092   */\n  lt\n    /* \"#utility.yul\":3071:3120   */\n  iszero\n  tag_64\n  jumpi\n    /* \"#utility.yul\":3110:3118   */\n  dup2\n    /* \"#utility.yul\":3095:3118   */\n  swap1\n  pop\n    /* \"#utility.yul\":3071:3120   */\ntag_64:\n    /* \"#utility.yul\":3133:3213   */\n  tag_65\n    /* \"#utility.yul\":3189:3211   */\n  tag_66\n    /* \"#utility.yul\":3207:3210   */\n  dup6\n    /* \"#utility.yul\":3189:3211   */\n  tag_11\n  jump\t// in\ntag_66:\n    /* \"#utility.yul\":3179:3187   */\n  dup4\n    /* \"#utility.yul\":3175:3212   */\n  add\n    /* \"#utility.yul\":3162:3173   */\n  dup3\n    /* \"#utility.yul\":3133:3213   */\n  tag_21\n  jump\t// in\ntag_65:\n    /* \"#utility.yul\":2792:3223   */\n  pop\n  pop\n    /* \"#utility.yul\":2777:3223   */\ntag_61:\n    /* \"#utility.yul\":2687:3230   */\n  pop\n  pop\n  pop\n  jump\t// out\n    /* \"#utility.yul\":3236:3353   */\ntag_23:\n    /* \"#utility.yul\":3290:3298   */\n  0x00\n    /* \"#utility.yul\":3340:3345   */\n  dup3\n    /* \"#utility.yul\":3334:3338   */\n  dup3\n    /* \"#utility.yul\":3330:3346   */\n  shr\n    /* \"#utility.yul\":3309:3346   */\n  swap1\n  pop\n    /* \"#utility.yul\":3236:3353   */\n  swap3\n  swap2\n  pop\n  pop\n  jump\t// out\n    /* \"#utility.yul\":3359:3528   */\ntag_24:\n    /* \"#utility.yul\":3403:3409   */\n  0x00\n    /* \"#utility.yul\":3436:3487   */\n  tag_69\n    /* \"#utility.yul\":3484:3485   */\n  0x00\n    /* \"#utility.yul\":3480:3486   */\n  not\n    /* \"#utility.yul\":3472:3477   */\n  dup5\n    /* \"#utility.yul\":3469:3470   */\n  0x08\n    /* \"#utility.yul\":3465:3478   */\n  mul\n    /* \"#utility.yul\":3436:3487   */\n  tag_23\n  jump\t// in\ntag_69:\n    /* \"#utility.yul\":3432:3488   */\n  not\n    /* \"#utility.yul\":3517:3521   */\n  dup1\n    /* \"#utility.yul\":3511:3515   */\n  dup4\n    /* \"#utility.yul\":3507:3522   */\n  and\n    /* \"#utility.yul\":3497:3522   */\n  swap2\n  pop\n    /* \"#utility.yul\":3410:3528   */\n  pop\n    /* \"#utility.yul\":3359:3528   */\n  swap3\n  swap2\n  pop\n  pop\n  jump\t// out\n    /* \"#utility.yul\":3533:3828   */\ntag_25:\n    /* \"#utility.yul\":3609:3613   */\n  0x00\n    /* \"#utility.yul\":3755:3784   */\n  tag_71\n    /* \"#utility.yul\":3780:3783   */\n  dup4\n    /* \"#utility.yul\":3774:3778   */\n  dup4\n    /* \"#utility.yul\":3755:3784   */\n  tag_24\n  jump\t// in\ntag_71:\n    /* \"#utility.yul\":3747:3784   */\n  swap2\n  pop\n    /* \"#utility.yul\":3817:3820   */\n  dup3\n    /* \"#utility.yul\":3814:3815   */\n  0x02\n    /* \"#utility.yul\":3810:3821   */\n  mul\n    /* \"#utility.yul\":3804:3808   */\n  dup3\n    /* \"#utility.yul\":3801:3822   */\n  or\n    /* \"#utility.yul\":3793:3822   */\n  swap1\n  pop\n    /* \"#utility.yul\":3533:3828   */\n  swap3\n  swap2\n  pop\n  pop\n  jump\t// out\n    /* \"#utility.yul\":3833:5228   */\ntag_2:\n    /* \"#utility.yul\":3950:3987   */\n  tag_73\n    /* \"#utility.yul\":3983:3986   */\n  dup3\n    /* \"#utility.yul\":3950:3987   */\n  tag_6\n  jump\t// in\ntag_73:\n    /* \"#utility.yul\":4052:4070   */\n  0xffffffffffffffff\n    /* \"#utility.yul\":4044:4050   */\n  dup2\n    /* \"#utility.yul\":4041:4071   */\n  gt\n    /* \"#utility.yul\":4038:4094   */\n  iszero\n  tag_74\n  jumpi\n    /* \"#utility.yul\":4074:4092   */\n  tag_75\n  tag_7\n  jump\t// in\ntag_75:\n    /* \"#utility.yul\":4038:4094   */\ntag_74:\n    /* \"#utility.yul\":4118:4156   */\n  tag_76\n    /* \"#utility.yul\":4150:4154   */\n  dup3\n    /* \"#utility.yul\":4144:4155   */\n  sload\n    /* \"#utility.yul\":4118:4156   */\n  tag_9\n  jump\t// in\ntag_76:\n    /* \"#utility.yul\":4203:4270   */\n  tag_77\n    /* \"#utility.yul\":4263:4269   */\n  dup3\n    /* \"#utility.yul\":4255:4261   */\n  dup3\n    /* \"#utility.yul\":4249:4253   */\n  dup6\n    /* \"#utility.yul\":4203:4270   */\n  tag_22\n  jump\t// in\ntag_77:\n    /* \"#utility.yul\":4297:4298   */\n  0x00\n    /* \"#utility.yul\":4321:4325   */\n  0x20\n    /* \"#utility.yul\":4308:4325   */\n  swap1\n  pop\n    /* \"#utility.yul\":4353:4355   */\n  0x1f\n    /* \"#utility.yul\":4345:4351   */\n  dup4\n    /* \"#utility.yul\":4342:4356   */\n  gt\n    /* \"#utility.yul\":4370:4371   */\n  0x01\n    /* \"#utility.yul\":4365:4983   */\n  dup2\n  eq\n  tag_79\n  jumpi\n    /* \"#utility.yul\":5027:5028   */\n  0x00\n    /* \"#utility.yul\":5044:5050   */\n  dup5\n    /* \"#utility.yul\":5041:5118   */\n  iszero\n  tag_80\n  jumpi\n    /* \"#utility.yul\":5093:5102   */\n  dup3\n    /* \"#utility.yul\":5088:5091   */\n  dup8\n    /* \"#utility.yul\":5084:5103   */\n  add\n    /* \"#utility.yul\":5078:5104   */\n  mload\n    /* \"#utility.yul\":5069:5104   */\n  swap1\n  pop\n    /* \"#utility.yul\":5041:5118   */\ntag_80:\n    /* \"#utility.yul\":5144:5211   */\n  tag_81\n    /* \"#utility.yul\":5204:5210   */\n  dup6\n    /* \"#utility.yul\":5197:5202   */\n  dup3\n    /* \"#utility.yul\":5144:5211   */\n  tag_25\n  jump\t// in\ntag_81:\n    /* \"#utility.yul\":5138:5142   */\n  dup7\n    /* \"#utility.yul\":5131:5212   */\n  sstore\n    /* \"#utility.yul\":5000:5222   */\n  pop\n    /* \"#utility.yul\":4335:5222   */\n  jump(tag_78)\n    /* \"#utility.yul\":4365:4983   */\ntag_79:\n    /* \"#utility.yul\":4417:4421   */\n  0x1f\n    /* \"#utility.yul\":4413:4422   */\n  not\n    /* \"#utility.yul\":4405:4411   */\n  dup5\n    /* \"#utility.yul\":4401:4423   */\n  and\n    /* \"#utility.yul\":4451:4488   */\n  tag_82\n    /* \"#utility.yul\":4483:4487   */\n  dup7\n    /* \"#utility.yul\":4451:4488   */\n  tag_10\n  jump\t// in\ntag_82:\n    /* \"#utility.yul\":4510:4511   */\n  0x00\n    /* \"#utility.yul\":4524:4732   */\ntag_83:\n    /* \"#utility.yul\":4538:4545   */\n  dup3\n    /* \"#utility.yul\":4535:4536   */\n  dup2\n    /* \"#utility.yul\":4532:4546   */\n  lt\n    /* \"#utility.yul\":4524:4732   */\n  iszero\n  tag_85\n  jumpi\n    /* \"#utility.yul\":4617:4626   */\n  dup5\n    /* \"#utility.yul\":4612:4615   */\n  dup10\n    /* \"#utility.yul\":4608:4627   */\n  add\n    /* \"#utility.yul\":4602:4628   */\n  mload\n    /* \"#utility.yul\":4594:4600   */\n  dup3\n    /* \"#utility.yul\":4587:4629   */\n  sstore\n    /* \"#utility.yul\":4668:4669   */\n  0x01\n    /* \"#utility.yul\":4660:4666   */\n  dup3\n    /* \"#utility.yul\":4656:4670   */\n  add\n    /* \"#utility.yul\":4646:4670   */\n  swap2\n  pop\n    /* \"#utility.yul\":4715:4717   */\n  0x20\n    /* \"#utility.yul\":4704:4713   */\n  dup6\n    /* \"#utility.yul\":4700:4718   */\n  add\n    /* \"#utility.yul\":4687:4718   */\n  swap5\n  pop\n    /* \"#utility.yul\":4561:4565   */\n  0x20\n    /* \"#utility.yul\":4558:4559   */\n  dup2\n    /* \"#utility.yul\":4554:4566   */\n  add\n    /* \"#utility.yul\":4549:4566   */\n  swap1\n  pop\n    /* \"#utility.yul\":4524:4732   */\n  jump(tag_83)\ntag_85:\n    /* \"#utility.yul\":4760:4766   */\n  dup7\n    /* \"#utility.yul\":4751:4758   */\n  dup4\n    /* \"#utility.yul\":4748:4767   */\n  lt\n    /* \"#utility.yul\":4745:4924   */\n  iszero\n  tag_86\n  jumpi\n    /* \"#utility.yul\":4818:4827   */\n  dup5\n    /* \"#utility.yul\":4813:4816   */\n  dup10\n    /* \"#utility.yul\":4809:4828   */\n  add\n    /* \"#utility.yul\":4803:4829   */\n  mload\n    /* \"#utility.yul\":4861:4909   */\n  tag_87\n    /* \"#utility.yul\":4903:4907   */\n  0x1f\n    /* \"#utility.yul\":4895:4901   */\n  dup10\n    /* \"#utility.yul\":4891:4908   */\n  and\n    /* \"#utility.yul\":4880:4889   */\n  dup3\n    /* \"#utility.yul\":4861:4909   */\n  tag_24\n  jump\t// in\ntag_87:\n    /* \"#utility.yul\":4853:4859   */\n  dup4\n    /* \"#utility.yul\":4846:4910   */\n  sstore\n    /* \"#utility.yul\":4768:4924   */\n  pop\n    /* \"#utility.yul\":4745:4924   */\ntag_86:\n    /* \"#utility.yul\":4970:4971   */\n  0x01\n    /* \"#utility.yul\":4966:4967   */\n  0x02\n    /* \"#utility.yul\":4958:4964   */\n  dup9\n    /* \"#utility.yul\":4954:4968   */\n  mul\n    /* \"#utility.yul\":4950:4972   */\n  add\n    /* \"#utility.yul\":4944:4948   */\n  dup9\n    /* \"#utility.yul\":4937:4973   */\n  sstore\n    /* \"#utility.yul\":4372:4983   */\n  pop\n  pop\n  pop\n    /* \"#utility.yul\":4335:5222   */\ntag_78:\n  pop\n    /* \"#utility.yul\":3925:5228   */\n  pop\n  pop\n  pop\n    /* \"#utility.yul\":3833:5228   */\n  pop\n  pop\n  jump\t// out\n    /* \"wmbToken.sol\":1231:4794  contract wmbToken is IERC20 {... */\ntag_5:\n  dataSize(sub_0)\n  dup1\n  dataOffset(sub_0)\n  0x00\n  codecopy\n  0x00\n  return\nstop\n\nsub_0: assembly {\n        /* \"wmbToken.sol\":1231:4794  contract wmbToken is IERC20 {... */\n      mstore(0x40, 0x80)\n      callvalue\n      dup1\n      iszero\n      tag_1\n      jumpi\n      0x00\n      dup1\n      revert\n    tag_1:\n      pop\n      jumpi(tag_2, lt(calldatasize, 0x04))\n      shr(0xe0, calldataload(0x00))\n      dup1\n      0x95d89b41\n      gt\n      tag_23\n      jumpi\n      dup1\n      0xc47f0027\n      gt\n      tag_24\n      jumpi\n      dup1\n      0xc47f0027\n      eq\n      tag_18\n      jumpi\n      dup1\n      0xcf315815\n      eq\n      tag_19\n      jumpi\n      dup1\n      0xd9caa2d7\n      eq\n      tag_20\n      jumpi\n      dup1\n      0xdd62ed3e\n      eq\n      tag_21\n      jumpi\n      dup1\n      0xec98ce3f\n      eq\n      tag_22\n      jumpi\n      jump(tag_2)\n    tag_24:\n      dup1\n      0x95d89b41\n      eq\n      tag_13\n      jumpi\n      dup1\n      0x9c1b2f09\n      eq\n      tag_14\n      jumpi\n      dup1\n      0x9e59965e\n      eq\n      tag_15\n      jumpi\n      dup1\n      0xa0712d68\n      eq\n      tag_16\n      jumpi\n      dup1\n      0xa9059cbb\n      eq\n      tag_17\n      jumpi\n      jump(tag_2)\n    tag_23:\n      dup1\n      0x313ce567\n      gt\n      tag_25\n      jumpi\n      dup1\n      0x313ce567\n      eq\n      tag_8\n      jumpi\n      dup1\n      0x38195f28\n      eq\n      tag_9\n      jumpi\n      dup1\n      0x42966c68\n      eq\n      tag_10\n      jumpi\n      dup1\n      0x4e863271\n      eq\n      tag_11\n      jumpi\n      dup1\n      0x70a08231\n      eq\n      tag_12\n      jumpi\n      jump(tag_2)\n    tag_25:\n      dup1\n      0x06fdde03\n      eq\n      tag_3\n      jumpi\n      dup1\n      0x095ea7b3\n      eq\n      tag_4\n      jumpi\n      dup1\n      0x0b755556\n      eq\n      tag_5\n      jumpi\n      dup1\n      0x18160ddd\n      eq\n      tag_6\n      jumpi\n      dup1\n      0x23b872dd\n      eq\n      tag_7\n      jumpi\n    tag_2:\n      0x00\n      dup1\n      revert\n        /* \"wmbToken.sol\":1412:1443  string public name = \"WMBWalks\" */\n    tag_3:\n      tag_26\n      tag_27\n      jump\t// in\n    tag_26:\n      mload(0x40)\n      tag_28\n      swap2\n      swap1\n      tag_29\n      jump\t// in\n    tag_28:\n      mload(0x40)\n      dup1\n      swap2\n      sub\n      swap1\n      return\n        /* \"wmbToken.sol\":2351:2554  function approve(address spender, uint amount) external returns (bool){... */\n    tag_4:\n      tag_30\n      0x04\n      dup1\n      calldatasize\n      sub\n      dup2\n      add\n      swap1\n      tag_31\n      swap2\n      swap1\n      tag_32\n      jump\t// in\n    tag_31:\n      tag_33\n      jump\t// in\n    tag_30:\n      mload(0x40)\n      tag_34\n      swap2\n      swap1\n      tag_35\n      jump\t// in\n    tag_34:\n      mload(0x40)\n      dup1\n      swap2\n      sub\n      swap1\n      return\n        /* \"wmbToken.sol\":1579:1623  mapping(address => string) public personName */\n    tag_5:\n      tag_36\n      0x04\n      dup1\n      calldatasize\n      sub\n      dup2\n      add\n      swap1\n      tag_37\n      swap2\n      swap1\n      tag_38\n      jump\t// in\n    tag_37:\n      tag_39\n      jump\t// in\n    tag_36:\n      mload(0x40)\n      tag_40\n      swap2\n      swap1\n      tag_29\n      jump\t// in\n    tag_40:\n      mload(0x40)\n      dup1\n      swap2\n      sub\n      swap1\n      return\n        /* \"wmbToken.sol\":1266:1289  uint public totalSupply */\n    tag_6:\n      tag_41\n      tag_42\n      jump\t// in\n    tag_41:\n      mload(0x40)\n      tag_43\n      swap2\n      swap1\n      tag_44\n      jump\t// in\n    tag_43:\n      mload(0x40)\n      dup1\n      swap2\n      sub\n      swap1\n      return\n        /* \"wmbToken.sol\":2562:2865  function transferFrom(address sender, address recipient, uint amount) external returns (bool){... */\n    tag_7:\n      tag_45\n      0x04\n      dup1\n      calldatasize\n      sub\n      dup2\n      add\n      swap1\n      tag_46\n      swap2\n      swap1\n      tag_47\n      jump\t// in\n    tag_46:\n      tag_48\n      jump\t// in\n    tag_45:\n      mload(0x40)\n      tag_49\n      swap2\n      swap1\n      tag_35\n      jump\t// in\n    tag_49:\n      mload(0x40)\n      dup1\n      swap2\n      sub\n      swap1\n      return\n        /* \"wmbToken.sol\":1485:1510  uint8 public decimals = 2 */\n    tag_8:\n      tag_50\n      tag_51\n      jump\t// in\n    tag_50:\n      mload(0x40)\n      tag_52\n      swap2\n      swap1\n      tag_53\n      jump\t// in\n    tag_52:\n      mload(0x40)\n      dup1\n      swap2\n      sub\n      swap1\n      return\n        /* \"wmbToken.sol\":3915:4081  function setStravaInfo(string calldata user, string calldata pword) external {... */\n    tag_9:\n      tag_54\n      0x04\n      dup1\n      calldatasize\n      sub\n      dup2\n      add\n      swap1\n      tag_55\n      swap2\n      swap1\n      tag_56\n      jump\t// in\n    tag_55:\n      tag_57\n      jump\t// in\n    tag_54:\n      stop\n        /* \"wmbToken.sol\":3619:3793  function burn(uint amount) external {... */\n    tag_10:\n      tag_58\n      0x04\n      dup1\n      calldatasize\n      sub\n      dup2\n      add\n      swap1\n      tag_59\n      swap2\n      swap1\n      tag_60\n      jump\t// in\n    tag_59:\n      tag_61\n      jump\t// in\n    tag_58:\n      stop\n        /* \"wmbToken.sol\":3801:3907  function setPersonName(string calldata person) external {... */\n    tag_11:\n      tag_62\n      0x04\n      dup1\n      calldatasize\n      sub\n      dup2\n      add\n      swap1\n      tag_63\n      swap2\n      swap1\n      tag_64\n      jump\t// in\n    tag_63:\n      tag_65\n      jump\t// in\n    tag_62:\n      stop\n        /* \"wmbToken.sol\":1296:1337  mapping(address => uint) public balanceOf */\n    tag_12:\n      tag_66\n      0x04\n      dup1\n      calldatasize\n      sub\n      dup2\n      add\n      swap1\n      tag_67\n      swap2\n      swap1\n      tag_38\n      jump\t// in\n    tag_67:\n      tag_68\n      jump\t// in\n    tag_66:\n      mload(0x40)\n      tag_69\n      swap2\n      swap1\n      tag_44\n      jump\t// in\n    tag_69:\n      mload(0x40)\n      dup1\n      swap2\n      sub\n      swap1\n      return\n        /* \"wmbToken.sol\":1450:1478  string public symbol = \"WMB\" */\n    tag_13:\n      tag_70\n      tag_71\n      jump\t// in\n    tag_70:\n      mload(0x40)\n      tag_72\n      swap2\n      swap1\n      tag_29\n      jump\t// in\n    tag_72:\n      mload(0x40)\n      dup1\n      swap2\n      sub\n      swap1\n      return\n        /* \"wmbToken.sol\":1630:1672  mapping(address => string) public stravaID */\n    tag_14:\n      tag_73\n      0x04\n      dup1\n      calldatasize\n      sub\n      dup2\n      add\n      swap1\n      tag_74\n      swap2\n      swap1\n      tag_38\n      jump\t// in\n    tag_74:\n      tag_75\n      jump\t// in\n    tag_73:\n      mload(0x40)\n      tag_76\n      swap2\n      swap1\n      tag_29\n      jump\t// in\n    tag_76:\n      mload(0x40)\n      dup1\n      swap2\n      sub\n      swap1\n      return\n        /* \"wmbToken.sol\":1679:1725  mapping(address => string) public stravaSecret */\n    tag_15:\n      tag_77\n      0x04\n      dup1\n      calldatasize\n      sub\n      dup2\n      add\n      swap1\n      tag_78\n      swap2\n      swap1\n      tag_38\n      jump\t// in\n    tag_78:\n      tag_79\n      jump\t// in\n    tag_77:\n      mload(0x40)\n      tag_80\n      swap2\n      swap1\n      tag_29\n      jump\t// in\n    tag_80:\n      mload(0x40)\n      dup1\n      swap2\n      sub\n      swap1\n      return\n        /* \"wmbToken.sol\":2898:3575  function mint(uint amount) external {... */\n    tag_16:\n      tag_81\n      0x04\n      dup1\n      calldatasize\n      sub\n      dup2\n      add\n      swap1\n      tag_82\n      swap2\n      swap1\n      tag_60\n      jump\t// in\n    tag_82:\n      tag_83\n      jump\t// in\n    tag_81:\n      stop\n        /* \"wmbToken.sol\":2101:2343  function transfer (address recipient, uint amount) external returns (bool){... */\n    tag_17:\n      tag_84\n      0x04\n      dup1\n      calldatasize\n      sub\n      dup2\n      add\n      swap1\n      tag_85\n      swap2\n      swap1\n      tag_32\n      jump\t// in\n    tag_85:\n      tag_86\n      jump\t// in\n    tag_84:\n      mload(0x40)\n      tag_87\n      swap2\n      swap1\n      tag_35\n      jump\t// in\n    tag_87:\n      mload(0x40)\n      dup1\n      swap2\n      sub\n      swap1\n      return\n        /* \"wmbToken.sol\":4091:4188  function setName(string calldata Pname) external{... */\n    tag_18:\n      tag_88\n      0x04\n      dup1\n      calldatasize\n      sub\n      dup2\n      add\n      swap1\n      tag_89\n      swap2\n      swap1\n      tag_64\n      jump\t// in\n    tag_89:\n      tag_90\n      jump\t// in\n    tag_88:\n      stop\n        /* \"wmbToken.sol\":1757:1797  mapping(address => bool) public has100km */\n    tag_19:\n      tag_91\n      0x04\n      dup1\n      calldatasize\n      sub\n      dup2\n      add\n      swap1\n      tag_92\n      swap2\n      swap1\n      tag_38\n      jump\t// in\n    tag_92:\n      tag_93\n      jump\t// in\n    tag_91:\n      mload(0x40)\n      tag_94\n      swap2\n      swap1\n      tag_35\n      jump\t// in\n    tag_94:\n      mload(0x40)\n      dup1\n      swap2\n      sub\n      swap1\n      return\n        /* \"wmbToken.sol\":1804:1844  mapping(address => bool) public has500km */\n    tag_20:\n      tag_95\n      0x04\n      dup1\n      calldatasize\n      sub\n      dup2\n      add\n      swap1\n      tag_96\n      swap2\n      swap1\n      tag_38\n      jump\t// in\n    tag_96:\n      tag_97\n      jump\t// in\n    tag_95:\n      mload(0x40)\n      tag_98\n      swap2\n      swap1\n      tag_35\n      jump\t// in\n    tag_98:\n      mload(0x40)\n      dup1\n      swap2\n      sub\n      swap1\n      return\n        /* \"wmbToken.sol\":1344:1405  mapping(address => mapping(address => uint)) public allowance */\n    tag_21:\n      tag_99\n      0x04\n      dup1\n      calldatasize\n      sub\n      dup2\n      add\n      swap1\n      tag_100\n      swap2\n      swap1\n      tag_101\n      jump\t// in\n    tag_100:\n      tag_102\n      jump\t// in\n    tag_99:\n      mload(0x40)\n      tag_103\n      swap2\n      swap1\n      tag_44\n      jump\t// in\n    tag_103:\n      mload(0x40)\n      dup1\n      swap2\n      sub\n      swap1\n      return\n        /* \"wmbToken.sol\":1852:1893  mapping(address => bool) public has1000km */\n    tag_22:\n      tag_104\n      0x04\n      dup1\n      calldatasize\n      sub\n      dup2\n      add\n      swap1\n      tag_105\n      swap2\n      swap1\n      tag_38\n      jump\t// in\n    tag_105:\n      tag_106\n      jump\t// in\n    tag_104:\n      mload(0x40)\n      tag_107\n      swap2\n      swap1\n      tag_35\n      jump\t// in\n    tag_107:\n      mload(0x40)\n      dup1\n      swap2\n      sub\n      swap1\n      return\n        /* \"wmbToken.sol\":1412:1443  string public name = \"WMBWalks\" */\n    tag_27:\n      0x03\n      dup1\n      sload\n      tag_108\n      swap1\n      tag_109\n      jump\t// in\n    tag_108:\n      dup1\n      0x1f\n      add\n      0x20\n      dup1\n      swap2\n      div\n      mul\n      0x20\n      add\n      mload(0x40)\n      swap1\n      dup2\n      add\n      0x40\n      mstore\n      dup1\n      swap3\n      swap2\n      swap1\n      dup2\n      dup2\n      mstore\n      0x20\n      add\n      dup3\n      dup1\n      sload\n      tag_110\n      swap1\n      tag_109\n      jump\t// in\n    tag_110:\n      dup1\n      iszero\n      tag_111\n      jumpi\n      dup1\n      0x1f\n      lt\n      tag_112\n      jumpi\n      0x0100\n      dup1\n      dup4\n      sload\n      div\n      mul\n      dup4\n      mstore\n      swap2\n      0x20\n      add\n      swap2\n      jump(tag_111)\n    tag_112:\n      dup3\n      add\n      swap2\n      swap1\n      0x00\n      mstore\n      keccak256(0x00, 0x20)\n      swap1\n    tag_113:\n      dup2\n      sload\n      dup2\n      mstore\n      swap1\n      0x01\n      add\n      swap1\n      0x20\n      add\n      dup1\n      dup4\n      gt\n      tag_113\n      jumpi\n      dup3\n      swap1\n      sub\n      0x1f\n      and\n      dup3\n      add\n      swap2\n    tag_111:\n      pop\n      pop\n      pop\n      pop\n      pop\n      dup2\n      jump\t// out\n        /* \"wmbToken.sol\":2351:2554  function approve(address spender, uint amount) external returns (bool){... */\n    tag_33:\n        /* \"wmbToken.sol\":2416:2420  bool */\n      0x00\n        /* \"wmbToken.sol\":2465:2471  amount */\n      dup2\n        /* \"wmbToken.sol\":2432:2441  allowance */\n      0x02\n        /* \"wmbToken.sol\":2432:2453  allowance[msg.sender] */\n      0x00\n        /* \"wmbToken.sol\":2442:2452  msg.sender */\n      caller\n        /* \"wmbToken.sol\":2432:2453  allowance[msg.sender] */\n      0xffffffffffffffffffffffffffffffffffffffff\n      and\n      0xffffffffffffffffffffffffffffffffffffffff\n      and\n      dup2\n      mstore\n      0x20\n      add\n      swap1\n      dup2\n      mstore\n      0x20\n      add\n      0x00\n      keccak256\n        /* \"wmbToken.sol\":2432:2462  allowance[msg.sender][spender] */\n      0x00\n        /* \"wmbToken.sol\":2454:2461  spender */\n      dup6\n        /* \"wmbToken.sol\":2432:2462  allowance[msg.sender][spender] */\n      0xffffffffffffffffffffffffffffffffffffffff\n      and\n      0xffffffffffffffffffffffffffffffffffffffff\n      and\n      dup2\n      mstore\n      0x20\n      add\n      swap1\n      dup2\n      mstore\n      0x20\n      add\n      0x00\n      keccak256\n        /* \"wmbToken.sol\":2432:2471  allowance[msg.sender][spender] = amount */\n      dup2\n      swap1\n      sstore\n      pop\n        /* \"wmbToken.sol\":2508:2515  spender */\n      dup3\n        /* \"wmbToken.sol\":2487:2524  Approval(msg.sender, spender, amount) */\n      0xffffffffffffffffffffffffffffffffffffffff\n      and\n        /* \"wmbToken.sol\":2496:2506  msg.sender */\n      caller\n        /* \"wmbToken.sol\":2487:2524  Approval(msg.sender, spender, amount) */\n      0xffffffffffffffffffffffffffffffffffffffff\n      and\n      0x8c5be1e5ebec7d5bd14f71427d1e84f3dd0314c0f7b2291e5b200ac8c7c3b925\n        /* \"wmbToken.sol\":2517:2523  amount */\n      dup5\n        /* \"wmbToken.sol\":2487:2524  Approval(msg.sender, spender, amount) */\n      mload(0x40)\n      tag_115\n      swap2\n      swap1\n      tag_44\n      jump\t// in\n    tag_115:\n      mload(0x40)\n      dup1\n      swap2\n      sub\n      swap1\n      log3\n        /* \"wmbToken.sol\":2542:2546  true */\n      0x01\n        /* \"wmbToken.sol\":2535:2546  return true */\n      swap1\n      pop\n        /* \"wmbToken.sol\":2351:2554  function approve(address spender, uint amount) external returns (bool){... */\n      swap3\n      swap2\n      pop\n      pop\n      jump\t// out\n        /* \"wmbToken.sol\":1579:1623  mapping(address => string) public personName */\n    tag_39:\n      mstore(0x20, 0x06)\n      dup1\n      0x00\n      mstore\n      keccak256(0x00, 0x40)\n      0x00\n      swap2\n      pop\n      swap1\n      pop\n      dup1\n      sload\n      tag_116\n      swap1\n      tag_109\n      jump\t// in\n    tag_116:\n      dup1\n      0x1f\n      add\n      0x20\n      dup1\n      swap2\n      div\n      mul\n      0x20\n      add\n      mload(0x40)\n      swap1\n      dup2\n      add\n      0x40\n      mstore\n      dup1\n      swap3\n      swap2\n      swap1\n      dup2\n      dup2\n      mstore\n      0x20\n      add\n      dup3\n      dup1\n      sload\n      tag_117\n      swap1\n      tag_109\n      jump\t// in\n    tag_117:\n      dup1\n      iszero\n      tag_118\n      jumpi\n      dup1\n      0x1f\n      lt\n      tag_119\n      jumpi\n      0x0100\n      dup1\n      dup4\n      sload\n      div\n      mul\n      dup4\n      mstore\n      swap2\n      0x20\n      add\n      swap2\n      jump(tag_118)\n    tag_119:\n      dup3\n      add\n      swap2\n      swap1\n      0x00\n      mstore\n      keccak256(0x00, 0x20)\n      swap1\n    tag_120:\n      dup2\n      sload\n      dup2\n      mstore\n      swap1\n      0x01\n      add\n      swap1\n      0x20\n      add\n      dup1\n      dup4\n      gt\n      tag_120\n      jumpi\n      dup3\n      swap1\n      sub\n      0x1f\n      and\n      dup3\n      add\n      swap2\n    tag_118:\n      pop\n      pop\n      pop\n      pop\n      pop\n      dup2\n      jump\t// out\n        /* \"wmbToken.sol\":1266:1289  uint public totalSupply */\n    tag_42:\n      sload(0x00)\n      dup2\n      jump\t// out\n        /* \"wmbToken.sol\":2562:2865  function transferFrom(address sender, address recipient, uint amount) external returns (bool){... */\n    tag_48:\n        /* \"wmbToken.sol\":2650:2654  bool */\n      0x00\n        /* \"wmbToken.sol\":2699:2705  amount */\n      dup2\n        /* \"wmbToken.sol\":2666:2675  allowance */\n      0x02\n        /* \"wmbToken.sol\":2666:2683  allowance[sender] */\n      0x00\n        /* \"wmbToken.sol\":2676:2682  sender */\n      dup7\n        /* \"wmbToken.sol\":2666:2683  allowance[sender] */\n      0xffffffffffffffffffffffffffffffffffffffff\n      and\n      0xffffffffffffffffffffffffffffffffffffffff\n      and\n      dup2\n      mstore\n      0x20\n      add\n      swap1\n      dup2\n      mstore\n      0x20\n      add\n      0x00\n      keccak256\n        /* \"wmbToken.sol\":2666:2695  allowance[sender][msg.sender] */\n      0x00\n        /* \"wmbToken.sol\":2684:2694  msg.sender */\n      caller\n        /* \"wmbToken.sol\":2666:2695  allowance[sender][msg.sender] */\n      0xffffffffffffffffffffffffffffffffffffffff\n      and\n      0xffffffffffffffffffffffffffffffffffffffff\n      and\n      dup2\n      mstore\n      0x20\n      add\n      swap1\n      dup2\n      mstore\n      0x20\n      add\n      0x00\n      keccak256\n      0x00\n        /* \"wmbToken.sol\":2666:2705  allowance[sender][msg.sender] -= amount */\n      dup3\n      dup3\n      sload\n      tag_122\n      swap2\n      swap1\n      tag_123\n      jump\t// in\n    tag_122:\n      swap3\n      pop\n      pop\n      dup2\n      swap1\n      sstore\n      pop\n        /* \"wmbToken.sol\":2737:2743  amount */\n      dup2\n        /* \"wmbToken.sol\":2716:2725  balanceOf */\n      0x01\n        /* \"wmbToken.sol\":2716:2733  balanceOf[sender] */\n      0x00\n        /* \"wmbToken.sol\":2726:2732  sender */\n      dup7\n        /* \"wmbToken.sol\":2716:2733  balanceOf[sender] */\n      0xffffffffffffffffffffffffffffffffffffffff\n      and\n      0xffffffffffffffffffffffffffffffffffffffff\n      and\n      dup2\n      mstore\n      0x20\n      add\n      swap1\n      dup2\n      mstore\n      0x20\n      add\n      0x00\n      keccak256\n      0x00\n        /* \"wmbToken.sol\":2716:2743  balanceOf[sender] -= amount */\n      dup3\n      dup3\n      sload\n      tag_124\n      swap2\n      swap1\n      tag_123\n      jump\t// in\n    tag_124:\n      swap3\n      pop\n      pop\n      dup2\n      swap1\n      sstore\n      pop\n        /* \"wmbToken.sol\":2778:2784  amount */\n      dup2\n        /* \"wmbToken.sol\":2754:2763  balanceOf */\n      0x01\n        /* \"wmbToken.sol\":2754:2774  balanceOf[recipient] */\n      0x00\n        /* \"wmbToken.sol\":2764:2773  recipient */\n      dup6\n        /* \"wmbToken.sol\":2754:2774  balanceOf[recipient] */\n      0xffffffffffffffffffffffffffffffffffffffff\n      and\n      0xffffffffffffffffffffffffffffffffffffffff\n      and\n      dup2\n      mstore\n      0x20\n      add\n      swap1\n      dup2\n      mstore\n      0x20\n      add\n      0x00\n      keccak256\n      0x00\n        /* \"wmbToken.sol\":2754:2784  balanceOf[recipient] += amount */\n      dup3\n      dup3\n      sload\n      tag_125\n      swap2\n      swap1\n      tag_126\n      jump\t// in\n    tag_125:\n      swap3\n      pop\n      pop\n      dup2\n      swap1\n      sstore\n      pop\n        /* \"wmbToken.sol\":2817:2826  recipient */\n      dup3\n        /* \"wmbToken.sol\":2800:2835  Transfer(sender, recipient, amount) */\n      0xffffffffffffffffffffffffffffffffffffffff\n      and\n        /* \"wmbToken.sol\":2809:2815  sender */\n      dup5\n        /* \"wmbToken.sol\":2800:2835  Transfer(sender, recipient, amount) */\n      0xffffffffffffffffffffffffffffffffffffffff\n      and\n      0xddf252ad1be2c89b69c2b068fc378daa952ba7f163c4a11628f55a4df523b3ef\n        /* \"wmbToken.sol\":2828:2834  amount */\n      dup5\n        /* \"wmbToken.sol\":2800:2835  Transfer(sender, recipient, amount) */\n      mload(0x40)\n      tag_127\n      swap2\n      swap1\n      tag_44\n      jump\t// in\n    tag_127:\n      mload(0x40)\n      dup1\n      swap2\n      sub\n      swap1\n      log3\n        /* \"wmbToken.sol\":2853:2857  true */\n      0x01\n        /* \"wmbToken.sol\":2846:2857  return true */\n      swap1\n      pop\n        /* \"wmbToken.sol\":2562:2865  function transferFrom(address sender, address recipient, uint amount) external returns (bool){... */\n      swap4\n      swap3\n      pop\n      pop\n      pop\n      jump\t// out\n        /* \"wmbToken.sol\":1485:1510  uint8 public decimals = 2 */\n    tag_51:\n      0x05\n      0x00\n      swap1\n      sload\n      swap1\n      0x0100\n      exp\n      swap1\n      div\n      0xff\n      and\n      dup2\n      jump\t// out\n        /* \"wmbToken.sol\":3915:4081  function setStravaInfo(string calldata user, string calldata pword) external {... */\n    tag_57:\n        /* \"wmbToken.sol\":4026:4030  user */\n      dup4\n      dup4\n        /* \"wmbToken.sol\":4003:4011  stravaID */\n      0x07\n        /* \"wmbToken.sol\":4003:4023  stravaID[msg.sender] */\n      0x00\n        /* \"wmbToken.sol\":4012:4022  msg.sender */\n      caller\n        /* \"wmbToken.sol\":4003:4023  stravaID[msg.sender] */\n      0xffffffffffffffffffffffffffffffffffffffff\n      and\n      0xffffffffffffffffffffffffffffffffffffffff\n      and\n      dup2\n      mstore\n      0x20\n      add\n      swap1\n      dup2\n      mstore\n      0x20\n      add\n      0x00\n      keccak256\n        /* \"wmbToken.sol\":4003:4030  stravaID[msg.sender] = user */\n      swap2\n      dup3\n      tag_129\n      swap3\n      swap2\n      swap1\n      tag_130\n      jump\t// in\n    tag_129:\n      pop\n        /* \"wmbToken.sol\":4068:4073  pword */\n      dup2\n      dup2\n        /* \"wmbToken.sol\":4041:4053  stravaSecret */\n      0x08\n        /* \"wmbToken.sol\":4041:4065  stravaSecret[msg.sender] */\n      0x00\n        /* \"wmbToken.sol\":4054:4064  msg.sender */\n      caller\n        /* \"wmbToken.sol\":4041:4065  stravaSecret[msg.sender] */\n      0xffffffffffffffffffffffffffffffffffffffff\n      and\n      0xffffffffffffffffffffffffffffffffffffffff\n      and\n      dup2\n      mstore\n      0x20\n      add\n      swap1\n      dup2\n      mstore\n      0x20\n      add\n      0x00\n      keccak256\n        /* \"wmbToken.sol\":4041:4073  stravaSecret[msg.sender] = pword */\n      swap2\n      dup3\n      tag_131\n      swap3\n      swap2\n      swap1\n      tag_130\n      jump\t// in\n    tag_131:\n      pop\n        /* \"wmbToken.sol\":3915:4081  function setStravaInfo(string calldata user, string calldata pword) external {... */\n      pop\n      pop\n      pop\n      pop\n      jump\t// out\n        /* \"wmbToken.sol\":3619:3793  function burn(uint amount) external {... */\n    tag_61:\n        /* \"wmbToken.sol\":3691:3697  amount */\n      dup1\n        /* \"wmbToken.sol\":3666:3675  balanceOf */\n      0x01\n        /* \"wmbToken.sol\":3666:3687  balanceOf[msg.sender] */\n      0x00\n        /* \"wmbToken.sol\":3676:3686  msg.sender */\n      caller\n        /* \"wmbToken.sol\":3666:3687  balanceOf[msg.sender] */\n      0xffffffffffffffffffffffffffffffffffffffff\n      and\n      0xffffffffffffffffffffffffffffffffffffffff\n      and\n      dup2\n      mstore\n      0x20\n      add\n      swap1\n      dup2\n      mstore\n      0x20\n      add\n      0x00\n      keccak256\n      0x00\n        /* \"wmbToken.sol\":3666:3697  balanceOf[msg.sender] -= amount */\n      dup3\n      dup3\n      sload\n      tag_133\n      swap2\n      swap1\n      tag_123\n      jump\t// in\n    tag_133:\n      swap3\n      pop\n      pop\n      dup2\n      swap1\n      sstore\n      pop\n        /* \"wmbToken.sol\":3723:3729  amount */\n      dup1\n        /* \"wmbToken.sol\":3708:3719  totalSupply */\n      0x00\n      dup1\n        /* \"wmbToken.sol\":3708:3729  totalSupply -= amount */\n      dup3\n      dup3\n      sload\n      tag_134\n      swap2\n      swap1\n      tag_123\n      jump\t// in\n    tag_134:\n      swap3\n      pop\n      pop\n      dup2\n      swap1\n      sstore\n      pop\n        /* \"wmbToken.sol\":3774:3775  0 */\n      0x00\n        /* \"wmbToken.sol\":3745:3785  Transfer(msg.sender, address(0), amount) */\n      0xffffffffffffffffffffffffffffffffffffffff\n      and\n        /* \"wmbToken.sol\":3754:3764  msg.sender */\n      caller\n        /* \"wmbToken.sol\":3745:3785  Transfer(msg.sender, address(0), amount) */\n      0xffffffffffffffffffffffffffffffffffffffff\n      and\n      0xddf252ad1be2c89b69c2b068fc378daa952ba7f163c4a11628f55a4df523b3ef\n        /* \"wmbToken.sol\":3778:3784  amount */\n      dup4\n        /* \"wmbToken.sol\":3745:3785  Transfer(msg.sender, address(0), amount) */\n      mload(0x40)\n      tag_135\n      swap2\n      swap1\n      tag_44\n      jump\t// in\n    tag_135:\n      mload(0x40)\n      dup1\n      swap2\n      sub\n      swap1\n      log3\n        /* \"wmbToken.sol\":3619:3793  function burn(uint amount) external {... */\n      pop\n      jump\t// out\n        /* \"wmbToken.sol\":3801:3907  function setPersonName(string calldata person) external {... */\n    tag_65:\n        /* \"wmbToken.sol\":3893:3899  person */\n      dup2\n      dup2\n        /* \"wmbToken.sol\":3868:3878  personName */\n      0x06\n        /* \"wmbToken.sol\":3868:3890  personName[msg.sender] */\n      0x00\n        /* \"wmbToken.sol\":3879:3889  msg.sender */\n      caller\n        /* \"wmbToken.sol\":3868:3890  personName[msg.sender] */\n      0xffffffffffffffffffffffffffffffffffffffff\n      and\n      0xffffffffffffffffffffffffffffffffffffffff\n      and\n      dup2\n      mstore\n      0x20\n      add\n      swap1\n      dup2\n      mstore\n      0x20\n      add\n      0x00\n      keccak256\n        /* \"wmbToken.sol\":3868:3899  personName[msg.sender] = person */\n      swap2\n      dup3\n      tag_137\n      swap3\n      swap2\n      swap1\n      tag_130\n      jump\t// in\n    tag_137:\n      pop\n        /* \"wmbToken.sol\":3801:3907  function setPersonName(string calldata person) external {... */\n      pop\n      pop\n      jump\t// out\n        /* \"wmbToken.sol\":1296:1337  mapping(address => uint) public balanceOf */\n    tag_68:\n      mstore(0x20, 0x01)\n      dup1\n      0x00\n      mstore\n      keccak256(0x00, 0x40)\n      0x00\n      swap2\n      pop\n      swap1\n      pop\n      sload\n      dup2\n      jump\t// out\n        /* \"wmbToken.sol\":1450:1478  string public symbol = \"WMB\" */\n    tag_71:\n      0x04\n      dup1\n      sload\n      tag_138\n      swap1\n      tag_109\n      jump\t// in\n    tag_138:\n      dup1\n      0x1f\n      add\n      0x20\n      dup1\n      swap2\n      div\n      mul\n      0x20\n      add\n      mload(0x40)\n      swap1\n      dup2\n      add\n      0x40\n      mstore\n      dup1\n      swap3\n      swap2\n      swap1\n      dup2\n      dup2\n      mstore\n      0x20\n      add\n      dup3\n      dup1\n      sload\n      tag_139\n      swap1\n      tag_109\n      jump\t// in\n    tag_139:\n      dup1\n      iszero\n      tag_140\n      jumpi\n      dup1\n      0x1f\n      lt\n      tag_141\n      jumpi\n      0x0100\n      dup1\n      dup4\n      sload\n      div\n      mul\n      dup4\n      mstore\n      swap2\n      0x20\n      add\n      swap2\n      jump(tag_140)\n    tag_141:\n      dup3\n      add\n      swap2\n      swap1\n      0x00\n      mstore\n      keccak256(0x00, 0x20)\n      swap1\n    tag_142:\n      dup2\n      sload\n      dup2\n      mstore\n      swap1\n      0x01\n      add\n      swap1\n      0x20\n      add\n      dup1\n      dup4\n      gt\n      tag_142\n      jumpi\n      dup3\n      swap1\n      sub\n      0x1f\n      and\n      dup3\n      add\n      swap2\n    tag_140:\n      pop\n      pop\n      pop\n      pop\n      pop\n      dup2\n      jump\t// out\n        /* \"wmbToken.sol\":1630:1672  mapping(address => string) public stravaID */\n    tag_75:\n      mstore(0x20, 0x07)\n      dup1\n      0x00\n      mstore\n      keccak256(0x00, 0x40)\n      0x00\n      swap2\n      pop\n      swap1\n      pop\n      dup1\n      sload\n      tag_143\n      swap1\n      tag_109\n      jump\t// in\n    tag_143:\n      dup1\n      0x1f\n      add\n      0x20\n      dup1\n      swap2\n      div\n      mul\n      0x20\n      add\n      mload(0x40)\n      swap1\n      dup2\n      add\n      0x40\n      mstore\n      dup1\n      swap3\n      swap2\n      swap1\n      dup2\n      dup2\n      mstore\n      0x20\n      add\n      dup3\n      dup1\n      sload\n      tag_144\n      swap1\n      tag_109\n      jump\t// in\n    tag_144:\n      dup1\n      iszero\n      tag_145\n      jumpi\n      dup1\n      0x1f\n      lt\n      tag_146\n      jumpi\n      0x0100\n      dup1\n      dup4\n      sload\n      div\n      mul\n      dup4\n      mstore\n      swap2\n      0x20\n      add\n      swap2\n      jump(tag_145)\n    tag_146:\n      dup3\n      add\n      swap2\n      swap1\n      0x00\n      mstore\n      keccak256(0x00, 0x20)\n      swap1\n    tag_147:\n      dup2\n      sload\n      dup2\n      mstore\n      swap1\n      0x01\n      add\n      swap1\n      0x20\n      add\n      dup1\n      dup4\n      gt\n      tag_147\n      jumpi\n      dup3\n      swap1\n      sub\n      0x1f\n      and\n      dup3\n      add\n      swap2\n    tag_145:\n      pop\n      pop\n      pop\n      pop\n      pop\n      dup2\n      jump\t// out\n        /* \"wmbToken.sol\":1679:1725  mapping(address => string) public stravaSecret */\n    tag_79:\n      mstore(0x20, 0x08)\n      dup1\n      0x00\n      mstore\n      keccak256(0x00, 0x40)\n      0x00\n      swap2\n      pop\n      swap1\n      pop\n      dup1\n      sload\n      tag_148\n      swap1\n      tag_109\n      jump\t// in\n    tag_148:\n      dup1\n      0x1f\n      add\n      0x20\n      dup1\n      swap2\n      div\n      mul\n      0x20\n      add\n      mload(0x40)\n      swap1\n      dup2\n      add\n      0x40\n      mstore\n      dup1\n      swap3\n      swap2\n      swap1\n      dup2\n      dup2\n      mstore\n      0x20\n      add\n      dup3\n      dup1\n      sload\n      tag_149\n      swap1\n      tag_109\n      jump\t// in\n    tag_149:\n      dup1\n      iszero\n      tag_150\n      jumpi\n      dup1\n      0x1f\n      lt\n      tag_151\n      jumpi\n      0x0100\n      dup1\n      dup4\n      sload\n      div\n      mul\n      dup4\n      mstore\n      swap2\n      0x20\n      add\n      swap2\n      jump(tag_150)\n    tag_151:\n      dup3\n      add\n      swap2\n      swap1\n      0x00\n      mstore\n      keccak256(0x00, 0x20)\n      swap1\n    tag_152:\n      dup2\n      sload\n      dup2\n      mstore\n      swap1\n      0x01\n      add\n      swap1\n      0x20\n      add\n      dup1\n      dup4\n      gt\n      tag_152\n      jumpi\n      dup3\n      swap1\n      sub\n      0x1f\n      and\n      dup3\n      add\n      swap2\n    tag_150:\n      pop\n      pop\n      pop\n      pop\n      pop\n      dup2\n      jump\t// out\n        /* \"wmbToken.sol\":2898:3575  function mint(uint amount) external {... */\n    tag_83:\n        /* \"wmbToken.sol\":2970:2976  amount */\n      dup1\n        /* \"wmbToken.sol\":2945:2954  balanceOf */\n      0x01\n        /* \"wmbToken.sol\":2945:2966  balanceOf[msg.sender] */\n      0x00\n        /* \"wmbToken.sol\":2955:2965  msg.sender */\n      caller\n        /* \"wmbToken.sol\":2945:2966  balanceOf[msg.sender] */\n      0xffffffffffffffffffffffffffffffffffffffff\n      and\n      0xffffffffffffffffffffffffffffffffffffffff\n      and\n      dup2\n      mstore\n      0x20\n      add\n      swap1\n      dup2\n      mstore\n      0x20\n      add\n      0x00\n      keccak256\n      0x00\n        /* \"wmbToken.sol\":2945:2976  balanceOf[msg.sender] += amount */\n      dup3\n      dup3\n      sload\n      tag_154\n      swap2\n      swap1\n      tag_126\n      jump\t// in\n    tag_154:\n      swap3\n      pop\n      pop\n      dup2\n      swap1\n      sstore\n      pop\n        /* \"wmbToken.sol\":3002:3008  amount */\n      dup1\n        /* \"wmbToken.sol\":2987:2998  totalSupply */\n      0x00\n      dup1\n        /* \"wmbToken.sol\":2987:3008  totalSupply += amount */\n      dup3\n      dup3\n      sload\n      tag_155\n      swap2\n      swap1\n      tag_126\n      jump\t// in\n    tag_155:\n      swap3\n      pop\n      pop\n      dup2\n      swap1\n      sstore\n      pop\n        /* \"wmbToken.sol\":3045:3055  msg.sender */\n      caller\n        /* \"wmbToken.sol\":3024:3064  Transfer(address(0), msg.sender, amount) */\n      0xffffffffffffffffffffffffffffffffffffffff\n      and\n        /* \"wmbToken.sol\":3041:3042  0 */\n      0x00\n        /* \"wmbToken.sol\":3024:3064  Transfer(address(0), msg.sender, amount) */\n      0xffffffffffffffffffffffffffffffffffffffff\n      and\n      0xddf252ad1be2c89b69c2b068fc378daa952ba7f163c4a11628f55a4df523b3ef\n        /* \"wmbToken.sol\":3057:3063  amount */\n      dup4\n        /* \"wmbToken.sol\":3024:3064  Transfer(address(0), msg.sender, amount) */\n      mload(0x40)\n      tag_156\n      swap2\n      swap1\n      tag_44\n      jump\t// in\n    tag_156:\n      mload(0x40)\n      dup1\n      swap2\n      sub\n      swap1\n      log3\n        /* \"wmbToken.sol\":3104:3109  10000 */\n      0x2710\n        /* \"wmbToken.sol\":3079:3088  balanceOf */\n      0x01\n        /* \"wmbToken.sol\":3079:3100  balanceOf[msg.sender] */\n      0x00\n        /* \"wmbToken.sol\":3089:3099  msg.sender */\n      caller\n        /* \"wmbToken.sol\":3079:3100  balanceOf[msg.sender] */\n      0xffffffffffffffffffffffffffffffffffffffff\n      and\n      0xffffffffffffffffffffffffffffffffffffffff\n      and\n      dup2\n      mstore\n      0x20\n      add\n      swap1\n      dup2\n      mstore\n      0x20\n      add\n      0x00\n      keccak256\n      sload\n        /* \"wmbToken.sol\":3079:3109  balanceOf[msg.sender] >= 10000 */\n      lt\n        /* \"wmbToken.sol\":3075:3568  if (balanceOf[msg.sender] >= 10000){... */\n      tag_157\n      jumpi\n        /* \"wmbToken.sol\":3153:3158  false */\n      0x00\n        /* \"wmbToken.sol\":3129:3158  has100km[msg.sender] == false */\n      iszero\n      iszero\n        /* \"wmbToken.sol\":3129:3137  has100km */\n      0x09\n        /* \"wmbToken.sol\":3129:3149  has100km[msg.sender] */\n      0x00\n        /* \"wmbToken.sol\":3138:3148  msg.sender */\n      caller\n        /* \"wmbToken.sol\":3129:3149  has100km[msg.sender] */\n      0xffffffffffffffffffffffffffffffffffffffff\n      and\n      0xffffffffffffffffffffffffffffffffffffffff\n      and\n      dup2\n      mstore\n      0x20\n      add\n      swap1\n      dup2\n      mstore\n      0x20\n      add\n      0x00\n      keccak256\n      0x00\n      swap1\n      sload\n      swap1\n      0x0100\n      exp\n      swap1\n      div\n      0xff\n      and\n        /* \"wmbToken.sol\":3129:3158  has100km[msg.sender] == false */\n      iszero\n      iszero\n      sub\n        /* \"wmbToken.sol\":3125:3557  if (has100km[msg.sender] == false){... */\n      tag_158\n      jumpi\n        /* \"wmbToken.sol\":3174:3190  give100kmToken() */\n      tag_159\n        /* \"wmbToken.sol\":3174:3188  give100kmToken */\n      tag_160\n        /* \"wmbToken.sol\":3174:3190  give100kmToken() */\n      jump\t// in\n    tag_159:\n        /* \"wmbToken.sol\":3125:3557  if (has100km[msg.sender] == false){... */\n      jump(tag_161)\n    tag_158:\n        /* \"wmbToken.sol\":3240:3245  50000 */\n      0xc350\n        /* \"wmbToken.sol\":3215:3224  balanceOf */\n      0x01\n        /* \"wmbToken.sol\":3215:3236  balanceOf[msg.sender] */\n      0x00\n        /* \"wmbToken.sol\":3225:3235  msg.sender */\n      caller\n        /* \"wmbToken.sol\":3215:3236  balanceOf[msg.sender] */\n      0xffffffffffffffffffffffffffffffffffffffff\n      and\n      0xffffffffffffffffffffffffffffffffffffffff\n      and\n      dup2\n      mstore\n      0x20\n      add\n      swap1\n      dup2\n      mstore\n      0x20\n      add\n      0x00\n      keccak256\n      sload\n        /* \"wmbToken.sol\":3215:3245  balanceOf[msg.sender] >= 50000 */\n      lt\n        /* \"wmbToken.sol\":3211:3557  if (balanceOf[msg.sender] >= 50000){... */\n      tag_162\n      jumpi\n        /* \"wmbToken.sol\":3292:3297  false */\n      0x00\n        /* \"wmbToken.sol\":3268:3297  has500km[msg.sender] == false */\n      iszero\n      iszero\n        /* \"wmbToken.sol\":3268:3276  has500km */\n      0x0a\n        /* \"wmbToken.sol\":3268:3288  has500km[msg.sender] */\n      0x00\n        /* \"wmbToken.sol\":3277:3287  msg.sender */\n      caller\n        /* \"wmbToken.sol\":3268:3288  has500km[msg.sender] */\n      0xffffffffffffffffffffffffffffffffffffffff\n      and\n      0xffffffffffffffffffffffffffffffffffffffff\n      and\n      dup2\n      mstore\n      0x20\n      add\n      swap1\n      dup2\n      mstore\n      0x20\n      add\n      0x00\n      keccak256\n      0x00\n      swap1\n      sload\n      swap1\n      0x0100\n      exp\n      swap1\n      div\n      0xff\n      and\n        /* \"wmbToken.sol\":3268:3297  has500km[msg.sender] == false */\n      iszero\n      iszero\n      sub\n        /* \"wmbToken.sol\":3265:3542  if(has500km[msg.sender] == false){... */\n      tag_163\n      jumpi\n        /* \"wmbToken.sol\":3321:3337  give500kmToken() */\n      tag_164\n        /* \"wmbToken.sol\":3321:3335  give500kmToken */\n      tag_165\n        /* \"wmbToken.sol\":3321:3337  give500kmToken() */\n      jump\t// in\n    tag_164:\n        /* \"wmbToken.sol\":3265:3542  if(has500km[msg.sender] == false){... */\n      jump(tag_166)\n    tag_163:\n        /* \"wmbToken.sol\":3391:3397  100000 */\n      0x0186a0\n        /* \"wmbToken.sol\":3366:3375  balanceOf */\n      0x01\n        /* \"wmbToken.sol\":3366:3387  balanceOf[msg.sender] */\n      0x00\n        /* \"wmbToken.sol\":3376:3386  msg.sender */\n      caller\n        /* \"wmbToken.sol\":3366:3387  balanceOf[msg.sender] */\n      0xffffffffffffffffffffffffffffffffffffffff\n      and\n      0xffffffffffffffffffffffffffffffffffffffff\n      and\n      dup2\n      mstore\n      0x20\n      add\n      swap1\n      dup2\n      mstore\n      0x20\n      add\n      0x00\n      keccak256\n      sload\n        /* \"wmbToken.sol\":3366:3397  balanceOf[msg.sender] >= 100000 */\n      lt\n        /* \"wmbToken.sol\":3362:3542  if (balanceOf[msg.sender] >= 100000){... */\n      tag_167\n      jumpi\n        /* \"wmbToken.sol\":3449:3454  false */\n      0x00\n        /* \"wmbToken.sol\":3424:3454  has1000km[msg.sender] == false */\n      iszero\n      iszero\n        /* \"wmbToken.sol\":3424:3433  has1000km */\n      0x0b\n        /* \"wmbToken.sol\":3424:3445  has1000km[msg.sender] */\n      0x00\n        /* \"wmbToken.sol\":3434:3444  msg.sender */\n      caller\n        /* \"wmbToken.sol\":3424:3445  has1000km[msg.sender] */\n      0xffffffffffffffffffffffffffffffffffffffff\n      and\n      0xffffffffffffffffffffffffffffffffffffffff\n      and\n      dup2\n      mstore\n      0x20\n      add\n      swap1\n      dup2\n      mstore\n      0x20\n      add\n      0x00\n      keccak256\n      0x00\n      swap1\n      sload\n      swap1\n      0x0100\n      exp\n      swap1\n      div\n      0xff\n      and\n        /* \"wmbToken.sol\":3424:3454  has1000km[msg.sender] == false */\n      iszero\n      iszero\n      sub\n        /* \"wmbToken.sol\":3421:3523  if(has1000km[msg.sender] == false){... */\n      tag_168\n      jumpi\n        /* \"wmbToken.sol\":3482:3499  give1000kmToken() */\n      tag_169\n        /* \"wmbToken.sol\":3482:3497  give1000kmToken */\n      tag_170\n        /* \"wmbToken.sol\":3482:3499  give1000kmToken() */\n      jump\t// in\n    tag_169:\n        /* \"wmbToken.sol\":3421:3523  if(has1000km[msg.sender] == false){... */\n    tag_168:\n        /* \"wmbToken.sol\":3362:3542  if (balanceOf[msg.sender] >= 100000){... */\n    tag_167:\n        /* \"wmbToken.sol\":3265:3542  if(has500km[msg.sender] == false){... */\n    tag_166:\n        /* \"wmbToken.sol\":3211:3557  if (balanceOf[msg.sender] >= 50000){... */\n    tag_162:\n        /* \"wmbToken.sol\":3125:3557  if (has100km[msg.sender] == false){... */\n    tag_161:\n        /* \"wmbToken.sol\":3075:3568  if (balanceOf[msg.sender] >= 10000){... */\n    tag_157:\n        /* \"wmbToken.sol\":2898:3575  function mint(uint amount) external {... */\n      pop\n      jump\t// out\n        /* \"wmbToken.sol\":2101:2343  function transfer (address recipient, uint amount) external returns (bool){... */\n    tag_86:\n        /* \"wmbToken.sol\":2170:2174  bool */\n      0x00\n        /* \"wmbToken.sol\":2211:2217  amount */\n      dup2\n        /* \"wmbToken.sol\":2186:2195  balanceOf */\n      0x01\n        /* \"wmbToken.sol\":2186:2207  balanceOf[msg.sender] */\n      0x00\n        /* \"wmbToken.sol\":2196:2206  msg.sender */\n      caller\n        /* \"wmbToken.sol\":2186:2207  balanceOf[msg.sender] */\n      0xffffffffffffffffffffffffffffffffffffffff\n      and\n      0xffffffffffffffffffffffffffffffffffffffff\n      and\n      dup2\n      mstore\n      0x20\n      add\n      swap1\n      dup2\n      mstore\n      0x20\n      add\n      0x00\n      keccak256\n      0x00\n        /* \"wmbToken.sol\":2186:2217  balanceOf[msg.sender] -= amount */\n      dup3\n      dup3\n      sload\n      tag_172\n      swap2\n      swap1\n      tag_123\n      jump\t// in\n    tag_172:\n      swap3\n      pop\n      pop\n      dup2\n      swap1\n      sstore\n      pop\n        /* \"wmbToken.sol\":2252:2258  amount */\n      dup2\n        /* \"wmbToken.sol\":2228:2237  balanceOf */\n      0x01\n        /* \"wmbToken.sol\":2228:2248  balanceOf[recipient] */\n      0x00\n        /* \"wmbToken.sol\":2238:2247  recipient */\n      dup6\n        /* \"wmbToken.sol\":2228:2248  balanceOf[recipient] */\n      0xffffffffffffffffffffffffffffffffffffffff\n      and\n      0xffffffffffffffffffffffffffffffffffffffff\n      and\n      dup2\n      mstore\n      0x20\n      add\n      swap1\n      dup2\n      mstore\n      0x20\n      add\n      0x00\n      keccak256\n      0x00\n        /* \"wmbToken.sol\":2228:2258  balanceOf[recipient] += amount */\n      dup3\n      dup3\n      sload\n      tag_173\n      swap2\n      swap1\n      tag_126\n      jump\t// in\n    tag_173:\n      swap3\n      pop\n      pop\n      dup2\n      swap1\n      sstore\n      pop\n        /* \"wmbToken.sol\":2295:2304  recipient */\n      dup3\n        /* \"wmbToken.sol\":2274:2313  Transfer(msg.sender, recipient, amount) */\n      0xffffffffffffffffffffffffffffffffffffffff\n      and\n        /* \"wmbToken.sol\":2283:2293  msg.sender */\n      caller\n        /* \"wmbToken.sol\":2274:2313  Transfer(msg.sender, recipient, amount) */\n      0xffffffffffffffffffffffffffffffffffffffff\n      and\n      0xddf252ad1be2c89b69c2b068fc378daa952ba7f163c4a11628f55a4df523b3ef\n        /* \"wmbToken.sol\":2306:2312  amount */\n      dup5\n        /* \"wmbToken.sol\":2274:2313  Transfer(msg.sender, recipient, amount) */\n      mload(0x40)\n      tag_174\n      swap2\n      swap1\n      tag_44\n      jump\t// in\n    tag_174:\n      mload(0x40)\n      dup1\n      swap2\n      sub\n      swap1\n      log3\n        /* \"wmbToken.sol\":2331:2335  true */\n      0x01\n        /* \"wmbToken.sol\":2324:2335  return true */\n      swap1\n      pop\n        /* \"wmbToken.sol\":2101:2343  function transfer (address recipient, uint amount) external returns (bool){... */\n      swap3\n      swap2\n      pop\n      pop\n      jump\t// out\n        /* \"wmbToken.sol\":4091:4188  function setName(string calldata Pname) external{... */\n    tag_90:\n        /* \"wmbToken.sol\":4175:4180  Pname */\n      dup2\n      dup2\n        /* \"wmbToken.sol\":4150:4160  personName */\n      0x06\n        /* \"wmbToken.sol\":4150:4172  personName[msg.sender] */\n      0x00\n        /* \"wmbToken.sol\":4161:4171  msg.sender */\n      caller\n        /* \"wmbToken.sol\":4150:4172  personName[msg.sender] */\n      0xffffffffffffffffffffffffffffffffffffffff\n      and\n      0xffffffffffffffffffffffffffffffffffffffff\n      and\n      dup2\n      mstore\n      0x20\n      add\n      swap1\n      dup2\n      mstore\n      0x20\n      add\n      0x00\n      keccak256\n        /* \"wmbToken.sol\":4150:4180  personName[msg.sender] = Pname */\n      swap2\n      dup3\n      tag_176\n      swap3\n      swap2\n      swap1\n      tag_130\n      jump\t// in\n    tag_176:\n      pop\n        /* \"wmbToken.sol\":4091:4188  function setName(string calldata Pname) external{... */\n      pop\n      pop\n      jump\t// out\n        /* \"wmbToken.sol\":1757:1797  mapping(address => bool) public has100km */\n    tag_93:\n      mstore(0x20, 0x09)\n      dup1\n      0x00\n      mstore\n      keccak256(0x00, 0x40)\n      0x00\n      swap2\n      pop\n      sload\n      swap1\n      0x0100\n      exp\n      swap1\n      div\n      0xff\n      and\n      dup2\n      jump\t// out\n        /* \"wmbToken.sol\":1804:1844  mapping(address => bool) public has500km */\n    tag_97:\n      mstore(0x20, 0x0a)\n      dup1\n      0x00\n      mstore\n      keccak256(0x00, 0x40)\n      0x00\n      swap2\n      pop\n      sload\n      swap1\n      0x0100\n      exp\n      swap1\n      div\n      0xff\n      and\n      dup2\n      jump\t// out\n        /* \"wmbToken.sol\":1344:1405  mapping(address => mapping(address => uint)) public allowance */\n    tag_102:\n      mstore(0x20, 0x02)\n      dup2\n      0x00\n      mstore\n      mstore(0x20, keccak256(0x00, 0x40))\n      dup1\n      0x00\n      mstore\n      keccak256(0x00, 0x40)\n      0x00\n      swap2\n      pop\n      swap2\n      pop\n      pop\n      sload\n      dup2\n      jump\t// out\n        /* \"wmbToken.sol\":1852:1893  mapping(address => bool) public has1000km */\n    tag_106:\n      mstore(0x20, 0x0b)\n      dup1\n      0x00\n      mstore\n      keccak256(0x00, 0x40)\n      0x00\n      swap2\n      pop\n      sload\n      swap1\n      0x0100\n      exp\n      swap1\n      div\n      0xff\n      and\n      dup2\n      jump\t// out\n        /* \"wmbToken.sol\":4223:4405  function give100kmToken() internal{... */\n    tag_160:\n        /* \"wmbToken.sol\":4300:4305  10000 */\n      0x2710\n        /* \"wmbToken.sol\":4276:4285  balanceOf */\n      0x01\n        /* \"wmbToken.sol\":4276:4297  balanceOf[msg.sender] */\n      0x00\n        /* \"wmbToken.sol\":4286:4296  msg.sender */\n      caller\n        /* \"wmbToken.sol\":4276:4297  balanceOf[msg.sender] */\n      0xffffffffffffffffffffffffffffffffffffffff\n      and\n      0xffffffffffffffffffffffffffffffffffffffff\n      and\n      dup2\n      mstore\n      0x20\n      add\n      swap1\n      dup2\n      mstore\n      0x20\n      add\n      0x00\n      keccak256\n      sload\n        /* \"wmbToken.sol\":4276:4305  balanceOf[msg.sender] > 10000 */\n      gt\n        /* \"wmbToken.sol\":4268:4306  require(balanceOf[msg.sender] > 10000) */\n      tag_178\n      jumpi\n      0x00\n      dup1\n      revert\n    tag_178:\n        /* \"wmbToken.sol\":4349:4354  false */\n      0x00\n        /* \"wmbToken.sol\":4325:4354  has100km[msg.sender] == false */\n      iszero\n      iszero\n        /* \"wmbToken.sol\":4325:4333  has100km */\n      0x09\n        /* \"wmbToken.sol\":4325:4345  has100km[msg.sender] */\n      0x00\n        /* \"wmbToken.sol\":4334:4344  msg.sender */\n      caller\n        /* \"wmbToken.sol\":4325:4345  has100km[msg.sender] */\n      0xffffffffffffffffffffffffffffffffffffffff\n      and\n      0xffffffffffffffffffffffffffffffffffffffff\n      and\n      dup2\n      mstore\n      0x20\n      add\n      swap1\n      dup2\n      mstore\n      0x20\n      add\n      0x00\n      keccak256\n      0x00\n      swap1\n      sload\n      swap1\n      0x0100\n      exp\n      swap1\n      div\n      0xff\n      and\n        /* \"wmbToken.sol\":4325:4354  has100km[msg.sender] == false */\n      iszero\n      iszero\n      eq\n        /* \"wmbToken.sol\":4317:4355  require(has100km[msg.sender] == false) */\n      tag_179\n      jumpi\n      0x00\n      dup1\n      revert\n    tag_179:\n        /* \"wmbToken.sol\":4393:4397  true */\n      0x01\n        /* \"wmbToken.sol\":4370:4378  has100km */\n      0x09\n        /* \"wmbToken.sol\":4370:4390  has100km[msg.sender] */\n      0x00\n        /* \"wmbToken.sol\":4379:4389  msg.sender */\n      caller\n        /* \"wmbToken.sol\":4370:4390  has100km[msg.sender] */\n      0xffffffffffffffffffffffffffffffffffffffff\n      and\n      0xffffffffffffffffffffffffffffffffffffffff\n      and\n      dup2\n      mstore\n      0x20\n      add\n      swap1\n      dup2\n      mstore\n      0x20\n      add\n      0x00\n      keccak256\n      0x00\n        /* \"wmbToken.sol\":4370:4397  has100km[msg.sender] = true */\n      0x0100\n      exp\n      dup2\n      sload\n      dup2\n      0xff\n      mul\n      not\n      and\n      swap1\n      dup4\n      iszero\n      iszero\n      mul\n      or\n      swap1\n      sstore\n      pop\n        /* \"wmbToken.sol\":4223:4405  function give100kmToken() internal{... */\n      jump\t// out\n        /* \"wmbToken.sol\":4413:4595  function give500kmToken() internal{... */\n    tag_165:\n        /* \"wmbToken.sol\":4490:4495  50000 */\n      0xc350\n        /* \"wmbToken.sol\":4466:4475  balanceOf */\n      0x01\n        /* \"wmbToken.sol\":4466:4487  balanceOf[msg.sender] */\n      0x00\n        /* \"wmbToken.sol\":4476:4486  msg.sender */\n      caller\n        /* \"wmbToken.sol\":4466:4487  balanceOf[msg.sender] */\n      0xffffffffffffffffffffffffffffffffffffffff\n      and\n      0xffffffffffffffffffffffffffffffffffffffff\n      and\n      dup2\n      mstore\n      0x20\n      add\n      swap1\n      dup2\n      mstore\n      0x20\n      add\n      0x00\n      keccak256\n      sload\n        /* \"wmbToken.sol\":4466:4495  balanceOf[msg.sender] > 50000 */\n      gt\n        /* \"wmbToken.sol\":4458:4496  require(balanceOf[msg.sender] > 50000) */\n      tag_181\n      jumpi\n      0x00\n      dup1\n      revert\n    tag_181:\n        /* \"wmbToken.sol\":4539:4544  false */\n      0x00\n        /* \"wmbToken.sol\":4515:4544  has500km[msg.sender] == false */\n      iszero\n      iszero\n        /* \"wmbToken.sol\":4515:4523  has500km */\n      0x0a\n        /* \"wmbToken.sol\":4515:4535  has500km[msg.sender] */\n      0x00\n        /* \"wmbToken.sol\":4524:4534  msg.sender */\n      caller\n        /* \"wmbToken.sol\":4515:4535  has500km[msg.sender] */\n      0xffffffffffffffffffffffffffffffffffffffff\n      and\n      0xffffffffffffffffffffffffffffffffffffffff\n      and\n      dup2\n      mstore\n      0x20\n      add\n      swap1\n      dup2\n      mstore\n      0x20\n      add\n      0x00\n      keccak256\n      0x00\n      swap1\n      sload\n      swap1\n      0x0100\n      exp\n      swap1\n      div\n      0xff\n      and\n        /* \"wmbToken.sol\":4515:4544  has500km[msg.sender] == false */\n      iszero\n      iszero\n      eq\n        /* \"wmbToken.sol\":4507:4545  require(has500km[msg.sender] == false) */\n      tag_182\n      jumpi\n      0x00\n      dup1\n      revert\n    tag_182:\n        /* \"wmbToken.sol\":4583:4587  true */\n      0x01\n        /* \"wmbToken.sol\":4560:4568  has500km */\n      0x0a\n        /* \"wmbToken.sol\":4560:4580  has500km[msg.sender] */\n      0x00\n        /* \"wmbToken.sol\":4569:4579  msg.sender */\n      caller\n        /* \"wmbToken.sol\":4560:4580  has500km[msg.sender] */\n      0xffffffffffffffffffffffffffffffffffffffff\n      and\n      0xffffffffffffffffffffffffffffffffffffffff\n      and\n      dup2\n      mstore\n      0x20\n      add\n      swap1\n      dup2\n      mstore\n      0x20\n      add\n      0x00\n      keccak256\n      0x00\n        /* \"wmbToken.sol\":4560:4587  has500km[msg.sender] = true */\n      0x0100\n      exp\n      dup2\n      sload\n      dup2\n      0xff\n      mul\n      not\n      and\n      swap1\n      dup4\n      iszero\n      iszero\n      mul\n      or\n      swap1\n      sstore\n      pop\n        /* \"wmbToken.sol\":4413:4595  function give500kmToken() internal{... */\n      jump\t// out\n        /* \"wmbToken.sol\":4603:4789  function give1000kmToken() internal{... */\n    tag_170:\n        /* \"wmbToken.sol\":4681:4687  100000 */\n      0x0186a0\n        /* \"wmbToken.sol\":4657:4666  balanceOf */\n      0x01\n        /* \"wmbToken.sol\":4657:4678  balanceOf[msg.sender] */\n      0x00\n        /* \"wmbToken.sol\":4667:4677  msg.sender */\n      caller\n        /* \"wmbToken.sol\":4657:4678  balanceOf[msg.sender] */\n      0xffffffffffffffffffffffffffffffffffffffff\n      and\n      0xffffffffffffffffffffffffffffffffffffffff\n      and\n      dup2\n      mstore\n      0x20\n      add\n      swap1\n      dup2\n      mstore\n      0x20\n      add\n      0x00\n      keccak256\n      sload\n        /* \"wmbToken.sol\":4657:4687  balanceOf[msg.sender] > 100000 */\n      gt\n        /* \"wmbToken.sol\":4649:4688  require(balanceOf[msg.sender] > 100000) */\n      tag_184\n      jumpi\n      0x00\n      dup1\n      revert\n    tag_184:\n        /* \"wmbToken.sol\":4732:4737  false */\n      0x00\n        /* \"wmbToken.sol\":4707:4737  has1000km[msg.sender] == false */\n      iszero\n      iszero\n        /* \"wmbToken.sol\":4707:4716  has1000km */\n      0x0b\n        /* \"wmbToken.sol\":4707:4728  has1000km[msg.sender] */\n      0x00\n        /* \"wmbToken.sol\":4717:4727  msg.sender */\n      caller\n        /* \"wmbToken.sol\":4707:4728  has1000km[msg.sender] */\n      0xffffffffffffffffffffffffffffffffffffffff\n      and\n      0xffffffffffffffffffffffffffffffffffffffff\n      and\n      dup2\n      mstore\n      0x20\n      add\n      swap1\n      dup2\n      mstore\n      0x20\n      add\n      0x00\n      keccak256\n      0x00\n      swap1\n      sload\n      swap1\n      0x0100\n      exp\n      swap1\n      div\n      0xff\n      and\n        /* \"wmbToken.sol\":4707:4737  has1000km[msg.sender] == false */\n      iszero\n      iszero\n      eq\n        /* \"wmbToken.sol\":4699:4738  require(has1000km[msg.sender] == false) */\n      tag_185\n      jumpi\n      0x00\n      dup1\n      revert\n    tag_185:\n        /* \"wmbToken.sol\":4777:4781  true */\n      0x01\n        /* \"wmbToken.sol\":4753:4762  has1000km */\n      0x0b\n        /* \"wmbToken.sol\":4753:4774  has1000km[msg.sender] */\n      0x00\n        /* \"wmbToken.sol\":4763:4773  msg.sender */\n      caller\n        /* \"wmbToken.sol\":4753:4774  has1000km[msg.sender] */\n      0xffffffffffffffffffffffffffffffffffffffff\n      and\n      0xffffffffffffffffffffffffffffffffffffffff\n      and\n      dup2\n      mstore\n      0x20\n      add\n      swap1\n      dup2\n      mstore\n      0x20\n      add\n      0x00\n      keccak256\n      0x00\n        /* \"wmbToken.sol\":4753:4781  has1000km[msg.sender] = true */\n      0x0100\n      exp\n      dup2\n      sload\n      dup2\n      0xff\n      mul\n      not\n      and\n      swap1\n      dup4\n      iszero\n      iszero\n      mul\n      or\n      swap1\n      sstore\n      pop\n        /* \"wmbToken.sol\":4603:4789  function give1000kmToken() internal{... */\n      jump\t// out\n        /* \"#utility.yul\":7:106   */\n    tag_186:\n        /* \"#utility.yul\":59:65   */\n      0x00\n        /* \"#utility.yul\":93:98   */\n      dup2\n        /* \"#utility.yul\":87:99   */\n      mload\n        /* \"#utility.yul\":77:99   */\n      swap1\n      pop\n        /* \"#utility.yul\":7:106   */\n      swap2\n      swap1\n      pop\n      jump\t// out\n        /* \"#utility.yul\":112:281   */\n    tag_187:\n        /* \"#utility.yul\":196:207   */\n      0x00\n        /* \"#utility.yul\":230:236   */\n      dup3\n        /* \"#utility.yul\":225:228   */\n      dup3\n        /* \"#utility.yul\":218:237   */\n      mstore\n        /* \"#utility.yul\":270:274   */\n      0x20\n        /* \"#utility.yul\":265:268   */\n      dup3\n        /* \"#utility.yul\":261:275   */\n      add\n        /* \"#utility.yul\":246:275   */\n      swap1\n      pop\n        /* \"#utility.yul\":112:281   */\n      swap3\n      swap2\n      pop\n      pop\n      jump\t// out\n        /* \"#utility.yul\":287:533   */\n    tag_188:\n        /* \"#utility.yul\":368:369   */\n      0x00\n        /* \"#utility.yul\":378:491   */\n    tag_233:\n        /* \"#utility.yul\":392:398   */\n      dup4\n        /* \"#utility.yul\":389:390   */\n      dup2\n        /* \"#utility.yul\":386:399   */\n      lt\n        /* \"#utility.yul\":378:491   */\n      iszero\n      tag_235\n      jumpi\n        /* \"#utility.yul\":477:478   */\n      dup1\n        /* \"#utility.yul\":472:475   */\n      dup3\n        /* \"#utility.yul\":468:479   */\n      add\n        /* \"#utility.yul\":462:480   */\n      mload\n        /* \"#utility.yul\":458:459   */\n      dup2\n        /* \"#utility.yul\":453:456   */\n      dup5\n        /* \"#utility.yul\":449:460   */\n      add\n        /* \"#utility.yul\":442:481   */\n      mstore\n        /* \"#utility.yul\":414:416   */\n      0x20\n        /* \"#utility.yul\":411:412   */\n      dup2\n        /* \"#utility.yul\":407:417   */\n      add\n        /* \"#utility.yul\":402:417   */\n      swap1\n      pop\n        /* \"#utility.yul\":378:491   */\n      jump(tag_233)\n    tag_235:\n        /* \"#utility.yul\":525:526   */\n      0x00\n        /* \"#utility.yul\":516:522   */\n      dup5\n        /* \"#utility.yul\":511:514   */\n      dup5\n        /* \"#utility.yul\":507:523   */\n      add\n        /* \"#utility.yul\":500:527   */\n      mstore\n        /* \"#utility.yul\":349:533   */\n      pop\n        /* \"#utility.yul\":287:533   */\n      pop\n      pop\n      pop\n      jump\t// out\n        /* \"#utility.yul\":539:641   */\n    tag_189:\n        /* \"#utility.yul\":580:586   */\n      0x00\n        /* \"#utility.yul\":631:633   */\n      0x1f\n        /* \"#utility.yul\":627:634   */\n      not\n        /* \"#utility.yul\":622:624   */\n      0x1f\n        /* \"#utility.yul\":615:620   */\n      dup4\n        /* \"#utility.yul\":611:625   */\n      add\n        /* \"#utility.yul\":607:635   */\n      and\n        /* \"#utility.yul\":597:635   */\n      swap1\n      pop\n        /* \"#utility.yul\":539:641   */\n      swap2\n      swap1\n      pop\n      jump\t// out\n        /* \"#utility.yul\":647:1024   */\n    tag_190:\n        /* \"#utility.yul\":735:738   */\n      0x00\n        /* \"#utility.yul\":763:802   */\n      tag_238\n        /* \"#utility.yul\":796:801   */\n      dup3\n        /* \"#utility.yul\":763:802   */\n      tag_186\n      jump\t// in\n    tag_238:\n        /* \"#utility.yul\":818:889   */\n      tag_239\n        /* \"#utility.yul\":882:888   */\n      dup2\n        /* \"#utility.yul\":877:880   */\n      dup6\n        /* \"#utility.yul\":818:889   */\n      tag_187\n      jump\t// in\n    tag_239:\n        /* \"#utility.yul\":811:889   */\n      swap4\n      pop\n        /* \"#utility.yul\":898:963   */\n      tag_240\n        /* \"#utility.yul\":956:962   */\n      dup2\n        /* \"#utility.yul\":951:954   */\n      dup6\n        /* \"#utility.yul\":944:948   */\n      0x20\n        /* \"#utility.yul\":937:942   */\n      dup7\n        /* \"#utility.yul\":933:949   */\n      add\n        /* \"#utility.yul\":898:963   */\n      tag_188\n      jump\t// in\n    tag_240:\n        /* \"#utility.yul\":988:1017   */\n      tag_241\n        /* \"#utility.yul\":1010:1016   */\n      dup2\n        /* \"#utility.yul\":988:1017   */\n      tag_189\n      jump\t// in\n    tag_241:\n        /* \"#utility.yul\":983:986   */\n      dup5\n        /* \"#utility.yul\":979:1018   */\n      add\n        /* \"#utility.yul\":972:1018   */\n      swap2\n      pop\n        /* \"#utility.yul\":739:1024   */\n      pop\n        /* \"#utility.yul\":647:1024   */\n      swap3\n      swap2\n      pop\n      pop\n      jump\t// out\n        /* \"#utility.yul\":1030:1343   */\n    tag_29:\n        /* \"#utility.yul\":1143:1147   */\n      0x00\n        /* \"#utility.yul\":1181:1183   */\n      0x20\n        /* \"#utility.yul\":1170:1179   */\n      dup3\n        /* \"#utility.yul\":1166:1184   */\n      add\n        /* \"#utility.yul\":1158:1184   */\n      swap1\n      pop\n        /* \"#utility.yul\":1230:1239   */\n      dup2\n        /* \"#utility.yul\":1224:1228   */\n      dup2\n        /* \"#utility.yul\":1220:1240   */\n      sub\n        /* \"#utility.yul\":1216:1217   */\n      0x00\n        /* \"#utility.yul\":1205:1214   */\n      dup4\n        /* \"#utility.yul\":1201:1218   */\n      add\n        /* \"#utility.yul\":1194:1241   */\n      mstore\n        /* \"#utility.yul\":1258:1336   */\n      tag_243\n        /* \"#utility.yul\":1331:1335   */\n      dup2\n        /* \"#utility.yul\":1322:1328   */\n      dup5\n        /* \"#utility.yul\":1258:1336   */\n      tag_190\n      jump\t// in\n    tag_243:\n        /* \"#utility.yul\":1250:1336   */\n      swap1\n      pop\n        /* \"#utility.yul\":1030:1343   */\n      swap3\n      swap2\n      pop\n      pop\n      jump\t// out\n        /* \"#utility.yul\":1430:1547   */\n    tag_192:\n        /* \"#utility.yul\":1539:1540   */\n      0x00\n        /* \"#utility.yul\":1536:1537   */\n      dup1\n        /* \"#utility.yul\":1529:1541   */\n      revert\n        /* \"#utility.yul\":1553:1670   */\n    tag_193:\n        /* \"#utility.yul\":1662:1663   */\n      0x00\n        /* \"#utility.yul\":1659:1660   */\n      dup1\n        /* \"#utility.yul\":1652:1664   */\n      revert\n        /* \"#utility.yul\":1676:1802   */\n    tag_194:\n        /* \"#utility.yul\":1713:1720   */\n      0x00\n        /* \"#utility.yul\":1753:1795   */\n      0xffffffffffffffffffffffffffffffffffffffff\n        /* \"#utility.yul\":1746:1751   */\n      dup3\n        /* \"#utility.yul\":1742:1796   */\n      and\n        /* \"#utility.yul\":1731:1796   */\n      swap1\n      pop\n        /* \"#utility.yul\":1676:1802   */\n      swap2\n      swap1\n      pop\n      jump\t// out\n        /* \"#utility.yul\":1808:1904   */\n    tag_195:\n        /* \"#utility.yul\":1845:1852   */\n      0x00\n        /* \"#utility.yul\":1874:1898   */\n      tag_249\n        /* \"#utility.yul\":1892:1897   */\n      dup3\n        /* \"#utility.yul\":1874:1898   */\n      tag_194\n      jump\t// in\n    tag_249:\n        /* \"#utility.yul\":1863:1898   */\n      swap1\n      pop\n        /* \"#utility.yul\":1808:1904   */\n      swap2\n      swap1\n      pop\n      jump\t// out\n        /* \"#utility.yul\":1910:2032   */\n    tag_196:\n        /* \"#utility.yul\":1983:2007   */\n      tag_251\n        /* \"#utility.yul\":2001:2006   */\n      dup2\n        /* \"#utility.yul\":1983:2007   */\n      tag_195\n      jump\t// in\n    tag_251:\n        /* \"#utility.yul\":1976:1981   */\n      dup2\n        /* \"#utility.yul\":1973:2008   */\n      eq\n        /* \"#utility.yul\":1963:2026   */\n      tag_252\n      jumpi\n        /* \"#utility.yul\":2022:2023   */\n      0x00\n        /* \"#utility.yul\":2019:2020   */\n      dup1\n        /* \"#utility.yul\":2012:2024   */\n      revert\n        /* \"#utility.yul\":1963:2026   */\n    tag_252:\n        /* \"#utility.yul\":1910:2032   */\n      pop\n      jump\t// out\n        /* \"#utility.yul\":2038:2177   */\n    tag_197:\n        /* \"#utility.yul\":2084:2089   */\n      0x00\n        /* \"#utility.yul\":2122:2128   */\n      dup2\n        /* \"#utility.yul\":2109:2129   */\n      calldataload\n        /* \"#utility.yul\":2100:2129   */\n      swap1\n      pop\n        /* \"#utility.yul\":2138:2171   */\n      tag_254\n        /* \"#utility.yul\":2165:2170   */\n      dup2\n        /* \"#utility.yul\":2138:2171   */\n      tag_196\n      jump\t// in\n    tag_254:\n        /* \"#utility.yul\":2038:2177   */\n      swap3\n      swap2\n      pop\n      pop\n      jump\t// out\n        /* \"#utility.yul\":2183:2260   */\n    tag_198:\n        /* \"#utility.yul\":2220:2227   */\n      0x00\n        /* \"#utility.yul\":2249:2254   */\n      dup2\n        /* \"#utility.yul\":2238:2254   */\n      swap1\n      pop\n        /* \"#utility.yul\":2183:2260   */\n      swap2\n      swap1\n      pop\n      jump\t// out\n        /* \"#utility.yul\":2266:2388   */\n    tag_199:\n        /* \"#utility.yul\":2339:2363   */\n      tag_257\n        /* \"#utility.yul\":2357:2362   */\n      dup2\n        /* \"#utility.yul\":2339:2363   */\n      tag_198\n      jump\t// in\n    tag_257:\n        /* \"#utility.yul\":2332:2337   */\n      dup2\n        /* \"#utility.yul\":2329:2364   */\n      eq\n        /* \"#utility.yul\":2319:2382   */\n      tag_258\n      jumpi\n        /* \"#utility.yul\":2378:2379   */\n      0x00\n        /* \"#utility.yul\":2375:2376   */\n      dup1\n        /* \"#utility.yul\":2368:2380   */\n      revert\n        /* \"#utility.yul\":2319:2382   */\n    tag_258:\n        /* \"#utility.yul\":2266:2388   */\n      pop\n      jump\t// out\n        /* \"#utility.yul\":2394:2533   */\n    tag_200:\n        /* \"#utility.yul\":2440:2445   */\n      0x00\n        /* \"#utility.yul\":2478:2484   */\n      dup2\n        /* \"#utility.yul\":2465:2485   */\n      calldataload\n        /* \"#utility.yul\":2456:2485   */\n      swap1\n      pop\n        /* \"#utility.yul\":2494:2527   */\n      tag_260\n        /* \"#utility.yul\":2521:2526   */\n      dup2\n        /* \"#utility.yul\":2494:2527   */\n      tag_199\n      jump\t// in\n    tag_260:\n        /* \"#utility.yul\":2394:2533   */\n      swap3\n      swap2\n      pop\n      pop\n      jump\t// out\n        /* \"#utility.yul\":2539:3013   */\n    tag_32:\n        /* \"#utility.yul\":2607:2613   */\n      0x00\n        /* \"#utility.yul\":2615:2621   */\n      dup1\n        /* \"#utility.yul\":2664:2666   */\n      0x40\n        /* \"#utility.yul\":2652:2661   */\n      dup4\n        /* \"#utility.yul\":2643:2650   */\n      dup6\n        /* \"#utility.yul\":2639:2662   */\n      sub\n        /* \"#utility.yul\":2635:2667   */\n      slt\n        /* \"#utility.yul\":2632:2751   */\n      iszero\n      tag_262\n      jumpi\n        /* \"#utility.yul\":2670:2749   */\n      tag_263\n      tag_192\n      jump\t// in\n    tag_263:\n        /* \"#utility.yul\":2632:2751   */\n    tag_262:\n        /* \"#utility.yul\":2790:2791   */\n      0x00\n        /* \"#utility.yul\":2815:2868   */\n      tag_264\n        /* \"#utility.yul\":2860:2867   */\n      dup6\n        /* \"#utility.yul\":2851:2857   */\n      dup3\n        /* \"#utility.yul\":2840:2849   */\n      dup7\n        /* \"#utility.yul\":2836:2858   */\n      add\n        /* \"#utility.yul\":2815:2868   */\n      tag_197\n      jump\t// in\n    tag_264:\n        /* \"#utility.yul\":2805:2868   */\n      swap3\n      pop\n        /* \"#utility.yul\":2761:2878   */\n      pop\n        /* \"#utility.yul\":2917:2919   */\n      0x20\n        /* \"#utility.yul\":2943:2996   */\n      tag_265\n        /* \"#utility.yul\":2988:2995   */\n      dup6\n        /* \"#utility.yul\":2979:2985   */\n      dup3\n        /* \"#utility.yul\":2968:2977   */\n      dup7\n        /* \"#utility.yul\":2964:2986   */\n      add\n        /* \"#utility.yul\":2943:2996   */\n      tag_200\n      jump\t// in\n    tag_265:\n        /* \"#utility.yul\":2933:2996   */\n      swap2\n      pop\n        /* \"#utility.yul\":2888:3006   */\n      pop\n        /* \"#utility.yul\":2539:3013   */\n      swap3\n      pop\n      swap3\n      swap1\n      pop\n      jump\t// out\n        /* \"#utility.yul\":3019:3109   */\n    tag_201:\n        /* \"#utility.yul\":3053:3060   */\n      0x00\n        /* \"#utility.yul\":3096:3101   */\n      dup2\n        /* \"#utility.yul\":3089:3102   */\n      iszero\n        /* \"#utility.yul\":3082:3103   */\n      iszero\n        /* \"#utility.yul\":3071:3103   */\n      swap1\n      pop\n        /* \"#utility.yul\":3019:3109   */\n      swap2\n      swap1\n      pop\n      jump\t// out\n        /* \"#utility.yul\":3115:3224   */\n    tag_202:\n        /* \"#utility.yul\":3196:3217   */\n      tag_268\n        /* \"#utility.yul\":3211:3216   */\n      dup2\n        /* \"#utility.yul\":3196:3217   */\n      tag_201\n      jump\t// in\n    tag_268:\n        /* \"#utility.yul\":3191:3194   */\n      dup3\n        /* \"#utility.yul\":3184:3218   */\n      mstore\n        /* \"#utility.yul\":3115:3224   */\n      pop\n      pop\n      jump\t// out\n        /* \"#utility.yul\":3230:3440   */\n    tag_35:\n        /* \"#utility.yul\":3317:3321   */\n      0x00\n        /* \"#utility.yul\":3355:3357   */\n      0x20\n        /* \"#utility.yul\":3344:3353   */\n      dup3\n        /* \"#utility.yul\":3340:3358   */\n      add\n        /* \"#utility.yul\":3332:3358   */\n      swap1\n      pop\n        /* \"#utility.yul\":3368:3433   */\n      tag_270\n        /* \"#utility.yul\":3430:3431   */\n      0x00\n        /* \"#utility.yul\":3419:3428   */\n      dup4\n        /* \"#utility.yul\":3415:3432   */\n      add\n        /* \"#utility.yul\":3406:3412   */\n      dup5\n        /* \"#utility.yul\":3368:3433   */\n      tag_202\n      jump\t// in\n    tag_270:\n        /* \"#utility.yul\":3230:3440   */\n      swap3\n      swap2\n      pop\n      pop\n      jump\t// out\n        /* \"#utility.yul\":3446:3775   */\n    tag_38:\n        /* \"#utility.yul\":3505:3511   */\n      0x00\n        /* \"#utility.yul\":3554:3556   */\n      0x20\n        /* \"#utility.yul\":3542:3551   */\n      dup3\n        /* \"#utility.yul\":3533:3540   */\n      dup5\n        /* \"#utility.yul\":3529:3552   */\n      sub\n        /* \"#utility.yul\":3525:3557   */\n      slt\n        /* \"#utility.yul\":3522:3641   */\n      iszero\n      tag_272\n      jumpi\n        /* \"#utility.yul\":3560:3639   */\n      tag_273\n      tag_192\n      jump\t// in\n    tag_273:\n        /* \"#utility.yul\":3522:3641   */\n    tag_272:\n        /* \"#utility.yul\":3680:3681   */\n      0x00\n        /* \"#utility.yul\":3705:3758   */\n      tag_274\n        /* \"#utility.yul\":3750:3757   */\n      dup5\n        /* \"#utility.yul\":3741:3747   */\n      dup3\n        /* \"#utility.yul\":3730:3739   */\n      dup6\n        /* \"#utility.yul\":3726:3748   */\n      add\n        /* \"#utility.yul\":3705:3758   */\n      tag_197\n      jump\t// in\n    tag_274:\n        /* \"#utility.yul\":3695:3758   */\n      swap2\n      pop\n        /* \"#utility.yul\":3651:3768   */\n      pop\n        /* \"#utility.yul\":3446:3775   */\n      swap3\n      swap2\n      pop\n      pop\n      jump\t// out\n        /* \"#utility.yul\":3781:3899   */\n    tag_203:\n        /* \"#utility.yul\":3868:3892   */\n      tag_276\n        /* \"#utility.yul\":3886:3891   */\n      dup2\n        /* \"#utility.yul\":3868:3892   */\n      tag_198\n      jump\t// in\n    tag_276:\n        /* \"#utility.yul\":3863:3866   */\n      dup3\n        /* \"#utility.yul\":3856:3893   */\n      mstore\n        /* \"#utility.yul\":3781:3899   */\n      pop\n      pop\n      jump\t// out\n        /* \"#utility.yul\":3905:4127   */\n    tag_44:\n        /* \"#utility.yul\":3998:4002   */\n      0x00\n        /* \"#utility.yul\":4036:4038   */\n      0x20\n        /* \"#utility.yul\":4025:4034   */\n      dup3\n        /* \"#utility.yul\":4021:4039   */\n      add\n        /* \"#utility.yul\":4013:4039   */\n      swap1\n      pop\n        /* \"#utility.yul\":4049:4120   */\n      tag_278\n        /* \"#utility.yul\":4117:4118   */\n      0x00\n        /* \"#utility.yul\":4106:4115   */\n      dup4\n        /* \"#utility.yul\":4102:4119   */\n      add\n        /* \"#utility.yul\":4093:4099   */\n      dup5\n        /* \"#utility.yul\":4049:4120   */\n      tag_203\n      jump\t// in\n    tag_278:\n        /* \"#utility.yul\":3905:4127   */\n      swap3\n      swap2\n      pop\n      pop\n      jump\t// out\n        /* \"#utility.yul\":4133:4752   */\n    tag_47:\n        /* \"#utility.yul\":4210:4216   */\n      0x00\n        /* \"#utility.yul\":4218:4224   */\n      dup1\n        /* \"#utility.yul\":4226:4232   */\n      0x00\n        /* \"#utility.yul\":4275:4277   */\n      0x60\n        /* \"#utility.yul\":4263:4272   */\n      dup5\n        /* \"#utility.yul\":4254:4261   */\n      dup7\n        /* \"#utility.yul\":4250:4273   */\n      sub\n        /* \"#utility.yul\":4246:4278   */\n      slt\n        /* \"#utility.yul\":4243:4362   */\n      iszero\n      tag_280\n      jumpi\n        /* \"#utility.yul\":4281:4360   */\n      tag_281\n      tag_192\n      jump\t// in\n    tag_281:\n        /* \"#utility.yul\":4243:4362   */\n    tag_280:\n        /* \"#utility.yul\":4401:4402   */\n      0x00\n        /* \"#utility.yul\":4426:4479   */\n      tag_282\n        /* \"#utility.yul\":4471:4478   */\n      dup7\n        /* \"#utility.yul\":4462:4468   */\n      dup3\n        /* \"#utility.yul\":4451:4460   */\n      dup8\n        /* \"#utility.yul\":4447:4469   */\n      add\n        /* \"#utility.yul\":4426:4479   */\n      tag_197\n      jump\t// in\n    tag_282:\n        /* \"#utility.yul\":4416:4479   */\n      swap4\n      pop\n        /* \"#utility.yul\":4372:4489   */\n      pop\n        /* \"#utility.yul\":4528:4530   */\n      0x20\n        /* \"#utility.yul\":4554:4607   */\n      tag_283\n        /* \"#utility.yul\":4599:4606   */\n      dup7\n        /* \"#utility.yul\":4590:4596   */\n      dup3\n        /* \"#utility.yul\":4579:4588   */\n      dup8\n        /* \"#utility.yul\":4575:4597   */\n      add\n        /* \"#utility.yul\":4554:4607   */\n      tag_197\n      jump\t// in\n    tag_283:\n        /* \"#utility.yul\":4544:4607   */\n      swap3\n      pop\n        /* \"#utility.yul\":4499:4617   */\n      pop\n        /* \"#utility.yul\":4656:4658   */\n      0x40\n        /* \"#utility.yul\":4682:4735   */\n      tag_284\n        /* \"#utility.yul\":4727:4734   */\n      dup7\n        /* \"#utility.yul\":4718:4724   */\n      dup3\n        /* \"#utility.yul\":4707:4716   */\n      dup8\n        /* \"#utility.yul\":4703:4725   */\n      add\n        /* \"#utility.yul\":4682:4735   */\n      tag_200\n      jump\t// in\n    tag_284:\n        /* \"#utility.yul\":4672:4735   */\n      swap2\n      pop\n        /* \"#utility.yul\":4627:4745   */\n      pop\n        /* \"#utility.yul\":4133:4752   */\n      swap3\n      pop\n      swap3\n      pop\n      swap3\n      jump\t// out\n        /* \"#utility.yul\":4758:4844   */\n    tag_204:\n        /* \"#utility.yul\":4793:4800   */\n      0x00\n        /* \"#utility.yul\":4833:4837   */\n      0xff\n        /* \"#utility.yul\":4826:4831   */\n      dup3\n        /* \"#utility.yul\":4822:4838   */\n      and\n        /* \"#utility.yul\":4811:4838   */\n      swap1\n      pop\n        /* \"#utility.yul\":4758:4844   */\n      swap2\n      swap1\n      pop\n      jump\t// out\n        /* \"#utility.yul\":4850:4962   */\n    tag_205:\n        /* \"#utility.yul\":4933:4955   */\n      tag_287\n        /* \"#utility.yul\":4949:4954   */\n      dup2\n        /* \"#utility.yul\":4933:4955   */\n      tag_204\n      jump\t// in\n    tag_287:\n        /* \"#utility.yul\":4928:4931   */\n      dup3\n        /* \"#utility.yul\":4921:4956   */\n      mstore\n        /* \"#utility.yul\":4850:4962   */\n      pop\n      pop\n      jump\t// out\n        /* \"#utility.yul\":4968:5182   */\n    tag_53:\n        /* \"#utility.yul\":5057:5061   */\n      0x00\n        /* \"#utility.yul\":5095:5097   */\n      0x20\n        /* \"#utility.yul\":5084:5093   */\n      dup3\n        /* \"#utility.yul\":5080:5098   */\n      add\n        /* \"#utility.yul\":5072:5098   */\n      swap1\n      pop\n        /* \"#utility.yul\":5108:5175   */\n      tag_289\n        /* \"#utility.yul\":5172:5173   */\n      0x00\n        /* \"#utility.yul\":5161:5170   */\n      dup4\n        /* \"#utility.yul\":5157:5174   */\n      add\n        /* \"#utility.yul\":5148:5154   */\n      dup5\n        /* \"#utility.yul\":5108:5175   */\n      tag_205\n      jump\t// in\n    tag_289:\n        /* \"#utility.yul\":4968:5182   */\n      swap3\n      swap2\n      pop\n      pop\n      jump\t// out\n        /* \"#utility.yul\":5188:5305   */\n    tag_206:\n        /* \"#utility.yul\":5297:5298   */\n      0x00\n        /* \"#utility.yul\":5294:5295   */\n      dup1\n        /* \"#utility.yul\":5287:5299   */\n      revert\n        /* \"#utility.yul\":5311:5428   */\n    tag_207:\n        /* \"#utility.yul\":5420:5421   */\n      0x00\n        /* \"#utility.yul\":5417:5418   */\n      dup1\n        /* \"#utility.yul\":5410:5422   */\n      revert\n        /* \"#utility.yul\":5434:5551   */\n    tag_208:\n        /* \"#utility.yul\":5543:5544   */\n      0x00\n        /* \"#utility.yul\":5540:5541   */\n      dup1\n        /* \"#utility.yul\":5533:5545   */\n      revert\n        /* \"#utility.yul\":5571:6124   */\n    tag_209:\n        /* \"#utility.yul\":5629:5637   */\n      0x00\n        /* \"#utility.yul\":5639:5645   */\n      dup1\n        /* \"#utility.yul\":5689:5692   */\n      dup4\n        /* \"#utility.yul\":5682:5686   */\n      0x1f\n        /* \"#utility.yul\":5674:5680   */\n      dup5\n        /* \"#utility.yul\":5670:5687   */\n      add\n        /* \"#utility.yul\":5666:5693   */\n      slt\n        /* \"#utility.yul\":5656:5778   */\n      tag_294\n      jumpi\n        /* \"#utility.yul\":5697:5776   */\n      tag_295\n      tag_206\n      jump\t// in\n    tag_295:\n        /* \"#utility.yul\":5656:5778   */\n    tag_294:\n        /* \"#utility.yul\":5810:5816   */\n      dup3\n        /* \"#utility.yul\":5797:5817   */\n      calldataload\n        /* \"#utility.yul\":5787:5817   */\n      swap1\n      pop\n        /* \"#utility.yul\":5840:5858   */\n      0xffffffffffffffff\n        /* \"#utility.yul\":5832:5838   */\n      dup2\n        /* \"#utility.yul\":5829:5859   */\n      gt\n        /* \"#utility.yul\":5826:5943   */\n      iszero\n      tag_296\n      jumpi\n        /* \"#utility.yul\":5862:5941   */\n      tag_297\n      tag_207\n      jump\t// in\n    tag_297:\n        /* \"#utility.yul\":5826:5943   */\n    tag_296:\n        /* \"#utility.yul\":5976:5980   */\n      0x20\n        /* \"#utility.yul\":5968:5974   */\n      dup4\n        /* \"#utility.yul\":5964:5981   */\n      add\n        /* \"#utility.yul\":5952:5981   */\n      swap2\n      pop\n        /* \"#utility.yul\":6030:6033   */\n      dup4\n        /* \"#utility.yul\":6022:6026   */\n      0x01\n        /* \"#utility.yul\":6014:6020   */\n      dup3\n        /* \"#utility.yul\":6010:6027   */\n      mul\n        /* \"#utility.yul\":6000:6008   */\n      dup4\n        /* \"#utility.yul\":5996:6028   */\n      add\n        /* \"#utility.yul\":5993:6034   */\n      gt\n        /* \"#utility.yul\":5990:6118   */\n      iszero\n      tag_298\n      jumpi\n        /* \"#utility.yul\":6037:6116   */\n      tag_299\n      tag_208\n      jump\t// in\n    tag_299:\n        /* \"#utility.yul\":5990:6118   */\n    tag_298:\n        /* \"#utility.yul\":5571:6124   */\n      swap3\n      pop\n      swap3\n      swap1\n      pop\n      jump\t// out\n        /* \"#utility.yul\":6130:7004   */\n    tag_56:\n        /* \"#utility.yul\":6222:6228   */\n      0x00\n        /* \"#utility.yul\":6230:6236   */\n      dup1\n        /* \"#utility.yul\":6238:6244   */\n      0x00\n        /* \"#utility.yul\":6246:6252   */\n      dup1\n        /* \"#utility.yul\":6295:6297   */\n      0x40\n        /* \"#utility.yul\":6283:6292   */\n      dup6\n        /* \"#utility.yul\":6274:6281   */\n      dup8\n        /* \"#utility.yul\":6270:6293   */\n      sub\n        /* \"#utility.yul\":6266:6298   */\n      slt\n        /* \"#utility.yul\":6263:6382   */\n      iszero\n      tag_301\n      jumpi\n        /* \"#utility.yul\":6301:6380   */\n      tag_302\n      tag_192\n      jump\t// in\n    tag_302:\n        /* \"#utility.yul\":6263:6382   */\n    tag_301:\n        /* \"#utility.yul\":6449:6450   */\n      0x00\n        /* \"#utility.yul\":6438:6447   */\n      dup6\n        /* \"#utility.yul\":6434:6451   */\n      add\n        /* \"#utility.yul\":6421:6452   */\n      calldataload\n        /* \"#utility.yul\":6479:6497   */\n      0xffffffffffffffff\n        /* \"#utility.yul\":6471:6477   */\n      dup2\n        /* \"#utility.yul\":6468:6498   */\n      gt\n        /* \"#utility.yul\":6465:6582   */\n      iszero\n      tag_303\n      jumpi\n        /* \"#utility.yul\":6501:6580   */\n      tag_304\n      tag_193\n      jump\t// in\n    tag_304:\n        /* \"#utility.yul\":6465:6582   */\n    tag_303:\n        /* \"#utility.yul\":6614:6679   */\n      tag_305\n        /* \"#utility.yul\":6671:6678   */\n      dup8\n        /* \"#utility.yul\":6662:6668   */\n      dup3\n        /* \"#utility.yul\":6651:6660   */\n      dup9\n        /* \"#utility.yul\":6647:6669   */\n      add\n        /* \"#utility.yul\":6614:6679   */\n      tag_209\n      jump\t// in\n    tag_305:\n        /* \"#utility.yul\":6596:6679   */\n      swap5\n      pop\n      swap5\n      pop\n        /* \"#utility.yul\":6392:6689   */\n      pop\n        /* \"#utility.yul\":6756:6758   */\n      0x20\n        /* \"#utility.yul\":6745:6754   */\n      dup6\n        /* \"#utility.yul\":6741:6759   */\n      add\n        /* \"#utility.yul\":6728:6760   */\n      calldataload\n        /* \"#utility.yul\":6787:6805   */\n      0xffffffffffffffff\n        /* \"#utility.yul\":6779:6785   */\n      dup2\n        /* \"#utility.yul\":6776:6806   */\n      gt\n        /* \"#utility.yul\":6773:6890   */\n      iszero\n      tag_306\n      jumpi\n        /* \"#utility.yul\":6809:6888   */\n      tag_307\n      tag_193\n      jump\t// in\n    tag_307:\n        /* \"#utility.yul\":6773:6890   */\n    tag_306:\n        /* \"#utility.yul\":6922:6987   */\n      tag_308\n        /* \"#utility.yul\":6979:6986   */\n      dup8\n        /* \"#utility.yul\":6970:6976   */\n      dup3\n        /* \"#utility.yul\":6959:6968   */\n      dup9\n        /* \"#utility.yul\":6955:6977   */\n      add\n        /* \"#utility.yul\":6922:6987   */\n      tag_209\n      jump\t// in\n    tag_308:\n        /* \"#utility.yul\":6904:6987   */\n      swap3\n      pop\n      swap3\n      pop\n        /* \"#utility.yul\":6699:6997   */\n      pop\n        /* \"#utility.yul\":6130:7004   */\n      swap3\n      swap6\n      swap2\n      swap5\n      pop\n      swap3\n      pop\n      jump\t// out\n        /* \"#utility.yul\":7010:7339   */\n    tag_60:\n        /* \"#utility.yul\":7069:7075   */\n      0x00\n        /* \"#utility.yul\":7118:7120   */\n      0x20\n        /* \"#utility.yul\":7106:7115   */\n      dup3\n        /* \"#utility.yul\":7097:7104   */\n      dup5\n        /* \"#utility.yul\":7093:7116   */\n      sub\n        /* \"#utility.yul\":7089:7121   */\n      slt\n        /* \"#utility.yul\":7086:7205   */\n      iszero\n      tag_310\n      jumpi\n        /* \"#utility.yul\":7124:7203   */\n      tag_311\n      tag_192\n      jump\t// in\n    tag_311:\n        /* \"#utility.yul\":7086:7205   */\n    tag_310:\n        /* \"#utility.yul\":7244:7245   */\n      0x00\n        /* \"#utility.yul\":7269:7322   */\n      tag_312\n        /* \"#utility.yul\":7314:7321   */\n      dup5\n        /* \"#utility.yul\":7305:7311   */\n      dup3\n        /* \"#utility.yul\":7294:7303   */\n      dup6\n        /* \"#utility.yul\":7290:7312   */\n      add\n        /* \"#utility.yul\":7269:7322   */\n      tag_200\n      jump\t// in\n    tag_312:\n        /* \"#utility.yul\":7259:7322   */\n      swap2\n      pop\n        /* \"#utility.yul\":7215:7332   */\n      pop\n        /* \"#utility.yul\":7010:7339   */\n      swap3\n      swap2\n      pop\n      pop\n      jump\t// out\n        /* \"#utility.yul\":7345:7874   */\n    tag_64:\n        /* \"#utility.yul\":7416:7422   */\n      0x00\n        /* \"#utility.yul\":7424:7430   */\n      dup1\n        /* \"#utility.yul\":7473:7475   */\n      0x20\n        /* \"#utility.yul\":7461:7470   */\n      dup4\n        /* \"#utility.yul\":7452:7459   */\n      dup6\n        /* \"#utility.yul\":7448:7471   */\n      sub\n        /* \"#utility.yul\":7444:7476   */\n      slt\n        /* \"#utility.yul\":7441:7560   */\n      iszero\n      tag_314\n      jumpi\n        /* \"#utility.yul\":7479:7558   */\n      tag_315\n      tag_192\n      jump\t// in\n    tag_315:\n        /* \"#utility.yul\":7441:7560   */\n    tag_314:\n        /* \"#utility.yul\":7627:7628   */\n      0x00\n        /* \"#utility.yul\":7616:7625   */\n      dup4\n        /* \"#utility.yul\":7612:7629   */\n      add\n        /* \"#utility.yul\":7599:7630   */\n      calldataload\n        /* \"#utility.yul\":7657:7675   */\n      0xffffffffffffffff\n        /* \"#utility.yul\":7649:7655   */\n      dup2\n        /* \"#utility.yul\":7646:7676   */\n      gt\n        /* \"#utility.yul\":7643:7760   */\n      iszero\n      tag_316\n      jumpi\n        /* \"#utility.yul\":7679:7758   */\n      tag_317\n      tag_193\n      jump\t// in\n    tag_317:\n        /* \"#utility.yul\":7643:7760   */\n    tag_316:\n        /* \"#utility.yul\":7792:7857   */\n      tag_318\n        /* \"#utility.yul\":7849:7856   */\n      dup6\n        /* \"#utility.yul\":7840:7846   */\n      dup3\n        /* \"#utility.yul\":7829:7838   */\n      dup7\n        /* \"#utility.yul\":7825:7847   */\n      add\n        /* \"#utility.yul\":7792:7857   */\n      tag_209\n      jump\t// in\n    tag_318:\n        /* \"#utility.yul\":7774:7857   */\n      swap3\n      pop\n      swap3\n      pop\n        /* \"#utility.yul\":7570:7867   */\n      pop\n        /* \"#utility.yul\":7345:7874   */\n      swap3\n      pop\n      swap3\n      swap1\n      pop\n      jump\t// out\n        /* \"#utility.yul\":7880:8354   */\n    tag_101:\n        /* \"#utility.yul\":7948:7954   */\n      0x00\n        /* \"#utility.yul\":7956:7962   */\n      dup1\n        /* \"#utility.yul\":8005:8007   */\n      0x40\n        /* \"#utility.yul\":7993:8002   */\n      dup4\n        /* \"#utility.yul\":7984:7991   */\n      dup6\n        /* \"#utility.yul\":7980:8003   */\n      sub\n        /* \"#utility.yul\":7976:8008   */\n      slt\n        /* \"#utility.yul\":7973:8092   */\n      iszero\n      tag_320\n      jumpi\n        /* \"#utility.yul\":8011:8090   */\n      tag_321\n      tag_192\n      jump\t// in\n    tag_321:\n        /* \"#utility.yul\":7973:8092   */\n    tag_320:\n        /* \"#utility.yul\":8131:8132   */\n      0x00\n        /* \"#utility.yul\":8156:8209   */\n      tag_322\n        /* \"#utility.yul\":8201:8208   */\n      dup6\n        /* \"#utility.yul\":8192:8198   */\n      dup3\n        /* \"#utility.yul\":8181:8190   */\n      dup7\n        /* \"#utility.yul\":8177:8199   */\n      add\n        /* \"#utility.yul\":8156:8209   */\n      tag_197\n      jump\t// in\n    tag_322:\n        /* \"#utility.yul\":8146:8209   */\n      swap3\n      pop\n        /* \"#utility.yul\":8102:8219   */\n      pop\n        /* \"#utility.yul\":8258:8260   */\n      0x20\n        /* \"#utility.yul\":8284:8337   */\n      tag_323\n        /* \"#utility.yul\":8329:8336   */\n      dup6\n        /* \"#utility.yul\":8320:8326   */\n      dup3\n        /* \"#utility.yul\":8309:8318   */\n      dup7\n        /* \"#utility.yul\":8305:8327   */\n      add\n        /* \"#utility.yul\":8284:8337   */\n      tag_197\n      jump\t// in\n    tag_323:\n        /* \"#utility.yul\":8274:8337   */\n      swap2\n      pop\n        /* \"#utility.yul\":8229:8347   */\n      pop\n        /* \"#utility.yul\":7880:8354   */\n      swap3\n      pop\n      swap3\n      swap1\n      pop\n      jump\t// out\n        /* \"#utility.yul\":8360:8540   */\n    tag_210:\n        /* \"#utility.yul\":8408:8485   */\n      0x4e487b7100000000000000000000000000000000000000000000000000000000\n        /* \"#utility.yul\":8405:8406   */\n      0x00\n        /* \"#utility.yul\":8398:8486   */\n      mstore\n        /* \"#utility.yul\":8505:8509   */\n      0x22\n        /* \"#utility.yul\":8502:8503   */\n      0x04\n        /* \"#utility.yul\":8495:8510   */\n      mstore\n        /* \"#utility.yul\":8529:8533   */\n      0x24\n        /* \"#utility.yul\":8526:8527   */\n      0x00\n        /* \"#utility.yul\":8519:8534   */\n      revert\n        /* \"#utility.yul\":8546:8866   */\n    tag_109:\n        /* \"#utility.yul\":8590:8596   */\n      0x00\n        /* \"#utility.yul\":8627:8628   */\n      0x02\n        /* \"#utility.yul\":8621:8625   */\n      dup3\n        /* \"#utility.yul\":8617:8629   */\n      div\n        /* \"#utility.yul\":8607:8629   */\n      swap1\n      pop\n        /* \"#utility.yul\":8674:8675   */\n      0x01\n        /* \"#utility.yul\":8668:8672   */\n      dup3\n        /* \"#utility.yul\":8664:8676   */\n      and\n        /* \"#utility.yul\":8695:8713   */\n      dup1\n        /* \"#utility.yul\":8685:8766   */\n      tag_326\n      jumpi\n        /* \"#utility.yul\":8751:8755   */\n      0x7f\n        /* \"#utility.yul\":8743:8749   */\n      dup3\n        /* \"#utility.yul\":8739:8756   */\n      and\n        /* \"#utility.yul\":8729:8756   */\n      swap2\n      pop\n        /* \"#utility.yul\":8685:8766   */\n    tag_326:\n        /* \"#utility.yul\":8813:8815   */\n      0x20\n        /* \"#utility.yul\":8805:8811   */\n      dup3\n        /* \"#utility.yul\":8802:8816   */\n      lt\n        /* \"#utility.yul\":8782:8800   */\n      dup2\n        /* \"#utility.yul\":8779:8817   */\n      sub\n        /* \"#utility.yul\":8776:8860   */\n      tag_327\n      jumpi\n        /* \"#utility.yul\":8832:8850   */\n      tag_328\n      tag_210\n      jump\t// in\n    tag_328:\n        /* \"#utility.yul\":8776:8860   */\n    tag_327:\n        /* \"#utility.yul\":8597:8866   */\n      pop\n        /* \"#utility.yul\":8546:8866   */\n      swap2\n      swap1\n      pop\n      jump\t// out\n        /* \"#utility.yul\":8872:9052   */\n    tag_211:\n        /* \"#utility.yul\":8920:8997   */\n      0x4e487b7100000000000000000000000000000000000000000000000000000000\n        /* \"#utility.yul\":8917:8918   */\n      0x00\n        /* \"#utility.yul\":8910:8998   */\n      mstore\n        /* \"#utility.yul\":9017:9021   */\n      0x11\n        /* \"#utility.yul\":9014:9015   */\n      0x04\n        /* \"#utility.yul\":9007:9022   */\n      mstore\n        /* \"#utility.yul\":9041:9045   */\n      0x24\n        /* \"#utility.yul\":9038:9039   */\n      0x00\n        /* \"#utility.yul\":9031:9046   */\n      revert\n        /* \"#utility.yul\":9058:9252   */\n    tag_123:\n        /* \"#utility.yul\":9098:9102   */\n      0x00\n        /* \"#utility.yul\":9118:9138   */\n      tag_331\n        /* \"#utility.yul\":9136:9137   */\n      dup3\n        /* \"#utility.yul\":9118:9138   */\n      tag_198\n      jump\t// in\n    tag_331:\n        /* \"#utility.yul\":9113:9138   */\n      swap2\n      pop\n        /* \"#utility.yul\":9152:9172   */\n      tag_332\n        /* \"#utility.yul\":9170:9171   */\n      dup4\n        /* \"#utility.yul\":9152:9172   */\n      tag_198\n      jump\t// in\n    tag_332:\n        /* \"#utility.yul\":9147:9172   */\n      swap3\n      pop\n        /* \"#utility.yul\":9196:9197   */\n      dup3\n        /* \"#utility.yul\":9193:9194   */\n      dup3\n        /* \"#utility.yul\":9189:9198   */\n      sub\n        /* \"#utility.yul\":9181:9198   */\n      swap1\n      pop\n        /* \"#utility.yul\":9220:9221   */\n      dup2\n        /* \"#utility.yul\":9214:9218   */\n      dup2\n        /* \"#utility.yul\":9211:9222   */\n      gt\n        /* \"#utility.yul\":9208:9245   */\n      iszero\n      tag_333\n      jumpi\n        /* \"#utility.yul\":9225:9243   */\n      tag_334\n      tag_211\n      jump\t// in\n    tag_334:\n        /* \"#utility.yul\":9208:9245   */\n    tag_333:\n        /* \"#utility.yul\":9058:9252   */\n      swap3\n      swap2\n      pop\n      pop\n      jump\t// out\n        /* \"#utility.yul\":9258:9449   */\n    tag_126:\n        /* \"#utility.yul\":9298:9301   */\n      0x00\n        /* \"#utility.yul\":9317:9337   */\n      tag_336\n        /* \"#utility.yul\":9335:9336   */\n      dup3\n        /* \"#utility.yul\":9317:9337   */\n      tag_198\n      jump\t// in\n    tag_336:\n        /* \"#utility.yul\":9312:9337   */\n      swap2\n      pop\n        /* \"#utility.yul\":9351:9371   */\n      tag_337\n        /* \"#utility.yul\":9369:9370   */\n      dup4\n        /* \"#utility.yul\":9351:9371   */\n      tag_198\n      jump\t// in\n    tag_337:\n        /* \"#utility.yul\":9346:9371   */\n      swap3\n      pop\n        /* \"#utility.yul\":9394:9395   */\n      dup3\n        /* \"#utility.yul\":9391:9392   */\n      dup3\n        /* \"#utility.yul\":9387:9396   */\n      add\n        /* \"#utility.yul\":9380:9396   */\n      swap1\n      pop\n        /* \"#utility.yul\":9415:9418   */\n      dup1\n        /* \"#utility.yul\":9412:9413   */\n      dup3\n        /* \"#utility.yul\":9409:9419   */\n      gt\n        /* \"#utility.yul\":9406:9442   */\n      iszero\n      tag_338\n      jumpi\n        /* \"#utility.yul\":9422:9440   */\n      tag_339\n      tag_211\n      jump\t// in\n    tag_339:\n        /* \"#utility.yul\":9406:9442   */\n    tag_338:\n        /* \"#utility.yul\":9258:9449   */\n      swap3\n      swap2\n      pop\n      pop\n      jump\t// out\n        /* \"#utility.yul\":9455:9552   */\n    tag_212:\n        /* \"#utility.yul\":9514:9520   */\n      0x00\n        /* \"#utility.yul\":9542:9545   */\n      dup3\n        /* \"#utility.yul\":9532:9545   */\n      swap1\n      pop\n        /* \"#utility.yul\":9455:9552   */\n      swap3\n      swap2\n      pop\n      pop\n      jump\t// out\n        /* \"#utility.yul\":9558:9738   */\n    tag_213:\n        /* \"#utility.yul\":9606:9683   */\n      0x4e487b7100000000000000000000000000000000000000000000000000000000\n        /* \"#utility.yul\":9603:9604   */\n      0x00\n        /* \"#utility.yul\":9596:9684   */\n      mstore\n        /* \"#utility.yul\":9703:9707   */\n      0x41\n        /* \"#utility.yul\":9700:9701   */\n      0x04\n        /* \"#utility.yul\":9693:9708   */\n      mstore\n        /* \"#utility.yul\":9727:9731   */\n      0x24\n        /* \"#utility.yul\":9724:9725   */\n      0x00\n        /* \"#utility.yul\":9717:9732   */\n      revert\n        /* \"#utility.yul\":9744:9885   */\n    tag_214:\n        /* \"#utility.yul\":9793:9797   */\n      0x00\n        /* \"#utility.yul\":9816:9819   */\n      dup2\n        /* \"#utility.yul\":9808:9819   */\n      swap1\n      pop\n        /* \"#utility.yul\":9839:9842   */\n      dup2\n        /* \"#utility.yul\":9836:9837   */\n      0x00\n        /* \"#utility.yul\":9829:9843   */\n      mstore\n        /* \"#utility.yul\":9873:9877   */\n      0x20\n        /* \"#utility.yul\":9870:9871   */\n      0x00\n        /* \"#utility.yul\":9860:9878   */\n      keccak256\n        /* \"#utility.yul\":9852:9878   */\n      swap1\n      pop\n        /* \"#utility.yul\":9744:9885   */\n      swap2\n      swap1\n      pop\n      jump\t// out\n        /* \"#utility.yul\":9891:9984   */\n    tag_215:\n        /* \"#utility.yul\":9928:9934   */\n      0x00\n        /* \"#utility.yul\":9975:9977   */\n      0x20\n        /* \"#utility.yul\":9970:9972   */\n      0x1f\n        /* \"#utility.yul\":9963:9968   */\n      dup4\n        /* \"#utility.yul\":9959:9973   */\n      add\n        /* \"#utility.yul\":9955:9978   */\n      div\n        /* \"#utility.yul\":9945:9978   */\n      swap1\n      pop\n        /* \"#utility.yul\":9891:9984   */\n      swap2\n      swap1\n      pop\n      jump\t// out\n        /* \"#utility.yul\":9990:10097   */\n    tag_216:\n        /* \"#utility.yul\":10034:10042   */\n      0x00\n        /* \"#utility.yul\":10084:10089   */\n      dup3\n        /* \"#utility.yul\":10078:10082   */\n      dup3\n        /* \"#utility.yul\":10074:10090   */\n      shl\n        /* \"#utility.yul\":10053:10090   */\n      swap1\n      pop\n        /* \"#utility.yul\":9990:10097   */\n      swap3\n      swap2\n      pop\n      pop\n      jump\t// out\n        /* \"#utility.yul\":10103:10496   */\n    tag_217:\n        /* \"#utility.yul\":10172:10178   */\n      0x00\n        /* \"#utility.yul\":10222:10223   */\n      0x08\n        /* \"#utility.yul\":10210:10220   */\n      dup4\n        /* \"#utility.yul\":10206:10224   */\n      mul\n        /* \"#utility.yul\":10245:10342   */\n      tag_346\n        /* \"#utility.yul\":10275:10341   */\n      0xffffffffffffffffffffffffffffffffffffffffffffffffffffffffffffffff\n        /* \"#utility.yul\":10264:10273   */\n      dup3\n        /* \"#utility.yul\":10245:10342   */\n      tag_216\n      jump\t// in\n    tag_346:\n        /* \"#utility.yul\":10363:10402   */\n      tag_347\n        /* \"#utility.yul\":10393:10401   */\n      dup7\n        /* \"#utility.yul\":10382:10391   */\n      dup4\n        /* \"#utility.yul\":10363:10402   */\n      tag_216\n      jump\t// in\n    tag_347:\n        /* \"#utility.yul\":10351:10402   */\n      swap6\n      pop\n        /* \"#utility.yul\":10435:10439   */\n      dup1\n        /* \"#utility.yul\":10431:10440   */\n      not\n        /* \"#utility.yul\":10424:10429   */\n      dup5\n        /* \"#utility.yul\":10420:10441   */\n      and\n        /* \"#utility.yul\":10411:10441   */\n      swap4\n      pop\n        /* \"#utility.yul\":10484:10488   */\n      dup1\n        /* \"#utility.yul\":10474:10482   */\n      dup7\n        /* \"#utility.yul\":10470:10489   */\n      and\n        /* \"#utility.yul\":10463:10468   */\n      dup5\n        /* \"#utility.yul\":10460:10490   */\n      or\n        /* \"#utility.yul\":10450:10490   */\n      swap3\n      pop\n        /* \"#utility.yul\":10179:10496   */\n      pop\n      pop\n        /* \"#utility.yul\":10103:10496   */\n      swap4\n      swap3\n      pop\n      pop\n      pop\n      jump\t// out\n        /* \"#utility.yul\":10502:10562   */\n    tag_218:\n        /* \"#utility.yul\":10530:10533   */\n      0x00\n        /* \"#utility.yul\":10551:10556   */\n      dup2\n        /* \"#utility.yul\":10544:10556   */\n      swap1\n      pop\n        /* \"#utility.yul\":10502:10562   */\n      swap2\n      swap1\n      pop\n      jump\t// out\n        /* \"#utility.yul\":10568:10710   */\n    tag_219:\n        /* \"#utility.yul\":10618:10627   */\n      0x00\n        /* \"#utility.yul\":10651:10704   */\n      tag_350\n        /* \"#utility.yul\":10669:10703   */\n      tag_351\n        /* \"#utility.yul\":10678:10702   */\n      tag_352\n        /* \"#utility.yul\":10696:10701   */\n      dup5\n        /* \"#utility.yul\":10678:10702   */\n      tag_198\n      jump\t// in\n    tag_352:\n        /* \"#utility.yul\":10669:10703   */\n      tag_218\n      jump\t// in\n    tag_351:\n        /* \"#utility.yul\":10651:10704   */\n      tag_198\n      jump\t// in\n    tag_350:\n        /* \"#utility.yul\":10638:10704   */\n      swap1\n      pop\n        /* \"#utility.yul\":10568:10710   */\n      swap2\n      swap1\n      pop\n      jump\t// out\n        /* \"#utility.yul\":10716:10791   */\n    tag_220:\n        /* \"#utility.yul\":10759:10762   */\n      0x00\n        /* \"#utility.yul\":10780:10785   */\n      dup2\n        /* \"#utility.yul\":10773:10785   */\n      swap1\n      pop\n        /* \"#utility.yul\":10716:10791   */\n      swap2\n      swap1\n      pop\n      jump\t// out\n        /* \"#utility.yul\":10797:11066   */\n    tag_221:\n        /* \"#utility.yul\":10907:10946   */\n      tag_355\n        /* \"#utility.yul\":10938:10945   */\n      dup4\n        /* \"#utility.yul\":10907:10946   */\n      tag_219\n      jump\t// in\n    tag_355:\n        /* \"#utility.yul\":10968:11059   */\n      tag_356\n        /* \"#utility.yul\":11017:11058   */\n      tag_357\n        /* \"#utility.yul\":11041:11057   */\n      dup3\n        /* \"#utility.yul\":11017:11058   */\n      tag_220\n      jump\t// in\n    tag_357:\n        /* \"#utility.yul\":11009:11015   */\n      dup5\n        /* \"#utility.yul\":11002:11006   */\n      dup5\n        /* \"#utility.yul\":10996:11007   */\n      sload\n        /* \"#utility.yul\":10968:11059   */\n      tag_217\n      jump\t// in\n    tag_356:\n        /* \"#utility.yul\":10962:10966   */\n      dup3\n        /* \"#utility.yul\":10955:11060   */\n      sstore\n        /* \"#utility.yul\":10873:11066   */\n      pop\n        /* \"#utility.yul\":10797:11066   */\n      pop\n      pop\n      pop\n      jump\t// out\n        /* \"#utility.yul\":11072:11145   */\n    tag_222:\n        /* \"#utility.yul\":11117:11120   */\n      0x00\n        /* \"#utility.yul\":11072:11145   */\n      swap1\n      jump\t// out\n        /* \"#utility.yul\":11151:11340   */\n    tag_223:\n        /* \"#utility.yul\":11228:11260   */\n      tag_360\n      tag_222\n      jump\t// in\n    tag_360:\n        /* \"#utility.yul\":11269:11334   */\n      tag_361\n        /* \"#utility.yul\":11327:11333   */\n      dup2\n        /* \"#utility.yul\":11319:11325   */\n      dup5\n        /* \"#utility.yul\":11313:11317   */\n      dup5\n        /* \"#utility.yul\":11269:11334   */\n      tag_221\n      jump\t// in\n    tag_361:\n        /* \"#utility.yul\":11204:11340   */\n      pop\n        /* \"#utility.yul\":11151:11340   */\n      pop\n      pop\n      jump\t// out\n        /* \"#utility.yul\":11346:11532   */\n    tag_224:\n        /* \"#utility.yul\":11406:11526   */\n    tag_363:\n        /* \"#utility.yul\":11423:11426   */\n      dup2\n        /* \"#utility.yul\":11416:11421   */\n      dup2\n        /* \"#utility.yul\":11413:11427   */\n      lt\n        /* \"#utility.yul\":11406:11526   */\n      iszero\n      tag_365\n      jumpi\n        /* \"#utility.yul\":11477:11516   */\n      tag_366\n        /* \"#utility.yul\":11514:11515   */\n      0x00\n        /* \"#utility.yul\":11507:11512   */\n      dup3\n        /* \"#utility.yul\":11477:11516   */\n      tag_223\n      jump\t// in\n    tag_366:\n        /* \"#utility.yul\":11450:11451   */\n      0x01\n        /* \"#utility.yul\":11443:11448   */\n      dup2\n        /* \"#utility.yul\":11439:11452   */\n      add\n        /* \"#utility.yul\":11430:11452   */\n      swap1\n      pop\n        /* \"#utility.yul\":11406:11526   */\n      jump(tag_363)\n    tag_365:\n        /* \"#utility.yul\":11346:11532   */\n      pop\n      pop\n      jump\t// out\n        /* \"#utility.yul\":11538:12081   */\n    tag_225:\n        /* \"#utility.yul\":11639:11641   */\n      0x1f\n        /* \"#utility.yul\":11634:11637   */\n      dup3\n        /* \"#utility.yul\":11631:11642   */\n      gt\n        /* \"#utility.yul\":11628:12074   */\n      iszero\n      tag_368\n      jumpi\n        /* \"#utility.yul\":11673:11711   */\n      tag_369\n        /* \"#utility.yul\":11705:11710   */\n      dup2\n        /* \"#utility.yul\":11673:11711   */\n      tag_214\n      jump\t// in\n    tag_369:\n        /* \"#utility.yul\":11757:11786   */\n      tag_370\n        /* \"#utility.yul\":11775:11785   */\n      dup5\n        /* \"#utility.yul\":11757:11786   */\n      tag_215\n      jump\t// in\n    tag_370:\n        /* \"#utility.yul\":11747:11755   */\n      dup2\n        /* \"#utility.yul\":11743:11787   */\n      add\n        /* \"#utility.yul\":11940:11942   */\n      0x20\n        /* \"#utility.yul\":11928:11938   */\n      dup6\n        /* \"#utility.yul\":11925:11943   */\n      lt\n        /* \"#utility.yul\":11922:11971   */\n      iszero\n      tag_371\n      jumpi\n        /* \"#utility.yul\":11961:11969   */\n      dup2\n        /* \"#utility.yul\":11946:11969   */\n      swap1\n      pop\n        /* \"#utility.yul\":11922:11971   */\n    tag_371:\n        /* \"#utility.yul\":11984:12064   */\n      tag_372\n        /* \"#utility.yul\":12040:12062   */\n      tag_373\n        /* \"#utility.yul\":12058:12061   */\n      dup6\n        /* \"#utility.yul\":12040:12062   */\n      tag_215\n      jump\t// in\n    tag_373:\n        /* \"#utility.yul\":12030:12038   */\n      dup4\n        /* \"#utility.yul\":12026:12063   */\n      add\n        /* \"#utility.yul\":12013:12024   */\n      dup3\n        /* \"#utility.yul\":11984:12064   */\n      tag_224\n      jump\t// in\n    tag_372:\n        /* \"#utility.yul\":11643:12074   */\n      pop\n      pop\n        /* \"#utility.yul\":11628:12074   */\n    tag_368:\n        /* \"#utility.yul\":11538:12081   */\n      pop\n      pop\n      pop\n      jump\t// out\n        /* \"#utility.yul\":12087:12204   */\n    tag_226:\n        /* \"#utility.yul\":12141:12149   */\n      0x00\n        /* \"#utility.yul\":12191:12196   */\n      dup3\n        /* \"#utility.yul\":12185:12189   */\n      dup3\n        /* \"#utility.yul\":12181:12197   */\n      shr\n        /* \"#utility.yul\":12160:12197   */\n      swap1\n      pop\n        /* \"#utility.yul\":12087:12204   */\n      swap3\n      swap2\n      pop\n      pop\n      jump\t// out\n        /* \"#utility.yul\":12210:12379   */\n    tag_227:\n        /* \"#utility.yul\":12254:12260   */\n      0x00\n        /* \"#utility.yul\":12287:12338   */\n      tag_376\n        /* \"#utility.yul\":12335:12336   */\n      0x00\n        /* \"#utility.yul\":12331:12337   */\n      not\n        /* \"#utility.yul\":12323:12328   */\n      dup5\n        /* \"#utility.yul\":12320:12321   */\n      0x08\n        /* \"#utility.yul\":12316:12329   */\n      mul\n        /* \"#utility.yul\":12287:12338   */\n      tag_226\n      jump\t// in\n    tag_376:\n        /* \"#utility.yul\":12283:12339   */\n      not\n        /* \"#utility.yul\":12368:12372   */\n      dup1\n        /* \"#utility.yul\":12362:12366   */\n      dup4\n        /* \"#utility.yul\":12358:12373   */\n      and\n        /* \"#utility.yul\":12348:12373   */\n      swap2\n      pop\n        /* \"#utility.yul\":12261:12379   */\n      pop\n        /* \"#utility.yul\":12210:12379   */\n      swap3\n      swap2\n      pop\n      pop\n      jump\t// out\n        /* \"#utility.yul\":12384:12679   */\n    tag_228:\n        /* \"#utility.yul\":12460:12464   */\n      0x00\n        /* \"#utility.yul\":12606:12635   */\n      tag_378\n        /* \"#utility.yul\":12631:12634   */\n      dup4\n        /* \"#utility.yul\":12625:12629   */\n      dup4\n        /* \"#utility.yul\":12606:12635   */\n      tag_227\n      jump\t// in\n    tag_378:\n        /* \"#utility.yul\":12598:12635   */\n      swap2\n      pop\n        /* \"#utility.yul\":12668:12671   */\n      dup3\n        /* \"#utility.yul\":12665:12666   */\n      0x02\n        /* \"#utility.yul\":12661:12672   */\n      mul\n        /* \"#utility.yul\":12655:12659   */\n      dup3\n        /* \"#utility.yul\":12652:12673   */\n      or\n        /* \"#utility.yul\":12644:12673   */\n      swap1\n      pop\n        /* \"#utility.yul\":12384:12679   */\n      swap3\n      swap2\n      pop\n      pop\n      jump\t// out\n        /* \"#utility.yul\":12684:14087   */\n    tag_130:\n        /* \"#utility.yul\":12808:12852   */\n      tag_380\n        /* \"#utility.yul\":12848:12851   */\n      dup4\n        /* \"#utility.yul\":12843:12846   */\n      dup4\n        /* \"#utility.yul\":12808:12852   */\n      tag_212\n      jump\t// in\n    tag_380:\n        /* \"#utility.yul\":12917:12935   */\n      0xffffffffffffffff\n        /* \"#utility.yul\":12909:12915   */\n      dup2\n        /* \"#utility.yul\":12906:12936   */\n      gt\n        /* \"#utility.yul\":12903:12959   */\n      iszero\n      tag_381\n      jumpi\n        /* \"#utility.yul\":12939:12957   */\n      tag_382\n      tag_213\n      jump\t// in\n    tag_382:\n        /* \"#utility.yul\":12903:12959   */\n    tag_381:\n        /* \"#utility.yul\":12983:13021   */\n      tag_383\n        /* \"#utility.yul\":13015:13019   */\n      dup3\n        /* \"#utility.yul\":13009:13020   */\n      sload\n        /* \"#utility.yul\":12983:13021   */\n      tag_109\n      jump\t// in\n    tag_383:\n        /* \"#utility.yul\":13068:13135   */\n      tag_384\n        /* \"#utility.yul\":13128:13134   */\n      dup3\n        /* \"#utility.yul\":13120:13126   */\n      dup3\n        /* \"#utility.yul\":13114:13118   */\n      dup6\n        /* \"#utility.yul\":13068:13135   */\n      tag_225\n      jump\t// in\n    tag_384:\n        /* \"#utility.yul\":13162:13163   */\n      0x00\n        /* \"#utility.yul\":13191:13193   */\n      0x1f\n        /* \"#utility.yul\":13183:13189   */\n      dup4\n        /* \"#utility.yul\":13180:13194   */\n      gt\n        /* \"#utility.yul\":13208:13209   */\n      0x01\n        /* \"#utility.yul\":13203:13835   */\n      dup2\n      eq\n      tag_386\n      jumpi\n        /* \"#utility.yul\":13879:13880   */\n      0x00\n        /* \"#utility.yul\":13896:13902   */\n      dup5\n        /* \"#utility.yul\":13893:13977   */\n      iszero\n      tag_387\n      jumpi\n        /* \"#utility.yul\":13952:13961   */\n      dup3\n        /* \"#utility.yul\":13947:13950   */\n      dup8\n        /* \"#utility.yul\":13943:13962   */\n      add\n        /* \"#utility.yul\":13930:13963   */\n      calldataload\n        /* \"#utility.yul\":13921:13963   */\n      swap1\n      pop\n        /* \"#utility.yul\":13893:13977   */\n    tag_387:\n        /* \"#utility.yul\":14003:14070   */\n      tag_388\n        /* \"#utility.yul\":14063:14069   */\n      dup6\n        /* \"#utility.yul\":14056:14061   */\n      dup3\n        /* \"#utility.yul\":14003:14070   */\n      tag_228\n      jump\t// in\n    tag_388:\n        /* \"#utility.yul\":13997:14001   */\n      dup7\n        /* \"#utility.yul\":13990:14071   */\n      sstore\n        /* \"#utility.yul\":13852:14081   */\n      pop\n        /* \"#utility.yul\":13173:14081   */\n      jump(tag_385)\n        /* \"#utility.yul\":13203:13835   */\n    tag_386:\n        /* \"#utility.yul\":13255:13259   */\n      0x1f\n        /* \"#utility.yul\":13251:13260   */\n      not\n        /* \"#utility.yul\":13243:13249   */\n      dup5\n        /* \"#utility.yul\":13239:13261   */\n      and\n        /* \"#utility.yul\":13289:13326   */\n      tag_389\n        /* \"#utility.yul\":13321:13325   */\n      dup7\n        /* \"#utility.yul\":13289:13326   */\n      tag_214\n      jump\t// in\n    tag_389:\n        /* \"#utility.yul\":13348:13349   */\n      0x00\n        /* \"#utility.yul\":13362:13577   */\n    tag_390:\n        /* \"#utility.yul\":13376:13383   */\n      dup3\n        /* \"#utility.yul\":13373:13374   */\n      dup2\n        /* \"#utility.yul\":13370:13384   */\n      lt\n        /* \"#utility.yul\":13362:13577   */\n      iszero\n      tag_392\n      jumpi\n        /* \"#utility.yul\":13462:13471   */\n      dup5\n        /* \"#utility.yul\":13457:13460   */\n      dup10\n        /* \"#utility.yul\":13453:13472   */\n      add\n        /* \"#utility.yul\":13440:13473   */\n      calldataload\n        /* \"#utility.yul\":13432:13438   */\n      dup3\n        /* \"#utility.yul\":13425:13474   */\n      sstore\n        /* \"#utility.yul\":13513:13514   */\n      0x01\n        /* \"#utility.yul\":13505:13511   */\n      dup3\n        /* \"#utility.yul\":13501:13515   */\n      add\n        /* \"#utility.yul\":13491:13515   */\n      swap2\n      pop\n        /* \"#utility.yul\":13560:13562   */\n      0x20\n        /* \"#utility.yul\":13549:13558   */\n      dup6\n        /* \"#utility.yul\":13545:13563   */\n      add\n        /* \"#utility.yul\":13532:13563   */\n      swap5\n      pop\n        /* \"#utility.yul\":13399:13403   */\n      0x20\n        /* \"#utility.yul\":13396:13397   */\n      dup2\n        /* \"#utility.yul\":13392:13404   */\n      add\n        /* \"#utility.yul\":13387:13404   */\n      swap1\n      pop\n        /* \"#utility.yul\":13362:13577   */\n      jump(tag_390)\n    tag_392:\n        /* \"#utility.yul\":13605:13611   */\n      dup7\n        /* \"#utility.yul\":13596:13603   */\n      dup4\n        /* \"#utility.yul\":13593:13612   */\n      lt\n        /* \"#utility.yul\":13590:13776   */\n      iszero\n      tag_393\n      jumpi\n        /* \"#utility.yul\":13670:13679   */\n      dup5\n        /* \"#utility.yul\":13665:13668   */\n      dup10\n        /* \"#utility.yul\":13661:13680   */\n      add\n        /* \"#utility.yul\":13648:13681   */\n      calldataload\n        /* \"#utility.yul\":13713:13761   */\n      tag_394\n        /* \"#utility.yul\":13755:13759   */\n      0x1f\n        /* \"#utility.yul\":13747:13753   */\n      dup10\n        /* \"#utility.yul\":13743:13760   */\n      and\n        /* \"#utility.yul\":13732:13741   */\n      dup3\n        /* \"#utility.yul\":13713:13761   */\n      tag_227\n      jump\t// in\n    tag_394:\n        /* \"#utility.yul\":13705:13711   */\n      dup4\n        /* \"#utility.yul\":13698:13762   */\n      sstore\n        /* \"#utility.yul\":13613:13776   */\n      pop\n        /* \"#utility.yul\":13590:13776   */\n    tag_393:\n        /* \"#utility.yul\":13822:13823   */\n      0x01\n        /* \"#utility.yul\":13818:13819   */\n      0x02\n        /* \"#utility.yul\":13810:13816   */\n      dup9\n        /* \"#utility.yul\":13806:13820   */\n      mul\n        /* \"#utility.yul\":13802:13824   */\n      add\n        /* \"#utility.yul\":13796:13800   */\n      dup9\n        /* \"#utility.yul\":13789:13825   */\n      sstore\n        /* \"#utility.yul\":13210:13835   */\n      pop\n      pop\n      pop\n        /* \"#utility.yul\":13173:14081   */\n    tag_385:\n      pop\n        /* \"#utility.yul\":12783:14087   */\n      pop\n      pop\n      pop\n        /* \"#utility.yul\":12684:14087   */\n      pop\n      pop\n      pop\n      jump\t// out\n\n    auxdata: 0xa2646970667358221220dfa42f65b0cf92b196b6c20554ffab021d99b3f0363a2fa60103c15262c0b69164736f6c63430008110033\n}\n","bytecode":{"linkReferences":{},"object":"60806040526040518060400160405280600881526020017f574d4257616c6b73000000000000000000000000000000000000000000000000815250600390816200004a91906200033c565b506040518060400160405280600381526020017f574d420000000000000000000000000000000000000000000000000000000000815250600490816200009191906200033c565b506002600560006101000a81548160ff021916908360ff160217905550348015620000bb57600080fd5b5062000423565b600081519050919050565b7f4e487b7100000000000000000000000000000000000000000000000000000000600052604160045260246000fd5b7f4e487b7100000000000000000000000000000000000000000000000000000000600052602260045260246000fd5b600060028204905060018216806200014457607f821691505b6020821081036200015a5762000159620000fc565b5b50919050565b60008190508160005260206000209050919050565b60006020601f8301049050919050565b600082821b905092915050565b600060088302620001c47fffffffffffffffffffffffffffffffffffffffffffffffffffffffffffffffff8262000185565b620001d0868362000185565b95508019841693508086168417925050509392505050565b6000819050919050565b6000819050919050565b60006200021d620002176200021184620001e8565b620001f2565b620001e8565b9050919050565b6000819050919050565b6200023983620001fc565b62000251620002488262000224565b84845462000192565b825550505050565b600090565b6200026862000259565b620002758184846200022e565b505050565b5b818110156200029d57620002916000826200025e565b6001810190506200027b565b5050565b601f821115620002ec57620002b68162000160565b620002c18462000175565b81016020851015620002d1578190505b620002e9620002e08562000175565b8301826200027a565b50505b505050565b600082821c905092915050565b60006200031160001984600802620002f1565b1980831691505092915050565b60006200032c8383620002fe565b9150826002028217905092915050565b6200034782620000c2565b67ffffffffffffffff811115620003635762000362620000cd565b5b6200036f82546200012b565b6200037c828285620002a1565b600060209050601f831160018114620003b457600084156200039f578287015190505b620003ab85826200031e565b8655506200041b565b601f198416620003c48662000160565b60005b82811015620003ee57848901518255600182019150602085019450602081019050620003c7565b868310156200040e57848901516200040a601f891682620002fe565b8355505b6001600288020188555050505b505050505050565b611bef80620004336000396000f3fe608060405234801561001057600080fd5b506004361061012c5760003560e01c806395d89b41116100ad578063c47f002711610071578063c47f002714610369578063cf31581514610385578063d9caa2d7146103b5578063dd62ed3e146103e5578063ec98ce3f146104155761012c565b806395d89b411461029f5780639c1b2f09146102bd5780639e59965e146102ed578063a0712d681461031d578063a9059cbb146103395761012c565b8063313ce567116100f4578063313ce567146101fd57806338195f281461021b57806342966c68146102375780634e8632711461025357806370a082311461026f5761012c565b806306fdde0314610131578063095ea7b31461014f5780630b7555561461017f57806318160ddd146101af57806323b872dd146101cd575b600080fd5b610139610445565b6040516101469190611455565b60405180910390f35b61016960048036038101906101649190611515565b6104d3565b6040516101769190611570565b60405180910390f35b6101996004803603810190610194919061158b565b6105c5565b6040516101a69190611455565b60405180910390f35b6101b7610665565b6040516101c491906115c7565b60405180910390f35b6101e760048036038101906101e291906115e2565b61066b565b6040516101f49190611570565b60405180910390f35b61020561081c565b6040516102129190611651565b60405180910390f35b610235600480360381019061023091906116d1565b61082f565b005b610251600480360381019061024c9190611752565b6108d3565b005b61026d6004803603810190610268919061177f565b6109aa565b005b6102896004803603810190610284919061158b565b6109fd565b60405161029691906115c7565b60405180910390f35b6102a7610a15565b6040516102b49190611455565b60405180910390f35b6102d760048036038101906102d2919061158b565b610aa3565b6040516102e49190611455565b60405180910390f35b6103076004803603810190610302919061158b565b610b43565b6040516103149190611455565b60405180910390f35b61033760048036038101906103329190611752565b610be3565b005b610353600480360381019061034e9190611515565b610ec3565b6040516103609190611570565b60405180910390f35b610383600480360381019061037e919061177f565b610fe0565b005b61039f600480360381019061039a919061158b565b611033565b6040516103ac9190611570565b60405180910390f35b6103cf60048036038101906103ca919061158b565b611053565b6040516103dc9190611570565b60405180910390f35b6103ff60048036038101906103fa91906117cc565b611073565b60405161040c91906115c7565b60405180910390f35b61042f600480360381019061042a919061158b565b611098565b60405161043c9190611570565b60405180910390f35b600380546104529061183b565b80601f016020809104026020016040519081016040528092919081815260200182805461047e9061183b565b80156104cb5780601f106104a0576101008083540402835291602001916104cb565b820191906000526020600020905b8154815290600101906020018083116104ae57829003601f168201915b505050505081565b600081600260003373ffffffffffffffffffffffffffffffffffffffff1673ffffffffffffffffffffffffffffffffffffffff16815260200190815260200160002060008573ffffffffffffffffffffffffffffffffffffffff1673ffffffffffffffffffffffffffffffffffffffff168152602001908152602001600020819055508273ffffffffffffffffffffffffffffffffffffffff163373ffffffffffffffffffffffffffffffffffffffff167f8c5be1e5ebec7d5bd14f71427d1e84f3dd0314c0f7b2291e5b200ac8c7c3b925846040516105b391906115c7565b60405180910390a36001905092915050565b600660205280600052604060002060009150905080546105e49061183b565b80601f01602080910402602001604051908101604052809291908181526020018280546106109061183b565b801561065d5780601f106106325761010080835404028352916020019161065d565b820191906000526020600020905b81548152906001019060200180831161064057829003601f168201915b505050505081565b60005481565b600081600260008673ffffffffffffffffffffffffffffffffffffffff1673ffffffffffffffffffffffffffffffffffffffff16815260200190815260200160002060003373ffffffffffffffffffffffffffffffffffffffff1673ffffffffffffffffffffffffffffffffffffffff16815260200190815260200160002060008282546106f9919061189b565b9250508190555081600160008673ffffffffffffffffffffffffffffffffffffffff1673ffffffffffffffffffffffffffffffffffffffff168152602001908152602001600020600082825461074f919061189b565b9250508190555081600160008573ffffffffffffffffffffffffffffffffffffffff1673ffffffffffffffffffffffffffffffffffffffff16815260200190815260200160002060008282546107a591906118cf565b925050819055508273ffffffffffffffffffffffffffffffffffffffff168473ffffffffffffffffffffffffffffffffffffffff167fddf252ad1be2c89b69c2b068fc378daa952ba7f163c4a11628f55a4df523b3ef8460405161080991906115c7565b60405180910390a3600190509392505050565b600560009054906101000a900460ff1681565b8383600760003373ffffffffffffffffffffffffffffffffffffffff1673ffffffffffffffffffffffffffffffffffffffff168152602001908152602001600020918261087d929190611ae9565b508181600860003373ffffffffffffffffffffffffffffffffffffffff1673ffffffffffffffffffffffffffffffffffffffff16815260200190815260200160002091826108cc929190611ae9565b5050505050565b80600160003373ffffffffffffffffffffffffffffffffffffffff1673ffffffffffffffffffffffffffffffffffffffff1681526020019081526020016000206000828254610922919061189b565b925050819055508060008082825461093a919061189b565b92505081905550600073ffffffffffffffffffffffffffffffffffffffff163373ffffffffffffffffffffffffffffffffffffffff167fddf252ad1be2c89b69c2b068fc378daa952ba7f163c4a11628f55a4df523b3ef8360405161099f91906115c7565b60405180910390a350565b8181600660003373ffffffffffffffffffffffffffffffffffffffff1673ffffffffffffffffffffffffffffffffffffffff16815260200190815260200160002091826109f8929190611ae9565b505050565b60016020528060005260406000206000915090505481565b60048054610a229061183b565b80601f0160208091040260200160405190810160405280929190818152602001828054610a4e9061183b565b8015610a9b5780601f10610a7057610100808354040283529160200191610a9b565b820191906000526020600020905b815481529060010190602001808311610a7e57829003601f168201915b505050505081565b60076020528060005260406000206000915090508054610ac29061183b565b80601f0160208091040260200160405190810160405280929190818152602001828054610aee9061183b565b8015610b3b5780601f10610b1057610100808354040283529160200191610b3b565b820191906000526020600020905b815481529060010190602001808311610b1e57829003601f168201915b505050505081565b60086020528060005260406000206000915090508054610b629061183b565b80601f0160208091040260200160405190810160405280929190818152602001828054610b8e9061183b565b8015610bdb5780601f10610bb057610100808354040283529160200191610bdb565b820191906000526020600020905b815481529060010190602001808311610bbe57829003601f168201915b505050505081565b80600160003373ffffffffffffffffffffffffffffffffffffffff1673ffffffffffffffffffffffffffffffffffffffff1681526020019081526020016000206000828254610c3291906118cf565b9250508190555080600080828254610c4a91906118cf565b925050819055503373ffffffffffffffffffffffffffffffffffffffff16600073ffffffffffffffffffffffffffffffffffffffff167fddf252ad1be2c89b69c2b068fc378daa952ba7f163c4a11628f55a4df523b3ef83604051610caf91906115c7565b60405180910390a3612710600160003373ffffffffffffffffffffffffffffffffffffffff1673ffffffffffffffffffffffffffffffffffffffff1681526020019081526020016000205410610ec05760001515600960003373ffffffffffffffffffffffffffffffffffffffff1673ffffffffffffffffffffffffffffffffffffffff16815260200190815260200160002060009054906101000a900460ff16151503610d6457610d5f6110b8565b610ebf565b61c350600160003373ffffffffffffffffffffffffffffffffffffffff1673ffffffffffffffffffffffffffffffffffffffff1681526020019081526020016000205410610ebe5760001515600a60003373ffffffffffffffffffffffffffffffffffffffff1673ffffffffffffffffffffffffffffffffffffffff16815260200190815260200160002060009054906101000a900460ff16151503610e1157610e0c6111bc565b610ebd565b620186a0600160003373ffffffffffffffffffffffffffffffffffffffff1673ffffffffffffffffffffffffffffffffffffffff1681526020019081526020016000205410610ebc5760001515600b60003373ffffffffffffffffffffffffffffffffffffffff1673ffffffffffffffffffffffffffffffffffffffff16815260200190815260200160002060009054906101000a900460ff16151503610ebb57610eba6112c0565b5b5b5b5b5b5b50565b600081600160003373ffffffffffffffffffffffffffffffffffffffff1673ffffffffffffffffffffffffffffffffffffffff1681526020019081526020016000206000828254610f14919061189b565b9250508190555081600160008573ffffffffffffffffffffffffffffffffffffffff1673ffffffffffffffffffffffffffffffffffffffff1681526020019081526020016000206000828254610f6a91906118cf565b925050819055508273ffffffffffffffffffffffffffffffffffffffff163373ffffffffffffffffffffffffffffffffffffffff167fddf252ad1be2c89b69c2b068fc378daa952ba7f163c4a11628f55a4df523b3ef84604051610fce91906115c7565b60405180910390a36001905092915050565b8181600660003373ffffffffffffffffffffffffffffffffffffffff1673ffffffffffffffffffffffffffffffffffffffff168152602001908152602001600020918261102e929190611ae9565b505050565b60096020528060005260406000206000915054906101000a900460ff1681565b600a6020528060005260406000206000915054906101000a900460ff1681565b6002602052816000526040600020602052806000526040600020600091509150505481565b600b6020528060005260406000206000915054906101000a900460ff1681565b612710600160003373ffffffffffffffffffffffffffffffffffffffff1673ffffffffffffffffffffffffffffffffffffffff168152602001908152602001600020541161110557600080fd5b60001515600960003373ffffffffffffffffffffffffffffffffffffffff1673ffffffffffffffffffffffffffffffffffffffff16815260200190815260200160002060009054906101000a900460ff1615151461116257600080fd5b6001600960003373ffffffffffffffffffffffffffffffffffffffff1673ffffffffffffffffffffffffffffffffffffffff16815260200190815260200160002060006101000a81548160ff021916908315150217905550565b61c350600160003373ffffffffffffffffffffffffffffffffffffffff1673ffffffffffffffffffffffffffffffffffffffff168152602001908152602001600020541161120957600080fd5b60001515600a60003373ffffffffffffffffffffffffffffffffffffffff1673ffffffffffffffffffffffffffffffffffffffff16815260200190815260200160002060009054906101000a900460ff1615151461126657600080fd5b6001600a60003373ffffffffffffffffffffffffffffffffffffffff1673ffffffffffffffffffffffffffffffffffffffff16815260200190815260200160002060006101000a81548160ff021916908315150217905550565b620186a0600160003373ffffffffffffffffffffffffffffffffffffffff1673ffffffffffffffffffffffffffffffffffffffff168152602001908152602001600020541161130e57600080fd5b60001515600b60003373ffffffffffffffffffffffffffffffffffffffff1673ffffffffffffffffffffffffffffffffffffffff16815260200190815260200160002060009054906101000a900460ff1615151461136b57600080fd5b6001600b60003373ffffffffffffffffffffffffffffffffffffffff1673ffffffffffffffffffffffffffffffffffffffff16815260200190815260200160002060006101000a81548160ff021916908315150217905550565b600081519050919050565b600082825260208201905092915050565b60005b838110156113ff5780820151818401526020810190506113e4565b60008484015250505050565b6000601f19601f8301169050919050565b6000611427826113c5565b61143181856113d0565b93506114418185602086016113e1565b61144a8161140b565b840191505092915050565b6000602082019050818103600083015261146f818461141c565b905092915050565b600080fd5b600080fd5b600073ffffffffffffffffffffffffffffffffffffffff82169050919050565b60006114ac82611481565b9050919050565b6114bc816114a1565b81146114c757600080fd5b50565b6000813590506114d9816114b3565b92915050565b6000819050919050565b6114f2816114df565b81146114fd57600080fd5b50565b60008135905061150f816114e9565b92915050565b6000806040838503121561152c5761152b611477565b5b600061153a858286016114ca565b925050602061154b85828601611500565b9150509250929050565b60008115159050919050565b61156a81611555565b82525050565b60006020820190506115856000830184611561565b92915050565b6000602082840312156115a1576115a0611477565b5b60006115af848285016114ca565b91505092915050565b6115c1816114df565b82525050565b60006020820190506115dc60008301846115b8565b92915050565b6000806000606084860312156115fb576115fa611477565b5b6000611609868287016114ca565b935050602061161a868287016114ca565b925050604061162b86828701611500565b9150509250925092565b600060ff82169050919050565b61164b81611635565b82525050565b60006020820190506116666000830184611642565b92915050565b600080fd5b600080fd5b600080fd5b60008083601f8401126116915761169061166c565b5b8235905067ffffffffffffffff8111156116ae576116ad611671565b5b6020830191508360018202830111156116ca576116c9611676565b5b9250929050565b600080600080604085870312156116eb576116ea611477565b5b600085013567ffffffffffffffff8111156117095761170861147c565b5b6117158782880161167b565b9450945050602085013567ffffffffffffffff8111156117385761173761147c565b5b6117448782880161167b565b925092505092959194509250565b60006020828403121561176857611767611477565b5b600061177684828501611500565b91505092915050565b6000806020838503121561179657611795611477565b5b600083013567ffffffffffffffff8111156117b4576117b361147c565b5b6117c08582860161167b565b92509250509250929050565b600080604083850312156117e3576117e2611477565b5b60006117f1858286016114ca565b9250506020611802858286016114ca565b9150509250929050565b7f4e487b7100000000000000000000000000000000000000000000000000000000600052602260045260246000fd5b6000600282049050600182168061185357607f821691505b6020821081036118665761186561180c565b5b50919050565b7f4e487b7100000000000000000000000000000000000000000000000000000000600052601160045260246000fd5b60006118a6826114df565b91506118b1836114df565b92508282039050818111156118c9576118c861186c565b5b92915050565b60006118da826114df565b91506118e5836114df565b92508282019050808211156118fd576118fc61186c565b5b92915050565b600082905092915050565b7f4e487b7100000000000000000000000000000000000000000000000000000000600052604160045260246000fd5b60008190508160005260206000209050919050565b60006020601f8301049050919050565b600082821b905092915050565b60006008830261199f7fffffffffffffffffffffffffffffffffffffffffffffffffffffffffffffffff82611962565b6119a98683611962565b95508019841693508086168417925050509392505050565b6000819050919050565b60006119e66119e16119dc846114df565b6119c1565b6114df565b9050919050565b6000819050919050565b611a00836119cb565b611a14611a0c826119ed565b84845461196f565b825550505050565b600090565b611a29611a1c565b611a348184846119f7565b505050565b5b81811015611a5857611a4d600082611a21565b600181019050611a3a565b5050565b601f821115611a9d57611a6e8161193d565b611a7784611952565b81016020851015611a86578190505b611a9a611a9285611952565b830182611a39565b50505b505050565b600082821c905092915050565b6000611ac060001984600802611aa2565b1980831691505092915050565b6000611ad98383611aaf565b9150826002028217905092915050565b611af38383611903565b67ffffffffffffffff811115611b0c57611b0b61190e565b5b611b16825461183b565b611b21828285611a5c565b6000601f831160018114611b505760008415611b3e578287013590505b611b488582611acd565b865550611bb0565b601f198416611b5e8661193d565b60005b82811015611b8657848901358255600182019150602085019450602081019050611b61565b86831015611ba35784890135611b9f601f891682611aaf565b8355505b6001600288020188555050505b5050505050505056fea2646970667358221220dfa42f65b0cf92b196b6c20554ffab021d99b3f0363a2fa60103c15262c0b69164736f6c63430008110033","opcodes":"PUSH1 0x80 PUSH1 0x40 MSTORE PUSH1 0x40 MLOAD DUP1 PUSH1 0x40 ADD PUSH1 0x40 MSTORE DUP1 PUSH1 0x8 DUP2 MSTORE PUSH1 0x20 ADD PUSH32 0x574D4257616C6B73000000000000000000000000000000000000000000000000 DUP2 MSTORE POP PUSH1 0x3 SWAP1 DUP2 PUSH3 0x4A SWAP2 SWAP1 PUSH3 0x33C JUMP JUMPDEST POP PUSH1 0x40 MLOAD DUP1 PUSH1 0x40 ADD PUSH1 0x40 MSTORE DUP1 PUSH1 0x3 DUP2 MSTORE PUSH1 0x20 ADD PUSH32 0x574D420000000000000000000000000000000000000000000000000000000000 DUP2 MSTORE POP PUSH1 0x4 SWAP1 DUP2 PUSH3 0x91 SWAP2 SWAP1 PUSH3 0x33C JUMP JUMPDEST POP PUSH1 0x2 PUSH1 0x5 PUSH1 0x0 PUSH2 0x100 EXP DUP2 SLOAD DUP2 PUSH1 0xFF MUL NOT AND SWAP1 DUP4 PUSH1 0xFF AND MUL OR SWAP1 SSTORE POP CALLVALUE DUP1 ISZERO PUSH3 0xBB JUMPI PUSH1 0x0 DUP1 REVERT JUMPDEST POP PUSH3 0x423 JUMP JUMPDEST PUSH1 0x0 DUP2 MLOAD SWAP1 POP SWAP2 SWAP1 POP JUMP JUMPDEST PUSH32 0x4E487B7100000000000000000000000000000000000000000000000000000000 PUSH1 0x0 MSTORE PUSH1 0x41 PUSH1 0x4 MSTORE PUSH1 0x24 PUSH1 0x0 REVERT JUMPDEST PUSH32 0x4E487B7100000000000000000000000000000000000000000000000000000000 PUSH1 0x0 MSTORE PUSH1 0x22 PUSH1 0x4 MSTORE PUSH1 0x24 PUSH1 0x0 REVERT JUMPDEST PUSH1 0x0 PUSH1 0x2 DUP3 DIV SWAP1 POP PUSH1 0x1 DUP3 AND DUP1 PUSH3 0x144 JUMPI PUSH1 0x7F DUP3 AND SWAP2 POP JUMPDEST PUSH1 0x20 DUP3 LT DUP2 SUB PUSH3 0x15A JUMPI PUSH3 0x159 PUSH3 0xFC JUMP JUMPDEST JUMPDEST POP SWAP2 SWAP1 POP JUMP JUMPDEST PUSH1 0x0 DUP2 SWAP1 POP DUP2 PUSH1 0x0 MSTORE PUSH1 0x20 PUSH1 0x0 KECCAK256 SWAP1 POP SWAP2 SWAP1 POP JUMP JUMPDEST PUSH1 0x0 PUSH1 0x20 PUSH1 0x1F DUP4 ADD DIV SWAP1 POP SWAP2 SWAP1 POP JUMP JUMPDEST PUSH1 0x0 DUP3 DUP3 SHL SWAP1 POP SWAP3 SWAP2 POP POP JUMP JUMPDEST PUSH1 0x0 PUSH1 0x8 DUP4 MUL PUSH3 0x1C4 PUSH32 0xFFFFFFFFFFFFFFFFFFFFFFFFFFFFFFFFFFFFFFFFFFFFFFFFFFFFFFFFFFFFFFFF DUP3 PUSH3 0x185 JUMP JUMPDEST PUSH3 0x1D0 DUP7 DUP4 PUSH3 0x185 JUMP JUMPDEST SWAP6 POP DUP1 NOT DUP5 AND SWAP4 POP DUP1 DUP7 AND DUP5 OR SWAP3 POP POP POP SWAP4 SWAP3 POP POP POP JUMP JUMPDEST PUSH1 0x0 DUP2 SWAP1 POP SWAP2 SWAP1 POP JUMP JUMPDEST PUSH1 0x0 DUP2 SWAP1 POP SWAP2 SWAP1 POP JUMP JUMPDEST PUSH1 0x0 PUSH3 0x21D PUSH3 0x217 PUSH3 0x211 DUP5 PUSH3 0x1E8 JUMP JUMPDEST PUSH3 0x1F2 JUMP JUMPDEST PUSH3 0x1E8 JUMP JUMPDEST SWAP1 POP SWAP2 SWAP1 POP JUMP JUMPDEST PUSH1 0x0 DUP2 SWAP1 POP SWAP2 SWAP1 POP JUMP JUMPDEST PUSH3 0x239 DUP4 PUSH3 0x1FC JUMP JUMPDEST PUSH3 0x251 PUSH3 0x248 DUP3 PUSH3 0x224 JUMP JUMPDEST DUP5 DUP5 SLOAD PUSH3 0x192 JUMP JUMPDEST DUP3 SSTORE POP POP POP POP JUMP JUMPDEST PUSH1 0x0 SWAP1 JUMP JUMPDEST PUSH3 0x268 PUSH3 0x259 JUMP JUMPDEST PUSH3 0x275 DUP2 DUP5 DUP5 PUSH3 0x22E JUMP JUMPDEST POP POP POP JUMP JUMPDEST JUMPDEST DUP2 DUP2 LT ISZERO PUSH3 0x29D JUMPI PUSH3 0x291 PUSH1 0x0 DUP3 PUSH3 0x25E JUMP JUMPDEST PUSH1 0x1 DUP2 ADD SWAP1 POP PUSH3 0x27B JUMP JUMPDEST POP POP JUMP JUMPDEST PUSH1 0x1F DUP3 GT ISZERO PUSH3 0x2EC JUMPI PUSH3 0x2B6 DUP2 PUSH3 0x160 JUMP JUMPDEST PUSH3 0x2C1 DUP5 PUSH3 0x175 JUMP JUMPDEST DUP2 ADD PUSH1 0x20 DUP6 LT ISZERO PUSH3 0x2D1 JUMPI DUP2 SWAP1 POP JUMPDEST PUSH3 0x2E9 PUSH3 0x2E0 DUP6 PUSH3 0x175 JUMP JUMPDEST DUP4 ADD DUP3 PUSH3 0x27A JUMP JUMPDEST POP POP JUMPDEST POP POP POP JUMP JUMPDEST PUSH1 0x0 DUP3 DUP3 SHR SWAP1 POP SWAP3 SWAP2 POP POP JUMP JUMPDEST PUSH1 0x0 PUSH3 0x311 PUSH1 0x0 NOT DUP5 PUSH1 0x8 MUL PUSH3 0x2F1 JUMP JUMPDEST NOT DUP1 DUP4 AND SWAP2 POP POP SWAP3 SWAP2 POP POP JUMP JUMPDEST PUSH1 0x0 PUSH3 0x32C DUP4 DUP4 PUSH3 0x2FE JUMP JUMPDEST SWAP2 POP DUP3 PUSH1 0x2 MUL DUP3 OR SWAP1 POP SWAP3 SWAP2 POP POP JUMP JUMPDEST PUSH3 0x347 DUP3 PUSH3 0xC2 JUMP JUMPDEST PUSH8 0xFFFFFFFFFFFFFFFF DUP2 GT ISZERO PUSH3 0x363 JUMPI PUSH3 0x362 PUSH3 0xCD JUMP JUMPDEST JUMPDEST PUSH3 0x36F DUP3 SLOAD PUSH3 0x12B JUMP JUMPDEST PUSH3 0x37C DUP3 DUP3 DUP6 PUSH3 0x2A1 JUMP JUMPDEST PUSH1 0x0 PUSH1 0x20 SWAP1 POP PUSH1 0x1F DUP4 GT PUSH1 0x1 DUP2 EQ PUSH3 0x3B4 JUMPI PUSH1 0x0 DUP5 ISZERO PUSH3 0x39F JUMPI DUP3 DUP8 ADD MLOAD SWAP1 POP JUMPDEST PUSH3 0x3AB DUP6 DUP3 PUSH3 0x31E JUMP JUMPDEST DUP7 SSTORE POP PUSH3 0x41B JUMP JUMPDEST PUSH1 0x1F NOT DUP5 AND PUSH3 0x3C4 DUP7 PUSH3 0x160 JUMP JUMPDEST PUSH1 0x0 JUMPDEST DUP3 DUP2 LT ISZERO PUSH3 0x3EE JUMPI DUP5 DUP10 ADD MLOAD DUP3 SSTORE PUSH1 0x1 DUP3 ADD SWAP2 POP PUSH1 0x20 DUP6 ADD SWAP5 POP PUSH1 0x20 DUP2 ADD SWAP1 POP PUSH3 0x3C7 JUMP JUMPDEST DUP7 DUP4 LT ISZERO PUSH3 0x40E JUMPI DUP5 DUP10 ADD MLOAD PUSH3 0x40A PUSH1 0x1F DUP10 AND DUP3 PUSH3 0x2FE JUMP JUMPDEST DUP4 SSTORE POP JUMPDEST PUSH1 0x1 PUSH1 0x2 DUP9 MUL ADD DUP9 SSTORE POP POP POP JUMPDEST POP POP POP POP POP POP JUMP JUMPDEST PUSH2 0x1BEF DUP1 PUSH3 0x433 PUSH1 0x0 CODECOPY PUSH1 0x0 RETURN INVALID PUSH1 0x80 PUSH1 0x40 MSTORE CALLVALUE DUP1 ISZERO PUSH2 0x10 JUMPI PUSH1 0x0 DUP1 REVERT JUMPDEST POP PUSH1 0x4 CALLDATASIZE LT PUSH2 0x12C JUMPI PUSH1 0x0 CALLDATALOAD PUSH1 0xE0 SHR DUP1 PUSH4 0x95D89B41 GT PUSH2 0xAD JUMPI DUP1 PUSH4 0xC47F0027 GT PUSH2 0x71 JUMPI DUP1 PUSH4 0xC47F0027 EQ PUSH2 0x369 JUMPI DUP1 PUSH4 0xCF315815 EQ PUSH2 0x385 JUMPI DUP1 PUSH4 0xD9CAA2D7 EQ PUSH2 0x3B5 JUMPI DUP1 PUSH4 0xDD62ED3E EQ PUSH2 0x3E5 JUMPI DUP1 PUSH4 0xEC98CE3F EQ PUSH2 0x415 JUMPI PUSH2 0x12C JUMP JUMPDEST DUP1 PUSH4 0x95D89B41 EQ PUSH2 0x29F JUMPI DUP1 PUSH4 0x9C1B2F09 EQ PUSH2 0x2BD JUMPI DUP1 PUSH4 0x9E59965E EQ PUSH2 0x2ED JUMPI DUP1 PUSH4 0xA0712D68 EQ PUSH2 0x31D JUMPI DUP1 PUSH4 0xA9059CBB EQ PUSH2 0x339 JUMPI PUSH2 0x12C JUMP JUMPDEST DUP1 PUSH4 0x313CE567 GT PUSH2 0xF4 JUMPI DUP1 PUSH4 0x313CE567 EQ PUSH2 0x1FD JUMPI DUP1 PUSH4 0x38195F28 EQ PUSH2 0x21B JUMPI DUP1 PUSH4 0x42966C68 EQ PUSH2 0x237 JUMPI DUP1 PUSH4 0x4E863271 EQ PUSH2 0x253 JUMPI DUP1 PUSH4 0x70A08231 EQ PUSH2 0x26F JUMPI PUSH2 0x12C JUMP JUMPDEST DUP1 PUSH4 0x6FDDE03 EQ PUSH2 0x131 JUMPI DUP1 PUSH4 0x95EA7B3 EQ PUSH2 0x14F JUMPI DUP1 PUSH4 0xB755556 EQ PUSH2 0x17F JUMPI DUP1 PUSH4 0x18160DDD EQ PUSH2 0x1AF JUMPI DUP1 PUSH4 0x23B872DD EQ PUSH2 0x1CD JUMPI JUMPDEST PUSH1 0x0 DUP1 REVERT JUMPDEST PUSH2 0x139 PUSH2 0x445 JUMP JUMPDEST PUSH1 0x40 MLOAD PUSH2 0x146 SWAP2 SWAP1 PUSH2 0x1455 JUMP JUMPDEST PUSH1 0x40 MLOAD DUP1 SWAP2 SUB SWAP1 RETURN JUMPDEST PUSH2 0x169 PUSH1 0x4 DUP1 CALLDATASIZE SUB DUP2 ADD SWAP1 PUSH2 0x164 SWAP2 SWAP1 PUSH2 0x1515 JUMP JUMPDEST PUSH2 0x4D3 JUMP JUMPDEST PUSH1 0x40 MLOAD PUSH2 0x176 SWAP2 SWAP1 PUSH2 0x1570 JUMP JUMPDEST PUSH1 0x40 MLOAD DUP1 SWAP2 SUB SWAP1 RETURN JUMPDEST PUSH2 0x199 PUSH1 0x4 DUP1 CALLDATASIZE SUB DUP2 ADD SWAP1 PUSH2 0x194 SWAP2 SWAP1 PUSH2 0x158B JUMP JUMPDEST PUSH2 0x5C5 JUMP JUMPDEST PUSH1 0x40 MLOAD PUSH2 0x1A6 SWAP2 SWAP1 PUSH2 0x1455 JUMP JUMPDEST PUSH1 0x40 MLOAD DUP1 SWAP2 SUB SWAP1 RETURN JUMPDEST PUSH2 0x1B7 PUSH2 0x665 JUMP JUMPDEST PUSH1 0x40 MLOAD PUSH2 0x1C4 SWAP2 SWAP1 PUSH2 0x15C7 JUMP JUMPDEST PUSH1 0x40 MLOAD DUP1 SWAP2 SUB SWAP1 RETURN JUMPDEST PUSH2 0x1E7 PUSH1 0x4 DUP1 CALLDATASIZE SUB DUP2 ADD SWAP1 PUSH2 0x1E2 SWAP2 SWAP1 PUSH2 0x15E2 JUMP JUMPDEST PUSH2 0x66B JUMP JUMPDEST PUSH1 0x40 MLOAD PUSH2 0x1F4 SWAP2 SWAP1 PUSH2 0x1570 JUMP JUMPDEST PUSH1 0x40 MLOAD DUP1 SWAP2 SUB SWAP1 RETURN JUMPDEST PUSH2 0x205 PUSH2 0x81C JUMP JUMPDEST PUSH1 0x40 MLOAD PUSH2 0x212 SWAP2 SWAP1 PUSH2 0x1651 JUMP JUMPDEST PUSH1 0x40 MLOAD DUP1 SWAP2 SUB SWAP1 RETURN JUMPDEST PUSH2 0x235 PUSH1 0x4 DUP1 CALLDATASIZE SUB DUP2 ADD SWAP1 PUSH2 0x230 SWAP2 SWAP1 PUSH2 0x16D1 JUMP JUMPDEST PUSH2 0x82F JUMP JUMPDEST STOP JUMPDEST PUSH2 0x251 PUSH1 0x4 DUP1 CALLDATASIZE SUB DUP2 ADD SWAP1 PUSH2 0x24C SWAP2 SWAP1 PUSH2 0x1752 JUMP JUMPDEST PUSH2 0x8D3 JUMP JUMPDEST STOP JUMPDEST PUSH2 0x26D PUSH1 0x4 DUP1 CALLDATASIZE SUB DUP2 ADD SWAP1 PUSH2 0x268 SWAP2 SWAP1 PUSH2 0x177F JUMP JUMPDEST PUSH2 0x9AA JUMP JUMPDEST STOP JUMPDEST PUSH2 0x289 PUSH1 0x4 DUP1 CALLDATASIZE SUB DUP2 ADD SWAP1 PUSH2 0x284 SWAP2 SWAP1 PUSH2 0x158B JUMP JUMPDEST PUSH2 0x9FD JUMP JUMPDEST PUSH1 0x40 MLOAD PUSH2 0x296 SWAP2 SWAP1 PUSH2 0x15C7 JUMP JUMPDEST PUSH1 0x40 MLOAD DUP1 SWAP2 SUB SWAP1 RETURN JUMPDEST PUSH2 0x2A7 PUSH2 0xA15 JUMP JUMPDEST PUSH1 0x40 MLOAD PUSH2 0x2B4 SWAP2 SWAP1 PUSH2 0x1455 JUMP JUMPDEST PUSH1 0x40 MLOAD DUP1 SWAP2 SUB SWAP1 RETURN JUMPDEST PUSH2 0x2D7 PUSH1 0x4 DUP1 CALLDATASIZE SUB DUP2 ADD SWAP1 PUSH2 0x2D2 SWAP2 SWAP1 PUSH2 0x158B JUMP JUMPDEST PUSH2 0xAA3 JUMP JUMPDEST PUSH1 0x40 MLOAD PUSH2 0x2E4 SWAP2 SWAP1 PUSH2 0x1455 JUMP JUMPDEST PUSH1 0x40 MLOAD DUP1 SWAP2 SUB SWAP1 RETURN JUMPDEST PUSH2 0x307 PUSH1 0x4 DUP1 CALLDATASIZE SUB DUP2 ADD SWAP1 PUSH2 0x302 SWAP2 SWAP1 PUSH2 0x158B JUMP JUMPDEST PUSH2 0xB43 JUMP JUMPDEST PUSH1 0x40 MLOAD PUSH2 0x314 SWAP2 SWAP1 PUSH2 0x1455 JUMP JUMPDEST PUSH1 0x40 MLOAD DUP1 SWAP2 SUB SWAP1 RETURN JUMPDEST PUSH2 0x337 PUSH1 0x4 DUP1 CALLDATASIZE SUB DUP2 ADD SWAP1 PUSH2 0x332 SWAP2 SWAP1 PUSH2 0x1752 JUMP JUMPDEST PUSH2 0xBE3 JUMP JUMPDEST STOP JUMPDEST PUSH2 0x353 PUSH1 0x4 DUP1 CALLDATASIZE SUB DUP2 ADD SWAP1 PUSH2 0x34E SWAP2 SWAP1 PUSH2 0x1515 JUMP JUMPDEST PUSH2 0xEC3 JUMP JUMPDEST PUSH1 0x40 MLOAD PUSH2 0x360 SWAP2 SWAP1 PUSH2 0x1570 JUMP JUMPDEST PUSH1 0x40 MLOAD DUP1 SWAP2 SUB SWAP1 RETURN JUMPDEST PUSH2 0x383 PUSH1 0x4 DUP1 CALLDATASIZE SUB DUP2 ADD SWAP1 PUSH2 0x37E SWAP2 SWAP1 PUSH2 0x177F JUMP JUMPDEST PUSH2 0xFE0 JUMP JUMPDEST STOP JUMPDEST PUSH2 0x39F PUSH1 0x4 DUP1 CALLDATASIZE SUB DUP2 ADD SWAP1 PUSH2 0x39A SWAP2 SWAP1 PUSH2 0x158B JUMP JUMPDEST PUSH2 0x1033 JUMP JUMPDEST PUSH1 0x40 MLOAD PUSH2 0x3AC SWAP2 SWAP1 PUSH2 0x1570 JUMP JUMPDEST PUSH1 0x40 MLOAD DUP1 SWAP2 SUB SWAP1 RETURN JUMPDEST PUSH2 0x3CF PUSH1 0x4 DUP1 CALLDATASIZE SUB DUP2 ADD SWAP1 PUSH2 0x3CA SWAP2 SWAP1 PUSH2 0x158B JUMP JUMPDEST PUSH2 0x1053 JUMP JUMPDEST PUSH1 0x40 MLOAD PUSH2 0x3DC SWAP2 SWAP1 PUSH2 0x1570 JUMP JUMPDEST PUSH1 0x40 MLOAD DUP1 SWAP2 SUB SWAP1 RETURN JUMPDEST PUSH2 0x3FF PUSH1 0x4 DUP1 CALLDATASIZE SUB DUP2 ADD SWAP1 PUSH2 0x3FA SWAP2 SWAP1 PUSH2 0x17CC JUMP JUMPDEST PUSH2 0x1073 JUMP JUMPDEST PUSH1 0x40 MLOAD PUSH2 0x40C SWAP2 SWAP1 PUSH2 0x15C7 JUMP JUMPDEST PUSH1 0x40 MLOAD DUP1 SWAP2 SUB SWAP1 RETURN JUMPDEST PUSH2 0x42F PUSH1 0x4 DUP1 CALLDATASIZE SUB DUP2 ADD SWAP1 PUSH2 0x42A SWAP2 SWAP1 PUSH2 0x158B JUMP JUMPDEST PUSH2 0x1098 JUMP JUMPDEST PUSH1 0x40 MLOAD PUSH2 0x43C SWAP2 SWAP1 PUSH2 0x1570 JUMP JUMPDEST PUSH1 0x40 MLOAD DUP1 SWAP2 SUB SWAP1 RETURN JUMPDEST PUSH1 0x3 DUP1 SLOAD PUSH2 0x452 SWAP1 PUSH2 0x183B JUMP JUMPDEST DUP1 PUSH1 0x1F ADD PUSH1 0x20 DUP1 SWAP2 DIV MUL PUSH1 0x20 ADD PUSH1 0x40 MLOAD SWAP1 DUP2 ADD PUSH1 0x40 MSTORE DUP1 SWAP3 SWAP2 SWAP1 DUP2 DUP2 MSTORE PUSH1 0x20 ADD DUP3 DUP1 SLOAD PUSH2 0x47E SWAP1 PUSH2 0x183B JUMP JUMPDEST DUP1 ISZERO PUSH2 0x4CB JUMPI DUP1 PUSH1 0x1F LT PUSH2 0x4A0 JUMPI PUSH2 0x100 DUP1 DUP4 SLOAD DIV MUL DUP4 MSTORE SWAP2 PUSH1 0x20 ADD SWAP2 PUSH2 0x4CB JUMP JUMPDEST DUP3 ADD SWAP2 SWAP1 PUSH1 0x0 MSTORE PUSH1 0x20 PUSH1 0x0 KECCAK256 SWAP1 JUMPDEST DUP2 SLOAD DUP2 MSTORE SWAP1 PUSH1 0x1 ADD SWAP1 PUSH1 0x20 ADD DUP1 DUP4 GT PUSH2 0x4AE JUMPI DUP3 SWAP1 SUB PUSH1 0x1F AND DUP3 ADD SWAP2 JUMPDEST POP POP POP POP POP DUP2 JUMP JUMPDEST PUSH1 0x0 DUP2 PUSH1 0x2 PUSH1 0x0 CALLER PUSH20 0xFFFFFFFFFFFFFFFFFFFFFFFFFFFFFFFFFFFFFFFF AND PUSH20 0xFFFFFFFFFFFFFFFFFFFFFFFFFFFFFFFFFFFFFFFF AND DUP2 MSTORE PUSH1 0x20 ADD SWAP1 DUP2 MSTORE PUSH1 0x20 ADD PUSH1 0x0 KECCAK256 PUSH1 0x0 DUP6 PUSH20 0xFFFFFFFFFFFFFFFFFFFFFFFFFFFFFFFFFFFFFFFF AND PUSH20 0xFFFFFFFFFFFFFFFFFFFFFFFFFFFFFFFFFFFFFFFF AND DUP2 MSTORE PUSH1 0x20 ADD SWAP1 DUP2 MSTORE PUSH1 0x20 ADD PUSH1 0x0 KECCAK256 DUP2 SWAP1 SSTORE POP DUP3 PUSH20 0xFFFFFFFFFFFFFFFFFFFFFFFFFFFFFFFFFFFFFFFF AND CALLER PUSH20 0xFFFFFFFFFFFFFFFFFFFFFFFFFFFFFFFFFFFFFFFF AND PUSH32 0x8C5BE1E5EBEC7D5BD14F71427D1E84F3DD0314C0F7B2291E5B200AC8C7C3B925 DUP5 PUSH1 0x40 MLOAD PUSH2 0x5B3 SWAP2 SWAP1 PUSH2 0x15C7 JUMP JUMPDEST PUSH1 0x40 MLOAD DUP1 SWAP2 SUB SWAP1 LOG3 PUSH1 0x1 SWAP1 POP SWAP3 SWAP2 POP POP JUMP JUMPDEST PUSH1 0x6 PUSH1 0x20 MSTORE DUP1 PUSH1 0x0 MSTORE PUSH1 0x40 PUSH1 0x0 KECCAK256 PUSH1 0x0 SWAP2 POP SWAP1 POP DUP1 SLOAD PUSH2 0x5E4 SWAP1 PUSH2 0x183B JUMP JUMPDEST DUP1 PUSH1 0x1F ADD PUSH1 0x20 DUP1 SWAP2 DIV MUL PUSH1 0x20 ADD PUSH1 0x40 MLOAD SWAP1 DUP2 ADD PUSH1 0x40 MSTORE DUP1 SWAP3 SWAP2 SWAP1 DUP2 DUP2 MSTORE PUSH1 0x20 ADD DUP3 DUP1 SLOAD PUSH2 0x610 SWAP1 PUSH2 0x183B JUMP JUMPDEST DUP1 ISZERO PUSH2 0x65D JUMPI DUP1 PUSH1 0x1F LT PUSH2 0x632 JUMPI PUSH2 0x100 DUP1 DUP4 SLOAD DIV MUL DUP4 MSTORE SWAP2 PUSH1 0x20 ADD SWAP2 PUSH2 0x65D JUMP JUMPDEST DUP3 ADD SWAP2 SWAP1 PUSH1 0x0 MSTORE PUSH1 0x20 PUSH1 0x0 KECCAK256 SWAP1 JUMPDEST DUP2 SLOAD DUP2 MSTORE SWAP1 PUSH1 0x1 ADD SWAP1 PUSH1 0x20 ADD DUP1 DUP4 GT PUSH2 0x640 JUMPI DUP3 SWAP1 SUB PUSH1 0x1F AND DUP3 ADD SWAP2 JUMPDEST POP POP POP POP POP DUP2 JUMP JUMPDEST PUSH1 0x0 SLOAD DUP2 JUMP JUMPDEST PUSH1 0x0 DUP2 PUSH1 0x2 PUSH1 0x0 DUP7 PUSH20 0xFFFFFFFFFFFFFFFFFFFFFFFFFFFFFFFFFFFFFFFF AND PUSH20 0xFFFFFFFFFFFFFFFFFFFFFFFFFFFFFFFFFFFFFFFF AND DUP2 MSTORE PUSH1 0x20 ADD SWAP1 DUP2 MSTORE PUSH1 0x20 ADD PUSH1 0x0 KECCAK256 PUSH1 0x0 CALLER PUSH20 0xFFFFFFFFFFFFFFFFFFFFFFFFFFFFFFFFFFFFFFFF AND PUSH20 0xFFFFFFFFFFFFFFFFFFFFFFFFFFFFFFFFFFFFFFFF AND DUP2 MSTORE PUSH1 0x20 ADD SWAP1 DUP2 MSTORE PUSH1 0x20 ADD PUSH1 0x0 KECCAK256 PUSH1 0x0 DUP3 DUP3 SLOAD PUSH2 0x6F9 SWAP2 SWAP1 PUSH2 0x189B JUMP JUMPDEST SWAP3 POP POP DUP2 SWAP1 SSTORE POP DUP2 PUSH1 0x1 PUSH1 0x0 DUP7 PUSH20 0xFFFFFFFFFFFFFFFFFFFFFFFFFFFFFFFFFFFFFFFF AND PUSH20 0xFFFFFFFFFFFFFFFFFFFFFFFFFFFFFFFFFFFFFFFF AND DUP2 MSTORE PUSH1 0x20 ADD SWAP1 DUP2 MSTORE PUSH1 0x20 ADD PUSH1 0x0 KECCAK256 PUSH1 0x0 DUP3 DUP3 SLOAD PUSH2 0x74F SWAP2 SWAP1 PUSH2 0x189B JUMP JUMPDEST SWAP3 POP POP DUP2 SWAP1 SSTORE POP DUP2 PUSH1 0x1 PUSH1 0x0 DUP6 PUSH20 0xFFFFFFFFFFFFFFFFFFFFFFFFFFFFFFFFFFFFFFFF AND PUSH20 0xFFFFFFFFFFFFFFFFFFFFFFFFFFFFFFFFFFFFFFFF AND DUP2 MSTORE PUSH1 0x20 ADD SWAP1 DUP2 MSTORE PUSH1 0x20 ADD PUSH1 0x0 KECCAK256 PUSH1 0x0 DUP3 DUP3 SLOAD PUSH2 0x7A5 SWAP2 SWAP1 PUSH2 0x18CF JUMP JUMPDEST SWAP3 POP POP DUP2 SWAP1 SSTORE POP DUP3 PUSH20 0xFFFFFFFFFFFFFFFFFFFFFFFFFFFFFFFFFFFFFFFF AND DUP5 PUSH20 0xFFFFFFFFFFFFFFFFFFFFFFFFFFFFFFFFFFFFFFFF AND PUSH32 0xDDF252AD1BE2C89B69C2B068FC378DAA952BA7F163C4A11628F55A4DF523B3EF DUP5 PUSH1 0x40 MLOAD PUSH2 0x809 SWAP2 SWAP1 PUSH2 0x15C7 JUMP JUMPDEST PUSH1 0x40 MLOAD DUP1 SWAP2 SUB SWAP1 LOG3 PUSH1 0x1 SWAP1 POP SWAP4 SWAP3 POP POP POP JUMP JUMPDEST PUSH1 0x5 PUSH1 0x0 SWAP1 SLOAD SWAP1 PUSH2 0x100 EXP SWAP1 DIV PUSH1 0xFF AND DUP2 JUMP JUMPDEST DUP4 DUP4 PUSH1 0x7 PUSH1 0x0 CALLER PUSH20 0xFFFFFFFFFFFFFFFFFFFFFFFFFFFFFFFFFFFFFFFF AND PUSH20 0xFFFFFFFFFFFFFFFFFFFFFFFFFFFFFFFFFFFFFFFF AND DUP2 MSTORE PUSH1 0x20 ADD SWAP1 DUP2 MSTORE PUSH1 0x20 ADD PUSH1 0x0 KECCAK256 SWAP2 DUP3 PUSH2 0x87D SWAP3 SWAP2 SWAP1 PUSH2 0x1AE9 JUMP JUMPDEST POP DUP2 DUP2 PUSH1 0x8 PUSH1 0x0 CALLER PUSH20 0xFFFFFFFFFFFFFFFFFFFFFFFFFFFFFFFFFFFFFFFF AND PUSH20 0xFFFFFFFFFFFFFFFFFFFFFFFFFFFFFFFFFFFFFFFF AND DUP2 MSTORE PUSH1 0x20 ADD SWAP1 DUP2 MSTORE PUSH1 0x20 ADD PUSH1 0x0 KECCAK256 SWAP2 DUP3 PUSH2 0x8CC SWAP3 SWAP2 SWAP1 PUSH2 0x1AE9 JUMP JUMPDEST POP POP POP POP POP JUMP JUMPDEST DUP1 PUSH1 0x1 PUSH1 0x0 CALLER PUSH20 0xFFFFFFFFFFFFFFFFFFFFFFFFFFFFFFFFFFFFFFFF AND PUSH20 0xFFFFFFFFFFFFFFFFFFFFFFFFFFFFFFFFFFFFFFFF AND DUP2 MSTORE PUSH1 0x20 ADD SWAP1 DUP2 MSTORE PUSH1 0x20 ADD PUSH1 0x0 KECCAK256 PUSH1 0x0 DUP3 DUP3 SLOAD PUSH2 0x922 SWAP2 SWAP1 PUSH2 0x189B JUMP JUMPDEST SWAP3 POP POP DUP2 SWAP1 SSTORE POP DUP1 PUSH1 0x0 DUP1 DUP3 DUP3 SLOAD PUSH2 0x93A SWAP2 SWAP1 PUSH2 0x189B JUMP JUMPDEST SWAP3 POP POP DUP2 SWAP1 SSTORE POP PUSH1 0x0 PUSH20 0xFFFFFFFFFFFFFFFFFFFFFFFFFFFFFFFFFFFFFFFF AND CALLER PUSH20 0xFFFFFFFFFFFFFFFFFFFFFFFFFFFFFFFFFFFFFFFF AND PUSH32 0xDDF252AD1BE2C89B69C2B068FC378DAA952BA7F163C4A11628F55A4DF523B3EF DUP4 PUSH1 0x40 MLOAD PUSH2 0x99F SWAP2 SWAP1 PUSH2 0x15C7 JUMP JUMPDEST PUSH1 0x40 MLOAD DUP1 SWAP2 SUB SWAP1 LOG3 POP JUMP JUMPDEST DUP2 DUP2 PUSH1 0x6 PUSH1 0x0 CALLER PUSH20 0xFFFFFFFFFFFFFFFFFFFFFFFFFFFFFFFFFFFFFFFF AND PUSH20 0xFFFFFFFFFFFFFFFFFFFFFFFFFFFFFFFFFFFFFFFF AND DUP2 MSTORE PUSH1 0x20 ADD SWAP1 DUP2 MSTORE PUSH1 0x20 ADD PUSH1 0x0 KECCAK256 SWAP2 DUP3 PUSH2 0x9F8 SWAP3 SWAP2 SWAP1 PUSH2 0x1AE9 JUMP JUMPDEST POP POP POP JUMP JUMPDEST PUSH1 0x1 PUSH1 0x20 MSTORE DUP1 PUSH1 0x0 MSTORE PUSH1 0x40 PUSH1 0x0 KECCAK256 PUSH1 0x0 SWAP2 POP SWAP1 POP SLOAD DUP2 JUMP JUMPDEST PUSH1 0x4 DUP1 SLOAD PUSH2 0xA22 SWAP1 PUSH2 0x183B JUMP JUMPDEST DUP1 PUSH1 0x1F ADD PUSH1 0x20 DUP1 SWAP2 DIV MUL PUSH1 0x20 ADD PUSH1 0x40 MLOAD SWAP1 DUP2 ADD PUSH1 0x40 MSTORE DUP1 SWAP3 SWAP2 SWAP1 DUP2 DUP2 MSTORE PUSH1 0x20 ADD DUP3 DUP1 SLOAD PUSH2 0xA4E SWAP1 PUSH2 0x183B JUMP JUMPDEST DUP1 ISZERO PUSH2 0xA9B JUMPI DUP1 PUSH1 0x1F LT PUSH2 0xA70 JUMPI PUSH2 0x100 DUP1 DUP4 SLOAD DIV MUL DUP4 MSTORE SWAP2 PUSH1 0x20 ADD SWAP2 PUSH2 0xA9B JUMP JUMPDEST DUP3 ADD SWAP2 SWAP1 PUSH1 0x0 MSTORE PUSH1 0x20 PUSH1 0x0 KECCAK256 SWAP1 JUMPDEST DUP2 SLOAD DUP2 MSTORE SWAP1 PUSH1 0x1 ADD SWAP1 PUSH1 0x20 ADD DUP1 DUP4 GT PUSH2 0xA7E JUMPI DUP3 SWAP1 SUB PUSH1 0x1F AND DUP3 ADD SWAP2 JUMPDEST POP POP POP POP POP DUP2 JUMP JUMPDEST PUSH1 0x7 PUSH1 0x20 MSTORE DUP1 PUSH1 0x0 MSTORE PUSH1 0x40 PUSH1 0x0 KECCAK256 PUSH1 0x0 SWAP2 POP SWAP1 POP DUP1 SLOAD PUSH2 0xAC2 SWAP1 PUSH2 0x183B JUMP JUMPDEST DUP1 PUSH1 0x1F ADD PUSH1 0x20 DUP1 SWAP2 DIV MUL PUSH1 0x20 ADD PUSH1 0x40 MLOAD SWAP1 DUP2 ADD PUSH1 0x40 MSTORE DUP1 SWAP3 SWAP2 SWAP1 DUP2 DUP2 MSTORE PUSH1 0x20 ADD DUP3 DUP1 SLOAD PUSH2 0xAEE SWAP1 PUSH2 0x183B JUMP JUMPDEST DUP1 ISZERO PUSH2 0xB3B JUMPI DUP1 PUSH1 0x1F LT PUSH2 0xB10 JUMPI PUSH2 0x100 DUP1 DUP4 SLOAD DIV MUL DUP4 MSTORE SWAP2 PUSH1 0x20 ADD SWAP2 PUSH2 0xB3B JUMP JUMPDEST DUP3 ADD SWAP2 SWAP1 PUSH1 0x0 MSTORE PUSH1 0x20 PUSH1 0x0 KECCAK256 SWAP1 JUMPDEST DUP2 SLOAD DUP2 MSTORE SWAP1 PUSH1 0x1 ADD SWAP1 PUSH1 0x20 ADD DUP1 DUP4 GT PUSH2 0xB1E JUMPI DUP3 SWAP1 SUB PUSH1 0x1F AND DUP3 ADD SWAP2 JUMPDEST POP POP POP POP POP DUP2 JUMP JUMPDEST PUSH1 0x8 PUSH1 0x20 MSTORE DUP1 PUSH1 0x0 MSTORE PUSH1 0x40 PUSH1 0x0 KECCAK256 PUSH1 0x0 SWAP2 POP SWAP1 POP DUP1 SLOAD PUSH2 0xB62 SWAP1 PUSH2 0x183B JUMP JUMPDEST DUP1 PUSH1 0x1F ADD PUSH1 0x20 DUP1 SWAP2 DIV MUL PUSH1 0x20 ADD PUSH1 0x40 MLOAD SWAP1 DUP2 ADD PUSH1 0x40 MSTORE DUP1 SWAP3 SWAP2 SWAP1 DUP2 DUP2 MSTORE PUSH1 0x20 ADD DUP3 DUP1 SLOAD PUSH2 0xB8E SWAP1 PUSH2 0x183B JUMP JUMPDEST DUP1 ISZERO PUSH2 0xBDB JUMPI DUP1 PUSH1 0x1F LT PUSH2 0xBB0 JUMPI PUSH2 0x100 DUP1 DUP4 SLOAD DIV MUL DUP4 MSTORE SWAP2 PUSH1 0x20 ADD SWAP2 PUSH2 0xBDB JUMP JUMPDEST DUP3 ADD SWAP2 SWAP1 PUSH1 0x0 MSTORE PUSH1 0x20 PUSH1 0x0 KECCAK256 SWAP1 JUMPDEST DUP2 SLOAD DUP2 MSTORE SWAP1 PUSH1 0x1 ADD SWAP1 PUSH1 0x20 ADD DUP1 DUP4 GT PUSH2 0xBBE JUMPI DUP3 SWAP1 SUB PUSH1 0x1F AND DUP3 ADD SWAP2 JUMPDEST POP POP POP POP POP DUP2 JUMP JUMPDEST DUP1 PUSH1 0x1 PUSH1 0x0 CALLER PUSH20 0xFFFFFFFFFFFFFFFFFFFFFFFFFFFFFFFFFFFFFFFF AND PUSH20 0xFFFFFFFFFFFFFFFFFFFFFFFFFFFFFFFFFFFFFFFF AND DUP2 MSTORE PUSH1 0x20 ADD SWAP1 DUP2 MSTORE PUSH1 0x20 ADD PUSH1 0x0 KECCAK256 PUSH1 0x0 DUP3 DUP3 SLOAD PUSH2 0xC32 SWAP2 SWAP1 PUSH2 0x18CF JUMP JUMPDEST SWAP3 POP POP DUP2 SWAP1 SSTORE POP DUP1 PUSH1 0x0 DUP1 DUP3 DUP3 SLOAD PUSH2 0xC4A SWAP2 SWAP1 PUSH2 0x18CF JUMP JUMPDEST SWAP3 POP POP DUP2 SWAP1 SSTORE POP CALLER PUSH20 0xFFFFFFFFFFFFFFFFFFFFFFFFFFFFFFFFFFFFFFFF AND PUSH1 0x0 PUSH20 0xFFFFFFFFFFFFFFFFFFFFFFFFFFFFFFFFFFFFFFFF AND PUSH32 0xDDF252AD1BE2C89B69C2B068FC378DAA952BA7F163C4A11628F55A4DF523B3EF DUP4 PUSH1 0x40 MLOAD PUSH2 0xCAF SWAP2 SWAP1 PUSH2 0x15C7 JUMP JUMPDEST PUSH1 0x40 MLOAD DUP1 SWAP2 SUB SWAP1 LOG3 PUSH2 0x2710 PUSH1 0x1 PUSH1 0x0 CALLER PUSH20 0xFFFFFFFFFFFFFFFFFFFFFFFFFFFFFFFFFFFFFFFF AND PUSH20 0xFFFFFFFFFFFFFFFFFFFFFFFFFFFFFFFFFFFFFFFF AND DUP2 MSTORE PUSH1 0x20 ADD SWAP1 DUP2 MSTORE PUSH1 0x20 ADD PUSH1 0x0 KECCAK256 SLOAD LT PUSH2 0xEC0 JUMPI PUSH1 0x0 ISZERO ISZERO PUSH1 0x9 PUSH1 0x0 CALLER PUSH20 0xFFFFFFFFFFFFFFFFFFFFFFFFFFFFFFFFFFFFFFFF AND PUSH20 0xFFFFFFFFFFFFFFFFFFFFFFFFFFFFFFFFFFFFFFFF AND DUP2 MSTORE PUSH1 0x20 ADD SWAP1 DUP2 MSTORE PUSH1 0x20 ADD PUSH1 0x0 KECCAK256 PUSH1 0x0 SWAP1 SLOAD SWAP1 PUSH2 0x100 EXP SWAP1 DIV PUSH1 0xFF AND ISZERO ISZERO SUB PUSH2 0xD64 JUMPI PUSH2 0xD5F PUSH2 0x10B8 JUMP JUMPDEST PUSH2 0xEBF JUMP JUMPDEST PUSH2 0xC350 PUSH1 0x1 PUSH1 0x0 CALLER PUSH20 0xFFFFFFFFFFFFFFFFFFFFFFFFFFFFFFFFFFFFFFFF AND PUSH20 0xFFFFFFFFFFFFFFFFFFFFFFFFFFFFFFFFFFFFFFFF AND DUP2 MSTORE PUSH1 0x20 ADD SWAP1 DUP2 MSTORE PUSH1 0x20 ADD PUSH1 0x0 KECCAK256 SLOAD LT PUSH2 0xEBE JUMPI PUSH1 0x0 ISZERO ISZERO PUSH1 0xA PUSH1 0x0 CALLER PUSH20 0xFFFFFFFFFFFFFFFFFFFFFFFFFFFFFFFFFFFFFFFF AND PUSH20 0xFFFFFFFFFFFFFFFFFFFFFFFFFFFFFFFFFFFFFFFF AND DUP2 MSTORE PUSH1 0x20 ADD SWAP1 DUP2 MSTORE PUSH1 0x20 ADD PUSH1 0x0 KECCAK256 PUSH1 0x0 SWAP1 SLOAD SWAP1 PUSH2 0x100 EXP SWAP1 DIV PUSH1 0xFF AND ISZERO ISZERO SUB PUSH2 0xE11 JUMPI PUSH2 0xE0C PUSH2 0x11BC JUMP JUMPDEST PUSH2 0xEBD JUMP JUMPDEST PUSH3 0x186A0 PUSH1 0x1 PUSH1 0x0 CALLER PUSH20 0xFFFFFFFFFFFFFFFFFFFFFFFFFFFFFFFFFFFFFFFF AND PUSH20 0xFFFFFFFFFFFFFFFFFFFFFFFFFFFFFFFFFFFFFFFF AND DUP2 MSTORE PUSH1 0x20 ADD SWAP1 DUP2 MSTORE PUSH1 0x20 ADD PUSH1 0x0 KECCAK256 SLOAD LT PUSH2 0xEBC JUMPI PUSH1 0x0 ISZERO ISZERO PUSH1 0xB PUSH1 0x0 CALLER PUSH20 0xFFFFFFFFFFFFFFFFFFFFFFFFFFFFFFFFFFFFFFFF AND PUSH20 0xFFFFFFFFFFFFFFFFFFFFFFFFFFFFFFFFFFFFFFFF AND DUP2 MSTORE PUSH1 0x20 ADD SWAP1 DUP2 MSTORE PUSH1 0x20 ADD PUSH1 0x0 KECCAK256 PUSH1 0x0 SWAP1 SLOAD SWAP1 PUSH2 0x100 EXP SWAP1 DIV PUSH1 0xFF AND ISZERO ISZERO SUB PUSH2 0xEBB JUMPI PUSH2 0xEBA PUSH2 0x12C0 JUMP JUMPDEST JUMPDEST JUMPDEST JUMPDEST JUMPDEST JUMPDEST JUMPDEST POP JUMP JUMPDEST PUSH1 0x0 DUP2 PUSH1 0x1 PUSH1 0x0 CALLER PUSH20 0xFFFFFFFFFFFFFFFFFFFFFFFFFFFFFFFFFFFFFFFF AND PUSH20 0xFFFFFFFFFFFFFFFFFFFFFFFFFFFFFFFFFFFFFFFF AND DUP2 MSTORE PUSH1 0x20 ADD SWAP1 DUP2 MSTORE PUSH1 0x20 ADD PUSH1 0x0 KECCAK256 PUSH1 0x0 DUP3 DUP3 SLOAD PUSH2 0xF14 SWAP2 SWAP1 PUSH2 0x189B JUMP JUMPDEST SWAP3 POP POP DUP2 SWAP1 SSTORE POP DUP2 PUSH1 0x1 PUSH1 0x0 DUP6 PUSH20 0xFFFFFFFFFFFFFFFFFFFFFFFFFFFFFFFFFFFFFFFF AND PUSH20 0xFFFFFFFFFFFFFFFFFFFFFFFFFFFFFFFFFFFFFFFF AND DUP2 MSTORE PUSH1 0x20 ADD SWAP1 DUP2 MSTORE PUSH1 0x20 ADD PUSH1 0x0 KECCAK256 PUSH1 0x0 DUP3 DUP3 SLOAD PUSH2 0xF6A SWAP2 SWAP1 PUSH2 0x18CF JUMP JUMPDEST SWAP3 POP POP DUP2 SWAP1 SSTORE POP DUP3 PUSH20 0xFFFFFFFFFFFFFFFFFFFFFFFFFFFFFFFFFFFFFFFF AND CALLER PUSH20 0xFFFFFFFFFFFFFFFFFFFFFFFFFFFFFFFFFFFFFFFF AND PUSH32 0xDDF252AD1BE2C89B69C2B068FC378DAA952BA7F163C4A11628F55A4DF523B3EF DUP5 PUSH1 0x40 MLOAD PUSH2 0xFCE SWAP2 SWAP1 PUSH2 0x15C7 JUMP JUMPDEST PUSH1 0x40 MLOAD DUP1 SWAP2 SUB SWAP1 LOG3 PUSH1 0x1 SWAP1 POP SWAP3 SWAP2 POP POP JUMP JUMPDEST DUP2 DUP2 PUSH1 0x6 PUSH1 0x0 CALLER PUSH20 0xFFFFFFFFFFFFFFFFFFFFFFFFFFFFFFFFFFFFFFFF AND PUSH20 0xFFFFFFFFFFFFFFFFFFFFFFFFFFFFFFFFFFFFFFFF AND DUP2 MSTORE PUSH1 0x20 ADD SWAP1 DUP2 MSTORE PUSH1 0x20 ADD PUSH1 0x0 KECCAK256 SWAP2 DUP3 PUSH2 0x102E SWAP3 SWAP2 SWAP1 PUSH2 0x1AE9 JUMP JUMPDEST POP POP POP JUMP JUMPDEST PUSH1 0x9 PUSH1 0x20 MSTORE DUP1 PUSH1 0x0 MSTORE PUSH1 0x40 PUSH1 0x0 KECCAK256 PUSH1 0x0 SWAP2 POP SLOAD SWAP1 PUSH2 0x100 EXP SWAP1 DIV PUSH1 0xFF AND DUP2 JUMP JUMPDEST PUSH1 0xA PUSH1 0x20 MSTORE DUP1 PUSH1 0x0 MSTORE PUSH1 0x40 PUSH1 0x0 KECCAK256 PUSH1 0x0 SWAP2 POP SLOAD SWAP1 PUSH2 0x100 EXP SWAP1 DIV PUSH1 0xFF AND DUP2 JUMP JUMPDEST PUSH1 0x2 PUSH1 0x20 MSTORE DUP2 PUSH1 0x0 MSTORE PUSH1 0x40 PUSH1 0x0 KECCAK256 PUSH1 0x20 MSTORE DUP1 PUSH1 0x0 MSTORE PUSH1 0x40 PUSH1 0x0 KECCAK256 PUSH1 0x0 SWAP2 POP SWAP2 POP POP SLOAD DUP2 JUMP JUMPDEST PUSH1 0xB PUSH1 0x20 MSTORE DUP1 PUSH1 0x0 MSTORE PUSH1 0x40 PUSH1 0x0 KECCAK256 PUSH1 0x0 SWAP2 POP SLOAD SWAP1 PUSH2 0x100 EXP SWAP1 DIV PUSH1 0xFF AND DUP2 JUMP JUMPDEST PUSH2 0x2710 PUSH1 0x1 PUSH1 0x0 CALLER PUSH20 0xFFFFFFFFFFFFFFFFFFFFFFFFFFFFFFFFFFFFFFFF AND PUSH20 0xFFFFFFFFFFFFFFFFFFFFFFFFFFFFFFFFFFFFFFFF AND DUP2 MSTORE PUSH1 0x20 ADD SWAP1 DUP2 MSTORE PUSH1 0x20 ADD PUSH1 0x0 KECCAK256 SLOAD GT PUSH2 0x1105 JUMPI PUSH1 0x0 DUP1 REVERT JUMPDEST PUSH1 0x0 ISZERO ISZERO PUSH1 0x9 PUSH1 0x0 CALLER PUSH20 0xFFFFFFFFFFFFFFFFFFFFFFFFFFFFFFFFFFFFFFFF AND PUSH20 0xFFFFFFFFFFFFFFFFFFFFFFFFFFFFFFFFFFFFFFFF AND DUP2 MSTORE PUSH1 0x20 ADD SWAP1 DUP2 MSTORE PUSH1 0x20 ADD PUSH1 0x0 KECCAK256 PUSH1 0x0 SWAP1 SLOAD SWAP1 PUSH2 0x100 EXP SWAP1 DIV PUSH1 0xFF AND ISZERO ISZERO EQ PUSH2 0x1162 JUMPI PUSH1 0x0 DUP1 REVERT JUMPDEST PUSH1 0x1 PUSH1 0x9 PUSH1 0x0 CALLER PUSH20 0xFFFFFFFFFFFFFFFFFFFFFFFFFFFFFFFFFFFFFFFF AND PUSH20 0xFFFFFFFFFFFFFFFFFFFFFFFFFFFFFFFFFFFFFFFF AND DUP2 MSTORE PUSH1 0x20 ADD SWAP1 DUP2 MSTORE PUSH1 0x20 ADD PUSH1 0x0 KECCAK256 PUSH1 0x0 PUSH2 0x100 EXP DUP2 SLOAD DUP2 PUSH1 0xFF MUL NOT AND SWAP1 DUP4 ISZERO ISZERO MUL OR SWAP1 SSTORE POP JUMP JUMPDEST PUSH2 0xC350 PUSH1 0x1 PUSH1 0x0 CALLER PUSH20 0xFFFFFFFFFFFFFFFFFFFFFFFFFFFFFFFFFFFFFFFF AND PUSH20 0xFFFFFFFFFFFFFFFFFFFFFFFFFFFFFFFFFFFFFFFF AND DUP2 MSTORE PUSH1 0x20 ADD SWAP1 DUP2 MSTORE PUSH1 0x20 ADD PUSH1 0x0 KECCAK256 SLOAD GT PUSH2 0x1209 JUMPI PUSH1 0x0 DUP1 REVERT JUMPDEST PUSH1 0x0 ISZERO ISZERO PUSH1 0xA PUSH1 0x0 CALLER PUSH20 0xFFFFFFFFFFFFFFFFFFFFFFFFFFFFFFFFFFFFFFFF AND PUSH20 0xFFFFFFFFFFFFFFFFFFFFFFFFFFFFFFFFFFFFFFFF AND DUP2 MSTORE PUSH1 0x20 ADD SWAP1 DUP2 MSTORE PUSH1 0x20 ADD PUSH1 0x0 KECCAK256 PUSH1 0x0 SWAP1 SLOAD SWAP1 PUSH2 0x100 EXP SWAP1 DIV PUSH1 0xFF AND ISZERO ISZERO EQ PUSH2 0x1266 JUMPI PUSH1 0x0 DUP1 REVERT JUMPDEST PUSH1 0x1 PUSH1 0xA PUSH1 0x0 CALLER PUSH20 0xFFFFFFFFFFFFFFFFFFFFFFFFFFFFFFFFFFFFFFFF AND PUSH20 0xFFFFFFFFFFFFFFFFFFFFFFFFFFFFFFFFFFFFFFFF AND DUP2 MSTORE PUSH1 0x20 ADD SWAP1 DUP2 MSTORE PUSH1 0x20 ADD PUSH1 0x0 KECCAK256 PUSH1 0x0 PUSH2 0x100 EXP DUP2 SLOAD DUP2 PUSH1 0xFF MUL NOT AND SWAP1 DUP4 ISZERO ISZERO MUL OR SWAP1 SSTORE POP JUMP JUMPDEST PUSH3 0x186A0 PUSH1 0x1 PUSH1 0x0 CALLER PUSH20 0xFFFFFFFFFFFFFFFFFFFFFFFFFFFFFFFFFFFFFFFF AND PUSH20 0xFFFFFFFFFFFFFFFFFFFFFFFFFFFFFFFFFFFFFFFF AND DUP2 MSTORE PUSH1 0x20 ADD SWAP1 DUP2 MSTORE PUSH1 0x20 ADD PUSH1 0x0 KECCAK256 SLOAD GT PUSH2 0x130E JUMPI PUSH1 0x0 DUP1 REVERT JUMPDEST PUSH1 0x0 ISZERO ISZERO PUSH1 0xB PUSH1 0x0 CALLER PUSH20 0xFFFFFFFFFFFFFFFFFFFFFFFFFFFFFFFFFFFFFFFF AND PUSH20 0xFFFFFFFFFFFFFFFFFFFFFFFFFFFFFFFFFFFFFFFF AND DUP2 MSTORE PUSH1 0x20 ADD SWAP1 DUP2 MSTORE PUSH1 0x20 ADD PUSH1 0x0 KECCAK256 PUSH1 0x0 SWAP1 SLOAD SWAP1 PUSH2 0x100 EXP SWAP1 DIV PUSH1 0xFF AND ISZERO ISZERO EQ PUSH2 0x136B JUMPI PUSH1 0x0 DUP1 REVERT JUMPDEST PUSH1 0x1 PUSH1 0xB PUSH1 0x0 CALLER PUSH20 0xFFFFFFFFFFFFFFFFFFFFFFFFFFFFFFFFFFFFFFFF AND PUSH20 0xFFFFFFFFFFFFFFFFFFFFFFFFFFFFFFFFFFFFFFFF AND DUP2 MSTORE PUSH1 0x20 ADD SWAP1 DUP2 MSTORE PUSH1 0x20 ADD PUSH1 0x0 KECCAK256 PUSH1 0x0 PUSH2 0x100 EXP DUP2 SLOAD DUP2 PUSH1 0xFF MUL NOT AND SWAP1 DUP4 ISZERO ISZERO MUL OR SWAP1 SSTORE POP JUMP JUMPDEST PUSH1 0x0 DUP2 MLOAD SWAP1 POP SWAP2 SWAP1 POP JUMP JUMPDEST PUSH1 0x0 DUP3 DUP3 MSTORE PUSH1 0x20 DUP3 ADD SWAP1 POP SWAP3 SWAP2 POP POP JUMP JUMPDEST PUSH1 0x0 JUMPDEST DUP4 DUP2 LT ISZERO PUSH2 0x13FF JUMPI DUP1 DUP3 ADD MLOAD DUP2 DUP5 ADD MSTORE PUSH1 0x20 DUP2 ADD SWAP1 POP PUSH2 0x13E4 JUMP JUMPDEST PUSH1 0x0 DUP5 DUP5 ADD MSTORE POP POP POP POP JUMP JUMPDEST PUSH1 0x0 PUSH1 0x1F NOT PUSH1 0x1F DUP4 ADD AND SWAP1 POP SWAP2 SWAP1 POP JUMP JUMPDEST PUSH1 0x0 PUSH2 0x1427 DUP3 PUSH2 0x13C5 JUMP JUMPDEST PUSH2 0x1431 DUP2 DUP6 PUSH2 0x13D0 JUMP JUMPDEST SWAP4 POP PUSH2 0x1441 DUP2 DUP6 PUSH1 0x20 DUP7 ADD PUSH2 0x13E1 JUMP JUMPDEST PUSH2 0x144A DUP2 PUSH2 0x140B JUMP JUMPDEST DUP5 ADD SWAP2 POP POP SWAP3 SWAP2 POP POP JUMP JUMPDEST PUSH1 0x0 PUSH1 0x20 DUP3 ADD SWAP1 POP DUP2 DUP2 SUB PUSH1 0x0 DUP4 ADD MSTORE PUSH2 0x146F DUP2 DUP5 PUSH2 0x141C JUMP JUMPDEST SWAP1 POP SWAP3 SWAP2 POP POP JUMP JUMPDEST PUSH1 0x0 DUP1 REVERT JUMPDEST PUSH1 0x0 DUP1 REVERT JUMPDEST PUSH1 0x0 PUSH20 0xFFFFFFFFFFFFFFFFFFFFFFFFFFFFFFFFFFFFFFFF DUP3 AND SWAP1 POP SWAP2 SWAP1 POP JUMP JUMPDEST PUSH1 0x0 PUSH2 0x14AC DUP3 PUSH2 0x1481 JUMP JUMPDEST SWAP1 POP SWAP2 SWAP1 POP JUMP JUMPDEST PUSH2 0x14BC DUP2 PUSH2 0x14A1 JUMP JUMPDEST DUP2 EQ PUSH2 0x14C7 JUMPI PUSH1 0x0 DUP1 REVERT JUMPDEST POP JUMP JUMPDEST PUSH1 0x0 DUP2 CALLDATALOAD SWAP1 POP PUSH2 0x14D9 DUP2 PUSH2 0x14B3 JUMP JUMPDEST SWAP3 SWAP2 POP POP JUMP JUMPDEST PUSH1 0x0 DUP2 SWAP1 POP SWAP2 SWAP1 POP JUMP JUMPDEST PUSH2 0x14F2 DUP2 PUSH2 0x14DF JUMP JUMPDEST DUP2 EQ PUSH2 0x14FD JUMPI PUSH1 0x0 DUP1 REVERT JUMPDEST POP JUMP JUMPDEST PUSH1 0x0 DUP2 CALLDATALOAD SWAP1 POP PUSH2 0x150F DUP2 PUSH2 0x14E9 JUMP JUMPDEST SWAP3 SWAP2 POP POP JUMP JUMPDEST PUSH1 0x0 DUP1 PUSH1 0x40 DUP4 DUP6 SUB SLT ISZERO PUSH2 0x152C JUMPI PUSH2 0x152B PUSH2 0x1477 JUMP JUMPDEST JUMPDEST PUSH1 0x0 PUSH2 0x153A DUP6 DUP3 DUP7 ADD PUSH2 0x14CA JUMP JUMPDEST SWAP3 POP POP PUSH1 0x20 PUSH2 0x154B DUP6 DUP3 DUP7 ADD PUSH2 0x1500 JUMP JUMPDEST SWAP2 POP POP SWAP3 POP SWAP3 SWAP1 POP JUMP JUMPDEST PUSH1 0x0 DUP2 ISZERO ISZERO SWAP1 POP SWAP2 SWAP1 POP JUMP JUMPDEST PUSH2 0x156A DUP2 PUSH2 0x1555 JUMP JUMPDEST DUP3 MSTORE POP POP JUMP JUMPDEST PUSH1 0x0 PUSH1 0x20 DUP3 ADD SWAP1 POP PUSH2 0x1585 PUSH1 0x0 DUP4 ADD DUP5 PUSH2 0x1561 JUMP JUMPDEST SWAP3 SWAP2 POP POP JUMP JUMPDEST PUSH1 0x0 PUSH1 0x20 DUP3 DUP5 SUB SLT ISZERO PUSH2 0x15A1 JUMPI PUSH2 0x15A0 PUSH2 0x1477 JUMP JUMPDEST JUMPDEST PUSH1 0x0 PUSH2 0x15AF DUP5 DUP3 DUP6 ADD PUSH2 0x14CA JUMP JUMPDEST SWAP2 POP POP SWAP3 SWAP2 POP POP JUMP JUMPDEST PUSH2 0x15C1 DUP2 PUSH2 0x14DF JUMP JUMPDEST DUP3 MSTORE POP POP JUMP JUMPDEST PUSH1 0x0 PUSH1 0x20 DUP3 ADD SWAP1 POP PUSH2 0x15DC PUSH1 0x0 DUP4 ADD DUP5 PUSH2 0x15B8 JUMP JUMPDEST SWAP3 SWAP2 POP POP JUMP JUMPDEST PUSH1 0x0 DUP1 PUSH1 0x0 PUSH1 0x60 DUP5 DUP7 SUB SLT ISZERO PUSH2 0x15FB JUMPI PUSH2 0x15FA PUSH2 0x1477 JUMP JUMPDEST JUMPDEST PUSH1 0x0 PUSH2 0x1609 DUP7 DUP3 DUP8 ADD PUSH2 0x14CA JUMP JUMPDEST SWAP4 POP POP PUSH1 0x20 PUSH2 0x161A DUP7 DUP3 DUP8 ADD PUSH2 0x14CA JUMP JUMPDEST SWAP3 POP POP PUSH1 0x40 PUSH2 0x162B DUP7 DUP3 DUP8 ADD PUSH2 0x1500 JUMP JUMPDEST SWAP2 POP POP SWAP3 POP SWAP3 POP SWAP3 JUMP JUMPDEST PUSH1 0x0 PUSH1 0xFF DUP3 AND SWAP1 POP SWAP2 SWAP1 POP JUMP JUMPDEST PUSH2 0x164B DUP2 PUSH2 0x1635 JUMP JUMPDEST DUP3 MSTORE POP POP JUMP JUMPDEST PUSH1 0x0 PUSH1 0x20 DUP3 ADD SWAP1 POP PUSH2 0x1666 PUSH1 0x0 DUP4 ADD DUP5 PUSH2 0x1642 JUMP JUMPDEST SWAP3 SWAP2 POP POP JUMP JUMPDEST PUSH1 0x0 DUP1 REVERT JUMPDEST PUSH1 0x0 DUP1 REVERT JUMPDEST PUSH1 0x0 DUP1 REVERT JUMPDEST PUSH1 0x0 DUP1 DUP4 PUSH1 0x1F DUP5 ADD SLT PUSH2 0x1691 JUMPI PUSH2 0x1690 PUSH2 0x166C JUMP JUMPDEST JUMPDEST DUP3 CALLDATALOAD SWAP1 POP PUSH8 0xFFFFFFFFFFFFFFFF DUP2 GT ISZERO PUSH2 0x16AE JUMPI PUSH2 0x16AD PUSH2 0x1671 JUMP JUMPDEST JUMPDEST PUSH1 0x20 DUP4 ADD SWAP2 POP DUP4 PUSH1 0x1 DUP3 MUL DUP4 ADD GT ISZERO PUSH2 0x16CA JUMPI PUSH2 0x16C9 PUSH2 0x1676 JUMP JUMPDEST JUMPDEST SWAP3 POP SWAP3 SWAP1 POP JUMP JUMPDEST PUSH1 0x0 DUP1 PUSH1 0x0 DUP1 PUSH1 0x40 DUP6 DUP8 SUB SLT ISZERO PUSH2 0x16EB JUMPI PUSH2 0x16EA PUSH2 0x1477 JUMP JUMPDEST JUMPDEST PUSH1 0x0 DUP6 ADD CALLDATALOAD PUSH8 0xFFFFFFFFFFFFFFFF DUP2 GT ISZERO PUSH2 0x1709 JUMPI PUSH2 0x1708 PUSH2 0x147C JUMP JUMPDEST JUMPDEST PUSH2 0x1715 DUP8 DUP3 DUP9 ADD PUSH2 0x167B JUMP JUMPDEST SWAP5 POP SWAP5 POP POP PUSH1 0x20 DUP6 ADD CALLDATALOAD PUSH8 0xFFFFFFFFFFFFFFFF DUP2 GT ISZERO PUSH2 0x1738 JUMPI PUSH2 0x1737 PUSH2 0x147C JUMP JUMPDEST JUMPDEST PUSH2 0x1744 DUP8 DUP3 DUP9 ADD PUSH2 0x167B JUMP JUMPDEST SWAP3 POP SWAP3 POP POP SWAP3 SWAP6 SWAP2 SWAP5 POP SWAP3 POP JUMP JUMPDEST PUSH1 0x0 PUSH1 0x20 DUP3 DUP5 SUB SLT ISZERO PUSH2 0x1768 JUMPI PUSH2 0x1767 PUSH2 0x1477 JUMP JUMPDEST JUMPDEST PUSH1 0x0 PUSH2 0x1776 DUP5 DUP3 DUP6 ADD PUSH2 0x1500 JUMP JUMPDEST SWAP2 POP POP SWAP3 SWAP2 POP POP JUMP JUMPDEST PUSH1 0x0 DUP1 PUSH1 0x20 DUP4 DUP6 SUB SLT ISZERO PUSH2 0x1796 JUMPI PUSH2 0x1795 PUSH2 0x1477 JUMP JUMPDEST JUMPDEST PUSH1 0x0 DUP4 ADD CALLDATALOAD PUSH8 0xFFFFFFFFFFFFFFFF DUP2 GT ISZERO PUSH2 0x17B4 JUMPI PUSH2 0x17B3 PUSH2 0x147C JUMP JUMPDEST JUMPDEST PUSH2 0x17C0 DUP6 DUP3 DUP7 ADD PUSH2 0x167B JUMP JUMPDEST SWAP3 POP SWAP3 POP POP SWAP3 POP SWAP3 SWAP1 POP JUMP JUMPDEST PUSH1 0x0 DUP1 PUSH1 0x40 DUP4 DUP6 SUB SLT ISZERO PUSH2 0x17E3 JUMPI PUSH2 0x17E2 PUSH2 0x1477 JUMP JUMPDEST JUMPDEST PUSH1 0x0 PUSH2 0x17F1 DUP6 DUP3 DUP7 ADD PUSH2 0x14CA JUMP JUMPDEST SWAP3 POP POP PUSH1 0x20 PUSH2 0x1802 DUP6 DUP3 DUP7 ADD PUSH2 0x14CA JUMP JUMPDEST SWAP2 POP POP SWAP3 POP SWAP3 SWAP1 POP JUMP JUMPDEST PUSH32 0x4E487B7100000000000000000000000000000000000000000000000000000000 PUSH1 0x0 MSTORE PUSH1 0x22 PUSH1 0x4 MSTORE PUSH1 0x24 PUSH1 0x0 REVERT JUMPDEST PUSH1 0x0 PUSH1 0x2 DUP3 DIV SWAP1 POP PUSH1 0x1 DUP3 AND DUP1 PUSH2 0x1853 JUMPI PUSH1 0x7F DUP3 AND SWAP2 POP JUMPDEST PUSH1 0x20 DUP3 LT DUP2 SUB PUSH2 0x1866 JUMPI PUSH2 0x1865 PUSH2 0x180C JUMP JUMPDEST JUMPDEST POP SWAP2 SWAP1 POP JUMP JUMPDEST PUSH32 0x4E487B7100000000000000000000000000000000000000000000000000000000 PUSH1 0x0 MSTORE PUSH1 0x11 PUSH1 0x4 MSTORE PUSH1 0x24 PUSH1 0x0 REVERT JUMPDEST PUSH1 0x0 PUSH2 0x18A6 DUP3 PUSH2 0x14DF JUMP JUMPDEST SWAP2 POP PUSH2 0x18B1 DUP4 PUSH2 0x14DF JUMP JUMPDEST SWAP3 POP DUP3 DUP3 SUB SWAP1 POP DUP2 DUP2 GT ISZERO PUSH2 0x18C9 JUMPI PUSH2 0x18C8 PUSH2 0x186C JUMP JUMPDEST JUMPDEST SWAP3 SWAP2 POP POP JUMP JUMPDEST PUSH1 0x0 PUSH2 0x18DA DUP3 PUSH2 0x14DF JUMP JUMPDEST SWAP2 POP PUSH2 0x18E5 DUP4 PUSH2 0x14DF JUMP JUMPDEST SWAP3 POP DUP3 DUP3 ADD SWAP1 POP DUP1 DUP3 GT ISZERO PUSH2 0x18FD JUMPI PUSH2 0x18FC PUSH2 0x186C JUMP JUMPDEST JUMPDEST SWAP3 SWAP2 POP POP JUMP JUMPDEST PUSH1 0x0 DUP3 SWAP1 POP SWAP3 SWAP2 POP POP JUMP JUMPDEST PUSH32 0x4E487B7100000000000000000000000000000000000000000000000000000000 PUSH1 0x0 MSTORE PUSH1 0x41 PUSH1 0x4 MSTORE PUSH1 0x24 PUSH1 0x0 REVERT JUMPDEST PUSH1 0x0 DUP2 SWAP1 POP DUP2 PUSH1 0x0 MSTORE PUSH1 0x20 PUSH1 0x0 KECCAK256 SWAP1 POP SWAP2 SWAP1 POP JUMP JUMPDEST PUSH1 0x0 PUSH1 0x20 PUSH1 0x1F DUP4 ADD DIV SWAP1 POP SWAP2 SWAP1 POP JUMP JUMPDEST PUSH1 0x0 DUP3 DUP3 SHL SWAP1 POP SWAP3 SWAP2 POP POP JUMP JUMPDEST PUSH1 0x0 PUSH1 0x8 DUP4 MUL PUSH2 0x199F PUSH32 0xFFFFFFFFFFFFFFFFFFFFFFFFFFFFFFFFFFFFFFFFFFFFFFFFFFFFFFFFFFFFFFFF DUP3 PUSH2 0x1962 JUMP JUMPDEST PUSH2 0x19A9 DUP7 DUP4 PUSH2 0x1962 JUMP JUMPDEST SWAP6 POP DUP1 NOT DUP5 AND SWAP4 POP DUP1 DUP7 AND DUP5 OR SWAP3 POP POP POP SWAP4 SWAP3 POP POP POP JUMP JUMPDEST PUSH1 0x0 DUP2 SWAP1 POP SWAP2 SWAP1 POP JUMP JUMPDEST PUSH1 0x0 PUSH2 0x19E6 PUSH2 0x19E1 PUSH2 0x19DC DUP5 PUSH2 0x14DF JUMP JUMPDEST PUSH2 0x19C1 JUMP JUMPDEST PUSH2 0x14DF JUMP JUMPDEST SWAP1 POP SWAP2 SWAP1 POP JUMP JUMPDEST PUSH1 0x0 DUP2 SWAP1 POP SWAP2 SWAP1 POP JUMP JUMPDEST PUSH2 0x1A00 DUP4 PUSH2 0x19CB JUMP JUMPDEST PUSH2 0x1A14 PUSH2 0x1A0C DUP3 PUSH2 0x19ED JUMP JUMPDEST DUP5 DUP5 SLOAD PUSH2 0x196F JUMP JUMPDEST DUP3 SSTORE POP POP POP POP JUMP JUMPDEST PUSH1 0x0 SWAP1 JUMP JUMPDEST PUSH2 0x1A29 PUSH2 0x1A1C JUMP JUMPDEST PUSH2 0x1A34 DUP2 DUP5 DUP5 PUSH2 0x19F7 JUMP JUMPDEST POP POP POP JUMP JUMPDEST JUMPDEST DUP2 DUP2 LT ISZERO PUSH2 0x1A58 JUMPI PUSH2 0x1A4D PUSH1 0x0 DUP3 PUSH2 0x1A21 JUMP JUMPDEST PUSH1 0x1 DUP2 ADD SWAP1 POP PUSH2 0x1A3A JUMP JUMPDEST POP POP JUMP JUMPDEST PUSH1 0x1F DUP3 GT ISZERO PUSH2 0x1A9D JUMPI PUSH2 0x1A6E DUP2 PUSH2 0x193D JUMP JUMPDEST PUSH2 0x1A77 DUP5 PUSH2 0x1952 JUMP JUMPDEST DUP2 ADD PUSH1 0x20 DUP6 LT ISZERO PUSH2 0x1A86 JUMPI DUP2 SWAP1 POP JUMPDEST PUSH2 0x1A9A PUSH2 0x1A92 DUP6 PUSH2 0x1952 JUMP JUMPDEST DUP4 ADD DUP3 PUSH2 0x1A39 JUMP JUMPDEST POP POP JUMPDEST POP POP POP JUMP JUMPDEST PUSH1 0x0 DUP3 DUP3 SHR SWAP1 POP SWAP3 SWAP2 POP POP JUMP JUMPDEST PUSH1 0x0 PUSH2 0x1AC0 PUSH1 0x0 NOT DUP5 PUSH1 0x8 MUL PUSH2 0x1AA2 JUMP JUMPDEST NOT DUP1 DUP4 AND SWAP2 POP POP SWAP3 SWAP2 POP POP JUMP JUMPDEST PUSH1 0x0 PUSH2 0x1AD9 DUP4 DUP4 PUSH2 0x1AAF JUMP JUMPDEST SWAP2 POP DUP3 PUSH1 0x2 MUL DUP3 OR SWAP1 POP SWAP3 SWAP2 POP POP JUMP JUMPDEST PUSH2 0x1AF3 DUP4 DUP4 PUSH2 0x1903 JUMP JUMPDEST PUSH8 0xFFFFFFFFFFFFFFFF DUP2 GT ISZERO PUSH2 0x1B0C JUMPI PUSH2 0x1B0B PUSH2 0x190E JUMP JUMPDEST JUMPDEST PUSH2 0x1B16 DUP3 SLOAD PUSH2 0x183B JUMP JUMPDEST PUSH2 0x1B21 DUP3 DUP3 DUP6 PUSH2 0x1A5C JUMP JUMPDEST PUSH1 0x0 PUSH1 0x1F DUP4 GT PUSH1 0x1 DUP2 EQ PUSH2 0x1B50 JUMPI PUSH1 0x0 DUP5 ISZERO PUSH2 0x1B3E JUMPI DUP3 DUP8 ADD CALLDATALOAD SWAP1 POP JUMPDEST PUSH2 0x1B48 DUP6 DUP3 PUSH2 0x1ACD JUMP JUMPDEST DUP7 SSTORE POP PUSH2 0x1BB0 JUMP JUMPDEST PUSH1 0x1F NOT DUP5 AND PUSH2 0x1B5E DUP7 PUSH2 0x193D JUMP JUMPDEST PUSH1 0x0 JUMPDEST DUP3 DUP2 LT ISZERO PUSH2 0x1B86 JUMPI DUP5 DUP10 ADD CALLDATALOAD DUP3 SSTORE PUSH1 0x1 DUP3 ADD SWAP2 POP PUSH1 0x20 DUP6 ADD SWAP5 POP PUSH1 0x20 DUP2 ADD SWAP1 POP PUSH2 0x1B61 JUMP JUMPDEST DUP7 DUP4 LT ISZERO PUSH2 0x1BA3 JUMPI DUP5 DUP10 ADD CALLDATALOAD PUSH2 0x1B9F PUSH1 0x1F DUP10 AND DUP3 PUSH2 0x1AAF JUMP JUMPDEST DUP4 SSTORE POP JUMPDEST PUSH1 0x1 PUSH1 0x2 DUP9 MUL ADD DUP9 SSTORE POP POP POP JUMPDEST POP POP POP POP POP POP POP JUMP INVALID LOG2 PUSH5 0x6970667358 0x22 SLT KECCAK256 0xDF LOG4 0x2F PUSH6 0xB0CF92B196B6 0xC2 SDIV SLOAD SELFDESTRUCT 0xAB MUL SAR SWAP10 0xB3 CREATE CALLDATASIZE GASPRICE 0x2F 0xA6 ADD SUB 0xC1 MSTORE PUSH3 0xC0B691 PUSH5 0x736F6C6343 STOP ADDMOD GT STOP CALLER "},"gasEstimates":{"creation":{"codeDepositCost":"1430200","executionCost":"infinite","totalCost":"infinite"},"external":{"allowance(address,address)":"infinite","approve(address,uint256)":"infinite","balanceOf(address)":"2925","burn(uint256)":"infinite","decimals()":"2494","has1000km(address)":"2955","has100km(address)":"2889","has500km(address)":"2911","mint(uint256)":"infinite","name()":"infinite","personName(address)":"infinite","setName(string)":"infinite","setPersonName(string)":"infinite","setStravaInfo(string,string)":"infinite","stravaID(address)":"infinite","stravaSecret(address)":"infinite","symbol()":"infinite","totalSupply()":"2519","transfer(address,uint256)":"infinite","transferFrom(address,address,uint256)":"infinite"},"internal":{"give1000kmToken()":"28843","give100kmToken()":"28843","give500kmToken()":"28843"}},"methodIdentifiers":{"allowance(address,address)":"dd62ed3e","approve(address,uint256)":"095ea7b3","balanceOf(address)":"70a08231","burn(uint256)":"42966c68","decimals()":"313ce567","has1000km(address)":"ec98ce3f","has100km(address)":"cf315815","has500km(address)":"d9caa2d7","mint(uint256)":"a0712d68","name()":"06fdde03","personName(address)":"0b755556","setName(string)":"c47f0027","setPersonName(string)":"4e863271","setStravaInfo(string,string)":"38195f28","stravaID(address)":"9c1b2f09","stravaSecret(address)":"9e59965e","symbol()":"95d89b41","totalSupply()":"18160ddd","transfer(address,uint256)":"a9059cbb","transferFrom(address,address,uint256)":"23b872dd"}},"storageLayout":{"storage":[{"astId":72,"contract":"wmbToken.sol:wmbToken","label":"totalSupply","offset":0,"slot":"0","type":"t_uint256"},{"astId":76,"contract":"wmbToken.sol:wmbToken","label":"balanceOf","offset":0,"slot":"1","type":"t_mapping(t_address,t_uint256)"},{"astId":82,"contract":"wmbToken.sol:wmbToken","label":"allowance","offset":0,"slot":"2","type":"t_mapping(t_address,t_mapping(t_address,t_uint256))"},{"astId":85,"contract":"wmbToken.sol:wmbToken","label":"name","offset":0,"slot":"3","type":"t_string_storage"},{"astId":88,"contract":"wmbToken.sol:wmbToken","label":"symbol","offset":0,"slot":"4","type":"t_string_storage"},{"astId":91,"contract":"wmbToken.sol:wmbToken","label":"decimals","offset":0,"slot":"5","type":"t_uint8"},{"astId":95,"contract":"wmbToken.sol:wmbToken","label":"personName","offset":0,"slot":"6","type":"t_mapping(t_address,t_string_storage)"},{"astId":99,"contract":"wmbToken.sol:wmbToken","label":"stravaID","offset":0,"slot":"7","type":"t_mapping(t_address,t_string_storage)"},{"astId":103,"contract":"wmbToken.sol:wmbToken","label":"stravaSecret","offset":0,"slot":"8","type":"t_mapping(t_address,t_string_storage)"},{"astId":107,"contract":"wmbToken.sol:wmbToken","label":"has100km","offset":0,"slot":"9","type":"t_mapping(t_address,t_bool)"},{"astId":111,"contract":"wmbToken.sol:wmbToken","label":"has500km","offset":0,"slot":"10","type":"t_mapping(t_address,t_bool)"},{"astId":115,"contract":"wmbToken.sol:wmbToken","label":"has1000km","offset":0,"slot":"11","type":"t_mapping(t_address,t_bool)"}],"types":{"t_address":{"encoding":"inplace","label":"address","numberOfBytes":"20"},"t_bool":{"encoding":"inplace","label":"bool","numberOfBytes":"1"},"t_mapping(t_address,t_bool)":{"encoding":"mapping","key":"t_address","label":"mapping(address => bool)","numberOfBytes":"32","value":"t_bool"},"t_mapping(t_address,t_mapping(t_address,t_uint256))":{"encoding":"mapping","key":"t_address","label":"mapping(address => mapping(address => uint256))","numberOfBytes":"32","value":"t_mapping(t_address,t_uint256)"},"t_mapping(t_address,t_string_storage)":{"encoding":"mapping","key":"t_address","label":"mapping(address => string)","numberOfBytes":"32","value":"t_string_storage"},"t_mapping(t_address,t_uint256)":{"encoding":"mapping","key":"t_address","label":"mapping(address => uint256)","numberOfBytes":"32","value":"t_uint256"},"t_string_storage":{"encoding":"bytes","label":"string","numberOfBytes":"32"},"t_uint256":{"encoding":"inplace","label":"uint256","numberOfBytes":"32"},"t_uint8":{"encoding":"inplace","label":"uint8","numberOfBytes":"1"}}},"userdoc":{"kind":"user","methods":{},"version":1}}