{"abi":[{"anonymous":false,"inputs":[{"indexed":true,"internalType":"address","name":"owner","type":"address"},{"indexed":true,"internalType":"address","name":"spender","type":"address"},{"indexed":false,"internalType":"uint256","name":"amount","type":"uint256"}],"name":"Approval","type":"event"},{"anonymous":false,"inputs":[{"indexed":true,"internalType":"address","name":"from","type":"address"},{"indexed":true,"internalType":"address","name":"to","type":"address"},{"indexed":false,"internalType":"uint256","name":"amount","type":"uint256"}],"name":"Transfer","type":"event"},{"inputs":[{"internalType":"uint256","name":"","type":"uint256"}],"name":"allUsers","outputs":[{"internalType":"address","name":"","type":"address"}],"stateMutability":"view","type":"function"},{"inputs":[{"internalType":"address","name":"","type":"address"},{"internalType":"address","name":"","type":"address"}],"name":"allowance","outputs":[{"internalType":"uint256","name":"","type":"uint256"}],"stateMutability":"view","type":"function"},{"inputs":[{"internalType":"address","name":"spender","type":"address"},{"internalType":"uint256","name":"amount","type":"uint256"}],"name":"approve","outputs":[{"internalType":"bool","name":"","type":"bool"}],"stateMutability":"nonpayable","type":"function"},{"inputs":[{"internalType":"address","name":"","type":"address"}],"name":"balanceOf","outputs":[{"internalType":"uint256","name":"","type":"uint256"}],"stateMutability":"view","type":"function"},{"inputs":[{"internalType":"uint256","name":"amount","type":"uint256"}],"name":"burn","outputs":[],"stateMutability":"nonpayable","type":"function"},{"inputs":[],"name":"decimals","outputs":[{"internalType":"uint8","name":"","type":"uint8"}],"stateMutability":"view","type":"function"},{"inputs":[{"internalType":"uint256","name":"","type":"uint256"}],"name":"leaders","outputs":[{"internalType":"address","name":"accountAddress","type":"address"},{"internalType":"string","name":"accountName","type":"string"},{"internalType":"uint256","name":"distance","type":"uint256"}],"stateMutability":"view","type":"function"},{"inputs":[{"internalType":"uint256","name":"amount","type":"uint256"}],"name":"mint","outputs":[],"stateMutability":"nonpayable","type":"function"},{"inputs":[],"name":"name","outputs":[{"internalType":"string","name":"","type":"string"}],"stateMutability":"view","type":"function"},{"inputs":[],"name":"numberOfUsers","outputs":[{"internalType":"uint8","name":"","type":"uint8"}],"stateMutability":"view","type":"function"},{"inputs":[{"internalType":"address","name":"","type":"address"}],"name":"personName","outputs":[{"internalType":"string","name":"","type":"string"}],"stateMutability":"view","type":"function"},{"inputs":[{"internalType":"string","name":"Pname","type":"string"}],"name":"setName","outputs":[],"stateMutability":"nonpayable","type":"function"},{"inputs":[{"internalType":"string","name":"person","type":"string"}],"name":"setPersonName","outputs":[],"stateMutability":"nonpayable","type":"function"},{"inputs":[],"name":"setStartDate","outputs":[],"stateMutability":"nonpayable","type":"function"},{"inputs":[{"internalType":"address","name":"","type":"address"}],"name":"startDate","outputs":[{"internalType":"uint256","name":"","type":"uint256"}],"stateMutability":"view","type":"function"},{"inputs":[],"name":"symbol","outputs":[{"internalType":"string","name":"","type":"string"}],"stateMutability":"view","type":"function"},{"inputs":[],"name":"totalSupply","outputs":[{"internalType":"uint256","name":"","type":"uint256"}],"stateMutability":"view","type":"function"},{"inputs":[{"internalType":"address","name":"recipient","type":"address"},{"internalType":"uint256","name":"amount","type":"uint256"}],"name":"transfer","outputs":[{"internalType":"bool","name":"","type":"bool"}],"stateMutability":"nonpayable","type":"function"},{"inputs":[{"internalType":"address","name":"sender","type":"address"},{"internalType":"address","name":"recipient","type":"address"},{"internalType":"uint256","name":"amount","type":"uint256"}],"name":"transferFrom","outputs":[{"internalType":"bool","name":"","type":"bool"}],"stateMutability":"nonpayable","type":"function"}],"devdoc":{"kind":"dev","methods":{},"version":1},"evm":{"assembly":"    /* \"wmbFit.sol\":1231:5493  contract wmbFit is IERC20 {... */\n  mstore(0x40, 0x80)\n    /* \"wmbFit.sol\":1410:1439  string public name = \"WMBFit\" */\n  mload(0x40)\n  dup1\n  0x40\n  add\n  0x40\n  mstore\n  dup1\n  0x06\n  dup2\n  mstore\n  0x20\n  add\n  0x574d424669740000000000000000000000000000000000000000000000000000\n  dup2\n  mstore\n  pop\n  0x03\n  swap1\n  dup2\n  tag_1\n  swap2\n  swap1\n  tag_2\n  jump\t// in\ntag_1:\n  pop\n    /* \"wmbFit.sol\":1446:1474  string public symbol = \"WMB\" */\n  mload(0x40)\n  dup1\n  0x40\n  add\n  0x40\n  mstore\n  dup1\n  0x03\n  dup2\n  mstore\n  0x20\n  add\n  0x574d420000000000000000000000000000000000000000000000000000000000\n  dup2\n  mstore\n  pop\n  0x04\n  swap1\n  dup2\n  tag_3\n  swap2\n  swap1\n  tag_2\n  jump\t// in\ntag_3:\n  pop\n    /* \"wmbFit.sol\":1505:1506  2 */\n  0x02\n    /* \"wmbFit.sol\":1481:1506  uint8 public decimals = 2 */\n  0x05\n  exp(0x0100, 0x00)\n  dup2\n  sload\n  dup2\n  0xff\n  mul\n  not\n  and\n  swap1\n  dup4\n  0xff\n  and\n  mul\n  or\n  swap1\n  sstore\n  pop\n    /* \"wmbFit.sol\":1596:1597  0 */\n  0x00\n    /* \"wmbFit.sol\":1567:1597  uint8 public numberOfUsers = 0 */\n  0x07\n  exp(0x0100, 0x00)\n  dup2\n  sload\n  dup2\n  0xff\n  mul\n  not\n  and\n  swap1\n  dup4\n  0xff\n  and\n  mul\n  or\n  swap1\n  sstore\n  pop\n    /* \"wmbFit.sol\":1231:5493  contract wmbFit is IERC20 {... */\n  callvalue\n  dup1\n  iszero\n  tag_4\n  jumpi\n  0x00\n  dup1\n  revert\ntag_4:\n  pop\n  jump(tag_5)\n    /* \"#utility.yul\":7:106   */\ntag_6:\n    /* \"#utility.yul\":59:65   */\n  0x00\n    /* \"#utility.yul\":93:98   */\n  dup2\n    /* \"#utility.yul\":87:99   */\n  mload\n    /* \"#utility.yul\":77:99   */\n  swap1\n  pop\n    /* \"#utility.yul\":7:106   */\n  swap2\n  swap1\n  pop\n  jump\t// out\n    /* \"#utility.yul\":112:292   */\ntag_7:\n    /* \"#utility.yul\":160:237   */\n  0x4e487b7100000000000000000000000000000000000000000000000000000000\n    /* \"#utility.yul\":157:158   */\n  0x00\n    /* \"#utility.yul\":150:238   */\n  mstore\n    /* \"#utility.yul\":257:261   */\n  0x41\n    /* \"#utility.yul\":254:255   */\n  0x04\n    /* \"#utility.yul\":247:262   */\n  mstore\n    /* \"#utility.yul\":281:285   */\n  0x24\n    /* \"#utility.yul\":278:279   */\n  0x00\n    /* \"#utility.yul\":271:286   */\n  revert\n    /* \"#utility.yul\":298:478   */\ntag_8:\n    /* \"#utility.yul\":346:423   */\n  0x4e487b7100000000000000000000000000000000000000000000000000000000\n    /* \"#utility.yul\":343:344   */\n  0x00\n    /* \"#utility.yul\":336:424   */\n  mstore\n    /* \"#utility.yul\":443:447   */\n  0x22\n    /* \"#utility.yul\":440:441   */\n  0x04\n    /* \"#utility.yul\":433:448   */\n  mstore\n    /* \"#utility.yul\":467:471   */\n  0x24\n    /* \"#utility.yul\":464:465   */\n  0x00\n    /* \"#utility.yul\":457:472   */\n  revert\n    /* \"#utility.yul\":484:804   */\ntag_9:\n    /* \"#utility.yul\":528:534   */\n  0x00\n    /* \"#utility.yul\":565:566   */\n  0x02\n    /* \"#utility.yul\":559:563   */\n  dup3\n    /* \"#utility.yul\":555:567   */\n  div\n    /* \"#utility.yul\":545:567   */\n  swap1\n  pop\n    /* \"#utility.yul\":612:613   */\n  0x01\n    /* \"#utility.yul\":606:610   */\n  dup3\n    /* \"#utility.yul\":602:614   */\n  and\n    /* \"#utility.yul\":633:651   */\n  dup1\n    /* \"#utility.yul\":623:704   */\n  tag_31\n  jumpi\n    /* \"#utility.yul\":689:693   */\n  0x7f\n    /* \"#utility.yul\":681:687   */\n  dup3\n    /* \"#utility.yul\":677:694   */\n  and\n    /* \"#utility.yul\":667:694   */\n  swap2\n  pop\n    /* \"#utility.yul\":623:704   */\ntag_31:\n    /* \"#utility.yul\":751:753   */\n  0x20\n    /* \"#utility.yul\":743:749   */\n  dup3\n    /* \"#utility.yul\":740:754   */\n  lt\n    /* \"#utility.yul\":720:738   */\n  dup2\n    /* \"#utility.yul\":717:755   */\n  sub\n    /* \"#utility.yul\":714:798   */\n  tag_32\n  jumpi\n    /* \"#utility.yul\":770:788   */\n  tag_33\n  tag_8\n  jump\t// in\ntag_33:\n    /* \"#utility.yul\":714:798   */\ntag_32:\n    /* \"#utility.yul\":535:804   */\n  pop\n    /* \"#utility.yul\":484:804   */\n  swap2\n  swap1\n  pop\n  jump\t// out\n    /* \"#utility.yul\":810:951   */\ntag_10:\n    /* \"#utility.yul\":859:863   */\n  0x00\n    /* \"#utility.yul\":882:885   */\n  dup2\n    /* \"#utility.yul\":874:885   */\n  swap1\n  pop\n    /* \"#utility.yul\":905:908   */\n  dup2\n    /* \"#utility.yul\":902:903   */\n  0x00\n    /* \"#utility.yul\":895:909   */\n  mstore\n    /* \"#utility.yul\":939:943   */\n  0x20\n    /* \"#utility.yul\":936:937   */\n  0x00\n    /* \"#utility.yul\":926:944   */\n  keccak256\n    /* \"#utility.yul\":918:944   */\n  swap1\n  pop\n    /* \"#utility.yul\":810:951   */\n  swap2\n  swap1\n  pop\n  jump\t// out\n    /* \"#utility.yul\":957:1050   */\ntag_11:\n    /* \"#utility.yul\":994:1000   */\n  0x00\n    /* \"#utility.yul\":1041:1043   */\n  0x20\n    /* \"#utility.yul\":1036:1038   */\n  0x1f\n    /* \"#utility.yul\":1029:1034   */\n  dup4\n    /* \"#utility.yul\":1025:1039   */\n  add\n    /* \"#utility.yul\":1021:1044   */\n  div\n    /* \"#utility.yul\":1011:1044   */\n  swap1\n  pop\n    /* \"#utility.yul\":957:1050   */\n  swap2\n  swap1\n  pop\n  jump\t// out\n    /* \"#utility.yul\":1056:1163   */\ntag_12:\n    /* \"#utility.yul\":1100:1108   */\n  0x00\n    /* \"#utility.yul\":1150:1155   */\n  dup3\n    /* \"#utility.yul\":1144:1148   */\n  dup3\n    /* \"#utility.yul\":1140:1156   */\n  shl\n    /* \"#utility.yul\":1119:1156   */\n  swap1\n  pop\n    /* \"#utility.yul\":1056:1163   */\n  swap3\n  swap2\n  pop\n  pop\n  jump\t// out\n    /* \"#utility.yul\":1169:1562   */\ntag_13:\n    /* \"#utility.yul\":1238:1244   */\n  0x00\n    /* \"#utility.yul\":1288:1289   */\n  0x08\n    /* \"#utility.yul\":1276:1286   */\n  dup4\n    /* \"#utility.yul\":1272:1290   */\n  mul\n    /* \"#utility.yul\":1311:1408   */\n  tag_38\n    /* \"#utility.yul\":1341:1407   */\n  0xffffffffffffffffffffffffffffffffffffffffffffffffffffffffffffffff\n    /* \"#utility.yul\":1330:1339   */\n  dup3\n    /* \"#utility.yul\":1311:1408   */\n  tag_12\n  jump\t// in\ntag_38:\n    /* \"#utility.yul\":1429:1468   */\n  tag_39\n    /* \"#utility.yul\":1459:1467   */\n  dup7\n    /* \"#utility.yul\":1448:1457   */\n  dup4\n    /* \"#utility.yul\":1429:1468   */\n  tag_12\n  jump\t// in\ntag_39:\n    /* \"#utility.yul\":1417:1468   */\n  swap6\n  pop\n    /* \"#utility.yul\":1501:1505   */\n  dup1\n    /* \"#utility.yul\":1497:1506   */\n  not\n    /* \"#utility.yul\":1490:1495   */\n  dup5\n    /* \"#utility.yul\":1486:1507   */\n  and\n    /* \"#utility.yul\":1477:1507   */\n  swap4\n  pop\n    /* \"#utility.yul\":1550:1554   */\n  dup1\n    /* \"#utility.yul\":1540:1548   */\n  dup7\n    /* \"#utility.yul\":1536:1555   */\n  and\n    /* \"#utility.yul\":1529:1534   */\n  dup5\n    /* \"#utility.yul\":1526:1556   */\n  or\n    /* \"#utility.yul\":1516:1556   */\n  swap3\n  pop\n    /* \"#utility.yul\":1245:1562   */\n  pop\n  pop\n    /* \"#utility.yul\":1169:1562   */\n  swap4\n  swap3\n  pop\n  pop\n  pop\n  jump\t// out\n    /* \"#utility.yul\":1568:1645   */\ntag_14:\n    /* \"#utility.yul\":1605:1612   */\n  0x00\n    /* \"#utility.yul\":1634:1639   */\n  dup2\n    /* \"#utility.yul\":1623:1639   */\n  swap1\n  pop\n    /* \"#utility.yul\":1568:1645   */\n  swap2\n  swap1\n  pop\n  jump\t// out\n    /* \"#utility.yul\":1651:1711   */\ntag_15:\n    /* \"#utility.yul\":1679:1682   */\n  0x00\n    /* \"#utility.yul\":1700:1705   */\n  dup2\n    /* \"#utility.yul\":1693:1705   */\n  swap1\n  pop\n    /* \"#utility.yul\":1651:1711   */\n  swap2\n  swap1\n  pop\n  jump\t// out\n    /* \"#utility.yul\":1717:1859   */\ntag_16:\n    /* \"#utility.yul\":1767:1776   */\n  0x00\n    /* \"#utility.yul\":1800:1853   */\n  tag_43\n    /* \"#utility.yul\":1818:1852   */\n  tag_44\n    /* \"#utility.yul\":1827:1851   */\n  tag_45\n    /* \"#utility.yul\":1845:1850   */\n  dup5\n    /* \"#utility.yul\":1827:1851   */\n  tag_14\n  jump\t// in\ntag_45:\n    /* \"#utility.yul\":1818:1852   */\n  tag_15\n  jump\t// in\ntag_44:\n    /* \"#utility.yul\":1800:1853   */\n  tag_14\n  jump\t// in\ntag_43:\n    /* \"#utility.yul\":1787:1853   */\n  swap1\n  pop\n    /* \"#utility.yul\":1717:1859   */\n  swap2\n  swap1\n  pop\n  jump\t// out\n    /* \"#utility.yul\":1865:1940   */\ntag_17:\n    /* \"#utility.yul\":1908:1911   */\n  0x00\n    /* \"#utility.yul\":1929:1934   */\n  dup2\n    /* \"#utility.yul\":1922:1934   */\n  swap1\n  pop\n    /* \"#utility.yul\":1865:1940   */\n  swap2\n  swap1\n  pop\n  jump\t// out\n    /* \"#utility.yul\":1946:2215   */\ntag_18:\n    /* \"#utility.yul\":2056:2095   */\n  tag_48\n    /* \"#utility.yul\":2087:2094   */\n  dup4\n    /* \"#utility.yul\":2056:2095   */\n  tag_16\n  jump\t// in\ntag_48:\n    /* \"#utility.yul\":2117:2208   */\n  tag_49\n    /* \"#utility.yul\":2166:2207   */\n  tag_50\n    /* \"#utility.yul\":2190:2206   */\n  dup3\n    /* \"#utility.yul\":2166:2207   */\n  tag_17\n  jump\t// in\ntag_50:\n    /* \"#utility.yul\":2158:2164   */\n  dup5\n    /* \"#utility.yul\":2151:2155   */\n  dup5\n    /* \"#utility.yul\":2145:2156   */\n  sload\n    /* \"#utility.yul\":2117:2208   */\n  tag_13\n  jump\t// in\ntag_49:\n    /* \"#utility.yul\":2111:2115   */\n  dup3\n    /* \"#utility.yul\":2104:2209   */\n  sstore\n    /* \"#utility.yul\":2022:2215   */\n  pop\n    /* \"#utility.yul\":1946:2215   */\n  pop\n  pop\n  pop\n  jump\t// out\n    /* \"#utility.yul\":2221:2294   */\ntag_19:\n    /* \"#utility.yul\":2266:2269   */\n  0x00\n    /* \"#utility.yul\":2221:2294   */\n  swap1\n  jump\t// out\n    /* \"#utility.yul\":2300:2489   */\ntag_20:\n    /* \"#utility.yul\":2377:2409   */\n  tag_53\n  tag_19\n  jump\t// in\ntag_53:\n    /* \"#utility.yul\":2418:2483   */\n  tag_54\n    /* \"#utility.yul\":2476:2482   */\n  dup2\n    /* \"#utility.yul\":2468:2474   */\n  dup5\n    /* \"#utility.yul\":2462:2466   */\n  dup5\n    /* \"#utility.yul\":2418:2483   */\n  tag_18\n  jump\t// in\ntag_54:\n    /* \"#utility.yul\":2353:2489   */\n  pop\n    /* \"#utility.yul\":2300:2489   */\n  pop\n  pop\n  jump\t// out\n    /* \"#utility.yul\":2495:2681   */\ntag_21:\n    /* \"#utility.yul\":2555:2675   */\ntag_56:\n    /* \"#utility.yul\":2572:2575   */\n  dup2\n    /* \"#utility.yul\":2565:2570   */\n  dup2\n    /* \"#utility.yul\":2562:2576   */\n  lt\n    /* \"#utility.yul\":2555:2675   */\n  iszero\n  tag_58\n  jumpi\n    /* \"#utility.yul\":2626:2665   */\n  tag_59\n    /* \"#utility.yul\":2663:2664   */\n  0x00\n    /* \"#utility.yul\":2656:2661   */\n  dup3\n    /* \"#utility.yul\":2626:2665   */\n  tag_20\n  jump\t// in\ntag_59:\n    /* \"#utility.yul\":2599:2600   */\n  0x01\n    /* \"#utility.yul\":2592:2597   */\n  dup2\n    /* \"#utility.yul\":2588:2601   */\n  add\n    /* \"#utility.yul\":2579:2601   */\n  swap1\n  pop\n    /* \"#utility.yul\":2555:2675   */\n  jump(tag_56)\ntag_58:\n    /* \"#utility.yul\":2495:2681   */\n  pop\n  pop\n  jump\t// out\n    /* \"#utility.yul\":2687:3230   */\ntag_22:\n    /* \"#utility.yul\":2788:2790   */\n  0x1f\n    /* \"#utility.yul\":2783:2786   */\n  dup3\n    /* \"#utility.yul\":2780:2791   */\n  gt\n    /* \"#utility.yul\":2777:3223   */\n  iszero\n  tag_61\n  jumpi\n    /* \"#utility.yul\":2822:2860   */\n  tag_62\n    /* \"#utility.yul\":2854:2859   */\n  dup2\n    /* \"#utility.yul\":2822:2860   */\n  tag_10\n  jump\t// in\ntag_62:\n    /* \"#utility.yul\":2906:2935   */\n  tag_63\n    /* \"#utility.yul\":2924:2934   */\n  dup5\n    /* \"#utility.yul\":2906:2935   */\n  tag_11\n  jump\t// in\ntag_63:\n    /* \"#utility.yul\":2896:2904   */\n  dup2\n    /* \"#utility.yul\":2892:2936   */\n  add\n    /* \"#utility.yul\":3089:3091   */\n  0x20\n    /* \"#utility.yul\":3077:3087   */\n  dup6\n    /* \"#utility.yul\":3074:3092   */\n  lt\n    /* \"#utility.yul\":3071:3120   */\n  iszero\n  tag_64\n  jumpi\n    /* \"#utility.yul\":3110:3118   */\n  dup2\n    /* \"#utility.yul\":3095:3118   */\n  swap1\n  pop\n    /* \"#utility.yul\":3071:3120   */\ntag_64:\n    /* \"#utility.yul\":3133:3213   */\n  tag_65\n    /* \"#utility.yul\":3189:3211   */\n  tag_66\n    /* \"#utility.yul\":3207:3210   */\n  dup6\n    /* \"#utility.yul\":3189:3211   */\n  tag_11\n  jump\t// in\ntag_66:\n    /* \"#utility.yul\":3179:3187   */\n  dup4\n    /* \"#utility.yul\":3175:3212   */\n  add\n    /* \"#utility.yul\":3162:3173   */\n  dup3\n    /* \"#utility.yul\":3133:3213   */\n  tag_21\n  jump\t// in\ntag_65:\n    /* \"#utility.yul\":2792:3223   */\n  pop\n  pop\n    /* \"#utility.yul\":2777:3223   */\ntag_61:\n    /* \"#utility.yul\":2687:3230   */\n  pop\n  pop\n  pop\n  jump\t// out\n    /* \"#utility.yul\":3236:3353   */\ntag_23:\n    /* \"#utility.yul\":3290:3298   */\n  0x00\n    /* \"#utility.yul\":3340:3345   */\n  dup3\n    /* \"#utility.yul\":3334:3338   */\n  dup3\n    /* \"#utility.yul\":3330:3346   */\n  shr\n    /* \"#utility.yul\":3309:3346   */\n  swap1\n  pop\n    /* \"#utility.yul\":3236:3353   */\n  swap3\n  swap2\n  pop\n  pop\n  jump\t// out\n    /* \"#utility.yul\":3359:3528   */\ntag_24:\n    /* \"#utility.yul\":3403:3409   */\n  0x00\n    /* \"#utility.yul\":3436:3487   */\n  tag_69\n    /* \"#utility.yul\":3484:3485   */\n  0x00\n    /* \"#utility.yul\":3480:3486   */\n  not\n    /* \"#utility.yul\":3472:3477   */\n  dup5\n    /* \"#utility.yul\":3469:3470   */\n  0x08\n    /* \"#utility.yul\":3465:3478   */\n  mul\n    /* \"#utility.yul\":3436:3487   */\n  tag_23\n  jump\t// in\ntag_69:\n    /* \"#utility.yul\":3432:3488   */\n  not\n    /* \"#utility.yul\":3517:3521   */\n  dup1\n    /* \"#utility.yul\":3511:3515   */\n  dup4\n    /* \"#utility.yul\":3507:3522   */\n  and\n    /* \"#utility.yul\":3497:3522   */\n  swap2\n  pop\n    /* \"#utility.yul\":3410:3528   */\n  pop\n    /* \"#utility.yul\":3359:3528   */\n  swap3\n  swap2\n  pop\n  pop\n  jump\t// out\n    /* \"#utility.yul\":3533:3828   */\ntag_25:\n    /* \"#utility.yul\":3609:3613   */\n  0x00\n    /* \"#utility.yul\":3755:3784   */\n  tag_71\n    /* \"#utility.yul\":3780:3783   */\n  dup4\n    /* \"#utility.yul\":3774:3778   */\n  dup4\n    /* \"#utility.yul\":3755:3784   */\n  tag_24\n  jump\t// in\ntag_71:\n    /* \"#utility.yul\":3747:3784   */\n  swap2\n  pop\n    /* \"#utility.yul\":3817:3820   */\n  dup3\n    /* \"#utility.yul\":3814:3815   */\n  0x02\n    /* \"#utility.yul\":3810:3821   */\n  mul\n    /* \"#utility.yul\":3804:3808   */\n  dup3\n    /* \"#utility.yul\":3801:3822   */\n  or\n    /* \"#utility.yul\":3793:3822   */\n  swap1\n  pop\n    /* \"#utility.yul\":3533:3828   */\n  swap3\n  swap2\n  pop\n  pop\n  jump\t// out\n    /* \"#utility.yul\":3833:5228   */\ntag_2:\n    /* \"#utility.yul\":3950:3987   */\n  tag_73\n    /* \"#utility.yul\":3983:3986   */\n  dup3\n    /* \"#utility.yul\":3950:3987   */\n  tag_6\n  jump\t// in\ntag_73:\n    /* \"#utility.yul\":4052:4070   */\n  0xffffffffffffffff\n    /* \"#utility.yul\":4044:4050   */\n  dup2\n    /* \"#utility.yul\":4041:4071   */\n  gt\n    /* \"#utility.yul\":4038:4094   */\n  iszero\n  tag_74\n  jumpi\n    /* \"#utility.yul\":4074:4092   */\n  tag_75\n  tag_7\n  jump\t// in\ntag_75:\n    /* \"#utility.yul\":4038:4094   */\ntag_74:\n    /* \"#utility.yul\":4118:4156   */\n  tag_76\n    /* \"#utility.yul\":4150:4154   */\n  dup3\n    /* \"#utility.yul\":4144:4155   */\n  sload\n    /* \"#utility.yul\":4118:4156   */\n  tag_9\n  jump\t// in\ntag_76:\n    /* \"#utility.yul\":4203:4270   */\n  tag_77\n    /* \"#utility.yul\":4263:4269   */\n  dup3\n    /* \"#utility.yul\":4255:4261   */\n  dup3\n    /* \"#utility.yul\":4249:4253   */\n  dup6\n    /* \"#utility.yul\":4203:4270   */\n  tag_22\n  jump\t// in\ntag_77:\n    /* \"#utility.yul\":4297:4298   */\n  0x00\n    /* \"#utility.yul\":4321:4325   */\n  0x20\n    /* \"#utility.yul\":4308:4325   */\n  swap1\n  pop\n    /* \"#utility.yul\":4353:4355   */\n  0x1f\n    /* \"#utility.yul\":4345:4351   */\n  dup4\n    /* \"#utility.yul\":4342:4356   */\n  gt\n    /* \"#utility.yul\":4370:4371   */\n  0x01\n    /* \"#utility.yul\":4365:4983   */\n  dup2\n  eq\n  tag_79\n  jumpi\n    /* \"#utility.yul\":5027:5028   */\n  0x00\n    /* \"#utility.yul\":5044:5050   */\n  dup5\n    /* \"#utility.yul\":5041:5118   */\n  iszero\n  tag_80\n  jumpi\n    /* \"#utility.yul\":5093:5102   */\n  dup3\n    /* \"#utility.yul\":5088:5091   */\n  dup8\n    /* \"#utility.yul\":5084:5103   */\n  add\n    /* \"#utility.yul\":5078:5104   */\n  mload\n    /* \"#utility.yul\":5069:5104   */\n  swap1\n  pop\n    /* \"#utility.yul\":5041:5118   */\ntag_80:\n    /* \"#utility.yul\":5144:5211   */\n  tag_81\n    /* \"#utility.yul\":5204:5210   */\n  dup6\n    /* \"#utility.yul\":5197:5202   */\n  dup3\n    /* \"#utility.yul\":5144:5211   */\n  tag_25\n  jump\t// in\ntag_81:\n    /* \"#utility.yul\":5138:5142   */\n  dup7\n    /* \"#utility.yul\":5131:5212   */\n  sstore\n    /* \"#utility.yul\":5000:5222   */\n  pop\n    /* \"#utility.yul\":4335:5222   */\n  jump(tag_78)\n    /* \"#utility.yul\":4365:4983   */\ntag_79:\n    /* \"#utility.yul\":4417:4421   */\n  0x1f\n    /* \"#utility.yul\":4413:4422   */\n  not\n    /* \"#utility.yul\":4405:4411   */\n  dup5\n    /* \"#utility.yul\":4401:4423   */\n  and\n    /* \"#utility.yul\":4451:4488   */\n  tag_82\n    /* \"#utility.yul\":4483:4487   */\n  dup7\n    /* \"#utility.yul\":4451:4488   */\n  tag_10\n  jump\t// in\ntag_82:\n    /* \"#utility.yul\":4510:4511   */\n  0x00\n    /* \"#utility.yul\":4524:4732   */\ntag_83:\n    /* \"#utility.yul\":4538:4545   */\n  dup3\n    /* \"#utility.yul\":4535:4536   */\n  dup2\n    /* \"#utility.yul\":4532:4546   */\n  lt\n    /* \"#utility.yul\":4524:4732   */\n  iszero\n  tag_85\n  jumpi\n    /* \"#utility.yul\":4617:4626   */\n  dup5\n    /* \"#utility.yul\":4612:4615   */\n  dup10\n    /* \"#utility.yul\":4608:4627   */\n  add\n    /* \"#utility.yul\":4602:4628   */\n  mload\n    /* \"#utility.yul\":4594:4600   */\n  dup3\n    /* \"#utility.yul\":4587:4629   */\n  sstore\n    /* \"#utility.yul\":4668:4669   */\n  0x01\n    /* \"#utility.yul\":4660:4666   */\n  dup3\n    /* \"#utility.yul\":4656:4670   */\n  add\n    /* \"#utility.yul\":4646:4670   */\n  swap2\n  pop\n    /* \"#utility.yul\":4715:4717   */\n  0x20\n    /* \"#utility.yul\":4704:4713   */\n  dup6\n    /* \"#utility.yul\":4700:4718   */\n  add\n    /* \"#utility.yul\":4687:4718   */\n  swap5\n  pop\n    /* \"#utility.yul\":4561:4565   */\n  0x20\n    /* \"#utility.yul\":4558:4559   */\n  dup2\n    /* \"#utility.yul\":4554:4566   */\n  add\n    /* \"#utility.yul\":4549:4566   */\n  swap1\n  pop\n    /* \"#utility.yul\":4524:4732   */\n  jump(tag_83)\ntag_85:\n    /* \"#utility.yul\":4760:4766   */\n  dup7\n    /* \"#utility.yul\":4751:4758   */\n  dup4\n    /* \"#utility.yul\":4748:4767   */\n  lt\n    /* \"#utility.yul\":4745:4924   */\n  iszero\n  tag_86\n  jumpi\n    /* \"#utility.yul\":4818:4827   */\n  dup5\n    /* \"#utility.yul\":4813:4816   */\n  dup10\n    /* \"#utility.yul\":4809:4828   */\n  add\n    /* \"#utility.yul\":4803:4829   */\n  mload\n    /* \"#utility.yul\":4861:4909   */\n  tag_87\n    /* \"#utility.yul\":4903:4907   */\n  0x1f\n    /* \"#utility.yul\":4895:4901   */\n  dup10\n    /* \"#utility.yul\":4891:4908   */\n  and\n    /* \"#utility.yul\":4880:4889   */\n  dup3\n    /* \"#utility.yul\":4861:4909   */\n  tag_24\n  jump\t// in\ntag_87:\n    /* \"#utility.yul\":4853:4859   */\n  dup4\n    /* \"#utility.yul\":4846:4910   */\n  sstore\n    /* \"#utility.yul\":4768:4924   */\n  pop\n    /* \"#utility.yul\":4745:4924   */\ntag_86:\n    /* \"#utility.yul\":4970:4971   */\n  0x01\n    /* \"#utility.yul\":4966:4967   */\n  0x02\n    /* \"#utility.yul\":4958:4964   */\n  dup9\n    /* \"#utility.yul\":4954:4968   */\n  mul\n    /* \"#utility.yul\":4950:4972   */\n  add\n    /* \"#utility.yul\":4944:4948   */\n  dup9\n    /* \"#utility.yul\":4937:4973   */\n  sstore\n    /* \"#utility.yul\":4372:4983   */\n  pop\n  pop\n  pop\n    /* \"#utility.yul\":4335:5222   */\ntag_78:\n  pop\n    /* \"#utility.yul\":3925:5228   */\n  pop\n  pop\n  pop\n    /* \"#utility.yul\":3833:5228   */\n  pop\n  pop\n  jump\t// out\n    /* \"wmbFit.sol\":1231:5493  contract wmbFit is IERC20 {... */\ntag_5:\n  dataSize(sub_0)\n  dup1\n  dataOffset(sub_0)\n  0x00\n  codecopy\n  0x00\n  return\nstop\n\nsub_0: assembly {\n        /* \"wmbFit.sol\":1231:5493  contract wmbFit is IERC20 {... */\n      mstore(0x40, 0x80)\n      callvalue\n      dup1\n      iszero\n      tag_1\n      jumpi\n      0x00\n      dup1\n      revert\n    tag_1:\n      pop\n      jumpi(tag_2, lt(calldatasize, 0x04))\n      shr(0xe0, calldataload(0x00))\n      dup1\n      0x70a08231\n      gt\n      tag_22\n      jumpi\n      dup1\n      0xa2bdedf4\n      gt\n      tag_23\n      jumpi\n      dup1\n      0xa2bdedf4\n      eq\n      tag_17\n      jumpi\n      dup1\n      0xa36e6577\n      eq\n      tag_18\n      jumpi\n      dup1\n      0xa9059cbb\n      eq\n      tag_19\n      jumpi\n      dup1\n      0xc47f0027\n      eq\n      tag_20\n      jumpi\n      dup1\n      0xdd62ed3e\n      eq\n      tag_21\n      jumpi\n      jump(tag_2)\n    tag_23:\n      dup1\n      0x70a08231\n      eq\n      tag_12\n      jumpi\n      dup1\n      0x75ce46a7\n      eq\n      tag_13\n      jumpi\n      dup1\n      0x7c69710f\n      eq\n      tag_14\n      jumpi\n      dup1\n      0x95d89b41\n      eq\n      tag_15\n      jumpi\n      dup1\n      0xa0712d68\n      eq\n      tag_16\n      jumpi\n      jump(tag_2)\n    tag_22:\n      dup1\n      0x23b872dd\n      gt\n      tag_24\n      jumpi\n      dup1\n      0x23b872dd\n      eq\n      tag_7\n      jumpi\n      dup1\n      0x313ce567\n      eq\n      tag_8\n      jumpi\n      dup1\n      0x42966c68\n      eq\n      tag_9\n      jumpi\n      dup1\n      0x4e863271\n      eq\n      tag_10\n      jumpi\n      dup1\n      0x50702ec9\n      eq\n      tag_11\n      jumpi\n      jump(tag_2)\n    tag_24:\n      dup1\n      0x06fdde03\n      eq\n      tag_3\n      jumpi\n      dup1\n      0x095ea7b3\n      eq\n      tag_4\n      jumpi\n      dup1\n      0x0b755556\n      eq\n      tag_5\n      jumpi\n      dup1\n      0x18160ddd\n      eq\n      tag_6\n      jumpi\n    tag_2:\n      0x00\n      dup1\n      revert\n        /* \"wmbFit.sol\":1410:1439  string public name = \"WMBFit\" */\n    tag_3:\n      tag_25\n      tag_26\n      jump\t// in\n    tag_25:\n      mload(0x40)\n      tag_27\n      swap2\n      swap1\n      tag_28\n      jump\t// in\n    tag_27:\n      mload(0x40)\n      dup1\n      swap2\n      sub\n      swap1\n      return\n        /* \"wmbFit.sol\":2411:2673  function approve(address spender, uint amount) external returns (bool){... */\n    tag_4:\n      tag_29\n      0x04\n      dup1\n      calldatasize\n      sub\n      dup2\n      add\n      swap1\n      tag_30\n      swap2\n      swap1\n      tag_31\n      jump\t// in\n    tag_30:\n      tag_32\n      jump\t// in\n    tag_29:\n      mload(0x40)\n      tag_33\n      swap2\n      swap1\n      tag_34\n      jump\t// in\n    tag_33:\n      mload(0x40)\n      dup1\n      swap2\n      sub\n      swap1\n      return\n        /* \"wmbFit.sol\":1698:1742  mapping(address => string) public personName */\n    tag_5:\n      tag_35\n      0x04\n      dup1\n      calldatasize\n      sub\n      dup2\n      add\n      swap1\n      tag_36\n      swap2\n      swap1\n      tag_37\n      jump\t// in\n    tag_36:\n      tag_38\n      jump\t// in\n    tag_35:\n      mload(0x40)\n      tag_39\n      swap2\n      swap1\n      tag_28\n      jump\t// in\n    tag_39:\n      mload(0x40)\n      dup1\n      swap2\n      sub\n      swap1\n      return\n        /* \"wmbFit.sol\":1264:1287  uint public totalSupply */\n    tag_6:\n      tag_40\n      tag_41\n      jump\t// in\n    tag_40:\n      mload(0x40)\n      tag_42\n      swap2\n      swap1\n      tag_43\n      jump\t// in\n    tag_42:\n      mload(0x40)\n      dup1\n      swap2\n      sub\n      swap1\n      return\n        /* \"wmbFit.sol\":2796:3159  function transferFrom(address sender, address recipient, uint amount) external returns (bool){... */\n    tag_7:\n      tag_44\n      0x04\n      dup1\n      calldatasize\n      sub\n      dup2\n      add\n      swap1\n      tag_45\n      swap2\n      swap1\n      tag_46\n      jump\t// in\n    tag_45:\n      tag_47\n      jump\t// in\n    tag_44:\n      mload(0x40)\n      tag_48\n      swap2\n      swap1\n      tag_34\n      jump\t// in\n    tag_48:\n      mload(0x40)\n      dup1\n      swap2\n      sub\n      swap1\n      return\n        /* \"wmbFit.sol\":1481:1506  uint8 public decimals = 2 */\n    tag_8:\n      tag_49\n      tag_50\n      jump\t// in\n    tag_49:\n      mload(0x40)\n      tag_51\n      swap2\n      swap1\n      tag_52\n      jump\t// in\n    tag_51:\n      mload(0x40)\n      dup1\n      swap2\n      sub\n      swap1\n      return\n        /* \"wmbFit.sol\":4312:4547  function burn(uint amount) external {... */\n    tag_9:\n      tag_53\n      0x04\n      dup1\n      calldatasize\n      sub\n      dup2\n      add\n      swap1\n      tag_54\n      swap2\n      swap1\n      tag_55\n      jump\t// in\n    tag_54:\n      tag_56\n      jump\t// in\n    tag_53:\n      stop\n        /* \"wmbFit.sol\":2682:2788  function setPersonName(string calldata person) external {... */\n    tag_10:\n      tag_57\n      0x04\n      dup1\n      calldatasize\n      sub\n      dup2\n      add\n      swap1\n      tag_58\n      swap2\n      swap1\n      tag_59\n      jump\t// in\n    tag_58:\n      tag_60\n      jump\t// in\n    tag_57:\n      stop\n        /* \"wmbFit.sol\":1513:1554  mapping(address => uint) public startDate */\n    tag_11:\n      tag_61\n      0x04\n      dup1\n      calldatasize\n      sub\n      dup2\n      add\n      swap1\n      tag_62\n      swap2\n      swap1\n      tag_37\n      jump\t// in\n    tag_62:\n      tag_63\n      jump\t// in\n    tag_61:\n      mload(0x40)\n      tag_64\n      swap2\n      swap1\n      tag_43\n      jump\t// in\n    tag_64:\n      mload(0x40)\n      dup1\n      swap2\n      sub\n      swap1\n      return\n        /* \"wmbFit.sol\":1294:1335  mapping(address => uint) public balanceOf */\n    tag_12:\n      tag_65\n      0x04\n      dup1\n      calldatasize\n      sub\n      dup2\n      add\n      swap1\n      tag_66\n      swap2\n      swap1\n      tag_37\n      jump\t// in\n    tag_66:\n      tag_67\n      jump\t// in\n    tag_65:\n      mload(0x40)\n      tag_68\n      swap2\n      swap1\n      tag_43\n      jump\t// in\n    tag_68:\n      mload(0x40)\n      dup1\n      swap2\n      sub\n      swap1\n      return\n        /* \"wmbFit.sol\":1567:1597  uint8 public numberOfUsers = 0 */\n    tag_13:\n      tag_69\n      tag_70\n      jump\t// in\n    tag_69:\n      mload(0x40)\n      tag_71\n      swap2\n      swap1\n      tag_52\n      jump\t// in\n    tag_71:\n      mload(0x40)\n      dup1\n      swap2\n      sub\n      swap1\n      return\n        /* \"wmbFit.sol\":5275:5488  function setStartDate() external{... */\n    tag_14:\n      tag_72\n      tag_73\n      jump\t// in\n    tag_72:\n      stop\n        /* \"wmbFit.sol\":1446:1474  string public symbol = \"WMB\" */\n    tag_15:\n      tag_74\n      tag_75\n      jump\t// in\n    tag_74:\n      mload(0x40)\n      tag_76\n      swap2\n      swap1\n      tag_28\n      jump\t// in\n    tag_76:\n      mload(0x40)\n      dup1\n      swap2\n      sub\n      swap1\n      return\n        /* \"wmbFit.sol\":3192:3656  function mint(uint amount) external {... */\n    tag_16:\n      tag_77\n      0x04\n      dup1\n      calldatasize\n      sub\n      dup2\n      add\n      swap1\n      tag_78\n      swap2\n      swap1\n      tag_55\n      jump\t// in\n    tag_78:\n      tag_79\n      jump\t// in\n    tag_77:\n      stop\n        /* \"wmbFit.sol\":1604:1629  address[] public allUsers */\n    tag_17:\n      tag_80\n      0x04\n      dup1\n      calldatasize\n      sub\n      dup2\n      add\n      swap1\n      tag_81\n      swap2\n      swap1\n      tag_55\n      jump\t// in\n    tag_81:\n      tag_82\n      jump\t// in\n    tag_80:\n      mload(0x40)\n      tag_83\n      swap2\n      swap1\n      tag_84\n      jump\t// in\n    tag_83:\n      mload(0x40)\n      dup1\n      swap2\n      sub\n      swap1\n      return\n        /* \"wmbFit.sol\":1872:1897  scores[10] public leaders */\n    tag_18:\n      tag_85\n      0x04\n      dup1\n      calldatasize\n      sub\n      dup2\n      add\n      swap1\n      tag_86\n      swap2\n      swap1\n      tag_55\n      jump\t// in\n    tag_86:\n      tag_87\n      jump\t// in\n    tag_85:\n      mload(0x40)\n      tag_88\n      swap4\n      swap3\n      swap2\n      swap1\n      tag_89\n      jump\t// in\n    tag_88:\n      mload(0x40)\n      dup1\n      swap2\n      sub\n      swap1\n      return\n        /* \"wmbFit.sol\":2102:2403  function transfer (address recipient, uint amount) external returns (bool){... */\n    tag_19:\n      tag_90\n      0x04\n      dup1\n      calldatasize\n      sub\n      dup2\n      add\n      swap1\n      tag_91\n      swap2\n      swap1\n      tag_31\n      jump\t// in\n    tag_91:\n      tag_92\n      jump\t// in\n    tag_90:\n      mload(0x40)\n      tag_93\n      swap2\n      swap1\n      tag_34\n      jump\t// in\n    tag_93:\n      mload(0x40)\n      dup1\n      swap2\n      sub\n      swap1\n      return\n        /* \"wmbFit.sol\":5170:5267  function setName(string calldata Pname) external{... */\n    tag_20:\n      tag_94\n      0x04\n      dup1\n      calldatasize\n      sub\n      dup2\n      add\n      swap1\n      tag_95\n      swap2\n      swap1\n      tag_59\n      jump\t// in\n    tag_95:\n      tag_96\n      jump\t// in\n    tag_94:\n      stop\n        /* \"wmbFit.sol\":1342:1403  mapping(address => mapping(address => uint)) public allowance */\n    tag_21:\n      tag_97\n      0x04\n      dup1\n      calldatasize\n      sub\n      dup2\n      add\n      swap1\n      tag_98\n      swap2\n      swap1\n      tag_99\n      jump\t// in\n    tag_98:\n      tag_100\n      jump\t// in\n    tag_97:\n      mload(0x40)\n      tag_101\n      swap2\n      swap1\n      tag_43\n      jump\t// in\n    tag_101:\n      mload(0x40)\n      dup1\n      swap2\n      sub\n      swap1\n      return\n        /* \"wmbFit.sol\":1410:1439  string public name = \"WMBFit\" */\n    tag_26:\n      0x03\n      dup1\n      sload\n      tag_102\n      swap1\n      tag_103\n      jump\t// in\n    tag_102:\n      dup1\n      0x1f\n      add\n      0x20\n      dup1\n      swap2\n      div\n      mul\n      0x20\n      add\n      mload(0x40)\n      swap1\n      dup2\n      add\n      0x40\n      mstore\n      dup1\n      swap3\n      swap2\n      swap1\n      dup2\n      dup2\n      mstore\n      0x20\n      add\n      dup3\n      dup1\n      sload\n      tag_104\n      swap1\n      tag_103\n      jump\t// in\n    tag_104:\n      dup1\n      iszero\n      tag_105\n      jumpi\n      dup1\n      0x1f\n      lt\n      tag_106\n      jumpi\n      0x0100\n      dup1\n      dup4\n      sload\n      div\n      mul\n      dup4\n      mstore\n      swap2\n      0x20\n      add\n      swap2\n      jump(tag_105)\n    tag_106:\n      dup3\n      add\n      swap2\n      swap1\n      0x00\n      mstore\n      keccak256(0x00, 0x20)\n      swap1\n    tag_107:\n      dup2\n      sload\n      dup2\n      mstore\n      swap1\n      0x01\n      add\n      swap1\n      0x20\n      add\n      dup1\n      dup4\n      gt\n      tag_107\n      jumpi\n      dup3\n      swap1\n      sub\n      0x1f\n      and\n      dup3\n      add\n      swap2\n    tag_105:\n      pop\n      pop\n      pop\n      pop\n      pop\n      dup2\n      jump\t// out\n        /* \"wmbFit.sol\":2411:2673  function approve(address spender, uint amount) external returns (bool){... */\n    tag_32:\n        /* \"wmbFit.sol\":2476:2480  bool */\n      0x00\n        /* \"wmbFit.sol\":2510:2513  100 */\n      0x64\n        /* \"wmbFit.sol\":2500:2506  amount */\n      dup3\n        /* \"wmbFit.sol\":2500:2513  amount <= 100 */\n      gt\n      iszero\n        /* \"wmbFit.sol\":2492:2540  require(amount <= 100,  \"Maximum approval of 1\") */\n      tag_109\n      jumpi\n      mload(0x40)\n      0x08c379a000000000000000000000000000000000000000000000000000000000\n      dup2\n      mstore\n      0x04\n      add\n      tag_110\n      swap1\n      tag_111\n      jump\t// in\n    tag_110:\n      mload(0x40)\n      dup1\n      swap2\n      sub\n      swap1\n      revert\n    tag_109:\n        /* \"wmbFit.sol\":2584:2590  amount */\n      dup2\n        /* \"wmbFit.sol\":2551:2560  allowance */\n      0x02\n        /* \"wmbFit.sol\":2551:2572  allowance[msg.sender] */\n      0x00\n        /* \"wmbFit.sol\":2561:2571  msg.sender */\n      caller\n        /* \"wmbFit.sol\":2551:2572  allowance[msg.sender] */\n      0xffffffffffffffffffffffffffffffffffffffff\n      and\n      0xffffffffffffffffffffffffffffffffffffffff\n      and\n      dup2\n      mstore\n      0x20\n      add\n      swap1\n      dup2\n      mstore\n      0x20\n      add\n      0x00\n      keccak256\n        /* \"wmbFit.sol\":2551:2581  allowance[msg.sender][spender] */\n      0x00\n        /* \"wmbFit.sol\":2573:2580  spender */\n      dup6\n        /* \"wmbFit.sol\":2551:2581  allowance[msg.sender][spender] */\n      0xffffffffffffffffffffffffffffffffffffffff\n      and\n      0xffffffffffffffffffffffffffffffffffffffff\n      and\n      dup2\n      mstore\n      0x20\n      add\n      swap1\n      dup2\n      mstore\n      0x20\n      add\n      0x00\n      keccak256\n        /* \"wmbFit.sol\":2551:2590  allowance[msg.sender][spender] = amount */\n      dup2\n      swap1\n      sstore\n      pop\n        /* \"wmbFit.sol\":2627:2634  spender */\n      dup3\n        /* \"wmbFit.sol\":2606:2643  Approval(msg.sender, spender, amount) */\n      0xffffffffffffffffffffffffffffffffffffffff\n      and\n        /* \"wmbFit.sol\":2615:2625  msg.sender */\n      caller\n        /* \"wmbFit.sol\":2606:2643  Approval(msg.sender, spender, amount) */\n      0xffffffffffffffffffffffffffffffffffffffff\n      and\n      0x8c5be1e5ebec7d5bd14f71427d1e84f3dd0314c0f7b2291e5b200ac8c7c3b925\n        /* \"wmbFit.sol\":2636:2642  amount */\n      dup5\n        /* \"wmbFit.sol\":2606:2643  Approval(msg.sender, spender, amount) */\n      mload(0x40)\n      tag_112\n      swap2\n      swap1\n      tag_43\n      jump\t// in\n    tag_112:\n      mload(0x40)\n      dup1\n      swap2\n      sub\n      swap1\n      log3\n        /* \"wmbFit.sol\":2661:2665  true */\n      0x01\n        /* \"wmbFit.sol\":2654:2665  return true */\n      swap1\n      pop\n        /* \"wmbFit.sol\":2411:2673  function approve(address spender, uint amount) external returns (bool){... */\n      swap3\n      swap2\n      pop\n      pop\n      jump\t// out\n        /* \"wmbFit.sol\":1698:1742  mapping(address => string) public personName */\n    tag_38:\n      mstore(0x20, 0x09)\n      dup1\n      0x00\n      mstore\n      keccak256(0x00, 0x40)\n      0x00\n      swap2\n      pop\n      swap1\n      pop\n      dup1\n      sload\n      tag_113\n      swap1\n      tag_103\n      jump\t// in\n    tag_113:\n      dup1\n      0x1f\n      add\n      0x20\n      dup1\n      swap2\n      div\n      mul\n      0x20\n      add\n      mload(0x40)\n      swap1\n      dup2\n      add\n      0x40\n      mstore\n      dup1\n      swap3\n      swap2\n      swap1\n      dup2\n      dup2\n      mstore\n      0x20\n      add\n      dup3\n      dup1\n      sload\n      tag_114\n      swap1\n      tag_103\n      jump\t// in\n    tag_114:\n      dup1\n      iszero\n      tag_115\n      jumpi\n      dup1\n      0x1f\n      lt\n      tag_116\n      jumpi\n      0x0100\n      dup1\n      dup4\n      sload\n      div\n      mul\n      dup4\n      mstore\n      swap2\n      0x20\n      add\n      swap2\n      jump(tag_115)\n    tag_116:\n      dup3\n      add\n      swap2\n      swap1\n      0x00\n      mstore\n      keccak256(0x00, 0x20)\n      swap1\n    tag_117:\n      dup2\n      sload\n      dup2\n      mstore\n      swap1\n      0x01\n      add\n      swap1\n      0x20\n      add\n      dup1\n      dup4\n      gt\n      tag_117\n      jumpi\n      dup3\n      swap1\n      sub\n      0x1f\n      and\n      dup3\n      add\n      swap2\n    tag_115:\n      pop\n      pop\n      pop\n      pop\n      pop\n      dup2\n      jump\t// out\n        /* \"wmbFit.sol\":1264:1287  uint public totalSupply */\n    tag_41:\n      sload(0x00)\n      dup2\n      jump\t// out\n        /* \"wmbFit.sol\":2796:3159  function transferFrom(address sender, address recipient, uint amount) external returns (bool){... */\n    tag_47:\n        /* \"wmbFit.sol\":2884:2888  bool */\n      0x00\n        /* \"wmbFit.sol\":2918:2920  10 */\n      0x0a\n        /* \"wmbFit.sol\":2908:2914  amount */\n      dup3\n        /* \"wmbFit.sol\":2908:2920  amount <= 10 */\n      gt\n      iszero\n        /* \"wmbFit.sol\":2900:2949  require(amount <= 10,  \"Maximum transfer of 0.1\") */\n      tag_119\n      jumpi\n      mload(0x40)\n      0x08c379a000000000000000000000000000000000000000000000000000000000\n      dup2\n      mstore\n      0x04\n      add\n      tag_120\n      swap1\n      tag_121\n      jump\t// in\n    tag_120:\n      mload(0x40)\n      dup1\n      swap2\n      sub\n      swap1\n      revert\n    tag_119:\n        /* \"wmbFit.sol\":2993:2999  amount */\n      dup2\n        /* \"wmbFit.sol\":2960:2969  allowance */\n      0x02\n        /* \"wmbFit.sol\":2960:2977  allowance[sender] */\n      0x00\n        /* \"wmbFit.sol\":2970:2976  sender */\n      dup7\n        /* \"wmbFit.sol\":2960:2977  allowance[sender] */\n      0xffffffffffffffffffffffffffffffffffffffff\n      and\n      0xffffffffffffffffffffffffffffffffffffffff\n      and\n      dup2\n      mstore\n      0x20\n      add\n      swap1\n      dup2\n      mstore\n      0x20\n      add\n      0x00\n      keccak256\n        /* \"wmbFit.sol\":2960:2989  allowance[sender][msg.sender] */\n      0x00\n        /* \"wmbFit.sol\":2978:2988  msg.sender */\n      caller\n        /* \"wmbFit.sol\":2960:2989  allowance[sender][msg.sender] */\n      0xffffffffffffffffffffffffffffffffffffffff\n      and\n      0xffffffffffffffffffffffffffffffffffffffff\n      and\n      dup2\n      mstore\n      0x20\n      add\n      swap1\n      dup2\n      mstore\n      0x20\n      add\n      0x00\n      keccak256\n      0x00\n        /* \"wmbFit.sol\":2960:2999  allowance[sender][msg.sender] -= amount */\n      dup3\n      dup3\n      sload\n      tag_122\n      swap2\n      swap1\n      tag_123\n      jump\t// in\n    tag_122:\n      swap3\n      pop\n      pop\n      dup2\n      swap1\n      sstore\n      pop\n        /* \"wmbFit.sol\":3031:3037  amount */\n      dup2\n        /* \"wmbFit.sol\":3010:3019  balanceOf */\n      0x01\n        /* \"wmbFit.sol\":3010:3027  balanceOf[sender] */\n      0x00\n        /* \"wmbFit.sol\":3020:3026  sender */\n      dup7\n        /* \"wmbFit.sol\":3010:3027  balanceOf[sender] */\n      0xffffffffffffffffffffffffffffffffffffffff\n      and\n      0xffffffffffffffffffffffffffffffffffffffff\n      and\n      dup2\n      mstore\n      0x20\n      add\n      swap1\n      dup2\n      mstore\n      0x20\n      add\n      0x00\n      keccak256\n      0x00\n        /* \"wmbFit.sol\":3010:3037  balanceOf[sender] -= amount */\n      dup3\n      dup3\n      sload\n      tag_124\n      swap2\n      swap1\n      tag_123\n      jump\t// in\n    tag_124:\n      swap3\n      pop\n      pop\n      dup2\n      swap1\n      sstore\n      pop\n        /* \"wmbFit.sol\":3072:3078  amount */\n      dup2\n        /* \"wmbFit.sol\":3048:3057  balanceOf */\n      0x01\n        /* \"wmbFit.sol\":3048:3068  balanceOf[recipient] */\n      0x00\n        /* \"wmbFit.sol\":3058:3067  recipient */\n      dup6\n        /* \"wmbFit.sol\":3048:3068  balanceOf[recipient] */\n      0xffffffffffffffffffffffffffffffffffffffff\n      and\n      0xffffffffffffffffffffffffffffffffffffffff\n      and\n      dup2\n      mstore\n      0x20\n      add\n      swap1\n      dup2\n      mstore\n      0x20\n      add\n      0x00\n      keccak256\n      0x00\n        /* \"wmbFit.sol\":3048:3078  balanceOf[recipient] += amount */\n      dup3\n      dup3\n      sload\n      tag_125\n      swap2\n      swap1\n      tag_126\n      jump\t// in\n    tag_125:\n      swap3\n      pop\n      pop\n      dup2\n      swap1\n      sstore\n      pop\n        /* \"wmbFit.sol\":3111:3120  recipient */\n      dup3\n        /* \"wmbFit.sol\":3094:3129  Transfer(sender, recipient, amount) */\n      0xffffffffffffffffffffffffffffffffffffffff\n      and\n        /* \"wmbFit.sol\":3103:3109  sender */\n      dup5\n        /* \"wmbFit.sol\":3094:3129  Transfer(sender, recipient, amount) */\n      0xffffffffffffffffffffffffffffffffffffffff\n      and\n      0xddf252ad1be2c89b69c2b068fc378daa952ba7f163c4a11628f55a4df523b3ef\n        /* \"wmbFit.sol\":3122:3128  amount */\n      dup5\n        /* \"wmbFit.sol\":3094:3129  Transfer(sender, recipient, amount) */\n      mload(0x40)\n      tag_127\n      swap2\n      swap1\n      tag_43\n      jump\t// in\n    tag_127:\n      mload(0x40)\n      dup1\n      swap2\n      sub\n      swap1\n      log3\n        /* \"wmbFit.sol\":3147:3151  true */\n      0x01\n        /* \"wmbFit.sol\":3140:3151  return true */\n      swap1\n      pop\n        /* \"wmbFit.sol\":2796:3159  function transferFrom(address sender, address recipient, uint amount) external returns (bool){... */\n      swap4\n      swap3\n      pop\n      pop\n      pop\n      jump\t// out\n        /* \"wmbFit.sol\":1481:1506  uint8 public decimals = 2 */\n    tag_50:\n      0x05\n      0x00\n      swap1\n      sload\n      swap1\n      0x0100\n      exp\n      swap1\n      div\n      0xff\n      and\n      dup2\n      jump\t// out\n        /* \"wmbFit.sol\":4312:4547  function burn(uint amount) external {... */\n    tag_56:\n        /* \"wmbFit.sol\":4384:4390  amount */\n      dup1\n        /* \"wmbFit.sol\":4359:4368  balanceOf */\n      0x01\n        /* \"wmbFit.sol\":4359:4380  balanceOf[msg.sender] */\n      0x00\n        /* \"wmbFit.sol\":4369:4379  msg.sender */\n      caller\n        /* \"wmbFit.sol\":4359:4380  balanceOf[msg.sender] */\n      0xffffffffffffffffffffffffffffffffffffffff\n      and\n      0xffffffffffffffffffffffffffffffffffffffff\n      and\n      dup2\n      mstore\n      0x20\n      add\n      swap1\n      dup2\n      mstore\n      0x20\n      add\n      0x00\n      keccak256\n      0x00\n        /* \"wmbFit.sol\":4359:4390  balanceOf[msg.sender] -= amount */\n      dup3\n      dup3\n      sload\n      tag_129\n      swap2\n      swap1\n      tag_123\n      jump\t// in\n    tag_129:\n      swap3\n      pop\n      pop\n      dup2\n      swap1\n      sstore\n      pop\n        /* \"wmbFit.sol\":4416:4422  amount */\n      dup1\n        /* \"wmbFit.sol\":4401:4412  totalSupply */\n      0x00\n      dup1\n        /* \"wmbFit.sol\":4401:4422  totalSupply -= amount */\n      dup3\n      dup3\n      sload\n      tag_130\n      swap2\n      swap1\n      tag_123\n      jump\t// in\n    tag_130:\n      swap3\n      pop\n      pop\n      dup2\n      swap1\n      sstore\n      pop\n        /* \"wmbFit.sol\":4467:4468  0 */\n      0x00\n        /* \"wmbFit.sol\":4438:4478  Transfer(msg.sender, address(0), amount) */\n      0xffffffffffffffffffffffffffffffffffffffff\n      and\n        /* \"wmbFit.sol\":4447:4457  msg.sender */\n      caller\n        /* \"wmbFit.sol\":4438:4478  Transfer(msg.sender, address(0), amount) */\n      0xffffffffffffffffffffffffffffffffffffffff\n      and\n      0xddf252ad1be2c89b69c2b068fc378daa952ba7f163c4a11628f55a4df523b3ef\n        /* \"wmbFit.sol\":4471:4477  amount */\n      dup4\n        /* \"wmbFit.sol\":4438:4478  Transfer(msg.sender, address(0), amount) */\n      mload(0x40)\n      tag_131\n      swap2\n      swap1\n      tag_43\n      jump\t// in\n    tag_131:\n      mload(0x40)\n      dup1\n      swap2\n      sub\n      swap1\n      log3\n        /* \"wmbFit.sol\":4489:4539  downgradeLeader(balanceOf[msg.sender], msg.sender) */\n      tag_132\n        /* \"wmbFit.sol\":4505:4514  balanceOf */\n      0x01\n        /* \"wmbFit.sol\":4505:4526  balanceOf[msg.sender] */\n      0x00\n        /* \"wmbFit.sol\":4515:4525  msg.sender */\n      caller\n        /* \"wmbFit.sol\":4505:4526  balanceOf[msg.sender] */\n      0xffffffffffffffffffffffffffffffffffffffff\n      and\n      0xffffffffffffffffffffffffffffffffffffffff\n      and\n      dup2\n      mstore\n      0x20\n      add\n      swap1\n      dup2\n      mstore\n      0x20\n      add\n      0x00\n      keccak256\n      sload\n        /* \"wmbFit.sol\":4528:4538  msg.sender */\n      caller\n        /* \"wmbFit.sol\":4489:4504  downgradeLeader */\n      tag_133\n        /* \"wmbFit.sol\":4489:4539  downgradeLeader(balanceOf[msg.sender], msg.sender) */\n      jump\t// in\n    tag_132:\n        /* \"wmbFit.sol\":4312:4547  function burn(uint amount) external {... */\n      pop\n      jump\t// out\n        /* \"wmbFit.sol\":2682:2788  function setPersonName(string calldata person) external {... */\n    tag_60:\n        /* \"wmbFit.sol\":2774:2780  person */\n      dup2\n      dup2\n        /* \"wmbFit.sol\":2749:2759  personName */\n      0x09\n        /* \"wmbFit.sol\":2749:2771  personName[msg.sender] */\n      0x00\n        /* \"wmbFit.sol\":2760:2770  msg.sender */\n      caller\n        /* \"wmbFit.sol\":2749:2771  personName[msg.sender] */\n      0xffffffffffffffffffffffffffffffffffffffff\n      and\n      0xffffffffffffffffffffffffffffffffffffffff\n      and\n      dup2\n      mstore\n      0x20\n      add\n      swap1\n      dup2\n      mstore\n      0x20\n      add\n      0x00\n      keccak256\n        /* \"wmbFit.sol\":2749:2780  personName[msg.sender] = person */\n      swap2\n      dup3\n      tag_135\n      swap3\n      swap2\n      swap1\n      tag_136\n      jump\t// in\n    tag_135:\n      pop\n        /* \"wmbFit.sol\":2682:2788  function setPersonName(string calldata person) external {... */\n      pop\n      pop\n      jump\t// out\n        /* \"wmbFit.sol\":1513:1554  mapping(address => uint) public startDate */\n    tag_63:\n      mstore(0x20, 0x06)\n      dup1\n      0x00\n      mstore\n      keccak256(0x00, 0x40)\n      0x00\n      swap2\n      pop\n      swap1\n      pop\n      sload\n      dup2\n      jump\t// out\n        /* \"wmbFit.sol\":1294:1335  mapping(address => uint) public balanceOf */\n    tag_67:\n      mstore(0x20, 0x01)\n      dup1\n      0x00\n      mstore\n      keccak256(0x00, 0x40)\n      0x00\n      swap2\n      pop\n      swap1\n      pop\n      sload\n      dup2\n      jump\t// out\n        /* \"wmbFit.sol\":1567:1597  uint8 public numberOfUsers = 0 */\n    tag_70:\n      0x07\n      0x00\n      swap1\n      sload\n      swap1\n      0x0100\n      exp\n      swap1\n      div\n      0xff\n      and\n      dup2\n      jump\t// out\n        /* \"wmbFit.sol\":5275:5488  function setStartDate() external{... */\n    tag_73:\n        /* \"wmbFit.sol\":5351:5352  0 */\n      0x00\n        /* \"wmbFit.sol\":5326:5335  startDate */\n      0x06\n        /* \"wmbFit.sol\":5326:5347  startDate[msg.sender] */\n      0x00\n        /* \"wmbFit.sol\":5336:5346  msg.sender */\n      caller\n        /* \"wmbFit.sol\":5326:5347  startDate[msg.sender] */\n      0xffffffffffffffffffffffffffffffffffffffff\n      and\n      0xffffffffffffffffffffffffffffffffffffffff\n      and\n      dup2\n      mstore\n      0x20\n      add\n      swap1\n      dup2\n      mstore\n      0x20\n      add\n      0x00\n      keccak256\n      sload\n        /* \"wmbFit.sol\":5326:5352  startDate[msg.sender] == 0 */\n      eq\n        /* \"wmbFit.sol\":5318:5353  require(startDate[msg.sender] == 0) */\n      tag_138\n      jumpi\n      0x00\n      dup1\n      revert\n    tag_138:\n        /* \"wmbFit.sol\":5464:5479  block.timestamp */\n      timestamp\n        /* \"wmbFit.sol\":5440:5449  startDate */\n      0x06\n        /* \"wmbFit.sol\":5440:5461  startDate[msg.sender] */\n      0x00\n        /* \"wmbFit.sol\":5450:5460  msg.sender */\n      caller\n        /* \"wmbFit.sol\":5440:5461  startDate[msg.sender] */\n      0xffffffffffffffffffffffffffffffffffffffff\n      and\n      0xffffffffffffffffffffffffffffffffffffffff\n      and\n      dup2\n      mstore\n      0x20\n      add\n      swap1\n      dup2\n      mstore\n      0x20\n      add\n      0x00\n      keccak256\n        /* \"wmbFit.sol\":5440:5479  startDate[msg.sender] = block.timestamp */\n      dup2\n      swap1\n      sstore\n      pop\n        /* \"wmbFit.sol\":5275:5488  function setStartDate() external{... */\n      jump\t// out\n        /* \"wmbFit.sol\":1446:1474  string public symbol = \"WMB\" */\n    tag_75:\n      0x04\n      dup1\n      sload\n      tag_139\n      swap1\n      tag_103\n      jump\t// in\n    tag_139:\n      dup1\n      0x1f\n      add\n      0x20\n      dup1\n      swap2\n      div\n      mul\n      0x20\n      add\n      mload(0x40)\n      swap1\n      dup2\n      add\n      0x40\n      mstore\n      dup1\n      swap3\n      swap2\n      swap1\n      dup2\n      dup2\n      mstore\n      0x20\n      add\n      dup3\n      dup1\n      sload\n      tag_140\n      swap1\n      tag_103\n      jump\t// in\n    tag_140:\n      dup1\n      iszero\n      tag_141\n      jumpi\n      dup1\n      0x1f\n      lt\n      tag_142\n      jumpi\n      0x0100\n      dup1\n      dup4\n      sload\n      div\n      mul\n      dup4\n      mstore\n      swap2\n      0x20\n      add\n      swap2\n      jump(tag_141)\n    tag_142:\n      dup3\n      add\n      swap2\n      swap1\n      0x00\n      mstore\n      keccak256(0x00, 0x20)\n      swap1\n    tag_143:\n      dup2\n      sload\n      dup2\n      mstore\n      swap1\n      0x01\n      add\n      swap1\n      0x20\n      add\n      dup1\n      dup4\n      gt\n      tag_143\n      jumpi\n      dup3\n      swap1\n      sub\n      0x1f\n      and\n      dup3\n      add\n      swap2\n    tag_141:\n      pop\n      pop\n      pop\n      pop\n      pop\n      dup2\n      jump\t// out\n        /* \"wmbFit.sol\":3192:3656  function mint(uint amount) external {... */\n    tag_79:\n        /* \"wmbFit.sol\":3267:3268  0 */\n      0x00\n        /* \"wmbFit.sol\":3242:3251  balanceOf */\n      0x01\n        /* \"wmbFit.sol\":3242:3263  balanceOf[msg.sender] */\n      0x00\n        /* \"wmbFit.sol\":3252:3262  msg.sender */\n      caller\n        /* \"wmbFit.sol\":3242:3263  balanceOf[msg.sender] */\n      0xffffffffffffffffffffffffffffffffffffffff\n      and\n      0xffffffffffffffffffffffffffffffffffffffff\n      and\n      dup2\n      mstore\n      0x20\n      add\n      swap1\n      dup2\n      mstore\n      0x20\n      add\n      0x00\n      keccak256\n      sload\n        /* \"wmbFit.sol\":3242:3268  balanceOf[msg.sender] == 0 */\n      eq\n        /* \"wmbFit.sol\":3242:3298  balanceOf[msg.sender] == 0 && startDate[msg.sender] == 0 */\n      dup1\n      iszero\n      tag_145\n      jumpi\n      pop\n        /* \"wmbFit.sol\":3297:3298  0 */\n      0x00\n        /* \"wmbFit.sol\":3272:3281  startDate */\n      0x06\n        /* \"wmbFit.sol\":3272:3293  startDate[msg.sender] */\n      0x00\n        /* \"wmbFit.sol\":3282:3292  msg.sender */\n      caller\n        /* \"wmbFit.sol\":3272:3293  startDate[msg.sender] */\n      0xffffffffffffffffffffffffffffffffffffffff\n      and\n      0xffffffffffffffffffffffffffffffffffffffff\n      and\n      dup2\n      mstore\n      0x20\n      add\n      swap1\n      dup2\n      mstore\n      0x20\n      add\n      0x00\n      keccak256\n      sload\n        /* \"wmbFit.sol\":3272:3298  startDate[msg.sender] == 0 */\n      eq\n        /* \"wmbFit.sol\":3242:3298  balanceOf[msg.sender] == 0 && startDate[msg.sender] == 0 */\n    tag_145:\n        /* \"wmbFit.sol\":3239:3456  if(balanceOf[msg.sender] == 0 && startDate[msg.sender] == 0){... */\n      iszero\n      tag_146\n      jumpi\n        /* \"wmbFit.sol\":3338:3353  block.timestamp */\n      timestamp\n        /* \"wmbFit.sol\":3314:3323  startDate */\n      0x06\n        /* \"wmbFit.sol\":3314:3335  startDate[msg.sender] */\n      0x00\n        /* \"wmbFit.sol\":3324:3334  msg.sender */\n      caller\n        /* \"wmbFit.sol\":3314:3335  startDate[msg.sender] */\n      0xffffffffffffffffffffffffffffffffffffffff\n      and\n      0xffffffffffffffffffffffffffffffffffffffff\n      and\n      dup2\n      mstore\n      0x20\n      add\n      swap1\n      dup2\n      mstore\n      0x20\n      add\n      0x00\n      keccak256\n        /* \"wmbFit.sol\":3314:3353  startDate[msg.sender] = block.timestamp */\n      dup2\n      swap1\n      sstore\n      pop\n        /* \"wmbFit.sol\":3368:3376  allUsers */\n      0x08\n        /* \"wmbFit.sol\":3382:3392  msg.sender */\n      caller\n        /* \"wmbFit.sol\":3368:3393  allUsers.push(msg.sender) */\n      swap1\n      dup1\n      0x01\n      dup2\n      sload\n      add\n      dup1\n      dup3\n      sstore\n      dup1\n      swap2\n      pop\n      pop\n      0x01\n      swap1\n      sub\n      swap1\n      0x00\n      mstore\n      keccak256(0x00, 0x20)\n      add\n      0x00\n      swap1\n      swap2\n      swap1\n      swap2\n      swap1\n      swap2\n      0x0100\n      exp\n      dup2\n      sload\n      dup2\n      0xffffffffffffffffffffffffffffffffffffffff\n      mul\n      not\n      and\n      swap1\n      dup4\n      0xffffffffffffffffffffffffffffffffffffffff\n      and\n      mul\n      or\n      swap1\n      sstore\n      pop\n        /* \"wmbFit.sol\":3408:3421  numberOfUsers */\n      0x07\n      0x00\n        /* \"wmbFit.sol\":3408:3423  numberOfUsers++ */\n      dup2\n      dup2\n      swap1\n      sload\n      swap1\n      0x0100\n      exp\n      swap1\n      div\n      0xff\n      and\n      dup1\n      swap3\n      swap2\n      swap1\n      tag_148\n      swap1\n      tag_149\n      jump\t// in\n    tag_148:\n      swap2\n      swap1\n      0x0100\n      exp\n      dup2\n      sload\n      dup2\n      0xff\n      mul\n      not\n      and\n      swap1\n      dup4\n      0xff\n      and\n      mul\n      or\n      swap1\n      sstore\n      pop\n      pop\n        /* \"wmbFit.sol\":3438:3445  return; */\n      jump(tag_144)\n        /* \"wmbFit.sol\":3239:3456  if(balanceOf[msg.sender] == 0 && startDate[msg.sender] == 0){... */\n    tag_146:\n        /* \"wmbFit.sol\":3491:3497  amount */\n      dup1\n        /* \"wmbFit.sol\":3466:3475  balanceOf */\n      0x01\n        /* \"wmbFit.sol\":3466:3487  balanceOf[msg.sender] */\n      0x00\n        /* \"wmbFit.sol\":3476:3486  msg.sender */\n      caller\n        /* \"wmbFit.sol\":3466:3487  balanceOf[msg.sender] */\n      0xffffffffffffffffffffffffffffffffffffffff\n      and\n      0xffffffffffffffffffffffffffffffffffffffff\n      and\n      dup2\n      mstore\n      0x20\n      add\n      swap1\n      dup2\n      mstore\n      0x20\n      add\n      0x00\n      keccak256\n      0x00\n        /* \"wmbFit.sol\":3466:3497  balanceOf[msg.sender] += amount */\n      dup3\n      dup3\n      sload\n      tag_150\n      swap2\n      swap1\n      tag_126\n      jump\t// in\n    tag_150:\n      swap3\n      pop\n      pop\n      dup2\n      swap1\n      sstore\n      pop\n        /* \"wmbFit.sol\":3523:3529  amount */\n      dup1\n        /* \"wmbFit.sol\":3508:3519  totalSupply */\n      0x00\n      dup1\n        /* \"wmbFit.sol\":3508:3529  totalSupply += amount */\n      dup3\n      dup3\n      sload\n      tag_151\n      swap2\n      swap1\n      tag_126\n      jump\t// in\n    tag_151:\n      swap3\n      pop\n      pop\n      dup2\n      swap1\n      sstore\n      pop\n        /* \"wmbFit.sol\":3566:3576  msg.sender */\n      caller\n        /* \"wmbFit.sol\":3545:3585  Transfer(address(0), msg.sender, amount) */\n      0xffffffffffffffffffffffffffffffffffffffff\n      and\n        /* \"wmbFit.sol\":3562:3563  0 */\n      0x00\n        /* \"wmbFit.sol\":3545:3585  Transfer(address(0), msg.sender, amount) */\n      0xffffffffffffffffffffffffffffffffffffffff\n      and\n      0xddf252ad1be2c89b69c2b068fc378daa952ba7f163c4a11628f55a4df523b3ef\n        /* \"wmbFit.sol\":3578:3584  amount */\n      dup4\n        /* \"wmbFit.sol\":3545:3585  Transfer(address(0), msg.sender, amount) */\n      mload(0x40)\n      tag_152\n      swap2\n      swap1\n      tag_43\n      jump\t// in\n    tag_152:\n      mload(0x40)\n      dup1\n      swap2\n      sub\n      swap1\n      log3\n        /* \"wmbFit.sol\":3596:3648  updateLeaderBoard(balanceOf[msg.sender], msg.sender) */\n      tag_153\n        /* \"wmbFit.sol\":3614:3623  balanceOf */\n      0x01\n        /* \"wmbFit.sol\":3614:3635  balanceOf[msg.sender] */\n      0x00\n        /* \"wmbFit.sol\":3624:3634  msg.sender */\n      caller\n        /* \"wmbFit.sol\":3614:3635  balanceOf[msg.sender] */\n      0xffffffffffffffffffffffffffffffffffffffff\n      and\n      0xffffffffffffffffffffffffffffffffffffffff\n      and\n      dup2\n      mstore\n      0x20\n      add\n      swap1\n      dup2\n      mstore\n      0x20\n      add\n      0x00\n      keccak256\n      sload\n        /* \"wmbFit.sol\":3637:3647  msg.sender */\n      caller\n        /* \"wmbFit.sol\":3596:3613  updateLeaderBoard */\n      tag_154\n        /* \"wmbFit.sol\":3596:3648  updateLeaderBoard(balanceOf[msg.sender], msg.sender) */\n      jump\t// in\n    tag_153:\n        /* \"wmbFit.sol\":3192:3656  function mint(uint amount) external {... */\n    tag_144:\n      pop\n      jump\t// out\n        /* \"wmbFit.sol\":1604:1629  address[] public allUsers */\n    tag_82:\n      0x08\n      dup2\n      dup2\n      sload\n      dup2\n      lt\n      tag_155\n      jumpi\n      0x00\n      dup1\n      revert\n    tag_155:\n      swap1\n      0x00\n      mstore\n      keccak256(0x00, 0x20)\n      add\n      0x00\n      swap2\n      pop\n      sload\n      swap1\n      0x0100\n      exp\n      swap1\n      div\n      0xffffffffffffffffffffffffffffffffffffffff\n      and\n      dup2\n      jump\t// out\n        /* \"wmbFit.sol\":1872:1897  scores[10] public leaders */\n    tag_87:\n      0x0a\n      dup2\n      0x0a\n      dup2\n      lt\n      tag_157\n      jumpi\n      0x00\n      dup1\n      revert\n    tag_157:\n      0x03\n      mul\n      add\n      0x00\n      swap2\n      pop\n      swap1\n      pop\n      dup1\n      0x00\n      add\n      0x00\n      swap1\n      sload\n      swap1\n      0x0100\n      exp\n      swap1\n      div\n      0xffffffffffffffffffffffffffffffffffffffff\n      and\n      swap1\n      dup1\n      0x01\n      add\n      dup1\n      sload\n      tag_159\n      swap1\n      tag_103\n      jump\t// in\n    tag_159:\n      dup1\n      0x1f\n      add\n      0x20\n      dup1\n      swap2\n      div\n      mul\n      0x20\n      add\n      mload(0x40)\n      swap1\n      dup2\n      add\n      0x40\n      mstore\n      dup1\n      swap3\n      swap2\n      swap1\n      dup2\n      dup2\n      mstore\n      0x20\n      add\n      dup3\n      dup1\n      sload\n      tag_160\n      swap1\n      tag_103\n      jump\t// in\n    tag_160:\n      dup1\n      iszero\n      tag_161\n      jumpi\n      dup1\n      0x1f\n      lt\n      tag_162\n      jumpi\n      0x0100\n      dup1\n      dup4\n      sload\n      div\n      mul\n      dup4\n      mstore\n      swap2\n      0x20\n      add\n      swap2\n      jump(tag_161)\n    tag_162:\n      dup3\n      add\n      swap2\n      swap1\n      0x00\n      mstore\n      keccak256(0x00, 0x20)\n      swap1\n    tag_163:\n      dup2\n      sload\n      dup2\n      mstore\n      swap1\n      0x01\n      add\n      swap1\n      0x20\n      add\n      dup1\n      dup4\n      gt\n      tag_163\n      jumpi\n      dup3\n      swap1\n      sub\n      0x1f\n      and\n      dup3\n      add\n      swap2\n    tag_161:\n      pop\n      pop\n      pop\n      pop\n      pop\n      swap1\n      dup1\n      0x02\n      add\n      sload\n      swap1\n      pop\n      dup4\n      jump\t// out\n        /* \"wmbFit.sol\":2102:2403  function transfer (address recipient, uint amount) external returns (bool){... */\n    tag_92:\n        /* \"wmbFit.sol\":2171:2175  bool */\n      0x00\n        /* \"wmbFit.sol\":2205:2207  10 */\n      0x0a\n        /* \"wmbFit.sol\":2195:2201  amount */\n      dup3\n        /* \"wmbFit.sol\":2195:2207  amount <= 10 */\n      gt\n      iszero\n        /* \"wmbFit.sol\":2187:2235  require(amount <= 10, \"Maximum transfer of 0.1\") */\n      tag_165\n      jumpi\n      mload(0x40)\n      0x08c379a000000000000000000000000000000000000000000000000000000000\n      dup2\n      mstore\n      0x04\n      add\n      tag_166\n      swap1\n      tag_121\n      jump\t// in\n    tag_166:\n      mload(0x40)\n      dup1\n      swap2\n      sub\n      swap1\n      revert\n    tag_165:\n        /* \"wmbFit.sol\":2271:2277  amount */\n      dup2\n        /* \"wmbFit.sol\":2246:2255  balanceOf */\n      0x01\n        /* \"wmbFit.sol\":2246:2267  balanceOf[msg.sender] */\n      0x00\n        /* \"wmbFit.sol\":2256:2266  msg.sender */\n      caller\n        /* \"wmbFit.sol\":2246:2267  balanceOf[msg.sender] */\n      0xffffffffffffffffffffffffffffffffffffffff\n      and\n      0xffffffffffffffffffffffffffffffffffffffff\n      and\n      dup2\n      mstore\n      0x20\n      add\n      swap1\n      dup2\n      mstore\n      0x20\n      add\n      0x00\n      keccak256\n      0x00\n        /* \"wmbFit.sol\":2246:2277  balanceOf[msg.sender] -= amount */\n      dup3\n      dup3\n      sload\n      tag_167\n      swap2\n      swap1\n      tag_123\n      jump\t// in\n    tag_167:\n      swap3\n      pop\n      pop\n      dup2\n      swap1\n      sstore\n      pop\n        /* \"wmbFit.sol\":2312:2318  amount */\n      dup2\n        /* \"wmbFit.sol\":2288:2297  balanceOf */\n      0x01\n        /* \"wmbFit.sol\":2288:2308  balanceOf[recipient] */\n      0x00\n        /* \"wmbFit.sol\":2298:2307  recipient */\n      dup6\n        /* \"wmbFit.sol\":2288:2308  balanceOf[recipient] */\n      0xffffffffffffffffffffffffffffffffffffffff\n      and\n      0xffffffffffffffffffffffffffffffffffffffff\n      and\n      dup2\n      mstore\n      0x20\n      add\n      swap1\n      dup2\n      mstore\n      0x20\n      add\n      0x00\n      keccak256\n      0x00\n        /* \"wmbFit.sol\":2288:2318  balanceOf[recipient] += amount */\n      dup3\n      dup3\n      sload\n      tag_168\n      swap2\n      swap1\n      tag_126\n      jump\t// in\n    tag_168:\n      swap3\n      pop\n      pop\n      dup2\n      swap1\n      sstore\n      pop\n        /* \"wmbFit.sol\":2355:2364  recipient */\n      dup3\n        /* \"wmbFit.sol\":2334:2373  Transfer(msg.sender, recipient, amount) */\n      0xffffffffffffffffffffffffffffffffffffffff\n      and\n        /* \"wmbFit.sol\":2343:2353  msg.sender */\n      caller\n        /* \"wmbFit.sol\":2334:2373  Transfer(msg.sender, recipient, amount) */\n      0xffffffffffffffffffffffffffffffffffffffff\n      and\n      0xddf252ad1be2c89b69c2b068fc378daa952ba7f163c4a11628f55a4df523b3ef\n        /* \"wmbFit.sol\":2366:2372  amount */\n      dup5\n        /* \"wmbFit.sol\":2334:2373  Transfer(msg.sender, recipient, amount) */\n      mload(0x40)\n      tag_169\n      swap2\n      swap1\n      tag_43\n      jump\t// in\n    tag_169:\n      mload(0x40)\n      dup1\n      swap2\n      sub\n      swap1\n      log3\n        /* \"wmbFit.sol\":2391:2395  true */\n      0x01\n        /* \"wmbFit.sol\":2384:2395  return true */\n      swap1\n      pop\n        /* \"wmbFit.sol\":2102:2403  function transfer (address recipient, uint amount) external returns (bool){... */\n      swap3\n      swap2\n      pop\n      pop\n      jump\t// out\n        /* \"wmbFit.sol\":5170:5267  function setName(string calldata Pname) external{... */\n    tag_96:\n        /* \"wmbFit.sol\":5254:5259  Pname */\n      dup2\n      dup2\n        /* \"wmbFit.sol\":5229:5239  personName */\n      0x09\n        /* \"wmbFit.sol\":5229:5251  personName[msg.sender] */\n      0x00\n        /* \"wmbFit.sol\":5240:5250  msg.sender */\n      caller\n        /* \"wmbFit.sol\":5229:5251  personName[msg.sender] */\n      0xffffffffffffffffffffffffffffffffffffffff\n      and\n      0xffffffffffffffffffffffffffffffffffffffff\n      and\n      dup2\n      mstore\n      0x20\n      add\n      swap1\n      dup2\n      mstore\n      0x20\n      add\n      0x00\n      keccak256\n        /* \"wmbFit.sol\":5229:5259  personName[msg.sender] = Pname */\n      swap2\n      dup3\n      tag_171\n      swap3\n      swap2\n      swap1\n      tag_136\n      jump\t// in\n    tag_171:\n      pop\n        /* \"wmbFit.sol\":5170:5267  function setName(string calldata Pname) external{... */\n      pop\n      pop\n      jump\t// out\n        /* \"wmbFit.sol\":1342:1403  mapping(address => mapping(address => uint)) public allowance */\n    tag_100:\n      mstore(0x20, 0x02)\n      dup2\n      0x00\n      mstore\n      mstore(0x20, keccak256(0x00, 0x40))\n      dup1\n      0x00\n      mstore\n      keccak256(0x00, 0x40)\n      0x00\n      swap2\n      pop\n      swap2\n      pop\n      pop\n      sload\n      dup2\n      jump\t// out\n        /* \"wmbFit.sol\":4559:5156  function downgradeLeader(uint newDistance, address accountAdd) private {... */\n    tag_133:\n        /* \"wmbFit.sol\":4641:4658  scores memory cur */\n      0x00\n        /* \"wmbFit.sol\":4661:4758  scores({accountAddress : accountAdd, accountName: personName[accountAdd], distance: newDistance}) */\n      mload(0x40)\n      dup1\n      0x60\n      add\n      0x40\n      mstore\n      dup1\n        /* \"wmbFit.sol\":4686:4696  accountAdd */\n      dup4\n        /* \"wmbFit.sol\":4661:4758  scores({accountAddress : accountAdd, accountName: personName[accountAdd], distance: newDistance}) */\n      0xffffffffffffffffffffffffffffffffffffffff\n      and\n      dup2\n      mstore\n      0x20\n      add\n        /* \"wmbFit.sol\":4711:4721  personName */\n      0x09\n        /* \"wmbFit.sol\":4711:4733  personName[accountAdd] */\n      0x00\n        /* \"wmbFit.sol\":4722:4732  accountAdd */\n      dup6\n        /* \"wmbFit.sol\":4711:4733  personName[accountAdd] */\n      0xffffffffffffffffffffffffffffffffffffffff\n      and\n      0xffffffffffffffffffffffffffffffffffffffff\n      and\n      dup2\n      mstore\n      0x20\n      add\n      swap1\n      dup2\n      mstore\n      0x20\n      add\n      0x00\n      keccak256\n        /* \"wmbFit.sol\":4661:4758  scores({accountAddress : accountAdd, accountName: personName[accountAdd], distance: newDistance}) */\n      dup1\n      sload\n      tag_173\n      swap1\n      tag_103\n      jump\t// in\n    tag_173:\n      dup1\n      0x1f\n      add\n      0x20\n      dup1\n      swap2\n      div\n      mul\n      0x20\n      add\n      mload(0x40)\n      swap1\n      dup2\n      add\n      0x40\n      mstore\n      dup1\n      swap3\n      swap2\n      swap1\n      dup2\n      dup2\n      mstore\n      0x20\n      add\n      dup3\n      dup1\n      sload\n      tag_174\n      swap1\n      tag_103\n      jump\t// in\n    tag_174:\n      dup1\n      iszero\n      tag_175\n      jumpi\n      dup1\n      0x1f\n      lt\n      tag_176\n      jumpi\n      0x0100\n      dup1\n      dup4\n      sload\n      div\n      mul\n      dup4\n      mstore\n      swap2\n      0x20\n      add\n      swap2\n      jump(tag_175)\n    tag_176:\n      dup3\n      add\n      swap2\n      swap1\n      0x00\n      mstore\n      keccak256(0x00, 0x20)\n      swap1\n    tag_177:\n      dup2\n      sload\n      dup2\n      mstore\n      swap1\n      0x01\n      add\n      swap1\n      0x20\n      add\n      dup1\n      dup4\n      gt\n      tag_177\n      jumpi\n      dup3\n      swap1\n      sub\n      0x1f\n      and\n      dup3\n      add\n      swap2\n    tag_175:\n      pop\n      pop\n      pop\n      pop\n      pop\n      dup2\n      mstore\n      0x20\n      add\n        /* \"wmbFit.sol\":4745:4756  newDistance */\n      dup5\n        /* \"wmbFit.sol\":4661:4758  scores({accountAddress : accountAdd, accountName: personName[accountAdd], distance: newDistance}) */\n      dup2\n      mstore\n      pop\n        /* \"wmbFit.sol\":4641:4758  scores memory cur = scores({accountAddress : accountAdd, accountName: personName[accountAdd], distance: newDistance}) */\n      swap1\n      pop\n        /* \"wmbFit.sol\":4769:4776  uint8 i */\n      0x00\n        /* \"wmbFit.sol\":4779:4780  9 */\n      0x09\n        /* \"wmbFit.sol\":4769:4780  uint8 i = 9 */\n      swap1\n      pop\n        /* \"wmbFit.sol\":4791:5149  while(i >= 0){... */\n    tag_178:\n        /* \"wmbFit.sol\":4802:4803  0 */\n      0x00\n        /* \"wmbFit.sol\":4797:4798  i */\n      dup2\n        /* \"wmbFit.sol\":4797:4803  i >= 0 */\n      0xff\n      and\n      lt\n        /* \"wmbFit.sol\":4791:5149  while(i >= 0){... */\n      tag_179\n      jumpi\n        /* \"wmbFit.sol\":4851:4861  accountAdd */\n      dup3\n        /* \"wmbFit.sol\":4822:4861  leaders[i].accountAddress == accountAdd */\n      0xffffffffffffffffffffffffffffffffffffffff\n      and\n        /* \"wmbFit.sol\":4822:4829  leaders */\n      0x0a\n        /* \"wmbFit.sol\":4830:4831  i */\n      dup3\n        /* \"wmbFit.sol\":4822:4832  leaders[i] */\n      0xff\n      and\n      0x0a\n      dup2\n      lt\n      tag_180\n      jumpi\n      tag_181\n      tag_182\n      jump\t// in\n    tag_181:\n    tag_180:\n      0x03\n      mul\n      add\n        /* \"wmbFit.sol\":4822:4847  leaders[i].accountAddress */\n      0x00\n      add\n      0x00\n      swap1\n      sload\n      swap1\n      0x0100\n      exp\n      swap1\n      div\n      0xffffffffffffffffffffffffffffffffffffffff\n      and\n        /* \"wmbFit.sol\":4822:4861  leaders[i].accountAddress == accountAdd */\n      0xffffffffffffffffffffffffffffffffffffffff\n      and\n      sub\n        /* \"wmbFit.sol\":4819:4938  if(leaders[i].accountAddress == accountAdd){... */\n      tag_184\n      jumpi\n        /* \"wmbFit.sol\":4894:4897  cur */\n      dup2\n        /* \"wmbFit.sol\":4881:4888  leaders */\n      0x0a\n        /* \"wmbFit.sol\":4889:4890  i */\n      dup3\n        /* \"wmbFit.sol\":4881:4891  leaders[i] */\n      0xff\n      and\n      0x0a\n      dup2\n      lt\n      tag_185\n      jumpi\n      tag_186\n      tag_182\n      jump\t// in\n    tag_186:\n    tag_185:\n      0x03\n      mul\n      add\n        /* \"wmbFit.sol\":4881:4897  leaders[i] = cur */\n      0x00\n      dup3\n      add\n      mload\n      dup2\n      0x00\n      add\n      exp(0x0100, 0x00)\n      dup2\n      sload\n      dup2\n      0xffffffffffffffffffffffffffffffffffffffff\n      mul\n      not\n      and\n      swap1\n      dup4\n      0xffffffffffffffffffffffffffffffffffffffff\n      and\n      mul\n      or\n      swap1\n      sstore\n      pop\n      0x20\n      dup3\n      add\n      mload\n      dup2\n      0x01\n      add\n      swap1\n      dup2\n      tag_188\n      swap2\n      swap1\n      tag_189\n      jump\t// in\n    tag_188:\n      pop\n      0x40\n      dup3\n      add\n      mload\n      dup2\n      0x02\n      add\n      sstore\n      swap1\n      pop\n      pop\n        /* \"wmbFit.sol\":4916:4923  return; */\n      pop\n      pop\n      jump(tag_172)\n        /* \"wmbFit.sol\":4819:4938  if(leaders[i].accountAddress == accountAdd){... */\n    tag_184:\n        /* \"wmbFit.sol\":4977:4980  cur */\n      dup2\n        /* \"wmbFit.sol\":4977:4989  cur.distance */\n      0x40\n      add\n      mload\n        /* \"wmbFit.sol\":4955:4962  leaders */\n      0x0a\n        /* \"wmbFit.sol\":4963:4964  i */\n      dup3\n        /* \"wmbFit.sol\":4955:4965  leaders[i] */\n      0xff\n      and\n      0x0a\n      dup2\n      lt\n      tag_190\n      jumpi\n      tag_191\n      tag_182\n      jump\t// in\n    tag_191:\n    tag_190:\n      0x03\n      mul\n      add\n        /* \"wmbFit.sol\":4955:4974  leaders[i].distance */\n      0x02\n      add\n      sload\n        /* \"wmbFit.sol\":4955:4989  leaders[i].distance > cur.distance */\n      gt\n        /* \"wmbFit.sol\":4952:5120  if(leaders[i].distance > cur.distance){... */\n      iszero\n      tag_193\n      jumpi\n        /* \"wmbFit.sol\":5009:5027  scores memory temp */\n      0x00\n        /* \"wmbFit.sol\":5030:5037  leaders */\n      0x0a\n        /* \"wmbFit.sol\":5038:5039  i */\n      dup3\n        /* \"wmbFit.sol\":5030:5040  leaders[i] */\n      0xff\n      and\n      0x0a\n      dup2\n      lt\n      tag_194\n      jumpi\n      tag_195\n      tag_182\n      jump\t// in\n    tag_195:\n    tag_194:\n      0x03\n      mul\n      add\n        /* \"wmbFit.sol\":5009:5040  scores memory temp = leaders[i] */\n      mload(0x40)\n      dup1\n      0x60\n      add\n      0x40\n      mstore\n      swap1\n      dup2\n      0x00\n      dup3\n      add\n      0x00\n      swap1\n      sload\n      swap1\n      0x0100\n      exp\n      swap1\n      div\n      0xffffffffffffffffffffffffffffffffffffffff\n      and\n      0xffffffffffffffffffffffffffffffffffffffff\n      and\n      0xffffffffffffffffffffffffffffffffffffffff\n      and\n      dup2\n      mstore\n      0x20\n      add\n      0x01\n      dup3\n      add\n      dup1\n      sload\n      tag_197\n      swap1\n      tag_103\n      jump\t// in\n    tag_197:\n      dup1\n      0x1f\n      add\n      0x20\n      dup1\n      swap2\n      div\n      mul\n      0x20\n      add\n      mload(0x40)\n      swap1\n      dup2\n      add\n      0x40\n      mstore\n      dup1\n      swap3\n      swap2\n      swap1\n      dup2\n      dup2\n      mstore\n      0x20\n      add\n      dup3\n      dup1\n      sload\n      tag_198\n      swap1\n      tag_103\n      jump\t// in\n    tag_198:\n      dup1\n      iszero\n      tag_199\n      jumpi\n      dup1\n      0x1f\n      lt\n      tag_200\n      jumpi\n      0x0100\n      dup1\n      dup4\n      sload\n      div\n      mul\n      dup4\n      mstore\n      swap2\n      0x20\n      add\n      swap2\n      jump(tag_199)\n    tag_200:\n      dup3\n      add\n      swap2\n      swap1\n      0x00\n      mstore\n      keccak256(0x00, 0x20)\n      swap1\n    tag_201:\n      dup2\n      sload\n      dup2\n      mstore\n      swap1\n      0x01\n      add\n      swap1\n      0x20\n      add\n      dup1\n      dup4\n      gt\n      tag_201\n      jumpi\n      dup3\n      swap1\n      sub\n      0x1f\n      and\n      dup3\n      add\n      swap2\n    tag_199:\n      pop\n      pop\n      pop\n      pop\n      pop\n      dup2\n      mstore\n      0x20\n      add\n      0x02\n      dup3\n      add\n      sload\n      dup2\n      mstore\n      pop\n      pop\n      swap1\n      pop\n        /* \"wmbFit.sol\":5072:5075  cur */\n      dup3\n        /* \"wmbFit.sol\":5059:5066  leaders */\n      0x0a\n        /* \"wmbFit.sol\":5067:5068  i */\n      dup4\n        /* \"wmbFit.sol\":5059:5069  leaders[i] */\n      0xff\n      and\n      0x0a\n      dup2\n      lt\n      tag_202\n      jumpi\n      tag_203\n      tag_182\n      jump\t// in\n    tag_203:\n    tag_202:\n      0x03\n      mul\n      add\n        /* \"wmbFit.sol\":5059:5075  leaders[i] = cur */\n      0x00\n      dup3\n      add\n      mload\n      dup2\n      0x00\n      add\n      exp(0x0100, 0x00)\n      dup2\n      sload\n      dup2\n      0xffffffffffffffffffffffffffffffffffffffff\n      mul\n      not\n      and\n      swap1\n      dup4\n      0xffffffffffffffffffffffffffffffffffffffff\n      and\n      mul\n      or\n      swap1\n      sstore\n      pop\n      0x20\n      dup3\n      add\n      mload\n      dup2\n      0x01\n      add\n      swap1\n      dup2\n      tag_205\n      swap2\n      swap1\n      tag_189\n      jump\t// in\n    tag_205:\n      pop\n      0x40\n      dup3\n      add\n      mload\n      dup2\n      0x02\n      add\n      sstore\n      swap1\n      pop\n      pop\n        /* \"wmbFit.sol\":5100:5104  temp */\n      dup1\n        /* \"wmbFit.sol\":5094:5104  cur = temp */\n      swap3\n      pop\n        /* \"wmbFit.sol\":4990:5120  {... */\n      pop\n        /* \"wmbFit.sol\":4952:5120  if(leaders[i].distance > cur.distance){... */\n    tag_193:\n        /* \"wmbFit.sol\":5134:5137  i-- */\n      dup1\n      dup1\n      tag_206\n      swap1\n      tag_207\n      jump\t// in\n    tag_206:\n      swap2\n      pop\n      pop\n        /* \"wmbFit.sol\":4791:5149  while(i >= 0){... */\n      jump(tag_178)\n    tag_179:\n        /* \"wmbFit.sol\":4630:5156  {... */\n      pop\n      pop\n        /* \"wmbFit.sol\":4559:5156  function downgradeLeader(uint newDistance, address accountAdd) private {... */\n    tag_172:\n      pop\n      pop\n      jump\t// out\n        /* \"wmbFit.sol\":3664:4264  function updateLeaderBoard(uint newDistance, address accountAdd) internal {... */\n    tag_154:\n        /* \"wmbFit.sol\":3749:3766  scores memory cur */\n      0x00\n        /* \"wmbFit.sol\":3769:3866  scores({accountAddress : accountAdd, accountName: personName[accountAdd], distance: newDistance}) */\n      mload(0x40)\n      dup1\n      0x60\n      add\n      0x40\n      mstore\n      dup1\n        /* \"wmbFit.sol\":3794:3804  accountAdd */\n      dup4\n        /* \"wmbFit.sol\":3769:3866  scores({accountAddress : accountAdd, accountName: personName[accountAdd], distance: newDistance}) */\n      0xffffffffffffffffffffffffffffffffffffffff\n      and\n      dup2\n      mstore\n      0x20\n      add\n        /* \"wmbFit.sol\":3819:3829  personName */\n      0x09\n        /* \"wmbFit.sol\":3819:3841  personName[accountAdd] */\n      0x00\n        /* \"wmbFit.sol\":3830:3840  accountAdd */\n      dup6\n        /* \"wmbFit.sol\":3819:3841  personName[accountAdd] */\n      0xffffffffffffffffffffffffffffffffffffffff\n      and\n      0xffffffffffffffffffffffffffffffffffffffff\n      and\n      dup2\n      mstore\n      0x20\n      add\n      swap1\n      dup2\n      mstore\n      0x20\n      add\n      0x00\n      keccak256\n        /* \"wmbFit.sol\":3769:3866  scores({accountAddress : accountAdd, accountName: personName[accountAdd], distance: newDistance}) */\n      dup1\n      sload\n      tag_209\n      swap1\n      tag_103\n      jump\t// in\n    tag_209:\n      dup1\n      0x1f\n      add\n      0x20\n      dup1\n      swap2\n      div\n      mul\n      0x20\n      add\n      mload(0x40)\n      swap1\n      dup2\n      add\n      0x40\n      mstore\n      dup1\n      swap3\n      swap2\n      swap1\n      dup2\n      dup2\n      mstore\n      0x20\n      add\n      dup3\n      dup1\n      sload\n      tag_210\n      swap1\n      tag_103\n      jump\t// in\n    tag_210:\n      dup1\n      iszero\n      tag_211\n      jumpi\n      dup1\n      0x1f\n      lt\n      tag_212\n      jumpi\n      0x0100\n      dup1\n      dup4\n      sload\n      div\n      mul\n      dup4\n      mstore\n      swap2\n      0x20\n      add\n      swap2\n      jump(tag_211)\n    tag_212:\n      dup3\n      add\n      swap2\n      swap1\n      0x00\n      mstore\n      keccak256(0x00, 0x20)\n      swap1\n    tag_213:\n      dup2\n      sload\n      dup2\n      mstore\n      swap1\n      0x01\n      add\n      swap1\n      0x20\n      add\n      dup1\n      dup4\n      gt\n      tag_213\n      jumpi\n      dup3\n      swap1\n      sub\n      0x1f\n      and\n      dup3\n      add\n      swap2\n    tag_211:\n      pop\n      pop\n      pop\n      pop\n      pop\n      dup2\n      mstore\n      0x20\n      add\n        /* \"wmbFit.sol\":3853:3864  newDistance */\n      dup5\n        /* \"wmbFit.sol\":3769:3866  scores({accountAddress : accountAdd, accountName: personName[accountAdd], distance: newDistance}) */\n      dup2\n      mstore\n      pop\n        /* \"wmbFit.sol\":3749:3866  scores memory cur = scores({accountAddress : accountAdd, accountName: personName[accountAdd], distance: newDistance}) */\n      swap1\n      pop\n        /* \"wmbFit.sol\":3877:3884  uint8 i */\n      0x00\n        /* \"wmbFit.sol\":3899:4257  while(i < 10){... */\n    tag_214:\n        /* \"wmbFit.sol\":3909:3911  10 */\n      0x0a\n        /* \"wmbFit.sol\":3905:3906  i */\n      dup2\n        /* \"wmbFit.sol\":3905:3911  i < 10 */\n      0xff\n      and\n      lt\n        /* \"wmbFit.sol\":3899:4257  while(i < 10){... */\n      iszero\n      tag_215\n      jumpi\n        /* \"wmbFit.sol\":3959:3969  accountAdd */\n      dup3\n        /* \"wmbFit.sol\":3930:3969  leaders[i].accountAddress == accountAdd */\n      0xffffffffffffffffffffffffffffffffffffffff\n      and\n        /* \"wmbFit.sol\":3930:3937  leaders */\n      0x0a\n        /* \"wmbFit.sol\":3938:3939  i */\n      dup3\n        /* \"wmbFit.sol\":3930:3940  leaders[i] */\n      0xff\n      and\n      0x0a\n      dup2\n      lt\n      tag_216\n      jumpi\n      tag_217\n      tag_182\n      jump\t// in\n    tag_217:\n    tag_216:\n      0x03\n      mul\n      add\n        /* \"wmbFit.sol\":3930:3955  leaders[i].accountAddress */\n      0x00\n      add\n      0x00\n      swap1\n      sload\n      swap1\n      0x0100\n      exp\n      swap1\n      div\n      0xffffffffffffffffffffffffffffffffffffffff\n      and\n        /* \"wmbFit.sol\":3930:3969  leaders[i].accountAddress == accountAdd */\n      0xffffffffffffffffffffffffffffffffffffffff\n      and\n      sub\n        /* \"wmbFit.sol\":3927:4046  if(leaders[i].accountAddress == accountAdd){... */\n      tag_219\n      jumpi\n        /* \"wmbFit.sol\":4002:4005  cur */\n      dup2\n        /* \"wmbFit.sol\":3989:3996  leaders */\n      0x0a\n        /* \"wmbFit.sol\":3997:3998  i */\n      dup3\n        /* \"wmbFit.sol\":3989:3999  leaders[i] */\n      0xff\n      and\n      0x0a\n      dup2\n      lt\n      tag_220\n      jumpi\n      tag_221\n      tag_182\n      jump\t// in\n    tag_221:\n    tag_220:\n      0x03\n      mul\n      add\n        /* \"wmbFit.sol\":3989:4005  leaders[i] = cur */\n      0x00\n      dup3\n      add\n      mload\n      dup2\n      0x00\n      add\n      exp(0x0100, 0x00)\n      dup2\n      sload\n      dup2\n      0xffffffffffffffffffffffffffffffffffffffff\n      mul\n      not\n      and\n      swap1\n      dup4\n      0xffffffffffffffffffffffffffffffffffffffff\n      and\n      mul\n      or\n      swap1\n      sstore\n      pop\n      0x20\n      dup3\n      add\n      mload\n      dup2\n      0x01\n      add\n      swap1\n      dup2\n      tag_223\n      swap2\n      swap1\n      tag_189\n      jump\t// in\n    tag_223:\n      pop\n      0x40\n      dup3\n      add\n      mload\n      dup2\n      0x02\n      add\n      sstore\n      swap1\n      pop\n      pop\n        /* \"wmbFit.sol\":4024:4031  return; */\n      pop\n      pop\n      jump(tag_208)\n        /* \"wmbFit.sol\":3927:4046  if(leaders[i].accountAddress == accountAdd){... */\n    tag_219:\n        /* \"wmbFit.sol\":4085:4088  cur */\n      dup2\n        /* \"wmbFit.sol\":4085:4097  cur.distance */\n      0x40\n      add\n      mload\n        /* \"wmbFit.sol\":4063:4070  leaders */\n      0x0a\n        /* \"wmbFit.sol\":4071:4072  i */\n      dup3\n        /* \"wmbFit.sol\":4063:4073  leaders[i] */\n      0xff\n      and\n      0x0a\n      dup2\n      lt\n      tag_224\n      jumpi\n      tag_225\n      tag_182\n      jump\t// in\n    tag_225:\n    tag_224:\n      0x03\n      mul\n      add\n        /* \"wmbFit.sol\":4063:4082  leaders[i].distance */\n      0x02\n      add\n      sload\n        /* \"wmbFit.sol\":4063:4097  leaders[i].distance < cur.distance */\n      lt\n        /* \"wmbFit.sol\":4060:4228  if(leaders[i].distance < cur.distance){... */\n      iszero\n      tag_227\n      jumpi\n        /* \"wmbFit.sol\":4117:4135  scores memory temp */\n      0x00\n        /* \"wmbFit.sol\":4138:4145  leaders */\n      0x0a\n        /* \"wmbFit.sol\":4146:4147  i */\n      dup3\n        /* \"wmbFit.sol\":4138:4148  leaders[i] */\n      0xff\n      and\n      0x0a\n      dup2\n      lt\n      tag_228\n      jumpi\n      tag_229\n      tag_182\n      jump\t// in\n    tag_229:\n    tag_228:\n      0x03\n      mul\n      add\n        /* \"wmbFit.sol\":4117:4148  scores memory temp = leaders[i] */\n      mload(0x40)\n      dup1\n      0x60\n      add\n      0x40\n      mstore\n      swap1\n      dup2\n      0x00\n      dup3\n      add\n      0x00\n      swap1\n      sload\n      swap1\n      0x0100\n      exp\n      swap1\n      div\n      0xffffffffffffffffffffffffffffffffffffffff\n      and\n      0xffffffffffffffffffffffffffffffffffffffff\n      and\n      0xffffffffffffffffffffffffffffffffffffffff\n      and\n      dup2\n      mstore\n      0x20\n      add\n      0x01\n      dup3\n      add\n      dup1\n      sload\n      tag_231\n      swap1\n      tag_103\n      jump\t// in\n    tag_231:\n      dup1\n      0x1f\n      add\n      0x20\n      dup1\n      swap2\n      div\n      mul\n      0x20\n      add\n      mload(0x40)\n      swap1\n      dup2\n      add\n      0x40\n      mstore\n      dup1\n      swap3\n      swap2\n      swap1\n      dup2\n      dup2\n      mstore\n      0x20\n      add\n      dup3\n      dup1\n      sload\n      tag_232\n      swap1\n      tag_103\n      jump\t// in\n    tag_232:\n      dup1\n      iszero\n      tag_233\n      jumpi\n      dup1\n      0x1f\n      lt\n      tag_234\n      jumpi\n      0x0100\n      dup1\n      dup4\n      sload\n      div\n      mul\n      dup4\n      mstore\n      swap2\n      0x20\n      add\n      swap2\n      jump(tag_233)\n    tag_234:\n      dup3\n      add\n      swap2\n      swap1\n      0x00\n      mstore\n      keccak256(0x00, 0x20)\n      swap1\n    tag_235:\n      dup2\n      sload\n      dup2\n      mstore\n      swap1\n      0x01\n      add\n      swap1\n      0x20\n      add\n      dup1\n      dup4\n      gt\n      tag_235\n      jumpi\n      dup3\n      swap1\n      sub\n      0x1f\n      and\n      dup3\n      add\n      swap2\n    tag_233:\n      pop\n      pop\n      pop\n      pop\n      pop\n      dup2\n      mstore\n      0x20\n      add\n      0x02\n      dup3\n      add\n      sload\n      dup2\n      mstore\n      pop\n      pop\n      swap1\n      pop\n        /* \"wmbFit.sol\":4180:4183  cur */\n      dup3\n        /* \"wmbFit.sol\":4167:4174  leaders */\n      0x0a\n        /* \"wmbFit.sol\":4175:4176  i */\n      dup4\n        /* \"wmbFit.sol\":4167:4177  leaders[i] */\n      0xff\n      and\n      0x0a\n      dup2\n      lt\n      tag_236\n      jumpi\n      tag_237\n      tag_182\n      jump\t// in\n    tag_237:\n    tag_236:\n      0x03\n      mul\n      add\n        /* \"wmbFit.sol\":4167:4183  leaders[i] = cur */\n      0x00\n      dup3\n      add\n      mload\n      dup2\n      0x00\n      add\n      exp(0x0100, 0x00)\n      dup2\n      sload\n      dup2\n      0xffffffffffffffffffffffffffffffffffffffff\n      mul\n      not\n      and\n      swap1\n      dup4\n      0xffffffffffffffffffffffffffffffffffffffff\n      and\n      mul\n      or\n      swap1\n      sstore\n      pop\n      0x20\n      dup3\n      add\n      mload\n      dup2\n      0x01\n      add\n      swap1\n      dup2\n      tag_239\n      swap2\n      swap1\n      tag_189\n      jump\t// in\n    tag_239:\n      pop\n      0x40\n      dup3\n      add\n      mload\n      dup2\n      0x02\n      add\n      sstore\n      swap1\n      pop\n      pop\n        /* \"wmbFit.sol\":4208:4212  temp */\n      dup1\n        /* \"wmbFit.sol\":4202:4212  cur = temp */\n      swap3\n      pop\n        /* \"wmbFit.sol\":4098:4228  {... */\n      pop\n        /* \"wmbFit.sol\":4060:4228  if(leaders[i].distance < cur.distance){... */\n    tag_227:\n        /* \"wmbFit.sol\":4242:4245  i++ */\n      dup1\n      dup1\n      tag_240\n      swap1\n      tag_149\n      jump\t// in\n    tag_240:\n      swap2\n      pop\n      pop\n        /* \"wmbFit.sol\":3899:4257  while(i < 10){... */\n      jump(tag_214)\n    tag_215:\n        /* \"wmbFit.sol\":3738:4264  {... */\n      pop\n      pop\n        /* \"wmbFit.sol\":3664:4264  function updateLeaderBoard(uint newDistance, address accountAdd) internal {... */\n    tag_208:\n      pop\n      pop\n      jump\t// out\n        /* \"#utility.yul\":7:106   */\n    tag_241:\n        /* \"#utility.yul\":59:65   */\n      0x00\n        /* \"#utility.yul\":93:98   */\n      dup2\n        /* \"#utility.yul\":87:99   */\n      mload\n        /* \"#utility.yul\":77:99   */\n      swap1\n      pop\n        /* \"#utility.yul\":7:106   */\n      swap2\n      swap1\n      pop\n      jump\t// out\n        /* \"#utility.yul\":112:281   */\n    tag_242:\n        /* \"#utility.yul\":196:207   */\n      0x00\n        /* \"#utility.yul\":230:236   */\n      dup3\n        /* \"#utility.yul\":225:228   */\n      dup3\n        /* \"#utility.yul\":218:237   */\n      mstore\n        /* \"#utility.yul\":270:274   */\n      0x20\n        /* \"#utility.yul\":265:268   */\n      dup3\n        /* \"#utility.yul\":261:275   */\n      add\n        /* \"#utility.yul\":246:275   */\n      swap1\n      pop\n        /* \"#utility.yul\":112:281   */\n      swap3\n      swap2\n      pop\n      pop\n      jump\t// out\n        /* \"#utility.yul\":287:533   */\n    tag_243:\n        /* \"#utility.yul\":368:369   */\n      0x00\n        /* \"#utility.yul\":378:491   */\n    tag_293:\n        /* \"#utility.yul\":392:398   */\n      dup4\n        /* \"#utility.yul\":389:390   */\n      dup2\n        /* \"#utility.yul\":386:399   */\n      lt\n        /* \"#utility.yul\":378:491   */\n      iszero\n      tag_295\n      jumpi\n        /* \"#utility.yul\":477:478   */\n      dup1\n        /* \"#utility.yul\":472:475   */\n      dup3\n        /* \"#utility.yul\":468:479   */\n      add\n        /* \"#utility.yul\":462:480   */\n      mload\n        /* \"#utility.yul\":458:459   */\n      dup2\n        /* \"#utility.yul\":453:456   */\n      dup5\n        /* \"#utility.yul\":449:460   */\n      add\n        /* \"#utility.yul\":442:481   */\n      mstore\n        /* \"#utility.yul\":414:416   */\n      0x20\n        /* \"#utility.yul\":411:412   */\n      dup2\n        /* \"#utility.yul\":407:417   */\n      add\n        /* \"#utility.yul\":402:417   */\n      swap1\n      pop\n        /* \"#utility.yul\":378:491   */\n      jump(tag_293)\n    tag_295:\n        /* \"#utility.yul\":525:526   */\n      0x00\n        /* \"#utility.yul\":516:522   */\n      dup5\n        /* \"#utility.yul\":511:514   */\n      dup5\n        /* \"#utility.yul\":507:523   */\n      add\n        /* \"#utility.yul\":500:527   */\n      mstore\n        /* \"#utility.yul\":349:533   */\n      pop\n        /* \"#utility.yul\":287:533   */\n      pop\n      pop\n      pop\n      jump\t// out\n        /* \"#utility.yul\":539:641   */\n    tag_244:\n        /* \"#utility.yul\":580:586   */\n      0x00\n        /* \"#utility.yul\":631:633   */\n      0x1f\n        /* \"#utility.yul\":627:634   */\n      not\n        /* \"#utility.yul\":622:624   */\n      0x1f\n        /* \"#utility.yul\":615:620   */\n      dup4\n        /* \"#utility.yul\":611:625   */\n      add\n        /* \"#utility.yul\":607:635   */\n      and\n        /* \"#utility.yul\":597:635   */\n      swap1\n      pop\n        /* \"#utility.yul\":539:641   */\n      swap2\n      swap1\n      pop\n      jump\t// out\n        /* \"#utility.yul\":647:1024   */\n    tag_245:\n        /* \"#utility.yul\":735:738   */\n      0x00\n        /* \"#utility.yul\":763:802   */\n      tag_298\n        /* \"#utility.yul\":796:801   */\n      dup3\n        /* \"#utility.yul\":763:802   */\n      tag_241\n      jump\t// in\n    tag_298:\n        /* \"#utility.yul\":818:889   */\n      tag_299\n        /* \"#utility.yul\":882:888   */\n      dup2\n        /* \"#utility.yul\":877:880   */\n      dup6\n        /* \"#utility.yul\":818:889   */\n      tag_242\n      jump\t// in\n    tag_299:\n        /* \"#utility.yul\":811:889   */\n      swap4\n      pop\n        /* \"#utility.yul\":898:963   */\n      tag_300\n        /* \"#utility.yul\":956:962   */\n      dup2\n        /* \"#utility.yul\":951:954   */\n      dup6\n        /* \"#utility.yul\":944:948   */\n      0x20\n        /* \"#utility.yul\":937:942   */\n      dup7\n        /* \"#utility.yul\":933:949   */\n      add\n        /* \"#utility.yul\":898:963   */\n      tag_243\n      jump\t// in\n    tag_300:\n        /* \"#utility.yul\":988:1017   */\n      tag_301\n        /* \"#utility.yul\":1010:1016   */\n      dup2\n        /* \"#utility.yul\":988:1017   */\n      tag_244\n      jump\t// in\n    tag_301:\n        /* \"#utility.yul\":983:986   */\n      dup5\n        /* \"#utility.yul\":979:1018   */\n      add\n        /* \"#utility.yul\":972:1018   */\n      swap2\n      pop\n        /* \"#utility.yul\":739:1024   */\n      pop\n        /* \"#utility.yul\":647:1024   */\n      swap3\n      swap2\n      pop\n      pop\n      jump\t// out\n        /* \"#utility.yul\":1030:1343   */\n    tag_28:\n        /* \"#utility.yul\":1143:1147   */\n      0x00\n        /* \"#utility.yul\":1181:1183   */\n      0x20\n        /* \"#utility.yul\":1170:1179   */\n      dup3\n        /* \"#utility.yul\":1166:1184   */\n      add\n        /* \"#utility.yul\":1158:1184   */\n      swap1\n      pop\n        /* \"#utility.yul\":1230:1239   */\n      dup2\n        /* \"#utility.yul\":1224:1228   */\n      dup2\n        /* \"#utility.yul\":1220:1240   */\n      sub\n        /* \"#utility.yul\":1216:1217   */\n      0x00\n        /* \"#utility.yul\":1205:1214   */\n      dup4\n        /* \"#utility.yul\":1201:1218   */\n      add\n        /* \"#utility.yul\":1194:1241   */\n      mstore\n        /* \"#utility.yul\":1258:1336   */\n      tag_303\n        /* \"#utility.yul\":1331:1335   */\n      dup2\n        /* \"#utility.yul\":1322:1328   */\n      dup5\n        /* \"#utility.yul\":1258:1336   */\n      tag_245\n      jump\t// in\n    tag_303:\n        /* \"#utility.yul\":1250:1336   */\n      swap1\n      pop\n        /* \"#utility.yul\":1030:1343   */\n      swap3\n      swap2\n      pop\n      pop\n      jump\t// out\n        /* \"#utility.yul\":1430:1547   */\n    tag_247:\n        /* \"#utility.yul\":1539:1540   */\n      0x00\n        /* \"#utility.yul\":1536:1537   */\n      dup1\n        /* \"#utility.yul\":1529:1541   */\n      revert\n        /* \"#utility.yul\":1553:1670   */\n    tag_248:\n        /* \"#utility.yul\":1662:1663   */\n      0x00\n        /* \"#utility.yul\":1659:1660   */\n      dup1\n        /* \"#utility.yul\":1652:1664   */\n      revert\n        /* \"#utility.yul\":1676:1802   */\n    tag_249:\n        /* \"#utility.yul\":1713:1720   */\n      0x00\n        /* \"#utility.yul\":1753:1795   */\n      0xffffffffffffffffffffffffffffffffffffffff\n        /* \"#utility.yul\":1746:1751   */\n      dup3\n        /* \"#utility.yul\":1742:1796   */\n      and\n        /* \"#utility.yul\":1731:1796   */\n      swap1\n      pop\n        /* \"#utility.yul\":1676:1802   */\n      swap2\n      swap1\n      pop\n      jump\t// out\n        /* \"#utility.yul\":1808:1904   */\n    tag_250:\n        /* \"#utility.yul\":1845:1852   */\n      0x00\n        /* \"#utility.yul\":1874:1898   */\n      tag_309\n        /* \"#utility.yul\":1892:1897   */\n      dup3\n        /* \"#utility.yul\":1874:1898   */\n      tag_249\n      jump\t// in\n    tag_309:\n        /* \"#utility.yul\":1863:1898   */\n      swap1\n      pop\n        /* \"#utility.yul\":1808:1904   */\n      swap2\n      swap1\n      pop\n      jump\t// out\n        /* \"#utility.yul\":1910:2032   */\n    tag_251:\n        /* \"#utility.yul\":1983:2007   */\n      tag_311\n        /* \"#utility.yul\":2001:2006   */\n      dup2\n        /* \"#utility.yul\":1983:2007   */\n      tag_250\n      jump\t// in\n    tag_311:\n        /* \"#utility.yul\":1976:1981   */\n      dup2\n        /* \"#utility.yul\":1973:2008   */\n      eq\n        /* \"#utility.yul\":1963:2026   */\n      tag_312\n      jumpi\n        /* \"#utility.yul\":2022:2023   */\n      0x00\n        /* \"#utility.yul\":2019:2020   */\n      dup1\n        /* \"#utility.yul\":2012:2024   */\n      revert\n        /* \"#utility.yul\":1963:2026   */\n    tag_312:\n        /* \"#utility.yul\":1910:2032   */\n      pop\n      jump\t// out\n        /* \"#utility.yul\":2038:2177   */\n    tag_252:\n        /* \"#utility.yul\":2084:2089   */\n      0x00\n        /* \"#utility.yul\":2122:2128   */\n      dup2\n        /* \"#utility.yul\":2109:2129   */\n      calldataload\n        /* \"#utility.yul\":2100:2129   */\n      swap1\n      pop\n        /* \"#utility.yul\":2138:2171   */\n      tag_314\n        /* \"#utility.yul\":2165:2170   */\n      dup2\n        /* \"#utility.yul\":2138:2171   */\n      tag_251\n      jump\t// in\n    tag_314:\n        /* \"#utility.yul\":2038:2177   */\n      swap3\n      swap2\n      pop\n      pop\n      jump\t// out\n        /* \"#utility.yul\":2183:2260   */\n    tag_253:\n        /* \"#utility.yul\":2220:2227   */\n      0x00\n        /* \"#utility.yul\":2249:2254   */\n      dup2\n        /* \"#utility.yul\":2238:2254   */\n      swap1\n      pop\n        /* \"#utility.yul\":2183:2260   */\n      swap2\n      swap1\n      pop\n      jump\t// out\n        /* \"#utility.yul\":2266:2388   */\n    tag_254:\n        /* \"#utility.yul\":2339:2363   */\n      tag_317\n        /* \"#utility.yul\":2357:2362   */\n      dup2\n        /* \"#utility.yul\":2339:2363   */\n      tag_253\n      jump\t// in\n    tag_317:\n        /* \"#utility.yul\":2332:2337   */\n      dup2\n        /* \"#utility.yul\":2329:2364   */\n      eq\n        /* \"#utility.yul\":2319:2382   */\n      tag_318\n      jumpi\n        /* \"#utility.yul\":2378:2379   */\n      0x00\n        /* \"#utility.yul\":2375:2376   */\n      dup1\n        /* \"#utility.yul\":2368:2380   */\n      revert\n        /* \"#utility.yul\":2319:2382   */\n    tag_318:\n        /* \"#utility.yul\":2266:2388   */\n      pop\n      jump\t// out\n        /* \"#utility.yul\":2394:2533   */\n    tag_255:\n        /* \"#utility.yul\":2440:2445   */\n      0x00\n        /* \"#utility.yul\":2478:2484   */\n      dup2\n        /* \"#utility.yul\":2465:2485   */\n      calldataload\n        /* \"#utility.yul\":2456:2485   */\n      swap1\n      pop\n        /* \"#utility.yul\":2494:2527   */\n      tag_320\n        /* \"#utility.yul\":2521:2526   */\n      dup2\n        /* \"#utility.yul\":2494:2527   */\n      tag_254\n      jump\t// in\n    tag_320:\n        /* \"#utility.yul\":2394:2533   */\n      swap3\n      swap2\n      pop\n      pop\n      jump\t// out\n        /* \"#utility.yul\":2539:3013   */\n    tag_31:\n        /* \"#utility.yul\":2607:2613   */\n      0x00\n        /* \"#utility.yul\":2615:2621   */\n      dup1\n        /* \"#utility.yul\":2664:2666   */\n      0x40\n        /* \"#utility.yul\":2652:2661   */\n      dup4\n        /* \"#utility.yul\":2643:2650   */\n      dup6\n        /* \"#utility.yul\":2639:2662   */\n      sub\n        /* \"#utility.yul\":2635:2667   */\n      slt\n        /* \"#utility.yul\":2632:2751   */\n      iszero\n      tag_322\n      jumpi\n        /* \"#utility.yul\":2670:2749   */\n      tag_323\n      tag_247\n      jump\t// in\n    tag_323:\n        /* \"#utility.yul\":2632:2751   */\n    tag_322:\n        /* \"#utility.yul\":2790:2791   */\n      0x00\n        /* \"#utility.yul\":2815:2868   */\n      tag_324\n        /* \"#utility.yul\":2860:2867   */\n      dup6\n        /* \"#utility.yul\":2851:2857   */\n      dup3\n        /* \"#utility.yul\":2840:2849   */\n      dup7\n        /* \"#utility.yul\":2836:2858   */\n      add\n        /* \"#utility.yul\":2815:2868   */\n      tag_252\n      jump\t// in\n    tag_324:\n        /* \"#utility.yul\":2805:2868   */\n      swap3\n      pop\n        /* \"#utility.yul\":2761:2878   */\n      pop\n        /* \"#utility.yul\":2917:2919   */\n      0x20\n        /* \"#utility.yul\":2943:2996   */\n      tag_325\n        /* \"#utility.yul\":2988:2995   */\n      dup6\n        /* \"#utility.yul\":2979:2985   */\n      dup3\n        /* \"#utility.yul\":2968:2977   */\n      dup7\n        /* \"#utility.yul\":2964:2986   */\n      add\n        /* \"#utility.yul\":2943:2996   */\n      tag_255\n      jump\t// in\n    tag_325:\n        /* \"#utility.yul\":2933:2996   */\n      swap2\n      pop\n        /* \"#utility.yul\":2888:3006   */\n      pop\n        /* \"#utility.yul\":2539:3013   */\n      swap3\n      pop\n      swap3\n      swap1\n      pop\n      jump\t// out\n        /* \"#utility.yul\":3019:3109   */\n    tag_256:\n        /* \"#utility.yul\":3053:3060   */\n      0x00\n        /* \"#utility.yul\":3096:3101   */\n      dup2\n        /* \"#utility.yul\":3089:3102   */\n      iszero\n        /* \"#utility.yul\":3082:3103   */\n      iszero\n        /* \"#utility.yul\":3071:3103   */\n      swap1\n      pop\n        /* \"#utility.yul\":3019:3109   */\n      swap2\n      swap1\n      pop\n      jump\t// out\n        /* \"#utility.yul\":3115:3224   */\n    tag_257:\n        /* \"#utility.yul\":3196:3217   */\n      tag_328\n        /* \"#utility.yul\":3211:3216   */\n      dup2\n        /* \"#utility.yul\":3196:3217   */\n      tag_256\n      jump\t// in\n    tag_328:\n        /* \"#utility.yul\":3191:3194   */\n      dup3\n        /* \"#utility.yul\":3184:3218   */\n      mstore\n        /* \"#utility.yul\":3115:3224   */\n      pop\n      pop\n      jump\t// out\n        /* \"#utility.yul\":3230:3440   */\n    tag_34:\n        /* \"#utility.yul\":3317:3321   */\n      0x00\n        /* \"#utility.yul\":3355:3357   */\n      0x20\n        /* \"#utility.yul\":3344:3353   */\n      dup3\n        /* \"#utility.yul\":3340:3358   */\n      add\n        /* \"#utility.yul\":3332:3358   */\n      swap1\n      pop\n        /* \"#utility.yul\":3368:3433   */\n      tag_330\n        /* \"#utility.yul\":3430:3431   */\n      0x00\n        /* \"#utility.yul\":3419:3428   */\n      dup4\n        /* \"#utility.yul\":3415:3432   */\n      add\n        /* \"#utility.yul\":3406:3412   */\n      dup5\n        /* \"#utility.yul\":3368:3433   */\n      tag_257\n      jump\t// in\n    tag_330:\n        /* \"#utility.yul\":3230:3440   */\n      swap3\n      swap2\n      pop\n      pop\n      jump\t// out\n        /* \"#utility.yul\":3446:3775   */\n    tag_37:\n        /* \"#utility.yul\":3505:3511   */\n      0x00\n        /* \"#utility.yul\":3554:3556   */\n      0x20\n        /* \"#utility.yul\":3542:3551   */\n      dup3\n        /* \"#utility.yul\":3533:3540   */\n      dup5\n        /* \"#utility.yul\":3529:3552   */\n      sub\n        /* \"#utility.yul\":3525:3557   */\n      slt\n        /* \"#utility.yul\":3522:3641   */\n      iszero\n      tag_332\n      jumpi\n        /* \"#utility.yul\":3560:3639   */\n      tag_333\n      tag_247\n      jump\t// in\n    tag_333:\n        /* \"#utility.yul\":3522:3641   */\n    tag_332:\n        /* \"#utility.yul\":3680:3681   */\n      0x00\n        /* \"#utility.yul\":3705:3758   */\n      tag_334\n        /* \"#utility.yul\":3750:3757   */\n      dup5\n        /* \"#utility.yul\":3741:3747   */\n      dup3\n        /* \"#utility.yul\":3730:3739   */\n      dup6\n        /* \"#utility.yul\":3726:3748   */\n      add\n        /* \"#utility.yul\":3705:3758   */\n      tag_252\n      jump\t// in\n    tag_334:\n        /* \"#utility.yul\":3695:3758   */\n      swap2\n      pop\n        /* \"#utility.yul\":3651:3768   */\n      pop\n        /* \"#utility.yul\":3446:3775   */\n      swap3\n      swap2\n      pop\n      pop\n      jump\t// out\n        /* \"#utility.yul\":3781:3899   */\n    tag_258:\n        /* \"#utility.yul\":3868:3892   */\n      tag_336\n        /* \"#utility.yul\":3886:3891   */\n      dup2\n        /* \"#utility.yul\":3868:3892   */\n      tag_253\n      jump\t// in\n    tag_336:\n        /* \"#utility.yul\":3863:3866   */\n      dup3\n        /* \"#utility.yul\":3856:3893   */\n      mstore\n        /* \"#utility.yul\":3781:3899   */\n      pop\n      pop\n      jump\t// out\n        /* \"#utility.yul\":3905:4127   */\n    tag_43:\n        /* \"#utility.yul\":3998:4002   */\n      0x00\n        /* \"#utility.yul\":4036:4038   */\n      0x20\n        /* \"#utility.yul\":4025:4034   */\n      dup3\n        /* \"#utility.yul\":4021:4039   */\n      add\n        /* \"#utility.yul\":4013:4039   */\n      swap1\n      pop\n        /* \"#utility.yul\":4049:4120   */\n      tag_338\n        /* \"#utility.yul\":4117:4118   */\n      0x00\n        /* \"#utility.yul\":4106:4115   */\n      dup4\n        /* \"#utility.yul\":4102:4119   */\n      add\n        /* \"#utility.yul\":4093:4099   */\n      dup5\n        /* \"#utility.yul\":4049:4120   */\n      tag_258\n      jump\t// in\n    tag_338:\n        /* \"#utility.yul\":3905:4127   */\n      swap3\n      swap2\n      pop\n      pop\n      jump\t// out\n        /* \"#utility.yul\":4133:4752   */\n    tag_46:\n        /* \"#utility.yul\":4210:4216   */\n      0x00\n        /* \"#utility.yul\":4218:4224   */\n      dup1\n        /* \"#utility.yul\":4226:4232   */\n      0x00\n        /* \"#utility.yul\":4275:4277   */\n      0x60\n        /* \"#utility.yul\":4263:4272   */\n      dup5\n        /* \"#utility.yul\":4254:4261   */\n      dup7\n        /* \"#utility.yul\":4250:4273   */\n      sub\n        /* \"#utility.yul\":4246:4278   */\n      slt\n        /* \"#utility.yul\":4243:4362   */\n      iszero\n      tag_340\n      jumpi\n        /* \"#utility.yul\":4281:4360   */\n      tag_341\n      tag_247\n      jump\t// in\n    tag_341:\n        /* \"#utility.yul\":4243:4362   */\n    tag_340:\n        /* \"#utility.yul\":4401:4402   */\n      0x00\n        /* \"#utility.yul\":4426:4479   */\n      tag_342\n        /* \"#utility.yul\":4471:4478   */\n      dup7\n        /* \"#utility.yul\":4462:4468   */\n      dup3\n        /* \"#utility.yul\":4451:4460   */\n      dup8\n        /* \"#utility.yul\":4447:4469   */\n      add\n        /* \"#utility.yul\":4426:4479   */\n      tag_252\n      jump\t// in\n    tag_342:\n        /* \"#utility.yul\":4416:4479   */\n      swap4\n      pop\n        /* \"#utility.yul\":4372:4489   */\n      pop\n        /* \"#utility.yul\":4528:4530   */\n      0x20\n        /* \"#utility.yul\":4554:4607   */\n      tag_343\n        /* \"#utility.yul\":4599:4606   */\n      dup7\n        /* \"#utility.yul\":4590:4596   */\n      dup3\n        /* \"#utility.yul\":4579:4588   */\n      dup8\n        /* \"#utility.yul\":4575:4597   */\n      add\n        /* \"#utility.yul\":4554:4607   */\n      tag_252\n      jump\t// in\n    tag_343:\n        /* \"#utility.yul\":4544:4607   */\n      swap3\n      pop\n        /* \"#utility.yul\":4499:4617   */\n      pop\n        /* \"#utility.yul\":4656:4658   */\n      0x40\n        /* \"#utility.yul\":4682:4735   */\n      tag_344\n        /* \"#utility.yul\":4727:4734   */\n      dup7\n        /* \"#utility.yul\":4718:4724   */\n      dup3\n        /* \"#utility.yul\":4707:4716   */\n      dup8\n        /* \"#utility.yul\":4703:4725   */\n      add\n        /* \"#utility.yul\":4682:4735   */\n      tag_255\n      jump\t// in\n    tag_344:\n        /* \"#utility.yul\":4672:4735   */\n      swap2\n      pop\n        /* \"#utility.yul\":4627:4745   */\n      pop\n        /* \"#utility.yul\":4133:4752   */\n      swap3\n      pop\n      swap3\n      pop\n      swap3\n      jump\t// out\n        /* \"#utility.yul\":4758:4844   */\n    tag_259:\n        /* \"#utility.yul\":4793:4800   */\n      0x00\n        /* \"#utility.yul\":4833:4837   */\n      0xff\n        /* \"#utility.yul\":4826:4831   */\n      dup3\n        /* \"#utility.yul\":4822:4838   */\n      and\n        /* \"#utility.yul\":4811:4838   */\n      swap1\n      pop\n        /* \"#utility.yul\":4758:4844   */\n      swap2\n      swap1\n      pop\n      jump\t// out\n        /* \"#utility.yul\":4850:4962   */\n    tag_260:\n        /* \"#utility.yul\":4933:4955   */\n      tag_347\n        /* \"#utility.yul\":4949:4954   */\n      dup2\n        /* \"#utility.yul\":4933:4955   */\n      tag_259\n      jump\t// in\n    tag_347:\n        /* \"#utility.yul\":4928:4931   */\n      dup3\n        /* \"#utility.yul\":4921:4956   */\n      mstore\n        /* \"#utility.yul\":4850:4962   */\n      pop\n      pop\n      jump\t// out\n        /* \"#utility.yul\":4968:5182   */\n    tag_52:\n        /* \"#utility.yul\":5057:5061   */\n      0x00\n        /* \"#utility.yul\":5095:5097   */\n      0x20\n        /* \"#utility.yul\":5084:5093   */\n      dup3\n        /* \"#utility.yul\":5080:5098   */\n      add\n        /* \"#utility.yul\":5072:5098   */\n      swap1\n      pop\n        /* \"#utility.yul\":5108:5175   */\n      tag_349\n        /* \"#utility.yul\":5172:5173   */\n      0x00\n        /* \"#utility.yul\":5161:5170   */\n      dup4\n        /* \"#utility.yul\":5157:5174   */\n      add\n        /* \"#utility.yul\":5148:5154   */\n      dup5\n        /* \"#utility.yul\":5108:5175   */\n      tag_260\n      jump\t// in\n    tag_349:\n        /* \"#utility.yul\":4968:5182   */\n      swap3\n      swap2\n      pop\n      pop\n      jump\t// out\n        /* \"#utility.yul\":5188:5517   */\n    tag_55:\n        /* \"#utility.yul\":5247:5253   */\n      0x00\n        /* \"#utility.yul\":5296:5298   */\n      0x20\n        /* \"#utility.yul\":5284:5293   */\n      dup3\n        /* \"#utility.yul\":5275:5282   */\n      dup5\n        /* \"#utility.yul\":5271:5294   */\n      sub\n        /* \"#utility.yul\":5267:5299   */\n      slt\n        /* \"#utility.yul\":5264:5383   */\n      iszero\n      tag_351\n      jumpi\n        /* \"#utility.yul\":5302:5381   */\n      tag_352\n      tag_247\n      jump\t// in\n    tag_352:\n        /* \"#utility.yul\":5264:5383   */\n    tag_351:\n        /* \"#utility.yul\":5422:5423   */\n      0x00\n        /* \"#utility.yul\":5447:5500   */\n      tag_353\n        /* \"#utility.yul\":5492:5499   */\n      dup5\n        /* \"#utility.yul\":5483:5489   */\n      dup3\n        /* \"#utility.yul\":5472:5481   */\n      dup6\n        /* \"#utility.yul\":5468:5490   */\n      add\n        /* \"#utility.yul\":5447:5500   */\n      tag_255\n      jump\t// in\n    tag_353:\n        /* \"#utility.yul\":5437:5500   */\n      swap2\n      pop\n        /* \"#utility.yul\":5393:5510   */\n      pop\n        /* \"#utility.yul\":5188:5517   */\n      swap3\n      swap2\n      pop\n      pop\n      jump\t// out\n        /* \"#utility.yul\":5523:5640   */\n    tag_261:\n        /* \"#utility.yul\":5632:5633   */\n      0x00\n        /* \"#utility.yul\":5629:5630   */\n      dup1\n        /* \"#utility.yul\":5622:5634   */\n      revert\n        /* \"#utility.yul\":5646:5763   */\n    tag_262:\n        /* \"#utility.yul\":5755:5756   */\n      0x00\n        /* \"#utility.yul\":5752:5753   */\n      dup1\n        /* \"#utility.yul\":5745:5757   */\n      revert\n        /* \"#utility.yul\":5769:5886   */\n    tag_263:\n        /* \"#utility.yul\":5878:5879   */\n      0x00\n        /* \"#utility.yul\":5875:5876   */\n      dup1\n        /* \"#utility.yul\":5868:5880   */\n      revert\n        /* \"#utility.yul\":5906:6459   */\n    tag_264:\n        /* \"#utility.yul\":5964:5972   */\n      0x00\n        /* \"#utility.yul\":5974:5980   */\n      dup1\n        /* \"#utility.yul\":6024:6027   */\n      dup4\n        /* \"#utility.yul\":6017:6021   */\n      0x1f\n        /* \"#utility.yul\":6009:6015   */\n      dup5\n        /* \"#utility.yul\":6005:6022   */\n      add\n        /* \"#utility.yul\":6001:6028   */\n      slt\n        /* \"#utility.yul\":5991:6113   */\n      tag_358\n      jumpi\n        /* \"#utility.yul\":6032:6111   */\n      tag_359\n      tag_261\n      jump\t// in\n    tag_359:\n        /* \"#utility.yul\":5991:6113   */\n    tag_358:\n        /* \"#utility.yul\":6145:6151   */\n      dup3\n        /* \"#utility.yul\":6132:6152   */\n      calldataload\n        /* \"#utility.yul\":6122:6152   */\n      swap1\n      pop\n        /* \"#utility.yul\":6175:6193   */\n      0xffffffffffffffff\n        /* \"#utility.yul\":6167:6173   */\n      dup2\n        /* \"#utility.yul\":6164:6194   */\n      gt\n        /* \"#utility.yul\":6161:6278   */\n      iszero\n      tag_360\n      jumpi\n        /* \"#utility.yul\":6197:6276   */\n      tag_361\n      tag_262\n      jump\t// in\n    tag_361:\n        /* \"#utility.yul\":6161:6278   */\n    tag_360:\n        /* \"#utility.yul\":6311:6315   */\n      0x20\n        /* \"#utility.yul\":6303:6309   */\n      dup4\n        /* \"#utility.yul\":6299:6316   */\n      add\n        /* \"#utility.yul\":6287:6316   */\n      swap2\n      pop\n        /* \"#utility.yul\":6365:6368   */\n      dup4\n        /* \"#utility.yul\":6357:6361   */\n      0x01\n        /* \"#utility.yul\":6349:6355   */\n      dup3\n        /* \"#utility.yul\":6345:6362   */\n      mul\n        /* \"#utility.yul\":6335:6343   */\n      dup4\n        /* \"#utility.yul\":6331:6363   */\n      add\n        /* \"#utility.yul\":6328:6369   */\n      gt\n        /* \"#utility.yul\":6325:6453   */\n      iszero\n      tag_362\n      jumpi\n        /* \"#utility.yul\":6372:6451   */\n      tag_363\n      tag_263\n      jump\t// in\n    tag_363:\n        /* \"#utility.yul\":6325:6453   */\n    tag_362:\n        /* \"#utility.yul\":5906:6459   */\n      swap3\n      pop\n      swap3\n      swap1\n      pop\n      jump\t// out\n        /* \"#utility.yul\":6465:6994   */\n    tag_59:\n        /* \"#utility.yul\":6536:6542   */\n      0x00\n        /* \"#utility.yul\":6544:6550   */\n      dup1\n        /* \"#utility.yul\":6593:6595   */\n      0x20\n        /* \"#utility.yul\":6581:6590   */\n      dup4\n        /* \"#utility.yul\":6572:6579   */\n      dup6\n        /* \"#utility.yul\":6568:6591   */\n      sub\n        /* \"#utility.yul\":6564:6596   */\n      slt\n        /* \"#utility.yul\":6561:6680   */\n      iszero\n      tag_365\n      jumpi\n        /* \"#utility.yul\":6599:6678   */\n      tag_366\n      tag_247\n      jump\t// in\n    tag_366:\n        /* \"#utility.yul\":6561:6680   */\n    tag_365:\n        /* \"#utility.yul\":6747:6748   */\n      0x00\n        /* \"#utility.yul\":6736:6745   */\n      dup4\n        /* \"#utility.yul\":6732:6749   */\n      add\n        /* \"#utility.yul\":6719:6750   */\n      calldataload\n        /* \"#utility.yul\":6777:6795   */\n      0xffffffffffffffff\n        /* \"#utility.yul\":6769:6775   */\n      dup2\n        /* \"#utility.yul\":6766:6796   */\n      gt\n        /* \"#utility.yul\":6763:6880   */\n      iszero\n      tag_367\n      jumpi\n        /* \"#utility.yul\":6799:6878   */\n      tag_368\n      tag_248\n      jump\t// in\n    tag_368:\n        /* \"#utility.yul\":6763:6880   */\n    tag_367:\n        /* \"#utility.yul\":6912:6977   */\n      tag_369\n        /* \"#utility.yul\":6969:6976   */\n      dup6\n        /* \"#utility.yul\":6960:6966   */\n      dup3\n        /* \"#utility.yul\":6949:6958   */\n      dup7\n        /* \"#utility.yul\":6945:6967   */\n      add\n        /* \"#utility.yul\":6912:6977   */\n      tag_264\n      jump\t// in\n    tag_369:\n        /* \"#utility.yul\":6894:6977   */\n      swap3\n      pop\n      swap3\n      pop\n        /* \"#utility.yul\":6690:6987   */\n      pop\n        /* \"#utility.yul\":6465:6994   */\n      swap3\n      pop\n      swap3\n      swap1\n      pop\n      jump\t// out\n        /* \"#utility.yul\":7000:7118   */\n    tag_265:\n        /* \"#utility.yul\":7087:7111   */\n      tag_371\n        /* \"#utility.yul\":7105:7110   */\n      dup2\n        /* \"#utility.yul\":7087:7111   */\n      tag_250\n      jump\t// in\n    tag_371:\n        /* \"#utility.yul\":7082:7085   */\n      dup3\n        /* \"#utility.yul\":7075:7112   */\n      mstore\n        /* \"#utility.yul\":7000:7118   */\n      pop\n      pop\n      jump\t// out\n        /* \"#utility.yul\":7124:7346   */\n    tag_84:\n        /* \"#utility.yul\":7217:7221   */\n      0x00\n        /* \"#utility.yul\":7255:7257   */\n      0x20\n        /* \"#utility.yul\":7244:7253   */\n      dup3\n        /* \"#utility.yul\":7240:7258   */\n      add\n        /* \"#utility.yul\":7232:7258   */\n      swap1\n      pop\n        /* \"#utility.yul\":7268:7339   */\n      tag_373\n        /* \"#utility.yul\":7336:7337   */\n      0x00\n        /* \"#utility.yul\":7325:7334   */\n      dup4\n        /* \"#utility.yul\":7321:7338   */\n      add\n        /* \"#utility.yul\":7312:7318   */\n      dup5\n        /* \"#utility.yul\":7268:7339   */\n      tag_265\n      jump\t// in\n    tag_373:\n        /* \"#utility.yul\":7124:7346   */\n      swap3\n      swap2\n      pop\n      pop\n      jump\t// out\n        /* \"#utility.yul\":7352:7885   */\n    tag_89:\n        /* \"#utility.yul\":7521:7525   */\n      0x00\n        /* \"#utility.yul\":7559:7561   */\n      0x60\n        /* \"#utility.yul\":7548:7557   */\n      dup3\n        /* \"#utility.yul\":7544:7562   */\n      add\n        /* \"#utility.yul\":7536:7562   */\n      swap1\n      pop\n        /* \"#utility.yul\":7572:7643   */\n      tag_375\n        /* \"#utility.yul\":7640:7641   */\n      0x00\n        /* \"#utility.yul\":7629:7638   */\n      dup4\n        /* \"#utility.yul\":7625:7642   */\n      add\n        /* \"#utility.yul\":7616:7622   */\n      dup7\n        /* \"#utility.yul\":7572:7643   */\n      tag_265\n      jump\t// in\n    tag_375:\n        /* \"#utility.yul\":7690:7699   */\n      dup2\n        /* \"#utility.yul\":7684:7688   */\n      dup2\n        /* \"#utility.yul\":7680:7700   */\n      sub\n        /* \"#utility.yul\":7675:7677   */\n      0x20\n        /* \"#utility.yul\":7664:7673   */\n      dup4\n        /* \"#utility.yul\":7660:7678   */\n      add\n        /* \"#utility.yul\":7653:7701   */\n      mstore\n        /* \"#utility.yul\":7718:7796   */\n      tag_376\n        /* \"#utility.yul\":7791:7795   */\n      dup2\n        /* \"#utility.yul\":7782:7788   */\n      dup6\n        /* \"#utility.yul\":7718:7796   */\n      tag_245\n      jump\t// in\n    tag_376:\n        /* \"#utility.yul\":7710:7796   */\n      swap1\n      pop\n        /* \"#utility.yul\":7806:7878   */\n      tag_377\n        /* \"#utility.yul\":7874:7876   */\n      0x40\n        /* \"#utility.yul\":7863:7872   */\n      dup4\n        /* \"#utility.yul\":7859:7877   */\n      add\n        /* \"#utility.yul\":7850:7856   */\n      dup5\n        /* \"#utility.yul\":7806:7878   */\n      tag_258\n      jump\t// in\n    tag_377:\n        /* \"#utility.yul\":7352:7885   */\n      swap5\n      swap4\n      pop\n      pop\n      pop\n      pop\n      jump\t// out\n        /* \"#utility.yul\":7891:8365   */\n    tag_99:\n        /* \"#utility.yul\":7959:7965   */\n      0x00\n        /* \"#utility.yul\":7967:7973   */\n      dup1\n        /* \"#utility.yul\":8016:8018   */\n      0x40\n        /* \"#utility.yul\":8004:8013   */\n      dup4\n        /* \"#utility.yul\":7995:8002   */\n      dup6\n        /* \"#utility.yul\":7991:8014   */\n      sub\n        /* \"#utility.yul\":7987:8019   */\n      slt\n        /* \"#utility.yul\":7984:8103   */\n      iszero\n      tag_379\n      jumpi\n        /* \"#utility.yul\":8022:8101   */\n      tag_380\n      tag_247\n      jump\t// in\n    tag_380:\n        /* \"#utility.yul\":7984:8103   */\n    tag_379:\n        /* \"#utility.yul\":8142:8143   */\n      0x00\n        /* \"#utility.yul\":8167:8220   */\n      tag_381\n        /* \"#utility.yul\":8212:8219   */\n      dup6\n        /* \"#utility.yul\":8203:8209   */\n      dup3\n        /* \"#utility.yul\":8192:8201   */\n      dup7\n        /* \"#utility.yul\":8188:8210   */\n      add\n        /* \"#utility.yul\":8167:8220   */\n      tag_252\n      jump\t// in\n    tag_381:\n        /* \"#utility.yul\":8157:8220   */\n      swap3\n      pop\n        /* \"#utility.yul\":8113:8230   */\n      pop\n        /* \"#utility.yul\":8269:8271   */\n      0x20\n        /* \"#utility.yul\":8295:8348   */\n      tag_382\n        /* \"#utility.yul\":8340:8347   */\n      dup6\n        /* \"#utility.yul\":8331:8337   */\n      dup3\n        /* \"#utility.yul\":8320:8329   */\n      dup7\n        /* \"#utility.yul\":8316:8338   */\n      add\n        /* \"#utility.yul\":8295:8348   */\n      tag_252\n      jump\t// in\n    tag_382:\n        /* \"#utility.yul\":8285:8348   */\n      swap2\n      pop\n        /* \"#utility.yul\":8240:8358   */\n      pop\n        /* \"#utility.yul\":7891:8365   */\n      swap3\n      pop\n      swap3\n      swap1\n      pop\n      jump\t// out\n        /* \"#utility.yul\":8371:8551   */\n    tag_266:\n        /* \"#utility.yul\":8419:8496   */\n      0x4e487b7100000000000000000000000000000000000000000000000000000000\n        /* \"#utility.yul\":8416:8417   */\n      0x00\n        /* \"#utility.yul\":8409:8497   */\n      mstore\n        /* \"#utility.yul\":8516:8520   */\n      0x22\n        /* \"#utility.yul\":8513:8514   */\n      0x04\n        /* \"#utility.yul\":8506:8521   */\n      mstore\n        /* \"#utility.yul\":8540:8544   */\n      0x24\n        /* \"#utility.yul\":8537:8538   */\n      0x00\n        /* \"#utility.yul\":8530:8545   */\n      revert\n        /* \"#utility.yul\":8557:8877   */\n    tag_103:\n        /* \"#utility.yul\":8601:8607   */\n      0x00\n        /* \"#utility.yul\":8638:8639   */\n      0x02\n        /* \"#utility.yul\":8632:8636   */\n      dup3\n        /* \"#utility.yul\":8628:8640   */\n      div\n        /* \"#utility.yul\":8618:8640   */\n      swap1\n      pop\n        /* \"#utility.yul\":8685:8686   */\n      0x01\n        /* \"#utility.yul\":8679:8683   */\n      dup3\n        /* \"#utility.yul\":8675:8687   */\n      and\n        /* \"#utility.yul\":8706:8724   */\n      dup1\n        /* \"#utility.yul\":8696:8777   */\n      tag_385\n      jumpi\n        /* \"#utility.yul\":8762:8766   */\n      0x7f\n        /* \"#utility.yul\":8754:8760   */\n      dup3\n        /* \"#utility.yul\":8750:8767   */\n      and\n        /* \"#utility.yul\":8740:8767   */\n      swap2\n      pop\n        /* \"#utility.yul\":8696:8777   */\n    tag_385:\n        /* \"#utility.yul\":8824:8826   */\n      0x20\n        /* \"#utility.yul\":8816:8822   */\n      dup3\n        /* \"#utility.yul\":8813:8827   */\n      lt\n        /* \"#utility.yul\":8793:8811   */\n      dup2\n        /* \"#utility.yul\":8790:8828   */\n      sub\n        /* \"#utility.yul\":8787:8871   */\n      tag_386\n      jumpi\n        /* \"#utility.yul\":8843:8861   */\n      tag_387\n      tag_266\n      jump\t// in\n    tag_387:\n        /* \"#utility.yul\":8787:8871   */\n    tag_386:\n        /* \"#utility.yul\":8608:8877   */\n      pop\n        /* \"#utility.yul\":8557:8877   */\n      swap2\n      swap1\n      pop\n      jump\t// out\n        /* \"#utility.yul\":8883:9054   */\n    tag_267:\n        /* \"#utility.yul\":9023:9046   */\n      0x4d6178696d756d20617070726f76616c206f6620310000000000000000000000\n        /* \"#utility.yul\":9019:9020   */\n      0x00\n        /* \"#utility.yul\":9011:9017   */\n      dup3\n        /* \"#utility.yul\":9007:9021   */\n      add\n        /* \"#utility.yul\":9000:9047   */\n      mstore\n        /* \"#utility.yul\":8883:9054   */\n      pop\n      jump\t// out\n        /* \"#utility.yul\":9060:9426   */\n    tag_268:\n        /* \"#utility.yul\":9202:9205   */\n      0x00\n        /* \"#utility.yul\":9223:9290   */\n      tag_390\n        /* \"#utility.yul\":9287:9289   */\n      0x15\n        /* \"#utility.yul\":9282:9285   */\n      dup4\n        /* \"#utility.yul\":9223:9290   */\n      tag_242\n      jump\t// in\n    tag_390:\n        /* \"#utility.yul\":9216:9290   */\n      swap2\n      pop\n        /* \"#utility.yul\":9299:9392   */\n      tag_391\n        /* \"#utility.yul\":9388:9391   */\n      dup3\n        /* \"#utility.yul\":9299:9392   */\n      tag_267\n      jump\t// in\n    tag_391:\n        /* \"#utility.yul\":9417:9419   */\n      0x20\n        /* \"#utility.yul\":9412:9415   */\n      dup3\n        /* \"#utility.yul\":9408:9420   */\n      add\n        /* \"#utility.yul\":9401:9420   */\n      swap1\n      pop\n        /* \"#utility.yul\":9060:9426   */\n      swap2\n      swap1\n      pop\n      jump\t// out\n        /* \"#utility.yul\":9432:9851   */\n    tag_111:\n        /* \"#utility.yul\":9598:9602   */\n      0x00\n        /* \"#utility.yul\":9636:9638   */\n      0x20\n        /* \"#utility.yul\":9625:9634   */\n      dup3\n        /* \"#utility.yul\":9621:9639   */\n      add\n        /* \"#utility.yul\":9613:9639   */\n      swap1\n      pop\n        /* \"#utility.yul\":9685:9694   */\n      dup2\n        /* \"#utility.yul\":9679:9683   */\n      dup2\n        /* \"#utility.yul\":9675:9695   */\n      sub\n        /* \"#utility.yul\":9671:9672   */\n      0x00\n        /* \"#utility.yul\":9660:9669   */\n      dup4\n        /* \"#utility.yul\":9656:9673   */\n      add\n        /* \"#utility.yul\":9649:9696   */\n      mstore\n        /* \"#utility.yul\":9713:9844   */\n      tag_393\n        /* \"#utility.yul\":9839:9843   */\n      dup2\n        /* \"#utility.yul\":9713:9844   */\n      tag_268\n      jump\t// in\n    tag_393:\n        /* \"#utility.yul\":9705:9844   */\n      swap1\n      pop\n        /* \"#utility.yul\":9432:9851   */\n      swap2\n      swap1\n      pop\n      jump\t// out\n        /* \"#utility.yul\":9857:10030   */\n    tag_269:\n        /* \"#utility.yul\":9997:10022   */\n      0x4d6178696d756d207472616e73666572206f6620302e31000000000000000000\n        /* \"#utility.yul\":9993:9994   */\n      0x00\n        /* \"#utility.yul\":9985:9991   */\n      dup3\n        /* \"#utility.yul\":9981:9995   */\n      add\n        /* \"#utility.yul\":9974:10023   */\n      mstore\n        /* \"#utility.yul\":9857:10030   */\n      pop\n      jump\t// out\n        /* \"#utility.yul\":10036:10402   */\n    tag_270:\n        /* \"#utility.yul\":10178:10181   */\n      0x00\n        /* \"#utility.yul\":10199:10266   */\n      tag_396\n        /* \"#utility.yul\":10263:10265   */\n      0x17\n        /* \"#utility.yul\":10258:10261   */\n      dup4\n        /* \"#utility.yul\":10199:10266   */\n      tag_242\n      jump\t// in\n    tag_396:\n        /* \"#utility.yul\":10192:10266   */\n      swap2\n      pop\n        /* \"#utility.yul\":10275:10368   */\n      tag_397\n        /* \"#utility.yul\":10364:10367   */\n      dup3\n        /* \"#utility.yul\":10275:10368   */\n      tag_269\n      jump\t// in\n    tag_397:\n        /* \"#utility.yul\":10393:10395   */\n      0x20\n        /* \"#utility.yul\":10388:10391   */\n      dup3\n        /* \"#utility.yul\":10384:10396   */\n      add\n        /* \"#utility.yul\":10377:10396   */\n      swap1\n      pop\n        /* \"#utility.yul\":10036:10402   */\n      swap2\n      swap1\n      pop\n      jump\t// out\n        /* \"#utility.yul\":10408:10827   */\n    tag_121:\n        /* \"#utility.yul\":10574:10578   */\n      0x00\n        /* \"#utility.yul\":10612:10614   */\n      0x20\n        /* \"#utility.yul\":10601:10610   */\n      dup3\n        /* \"#utility.yul\":10597:10615   */\n      add\n        /* \"#utility.yul\":10589:10615   */\n      swap1\n      pop\n        /* \"#utility.yul\":10661:10670   */\n      dup2\n        /* \"#utility.yul\":10655:10659   */\n      dup2\n        /* \"#utility.yul\":10651:10671   */\n      sub\n        /* \"#utility.yul\":10647:10648   */\n      0x00\n        /* \"#utility.yul\":10636:10645   */\n      dup4\n        /* \"#utility.yul\":10632:10649   */\n      add\n        /* \"#utility.yul\":10625:10672   */\n      mstore\n        /* \"#utility.yul\":10689:10820   */\n      tag_399\n        /* \"#utility.yul\":10815:10819   */\n      dup2\n        /* \"#utility.yul\":10689:10820   */\n      tag_270\n      jump\t// in\n    tag_399:\n        /* \"#utility.yul\":10681:10820   */\n      swap1\n      pop\n        /* \"#utility.yul\":10408:10827   */\n      swap2\n      swap1\n      pop\n      jump\t// out\n        /* \"#utility.yul\":10833:11013   */\n    tag_271:\n        /* \"#utility.yul\":10881:10958   */\n      0x4e487b7100000000000000000000000000000000000000000000000000000000\n        /* \"#utility.yul\":10878:10879   */\n      0x00\n        /* \"#utility.yul\":10871:10959   */\n      mstore\n        /* \"#utility.yul\":10978:10982   */\n      0x11\n        /* \"#utility.yul\":10975:10976   */\n      0x04\n        /* \"#utility.yul\":10968:10983   */\n      mstore\n        /* \"#utility.yul\":11002:11006   */\n      0x24\n        /* \"#utility.yul\":10999:11000   */\n      0x00\n        /* \"#utility.yul\":10992:11007   */\n      revert\n        /* \"#utility.yul\":11019:11213   */\n    tag_123:\n        /* \"#utility.yul\":11059:11063   */\n      0x00\n        /* \"#utility.yul\":11079:11099   */\n      tag_402\n        /* \"#utility.yul\":11097:11098   */\n      dup3\n        /* \"#utility.yul\":11079:11099   */\n      tag_253\n      jump\t// in\n    tag_402:\n        /* \"#utility.yul\":11074:11099   */\n      swap2\n      pop\n        /* \"#utility.yul\":11113:11133   */\n      tag_403\n        /* \"#utility.yul\":11131:11132   */\n      dup4\n        /* \"#utility.yul\":11113:11133   */\n      tag_253\n      jump\t// in\n    tag_403:\n        /* \"#utility.yul\":11108:11133   */\n      swap3\n      pop\n        /* \"#utility.yul\":11157:11158   */\n      dup3\n        /* \"#utility.yul\":11154:11155   */\n      dup3\n        /* \"#utility.yul\":11150:11159   */\n      sub\n        /* \"#utility.yul\":11142:11159   */\n      swap1\n      pop\n        /* \"#utility.yul\":11181:11182   */\n      dup2\n        /* \"#utility.yul\":11175:11179   */\n      dup2\n        /* \"#utility.yul\":11172:11183   */\n      gt\n        /* \"#utility.yul\":11169:11206   */\n      iszero\n      tag_404\n      jumpi\n        /* \"#utility.yul\":11186:11204   */\n      tag_405\n      tag_271\n      jump\t// in\n    tag_405:\n        /* \"#utility.yul\":11169:11206   */\n    tag_404:\n        /* \"#utility.yul\":11019:11213   */\n      swap3\n      swap2\n      pop\n      pop\n      jump\t// out\n        /* \"#utility.yul\":11219:11410   */\n    tag_126:\n        /* \"#utility.yul\":11259:11262   */\n      0x00\n        /* \"#utility.yul\":11278:11298   */\n      tag_407\n        /* \"#utility.yul\":11296:11297   */\n      dup3\n        /* \"#utility.yul\":11278:11298   */\n      tag_253\n      jump\t// in\n    tag_407:\n        /* \"#utility.yul\":11273:11298   */\n      swap2\n      pop\n        /* \"#utility.yul\":11312:11332   */\n      tag_408\n        /* \"#utility.yul\":11330:11331   */\n      dup4\n        /* \"#utility.yul\":11312:11332   */\n      tag_253\n      jump\t// in\n    tag_408:\n        /* \"#utility.yul\":11307:11332   */\n      swap3\n      pop\n        /* \"#utility.yul\":11355:11356   */\n      dup3\n        /* \"#utility.yul\":11352:11353   */\n      dup3\n        /* \"#utility.yul\":11348:11357   */\n      add\n        /* \"#utility.yul\":11341:11357   */\n      swap1\n      pop\n        /* \"#utility.yul\":11376:11379   */\n      dup1\n        /* \"#utility.yul\":11373:11374   */\n      dup3\n        /* \"#utility.yul\":11370:11380   */\n      gt\n        /* \"#utility.yul\":11367:11403   */\n      iszero\n      tag_409\n      jumpi\n        /* \"#utility.yul\":11383:11401   */\n      tag_410\n      tag_271\n      jump\t// in\n    tag_410:\n        /* \"#utility.yul\":11367:11403   */\n    tag_409:\n        /* \"#utility.yul\":11219:11410   */\n      swap3\n      swap2\n      pop\n      pop\n      jump\t// out\n        /* \"#utility.yul\":11416:11513   */\n    tag_272:\n        /* \"#utility.yul\":11475:11481   */\n      0x00\n        /* \"#utility.yul\":11503:11506   */\n      dup3\n        /* \"#utility.yul\":11493:11506   */\n      swap1\n      pop\n        /* \"#utility.yul\":11416:11513   */\n      swap3\n      swap2\n      pop\n      pop\n      jump\t// out\n        /* \"#utility.yul\":11519:11699   */\n    tag_273:\n        /* \"#utility.yul\":11567:11644   */\n      0x4e487b7100000000000000000000000000000000000000000000000000000000\n        /* \"#utility.yul\":11564:11565   */\n      0x00\n        /* \"#utility.yul\":11557:11645   */\n      mstore\n        /* \"#utility.yul\":11664:11668   */\n      0x41\n        /* \"#utility.yul\":11661:11662   */\n      0x04\n        /* \"#utility.yul\":11654:11669   */\n      mstore\n        /* \"#utility.yul\":11688:11692   */\n      0x24\n        /* \"#utility.yul\":11685:11686   */\n      0x00\n        /* \"#utility.yul\":11678:11693   */\n      revert\n        /* \"#utility.yul\":11705:11846   */\n    tag_274:\n        /* \"#utility.yul\":11754:11758   */\n      0x00\n        /* \"#utility.yul\":11777:11780   */\n      dup2\n        /* \"#utility.yul\":11769:11780   */\n      swap1\n      pop\n        /* \"#utility.yul\":11800:11803   */\n      dup2\n        /* \"#utility.yul\":11797:11798   */\n      0x00\n        /* \"#utility.yul\":11790:11804   */\n      mstore\n        /* \"#utility.yul\":11834:11838   */\n      0x20\n        /* \"#utility.yul\":11831:11832   */\n      0x00\n        /* \"#utility.yul\":11821:11839   */\n      keccak256\n        /* \"#utility.yul\":11813:11839   */\n      swap1\n      pop\n        /* \"#utility.yul\":11705:11846   */\n      swap2\n      swap1\n      pop\n      jump\t// out\n        /* \"#utility.yul\":11852:11945   */\n    tag_275:\n        /* \"#utility.yul\":11889:11895   */\n      0x00\n        /* \"#utility.yul\":11936:11938   */\n      0x20\n        /* \"#utility.yul\":11931:11933   */\n      0x1f\n        /* \"#utility.yul\":11924:11929   */\n      dup4\n        /* \"#utility.yul\":11920:11934   */\n      add\n        /* \"#utility.yul\":11916:11939   */\n      div\n        /* \"#utility.yul\":11906:11939   */\n      swap1\n      pop\n        /* \"#utility.yul\":11852:11945   */\n      swap2\n      swap1\n      pop\n      jump\t// out\n        /* \"#utility.yul\":11951:12058   */\n    tag_276:\n        /* \"#utility.yul\":11995:12003   */\n      0x00\n        /* \"#utility.yul\":12045:12050   */\n      dup3\n        /* \"#utility.yul\":12039:12043   */\n      dup3\n        /* \"#utility.yul\":12035:12051   */\n      shl\n        /* \"#utility.yul\":12014:12051   */\n      swap1\n      pop\n        /* \"#utility.yul\":11951:12058   */\n      swap3\n      swap2\n      pop\n      pop\n      jump\t// out\n        /* \"#utility.yul\":12064:12457   */\n    tag_277:\n        /* \"#utility.yul\":12133:12139   */\n      0x00\n        /* \"#utility.yul\":12183:12184   */\n      0x08\n        /* \"#utility.yul\":12171:12181   */\n      dup4\n        /* \"#utility.yul\":12167:12185   */\n      mul\n        /* \"#utility.yul\":12206:12303   */\n      tag_417\n        /* \"#utility.yul\":12236:12302   */\n      0xffffffffffffffffffffffffffffffffffffffffffffffffffffffffffffffff\n        /* \"#utility.yul\":12225:12234   */\n      dup3\n        /* \"#utility.yul\":12206:12303   */\n      tag_276\n      jump\t// in\n    tag_417:\n        /* \"#utility.yul\":12324:12363   */\n      tag_418\n        /* \"#utility.yul\":12354:12362   */\n      dup7\n        /* \"#utility.yul\":12343:12352   */\n      dup4\n        /* \"#utility.yul\":12324:12363   */\n      tag_276\n      jump\t// in\n    tag_418:\n        /* \"#utility.yul\":12312:12363   */\n      swap6\n      pop\n        /* \"#utility.yul\":12396:12400   */\n      dup1\n        /* \"#utility.yul\":12392:12401   */\n      not\n        /* \"#utility.yul\":12385:12390   */\n      dup5\n        /* \"#utility.yul\":12381:12402   */\n      and\n        /* \"#utility.yul\":12372:12402   */\n      swap4\n      pop\n        /* \"#utility.yul\":12445:12449   */\n      dup1\n        /* \"#utility.yul\":12435:12443   */\n      dup7\n        /* \"#utility.yul\":12431:12450   */\n      and\n        /* \"#utility.yul\":12424:12429   */\n      dup5\n        /* \"#utility.yul\":12421:12451   */\n      or\n        /* \"#utility.yul\":12411:12451   */\n      swap3\n      pop\n        /* \"#utility.yul\":12140:12457   */\n      pop\n      pop\n        /* \"#utility.yul\":12064:12457   */\n      swap4\n      swap3\n      pop\n      pop\n      pop\n      jump\t// out\n        /* \"#utility.yul\":12463:12523   */\n    tag_278:\n        /* \"#utility.yul\":12491:12494   */\n      0x00\n        /* \"#utility.yul\":12512:12517   */\n      dup2\n        /* \"#utility.yul\":12505:12517   */\n      swap1\n      pop\n        /* \"#utility.yul\":12463:12523   */\n      swap2\n      swap1\n      pop\n      jump\t// out\n        /* \"#utility.yul\":12529:12671   */\n    tag_279:\n        /* \"#utility.yul\":12579:12588   */\n      0x00\n        /* \"#utility.yul\":12612:12665   */\n      tag_421\n        /* \"#utility.yul\":12630:12664   */\n      tag_422\n        /* \"#utility.yul\":12639:12663   */\n      tag_423\n        /* \"#utility.yul\":12657:12662   */\n      dup5\n        /* \"#utility.yul\":12639:12663   */\n      tag_253\n      jump\t// in\n    tag_423:\n        /* \"#utility.yul\":12630:12664   */\n      tag_278\n      jump\t// in\n    tag_422:\n        /* \"#utility.yul\":12612:12665   */\n      tag_253\n      jump\t// in\n    tag_421:\n        /* \"#utility.yul\":12599:12665   */\n      swap1\n      pop\n        /* \"#utility.yul\":12529:12671   */\n      swap2\n      swap1\n      pop\n      jump\t// out\n        /* \"#utility.yul\":12677:12752   */\n    tag_280:\n        /* \"#utility.yul\":12720:12723   */\n      0x00\n        /* \"#utility.yul\":12741:12746   */\n      dup2\n        /* \"#utility.yul\":12734:12746   */\n      swap1\n      pop\n        /* \"#utility.yul\":12677:12752   */\n      swap2\n      swap1\n      pop\n      jump\t// out\n        /* \"#utility.yul\":12758:13027   */\n    tag_281:\n        /* \"#utility.yul\":12868:12907   */\n      tag_426\n        /* \"#utility.yul\":12899:12906   */\n      dup4\n        /* \"#utility.yul\":12868:12907   */\n      tag_279\n      jump\t// in\n    tag_426:\n        /* \"#utility.yul\":12929:13020   */\n      tag_427\n        /* \"#utility.yul\":12978:13019   */\n      tag_428\n        /* \"#utility.yul\":13002:13018   */\n      dup3\n        /* \"#utility.yul\":12978:13019   */\n      tag_280\n      jump\t// in\n    tag_428:\n        /* \"#utility.yul\":12970:12976   */\n      dup5\n        /* \"#utility.yul\":12963:12967   */\n      dup5\n        /* \"#utility.yul\":12957:12968   */\n      sload\n        /* \"#utility.yul\":12929:13020   */\n      tag_277\n      jump\t// in\n    tag_427:\n        /* \"#utility.yul\":12923:12927   */\n      dup3\n        /* \"#utility.yul\":12916:13021   */\n      sstore\n        /* \"#utility.yul\":12834:13027   */\n      pop\n        /* \"#utility.yul\":12758:13027   */\n      pop\n      pop\n      pop\n      jump\t// out\n        /* \"#utility.yul\":13033:13106   */\n    tag_282:\n        /* \"#utility.yul\":13078:13081   */\n      0x00\n        /* \"#utility.yul\":13033:13106   */\n      swap1\n      jump\t// out\n        /* \"#utility.yul\":13112:13301   */\n    tag_283:\n        /* \"#utility.yul\":13189:13221   */\n      tag_431\n      tag_282\n      jump\t// in\n    tag_431:\n        /* \"#utility.yul\":13230:13295   */\n      tag_432\n        /* \"#utility.yul\":13288:13294   */\n      dup2\n        /* \"#utility.yul\":13280:13286   */\n      dup5\n        /* \"#utility.yul\":13274:13278   */\n      dup5\n        /* \"#utility.yul\":13230:13295   */\n      tag_281\n      jump\t// in\n    tag_432:\n        /* \"#utility.yul\":13165:13301   */\n      pop\n        /* \"#utility.yul\":13112:13301   */\n      pop\n      pop\n      jump\t// out\n        /* \"#utility.yul\":13307:13493   */\n    tag_284:\n        /* \"#utility.yul\":13367:13487   */\n    tag_434:\n        /* \"#utility.yul\":13384:13387   */\n      dup2\n        /* \"#utility.yul\":13377:13382   */\n      dup2\n        /* \"#utility.yul\":13374:13388   */\n      lt\n        /* \"#utility.yul\":13367:13487   */\n      iszero\n      tag_436\n      jumpi\n        /* \"#utility.yul\":13438:13477   */\n      tag_437\n        /* \"#utility.yul\":13475:13476   */\n      0x00\n        /* \"#utility.yul\":13468:13473   */\n      dup3\n        /* \"#utility.yul\":13438:13477   */\n      tag_283\n      jump\t// in\n    tag_437:\n        /* \"#utility.yul\":13411:13412   */\n      0x01\n        /* \"#utility.yul\":13404:13409   */\n      dup2\n        /* \"#utility.yul\":13400:13413   */\n      add\n        /* \"#utility.yul\":13391:13413   */\n      swap1\n      pop\n        /* \"#utility.yul\":13367:13487   */\n      jump(tag_434)\n    tag_436:\n        /* \"#utility.yul\":13307:13493   */\n      pop\n      pop\n      jump\t// out\n        /* \"#utility.yul\":13499:14042   */\n    tag_285:\n        /* \"#utility.yul\":13600:13602   */\n      0x1f\n        /* \"#utility.yul\":13595:13598   */\n      dup3\n        /* \"#utility.yul\":13592:13603   */\n      gt\n        /* \"#utility.yul\":13589:14035   */\n      iszero\n      tag_439\n      jumpi\n        /* \"#utility.yul\":13634:13672   */\n      tag_440\n        /* \"#utility.yul\":13666:13671   */\n      dup2\n        /* \"#utility.yul\":13634:13672   */\n      tag_274\n      jump\t// in\n    tag_440:\n        /* \"#utility.yul\":13718:13747   */\n      tag_441\n        /* \"#utility.yul\":13736:13746   */\n      dup5\n        /* \"#utility.yul\":13718:13747   */\n      tag_275\n      jump\t// in\n    tag_441:\n        /* \"#utility.yul\":13708:13716   */\n      dup2\n        /* \"#utility.yul\":13704:13748   */\n      add\n        /* \"#utility.yul\":13901:13903   */\n      0x20\n        /* \"#utility.yul\":13889:13899   */\n      dup6\n        /* \"#utility.yul\":13886:13904   */\n      lt\n        /* \"#utility.yul\":13883:13932   */\n      iszero\n      tag_442\n      jumpi\n        /* \"#utility.yul\":13922:13930   */\n      dup2\n        /* \"#utility.yul\":13907:13930   */\n      swap1\n      pop\n        /* \"#utility.yul\":13883:13932   */\n    tag_442:\n        /* \"#utility.yul\":13945:14025   */\n      tag_443\n        /* \"#utility.yul\":14001:14023   */\n      tag_444\n        /* \"#utility.yul\":14019:14022   */\n      dup6\n        /* \"#utility.yul\":14001:14023   */\n      tag_275\n      jump\t// in\n    tag_444:\n        /* \"#utility.yul\":13991:13999   */\n      dup4\n        /* \"#utility.yul\":13987:14024   */\n      add\n        /* \"#utility.yul\":13974:13985   */\n      dup3\n        /* \"#utility.yul\":13945:14025   */\n      tag_284\n      jump\t// in\n    tag_443:\n        /* \"#utility.yul\":13604:14035   */\n      pop\n      pop\n        /* \"#utility.yul\":13589:14035   */\n    tag_439:\n        /* \"#utility.yul\":13499:14042   */\n      pop\n      pop\n      pop\n      jump\t// out\n        /* \"#utility.yul\":14048:14165   */\n    tag_286:\n        /* \"#utility.yul\":14102:14110   */\n      0x00\n        /* \"#utility.yul\":14152:14157   */\n      dup3\n        /* \"#utility.yul\":14146:14150   */\n      dup3\n        /* \"#utility.yul\":14142:14158   */\n      shr\n        /* \"#utility.yul\":14121:14158   */\n      swap1\n      pop\n        /* \"#utility.yul\":14048:14165   */\n      swap3\n      swap2\n      pop\n      pop\n      jump\t// out\n        /* \"#utility.yul\":14171:14340   */\n    tag_287:\n        /* \"#utility.yul\":14215:14221   */\n      0x00\n        /* \"#utility.yul\":14248:14299   */\n      tag_447\n        /* \"#utility.yul\":14296:14297   */\n      0x00\n        /* \"#utility.yul\":14292:14298   */\n      not\n        /* \"#utility.yul\":14284:14289   */\n      dup5\n        /* \"#utility.yul\":14281:14282   */\n      0x08\n        /* \"#utility.yul\":14277:14290   */\n      mul\n        /* \"#utility.yul\":14248:14299   */\n      tag_286\n      jump\t// in\n    tag_447:\n        /* \"#utility.yul\":14244:14300   */\n      not\n        /* \"#utility.yul\":14329:14333   */\n      dup1\n        /* \"#utility.yul\":14323:14327   */\n      dup4\n        /* \"#utility.yul\":14319:14334   */\n      and\n        /* \"#utility.yul\":14309:14334   */\n      swap2\n      pop\n        /* \"#utility.yul\":14222:14340   */\n      pop\n        /* \"#utility.yul\":14171:14340   */\n      swap3\n      swap2\n      pop\n      pop\n      jump\t// out\n        /* \"#utility.yul\":14345:14640   */\n    tag_288:\n        /* \"#utility.yul\":14421:14425   */\n      0x00\n        /* \"#utility.yul\":14567:14596   */\n      tag_449\n        /* \"#utility.yul\":14592:14595   */\n      dup4\n        /* \"#utility.yul\":14586:14590   */\n      dup4\n        /* \"#utility.yul\":14567:14596   */\n      tag_287\n      jump\t// in\n    tag_449:\n        /* \"#utility.yul\":14559:14596   */\n      swap2\n      pop\n        /* \"#utility.yul\":14629:14632   */\n      dup3\n        /* \"#utility.yul\":14626:14627   */\n      0x02\n        /* \"#utility.yul\":14622:14633   */\n      mul\n        /* \"#utility.yul\":14616:14620   */\n      dup3\n        /* \"#utility.yul\":14613:14634   */\n      or\n        /* \"#utility.yul\":14605:14634   */\n      swap1\n      pop\n        /* \"#utility.yul\":14345:14640   */\n      swap3\n      swap2\n      pop\n      pop\n      jump\t// out\n        /* \"#utility.yul\":14645:16048   */\n    tag_136:\n        /* \"#utility.yul\":14769:14813   */\n      tag_451\n        /* \"#utility.yul\":14809:14812   */\n      dup4\n        /* \"#utility.yul\":14804:14807   */\n      dup4\n        /* \"#utility.yul\":14769:14813   */\n      tag_272\n      jump\t// in\n    tag_451:\n        /* \"#utility.yul\":14878:14896   */\n      0xffffffffffffffff\n        /* \"#utility.yul\":14870:14876   */\n      dup2\n        /* \"#utility.yul\":14867:14897   */\n      gt\n        /* \"#utility.yul\":14864:14920   */\n      iszero\n      tag_452\n      jumpi\n        /* \"#utility.yul\":14900:14918   */\n      tag_453\n      tag_273\n      jump\t// in\n    tag_453:\n        /* \"#utility.yul\":14864:14920   */\n    tag_452:\n        /* \"#utility.yul\":14944:14982   */\n      tag_454\n        /* \"#utility.yul\":14976:14980   */\n      dup3\n        /* \"#utility.yul\":14970:14981   */\n      sload\n        /* \"#utility.yul\":14944:14982   */\n      tag_103\n      jump\t// in\n    tag_454:\n        /* \"#utility.yul\":15029:15096   */\n      tag_455\n        /* \"#utility.yul\":15089:15095   */\n      dup3\n        /* \"#utility.yul\":15081:15087   */\n      dup3\n        /* \"#utility.yul\":15075:15079   */\n      dup6\n        /* \"#utility.yul\":15029:15096   */\n      tag_285\n      jump\t// in\n    tag_455:\n        /* \"#utility.yul\":15123:15124   */\n      0x00\n        /* \"#utility.yul\":15152:15154   */\n      0x1f\n        /* \"#utility.yul\":15144:15150   */\n      dup4\n        /* \"#utility.yul\":15141:15155   */\n      gt\n        /* \"#utility.yul\":15169:15170   */\n      0x01\n        /* \"#utility.yul\":15164:15796   */\n      dup2\n      eq\n      tag_457\n      jumpi\n        /* \"#utility.yul\":15840:15841   */\n      0x00\n        /* \"#utility.yul\":15857:15863   */\n      dup5\n        /* \"#utility.yul\":15854:15938   */\n      iszero\n      tag_458\n      jumpi\n        /* \"#utility.yul\":15913:15922   */\n      dup3\n        /* \"#utility.yul\":15908:15911   */\n      dup8\n        /* \"#utility.yul\":15904:15923   */\n      add\n        /* \"#utility.yul\":15891:15924   */\n      calldataload\n        /* \"#utility.yul\":15882:15924   */\n      swap1\n      pop\n        /* \"#utility.yul\":15854:15938   */\n    tag_458:\n        /* \"#utility.yul\":15964:16031   */\n      tag_459\n        /* \"#utility.yul\":16024:16030   */\n      dup6\n        /* \"#utility.yul\":16017:16022   */\n      dup3\n        /* \"#utility.yul\":15964:16031   */\n      tag_288\n      jump\t// in\n    tag_459:\n        /* \"#utility.yul\":15958:15962   */\n      dup7\n        /* \"#utility.yul\":15951:16032   */\n      sstore\n        /* \"#utility.yul\":15813:16042   */\n      pop\n        /* \"#utility.yul\":15134:16042   */\n      jump(tag_456)\n        /* \"#utility.yul\":15164:15796   */\n    tag_457:\n        /* \"#utility.yul\":15216:15220   */\n      0x1f\n        /* \"#utility.yul\":15212:15221   */\n      not\n        /* \"#utility.yul\":15204:15210   */\n      dup5\n        /* \"#utility.yul\":15200:15222   */\n      and\n        /* \"#utility.yul\":15250:15287   */\n      tag_460\n        /* \"#utility.yul\":15282:15286   */\n      dup7\n        /* \"#utility.yul\":15250:15287   */\n      tag_274\n      jump\t// in\n    tag_460:\n        /* \"#utility.yul\":15309:15310   */\n      0x00\n        /* \"#utility.yul\":15323:15538   */\n    tag_461:\n        /* \"#utility.yul\":15337:15344   */\n      dup3\n        /* \"#utility.yul\":15334:15335   */\n      dup2\n        /* \"#utility.yul\":15331:15345   */\n      lt\n        /* \"#utility.yul\":15323:15538   */\n      iszero\n      tag_463\n      jumpi\n        /* \"#utility.yul\":15423:15432   */\n      dup5\n        /* \"#utility.yul\":15418:15421   */\n      dup10\n        /* \"#utility.yul\":15414:15433   */\n      add\n        /* \"#utility.yul\":15401:15434   */\n      calldataload\n        /* \"#utility.yul\":15393:15399   */\n      dup3\n        /* \"#utility.yul\":15386:15435   */\n      sstore\n        /* \"#utility.yul\":15474:15475   */\n      0x01\n        /* \"#utility.yul\":15466:15472   */\n      dup3\n        /* \"#utility.yul\":15462:15476   */\n      add\n        /* \"#utility.yul\":15452:15476   */\n      swap2\n      pop\n        /* \"#utility.yul\":15521:15523   */\n      0x20\n        /* \"#utility.yul\":15510:15519   */\n      dup6\n        /* \"#utility.yul\":15506:15524   */\n      add\n        /* \"#utility.yul\":15493:15524   */\n      swap5\n      pop\n        /* \"#utility.yul\":15360:15364   */\n      0x20\n        /* \"#utility.yul\":15357:15358   */\n      dup2\n        /* \"#utility.yul\":15353:15365   */\n      add\n        /* \"#utility.yul\":15348:15365   */\n      swap1\n      pop\n        /* \"#utility.yul\":15323:15538   */\n      jump(tag_461)\n    tag_463:\n        /* \"#utility.yul\":15566:15572   */\n      dup7\n        /* \"#utility.yul\":15557:15564   */\n      dup4\n        /* \"#utility.yul\":15554:15573   */\n      lt\n        /* \"#utility.yul\":15551:15737   */\n      iszero\n      tag_464\n      jumpi\n        /* \"#utility.yul\":15631:15640   */\n      dup5\n        /* \"#utility.yul\":15626:15629   */\n      dup10\n        /* \"#utility.yul\":15622:15641   */\n      add\n        /* \"#utility.yul\":15609:15642   */\n      calldataload\n        /* \"#utility.yul\":15674:15722   */\n      tag_465\n        /* \"#utility.yul\":15716:15720   */\n      0x1f\n        /* \"#utility.yul\":15708:15714   */\n      dup10\n        /* \"#utility.yul\":15704:15721   */\n      and\n        /* \"#utility.yul\":15693:15702   */\n      dup3\n        /* \"#utility.yul\":15674:15722   */\n      tag_287\n      jump\t// in\n    tag_465:\n        /* \"#utility.yul\":15666:15672   */\n      dup4\n        /* \"#utility.yul\":15659:15723   */\n      sstore\n        /* \"#utility.yul\":15574:15737   */\n      pop\n        /* \"#utility.yul\":15551:15737   */\n    tag_464:\n        /* \"#utility.yul\":15783:15784   */\n      0x01\n        /* \"#utility.yul\":15779:15780   */\n      0x02\n        /* \"#utility.yul\":15771:15777   */\n      dup9\n        /* \"#utility.yul\":15767:15781   */\n      mul\n        /* \"#utility.yul\":15763:15785   */\n      add\n        /* \"#utility.yul\":15757:15761   */\n      dup9\n        /* \"#utility.yul\":15750:15786   */\n      sstore\n        /* \"#utility.yul\":15171:15796   */\n      pop\n      pop\n      pop\n        /* \"#utility.yul\":15134:16042   */\n    tag_456:\n      pop\n        /* \"#utility.yul\":14744:16048   */\n      pop\n      pop\n      pop\n        /* \"#utility.yul\":14645:16048   */\n      pop\n      pop\n      pop\n      jump\t// out\n        /* \"#utility.yul\":16054:16221   */\n    tag_149:\n        /* \"#utility.yul\":16091:16094   */\n      0x00\n        /* \"#utility.yul\":16114:16136   */\n      tag_467\n        /* \"#utility.yul\":16130:16135   */\n      dup3\n        /* \"#utility.yul\":16114:16136   */\n      tag_259\n      jump\t// in\n    tag_467:\n        /* \"#utility.yul\":16105:16136   */\n      swap2\n      pop\n        /* \"#utility.yul\":16158:16162   */\n      0xff\n        /* \"#utility.yul\":16151:16156   */\n      dup3\n        /* \"#utility.yul\":16148:16163   */\n      sub\n        /* \"#utility.yul\":16145:16186   */\n      tag_468\n      jumpi\n        /* \"#utility.yul\":16166:16184   */\n      tag_469\n      tag_271\n      jump\t// in\n    tag_469:\n        /* \"#utility.yul\":16145:16186   */\n    tag_468:\n        /* \"#utility.yul\":16213:16214   */\n      0x01\n        /* \"#utility.yul\":16206:16211   */\n      dup3\n        /* \"#utility.yul\":16202:16215   */\n      add\n        /* \"#utility.yul\":16195:16215   */\n      swap1\n      pop\n        /* \"#utility.yul\":16054:16221   */\n      swap2\n      swap1\n      pop\n      jump\t// out\n        /* \"#utility.yul\":16227:16407   */\n    tag_182:\n        /* \"#utility.yul\":16275:16352   */\n      0x4e487b7100000000000000000000000000000000000000000000000000000000\n        /* \"#utility.yul\":16272:16273   */\n      0x00\n        /* \"#utility.yul\":16265:16353   */\n      mstore\n        /* \"#utility.yul\":16372:16376   */\n      0x32\n        /* \"#utility.yul\":16369:16370   */\n      0x04\n        /* \"#utility.yul\":16362:16377   */\n      mstore\n        /* \"#utility.yul\":16396:16400   */\n      0x24\n        /* \"#utility.yul\":16393:16394   */\n      0x00\n        /* \"#utility.yul\":16386:16401   */\n      revert\n        /* \"#utility.yul\":16413:17808   */\n    tag_189:\n        /* \"#utility.yul\":16530:16567   */\n      tag_472\n        /* \"#utility.yul\":16563:16566   */\n      dup3\n        /* \"#utility.yul\":16530:16567   */\n      tag_241\n      jump\t// in\n    tag_472:\n        /* \"#utility.yul\":16632:16650   */\n      0xffffffffffffffff\n        /* \"#utility.yul\":16624:16630   */\n      dup2\n        /* \"#utility.yul\":16621:16651   */\n      gt\n        /* \"#utility.yul\":16618:16674   */\n      iszero\n      tag_473\n      jumpi\n        /* \"#utility.yul\":16654:16672   */\n      tag_474\n      tag_273\n      jump\t// in\n    tag_474:\n        /* \"#utility.yul\":16618:16674   */\n    tag_473:\n        /* \"#utility.yul\":16698:16736   */\n      tag_475\n        /* \"#utility.yul\":16730:16734   */\n      dup3\n        /* \"#utility.yul\":16724:16735   */\n      sload\n        /* \"#utility.yul\":16698:16736   */\n      tag_103\n      jump\t// in\n    tag_475:\n        /* \"#utility.yul\":16783:16850   */\n      tag_476\n        /* \"#utility.yul\":16843:16849   */\n      dup3\n        /* \"#utility.yul\":16835:16841   */\n      dup3\n        /* \"#utility.yul\":16829:16833   */\n      dup6\n        /* \"#utility.yul\":16783:16850   */\n      tag_285\n      jump\t// in\n    tag_476:\n        /* \"#utility.yul\":16877:16878   */\n      0x00\n        /* \"#utility.yul\":16901:16905   */\n      0x20\n        /* \"#utility.yul\":16888:16905   */\n      swap1\n      pop\n        /* \"#utility.yul\":16933:16935   */\n      0x1f\n        /* \"#utility.yul\":16925:16931   */\n      dup4\n        /* \"#utility.yul\":16922:16936   */\n      gt\n        /* \"#utility.yul\":16950:16951   */\n      0x01\n        /* \"#utility.yul\":16945:17563   */\n      dup2\n      eq\n      tag_478\n      jumpi\n        /* \"#utility.yul\":17607:17608   */\n      0x00\n        /* \"#utility.yul\":17624:17630   */\n      dup5\n        /* \"#utility.yul\":17621:17698   */\n      iszero\n      tag_479\n      jumpi\n        /* \"#utility.yul\":17673:17682   */\n      dup3\n        /* \"#utility.yul\":17668:17671   */\n      dup8\n        /* \"#utility.yul\":17664:17683   */\n      add\n        /* \"#utility.yul\":17658:17684   */\n      mload\n        /* \"#utility.yul\":17649:17684   */\n      swap1\n      pop\n        /* \"#utility.yul\":17621:17698   */\n    tag_479:\n        /* \"#utility.yul\":17724:17791   */\n      tag_480\n        /* \"#utility.yul\":17784:17790   */\n      dup6\n        /* \"#utility.yul\":17777:17782   */\n      dup3\n        /* \"#utility.yul\":17724:17791   */\n      tag_288\n      jump\t// in\n    tag_480:\n        /* \"#utility.yul\":17718:17722   */\n      dup7\n        /* \"#utility.yul\":17711:17792   */\n      sstore\n        /* \"#utility.yul\":17580:17802   */\n      pop\n        /* \"#utility.yul\":16915:17802   */\n      jump(tag_477)\n        /* \"#utility.yul\":16945:17563   */\n    tag_478:\n        /* \"#utility.yul\":16997:17001   */\n      0x1f\n        /* \"#utility.yul\":16993:17002   */\n      not\n        /* \"#utility.yul\":16985:16991   */\n      dup5\n        /* \"#utility.yul\":16981:17003   */\n      and\n        /* \"#utility.yul\":17031:17068   */\n      tag_481\n        /* \"#utility.yul\":17063:17067   */\n      dup7\n        /* \"#utility.yul\":17031:17068   */\n      tag_274\n      jump\t// in\n    tag_481:\n        /* \"#utility.yul\":17090:17091   */\n      0x00\n        /* \"#utility.yul\":17104:17312   */\n    tag_482:\n        /* \"#utility.yul\":17118:17125   */\n      dup3\n        /* \"#utility.yul\":17115:17116   */\n      dup2\n        /* \"#utility.yul\":17112:17126   */\n      lt\n        /* \"#utility.yul\":17104:17312   */\n      iszero\n      tag_484\n      jumpi\n        /* \"#utility.yul\":17197:17206   */\n      dup5\n        /* \"#utility.yul\":17192:17195   */\n      dup10\n        /* \"#utility.yul\":17188:17207   */\n      add\n        /* \"#utility.yul\":17182:17208   */\n      mload\n        /* \"#utility.yul\":17174:17180   */\n      dup3\n        /* \"#utility.yul\":17167:17209   */\n      sstore\n        /* \"#utility.yul\":17248:17249   */\n      0x01\n        /* \"#utility.yul\":17240:17246   */\n      dup3\n        /* \"#utility.yul\":17236:17250   */\n      add\n        /* \"#utility.yul\":17226:17250   */\n      swap2\n      pop\n        /* \"#utility.yul\":17295:17297   */\n      0x20\n        /* \"#utility.yul\":17284:17293   */\n      dup6\n        /* \"#utility.yul\":17280:17298   */\n      add\n        /* \"#utility.yul\":17267:17298   */\n      swap5\n      pop\n        /* \"#utility.yul\":17141:17145   */\n      0x20\n        /* \"#utility.yul\":17138:17139   */\n      dup2\n        /* \"#utility.yul\":17134:17146   */\n      add\n        /* \"#utility.yul\":17129:17146   */\n      swap1\n      pop\n        /* \"#utility.yul\":17104:17312   */\n      jump(tag_482)\n    tag_484:\n        /* \"#utility.yul\":17340:17346   */\n      dup7\n        /* \"#utility.yul\":17331:17338   */\n      dup4\n        /* \"#utility.yul\":17328:17347   */\n      lt\n        /* \"#utility.yul\":17325:17504   */\n      iszero\n      tag_485\n      jumpi\n        /* \"#utility.yul\":17398:17407   */\n      dup5\n        /* \"#utility.yul\":17393:17396   */\n      dup10\n        /* \"#utility.yul\":17389:17408   */\n      add\n        /* \"#utility.yul\":17383:17409   */\n      mload\n        /* \"#utility.yul\":17441:17489   */\n      tag_486\n        /* \"#utility.yul\":17483:17487   */\n      0x1f\n        /* \"#utility.yul\":17475:17481   */\n      dup10\n        /* \"#utility.yul\":17471:17488   */\n      and\n        /* \"#utility.yul\":17460:17469   */\n      dup3\n        /* \"#utility.yul\":17441:17489   */\n      tag_287\n      jump\t// in\n    tag_486:\n        /* \"#utility.yul\":17433:17439   */\n      dup4\n        /* \"#utility.yul\":17426:17490   */\n      sstore\n        /* \"#utility.yul\":17348:17504   */\n      pop\n        /* \"#utility.yul\":17325:17504   */\n    tag_485:\n        /* \"#utility.yul\":17550:17551   */\n      0x01\n        /* \"#utility.yul\":17546:17547   */\n      0x02\n        /* \"#utility.yul\":17538:17544   */\n      dup9\n        /* \"#utility.yul\":17534:17548   */\n      mul\n        /* \"#utility.yul\":17530:17552   */\n      add\n        /* \"#utility.yul\":17524:17528   */\n      dup9\n        /* \"#utility.yul\":17517:17553   */\n      sstore\n        /* \"#utility.yul\":16952:17563   */\n      pop\n      pop\n      pop\n        /* \"#utility.yul\":16915:17802   */\n    tag_477:\n      pop\n        /* \"#utility.yul\":16505:17808   */\n      pop\n      pop\n      pop\n        /* \"#utility.yul\":16413:17808   */\n      pop\n      pop\n      jump\t// out\n        /* \"#utility.yul\":17814:17981   */\n    tag_207:\n        /* \"#utility.yul\":17851:17854   */\n      0x00\n        /* \"#utility.yul\":17874:17896   */\n      tag_488\n        /* \"#utility.yul\":17890:17895   */\n      dup3\n        /* \"#utility.yul\":17874:17896   */\n      tag_259\n      jump\t// in\n    tag_488:\n        /* \"#utility.yul\":17865:17896   */\n      swap2\n      pop\n        /* \"#utility.yul\":17918:17922   */\n      0x00\n        /* \"#utility.yul\":17911:17916   */\n      dup3\n        /* \"#utility.yul\":17908:17923   */\n      sub\n        /* \"#utility.yul\":17905:17946   */\n      tag_489\n      jumpi\n        /* \"#utility.yul\":17926:17944   */\n      tag_490\n      tag_271\n      jump\t// in\n    tag_490:\n        /* \"#utility.yul\":17905:17946   */\n    tag_489:\n        /* \"#utility.yul\":17973:17974   */\n      0x01\n        /* \"#utility.yul\":17966:17971   */\n      dup3\n        /* \"#utility.yul\":17962:17975   */\n      sub\n        /* \"#utility.yul\":17955:17975   */\n      swap1\n      pop\n        /* \"#utility.yul\":17814:17981   */\n      swap2\n      swap1\n      pop\n      jump\t// out\n\n    auxdata: 0xa2646970667358221220b1ea9dc4b465208c794d0e427bc57cfe93ad0f3d26784e840b1860410ef29f1f64736f6c63430008110033\n}\n","bytecode":{"linkReferences":{},"object":"60806040526040518060400160405280600681526020017f574d424669740000000000000000000000000000000000000000000000000000815250600390816200004a919062000358565b506040518060400160405280600381526020017f574d4200000000000000000000000000000000000000000000000000000000008152506004908162000091919062000358565b506002600560006101000a81548160ff021916908360ff1602179055506000600760006101000a81548160ff021916908360ff160217905550348015620000d757600080fd5b506200043f565b600081519050919050565b7f4e487b7100000000000000000000000000000000000000000000000000000000600052604160045260246000fd5b7f4e487b7100000000000000000000000000000000000000000000000000000000600052602260045260246000fd5b600060028204905060018216806200016057607f821691505b60208210810362000176576200017562000118565b5b50919050565b60008190508160005260206000209050919050565b60006020601f8301049050919050565b600082821b905092915050565b600060088302620001e07fffffffffffffffffffffffffffffffffffffffffffffffffffffffffffffffff82620001a1565b620001ec8683620001a1565b95508019841693508086168417925050509392505050565b6000819050919050565b6000819050919050565b600062000239620002336200022d8462000204565b6200020e565b62000204565b9050919050565b6000819050919050565b620002558362000218565b6200026d620002648262000240565b848454620001ae565b825550505050565b600090565b6200028462000275565b620002918184846200024a565b505050565b5b81811015620002b957620002ad6000826200027a565b60018101905062000297565b5050565b601f8211156200030857620002d2816200017c565b620002dd8462000191565b81016020851015620002ed578190505b62000305620002fc8562000191565b83018262000296565b50505b505050565b600082821c905092915050565b60006200032d600019846008026200030d565b1980831691505092915050565b60006200034883836200031a565b9150826002028217905092915050565b6200036382620000de565b67ffffffffffffffff8111156200037f576200037e620000e9565b5b6200038b825462000147565b62000398828285620002bd565b600060209050601f831160018114620003d05760008415620003bb578287015190505b620003c785826200033a565b86555062000437565b601f198416620003e0866200017c565b60005b828110156200040a57848901518255600182019150602085019450602081019050620003e3565b868310156200042a578489015162000426601f8916826200031a565b8355505b6001600288020188555050505b505050505050565b6122df806200044f6000396000f3fe608060405234801561001057600080fd5b50600436106101215760003560e01c806370a08231116100ad578063a2bdedf411610071578063a2bdedf41461030a578063a36e65771461033a578063a9059cbb1461036c578063c47f00271461039c578063dd62ed3e146103b857610121565b806370a082311461027857806375ce46a7146102a85780637c69710f146102c657806395d89b41146102d0578063a0712d68146102ee57610121565b806323b872dd116100f457806323b872dd146101c2578063313ce567146101f257806342966c68146102105780634e8632711461022c57806350702ec91461024857610121565b806306fdde0314610126578063095ea7b3146101445780630b7555561461017457806318160ddd146101a4575b600080fd5b61012e6103e8565b60405161013b9190611933565b60405180910390f35b61015e600480360381019061015991906119f3565b610476565b60405161016b9190611a4e565b60405180910390f35b61018e60048036038101906101899190611a69565b6105ac565b60405161019b9190611933565b60405180910390f35b6101ac61064c565b6040516101b99190611aa5565b60405180910390f35b6101dc60048036038101906101d79190611ac0565b610652565b6040516101e99190611a4e565b60405180910390f35b6101fa610847565b6040516102079190611b2f565b60405180910390f35b61022a60048036038101906102259190611b4a565b61085a565b005b61024660048036038101906102419190611bdc565b61097a565b005b610262600480360381019061025d9190611a69565b6109cd565b60405161026f9190611aa5565b60405180910390f35b610292600480360381019061028d9190611a69565b6109e5565b60405161029f9190611aa5565b60405180910390f35b6102b06109fd565b6040516102bd9190611b2f565b60405180910390f35b6102ce610a10565b005b6102d8610aa2565b6040516102e59190611933565b60405180910390f35b61030860048036038101906103039190611b4a565b610b30565b005b610324600480360381019061031f9190611b4a565b610dc8565b6040516103319190611c38565b60405180910390f35b610354600480360381019061034f9190611b4a565b610e07565b60405161036393929190611c53565b60405180910390f35b610386600480360381019061038191906119f3565b610edf565b6040516103939190611a4e565b60405180910390f35b6103b660048036038101906103b19190611bdc565b611040565b005b6103d260048036038101906103cd9190611c91565b611093565b6040516103df9190611aa5565b60405180910390f35b600380546103f590611d00565b80601f016020809104026020016040519081016040528092919081815260200182805461042190611d00565b801561046e5780601f106104435761010080835404028352916020019161046e565b820191906000526020600020905b81548152906001019060200180831161045157829003601f168201915b505050505081565b600060648211156104bc576040517f08c379a00000000000000000000000000000000000000000000000000000000081526004016104b390611d7d565b60405180910390fd5b81600260003373ffffffffffffffffffffffffffffffffffffffff1673ffffffffffffffffffffffffffffffffffffffff16815260200190815260200160002060008573ffffffffffffffffffffffffffffffffffffffff1673ffffffffffffffffffffffffffffffffffffffff168152602001908152602001600020819055508273ffffffffffffffffffffffffffffffffffffffff163373ffffffffffffffffffffffffffffffffffffffff167f8c5be1e5ebec7d5bd14f71427d1e84f3dd0314c0f7b2291e5b200ac8c7c3b9258460405161059a9190611aa5565b60405180910390a36001905092915050565b600960205280600052604060002060009150905080546105cb90611d00565b80601f01602080910402602001604051908101604052809291908181526020018280546105f790611d00565b80156106445780601f1061061957610100808354040283529160200191610644565b820191906000526020600020905b81548152906001019060200180831161062757829003601f168201915b505050505081565b60005481565b6000600a821115610698576040517f08c379a000000000000000000000000000000000000000000000000000000000815260040161068f90611de9565b60405180910390fd5b81600260008673ffffffffffffffffffffffffffffffffffffffff1673ffffffffffffffffffffffffffffffffffffffff16815260200190815260200160002060003373ffffffffffffffffffffffffffffffffffffffff1673ffffffffffffffffffffffffffffffffffffffff16815260200190815260200160002060008282546107249190611e38565b9250508190555081600160008673ffffffffffffffffffffffffffffffffffffffff1673ffffffffffffffffffffffffffffffffffffffff168152602001908152602001600020600082825461077a9190611e38565b9250508190555081600160008573ffffffffffffffffffffffffffffffffffffffff1673ffffffffffffffffffffffffffffffffffffffff16815260200190815260200160002060008282546107d09190611e6c565b925050819055508273ffffffffffffffffffffffffffffffffffffffff168473ffffffffffffffffffffffffffffffffffffffff167fddf252ad1be2c89b69c2b068fc378daa952ba7f163c4a11628f55a4df523b3ef846040516108349190611aa5565b60405180910390a3600190509392505050565b600560009054906101000a900460ff1681565b80600160003373ffffffffffffffffffffffffffffffffffffffff1673ffffffffffffffffffffffffffffffffffffffff16815260200190815260200160002060008282546108a99190611e38565b92505081905550806000808282546108c19190611e38565b92505081905550600073ffffffffffffffffffffffffffffffffffffffff163373ffffffffffffffffffffffffffffffffffffffff167fddf252ad1be2c89b69c2b068fc378daa952ba7f163c4a11628f55a4df523b3ef836040516109269190611aa5565b60405180910390a3610977600160003373ffffffffffffffffffffffffffffffffffffffff1673ffffffffffffffffffffffffffffffffffffffff16815260200190815260200160002054336110b8565b50565b8181600960003373ffffffffffffffffffffffffffffffffffffffff1673ffffffffffffffffffffffffffffffffffffffff16815260200190815260200160002091826109c8929190612086565b505050565b60066020528060005260406000206000915090505481565b60016020528060005260406000206000915090505481565b600760009054906101000a900460ff1681565b6000600660003373ffffffffffffffffffffffffffffffffffffffff1673ffffffffffffffffffffffffffffffffffffffff1681526020019081526020016000205414610a5c57600080fd5b42600660003373ffffffffffffffffffffffffffffffffffffffff1673ffffffffffffffffffffffffffffffffffffffff16815260200190815260200160002081905550565b60048054610aaf90611d00565b80601f0160208091040260200160405190810160405280929190818152602001828054610adb90611d00565b8015610b285780601f10610afd57610100808354040283529160200191610b28565b820191906000526020600020905b815481529060010190602001808311610b0b57829003601f168201915b505050505081565b6000600160003373ffffffffffffffffffffffffffffffffffffffff1673ffffffffffffffffffffffffffffffffffffffff16815260200190815260200160002054148015610bbe57506000600660003373ffffffffffffffffffffffffffffffffffffffff1673ffffffffffffffffffffffffffffffffffffffff16815260200190815260200160002054145b15610ca75742600660003373ffffffffffffffffffffffffffffffffffffffff1673ffffffffffffffffffffffffffffffffffffffff168152602001908152602001600020819055506008339080600181540180825580915050600190039060005260206000200160009091909190916101000a81548173ffffffffffffffffffffffffffffffffffffffff021916908373ffffffffffffffffffffffffffffffffffffffff1602179055506007600081819054906101000a900460ff1680929190610c8990612156565b91906101000a81548160ff021916908360ff16021790555050610dc5565b80600160003373ffffffffffffffffffffffffffffffffffffffff1673ffffffffffffffffffffffffffffffffffffffff1681526020019081526020016000206000828254610cf69190611e6c565b9250508190555080600080828254610d0e9190611e6c565b925050819055503373ffffffffffffffffffffffffffffffffffffffff16600073ffffffffffffffffffffffffffffffffffffffff167fddf252ad1be2c89b69c2b068fc378daa952ba7f163c4a11628f55a4df523b3ef83604051610d739190611aa5565b60405180910390a3610dc4600160003373ffffffffffffffffffffffffffffffffffffffff1673ffffffffffffffffffffffffffffffffffffffff16815260200190815260200160002054336114af565b5b50565b60088181548110610dd857600080fd5b906000526020600020016000915054906101000a900473ffffffffffffffffffffffffffffffffffffffff1681565b600a81600a8110610e1757600080fd5b600302016000915090508060000160009054906101000a900473ffffffffffffffffffffffffffffffffffffffff1690806001018054610e5690611d00565b80601f0160208091040260200160405190810160405280929190818152602001828054610e8290611d00565b8015610ecf5780601f10610ea457610100808354040283529160200191610ecf565b820191906000526020600020905b815481529060010190602001808311610eb257829003601f168201915b5050505050908060020154905083565b6000600a821115610f25576040517f08c379a0000000000000000000000000000000000000000000000000000000008152600401610f1c90611de9565b60405180910390fd5b81600160003373ffffffffffffffffffffffffffffffffffffffff1673ffffffffffffffffffffffffffffffffffffffff1681526020019081526020016000206000828254610f749190611e38565b9250508190555081600160008573ffffffffffffffffffffffffffffffffffffffff1673ffffffffffffffffffffffffffffffffffffffff1681526020019081526020016000206000828254610fca9190611e6c565b925050819055508273ffffffffffffffffffffffffffffffffffffffff163373ffffffffffffffffffffffffffffffffffffffff167fddf252ad1be2c89b69c2b068fc378daa952ba7f163c4a11628f55a4df523b3ef8460405161102e9190611aa5565b60405180910390a36001905092915050565b8181600960003373ffffffffffffffffffffffffffffffffffffffff1673ffffffffffffffffffffffffffffffffffffffff168152602001908152602001600020918261108e929190612086565b505050565b6002602052816000526040600020602052806000526040600020600091509150505481565b600060405180606001604052808373ffffffffffffffffffffffffffffffffffffffff168152602001600960008573ffffffffffffffffffffffffffffffffffffffff1673ffffffffffffffffffffffffffffffffffffffff168152602001908152602001600020805461112b90611d00565b80601f016020809104026020016040519081016040528092919081815260200182805461115790611d00565b80156111a45780601f10611179576101008083540402835291602001916111a4565b820191906000526020600020905b81548152906001019060200180831161118757829003601f168201915b505050505081526020018481525090506000600990505b60008160ff16106114a8578273ffffffffffffffffffffffffffffffffffffffff16600a8260ff16600a81106111f4576111f361217f565b5b6003020160000160009054906101000a900473ffffffffffffffffffffffffffffffffffffffff1673ffffffffffffffffffffffffffffffffffffffff16036112c45781600a8260ff16600a811061124f5761124e61217f565b5b6003020160008201518160000160006101000a81548173ffffffffffffffffffffffffffffffffffffffff021916908373ffffffffffffffffffffffffffffffffffffffff16021790555060208201518160010190816112af91906121ae565b506040820151816002015590505050506114ab565b8160400151600a8260ff16600a81106112e0576112df61217f565b5b60030201600201541115611495576000600a8260ff16600a81106113075761130661217f565b5b600302016040518060600160405290816000820160009054906101000a900473ffffffffffffffffffffffffffffffffffffffff1673ffffffffffffffffffffffffffffffffffffffff1673ffffffffffffffffffffffffffffffffffffffff16815260200160018201805461137c90611d00565b80601f01602080910402602001604051908101604052809291908181526020018280546113a890611d00565b80156113f55780601f106113ca576101008083540402835291602001916113f5565b820191906000526020600020905b8154815290600101906020018083116113d857829003601f168201915b50505050508152602001600282015481525050905082600a8360ff16600a81106114225761142161217f565b5b6003020160008201518160000160006101000a81548173ffffffffffffffffffffffffffffffffffffffff021916908373ffffffffffffffffffffffffffffffffffffffff160217905550602082015181600101908161148291906121ae565b5060408201518160020155905050809250505b80806114a090612280565b9150506111bb565b50505b5050565b600060405180606001604052808373ffffffffffffffffffffffffffffffffffffffff168152602001600960008573ffffffffffffffffffffffffffffffffffffffff1673ffffffffffffffffffffffffffffffffffffffff168152602001908152602001600020805461152290611d00565b80601f016020809104026020016040519081016040528092919081815260200182805461154e90611d00565b801561159b5780601f106115705761010080835404028352916020019161159b565b820191906000526020600020905b81548152906001019060200180831161157e57829003601f168201915b5050505050815260200184815250905060005b600a8160ff16101561189c578273ffffffffffffffffffffffffffffffffffffffff16600a8260ff16600a81106115e8576115e761217f565b5b6003020160000160009054906101000a900473ffffffffffffffffffffffffffffffffffffffff1673ffffffffffffffffffffffffffffffffffffffff16036116b85781600a8260ff16600a81106116435761164261217f565b5b6003020160008201518160000160006101000a81548173ffffffffffffffffffffffffffffffffffffffff021916908373ffffffffffffffffffffffffffffffffffffffff16021790555060208201518160010190816116a391906121ae565b5060408201518160020155905050505061189f565b8160400151600a8260ff16600a81106116d4576116d361217f565b5b60030201600201541015611889576000600a8260ff16600a81106116fb576116fa61217f565b5b600302016040518060600160405290816000820160009054906101000a900473ffffffffffffffffffffffffffffffffffffffff1673ffffffffffffffffffffffffffffffffffffffff1673ffffffffffffffffffffffffffffffffffffffff16815260200160018201805461177090611d00565b80601f016020809104026020016040519081016040528092919081815260200182805461179c90611d00565b80156117e95780601f106117be576101008083540402835291602001916117e9565b820191906000526020600020905b8154815290600101906020018083116117cc57829003601f168201915b50505050508152602001600282015481525050905082600a8360ff16600a81106118165761181561217f565b5b6003020160008201518160000160006101000a81548173ffffffffffffffffffffffffffffffffffffffff021916908373ffffffffffffffffffffffffffffffffffffffff160217905550602082015181600101908161187691906121ae565b5060408201518160020155905050809250505b808061189490612156565b9150506115ae565b50505b5050565b600081519050919050565b600082825260208201905092915050565b60005b838110156118dd5780820151818401526020810190506118c2565b60008484015250505050565b6000601f19601f8301169050919050565b6000611905826118a3565b61190f81856118ae565b935061191f8185602086016118bf565b611928816118e9565b840191505092915050565b6000602082019050818103600083015261194d81846118fa565b905092915050565b600080fd5b600080fd5b600073ffffffffffffffffffffffffffffffffffffffff82169050919050565b600061198a8261195f565b9050919050565b61199a8161197f565b81146119a557600080fd5b50565b6000813590506119b781611991565b92915050565b6000819050919050565b6119d0816119bd565b81146119db57600080fd5b50565b6000813590506119ed816119c7565b92915050565b60008060408385031215611a0a57611a09611955565b5b6000611a18858286016119a8565b9250506020611a29858286016119de565b9150509250929050565b60008115159050919050565b611a4881611a33565b82525050565b6000602082019050611a636000830184611a3f565b92915050565b600060208284031215611a7f57611a7e611955565b5b6000611a8d848285016119a8565b91505092915050565b611a9f816119bd565b82525050565b6000602082019050611aba6000830184611a96565b92915050565b600080600060608486031215611ad957611ad8611955565b5b6000611ae7868287016119a8565b9350506020611af8868287016119a8565b9250506040611b09868287016119de565b9150509250925092565b600060ff82169050919050565b611b2981611b13565b82525050565b6000602082019050611b446000830184611b20565b92915050565b600060208284031215611b6057611b5f611955565b5b6000611b6e848285016119de565b91505092915050565b600080fd5b600080fd5b600080fd5b60008083601f840112611b9c57611b9b611b77565b5b8235905067ffffffffffffffff811115611bb957611bb8611b7c565b5b602083019150836001820283011115611bd557611bd4611b81565b5b9250929050565b60008060208385031215611bf357611bf2611955565b5b600083013567ffffffffffffffff811115611c1157611c1061195a565b5b611c1d85828601611b86565b92509250509250929050565b611c328161197f565b82525050565b6000602082019050611c4d6000830184611c29565b92915050565b6000606082019050611c686000830186611c29565b8181036020830152611c7a81856118fa565b9050611c896040830184611a96565b949350505050565b60008060408385031215611ca857611ca7611955565b5b6000611cb6858286016119a8565b9250506020611cc7858286016119a8565b9150509250929050565b7f4e487b7100000000000000000000000000000000000000000000000000000000600052602260045260246000fd5b60006002820490506001821680611d1857607f821691505b602082108103611d2b57611d2a611cd1565b5b50919050565b7f4d6178696d756d20617070726f76616c206f6620310000000000000000000000600082015250565b6000611d676015836118ae565b9150611d7282611d31565b602082019050919050565b60006020820190508181036000830152611d9681611d5a565b9050919050565b7f4d6178696d756d207472616e73666572206f6620302e31000000000000000000600082015250565b6000611dd36017836118ae565b9150611dde82611d9d565b602082019050919050565b60006020820190508181036000830152611e0281611dc6565b9050919050565b7f4e487b7100000000000000000000000000000000000000000000000000000000600052601160045260246000fd5b6000611e43826119bd565b9150611e4e836119bd565b9250828203905081811115611e6657611e65611e09565b5b92915050565b6000611e77826119bd565b9150611e82836119bd565b9250828201905080821115611e9a57611e99611e09565b5b92915050565b600082905092915050565b7f4e487b7100000000000000000000000000000000000000000000000000000000600052604160045260246000fd5b60008190508160005260206000209050919050565b60006020601f8301049050919050565b600082821b905092915050565b600060088302611f3c7fffffffffffffffffffffffffffffffffffffffffffffffffffffffffffffffff82611eff565b611f468683611eff565b95508019841693508086168417925050509392505050565b6000819050919050565b6000611f83611f7e611f79846119bd565b611f5e565b6119bd565b9050919050565b6000819050919050565b611f9d83611f68565b611fb1611fa982611f8a565b848454611f0c565b825550505050565b600090565b611fc6611fb9565b611fd1818484611f94565b505050565b5b81811015611ff557611fea600082611fbe565b600181019050611fd7565b5050565b601f82111561203a5761200b81611eda565b61201484611eef565b81016020851015612023578190505b61203761202f85611eef565b830182611fd6565b50505b505050565b600082821c905092915050565b600061205d6000198460080261203f565b1980831691505092915050565b6000612076838361204c565b9150826002028217905092915050565b6120908383611ea0565b67ffffffffffffffff8111156120a9576120a8611eab565b5b6120b38254611d00565b6120be828285611ff9565b6000601f8311600181146120ed57600084156120db578287013590505b6120e5858261206a565b86555061214d565b601f1984166120fb86611eda565b60005b82811015612123578489013582556001820191506020850194506020810190506120fe565b86831015612140578489013561213c601f89168261204c565b8355505b6001600288020188555050505b50505050505050565b600061216182611b13565b915060ff820361217457612173611e09565b5b600182019050919050565b7f4e487b7100000000000000000000000000000000000000000000000000000000600052603260045260246000fd5b6121b7826118a3565b67ffffffffffffffff8111156121d0576121cf611eab565b5b6121da8254611d00565b6121e5828285611ff9565b600060209050601f8311600181146122185760008415612206578287015190505b612210858261206a565b865550612278565b601f19841661222686611eda565b60005b8281101561224e57848901518255600182019150602085019450602081019050612229565b8683101561226b5784890151612267601f89168261204c565b8355505b6001600288020188555050505b505050505050565b600061228b82611b13565b91506000820361229e5761229d611e09565b5b60018203905091905056fea2646970667358221220b1ea9dc4b465208c794d0e427bc57cfe93ad0f3d26784e840b1860410ef29f1f64736f6c63430008110033","opcodes":"PUSH1 0x80 PUSH1 0x40 MSTORE PUSH1 0x40 MLOAD DUP1 PUSH1 0x40 ADD PUSH1 0x40 MSTORE DUP1 PUSH1 0x6 DUP2 MSTORE PUSH1 0x20 ADD PUSH32 0x574D424669740000000000000000000000000000000000000000000000000000 DUP2 MSTORE POP PUSH1 0x3 SWAP1 DUP2 PUSH3 0x4A SWAP2 SWAP1 PUSH3 0x358 JUMP JUMPDEST POP PUSH1 0x40 MLOAD DUP1 PUSH1 0x40 ADD PUSH1 0x40 MSTORE DUP1 PUSH1 0x3 DUP2 MSTORE PUSH1 0x20 ADD PUSH32 0x574D420000000000000000000000000000000000000000000000000000000000 DUP2 MSTORE POP PUSH1 0x4 SWAP1 DUP2 PUSH3 0x91 SWAP2 SWAP1 PUSH3 0x358 JUMP JUMPDEST POP PUSH1 0x2 PUSH1 0x5 PUSH1 0x0 PUSH2 0x100 EXP DUP2 SLOAD DUP2 PUSH1 0xFF MUL NOT AND SWAP1 DUP4 PUSH1 0xFF AND MUL OR SWAP1 SSTORE POP PUSH1 0x0 PUSH1 0x7 PUSH1 0x0 PUSH2 0x100 EXP DUP2 SLOAD DUP2 PUSH1 0xFF MUL NOT AND SWAP1 DUP4 PUSH1 0xFF AND MUL OR SWAP1 SSTORE POP CALLVALUE DUP1 ISZERO PUSH3 0xD7 JUMPI PUSH1 0x0 DUP1 REVERT JUMPDEST POP PUSH3 0x43F JUMP JUMPDEST PUSH1 0x0 DUP2 MLOAD SWAP1 POP SWAP2 SWAP1 POP JUMP JUMPDEST PUSH32 0x4E487B7100000000000000000000000000000000000000000000000000000000 PUSH1 0x0 MSTORE PUSH1 0x41 PUSH1 0x4 MSTORE PUSH1 0x24 PUSH1 0x0 REVERT JUMPDEST PUSH32 0x4E487B7100000000000000000000000000000000000000000000000000000000 PUSH1 0x0 MSTORE PUSH1 0x22 PUSH1 0x4 MSTORE PUSH1 0x24 PUSH1 0x0 REVERT JUMPDEST PUSH1 0x0 PUSH1 0x2 DUP3 DIV SWAP1 POP PUSH1 0x1 DUP3 AND DUP1 PUSH3 0x160 JUMPI PUSH1 0x7F DUP3 AND SWAP2 POP JUMPDEST PUSH1 0x20 DUP3 LT DUP2 SUB PUSH3 0x176 JUMPI PUSH3 0x175 PUSH3 0x118 JUMP JUMPDEST JUMPDEST POP SWAP2 SWAP1 POP JUMP JUMPDEST PUSH1 0x0 DUP2 SWAP1 POP DUP2 PUSH1 0x0 MSTORE PUSH1 0x20 PUSH1 0x0 KECCAK256 SWAP1 POP SWAP2 SWAP1 POP JUMP JUMPDEST PUSH1 0x0 PUSH1 0x20 PUSH1 0x1F DUP4 ADD DIV SWAP1 POP SWAP2 SWAP1 POP JUMP JUMPDEST PUSH1 0x0 DUP3 DUP3 SHL SWAP1 POP SWAP3 SWAP2 POP POP JUMP JUMPDEST PUSH1 0x0 PUSH1 0x8 DUP4 MUL PUSH3 0x1E0 PUSH32 0xFFFFFFFFFFFFFFFFFFFFFFFFFFFFFFFFFFFFFFFFFFFFFFFFFFFFFFFFFFFFFFFF DUP3 PUSH3 0x1A1 JUMP JUMPDEST PUSH3 0x1EC DUP7 DUP4 PUSH3 0x1A1 JUMP JUMPDEST SWAP6 POP DUP1 NOT DUP5 AND SWAP4 POP DUP1 DUP7 AND DUP5 OR SWAP3 POP POP POP SWAP4 SWAP3 POP POP POP JUMP JUMPDEST PUSH1 0x0 DUP2 SWAP1 POP SWAP2 SWAP1 POP JUMP JUMPDEST PUSH1 0x0 DUP2 SWAP1 POP SWAP2 SWAP1 POP JUMP JUMPDEST PUSH1 0x0 PUSH3 0x239 PUSH3 0x233 PUSH3 0x22D DUP5 PUSH3 0x204 JUMP JUMPDEST PUSH3 0x20E JUMP JUMPDEST PUSH3 0x204 JUMP JUMPDEST SWAP1 POP SWAP2 SWAP1 POP JUMP JUMPDEST PUSH1 0x0 DUP2 SWAP1 POP SWAP2 SWAP1 POP JUMP JUMPDEST PUSH3 0x255 DUP4 PUSH3 0x218 JUMP JUMPDEST PUSH3 0x26D PUSH3 0x264 DUP3 PUSH3 0x240 JUMP JUMPDEST DUP5 DUP5 SLOAD PUSH3 0x1AE JUMP JUMPDEST DUP3 SSTORE POP POP POP POP JUMP JUMPDEST PUSH1 0x0 SWAP1 JUMP JUMPDEST PUSH3 0x284 PUSH3 0x275 JUMP JUMPDEST PUSH3 0x291 DUP2 DUP5 DUP5 PUSH3 0x24A JUMP JUMPDEST POP POP POP JUMP JUMPDEST JUMPDEST DUP2 DUP2 LT ISZERO PUSH3 0x2B9 JUMPI PUSH3 0x2AD PUSH1 0x0 DUP3 PUSH3 0x27A JUMP JUMPDEST PUSH1 0x1 DUP2 ADD SWAP1 POP PUSH3 0x297 JUMP JUMPDEST POP POP JUMP JUMPDEST PUSH1 0x1F DUP3 GT ISZERO PUSH3 0x308 JUMPI PUSH3 0x2D2 DUP2 PUSH3 0x17C JUMP JUMPDEST PUSH3 0x2DD DUP5 PUSH3 0x191 JUMP JUMPDEST DUP2 ADD PUSH1 0x20 DUP6 LT ISZERO PUSH3 0x2ED JUMPI DUP2 SWAP1 POP JUMPDEST PUSH3 0x305 PUSH3 0x2FC DUP6 PUSH3 0x191 JUMP JUMPDEST DUP4 ADD DUP3 PUSH3 0x296 JUMP JUMPDEST POP POP JUMPDEST POP POP POP JUMP JUMPDEST PUSH1 0x0 DUP3 DUP3 SHR SWAP1 POP SWAP3 SWAP2 POP POP JUMP JUMPDEST PUSH1 0x0 PUSH3 0x32D PUSH1 0x0 NOT DUP5 PUSH1 0x8 MUL PUSH3 0x30D JUMP JUMPDEST NOT DUP1 DUP4 AND SWAP2 POP POP SWAP3 SWAP2 POP POP JUMP JUMPDEST PUSH1 0x0 PUSH3 0x348 DUP4 DUP4 PUSH3 0x31A JUMP JUMPDEST SWAP2 POP DUP3 PUSH1 0x2 MUL DUP3 OR SWAP1 POP SWAP3 SWAP2 POP POP JUMP JUMPDEST PUSH3 0x363 DUP3 PUSH3 0xDE JUMP JUMPDEST PUSH8 0xFFFFFFFFFFFFFFFF DUP2 GT ISZERO PUSH3 0x37F JUMPI PUSH3 0x37E PUSH3 0xE9 JUMP JUMPDEST JUMPDEST PUSH3 0x38B DUP3 SLOAD PUSH3 0x147 JUMP JUMPDEST PUSH3 0x398 DUP3 DUP3 DUP6 PUSH3 0x2BD JUMP JUMPDEST PUSH1 0x0 PUSH1 0x20 SWAP1 POP PUSH1 0x1F DUP4 GT PUSH1 0x1 DUP2 EQ PUSH3 0x3D0 JUMPI PUSH1 0x0 DUP5 ISZERO PUSH3 0x3BB JUMPI DUP3 DUP8 ADD MLOAD SWAP1 POP JUMPDEST PUSH3 0x3C7 DUP6 DUP3 PUSH3 0x33A JUMP JUMPDEST DUP7 SSTORE POP PUSH3 0x437 JUMP JUMPDEST PUSH1 0x1F NOT DUP5 AND PUSH3 0x3E0 DUP7 PUSH3 0x17C JUMP JUMPDEST PUSH1 0x0 JUMPDEST DUP3 DUP2 LT ISZERO PUSH3 0x40A JUMPI DUP5 DUP10 ADD MLOAD DUP3 SSTORE PUSH1 0x1 DUP3 ADD SWAP2 POP PUSH1 0x20 DUP6 ADD SWAP5 POP PUSH1 0x20 DUP2 ADD SWAP1 POP PUSH3 0x3E3 JUMP JUMPDEST DUP7 DUP4 LT ISZERO PUSH3 0x42A JUMPI DUP5 DUP10 ADD MLOAD PUSH3 0x426 PUSH1 0x1F DUP10 AND DUP3 PUSH3 0x31A JUMP JUMPDEST DUP4 SSTORE POP JUMPDEST PUSH1 0x1 PUSH1 0x2 DUP9 MUL ADD DUP9 SSTORE POP POP POP JUMPDEST POP POP POP POP POP POP JUMP JUMPDEST PUSH2 0x22DF DUP1 PUSH3 0x44F PUSH1 0x0 CODECOPY PUSH1 0x0 RETURN INVALID PUSH1 0x80 PUSH1 0x40 MSTORE CALLVALUE DUP1 ISZERO PUSH2 0x10 JUMPI PUSH1 0x0 DUP1 REVERT JUMPDEST POP PUSH1 0x4 CALLDATASIZE LT PUSH2 0x121 JUMPI PUSH1 0x0 CALLDATALOAD PUSH1 0xE0 SHR DUP1 PUSH4 0x70A08231 GT PUSH2 0xAD JUMPI DUP1 PUSH4 0xA2BDEDF4 GT PUSH2 0x71 JUMPI DUP1 PUSH4 0xA2BDEDF4 EQ PUSH2 0x30A JUMPI DUP1 PUSH4 0xA36E6577 EQ PUSH2 0x33A JUMPI DUP1 PUSH4 0xA9059CBB EQ PUSH2 0x36C JUMPI DUP1 PUSH4 0xC47F0027 EQ PUSH2 0x39C JUMPI DUP1 PUSH4 0xDD62ED3E EQ PUSH2 0x3B8 JUMPI PUSH2 0x121 JUMP JUMPDEST DUP1 PUSH4 0x70A08231 EQ PUSH2 0x278 JUMPI DUP1 PUSH4 0x75CE46A7 EQ PUSH2 0x2A8 JUMPI DUP1 PUSH4 0x7C69710F EQ PUSH2 0x2C6 JUMPI DUP1 PUSH4 0x95D89B41 EQ PUSH2 0x2D0 JUMPI DUP1 PUSH4 0xA0712D68 EQ PUSH2 0x2EE JUMPI PUSH2 0x121 JUMP JUMPDEST DUP1 PUSH4 0x23B872DD GT PUSH2 0xF4 JUMPI DUP1 PUSH4 0x23B872DD EQ PUSH2 0x1C2 JUMPI DUP1 PUSH4 0x313CE567 EQ PUSH2 0x1F2 JUMPI DUP1 PUSH4 0x42966C68 EQ PUSH2 0x210 JUMPI DUP1 PUSH4 0x4E863271 EQ PUSH2 0x22C JUMPI DUP1 PUSH4 0x50702EC9 EQ PUSH2 0x248 JUMPI PUSH2 0x121 JUMP JUMPDEST DUP1 PUSH4 0x6FDDE03 EQ PUSH2 0x126 JUMPI DUP1 PUSH4 0x95EA7B3 EQ PUSH2 0x144 JUMPI DUP1 PUSH4 0xB755556 EQ PUSH2 0x174 JUMPI DUP1 PUSH4 0x18160DDD EQ PUSH2 0x1A4 JUMPI JUMPDEST PUSH1 0x0 DUP1 REVERT JUMPDEST PUSH2 0x12E PUSH2 0x3E8 JUMP JUMPDEST PUSH1 0x40 MLOAD PUSH2 0x13B SWAP2 SWAP1 PUSH2 0x1933 JUMP JUMPDEST PUSH1 0x40 MLOAD DUP1 SWAP2 SUB SWAP1 RETURN JUMPDEST PUSH2 0x15E PUSH1 0x4 DUP1 CALLDATASIZE SUB DUP2 ADD SWAP1 PUSH2 0x159 SWAP2 SWAP1 PUSH2 0x19F3 JUMP JUMPDEST PUSH2 0x476 JUMP JUMPDEST PUSH1 0x40 MLOAD PUSH2 0x16B SWAP2 SWAP1 PUSH2 0x1A4E JUMP JUMPDEST PUSH1 0x40 MLOAD DUP1 SWAP2 SUB SWAP1 RETURN JUMPDEST PUSH2 0x18E PUSH1 0x4 DUP1 CALLDATASIZE SUB DUP2 ADD SWAP1 PUSH2 0x189 SWAP2 SWAP1 PUSH2 0x1A69 JUMP JUMPDEST PUSH2 0x5AC JUMP JUMPDEST PUSH1 0x40 MLOAD PUSH2 0x19B SWAP2 SWAP1 PUSH2 0x1933 JUMP JUMPDEST PUSH1 0x40 MLOAD DUP1 SWAP2 SUB SWAP1 RETURN JUMPDEST PUSH2 0x1AC PUSH2 0x64C JUMP JUMPDEST PUSH1 0x40 MLOAD PUSH2 0x1B9 SWAP2 SWAP1 PUSH2 0x1AA5 JUMP JUMPDEST PUSH1 0x40 MLOAD DUP1 SWAP2 SUB SWAP1 RETURN JUMPDEST PUSH2 0x1DC PUSH1 0x4 DUP1 CALLDATASIZE SUB DUP2 ADD SWAP1 PUSH2 0x1D7 SWAP2 SWAP1 PUSH2 0x1AC0 JUMP JUMPDEST PUSH2 0x652 JUMP JUMPDEST PUSH1 0x40 MLOAD PUSH2 0x1E9 SWAP2 SWAP1 PUSH2 0x1A4E JUMP JUMPDEST PUSH1 0x40 MLOAD DUP1 SWAP2 SUB SWAP1 RETURN JUMPDEST PUSH2 0x1FA PUSH2 0x847 JUMP JUMPDEST PUSH1 0x40 MLOAD PUSH2 0x207 SWAP2 SWAP1 PUSH2 0x1B2F JUMP JUMPDEST PUSH1 0x40 MLOAD DUP1 SWAP2 SUB SWAP1 RETURN JUMPDEST PUSH2 0x22A PUSH1 0x4 DUP1 CALLDATASIZE SUB DUP2 ADD SWAP1 PUSH2 0x225 SWAP2 SWAP1 PUSH2 0x1B4A JUMP JUMPDEST PUSH2 0x85A JUMP JUMPDEST STOP JUMPDEST PUSH2 0x246 PUSH1 0x4 DUP1 CALLDATASIZE SUB DUP2 ADD SWAP1 PUSH2 0x241 SWAP2 SWAP1 PUSH2 0x1BDC JUMP JUMPDEST PUSH2 0x97A JUMP JUMPDEST STOP JUMPDEST PUSH2 0x262 PUSH1 0x4 DUP1 CALLDATASIZE SUB DUP2 ADD SWAP1 PUSH2 0x25D SWAP2 SWAP1 PUSH2 0x1A69 JUMP JUMPDEST PUSH2 0x9CD JUMP JUMPDEST PUSH1 0x40 MLOAD PUSH2 0x26F SWAP2 SWAP1 PUSH2 0x1AA5 JUMP JUMPDEST PUSH1 0x40 MLOAD DUP1 SWAP2 SUB SWAP1 RETURN JUMPDEST PUSH2 0x292 PUSH1 0x4 DUP1 CALLDATASIZE SUB DUP2 ADD SWAP1 PUSH2 0x28D SWAP2 SWAP1 PUSH2 0x1A69 JUMP JUMPDEST PUSH2 0x9E5 JUMP JUMPDEST PUSH1 0x40 MLOAD PUSH2 0x29F SWAP2 SWAP1 PUSH2 0x1AA5 JUMP JUMPDEST PUSH1 0x40 MLOAD DUP1 SWAP2 SUB SWAP1 RETURN JUMPDEST PUSH2 0x2B0 PUSH2 0x9FD JUMP JUMPDEST PUSH1 0x40 MLOAD PUSH2 0x2BD SWAP2 SWAP1 PUSH2 0x1B2F JUMP JUMPDEST PUSH1 0x40 MLOAD DUP1 SWAP2 SUB SWAP1 RETURN JUMPDEST PUSH2 0x2CE PUSH2 0xA10 JUMP JUMPDEST STOP JUMPDEST PUSH2 0x2D8 PUSH2 0xAA2 JUMP JUMPDEST PUSH1 0x40 MLOAD PUSH2 0x2E5 SWAP2 SWAP1 PUSH2 0x1933 JUMP JUMPDEST PUSH1 0x40 MLOAD DUP1 SWAP2 SUB SWAP1 RETURN JUMPDEST PUSH2 0x308 PUSH1 0x4 DUP1 CALLDATASIZE SUB DUP2 ADD SWAP1 PUSH2 0x303 SWAP2 SWAP1 PUSH2 0x1B4A JUMP JUMPDEST PUSH2 0xB30 JUMP JUMPDEST STOP JUMPDEST PUSH2 0x324 PUSH1 0x4 DUP1 CALLDATASIZE SUB DUP2 ADD SWAP1 PUSH2 0x31F SWAP2 SWAP1 PUSH2 0x1B4A JUMP JUMPDEST PUSH2 0xDC8 JUMP JUMPDEST PUSH1 0x40 MLOAD PUSH2 0x331 SWAP2 SWAP1 PUSH2 0x1C38 JUMP JUMPDEST PUSH1 0x40 MLOAD DUP1 SWAP2 SUB SWAP1 RETURN JUMPDEST PUSH2 0x354 PUSH1 0x4 DUP1 CALLDATASIZE SUB DUP2 ADD SWAP1 PUSH2 0x34F SWAP2 SWAP1 PUSH2 0x1B4A JUMP JUMPDEST PUSH2 0xE07 JUMP JUMPDEST PUSH1 0x40 MLOAD PUSH2 0x363 SWAP4 SWAP3 SWAP2 SWAP1 PUSH2 0x1C53 JUMP JUMPDEST PUSH1 0x40 MLOAD DUP1 SWAP2 SUB SWAP1 RETURN JUMPDEST PUSH2 0x386 PUSH1 0x4 DUP1 CALLDATASIZE SUB DUP2 ADD SWAP1 PUSH2 0x381 SWAP2 SWAP1 PUSH2 0x19F3 JUMP JUMPDEST PUSH2 0xEDF JUMP JUMPDEST PUSH1 0x40 MLOAD PUSH2 0x393 SWAP2 SWAP1 PUSH2 0x1A4E JUMP JUMPDEST PUSH1 0x40 MLOAD DUP1 SWAP2 SUB SWAP1 RETURN JUMPDEST PUSH2 0x3B6 PUSH1 0x4 DUP1 CALLDATASIZE SUB DUP2 ADD SWAP1 PUSH2 0x3B1 SWAP2 SWAP1 PUSH2 0x1BDC JUMP JUMPDEST PUSH2 0x1040 JUMP JUMPDEST STOP JUMPDEST PUSH2 0x3D2 PUSH1 0x4 DUP1 CALLDATASIZE SUB DUP2 ADD SWAP1 PUSH2 0x3CD SWAP2 SWAP1 PUSH2 0x1C91 JUMP JUMPDEST PUSH2 0x1093 JUMP JUMPDEST PUSH1 0x40 MLOAD PUSH2 0x3DF SWAP2 SWAP1 PUSH2 0x1AA5 JUMP JUMPDEST PUSH1 0x40 MLOAD DUP1 SWAP2 SUB SWAP1 RETURN JUMPDEST PUSH1 0x3 DUP1 SLOAD PUSH2 0x3F5 SWAP1 PUSH2 0x1D00 JUMP JUMPDEST DUP1 PUSH1 0x1F ADD PUSH1 0x20 DUP1 SWAP2 DIV MUL PUSH1 0x20 ADD PUSH1 0x40 MLOAD SWAP1 DUP2 ADD PUSH1 0x40 MSTORE DUP1 SWAP3 SWAP2 SWAP1 DUP2 DUP2 MSTORE PUSH1 0x20 ADD DUP3 DUP1 SLOAD PUSH2 0x421 SWAP1 PUSH2 0x1D00 JUMP JUMPDEST DUP1 ISZERO PUSH2 0x46E JUMPI DUP1 PUSH1 0x1F LT PUSH2 0x443 JUMPI PUSH2 0x100 DUP1 DUP4 SLOAD DIV MUL DUP4 MSTORE SWAP2 PUSH1 0x20 ADD SWAP2 PUSH2 0x46E JUMP JUMPDEST DUP3 ADD SWAP2 SWAP1 PUSH1 0x0 MSTORE PUSH1 0x20 PUSH1 0x0 KECCAK256 SWAP1 JUMPDEST DUP2 SLOAD DUP2 MSTORE SWAP1 PUSH1 0x1 ADD SWAP1 PUSH1 0x20 ADD DUP1 DUP4 GT PUSH2 0x451 JUMPI DUP3 SWAP1 SUB PUSH1 0x1F AND DUP3 ADD SWAP2 JUMPDEST POP POP POP POP POP DUP2 JUMP JUMPDEST PUSH1 0x0 PUSH1 0x64 DUP3 GT ISZERO PUSH2 0x4BC JUMPI PUSH1 0x40 MLOAD PUSH32 0x8C379A000000000000000000000000000000000000000000000000000000000 DUP2 MSTORE PUSH1 0x4 ADD PUSH2 0x4B3 SWAP1 PUSH2 0x1D7D JUMP JUMPDEST PUSH1 0x40 MLOAD DUP1 SWAP2 SUB SWAP1 REVERT JUMPDEST DUP2 PUSH1 0x2 PUSH1 0x0 CALLER PUSH20 0xFFFFFFFFFFFFFFFFFFFFFFFFFFFFFFFFFFFFFFFF AND PUSH20 0xFFFFFFFFFFFFFFFFFFFFFFFFFFFFFFFFFFFFFFFF AND DUP2 MSTORE PUSH1 0x20 ADD SWAP1 DUP2 MSTORE PUSH1 0x20 ADD PUSH1 0x0 KECCAK256 PUSH1 0x0 DUP6 PUSH20 0xFFFFFFFFFFFFFFFFFFFFFFFFFFFFFFFFFFFFFFFF AND PUSH20 0xFFFFFFFFFFFFFFFFFFFFFFFFFFFFFFFFFFFFFFFF AND DUP2 MSTORE PUSH1 0x20 ADD SWAP1 DUP2 MSTORE PUSH1 0x20 ADD PUSH1 0x0 KECCAK256 DUP2 SWAP1 SSTORE POP DUP3 PUSH20 0xFFFFFFFFFFFFFFFFFFFFFFFFFFFFFFFFFFFFFFFF AND CALLER PUSH20 0xFFFFFFFFFFFFFFFFFFFFFFFFFFFFFFFFFFFFFFFF AND PUSH32 0x8C5BE1E5EBEC7D5BD14F71427D1E84F3DD0314C0F7B2291E5B200AC8C7C3B925 DUP5 PUSH1 0x40 MLOAD PUSH2 0x59A SWAP2 SWAP1 PUSH2 0x1AA5 JUMP JUMPDEST PUSH1 0x40 MLOAD DUP1 SWAP2 SUB SWAP1 LOG3 PUSH1 0x1 SWAP1 POP SWAP3 SWAP2 POP POP JUMP JUMPDEST PUSH1 0x9 PUSH1 0x20 MSTORE DUP1 PUSH1 0x0 MSTORE PUSH1 0x40 PUSH1 0x0 KECCAK256 PUSH1 0x0 SWAP2 POP SWAP1 POP DUP1 SLOAD PUSH2 0x5CB SWAP1 PUSH2 0x1D00 JUMP JUMPDEST DUP1 PUSH1 0x1F ADD PUSH1 0x20 DUP1 SWAP2 DIV MUL PUSH1 0x20 ADD PUSH1 0x40 MLOAD SWAP1 DUP2 ADD PUSH1 0x40 MSTORE DUP1 SWAP3 SWAP2 SWAP1 DUP2 DUP2 MSTORE PUSH1 0x20 ADD DUP3 DUP1 SLOAD PUSH2 0x5F7 SWAP1 PUSH2 0x1D00 JUMP JUMPDEST DUP1 ISZERO PUSH2 0x644 JUMPI DUP1 PUSH1 0x1F LT PUSH2 0x619 JUMPI PUSH2 0x100 DUP1 DUP4 SLOAD DIV MUL DUP4 MSTORE SWAP2 PUSH1 0x20 ADD SWAP2 PUSH2 0x644 JUMP JUMPDEST DUP3 ADD SWAP2 SWAP1 PUSH1 0x0 MSTORE PUSH1 0x20 PUSH1 0x0 KECCAK256 SWAP1 JUMPDEST DUP2 SLOAD DUP2 MSTORE SWAP1 PUSH1 0x1 ADD SWAP1 PUSH1 0x20 ADD DUP1 DUP4 GT PUSH2 0x627 JUMPI DUP3 SWAP1 SUB PUSH1 0x1F AND DUP3 ADD SWAP2 JUMPDEST POP POP POP POP POP DUP2 JUMP JUMPDEST PUSH1 0x0 SLOAD DUP2 JUMP JUMPDEST PUSH1 0x0 PUSH1 0xA DUP3 GT ISZERO PUSH2 0x698 JUMPI PUSH1 0x40 MLOAD PUSH32 0x8C379A000000000000000000000000000000000000000000000000000000000 DUP2 MSTORE PUSH1 0x4 ADD PUSH2 0x68F SWAP1 PUSH2 0x1DE9 JUMP JUMPDEST PUSH1 0x40 MLOAD DUP1 SWAP2 SUB SWAP1 REVERT JUMPDEST DUP2 PUSH1 0x2 PUSH1 0x0 DUP7 PUSH20 0xFFFFFFFFFFFFFFFFFFFFFFFFFFFFFFFFFFFFFFFF AND PUSH20 0xFFFFFFFFFFFFFFFFFFFFFFFFFFFFFFFFFFFFFFFF AND DUP2 MSTORE PUSH1 0x20 ADD SWAP1 DUP2 MSTORE PUSH1 0x20 ADD PUSH1 0x0 KECCAK256 PUSH1 0x0 CALLER PUSH20 0xFFFFFFFFFFFFFFFFFFFFFFFFFFFFFFFFFFFFFFFF AND PUSH20 0xFFFFFFFFFFFFFFFFFFFFFFFFFFFFFFFFFFFFFFFF AND DUP2 MSTORE PUSH1 0x20 ADD SWAP1 DUP2 MSTORE PUSH1 0x20 ADD PUSH1 0x0 KECCAK256 PUSH1 0x0 DUP3 DUP3 SLOAD PUSH2 0x724 SWAP2 SWAP1 PUSH2 0x1E38 JUMP JUMPDEST SWAP3 POP POP DUP2 SWAP1 SSTORE POP DUP2 PUSH1 0x1 PUSH1 0x0 DUP7 PUSH20 0xFFFFFFFFFFFFFFFFFFFFFFFFFFFFFFFFFFFFFFFF AND PUSH20 0xFFFFFFFFFFFFFFFFFFFFFFFFFFFFFFFFFFFFFFFF AND DUP2 MSTORE PUSH1 0x20 ADD SWAP1 DUP2 MSTORE PUSH1 0x20 ADD PUSH1 0x0 KECCAK256 PUSH1 0x0 DUP3 DUP3 SLOAD PUSH2 0x77A SWAP2 SWAP1 PUSH2 0x1E38 JUMP JUMPDEST SWAP3 POP POP DUP2 SWAP1 SSTORE POP DUP2 PUSH1 0x1 PUSH1 0x0 DUP6 PUSH20 0xFFFFFFFFFFFFFFFFFFFFFFFFFFFFFFFFFFFFFFFF AND PUSH20 0xFFFFFFFFFFFFFFFFFFFFFFFFFFFFFFFFFFFFFFFF AND DUP2 MSTORE PUSH1 0x20 ADD SWAP1 DUP2 MSTORE PUSH1 0x20 ADD PUSH1 0x0 KECCAK256 PUSH1 0x0 DUP3 DUP3 SLOAD PUSH2 0x7D0 SWAP2 SWAP1 PUSH2 0x1E6C JUMP JUMPDEST SWAP3 POP POP DUP2 SWAP1 SSTORE POP DUP3 PUSH20 0xFFFFFFFFFFFFFFFFFFFFFFFFFFFFFFFFFFFFFFFF AND DUP5 PUSH20 0xFFFFFFFFFFFFFFFFFFFFFFFFFFFFFFFFFFFFFFFF AND PUSH32 0xDDF252AD1BE2C89B69C2B068FC378DAA952BA7F163C4A11628F55A4DF523B3EF DUP5 PUSH1 0x40 MLOAD PUSH2 0x834 SWAP2 SWAP1 PUSH2 0x1AA5 JUMP JUMPDEST PUSH1 0x40 MLOAD DUP1 SWAP2 SUB SWAP1 LOG3 PUSH1 0x1 SWAP1 POP SWAP4 SWAP3 POP POP POP JUMP JUMPDEST PUSH1 0x5 PUSH1 0x0 SWAP1 SLOAD SWAP1 PUSH2 0x100 EXP SWAP1 DIV PUSH1 0xFF AND DUP2 JUMP JUMPDEST DUP1 PUSH1 0x1 PUSH1 0x0 CALLER PUSH20 0xFFFFFFFFFFFFFFFFFFFFFFFFFFFFFFFFFFFFFFFF AND PUSH20 0xFFFFFFFFFFFFFFFFFFFFFFFFFFFFFFFFFFFFFFFF AND DUP2 MSTORE PUSH1 0x20 ADD SWAP1 DUP2 MSTORE PUSH1 0x20 ADD PUSH1 0x0 KECCAK256 PUSH1 0x0 DUP3 DUP3 SLOAD PUSH2 0x8A9 SWAP2 SWAP1 PUSH2 0x1E38 JUMP JUMPDEST SWAP3 POP POP DUP2 SWAP1 SSTORE POP DUP1 PUSH1 0x0 DUP1 DUP3 DUP3 SLOAD PUSH2 0x8C1 SWAP2 SWAP1 PUSH2 0x1E38 JUMP JUMPDEST SWAP3 POP POP DUP2 SWAP1 SSTORE POP PUSH1 0x0 PUSH20 0xFFFFFFFFFFFFFFFFFFFFFFFFFFFFFFFFFFFFFFFF AND CALLER PUSH20 0xFFFFFFFFFFFFFFFFFFFFFFFFFFFFFFFFFFFFFFFF AND PUSH32 0xDDF252AD1BE2C89B69C2B068FC378DAA952BA7F163C4A11628F55A4DF523B3EF DUP4 PUSH1 0x40 MLOAD PUSH2 0x926 SWAP2 SWAP1 PUSH2 0x1AA5 JUMP JUMPDEST PUSH1 0x40 MLOAD DUP1 SWAP2 SUB SWAP1 LOG3 PUSH2 0x977 PUSH1 0x1 PUSH1 0x0 CALLER PUSH20 0xFFFFFFFFFFFFFFFFFFFFFFFFFFFFFFFFFFFFFFFF AND PUSH20 0xFFFFFFFFFFFFFFFFFFFFFFFFFFFFFFFFFFFFFFFF AND DUP2 MSTORE PUSH1 0x20 ADD SWAP1 DUP2 MSTORE PUSH1 0x20 ADD PUSH1 0x0 KECCAK256 SLOAD CALLER PUSH2 0x10B8 JUMP JUMPDEST POP JUMP JUMPDEST DUP2 DUP2 PUSH1 0x9 PUSH1 0x0 CALLER PUSH20 0xFFFFFFFFFFFFFFFFFFFFFFFFFFFFFFFFFFFFFFFF AND PUSH20 0xFFFFFFFFFFFFFFFFFFFFFFFFFFFFFFFFFFFFFFFF AND DUP2 MSTORE PUSH1 0x20 ADD SWAP1 DUP2 MSTORE PUSH1 0x20 ADD PUSH1 0x0 KECCAK256 SWAP2 DUP3 PUSH2 0x9C8 SWAP3 SWAP2 SWAP1 PUSH2 0x2086 JUMP JUMPDEST POP POP POP JUMP JUMPDEST PUSH1 0x6 PUSH1 0x20 MSTORE DUP1 PUSH1 0x0 MSTORE PUSH1 0x40 PUSH1 0x0 KECCAK256 PUSH1 0x0 SWAP2 POP SWAP1 POP SLOAD DUP2 JUMP JUMPDEST PUSH1 0x1 PUSH1 0x20 MSTORE DUP1 PUSH1 0x0 MSTORE PUSH1 0x40 PUSH1 0x0 KECCAK256 PUSH1 0x0 SWAP2 POP SWAP1 POP SLOAD DUP2 JUMP JUMPDEST PUSH1 0x7 PUSH1 0x0 SWAP1 SLOAD SWAP1 PUSH2 0x100 EXP SWAP1 DIV PUSH1 0xFF AND DUP2 JUMP JUMPDEST PUSH1 0x0 PUSH1 0x6 PUSH1 0x0 CALLER PUSH20 0xFFFFFFFFFFFFFFFFFFFFFFFFFFFFFFFFFFFFFFFF AND PUSH20 0xFFFFFFFFFFFFFFFFFFFFFFFFFFFFFFFFFFFFFFFF AND DUP2 MSTORE PUSH1 0x20 ADD SWAP1 DUP2 MSTORE PUSH1 0x20 ADD PUSH1 0x0 KECCAK256 SLOAD EQ PUSH2 0xA5C JUMPI PUSH1 0x0 DUP1 REVERT JUMPDEST TIMESTAMP PUSH1 0x6 PUSH1 0x0 CALLER PUSH20 0xFFFFFFFFFFFFFFFFFFFFFFFFFFFFFFFFFFFFFFFF AND PUSH20 0xFFFFFFFFFFFFFFFFFFFFFFFFFFFFFFFFFFFFFFFF AND DUP2 MSTORE PUSH1 0x20 ADD SWAP1 DUP2 MSTORE PUSH1 0x20 ADD PUSH1 0x0 KECCAK256 DUP2 SWAP1 SSTORE POP JUMP JUMPDEST PUSH1 0x4 DUP1 SLOAD PUSH2 0xAAF SWAP1 PUSH2 0x1D00 JUMP JUMPDEST DUP1 PUSH1 0x1F ADD PUSH1 0x20 DUP1 SWAP2 DIV MUL PUSH1 0x20 ADD PUSH1 0x40 MLOAD SWAP1 DUP2 ADD PUSH1 0x40 MSTORE DUP1 SWAP3 SWAP2 SWAP1 DUP2 DUP2 MSTORE PUSH1 0x20 ADD DUP3 DUP1 SLOAD PUSH2 0xADB SWAP1 PUSH2 0x1D00 JUMP JUMPDEST DUP1 ISZERO PUSH2 0xB28 JUMPI DUP1 PUSH1 0x1F LT PUSH2 0xAFD JUMPI PUSH2 0x100 DUP1 DUP4 SLOAD DIV MUL DUP4 MSTORE SWAP2 PUSH1 0x20 ADD SWAP2 PUSH2 0xB28 JUMP JUMPDEST DUP3 ADD SWAP2 SWAP1 PUSH1 0x0 MSTORE PUSH1 0x20 PUSH1 0x0 KECCAK256 SWAP1 JUMPDEST DUP2 SLOAD DUP2 MSTORE SWAP1 PUSH1 0x1 ADD SWAP1 PUSH1 0x20 ADD DUP1 DUP4 GT PUSH2 0xB0B JUMPI DUP3 SWAP1 SUB PUSH1 0x1F AND DUP3 ADD SWAP2 JUMPDEST POP POP POP POP POP DUP2 JUMP JUMPDEST PUSH1 0x0 PUSH1 0x1 PUSH1 0x0 CALLER PUSH20 0xFFFFFFFFFFFFFFFFFFFFFFFFFFFFFFFFFFFFFFFF AND PUSH20 0xFFFFFFFFFFFFFFFFFFFFFFFFFFFFFFFFFFFFFFFF AND DUP2 MSTORE PUSH1 0x20 ADD SWAP1 DUP2 MSTORE PUSH1 0x20 ADD PUSH1 0x0 KECCAK256 SLOAD EQ DUP1 ISZERO PUSH2 0xBBE JUMPI POP PUSH1 0x0 PUSH1 0x6 PUSH1 0x0 CALLER PUSH20 0xFFFFFFFFFFFFFFFFFFFFFFFFFFFFFFFFFFFFFFFF AND PUSH20 0xFFFFFFFFFFFFFFFFFFFFFFFFFFFFFFFFFFFFFFFF AND DUP2 MSTORE PUSH1 0x20 ADD SWAP1 DUP2 MSTORE PUSH1 0x20 ADD PUSH1 0x0 KECCAK256 SLOAD EQ JUMPDEST ISZERO PUSH2 0xCA7 JUMPI TIMESTAMP PUSH1 0x6 PUSH1 0x0 CALLER PUSH20 0xFFFFFFFFFFFFFFFFFFFFFFFFFFFFFFFFFFFFFFFF AND PUSH20 0xFFFFFFFFFFFFFFFFFFFFFFFFFFFFFFFFFFFFFFFF AND DUP2 MSTORE PUSH1 0x20 ADD SWAP1 DUP2 MSTORE PUSH1 0x20 ADD PUSH1 0x0 KECCAK256 DUP2 SWAP1 SSTORE POP PUSH1 0x8 CALLER SWAP1 DUP1 PUSH1 0x1 DUP2 SLOAD ADD DUP1 DUP3 SSTORE DUP1 SWAP2 POP POP PUSH1 0x1 SWAP1 SUB SWAP1 PUSH1 0x0 MSTORE PUSH1 0x20 PUSH1 0x0 KECCAK256 ADD PUSH1 0x0 SWAP1 SWAP2 SWAP1 SWAP2 SWAP1 SWAP2 PUSH2 0x100 EXP DUP2 SLOAD DUP2 PUSH20 0xFFFFFFFFFFFFFFFFFFFFFFFFFFFFFFFFFFFFFFFF MUL NOT AND SWAP1 DUP4 PUSH20 0xFFFFFFFFFFFFFFFFFFFFFFFFFFFFFFFFFFFFFFFF AND MUL OR SWAP1 SSTORE POP PUSH1 0x7 PUSH1 0x0 DUP2 DUP2 SWAP1 SLOAD SWAP1 PUSH2 0x100 EXP SWAP1 DIV PUSH1 0xFF AND DUP1 SWAP3 SWAP2 SWAP1 PUSH2 0xC89 SWAP1 PUSH2 0x2156 JUMP JUMPDEST SWAP2 SWAP1 PUSH2 0x100 EXP DUP2 SLOAD DUP2 PUSH1 0xFF MUL NOT AND SWAP1 DUP4 PUSH1 0xFF AND MUL OR SWAP1 SSTORE POP POP PUSH2 0xDC5 JUMP JUMPDEST DUP1 PUSH1 0x1 PUSH1 0x0 CALLER PUSH20 0xFFFFFFFFFFFFFFFFFFFFFFFFFFFFFFFFFFFFFFFF AND PUSH20 0xFFFFFFFFFFFFFFFFFFFFFFFFFFFFFFFFFFFFFFFF AND DUP2 MSTORE PUSH1 0x20 ADD SWAP1 DUP2 MSTORE PUSH1 0x20 ADD PUSH1 0x0 KECCAK256 PUSH1 0x0 DUP3 DUP3 SLOAD PUSH2 0xCF6 SWAP2 SWAP1 PUSH2 0x1E6C JUMP JUMPDEST SWAP3 POP POP DUP2 SWAP1 SSTORE POP DUP1 PUSH1 0x0 DUP1 DUP3 DUP3 SLOAD PUSH2 0xD0E SWAP2 SWAP1 PUSH2 0x1E6C JUMP JUMPDEST SWAP3 POP POP DUP2 SWAP1 SSTORE POP CALLER PUSH20 0xFFFFFFFFFFFFFFFFFFFFFFFFFFFFFFFFFFFFFFFF AND PUSH1 0x0 PUSH20 0xFFFFFFFFFFFFFFFFFFFFFFFFFFFFFFFFFFFFFFFF AND PUSH32 0xDDF252AD1BE2C89B69C2B068FC378DAA952BA7F163C4A11628F55A4DF523B3EF DUP4 PUSH1 0x40 MLOAD PUSH2 0xD73 SWAP2 SWAP1 PUSH2 0x1AA5 JUMP JUMPDEST PUSH1 0x40 MLOAD DUP1 SWAP2 SUB SWAP1 LOG3 PUSH2 0xDC4 PUSH1 0x1 PUSH1 0x0 CALLER PUSH20 0xFFFFFFFFFFFFFFFFFFFFFFFFFFFFFFFFFFFFFFFF AND PUSH20 0xFFFFFFFFFFFFFFFFFFFFFFFFFFFFFFFFFFFFFFFF AND DUP2 MSTORE PUSH1 0x20 ADD SWAP1 DUP2 MSTORE PUSH1 0x20 ADD PUSH1 0x0 KECCAK256 SLOAD CALLER PUSH2 0x14AF JUMP JUMPDEST JUMPDEST POP JUMP JUMPDEST PUSH1 0x8 DUP2 DUP2 SLOAD DUP2 LT PUSH2 0xDD8 JUMPI PUSH1 0x0 DUP1 REVERT JUMPDEST SWAP1 PUSH1 0x0 MSTORE PUSH1 0x20 PUSH1 0x0 KECCAK256 ADD PUSH1 0x0 SWAP2 POP SLOAD SWAP1 PUSH2 0x100 EXP SWAP1 DIV PUSH20 0xFFFFFFFFFFFFFFFFFFFFFFFFFFFFFFFFFFFFFFFF AND DUP2 JUMP JUMPDEST PUSH1 0xA DUP2 PUSH1 0xA DUP2 LT PUSH2 0xE17 JUMPI PUSH1 0x0 DUP1 REVERT JUMPDEST PUSH1 0x3 MUL ADD PUSH1 0x0 SWAP2 POP SWAP1 POP DUP1 PUSH1 0x0 ADD PUSH1 0x0 SWAP1 SLOAD SWAP1 PUSH2 0x100 EXP SWAP1 DIV PUSH20 0xFFFFFFFFFFFFFFFFFFFFFFFFFFFFFFFFFFFFFFFF AND SWAP1 DUP1 PUSH1 0x1 ADD DUP1 SLOAD PUSH2 0xE56 SWAP1 PUSH2 0x1D00 JUMP JUMPDEST DUP1 PUSH1 0x1F ADD PUSH1 0x20 DUP1 SWAP2 DIV MUL PUSH1 0x20 ADD PUSH1 0x40 MLOAD SWAP1 DUP2 ADD PUSH1 0x40 MSTORE DUP1 SWAP3 SWAP2 SWAP1 DUP2 DUP2 MSTORE PUSH1 0x20 ADD DUP3 DUP1 SLOAD PUSH2 0xE82 SWAP1 PUSH2 0x1D00 JUMP JUMPDEST DUP1 ISZERO PUSH2 0xECF JUMPI DUP1 PUSH1 0x1F LT PUSH2 0xEA4 JUMPI PUSH2 0x100 DUP1 DUP4 SLOAD DIV MUL DUP4 MSTORE SWAP2 PUSH1 0x20 ADD SWAP2 PUSH2 0xECF JUMP JUMPDEST DUP3 ADD SWAP2 SWAP1 PUSH1 0x0 MSTORE PUSH1 0x20 PUSH1 0x0 KECCAK256 SWAP1 JUMPDEST DUP2 SLOAD DUP2 MSTORE SWAP1 PUSH1 0x1 ADD SWAP1 PUSH1 0x20 ADD DUP1 DUP4 GT PUSH2 0xEB2 JUMPI DUP3 SWAP1 SUB PUSH1 0x1F AND DUP3 ADD SWAP2 JUMPDEST POP POP POP POP POP SWAP1 DUP1 PUSH1 0x2 ADD SLOAD SWAP1 POP DUP4 JUMP JUMPDEST PUSH1 0x0 PUSH1 0xA DUP3 GT ISZERO PUSH2 0xF25 JUMPI PUSH1 0x40 MLOAD PUSH32 0x8C379A000000000000000000000000000000000000000000000000000000000 DUP2 MSTORE PUSH1 0x4 ADD PUSH2 0xF1C SWAP1 PUSH2 0x1DE9 JUMP JUMPDEST PUSH1 0x40 MLOAD DUP1 SWAP2 SUB SWAP1 REVERT JUMPDEST DUP2 PUSH1 0x1 PUSH1 0x0 CALLER PUSH20 0xFFFFFFFFFFFFFFFFFFFFFFFFFFFFFFFFFFFFFFFF AND PUSH20 0xFFFFFFFFFFFFFFFFFFFFFFFFFFFFFFFFFFFFFFFF AND DUP2 MSTORE PUSH1 0x20 ADD SWAP1 DUP2 MSTORE PUSH1 0x20 ADD PUSH1 0x0 KECCAK256 PUSH1 0x0 DUP3 DUP3 SLOAD PUSH2 0xF74 SWAP2 SWAP1 PUSH2 0x1E38 JUMP JUMPDEST SWAP3 POP POP DUP2 SWAP1 SSTORE POP DUP2 PUSH1 0x1 PUSH1 0x0 DUP6 PUSH20 0xFFFFFFFFFFFFFFFFFFFFFFFFFFFFFFFFFFFFFFFF AND PUSH20 0xFFFFFFFFFFFFFFFFFFFFFFFFFFFFFFFFFFFFFFFF AND DUP2 MSTORE PUSH1 0x20 ADD SWAP1 DUP2 MSTORE PUSH1 0x20 ADD PUSH1 0x0 KECCAK256 PUSH1 0x0 DUP3 DUP3 SLOAD PUSH2 0xFCA SWAP2 SWAP1 PUSH2 0x1E6C JUMP JUMPDEST SWAP3 POP POP DUP2 SWAP1 SSTORE POP DUP3 PUSH20 0xFFFFFFFFFFFFFFFFFFFFFFFFFFFFFFFFFFFFFFFF AND CALLER PUSH20 0xFFFFFFFFFFFFFFFFFFFFFFFFFFFFFFFFFFFFFFFF AND PUSH32 0xDDF252AD1BE2C89B69C2B068FC378DAA952BA7F163C4A11628F55A4DF523B3EF DUP5 PUSH1 0x40 MLOAD PUSH2 0x102E SWAP2 SWAP1 PUSH2 0x1AA5 JUMP JUMPDEST PUSH1 0x40 MLOAD DUP1 SWAP2 SUB SWAP1 LOG3 PUSH1 0x1 SWAP1 POP SWAP3 SWAP2 POP POP JUMP JUMPDEST DUP2 DUP2 PUSH1 0x9 PUSH1 0x0 CALLER PUSH20 0xFFFFFFFFFFFFFFFFFFFFFFFFFFFFFFFFFFFFFFFF AND PUSH20 0xFFFFFFFFFFFFFFFFFFFFFFFFFFFFFFFFFFFFFFFF AND DUP2 MSTORE PUSH1 0x20 ADD SWAP1 DUP2 MSTORE PUSH1 0x20 ADD PUSH1 0x0 KECCAK256 SWAP2 DUP3 PUSH2 0x108E SWAP3 SWAP2 SWAP1 PUSH2 0x2086 JUMP JUMPDEST POP POP POP JUMP JUMPDEST PUSH1 0x2 PUSH1 0x20 MSTORE DUP2 PUSH1 0x0 MSTORE PUSH1 0x40 PUSH1 0x0 KECCAK256 PUSH1 0x20 MSTORE DUP1 PUSH1 0x0 MSTORE PUSH1 0x40 PUSH1 0x0 KECCAK256 PUSH1 0x0 SWAP2 POP SWAP2 POP POP SLOAD DUP2 JUMP JUMPDEST PUSH1 0x0 PUSH1 0x40 MLOAD DUP1 PUSH1 0x60 ADD PUSH1 0x40 MSTORE DUP1 DUP4 PUSH20 0xFFFFFFFFFFFFFFFFFFFFFFFFFFFFFFFFFFFFFFFF AND DUP2 MSTORE PUSH1 0x20 ADD PUSH1 0x9 PUSH1 0x0 DUP6 PUSH20 0xFFFFFFFFFFFFFFFFFFFFFFFFFFFFFFFFFFFFFFFF AND PUSH20 0xFFFFFFFFFFFFFFFFFFFFFFFFFFFFFFFFFFFFFFFF AND DUP2 MSTORE PUSH1 0x20 ADD SWAP1 DUP2 MSTORE PUSH1 0x20 ADD PUSH1 0x0 KECCAK256 DUP1 SLOAD PUSH2 0x112B SWAP1 PUSH2 0x1D00 JUMP JUMPDEST DUP1 PUSH1 0x1F ADD PUSH1 0x20 DUP1 SWAP2 DIV MUL PUSH1 0x20 ADD PUSH1 0x40 MLOAD SWAP1 DUP2 ADD PUSH1 0x40 MSTORE DUP1 SWAP3 SWAP2 SWAP1 DUP2 DUP2 MSTORE PUSH1 0x20 ADD DUP3 DUP1 SLOAD PUSH2 0x1157 SWAP1 PUSH2 0x1D00 JUMP JUMPDEST DUP1 ISZERO PUSH2 0x11A4 JUMPI DUP1 PUSH1 0x1F LT PUSH2 0x1179 JUMPI PUSH2 0x100 DUP1 DUP4 SLOAD DIV MUL DUP4 MSTORE SWAP2 PUSH1 0x20 ADD SWAP2 PUSH2 0x11A4 JUMP JUMPDEST DUP3 ADD SWAP2 SWAP1 PUSH1 0x0 MSTORE PUSH1 0x20 PUSH1 0x0 KECCAK256 SWAP1 JUMPDEST DUP2 SLOAD DUP2 MSTORE SWAP1 PUSH1 0x1 ADD SWAP1 PUSH1 0x20 ADD DUP1 DUP4 GT PUSH2 0x1187 JUMPI DUP3 SWAP1 SUB PUSH1 0x1F AND DUP3 ADD SWAP2 JUMPDEST POP POP POP POP POP DUP2 MSTORE PUSH1 0x20 ADD DUP5 DUP2 MSTORE POP SWAP1 POP PUSH1 0x0 PUSH1 0x9 SWAP1 POP JUMPDEST PUSH1 0x0 DUP2 PUSH1 0xFF AND LT PUSH2 0x14A8 JUMPI DUP3 PUSH20 0xFFFFFFFFFFFFFFFFFFFFFFFFFFFFFFFFFFFFFFFF AND PUSH1 0xA DUP3 PUSH1 0xFF AND PUSH1 0xA DUP2 LT PUSH2 0x11F4 JUMPI PUSH2 0x11F3 PUSH2 0x217F JUMP JUMPDEST JUMPDEST PUSH1 0x3 MUL ADD PUSH1 0x0 ADD PUSH1 0x0 SWAP1 SLOAD SWAP1 PUSH2 0x100 EXP SWAP1 DIV PUSH20 0xFFFFFFFFFFFFFFFFFFFFFFFFFFFFFFFFFFFFFFFF AND PUSH20 0xFFFFFFFFFFFFFFFFFFFFFFFFFFFFFFFFFFFFFFFF AND SUB PUSH2 0x12C4 JUMPI DUP2 PUSH1 0xA DUP3 PUSH1 0xFF AND PUSH1 0xA DUP2 LT PUSH2 0x124F JUMPI PUSH2 0x124E PUSH2 0x217F JUMP JUMPDEST JUMPDEST PUSH1 0x3 MUL ADD PUSH1 0x0 DUP3 ADD MLOAD DUP2 PUSH1 0x0 ADD PUSH1 0x0 PUSH2 0x100 EXP DUP2 SLOAD DUP2 PUSH20 0xFFFFFFFFFFFFFFFFFFFFFFFFFFFFFFFFFFFFFFFF MUL NOT AND SWAP1 DUP4 PUSH20 0xFFFFFFFFFFFFFFFFFFFFFFFFFFFFFFFFFFFFFFFF AND MUL OR SWAP1 SSTORE POP PUSH1 0x20 DUP3 ADD MLOAD DUP2 PUSH1 0x1 ADD SWAP1 DUP2 PUSH2 0x12AF SWAP2 SWAP1 PUSH2 0x21AE JUMP JUMPDEST POP PUSH1 0x40 DUP3 ADD MLOAD DUP2 PUSH1 0x2 ADD SSTORE SWAP1 POP POP POP POP PUSH2 0x14AB JUMP JUMPDEST DUP2 PUSH1 0x40 ADD MLOAD PUSH1 0xA DUP3 PUSH1 0xFF AND PUSH1 0xA DUP2 LT PUSH2 0x12E0 JUMPI PUSH2 0x12DF PUSH2 0x217F JUMP JUMPDEST JUMPDEST PUSH1 0x3 MUL ADD PUSH1 0x2 ADD SLOAD GT ISZERO PUSH2 0x1495 JUMPI PUSH1 0x0 PUSH1 0xA DUP3 PUSH1 0xFF AND PUSH1 0xA DUP2 LT PUSH2 0x1307 JUMPI PUSH2 0x1306 PUSH2 0x217F JUMP JUMPDEST JUMPDEST PUSH1 0x3 MUL ADD PUSH1 0x40 MLOAD DUP1 PUSH1 0x60 ADD PUSH1 0x40 MSTORE SWAP1 DUP2 PUSH1 0x0 DUP3 ADD PUSH1 0x0 SWAP1 SLOAD SWAP1 PUSH2 0x100 EXP SWAP1 DIV PUSH20 0xFFFFFFFFFFFFFFFFFFFFFFFFFFFFFFFFFFFFFFFF AND PUSH20 0xFFFFFFFFFFFFFFFFFFFFFFFFFFFFFFFFFFFFFFFF AND PUSH20 0xFFFFFFFFFFFFFFFFFFFFFFFFFFFFFFFFFFFFFFFF AND DUP2 MSTORE PUSH1 0x20 ADD PUSH1 0x1 DUP3 ADD DUP1 SLOAD PUSH2 0x137C SWAP1 PUSH2 0x1D00 JUMP JUMPDEST DUP1 PUSH1 0x1F ADD PUSH1 0x20 DUP1 SWAP2 DIV MUL PUSH1 0x20 ADD PUSH1 0x40 MLOAD SWAP1 DUP2 ADD PUSH1 0x40 MSTORE DUP1 SWAP3 SWAP2 SWAP1 DUP2 DUP2 MSTORE PUSH1 0x20 ADD DUP3 DUP1 SLOAD PUSH2 0x13A8 SWAP1 PUSH2 0x1D00 JUMP JUMPDEST DUP1 ISZERO PUSH2 0x13F5 JUMPI DUP1 PUSH1 0x1F LT PUSH2 0x13CA JUMPI PUSH2 0x100 DUP1 DUP4 SLOAD DIV MUL DUP4 MSTORE SWAP2 PUSH1 0x20 ADD SWAP2 PUSH2 0x13F5 JUMP JUMPDEST DUP3 ADD SWAP2 SWAP1 PUSH1 0x0 MSTORE PUSH1 0x20 PUSH1 0x0 KECCAK256 SWAP1 JUMPDEST DUP2 SLOAD DUP2 MSTORE SWAP1 PUSH1 0x1 ADD SWAP1 PUSH1 0x20 ADD DUP1 DUP4 GT PUSH2 0x13D8 JUMPI DUP3 SWAP1 SUB PUSH1 0x1F AND DUP3 ADD SWAP2 JUMPDEST POP POP POP POP POP DUP2 MSTORE PUSH1 0x20 ADD PUSH1 0x2 DUP3 ADD SLOAD DUP2 MSTORE POP POP SWAP1 POP DUP3 PUSH1 0xA DUP4 PUSH1 0xFF AND PUSH1 0xA DUP2 LT PUSH2 0x1422 JUMPI PUSH2 0x1421 PUSH2 0x217F JUMP JUMPDEST JUMPDEST PUSH1 0x3 MUL ADD PUSH1 0x0 DUP3 ADD MLOAD DUP2 PUSH1 0x0 ADD PUSH1 0x0 PUSH2 0x100 EXP DUP2 SLOAD DUP2 PUSH20 0xFFFFFFFFFFFFFFFFFFFFFFFFFFFFFFFFFFFFFFFF MUL NOT AND SWAP1 DUP4 PUSH20 0xFFFFFFFFFFFFFFFFFFFFFFFFFFFFFFFFFFFFFFFF AND MUL OR SWAP1 SSTORE POP PUSH1 0x20 DUP3 ADD MLOAD DUP2 PUSH1 0x1 ADD SWAP1 DUP2 PUSH2 0x1482 SWAP2 SWAP1 PUSH2 0x21AE JUMP JUMPDEST POP PUSH1 0x40 DUP3 ADD MLOAD DUP2 PUSH1 0x2 ADD SSTORE SWAP1 POP POP DUP1 SWAP3 POP POP JUMPDEST DUP1 DUP1 PUSH2 0x14A0 SWAP1 PUSH2 0x2280 JUMP JUMPDEST SWAP2 POP POP PUSH2 0x11BB JUMP JUMPDEST POP POP JUMPDEST POP POP JUMP JUMPDEST PUSH1 0x0 PUSH1 0x40 MLOAD DUP1 PUSH1 0x60 ADD PUSH1 0x40 MSTORE DUP1 DUP4 PUSH20 0xFFFFFFFFFFFFFFFFFFFFFFFFFFFFFFFFFFFFFFFF AND DUP2 MSTORE PUSH1 0x20 ADD PUSH1 0x9 PUSH1 0x0 DUP6 PUSH20 0xFFFFFFFFFFFFFFFFFFFFFFFFFFFFFFFFFFFFFFFF AND PUSH20 0xFFFFFFFFFFFFFFFFFFFFFFFFFFFFFFFFFFFFFFFF AND DUP2 MSTORE PUSH1 0x20 ADD SWAP1 DUP2 MSTORE PUSH1 0x20 ADD PUSH1 0x0 KECCAK256 DUP1 SLOAD PUSH2 0x1522 SWAP1 PUSH2 0x1D00 JUMP JUMPDEST DUP1 PUSH1 0x1F ADD PUSH1 0x20 DUP1 SWAP2 DIV MUL PUSH1 0x20 ADD PUSH1 0x40 MLOAD SWAP1 DUP2 ADD PUSH1 0x40 MSTORE DUP1 SWAP3 SWAP2 SWAP1 DUP2 DUP2 MSTORE PUSH1 0x20 ADD DUP3 DUP1 SLOAD PUSH2 0x154E SWAP1 PUSH2 0x1D00 JUMP JUMPDEST DUP1 ISZERO PUSH2 0x159B JUMPI DUP1 PUSH1 0x1F LT PUSH2 0x1570 JUMPI PUSH2 0x100 DUP1 DUP4 SLOAD DIV MUL DUP4 MSTORE SWAP2 PUSH1 0x20 ADD SWAP2 PUSH2 0x159B JUMP JUMPDEST DUP3 ADD SWAP2 SWAP1 PUSH1 0x0 MSTORE PUSH1 0x20 PUSH1 0x0 KECCAK256 SWAP1 JUMPDEST DUP2 SLOAD DUP2 MSTORE SWAP1 PUSH1 0x1 ADD SWAP1 PUSH1 0x20 ADD DUP1 DUP4 GT PUSH2 0x157E JUMPI DUP3 SWAP1 SUB PUSH1 0x1F AND DUP3 ADD SWAP2 JUMPDEST POP POP POP POP POP DUP2 MSTORE PUSH1 0x20 ADD DUP5 DUP2 MSTORE POP SWAP1 POP PUSH1 0x0 JUMPDEST PUSH1 0xA DUP2 PUSH1 0xFF AND LT ISZERO PUSH2 0x189C JUMPI DUP3 PUSH20 0xFFFFFFFFFFFFFFFFFFFFFFFFFFFFFFFFFFFFFFFF AND PUSH1 0xA DUP3 PUSH1 0xFF AND PUSH1 0xA DUP2 LT PUSH2 0x15E8 JUMPI PUSH2 0x15E7 PUSH2 0x217F JUMP JUMPDEST JUMPDEST PUSH1 0x3 MUL ADD PUSH1 0x0 ADD PUSH1 0x0 SWAP1 SLOAD SWAP1 PUSH2 0x100 EXP SWAP1 DIV PUSH20 0xFFFFFFFFFFFFFFFFFFFFFFFFFFFFFFFFFFFFFFFF AND PUSH20 0xFFFFFFFFFFFFFFFFFFFFFFFFFFFFFFFFFFFFFFFF AND SUB PUSH2 0x16B8 JUMPI DUP2 PUSH1 0xA DUP3 PUSH1 0xFF AND PUSH1 0xA DUP2 LT PUSH2 0x1643 JUMPI PUSH2 0x1642 PUSH2 0x217F JUMP JUMPDEST JUMPDEST PUSH1 0x3 MUL ADD PUSH1 0x0 DUP3 ADD MLOAD DUP2 PUSH1 0x0 ADD PUSH1 0x0 PUSH2 0x100 EXP DUP2 SLOAD DUP2 PUSH20 0xFFFFFFFFFFFFFFFFFFFFFFFFFFFFFFFFFFFFFFFF MUL NOT AND SWAP1 DUP4 PUSH20 0xFFFFFFFFFFFFFFFFFFFFFFFFFFFFFFFFFFFFFFFF AND MUL OR SWAP1 SSTORE POP PUSH1 0x20 DUP3 ADD MLOAD DUP2 PUSH1 0x1 ADD SWAP1 DUP2 PUSH2 0x16A3 SWAP2 SWAP1 PUSH2 0x21AE JUMP JUMPDEST POP PUSH1 0x40 DUP3 ADD MLOAD DUP2 PUSH1 0x2 ADD SSTORE SWAP1 POP POP POP POP PUSH2 0x189F JUMP JUMPDEST DUP2 PUSH1 0x40 ADD MLOAD PUSH1 0xA DUP3 PUSH1 0xFF AND PUSH1 0xA DUP2 LT PUSH2 0x16D4 JUMPI PUSH2 0x16D3 PUSH2 0x217F JUMP JUMPDEST JUMPDEST PUSH1 0x3 MUL ADD PUSH1 0x2 ADD SLOAD LT ISZERO PUSH2 0x1889 JUMPI PUSH1 0x0 PUSH1 0xA DUP3 PUSH1 0xFF AND PUSH1 0xA DUP2 LT PUSH2 0x16FB JUMPI PUSH2 0x16FA PUSH2 0x217F JUMP JUMPDEST JUMPDEST PUSH1 0x3 MUL ADD PUSH1 0x40 MLOAD DUP1 PUSH1 0x60 ADD PUSH1 0x40 MSTORE SWAP1 DUP2 PUSH1 0x0 DUP3 ADD PUSH1 0x0 SWAP1 SLOAD SWAP1 PUSH2 0x100 EXP SWAP1 DIV PUSH20 0xFFFFFFFFFFFFFFFFFFFFFFFFFFFFFFFFFFFFFFFF AND PUSH20 0xFFFFFFFFFFFFFFFFFFFFFFFFFFFFFFFFFFFFFFFF AND PUSH20 0xFFFFFFFFFFFFFFFFFFFFFFFFFFFFFFFFFFFFFFFF AND DUP2 MSTORE PUSH1 0x20 ADD PUSH1 0x1 DUP3 ADD DUP1 SLOAD PUSH2 0x1770 SWAP1 PUSH2 0x1D00 JUMP JUMPDEST DUP1 PUSH1 0x1F ADD PUSH1 0x20 DUP1 SWAP2 DIV MUL PUSH1 0x20 ADD PUSH1 0x40 MLOAD SWAP1 DUP2 ADD PUSH1 0x40 MSTORE DUP1 SWAP3 SWAP2 SWAP1 DUP2 DUP2 MSTORE PUSH1 0x20 ADD DUP3 DUP1 SLOAD PUSH2 0x179C SWAP1 PUSH2 0x1D00 JUMP JUMPDEST DUP1 ISZERO PUSH2 0x17E9 JUMPI DUP1 PUSH1 0x1F LT PUSH2 0x17BE JUMPI PUSH2 0x100 DUP1 DUP4 SLOAD DIV MUL DUP4 MSTORE SWAP2 PUSH1 0x20 ADD SWAP2 PUSH2 0x17E9 JUMP JUMPDEST DUP3 ADD SWAP2 SWAP1 PUSH1 0x0 MSTORE PUSH1 0x20 PUSH1 0x0 KECCAK256 SWAP1 JUMPDEST DUP2 SLOAD DUP2 MSTORE SWAP1 PUSH1 0x1 ADD SWAP1 PUSH1 0x20 ADD DUP1 DUP4 GT PUSH2 0x17CC JUMPI DUP3 SWAP1 SUB PUSH1 0x1F AND DUP3 ADD SWAP2 JUMPDEST POP POP POP POP POP DUP2 MSTORE PUSH1 0x20 ADD PUSH1 0x2 DUP3 ADD SLOAD DUP2 MSTORE POP POP SWAP1 POP DUP3 PUSH1 0xA DUP4 PUSH1 0xFF AND PUSH1 0xA DUP2 LT PUSH2 0x1816 JUMPI PUSH2 0x1815 PUSH2 0x217F JUMP JUMPDEST JUMPDEST PUSH1 0x3 MUL ADD PUSH1 0x0 DUP3 ADD MLOAD DUP2 PUSH1 0x0 ADD PUSH1 0x0 PUSH2 0x100 EXP DUP2 SLOAD DUP2 PUSH20 0xFFFFFFFFFFFFFFFFFFFFFFFFFFFFFFFFFFFFFFFF MUL NOT AND SWAP1 DUP4 PUSH20 0xFFFFFFFFFFFFFFFFFFFFFFFFFFFFFFFFFFFFFFFF AND MUL OR SWAP1 SSTORE POP PUSH1 0x20 DUP3 ADD MLOAD DUP2 PUSH1 0x1 ADD SWAP1 DUP2 PUSH2 0x1876 SWAP2 SWAP1 PUSH2 0x21AE JUMP JUMPDEST POP PUSH1 0x40 DUP3 ADD MLOAD DUP2 PUSH1 0x2 ADD SSTORE SWAP1 POP POP DUP1 SWAP3 POP POP JUMPDEST DUP1 DUP1 PUSH2 0x1894 SWAP1 PUSH2 0x2156 JUMP JUMPDEST SWAP2 POP POP PUSH2 0x15AE JUMP JUMPDEST POP POP JUMPDEST POP POP JUMP JUMPDEST PUSH1 0x0 DUP2 MLOAD SWAP1 POP SWAP2 SWAP1 POP JUMP JUMPDEST PUSH1 0x0 DUP3 DUP3 MSTORE PUSH1 0x20 DUP3 ADD SWAP1 POP SWAP3 SWAP2 POP POP JUMP JUMPDEST PUSH1 0x0 JUMPDEST DUP4 DUP2 LT ISZERO PUSH2 0x18DD JUMPI DUP1 DUP3 ADD MLOAD DUP2 DUP5 ADD MSTORE PUSH1 0x20 DUP2 ADD SWAP1 POP PUSH2 0x18C2 JUMP JUMPDEST PUSH1 0x0 DUP5 DUP5 ADD MSTORE POP POP POP POP JUMP JUMPDEST PUSH1 0x0 PUSH1 0x1F NOT PUSH1 0x1F DUP4 ADD AND SWAP1 POP SWAP2 SWAP1 POP JUMP JUMPDEST PUSH1 0x0 PUSH2 0x1905 DUP3 PUSH2 0x18A3 JUMP JUMPDEST PUSH2 0x190F DUP2 DUP6 PUSH2 0x18AE JUMP JUMPDEST SWAP4 POP PUSH2 0x191F DUP2 DUP6 PUSH1 0x20 DUP7 ADD PUSH2 0x18BF JUMP JUMPDEST PUSH2 0x1928 DUP2 PUSH2 0x18E9 JUMP JUMPDEST DUP5 ADD SWAP2 POP POP SWAP3 SWAP2 POP POP JUMP JUMPDEST PUSH1 0x0 PUSH1 0x20 DUP3 ADD SWAP1 POP DUP2 DUP2 SUB PUSH1 0x0 DUP4 ADD MSTORE PUSH2 0x194D DUP2 DUP5 PUSH2 0x18FA JUMP JUMPDEST SWAP1 POP SWAP3 SWAP2 POP POP JUMP JUMPDEST PUSH1 0x0 DUP1 REVERT JUMPDEST PUSH1 0x0 DUP1 REVERT JUMPDEST PUSH1 0x0 PUSH20 0xFFFFFFFFFFFFFFFFFFFFFFFFFFFFFFFFFFFFFFFF DUP3 AND SWAP1 POP SWAP2 SWAP1 POP JUMP JUMPDEST PUSH1 0x0 PUSH2 0x198A DUP3 PUSH2 0x195F JUMP JUMPDEST SWAP1 POP SWAP2 SWAP1 POP JUMP JUMPDEST PUSH2 0x199A DUP2 PUSH2 0x197F JUMP JUMPDEST DUP2 EQ PUSH2 0x19A5 JUMPI PUSH1 0x0 DUP1 REVERT JUMPDEST POP JUMP JUMPDEST PUSH1 0x0 DUP2 CALLDATALOAD SWAP1 POP PUSH2 0x19B7 DUP2 PUSH2 0x1991 JUMP JUMPDEST SWAP3 SWAP2 POP POP JUMP JUMPDEST PUSH1 0x0 DUP2 SWAP1 POP SWAP2 SWAP1 POP JUMP JUMPDEST PUSH2 0x19D0 DUP2 PUSH2 0x19BD JUMP JUMPDEST DUP2 EQ PUSH2 0x19DB JUMPI PUSH1 0x0 DUP1 REVERT JUMPDEST POP JUMP JUMPDEST PUSH1 0x0 DUP2 CALLDATALOAD SWAP1 POP PUSH2 0x19ED DUP2 PUSH2 0x19C7 JUMP JUMPDEST SWAP3 SWAP2 POP POP JUMP JUMPDEST PUSH1 0x0 DUP1 PUSH1 0x40 DUP4 DUP6 SUB SLT ISZERO PUSH2 0x1A0A JUMPI PUSH2 0x1A09 PUSH2 0x1955 JUMP JUMPDEST JUMPDEST PUSH1 0x0 PUSH2 0x1A18 DUP6 DUP3 DUP7 ADD PUSH2 0x19A8 JUMP JUMPDEST SWAP3 POP POP PUSH1 0x20 PUSH2 0x1A29 DUP6 DUP3 DUP7 ADD PUSH2 0x19DE JUMP JUMPDEST SWAP2 POP POP SWAP3 POP SWAP3 SWAP1 POP JUMP JUMPDEST PUSH1 0x0 DUP2 ISZERO ISZERO SWAP1 POP SWAP2 SWAP1 POP JUMP JUMPDEST PUSH2 0x1A48 DUP2 PUSH2 0x1A33 JUMP JUMPDEST DUP3 MSTORE POP POP JUMP JUMPDEST PUSH1 0x0 PUSH1 0x20 DUP3 ADD SWAP1 POP PUSH2 0x1A63 PUSH1 0x0 DUP4 ADD DUP5 PUSH2 0x1A3F JUMP JUMPDEST SWAP3 SWAP2 POP POP JUMP JUMPDEST PUSH1 0x0 PUSH1 0x20 DUP3 DUP5 SUB SLT ISZERO PUSH2 0x1A7F JUMPI PUSH2 0x1A7E PUSH2 0x1955 JUMP JUMPDEST JUMPDEST PUSH1 0x0 PUSH2 0x1A8D DUP5 DUP3 DUP6 ADD PUSH2 0x19A8 JUMP JUMPDEST SWAP2 POP POP SWAP3 SWAP2 POP POP JUMP JUMPDEST PUSH2 0x1A9F DUP2 PUSH2 0x19BD JUMP JUMPDEST DUP3 MSTORE POP POP JUMP JUMPDEST PUSH1 0x0 PUSH1 0x20 DUP3 ADD SWAP1 POP PUSH2 0x1ABA PUSH1 0x0 DUP4 ADD DUP5 PUSH2 0x1A96 JUMP JUMPDEST SWAP3 SWAP2 POP POP JUMP JUMPDEST PUSH1 0x0 DUP1 PUSH1 0x0 PUSH1 0x60 DUP5 DUP7 SUB SLT ISZERO PUSH2 0x1AD9 JUMPI PUSH2 0x1AD8 PUSH2 0x1955 JUMP JUMPDEST JUMPDEST PUSH1 0x0 PUSH2 0x1AE7 DUP7 DUP3 DUP8 ADD PUSH2 0x19A8 JUMP JUMPDEST SWAP4 POP POP PUSH1 0x20 PUSH2 0x1AF8 DUP7 DUP3 DUP8 ADD PUSH2 0x19A8 JUMP JUMPDEST SWAP3 POP POP PUSH1 0x40 PUSH2 0x1B09 DUP7 DUP3 DUP8 ADD PUSH2 0x19DE JUMP JUMPDEST SWAP2 POP POP SWAP3 POP SWAP3 POP SWAP3 JUMP JUMPDEST PUSH1 0x0 PUSH1 0xFF DUP3 AND SWAP1 POP SWAP2 SWAP1 POP JUMP JUMPDEST PUSH2 0x1B29 DUP2 PUSH2 0x1B13 JUMP JUMPDEST DUP3 MSTORE POP POP JUMP JUMPDEST PUSH1 0x0 PUSH1 0x20 DUP3 ADD SWAP1 POP PUSH2 0x1B44 PUSH1 0x0 DUP4 ADD DUP5 PUSH2 0x1B20 JUMP JUMPDEST SWAP3 SWAP2 POP POP JUMP JUMPDEST PUSH1 0x0 PUSH1 0x20 DUP3 DUP5 SUB SLT ISZERO PUSH2 0x1B60 JUMPI PUSH2 0x1B5F PUSH2 0x1955 JUMP JUMPDEST JUMPDEST PUSH1 0x0 PUSH2 0x1B6E DUP5 DUP3 DUP6 ADD PUSH2 0x19DE JUMP JUMPDEST SWAP2 POP POP SWAP3 SWAP2 POP POP JUMP JUMPDEST PUSH1 0x0 DUP1 REVERT JUMPDEST PUSH1 0x0 DUP1 REVERT JUMPDEST PUSH1 0x0 DUP1 REVERT JUMPDEST PUSH1 0x0 DUP1 DUP4 PUSH1 0x1F DUP5 ADD SLT PUSH2 0x1B9C JUMPI PUSH2 0x1B9B PUSH2 0x1B77 JUMP JUMPDEST JUMPDEST DUP3 CALLDATALOAD SWAP1 POP PUSH8 0xFFFFFFFFFFFFFFFF DUP2 GT ISZERO PUSH2 0x1BB9 JUMPI PUSH2 0x1BB8 PUSH2 0x1B7C JUMP JUMPDEST JUMPDEST PUSH1 0x20 DUP4 ADD SWAP2 POP DUP4 PUSH1 0x1 DUP3 MUL DUP4 ADD GT ISZERO PUSH2 0x1BD5 JUMPI PUSH2 0x1BD4 PUSH2 0x1B81 JUMP JUMPDEST JUMPDEST SWAP3 POP SWAP3 SWAP1 POP JUMP JUMPDEST PUSH1 0x0 DUP1 PUSH1 0x20 DUP4 DUP6 SUB SLT ISZERO PUSH2 0x1BF3 JUMPI PUSH2 0x1BF2 PUSH2 0x1955 JUMP JUMPDEST JUMPDEST PUSH1 0x0 DUP4 ADD CALLDATALOAD PUSH8 0xFFFFFFFFFFFFFFFF DUP2 GT ISZERO PUSH2 0x1C11 JUMPI PUSH2 0x1C10 PUSH2 0x195A JUMP JUMPDEST JUMPDEST PUSH2 0x1C1D DUP6 DUP3 DUP7 ADD PUSH2 0x1B86 JUMP JUMPDEST SWAP3 POP SWAP3 POP POP SWAP3 POP SWAP3 SWAP1 POP JUMP JUMPDEST PUSH2 0x1C32 DUP2 PUSH2 0x197F JUMP JUMPDEST DUP3 MSTORE POP POP JUMP JUMPDEST PUSH1 0x0 PUSH1 0x20 DUP3 ADD SWAP1 POP PUSH2 0x1C4D PUSH1 0x0 DUP4 ADD DUP5 PUSH2 0x1C29 JUMP JUMPDEST SWAP3 SWAP2 POP POP JUMP JUMPDEST PUSH1 0x0 PUSH1 0x60 DUP3 ADD SWAP1 POP PUSH2 0x1C68 PUSH1 0x0 DUP4 ADD DUP7 PUSH2 0x1C29 JUMP JUMPDEST DUP2 DUP2 SUB PUSH1 0x20 DUP4 ADD MSTORE PUSH2 0x1C7A DUP2 DUP6 PUSH2 0x18FA JUMP JUMPDEST SWAP1 POP PUSH2 0x1C89 PUSH1 0x40 DUP4 ADD DUP5 PUSH2 0x1A96 JUMP JUMPDEST SWAP5 SWAP4 POP POP POP POP JUMP JUMPDEST PUSH1 0x0 DUP1 PUSH1 0x40 DUP4 DUP6 SUB SLT ISZERO PUSH2 0x1CA8 JUMPI PUSH2 0x1CA7 PUSH2 0x1955 JUMP JUMPDEST JUMPDEST PUSH1 0x0 PUSH2 0x1CB6 DUP6 DUP3 DUP7 ADD PUSH2 0x19A8 JUMP JUMPDEST SWAP3 POP POP PUSH1 0x20 PUSH2 0x1CC7 DUP6 DUP3 DUP7 ADD PUSH2 0x19A8 JUMP JUMPDEST SWAP2 POP POP SWAP3 POP SWAP3 SWAP1 POP JUMP JUMPDEST PUSH32 0x4E487B7100000000000000000000000000000000000000000000000000000000 PUSH1 0x0 MSTORE PUSH1 0x22 PUSH1 0x4 MSTORE PUSH1 0x24 PUSH1 0x0 REVERT JUMPDEST PUSH1 0x0 PUSH1 0x2 DUP3 DIV SWAP1 POP PUSH1 0x1 DUP3 AND DUP1 PUSH2 0x1D18 JUMPI PUSH1 0x7F DUP3 AND SWAP2 POP JUMPDEST PUSH1 0x20 DUP3 LT DUP2 SUB PUSH2 0x1D2B JUMPI PUSH2 0x1D2A PUSH2 0x1CD1 JUMP JUMPDEST JUMPDEST POP SWAP2 SWAP1 POP JUMP JUMPDEST PUSH32 0x4D6178696D756D20617070726F76616C206F6620310000000000000000000000 PUSH1 0x0 DUP3 ADD MSTORE POP JUMP JUMPDEST PUSH1 0x0 PUSH2 0x1D67 PUSH1 0x15 DUP4 PUSH2 0x18AE JUMP JUMPDEST SWAP2 POP PUSH2 0x1D72 DUP3 PUSH2 0x1D31 JUMP JUMPDEST PUSH1 0x20 DUP3 ADD SWAP1 POP SWAP2 SWAP1 POP JUMP JUMPDEST PUSH1 0x0 PUSH1 0x20 DUP3 ADD SWAP1 POP DUP2 DUP2 SUB PUSH1 0x0 DUP4 ADD MSTORE PUSH2 0x1D96 DUP2 PUSH2 0x1D5A JUMP JUMPDEST SWAP1 POP SWAP2 SWAP1 POP JUMP JUMPDEST PUSH32 0x4D6178696D756D207472616E73666572206F6620302E31000000000000000000 PUSH1 0x0 DUP3 ADD MSTORE POP JUMP JUMPDEST PUSH1 0x0 PUSH2 0x1DD3 PUSH1 0x17 DUP4 PUSH2 0x18AE JUMP JUMPDEST SWAP2 POP PUSH2 0x1DDE DUP3 PUSH2 0x1D9D JUMP JUMPDEST PUSH1 0x20 DUP3 ADD SWAP1 POP SWAP2 SWAP1 POP JUMP JUMPDEST PUSH1 0x0 PUSH1 0x20 DUP3 ADD SWAP1 POP DUP2 DUP2 SUB PUSH1 0x0 DUP4 ADD MSTORE PUSH2 0x1E02 DUP2 PUSH2 0x1DC6 JUMP JUMPDEST SWAP1 POP SWAP2 SWAP1 POP JUMP JUMPDEST PUSH32 0x4E487B7100000000000000000000000000000000000000000000000000000000 PUSH1 0x0 MSTORE PUSH1 0x11 PUSH1 0x4 MSTORE PUSH1 0x24 PUSH1 0x0 REVERT JUMPDEST PUSH1 0x0 PUSH2 0x1E43 DUP3 PUSH2 0x19BD JUMP JUMPDEST SWAP2 POP PUSH2 0x1E4E DUP4 PUSH2 0x19BD JUMP JUMPDEST SWAP3 POP DUP3 DUP3 SUB SWAP1 POP DUP2 DUP2 GT ISZERO PUSH2 0x1E66 JUMPI PUSH2 0x1E65 PUSH2 0x1E09 JUMP JUMPDEST JUMPDEST SWAP3 SWAP2 POP POP JUMP JUMPDEST PUSH1 0x0 PUSH2 0x1E77 DUP3 PUSH2 0x19BD JUMP JUMPDEST SWAP2 POP PUSH2 0x1E82 DUP4 PUSH2 0x19BD JUMP JUMPDEST SWAP3 POP DUP3 DUP3 ADD SWAP1 POP DUP1 DUP3 GT ISZERO PUSH2 0x1E9A JUMPI PUSH2 0x1E99 PUSH2 0x1E09 JUMP JUMPDEST JUMPDEST SWAP3 SWAP2 POP POP JUMP JUMPDEST PUSH1 0x0 DUP3 SWAP1 POP SWAP3 SWAP2 POP POP JUMP JUMPDEST PUSH32 0x4E487B7100000000000000000000000000000000000000000000000000000000 PUSH1 0x0 MSTORE PUSH1 0x41 PUSH1 0x4 MSTORE PUSH1 0x24 PUSH1 0x0 REVERT JUMPDEST PUSH1 0x0 DUP2 SWAP1 POP DUP2 PUSH1 0x0 MSTORE PUSH1 0x20 PUSH1 0x0 KECCAK256 SWAP1 POP SWAP2 SWAP1 POP JUMP JUMPDEST PUSH1 0x0 PUSH1 0x20 PUSH1 0x1F DUP4 ADD DIV SWAP1 POP SWAP2 SWAP1 POP JUMP JUMPDEST PUSH1 0x0 DUP3 DUP3 SHL SWAP1 POP SWAP3 SWAP2 POP POP JUMP JUMPDEST PUSH1 0x0 PUSH1 0x8 DUP4 MUL PUSH2 0x1F3C PUSH32 0xFFFFFFFFFFFFFFFFFFFFFFFFFFFFFFFFFFFFFFFFFFFFFFFFFFFFFFFFFFFFFFFF DUP3 PUSH2 0x1EFF JUMP JUMPDEST PUSH2 0x1F46 DUP7 DUP4 PUSH2 0x1EFF JUMP JUMPDEST SWAP6 POP DUP1 NOT DUP5 AND SWAP4 POP DUP1 DUP7 AND DUP5 OR SWAP3 POP POP POP SWAP4 SWAP3 POP POP POP JUMP JUMPDEST PUSH1 0x0 DUP2 SWAP1 POP SWAP2 SWAP1 POP JUMP JUMPDEST PUSH1 0x0 PUSH2 0x1F83 PUSH2 0x1F7E PUSH2 0x1F79 DUP5 PUSH2 0x19BD JUMP JUMPDEST PUSH2 0x1F5E JUMP JUMPDEST PUSH2 0x19BD JUMP JUMPDEST SWAP1 POP SWAP2 SWAP1 POP JUMP JUMPDEST PUSH1 0x0 DUP2 SWAP1 POP SWAP2 SWAP1 POP JUMP JUMPDEST PUSH2 0x1F9D DUP4 PUSH2 0x1F68 JUMP JUMPDEST PUSH2 0x1FB1 PUSH2 0x1FA9 DUP3 PUSH2 0x1F8A JUMP JUMPDEST DUP5 DUP5 SLOAD PUSH2 0x1F0C JUMP JUMPDEST DUP3 SSTORE POP POP POP POP JUMP JUMPDEST PUSH1 0x0 SWAP1 JUMP JUMPDEST PUSH2 0x1FC6 PUSH2 0x1FB9 JUMP JUMPDEST PUSH2 0x1FD1 DUP2 DUP5 DUP5 PUSH2 0x1F94 JUMP JUMPDEST POP POP POP JUMP JUMPDEST JUMPDEST DUP2 DUP2 LT ISZERO PUSH2 0x1FF5 JUMPI PUSH2 0x1FEA PUSH1 0x0 DUP3 PUSH2 0x1FBE JUMP JUMPDEST PUSH1 0x1 DUP2 ADD SWAP1 POP PUSH2 0x1FD7 JUMP JUMPDEST POP POP JUMP JUMPDEST PUSH1 0x1F DUP3 GT ISZERO PUSH2 0x203A JUMPI PUSH2 0x200B DUP2 PUSH2 0x1EDA JUMP JUMPDEST PUSH2 0x2014 DUP5 PUSH2 0x1EEF JUMP JUMPDEST DUP2 ADD PUSH1 0x20 DUP6 LT ISZERO PUSH2 0x2023 JUMPI DUP2 SWAP1 POP JUMPDEST PUSH2 0x2037 PUSH2 0x202F DUP6 PUSH2 0x1EEF JUMP JUMPDEST DUP4 ADD DUP3 PUSH2 0x1FD6 JUMP JUMPDEST POP POP JUMPDEST POP POP POP JUMP JUMPDEST PUSH1 0x0 DUP3 DUP3 SHR SWAP1 POP SWAP3 SWAP2 POP POP JUMP JUMPDEST PUSH1 0x0 PUSH2 0x205D PUSH1 0x0 NOT DUP5 PUSH1 0x8 MUL PUSH2 0x203F JUMP JUMPDEST NOT DUP1 DUP4 AND SWAP2 POP POP SWAP3 SWAP2 POP POP JUMP JUMPDEST PUSH1 0x0 PUSH2 0x2076 DUP4 DUP4 PUSH2 0x204C JUMP JUMPDEST SWAP2 POP DUP3 PUSH1 0x2 MUL DUP3 OR SWAP1 POP SWAP3 SWAP2 POP POP JUMP JUMPDEST PUSH2 0x2090 DUP4 DUP4 PUSH2 0x1EA0 JUMP JUMPDEST PUSH8 0xFFFFFFFFFFFFFFFF DUP2 GT ISZERO PUSH2 0x20A9 JUMPI PUSH2 0x20A8 PUSH2 0x1EAB JUMP JUMPDEST JUMPDEST PUSH2 0x20B3 DUP3 SLOAD PUSH2 0x1D00 JUMP JUMPDEST PUSH2 0x20BE DUP3 DUP3 DUP6 PUSH2 0x1FF9 JUMP JUMPDEST PUSH1 0x0 PUSH1 0x1F DUP4 GT PUSH1 0x1 DUP2 EQ PUSH2 0x20ED JUMPI PUSH1 0x0 DUP5 ISZERO PUSH2 0x20DB JUMPI DUP3 DUP8 ADD CALLDATALOAD SWAP1 POP JUMPDEST PUSH2 0x20E5 DUP6 DUP3 PUSH2 0x206A JUMP JUMPDEST DUP7 SSTORE POP PUSH2 0x214D JUMP JUMPDEST PUSH1 0x1F NOT DUP5 AND PUSH2 0x20FB DUP7 PUSH2 0x1EDA JUMP JUMPDEST PUSH1 0x0 JUMPDEST DUP3 DUP2 LT ISZERO PUSH2 0x2123 JUMPI DUP5 DUP10 ADD CALLDATALOAD DUP3 SSTORE PUSH1 0x1 DUP3 ADD SWAP2 POP PUSH1 0x20 DUP6 ADD SWAP5 POP PUSH1 0x20 DUP2 ADD SWAP1 POP PUSH2 0x20FE JUMP JUMPDEST DUP7 DUP4 LT ISZERO PUSH2 0x2140 JUMPI DUP5 DUP10 ADD CALLDATALOAD PUSH2 0x213C PUSH1 0x1F DUP10 AND DUP3 PUSH2 0x204C JUMP JUMPDEST DUP4 SSTORE POP JUMPDEST PUSH1 0x1 PUSH1 0x2 DUP9 MUL ADD DUP9 SSTORE POP POP POP JUMPDEST POP POP POP POP POP POP POP JUMP JUMPDEST PUSH1 0x0 PUSH2 0x2161 DUP3 PUSH2 0x1B13 JUMP JUMPDEST SWAP2 POP PUSH1 0xFF DUP3 SUB PUSH2 0x2174 JUMPI PUSH2 0x2173 PUSH2 0x1E09 JUMP JUMPDEST JUMPDEST PUSH1 0x1 DUP3 ADD SWAP1 POP SWAP2 SWAP1 POP JUMP JUMPDEST PUSH32 0x4E487B7100000000000000000000000000000000000000000000000000000000 PUSH1 0x0 MSTORE PUSH1 0x32 PUSH1 0x4 MSTORE PUSH1 0x24 PUSH1 0x0 REVERT JUMPDEST PUSH2 0x21B7 DUP3 PUSH2 0x18A3 JUMP JUMPDEST PUSH8 0xFFFFFFFFFFFFFFFF DUP2 GT ISZERO PUSH2 0x21D0 JUMPI PUSH2 0x21CF PUSH2 0x1EAB JUMP JUMPDEST JUMPDEST PUSH2 0x21DA DUP3 SLOAD PUSH2 0x1D00 JUMP JUMPDEST PUSH2 0x21E5 DUP3 DUP3 DUP6 PUSH2 0x1FF9 JUMP JUMPDEST PUSH1 0x0 PUSH1 0x20 SWAP1 POP PUSH1 0x1F DUP4 GT PUSH1 0x1 DUP2 EQ PUSH2 0x2218 JUMPI PUSH1 0x0 DUP5 ISZERO PUSH2 0x2206 JUMPI DUP3 DUP8 ADD MLOAD SWAP1 POP JUMPDEST PUSH2 0x2210 DUP6 DUP3 PUSH2 0x206A JUMP JUMPDEST DUP7 SSTORE POP PUSH2 0x2278 JUMP JUMPDEST PUSH1 0x1F NOT DUP5 AND PUSH2 0x2226 DUP7 PUSH2 0x1EDA JUMP JUMPDEST PUSH1 0x0 JUMPDEST DUP3 DUP2 LT ISZERO PUSH2 0x224E JUMPI DUP5 DUP10 ADD MLOAD DUP3 SSTORE PUSH1 0x1 DUP3 ADD SWAP2 POP PUSH1 0x20 DUP6 ADD SWAP5 POP PUSH1 0x20 DUP2 ADD SWAP1 POP PUSH2 0x2229 JUMP JUMPDEST DUP7 DUP4 LT ISZERO PUSH2 0x226B JUMPI DUP5 DUP10 ADD MLOAD PUSH2 0x2267 PUSH1 0x1F DUP10 AND DUP3 PUSH2 0x204C JUMP JUMPDEST DUP4 SSTORE POP JUMPDEST PUSH1 0x1 PUSH1 0x2 DUP9 MUL ADD DUP9 SSTORE POP POP POP JUMPDEST POP POP POP POP POP POP JUMP JUMPDEST PUSH1 0x0 PUSH2 0x228B DUP3 PUSH2 0x1B13 JUMP JUMPDEST SWAP2 POP PUSH1 0x0 DUP3 SUB PUSH2 0x229E JUMPI PUSH2 0x229D PUSH2 0x1E09 JUMP JUMPDEST JUMPDEST PUSH1 0x1 DUP3 SUB SWAP1 POP SWAP2 SWAP1 POP JUMP INVALID LOG2 PUSH5 0x6970667358 0x22 SLT KECCAK256 0xB1 0xEA SWAP14 0xC4 0xB4 PUSH6 0x208C794D0E42 PUSH28 0xC57CFE93AD0F3D26784E840B1860410EF29F1F64736F6C6343000811 STOP CALLER "},"gasEstimates":{"creation":{"codeDepositCost":"1785400","executionCost":"infinite","totalCost":"infinite"},"external":{"allUsers(uint256)":"4978","allowance(address,address)":"infinite","approve(address,uint256)":"infinite","balanceOf(address)":"2837","burn(uint256)":"infinite","decimals()":"2516","leaders(uint256)":"infinite","mint(uint256)":"infinite","name()":"infinite","numberOfUsers()":"2516","personName(address)":"infinite","setName(string)":"infinite","setPersonName(string)":"infinite","setStartDate()":"24625","startDate(address)":"2925","symbol()":"infinite","totalSupply()":"2519","transfer(address,uint256)":"infinite","transferFrom(address,address,uint256)":"infinite"},"internal":{"downgradeLeader(uint256,address)":"infinite","updateLeaderBoard(uint256,address)":"infinite"}},"methodIdentifiers":{"allUsers(uint256)":"a2bdedf4","allowance(address,address)":"dd62ed3e","approve(address,uint256)":"095ea7b3","balanceOf(address)":"70a08231","burn(uint256)":"42966c68","decimals()":"313ce567","leaders(uint256)":"a36e6577","mint(uint256)":"a0712d68","name()":"06fdde03","numberOfUsers()":"75ce46a7","personName(address)":"0b755556","setName(string)":"c47f0027","setPersonName(string)":"4e863271","setStartDate()":"7c69710f","startDate(address)":"50702ec9","symbol()":"95d89b41","totalSupply()":"18160ddd","transfer(address,uint256)":"a9059cbb","transferFrom(address,address,uint256)":"23b872dd"}},"storageLayout":{"storage":[{"astId":72,"contract":"wmbFit.sol:wmbFit","label":"totalSupply","offset":0,"slot":"0","type":"t_uint256"},{"astId":76,"contract":"wmbFit.sol:wmbFit","label":"balanceOf","offset":0,"slot":"1","type":"t_mapping(t_address,t_uint256)"},{"astId":82,"contract":"wmbFit.sol:wmbFit","label":"allowance","offset":0,"slot":"2","type":"t_mapping(t_address,t_mapping(t_address,t_uint256))"},{"astId":85,"contract":"wmbFit.sol:wmbFit","label":"name","offset":0,"slot":"3","type":"t_string_storage"},{"astId":88,"contract":"wmbFit.sol:wmbFit","label":"symbol","offset":0,"slot":"4","type":"t_string_storage"},{"astId":91,"contract":"wmbFit.sol:wmbFit","label":"decimals","offset":0,"slot":"5","type":"t_uint8"},{"astId":95,"contract":"wmbFit.sol:wmbFit","label":"startDate","offset":0,"slot":"6","type":"t_mapping(t_address,t_uint256)"},{"astId":98,"contract":"wmbFit.sol:wmbFit","label":"numberOfUsers","offset":0,"slot":"7","type":"t_uint8"},{"astId":101,"contract":"wmbFit.sol:wmbFit","label":"allUsers","offset":0,"slot":"8","type":"t_array(t_address)dyn_storage"},{"astId":105,"contract":"wmbFit.sol:wmbFit","label":"personName","offset":0,"slot":"9","type":"t_mapping(t_address,t_string_storage)"},{"astId":117,"contract":"wmbFit.sol:wmbFit","label":"leaders","offset":0,"slot":"10","type":"t_array(t_struct(scores)112_storage)10_storage"}],"types":{"t_address":{"encoding":"inplace","label":"address","numberOfBytes":"20"},"t_array(t_address)dyn_storage":{"base":"t_address","encoding":"dynamic_array","label":"address[]","numberOfBytes":"32"},"t_array(t_struct(scores)112_storage)10_storage":{"base":"t_struct(scores)112_storage","encoding":"inplace","label":"struct wmbFit.scores[10]","numberOfBytes":"960"},"t_mapping(t_address,t_mapping(t_address,t_uint256))":{"encoding":"mapping","key":"t_address","label":"mapping(address => mapping(address => uint256))","numberOfBytes":"32","value":"t_mapping(t_address,t_uint256)"},"t_mapping(t_address,t_string_storage)":{"encoding":"mapping","key":"t_address","label":"mapping(address => string)","numberOfBytes":"32","value":"t_string_storage"},"t_mapping(t_address,t_uint256)":{"encoding":"mapping","key":"t_address","label":"mapping(address => uint256)","numberOfBytes":"32","value":"t_uint256"},"t_string_storage":{"encoding":"bytes","label":"string","numberOfBytes":"32"},"t_struct(scores)112_storage":{"encoding":"inplace","label":"struct wmbFit.scores","members":[{"astId":107,"contract":"wmbFit.sol:wmbFit","label":"accountAddress","offset":0,"slot":"0","type":"t_address"},{"astId":109,"contract":"wmbFit.sol:wmbFit","label":"accountName","offset":0,"slot":"1","type":"t_string_storage"},{"astId":111,"contract":"wmbFit.sol:wmbFit","label":"distance","offset":0,"slot":"2","type":"t_uint256"}],"numberOfBytes":"96"},"t_uint256":{"encoding":"inplace","label":"uint256","numberOfBytes":"32"},"t_uint8":{"encoding":"inplace","label":"uint8","numberOfBytes":"1"}}},"userdoc":{"kind":"user","methods":{},"version":1}}