{"abi":[{"anonymous":false,"inputs":[{"indexed":true,"internalType":"address","name":"owner","type":"address"},{"indexed":true,"internalType":"address","name":"spender","type":"address"},{"indexed":false,"internalType":"uint256","name":"amount","type":"uint256"}],"name":"Approval","type":"event"},{"anonymous":false,"inputs":[{"indexed":true,"internalType":"address","name":"from","type":"address"},{"indexed":true,"internalType":"address","name":"to","type":"address"},{"indexed":false,"internalType":"uint256","name":"amount","type":"uint256"}],"name":"Transfer","type":"event"},{"inputs":[{"internalType":"address","name":"","type":"address"},{"internalType":"address","name":"","type":"address"}],"name":"allowance","outputs":[{"internalType":"uint256","name":"","type":"uint256"}],"stateMutability":"view","type":"function"},{"inputs":[{"internalType":"address","name":"spender","type":"address"},{"internalType":"uint256","name":"amount","type":"uint256"}],"name":"approve","outputs":[{"internalType":"bool","name":"","type":"bool"}],"stateMutability":"nonpayable","type":"function"},{"inputs":[{"internalType":"address","name":"","type":"address"}],"name":"balanceOf","outputs":[{"internalType":"uint256","name":"","type":"uint256"}],"stateMutability":"view","type":"function"},{"inputs":[{"internalType":"uint256","name":"amount","type":"uint256"}],"name":"burn","outputs":[],"stateMutability":"nonpayable","type":"function"},{"inputs":[],"name":"decimals","outputs":[{"internalType":"uint8","name":"","type":"uint8"}],"stateMutability":"view","type":"function"},{"inputs":[{"internalType":"uint256","name":"","type":"uint256"}],"name":"leaders","outputs":[{"internalType":"address","name":"accountAddress","type":"address"},{"internalType":"string","name":"accountName","type":"string"},{"internalType":"uint256","name":"distance","type":"uint256"}],"stateMutability":"view","type":"function"},{"inputs":[{"internalType":"uint256","name":"amount","type":"uint256"}],"name":"mint","outputs":[],"stateMutability":"nonpayable","type":"function"},{"inputs":[],"name":"name","outputs":[{"internalType":"string","name":"","type":"string"}],"stateMutability":"view","type":"function"},{"inputs":[{"internalType":"address","name":"","type":"address"}],"name":"personName","outputs":[{"internalType":"string","name":"","type":"string"}],"stateMutability":"view","type":"function"},{"inputs":[{"internalType":"string","name":"Pname","type":"string"}],"name":"setName","outputs":[],"stateMutability":"nonpayable","type":"function"},{"inputs":[{"internalType":"string","name":"person","type":"string"}],"name":"setPersonName","outputs":[],"stateMutability":"nonpayable","type":"function"},{"inputs":[],"name":"setStartDate","outputs":[],"stateMutability":"nonpayable","type":"function"},{"inputs":[{"internalType":"address","name":"","type":"address"}],"name":"startDate","outputs":[{"internalType":"uint256","name":"","type":"uint256"}],"stateMutability":"view","type":"function"},{"inputs":[],"name":"symbol","outputs":[{"internalType":"string","name":"","type":"string"}],"stateMutability":"view","type":"function"},{"inputs":[],"name":"totalSupply","outputs":[{"internalType":"uint256","name":"","type":"uint256"}],"stateMutability":"view","type":"function"},{"inputs":[{"internalType":"address","name":"recipient","type":"address"},{"internalType":"uint256","name":"amount","type":"uint256"}],"name":"transfer","outputs":[{"internalType":"bool","name":"","type":"bool"}],"stateMutability":"nonpayable","type":"function"},{"inputs":[{"internalType":"address","name":"sender","type":"address"},{"internalType":"address","name":"recipient","type":"address"},{"internalType":"uint256","name":"amount","type":"uint256"}],"name":"transferFrom","outputs":[{"internalType":"bool","name":"","type":"bool"}],"stateMutability":"nonpayable","type":"function"}],"devdoc":{"kind":"dev","methods":{},"version":1},"evm":{"assembly":"    /* \"wmbToken.sol\":1231:4713  contract wmbToken is IERC20 {... */\n  mstore(0x40, 0x80)\n    /* \"wmbToken.sol\":1412:1443  string public name = \"WMBWalks\" */\n  mload(0x40)\n  dup1\n  0x40\n  add\n  0x40\n  mstore\n  dup1\n  0x08\n  dup2\n  mstore\n  0x20\n  add\n  0x574d4257616c6b73000000000000000000000000000000000000000000000000\n  dup2\n  mstore\n  pop\n  0x03\n  swap1\n  dup2\n  tag_1\n  swap2\n  swap1\n  tag_2\n  jump\t// in\ntag_1:\n  pop\n    /* \"wmbToken.sol\":1450:1478  string public symbol = \"WMB\" */\n  mload(0x40)\n  dup1\n  0x40\n  add\n  0x40\n  mstore\n  dup1\n  0x03\n  dup2\n  mstore\n  0x20\n  add\n  0x574d420000000000000000000000000000000000000000000000000000000000\n  dup2\n  mstore\n  pop\n  0x04\n  swap1\n  dup2\n  tag_3\n  swap2\n  swap1\n  tag_2\n  jump\t// in\ntag_3:\n  pop\n    /* \"wmbToken.sol\":1509:1510  2 */\n  0x02\n    /* \"wmbToken.sol\":1485:1510  uint8 public decimals = 2 */\n  0x05\n  exp(0x0100, 0x00)\n  dup2\n  sload\n  dup2\n  0xff\n  mul\n  not\n  and\n  swap1\n  dup4\n  0xff\n  and\n  mul\n  or\n  swap1\n  sstore\n  pop\n    /* \"wmbToken.sol\":1231:4713  contract wmbToken is IERC20 {... */\n  callvalue\n  dup1\n  iszero\n  tag_4\n  jumpi\n  0x00\n  dup1\n  revert\ntag_4:\n  pop\n  jump(tag_5)\n    /* \"#utility.yul\":7:106   */\ntag_6:\n    /* \"#utility.yul\":59:65   */\n  0x00\n    /* \"#utility.yul\":93:98   */\n  dup2\n    /* \"#utility.yul\":87:99   */\n  mload\n    /* \"#utility.yul\":77:99   */\n  swap1\n  pop\n    /* \"#utility.yul\":7:106   */\n  swap2\n  swap1\n  pop\n  jump\t// out\n    /* \"#utility.yul\":112:292   */\ntag_7:\n    /* \"#utility.yul\":160:237   */\n  0x4e487b7100000000000000000000000000000000000000000000000000000000\n    /* \"#utility.yul\":157:158   */\n  0x00\n    /* \"#utility.yul\":150:238   */\n  mstore\n    /* \"#utility.yul\":257:261   */\n  0x41\n    /* \"#utility.yul\":254:255   */\n  0x04\n    /* \"#utility.yul\":247:262   */\n  mstore\n    /* \"#utility.yul\":281:285   */\n  0x24\n    /* \"#utility.yul\":278:279   */\n  0x00\n    /* \"#utility.yul\":271:286   */\n  revert\n    /* \"#utility.yul\":298:478   */\ntag_8:\n    /* \"#utility.yul\":346:423   */\n  0x4e487b7100000000000000000000000000000000000000000000000000000000\n    /* \"#utility.yul\":343:344   */\n  0x00\n    /* \"#utility.yul\":336:424   */\n  mstore\n    /* \"#utility.yul\":443:447   */\n  0x22\n    /* \"#utility.yul\":440:441   */\n  0x04\n    /* \"#utility.yul\":433:448   */\n  mstore\n    /* \"#utility.yul\":467:471   */\n  0x24\n    /* \"#utility.yul\":464:465   */\n  0x00\n    /* \"#utility.yul\":457:472   */\n  revert\n    /* \"#utility.yul\":484:804   */\ntag_9:\n    /* \"#utility.yul\":528:534   */\n  0x00\n    /* \"#utility.yul\":565:566   */\n  0x02\n    /* \"#utility.yul\":559:563   */\n  dup3\n    /* \"#utility.yul\":555:567   */\n  div\n    /* \"#utility.yul\":545:567   */\n  swap1\n  pop\n    /* \"#utility.yul\":612:613   */\n  0x01\n    /* \"#utility.yul\":606:610   */\n  dup3\n    /* \"#utility.yul\":602:614   */\n  and\n    /* \"#utility.yul\":633:651   */\n  dup1\n    /* \"#utility.yul\":623:704   */\n  tag_31\n  jumpi\n    /* \"#utility.yul\":689:693   */\n  0x7f\n    /* \"#utility.yul\":681:687   */\n  dup3\n    /* \"#utility.yul\":677:694   */\n  and\n    /* \"#utility.yul\":667:694   */\n  swap2\n  pop\n    /* \"#utility.yul\":623:704   */\ntag_31:\n    /* \"#utility.yul\":751:753   */\n  0x20\n    /* \"#utility.yul\":743:749   */\n  dup3\n    /* \"#utility.yul\":740:754   */\n  lt\n    /* \"#utility.yul\":720:738   */\n  dup2\n    /* \"#utility.yul\":717:755   */\n  sub\n    /* \"#utility.yul\":714:798   */\n  tag_32\n  jumpi\n    /* \"#utility.yul\":770:788   */\n  tag_33\n  tag_8\n  jump\t// in\ntag_33:\n    /* \"#utility.yul\":714:798   */\ntag_32:\n    /* \"#utility.yul\":535:804   */\n  pop\n    /* \"#utility.yul\":484:804   */\n  swap2\n  swap1\n  pop\n  jump\t// out\n    /* \"#utility.yul\":810:951   */\ntag_10:\n    /* \"#utility.yul\":859:863   */\n  0x00\n    /* \"#utility.yul\":882:885   */\n  dup2\n    /* \"#utility.yul\":874:885   */\n  swap1\n  pop\n    /* \"#utility.yul\":905:908   */\n  dup2\n    /* \"#utility.yul\":902:903   */\n  0x00\n    /* \"#utility.yul\":895:909   */\n  mstore\n    /* \"#utility.yul\":939:943   */\n  0x20\n    /* \"#utility.yul\":936:937   */\n  0x00\n    /* \"#utility.yul\":926:944   */\n  keccak256\n    /* \"#utility.yul\":918:944   */\n  swap1\n  pop\n    /* \"#utility.yul\":810:951   */\n  swap2\n  swap1\n  pop\n  jump\t// out\n    /* \"#utility.yul\":957:1050   */\ntag_11:\n    /* \"#utility.yul\":994:1000   */\n  0x00\n    /* \"#utility.yul\":1041:1043   */\n  0x20\n    /* \"#utility.yul\":1036:1038   */\n  0x1f\n    /* \"#utility.yul\":1029:1034   */\n  dup4\n    /* \"#utility.yul\":1025:1039   */\n  add\n    /* \"#utility.yul\":1021:1044   */\n  div\n    /* \"#utility.yul\":1011:1044   */\n  swap1\n  pop\n    /* \"#utility.yul\":957:1050   */\n  swap2\n  swap1\n  pop\n  jump\t// out\n    /* \"#utility.yul\":1056:1163   */\ntag_12:\n    /* \"#utility.yul\":1100:1108   */\n  0x00\n    /* \"#utility.yul\":1150:1155   */\n  dup3\n    /* \"#utility.yul\":1144:1148   */\n  dup3\n    /* \"#utility.yul\":1140:1156   */\n  shl\n    /* \"#utility.yul\":1119:1156   */\n  swap1\n  pop\n    /* \"#utility.yul\":1056:1163   */\n  swap3\n  swap2\n  pop\n  pop\n  jump\t// out\n    /* \"#utility.yul\":1169:1562   */\ntag_13:\n    /* \"#utility.yul\":1238:1244   */\n  0x00\n    /* \"#utility.yul\":1288:1289   */\n  0x08\n    /* \"#utility.yul\":1276:1286   */\n  dup4\n    /* \"#utility.yul\":1272:1290   */\n  mul\n    /* \"#utility.yul\":1311:1408   */\n  tag_38\n    /* \"#utility.yul\":1341:1407   */\n  0xffffffffffffffffffffffffffffffffffffffffffffffffffffffffffffffff\n    /* \"#utility.yul\":1330:1339   */\n  dup3\n    /* \"#utility.yul\":1311:1408   */\n  tag_12\n  jump\t// in\ntag_38:\n    /* \"#utility.yul\":1429:1468   */\n  tag_39\n    /* \"#utility.yul\":1459:1467   */\n  dup7\n    /* \"#utility.yul\":1448:1457   */\n  dup4\n    /* \"#utility.yul\":1429:1468   */\n  tag_12\n  jump\t// in\ntag_39:\n    /* \"#utility.yul\":1417:1468   */\n  swap6\n  pop\n    /* \"#utility.yul\":1501:1505   */\n  dup1\n    /* \"#utility.yul\":1497:1506   */\n  not\n    /* \"#utility.yul\":1490:1495   */\n  dup5\n    /* \"#utility.yul\":1486:1507   */\n  and\n    /* \"#utility.yul\":1477:1507   */\n  swap4\n  pop\n    /* \"#utility.yul\":1550:1554   */\n  dup1\n    /* \"#utility.yul\":1540:1548   */\n  dup7\n    /* \"#utility.yul\":1536:1555   */\n  and\n    /* \"#utility.yul\":1529:1534   */\n  dup5\n    /* \"#utility.yul\":1526:1556   */\n  or\n    /* \"#utility.yul\":1516:1556   */\n  swap3\n  pop\n    /* \"#utility.yul\":1245:1562   */\n  pop\n  pop\n    /* \"#utility.yul\":1169:1562   */\n  swap4\n  swap3\n  pop\n  pop\n  pop\n  jump\t// out\n    /* \"#utility.yul\":1568:1645   */\ntag_14:\n    /* \"#utility.yul\":1605:1612   */\n  0x00\n    /* \"#utility.yul\":1634:1639   */\n  dup2\n    /* \"#utility.yul\":1623:1639   */\n  swap1\n  pop\n    /* \"#utility.yul\":1568:1645   */\n  swap2\n  swap1\n  pop\n  jump\t// out\n    /* \"#utility.yul\":1651:1711   */\ntag_15:\n    /* \"#utility.yul\":1679:1682   */\n  0x00\n    /* \"#utility.yul\":1700:1705   */\n  dup2\n    /* \"#utility.yul\":1693:1705   */\n  swap1\n  pop\n    /* \"#utility.yul\":1651:1711   */\n  swap2\n  swap1\n  pop\n  jump\t// out\n    /* \"#utility.yul\":1717:1859   */\ntag_16:\n    /* \"#utility.yul\":1767:1776   */\n  0x00\n    /* \"#utility.yul\":1800:1853   */\n  tag_43\n    /* \"#utility.yul\":1818:1852   */\n  tag_44\n    /* \"#utility.yul\":1827:1851   */\n  tag_45\n    /* \"#utility.yul\":1845:1850   */\n  dup5\n    /* \"#utility.yul\":1827:1851   */\n  tag_14\n  jump\t// in\ntag_45:\n    /* \"#utility.yul\":1818:1852   */\n  tag_15\n  jump\t// in\ntag_44:\n    /* \"#utility.yul\":1800:1853   */\n  tag_14\n  jump\t// in\ntag_43:\n    /* \"#utility.yul\":1787:1853   */\n  swap1\n  pop\n    /* \"#utility.yul\":1717:1859   */\n  swap2\n  swap1\n  pop\n  jump\t// out\n    /* \"#utility.yul\":1865:1940   */\ntag_17:\n    /* \"#utility.yul\":1908:1911   */\n  0x00\n    /* \"#utility.yul\":1929:1934   */\n  dup2\n    /* \"#utility.yul\":1922:1934   */\n  swap1\n  pop\n    /* \"#utility.yul\":1865:1940   */\n  swap2\n  swap1\n  pop\n  jump\t// out\n    /* \"#utility.yul\":1946:2215   */\ntag_18:\n    /* \"#utility.yul\":2056:2095   */\n  tag_48\n    /* \"#utility.yul\":2087:2094   */\n  dup4\n    /* \"#utility.yul\":2056:2095   */\n  tag_16\n  jump\t// in\ntag_48:\n    /* \"#utility.yul\":2117:2208   */\n  tag_49\n    /* \"#utility.yul\":2166:2207   */\n  tag_50\n    /* \"#utility.yul\":2190:2206   */\n  dup3\n    /* \"#utility.yul\":2166:2207   */\n  tag_17\n  jump\t// in\ntag_50:\n    /* \"#utility.yul\":2158:2164   */\n  dup5\n    /* \"#utility.yul\":2151:2155   */\n  dup5\n    /* \"#utility.yul\":2145:2156   */\n  sload\n    /* \"#utility.yul\":2117:2208   */\n  tag_13\n  jump\t// in\ntag_49:\n    /* \"#utility.yul\":2111:2115   */\n  dup3\n    /* \"#utility.yul\":2104:2209   */\n  sstore\n    /* \"#utility.yul\":2022:2215   */\n  pop\n    /* \"#utility.yul\":1946:2215   */\n  pop\n  pop\n  pop\n  jump\t// out\n    /* \"#utility.yul\":2221:2294   */\ntag_19:\n    /* \"#utility.yul\":2266:2269   */\n  0x00\n    /* \"#utility.yul\":2221:2294   */\n  swap1\n  jump\t// out\n    /* \"#utility.yul\":2300:2489   */\ntag_20:\n    /* \"#utility.yul\":2377:2409   */\n  tag_53\n  tag_19\n  jump\t// in\ntag_53:\n    /* \"#utility.yul\":2418:2483   */\n  tag_54\n    /* \"#utility.yul\":2476:2482   */\n  dup2\n    /* \"#utility.yul\":2468:2474   */\n  dup5\n    /* \"#utility.yul\":2462:2466   */\n  dup5\n    /* \"#utility.yul\":2418:2483   */\n  tag_18\n  jump\t// in\ntag_54:\n    /* \"#utility.yul\":2353:2489   */\n  pop\n    /* \"#utility.yul\":2300:2489   */\n  pop\n  pop\n  jump\t// out\n    /* \"#utility.yul\":2495:2681   */\ntag_21:\n    /* \"#utility.yul\":2555:2675   */\ntag_56:\n    /* \"#utility.yul\":2572:2575   */\n  dup2\n    /* \"#utility.yul\":2565:2570   */\n  dup2\n    /* \"#utility.yul\":2562:2576   */\n  lt\n    /* \"#utility.yul\":2555:2675   */\n  iszero\n  tag_58\n  jumpi\n    /* \"#utility.yul\":2626:2665   */\n  tag_59\n    /* \"#utility.yul\":2663:2664   */\n  0x00\n    /* \"#utility.yul\":2656:2661   */\n  dup3\n    /* \"#utility.yul\":2626:2665   */\n  tag_20\n  jump\t// in\ntag_59:\n    /* \"#utility.yul\":2599:2600   */\n  0x01\n    /* \"#utility.yul\":2592:2597   */\n  dup2\n    /* \"#utility.yul\":2588:2601   */\n  add\n    /* \"#utility.yul\":2579:2601   */\n  swap1\n  pop\n    /* \"#utility.yul\":2555:2675   */\n  jump(tag_56)\ntag_58:\n    /* \"#utility.yul\":2495:2681   */\n  pop\n  pop\n  jump\t// out\n    /* \"#utility.yul\":2687:3230   */\ntag_22:\n    /* \"#utility.yul\":2788:2790   */\n  0x1f\n    /* \"#utility.yul\":2783:2786   */\n  dup3\n    /* \"#utility.yul\":2780:2791   */\n  gt\n    /* \"#utility.yul\":2777:3223   */\n  iszero\n  tag_61\n  jumpi\n    /* \"#utility.yul\":2822:2860   */\n  tag_62\n    /* \"#utility.yul\":2854:2859   */\n  dup2\n    /* \"#utility.yul\":2822:2860   */\n  tag_10\n  jump\t// in\ntag_62:\n    /* \"#utility.yul\":2906:2935   */\n  tag_63\n    /* \"#utility.yul\":2924:2934   */\n  dup5\n    /* \"#utility.yul\":2906:2935   */\n  tag_11\n  jump\t// in\ntag_63:\n    /* \"#utility.yul\":2896:2904   */\n  dup2\n    /* \"#utility.yul\":2892:2936   */\n  add\n    /* \"#utility.yul\":3089:3091   */\n  0x20\n    /* \"#utility.yul\":3077:3087   */\n  dup6\n    /* \"#utility.yul\":3074:3092   */\n  lt\n    /* \"#utility.yul\":3071:3120   */\n  iszero\n  tag_64\n  jumpi\n    /* \"#utility.yul\":3110:3118   */\n  dup2\n    /* \"#utility.yul\":3095:3118   */\n  swap1\n  pop\n    /* \"#utility.yul\":3071:3120   */\ntag_64:\n    /* \"#utility.yul\":3133:3213   */\n  tag_65\n    /* \"#utility.yul\":3189:3211   */\n  tag_66\n    /* \"#utility.yul\":3207:3210   */\n  dup6\n    /* \"#utility.yul\":3189:3211   */\n  tag_11\n  jump\t// in\ntag_66:\n    /* \"#utility.yul\":3179:3187   */\n  dup4\n    /* \"#utility.yul\":3175:3212   */\n  add\n    /* \"#utility.yul\":3162:3173   */\n  dup3\n    /* \"#utility.yul\":3133:3213   */\n  tag_21\n  jump\t// in\ntag_65:\n    /* \"#utility.yul\":2792:3223   */\n  pop\n  pop\n    /* \"#utility.yul\":2777:3223   */\ntag_61:\n    /* \"#utility.yul\":2687:3230   */\n  pop\n  pop\n  pop\n  jump\t// out\n    /* \"#utility.yul\":3236:3353   */\ntag_23:\n    /* \"#utility.yul\":3290:3298   */\n  0x00\n    /* \"#utility.yul\":3340:3345   */\n  dup3\n    /* \"#utility.yul\":3334:3338   */\n  dup3\n    /* \"#utility.yul\":3330:3346   */\n  shr\n    /* \"#utility.yul\":3309:3346   */\n  swap1\n  pop\n    /* \"#utility.yul\":3236:3353   */\n  swap3\n  swap2\n  pop\n  pop\n  jump\t// out\n    /* \"#utility.yul\":3359:3528   */\ntag_24:\n    /* \"#utility.yul\":3403:3409   */\n  0x00\n    /* \"#utility.yul\":3436:3487   */\n  tag_69\n    /* \"#utility.yul\":3484:3485   */\n  0x00\n    /* \"#utility.yul\":3480:3486   */\n  not\n    /* \"#utility.yul\":3472:3477   */\n  dup5\n    /* \"#utility.yul\":3469:3470   */\n  0x08\n    /* \"#utility.yul\":3465:3478   */\n  mul\n    /* \"#utility.yul\":3436:3487   */\n  tag_23\n  jump\t// in\ntag_69:\n    /* \"#utility.yul\":3432:3488   */\n  not\n    /* \"#utility.yul\":3517:3521   */\n  dup1\n    /* \"#utility.yul\":3511:3515   */\n  dup4\n    /* \"#utility.yul\":3507:3522   */\n  and\n    /* \"#utility.yul\":3497:3522   */\n  swap2\n  pop\n    /* \"#utility.yul\":3410:3528   */\n  pop\n    /* \"#utility.yul\":3359:3528   */\n  swap3\n  swap2\n  pop\n  pop\n  jump\t// out\n    /* \"#utility.yul\":3533:3828   */\ntag_25:\n    /* \"#utility.yul\":3609:3613   */\n  0x00\n    /* \"#utility.yul\":3755:3784   */\n  tag_71\n    /* \"#utility.yul\":3780:3783   */\n  dup4\n    /* \"#utility.yul\":3774:3778   */\n  dup4\n    /* \"#utility.yul\":3755:3784   */\n  tag_24\n  jump\t// in\ntag_71:\n    /* \"#utility.yul\":3747:3784   */\n  swap2\n  pop\n    /* \"#utility.yul\":3817:3820   */\n  dup3\n    /* \"#utility.yul\":3814:3815   */\n  0x02\n    /* \"#utility.yul\":3810:3821   */\n  mul\n    /* \"#utility.yul\":3804:3808   */\n  dup3\n    /* \"#utility.yul\":3801:3822   */\n  or\n    /* \"#utility.yul\":3793:3822   */\n  swap1\n  pop\n    /* \"#utility.yul\":3533:3828   */\n  swap3\n  swap2\n  pop\n  pop\n  jump\t// out\n    /* \"#utility.yul\":3833:5228   */\ntag_2:\n    /* \"#utility.yul\":3950:3987   */\n  tag_73\n    /* \"#utility.yul\":3983:3986   */\n  dup3\n    /* \"#utility.yul\":3950:3987   */\n  tag_6\n  jump\t// in\ntag_73:\n    /* \"#utility.yul\":4052:4070   */\n  0xffffffffffffffff\n    /* \"#utility.yul\":4044:4050   */\n  dup2\n    /* \"#utility.yul\":4041:4071   */\n  gt\n    /* \"#utility.yul\":4038:4094   */\n  iszero\n  tag_74\n  jumpi\n    /* \"#utility.yul\":4074:4092   */\n  tag_75\n  tag_7\n  jump\t// in\ntag_75:\n    /* \"#utility.yul\":4038:4094   */\ntag_74:\n    /* \"#utility.yul\":4118:4156   */\n  tag_76\n    /* \"#utility.yul\":4150:4154   */\n  dup3\n    /* \"#utility.yul\":4144:4155   */\n  sload\n    /* \"#utility.yul\":4118:4156   */\n  tag_9\n  jump\t// in\ntag_76:\n    /* \"#utility.yul\":4203:4270   */\n  tag_77\n    /* \"#utility.yul\":4263:4269   */\n  dup3\n    /* \"#utility.yul\":4255:4261   */\n  dup3\n    /* \"#utility.yul\":4249:4253   */\n  dup6\n    /* \"#utility.yul\":4203:4270   */\n  tag_22\n  jump\t// in\ntag_77:\n    /* \"#utility.yul\":4297:4298   */\n  0x00\n    /* \"#utility.yul\":4321:4325   */\n  0x20\n    /* \"#utility.yul\":4308:4325   */\n  swap1\n  pop\n    /* \"#utility.yul\":4353:4355   */\n  0x1f\n    /* \"#utility.yul\":4345:4351   */\n  dup4\n    /* \"#utility.yul\":4342:4356   */\n  gt\n    /* \"#utility.yul\":4370:4371   */\n  0x01\n    /* \"#utility.yul\":4365:4983   */\n  dup2\n  eq\n  tag_79\n  jumpi\n    /* \"#utility.yul\":5027:5028   */\n  0x00\n    /* \"#utility.yul\":5044:5050   */\n  dup5\n    /* \"#utility.yul\":5041:5118   */\n  iszero\n  tag_80\n  jumpi\n    /* \"#utility.yul\":5093:5102   */\n  dup3\n    /* \"#utility.yul\":5088:5091   */\n  dup8\n    /* \"#utility.yul\":5084:5103   */\n  add\n    /* \"#utility.yul\":5078:5104   */\n  mload\n    /* \"#utility.yul\":5069:5104   */\n  swap1\n  pop\n    /* \"#utility.yul\":5041:5118   */\ntag_80:\n    /* \"#utility.yul\":5144:5211   */\n  tag_81\n    /* \"#utility.yul\":5204:5210   */\n  dup6\n    /* \"#utility.yul\":5197:5202   */\n  dup3\n    /* \"#utility.yul\":5144:5211   */\n  tag_25\n  jump\t// in\ntag_81:\n    /* \"#utility.yul\":5138:5142   */\n  dup7\n    /* \"#utility.yul\":5131:5212   */\n  sstore\n    /* \"#utility.yul\":5000:5222   */\n  pop\n    /* \"#utility.yul\":4335:5222   */\n  jump(tag_78)\n    /* \"#utility.yul\":4365:4983   */\ntag_79:\n    /* \"#utility.yul\":4417:4421   */\n  0x1f\n    /* \"#utility.yul\":4413:4422   */\n  not\n    /* \"#utility.yul\":4405:4411   */\n  dup5\n    /* \"#utility.yul\":4401:4423   */\n  and\n    /* \"#utility.yul\":4451:4488   */\n  tag_82\n    /* \"#utility.yul\":4483:4487   */\n  dup7\n    /* \"#utility.yul\":4451:4488   */\n  tag_10\n  jump\t// in\ntag_82:\n    /* \"#utility.yul\":4510:4511   */\n  0x00\n    /* \"#utility.yul\":4524:4732   */\ntag_83:\n    /* \"#utility.yul\":4538:4545   */\n  dup3\n    /* \"#utility.yul\":4535:4536   */\n  dup2\n    /* \"#utility.yul\":4532:4546   */\n  lt\n    /* \"#utility.yul\":4524:4732   */\n  iszero\n  tag_85\n  jumpi\n    /* \"#utility.yul\":4617:4626   */\n  dup5\n    /* \"#utility.yul\":4612:4615   */\n  dup10\n    /* \"#utility.yul\":4608:4627   */\n  add\n    /* \"#utility.yul\":4602:4628   */\n  mload\n    /* \"#utility.yul\":4594:4600   */\n  dup3\n    /* \"#utility.yul\":4587:4629   */\n  sstore\n    /* \"#utility.yul\":4668:4669   */\n  0x01\n    /* \"#utility.yul\":4660:4666   */\n  dup3\n    /* \"#utility.yul\":4656:4670   */\n  add\n    /* \"#utility.yul\":4646:4670   */\n  swap2\n  pop\n    /* \"#utility.yul\":4715:4717   */\n  0x20\n    /* \"#utility.yul\":4704:4713   */\n  dup6\n    /* \"#utility.yul\":4700:4718   */\n  add\n    /* \"#utility.yul\":4687:4718   */\n  swap5\n  pop\n    /* \"#utility.yul\":4561:4565   */\n  0x20\n    /* \"#utility.yul\":4558:4559   */\n  dup2\n    /* \"#utility.yul\":4554:4566   */\n  add\n    /* \"#utility.yul\":4549:4566   */\n  swap1\n  pop\n    /* \"#utility.yul\":4524:4732   */\n  jump(tag_83)\ntag_85:\n    /* \"#utility.yul\":4760:4766   */\n  dup7\n    /* \"#utility.yul\":4751:4758   */\n  dup4\n    /* \"#utility.yul\":4748:4767   */\n  lt\n    /* \"#utility.yul\":4745:4924   */\n  iszero\n  tag_86\n  jumpi\n    /* \"#utility.yul\":4818:4827   */\n  dup5\n    /* \"#utility.yul\":4813:4816   */\n  dup10\n    /* \"#utility.yul\":4809:4828   */\n  add\n    /* \"#utility.yul\":4803:4829   */\n  mload\n    /* \"#utility.yul\":4861:4909   */\n  tag_87\n    /* \"#utility.yul\":4903:4907   */\n  0x1f\n    /* \"#utility.yul\":4895:4901   */\n  dup10\n    /* \"#utility.yul\":4891:4908   */\n  and\n    /* \"#utility.yul\":4880:4889   */\n  dup3\n    /* \"#utility.yul\":4861:4909   */\n  tag_24\n  jump\t// in\ntag_87:\n    /* \"#utility.yul\":4853:4859   */\n  dup4\n    /* \"#utility.yul\":4846:4910   */\n  sstore\n    /* \"#utility.yul\":4768:4924   */\n  pop\n    /* \"#utility.yul\":4745:4924   */\ntag_86:\n    /* \"#utility.yul\":4970:4971   */\n  0x01\n    /* \"#utility.yul\":4966:4967   */\n  0x02\n    /* \"#utility.yul\":4958:4964   */\n  dup9\n    /* \"#utility.yul\":4954:4968   */\n  mul\n    /* \"#utility.yul\":4950:4972   */\n  add\n    /* \"#utility.yul\":4944:4948   */\n  dup9\n    /* \"#utility.yul\":4937:4973   */\n  sstore\n    /* \"#utility.yul\":4372:4983   */\n  pop\n  pop\n  pop\n    /* \"#utility.yul\":4335:5222   */\ntag_78:\n  pop\n    /* \"#utility.yul\":3925:5228   */\n  pop\n  pop\n  pop\n    /* \"#utility.yul\":3833:5228   */\n  pop\n  pop\n  jump\t// out\n    /* \"wmbToken.sol\":1231:4713  contract wmbToken is IERC20 {... */\ntag_5:\n  dataSize(sub_0)\n  dup1\n  dataOffset(sub_0)\n  0x00\n  codecopy\n  0x00\n  return\nstop\n\nsub_0: assembly {\n        /* \"wmbToken.sol\":1231:4713  contract wmbToken is IERC20 {... */\n      mstore(0x40, 0x80)\n      callvalue\n      dup1\n      iszero\n      tag_1\n      jumpi\n      0x00\n      dup1\n      revert\n    tag_1:\n      pop\n      jumpi(tag_2, lt(calldatasize, 0x04))\n      shr(0xe0, calldataload(0x00))\n      dup1\n      0x50702ec9\n      gt\n      tag_20\n      jumpi\n      dup1\n      0xa0712d68\n      gt\n      tag_21\n      jumpi\n      dup1\n      0xa0712d68\n      eq\n      tag_15\n      jumpi\n      dup1\n      0xa36e6577\n      eq\n      tag_16\n      jumpi\n      dup1\n      0xa9059cbb\n      eq\n      tag_17\n      jumpi\n      dup1\n      0xc47f0027\n      eq\n      tag_18\n      jumpi\n      dup1\n      0xdd62ed3e\n      eq\n      tag_19\n      jumpi\n      jump(tag_2)\n    tag_21:\n      dup1\n      0x50702ec9\n      eq\n      tag_11\n      jumpi\n      dup1\n      0x70a08231\n      eq\n      tag_12\n      jumpi\n      dup1\n      0x7c69710f\n      eq\n      tag_13\n      jumpi\n      dup1\n      0x95d89b41\n      eq\n      tag_14\n      jumpi\n      jump(tag_2)\n    tag_20:\n      dup1\n      0x23b872dd\n      gt\n      tag_22\n      jumpi\n      dup1\n      0x23b872dd\n      eq\n      tag_7\n      jumpi\n      dup1\n      0x313ce567\n      eq\n      tag_8\n      jumpi\n      dup1\n      0x42966c68\n      eq\n      tag_9\n      jumpi\n      dup1\n      0x4e863271\n      eq\n      tag_10\n      jumpi\n      jump(tag_2)\n    tag_22:\n      dup1\n      0x06fdde03\n      eq\n      tag_3\n      jumpi\n      dup1\n      0x095ea7b3\n      eq\n      tag_4\n      jumpi\n      dup1\n      0x0b755556\n      eq\n      tag_5\n      jumpi\n      dup1\n      0x18160ddd\n      eq\n      tag_6\n      jumpi\n    tag_2:\n      0x00\n      dup1\n      revert\n        /* \"wmbToken.sol\":1412:1443  string public name = \"WMBWalks\" */\n    tag_3:\n      tag_23\n      tag_24\n      jump\t// in\n    tag_23:\n      mload(0x40)\n      tag_25\n      swap2\n      swap1\n      tag_26\n      jump\t// in\n    tag_25:\n      mload(0x40)\n      dup1\n      swap2\n      sub\n      swap1\n      return\n        /* \"wmbToken.sol\":2350:2623  function approve(address spender, uint amount) external returns (bool){... */\n    tag_4:\n      tag_27\n      0x04\n      dup1\n      calldatasize\n      sub\n      dup2\n      add\n      swap1\n      tag_28\n      swap2\n      swap1\n      tag_29\n      jump\t// in\n    tag_28:\n      tag_30\n      jump\t// in\n    tag_27:\n      mload(0x40)\n      tag_31\n      swap2\n      swap1\n      tag_32\n      jump\t// in\n    tag_31:\n      mload(0x40)\n      dup1\n      swap2\n      sub\n      swap1\n      return\n        /* \"wmbToken.sol\":1627:1671  mapping(address => string) public personName */\n    tag_5:\n      tag_33\n      0x04\n      dup1\n      calldatasize\n      sub\n      dup2\n      add\n      swap1\n      tag_34\n      swap2\n      swap1\n      tag_35\n      jump\t// in\n    tag_34:\n      tag_36\n      jump\t// in\n    tag_33:\n      mload(0x40)\n      tag_37\n      swap2\n      swap1\n      tag_26\n      jump\t// in\n    tag_37:\n      mload(0x40)\n      dup1\n      swap2\n      sub\n      swap1\n      return\n        /* \"wmbToken.sol\":1266:1289  uint public totalSupply */\n    tag_6:\n      tag_38\n      tag_39\n      jump\t// in\n    tag_38:\n      mload(0x40)\n      tag_40\n      swap2\n      swap1\n      tag_41\n      jump\t// in\n    tag_40:\n      mload(0x40)\n      dup1\n      swap2\n      sub\n      swap1\n      return\n        /* \"wmbToken.sol\":2746:3120  function transferFrom(address sender, address recipient, uint amount) external returns (bool){... */\n    tag_7:\n      tag_42\n      0x04\n      dup1\n      calldatasize\n      sub\n      dup2\n      add\n      swap1\n      tag_43\n      swap2\n      swap1\n      tag_44\n      jump\t// in\n    tag_43:\n      tag_45\n      jump\t// in\n    tag_42:\n      mload(0x40)\n      tag_46\n      swap2\n      swap1\n      tag_32\n      jump\t// in\n    tag_46:\n      mload(0x40)\n      dup1\n      swap2\n      sub\n      swap1\n      return\n        /* \"wmbToken.sol\":1485:1510  uint8 public decimals = 2 */\n    tag_8:\n      tag_47\n      tag_48\n      jump\t// in\n    tag_47:\n      mload(0x40)\n      tag_49\n      swap2\n      swap1\n      tag_50\n      jump\t// in\n    tag_49:\n      mload(0x40)\n      dup1\n      swap2\n      sub\n      swap1\n      return\n        /* \"wmbToken.sol\":4202:4376  function burn(uint amount) external {... */\n    tag_9:\n      tag_51\n      0x04\n      dup1\n      calldatasize\n      sub\n      dup2\n      add\n      swap1\n      tag_52\n      swap2\n      swap1\n      tag_53\n      jump\t// in\n    tag_52:\n      tag_54\n      jump\t// in\n    tag_51:\n      stop\n        /* \"wmbToken.sol\":2632:2738  function setPersonName(string calldata person) external {... */\n    tag_10:\n      tag_55\n      0x04\n      dup1\n      calldatasize\n      sub\n      dup2\n      add\n      swap1\n      tag_56\n      swap2\n      swap1\n      tag_57\n      jump\t// in\n    tag_56:\n      tag_58\n      jump\t// in\n    tag_55:\n      stop\n        /* \"wmbToken.sol\":1517:1558  mapping(address => uint) public startDate */\n    tag_11:\n      tag_59\n      0x04\n      dup1\n      calldatasize\n      sub\n      dup2\n      add\n      swap1\n      tag_60\n      swap2\n      swap1\n      tag_35\n      jump\t// in\n    tag_60:\n      tag_61\n      jump\t// in\n    tag_59:\n      mload(0x40)\n      tag_62\n      swap2\n      swap1\n      tag_41\n      jump\t// in\n    tag_62:\n      mload(0x40)\n      dup1\n      swap2\n      sub\n      swap1\n      return\n        /* \"wmbToken.sol\":1296:1337  mapping(address => uint) public balanceOf */\n    tag_12:\n      tag_63\n      0x04\n      dup1\n      calldatasize\n      sub\n      dup2\n      add\n      swap1\n      tag_64\n      swap2\n      swap1\n      tag_35\n      jump\t// in\n    tag_64:\n      tag_65\n      jump\t// in\n    tag_63:\n      mload(0x40)\n      tag_66\n      swap2\n      swap1\n      tag_41\n      jump\t// in\n    tag_66:\n      mload(0x40)\n      dup1\n      swap2\n      sub\n      swap1\n      return\n        /* \"wmbToken.sol\":4495:4708  function setStartDate() external{... */\n    tag_13:\n      tag_67\n      tag_68\n      jump\t// in\n    tag_67:\n      stop\n        /* \"wmbToken.sol\":1450:1478  string public symbol = \"WMB\" */\n    tag_14:\n      tag_69\n      tag_70\n      jump\t// in\n    tag_69:\n      mload(0x40)\n      tag_71\n      swap2\n      swap1\n      tag_26\n      jump\t// in\n    tag_71:\n      mload(0x40)\n      dup1\n      swap2\n      sub\n      swap1\n      return\n        /* \"wmbToken.sol\":3153:3547  function mint(uint amount) external {... */\n    tag_15:\n      tag_72\n      0x04\n      dup1\n      calldatasize\n      sub\n      dup2\n      add\n      swap1\n      tag_73\n      swap2\n      swap1\n      tag_53\n      jump\t// in\n    tag_73:\n      tag_74\n      jump\t// in\n    tag_72:\n      stop\n        /* \"wmbToken.sol\":1801:1825  scores[5] public leaders */\n    tag_16:\n      tag_75\n      0x04\n      dup1\n      calldatasize\n      sub\n      dup2\n      add\n      swap1\n      tag_76\n      swap2\n      swap1\n      tag_53\n      jump\t// in\n    tag_76:\n      tag_77\n      jump\t// in\n    tag_75:\n      mload(0x40)\n      tag_78\n      swap4\n      swap3\n      swap2\n      swap1\n      tag_79\n      jump\t// in\n    tag_78:\n      mload(0x40)\n      dup1\n      swap2\n      sub\n      swap1\n      return\n        /* \"wmbToken.sol\":2030:2342  function transfer (address recipient, uint amount) external returns (bool){... */\n    tag_17:\n      tag_80\n      0x04\n      dup1\n      calldatasize\n      sub\n      dup2\n      add\n      swap1\n      tag_81\n      swap2\n      swap1\n      tag_29\n      jump\t// in\n    tag_81:\n      tag_82\n      jump\t// in\n    tag_80:\n      mload(0x40)\n      tag_83\n      swap2\n      swap1\n      tag_32\n      jump\t// in\n    tag_83:\n      mload(0x40)\n      dup1\n      swap2\n      sub\n      swap1\n      return\n        /* \"wmbToken.sol\":4390:4487  function setName(string calldata Pname) external{... */\n    tag_18:\n      tag_84\n      0x04\n      dup1\n      calldatasize\n      sub\n      dup2\n      add\n      swap1\n      tag_85\n      swap2\n      swap1\n      tag_57\n      jump\t// in\n    tag_85:\n      tag_86\n      jump\t// in\n    tag_84:\n      stop\n        /* \"wmbToken.sol\":1344:1405  mapping(address => mapping(address => uint)) public allowance */\n    tag_19:\n      tag_87\n      0x04\n      dup1\n      calldatasize\n      sub\n      dup2\n      add\n      swap1\n      tag_88\n      swap2\n      swap1\n      tag_89\n      jump\t// in\n    tag_88:\n      tag_90\n      jump\t// in\n    tag_87:\n      mload(0x40)\n      tag_91\n      swap2\n      swap1\n      tag_41\n      jump\t// in\n    tag_91:\n      mload(0x40)\n      dup1\n      swap2\n      sub\n      swap1\n      return\n        /* \"wmbToken.sol\":1412:1443  string public name = \"WMBWalks\" */\n    tag_24:\n      0x03\n      dup1\n      sload\n      tag_92\n      swap1\n      tag_93\n      jump\t// in\n    tag_92:\n      dup1\n      0x1f\n      add\n      0x20\n      dup1\n      swap2\n      div\n      mul\n      0x20\n      add\n      mload(0x40)\n      swap1\n      dup2\n      add\n      0x40\n      mstore\n      dup1\n      swap3\n      swap2\n      swap1\n      dup2\n      dup2\n      mstore\n      0x20\n      add\n      dup3\n      dup1\n      sload\n      tag_94\n      swap1\n      tag_93\n      jump\t// in\n    tag_94:\n      dup1\n      iszero\n      tag_95\n      jumpi\n      dup1\n      0x1f\n      lt\n      tag_96\n      jumpi\n      0x0100\n      dup1\n      dup4\n      sload\n      div\n      mul\n      dup4\n      mstore\n      swap2\n      0x20\n      add\n      swap2\n      jump(tag_95)\n    tag_96:\n      dup3\n      add\n      swap2\n      swap1\n      0x00\n      mstore\n      keccak256(0x00, 0x20)\n      swap1\n    tag_97:\n      dup2\n      sload\n      dup2\n      mstore\n      swap1\n      0x01\n      add\n      swap1\n      0x20\n      add\n      dup1\n      dup4\n      gt\n      tag_97\n      jumpi\n      dup3\n      swap1\n      sub\n      0x1f\n      and\n      dup3\n      add\n      swap2\n    tag_95:\n      pop\n      pop\n      pop\n      pop\n      pop\n      dup2\n      jump\t// out\n        /* \"wmbToken.sol\":2350:2623  function approve(address spender, uint amount) external returns (bool){... */\n    tag_30:\n        /* \"wmbToken.sol\":2415:2419  bool */\n      0x00\n        /* \"wmbToken.sol\":2449:2452  100 */\n      0x64\n        /* \"wmbToken.sol\":2439:2445  amount */\n      dup3\n        /* \"wmbToken.sol\":2439:2452  amount <= 100 */\n      gt\n      iszero\n        /* \"wmbToken.sol\":2431:2490  require(amount <= 100,  \"Maximum approval of 1 WMB Tokens\") */\n      tag_99\n      jumpi\n      mload(0x40)\n      0x08c379a000000000000000000000000000000000000000000000000000000000\n      dup2\n      mstore\n      0x04\n      add\n      tag_100\n      swap1\n      tag_101\n      jump\t// in\n    tag_100:\n      mload(0x40)\n      dup1\n      swap2\n      sub\n      swap1\n      revert\n    tag_99:\n        /* \"wmbToken.sol\":2534:2540  amount */\n      dup2\n        /* \"wmbToken.sol\":2501:2510  allowance */\n      0x02\n        /* \"wmbToken.sol\":2501:2522  allowance[msg.sender] */\n      0x00\n        /* \"wmbToken.sol\":2511:2521  msg.sender */\n      caller\n        /* \"wmbToken.sol\":2501:2522  allowance[msg.sender] */\n      0xffffffffffffffffffffffffffffffffffffffff\n      and\n      0xffffffffffffffffffffffffffffffffffffffff\n      and\n      dup2\n      mstore\n      0x20\n      add\n      swap1\n      dup2\n      mstore\n      0x20\n      add\n      0x00\n      keccak256\n        /* \"wmbToken.sol\":2501:2531  allowance[msg.sender][spender] */\n      0x00\n        /* \"wmbToken.sol\":2523:2530  spender */\n      dup6\n        /* \"wmbToken.sol\":2501:2531  allowance[msg.sender][spender] */\n      0xffffffffffffffffffffffffffffffffffffffff\n      and\n      0xffffffffffffffffffffffffffffffffffffffff\n      and\n      dup2\n      mstore\n      0x20\n      add\n      swap1\n      dup2\n      mstore\n      0x20\n      add\n      0x00\n      keccak256\n        /* \"wmbToken.sol\":2501:2540  allowance[msg.sender][spender] = amount */\n      dup2\n      swap1\n      sstore\n      pop\n        /* \"wmbToken.sol\":2577:2584  spender */\n      dup3\n        /* \"wmbToken.sol\":2556:2593  Approval(msg.sender, spender, amount) */\n      0xffffffffffffffffffffffffffffffffffffffff\n      and\n        /* \"wmbToken.sol\":2565:2575  msg.sender */\n      caller\n        /* \"wmbToken.sol\":2556:2593  Approval(msg.sender, spender, amount) */\n      0xffffffffffffffffffffffffffffffffffffffff\n      and\n      0x8c5be1e5ebec7d5bd14f71427d1e84f3dd0314c0f7b2291e5b200ac8c7c3b925\n        /* \"wmbToken.sol\":2586:2592  amount */\n      dup5\n        /* \"wmbToken.sol\":2556:2593  Approval(msg.sender, spender, amount) */\n      mload(0x40)\n      tag_102\n      swap2\n      swap1\n      tag_41\n      jump\t// in\n    tag_102:\n      mload(0x40)\n      dup1\n      swap2\n      sub\n      swap1\n      log3\n        /* \"wmbToken.sol\":2611:2615  true */\n      0x01\n        /* \"wmbToken.sol\":2604:2615  return true */\n      swap1\n      pop\n        /* \"wmbToken.sol\":2350:2623  function approve(address spender, uint amount) external returns (bool){... */\n      swap3\n      swap2\n      pop\n      pop\n      jump\t// out\n        /* \"wmbToken.sol\":1627:1671  mapping(address => string) public personName */\n    tag_36:\n      mstore(0x20, 0x07)\n      dup1\n      0x00\n      mstore\n      keccak256(0x00, 0x40)\n      0x00\n      swap2\n      pop\n      swap1\n      pop\n      dup1\n      sload\n      tag_103\n      swap1\n      tag_93\n      jump\t// in\n    tag_103:\n      dup1\n      0x1f\n      add\n      0x20\n      dup1\n      swap2\n      div\n      mul\n      0x20\n      add\n      mload(0x40)\n      swap1\n      dup2\n      add\n      0x40\n      mstore\n      dup1\n      swap3\n      swap2\n      swap1\n      dup2\n      dup2\n      mstore\n      0x20\n      add\n      dup3\n      dup1\n      sload\n      tag_104\n      swap1\n      tag_93\n      jump\t// in\n    tag_104:\n      dup1\n      iszero\n      tag_105\n      jumpi\n      dup1\n      0x1f\n      lt\n      tag_106\n      jumpi\n      0x0100\n      dup1\n      dup4\n      sload\n      div\n      mul\n      dup4\n      mstore\n      swap2\n      0x20\n      add\n      swap2\n      jump(tag_105)\n    tag_106:\n      dup3\n      add\n      swap2\n      swap1\n      0x00\n      mstore\n      keccak256(0x00, 0x20)\n      swap1\n    tag_107:\n      dup2\n      sload\n      dup2\n      mstore\n      swap1\n      0x01\n      add\n      swap1\n      0x20\n      add\n      dup1\n      dup4\n      gt\n      tag_107\n      jumpi\n      dup3\n      swap1\n      sub\n      0x1f\n      and\n      dup3\n      add\n      swap2\n    tag_105:\n      pop\n      pop\n      pop\n      pop\n      pop\n      dup2\n      jump\t// out\n        /* \"wmbToken.sol\":1266:1289  uint public totalSupply */\n    tag_39:\n      sload(0x00)\n      dup2\n      jump\t// out\n        /* \"wmbToken.sol\":2746:3120  function transferFrom(address sender, address recipient, uint amount) external returns (bool){... */\n    tag_45:\n        /* \"wmbToken.sol\":2834:2838  bool */\n      0x00\n        /* \"wmbToken.sol\":2868:2870  10 */\n      0x0a\n        /* \"wmbToken.sol\":2858:2864  amount */\n      dup3\n        /* \"wmbToken.sol\":2858:2870  amount <= 10 */\n      gt\n      iszero\n        /* \"wmbToken.sol\":2850:2910  require(amount <= 10,  \"Maximum transfer of 0.1 WMB Tokens\") */\n      tag_109\n      jumpi\n      mload(0x40)\n      0x08c379a000000000000000000000000000000000000000000000000000000000\n      dup2\n      mstore\n      0x04\n      add\n      tag_110\n      swap1\n      tag_111\n      jump\t// in\n    tag_110:\n      mload(0x40)\n      dup1\n      swap2\n      sub\n      swap1\n      revert\n    tag_109:\n        /* \"wmbToken.sol\":2954:2960  amount */\n      dup2\n        /* \"wmbToken.sol\":2921:2930  allowance */\n      0x02\n        /* \"wmbToken.sol\":2921:2938  allowance[sender] */\n      0x00\n        /* \"wmbToken.sol\":2931:2937  sender */\n      dup7\n        /* \"wmbToken.sol\":2921:2938  allowance[sender] */\n      0xffffffffffffffffffffffffffffffffffffffff\n      and\n      0xffffffffffffffffffffffffffffffffffffffff\n      and\n      dup2\n      mstore\n      0x20\n      add\n      swap1\n      dup2\n      mstore\n      0x20\n      add\n      0x00\n      keccak256\n        /* \"wmbToken.sol\":2921:2950  allowance[sender][msg.sender] */\n      0x00\n        /* \"wmbToken.sol\":2939:2949  msg.sender */\n      caller\n        /* \"wmbToken.sol\":2921:2950  allowance[sender][msg.sender] */\n      0xffffffffffffffffffffffffffffffffffffffff\n      and\n      0xffffffffffffffffffffffffffffffffffffffff\n      and\n      dup2\n      mstore\n      0x20\n      add\n      swap1\n      dup2\n      mstore\n      0x20\n      add\n      0x00\n      keccak256\n      0x00\n        /* \"wmbToken.sol\":2921:2960  allowance[sender][msg.sender] -= amount */\n      dup3\n      dup3\n      sload\n      tag_112\n      swap2\n      swap1\n      tag_113\n      jump\t// in\n    tag_112:\n      swap3\n      pop\n      pop\n      dup2\n      swap1\n      sstore\n      pop\n        /* \"wmbToken.sol\":2992:2998  amount */\n      dup2\n        /* \"wmbToken.sol\":2971:2980  balanceOf */\n      0x01\n        /* \"wmbToken.sol\":2971:2988  balanceOf[sender] */\n      0x00\n        /* \"wmbToken.sol\":2981:2987  sender */\n      dup7\n        /* \"wmbToken.sol\":2971:2988  balanceOf[sender] */\n      0xffffffffffffffffffffffffffffffffffffffff\n      and\n      0xffffffffffffffffffffffffffffffffffffffff\n      and\n      dup2\n      mstore\n      0x20\n      add\n      swap1\n      dup2\n      mstore\n      0x20\n      add\n      0x00\n      keccak256\n      0x00\n        /* \"wmbToken.sol\":2971:2998  balanceOf[sender] -= amount */\n      dup3\n      dup3\n      sload\n      tag_114\n      swap2\n      swap1\n      tag_113\n      jump\t// in\n    tag_114:\n      swap3\n      pop\n      pop\n      dup2\n      swap1\n      sstore\n      pop\n        /* \"wmbToken.sol\":3033:3039  amount */\n      dup2\n        /* \"wmbToken.sol\":3009:3018  balanceOf */\n      0x01\n        /* \"wmbToken.sol\":3009:3029  balanceOf[recipient] */\n      0x00\n        /* \"wmbToken.sol\":3019:3028  recipient */\n      dup6\n        /* \"wmbToken.sol\":3009:3029  balanceOf[recipient] */\n      0xffffffffffffffffffffffffffffffffffffffff\n      and\n      0xffffffffffffffffffffffffffffffffffffffff\n      and\n      dup2\n      mstore\n      0x20\n      add\n      swap1\n      dup2\n      mstore\n      0x20\n      add\n      0x00\n      keccak256\n      0x00\n        /* \"wmbToken.sol\":3009:3039  balanceOf[recipient] += amount */\n      dup3\n      dup3\n      sload\n      tag_115\n      swap2\n      swap1\n      tag_116\n      jump\t// in\n    tag_115:\n      swap3\n      pop\n      pop\n      dup2\n      swap1\n      sstore\n      pop\n        /* \"wmbToken.sol\":3072:3081  recipient */\n      dup3\n        /* \"wmbToken.sol\":3055:3090  Transfer(sender, recipient, amount) */\n      0xffffffffffffffffffffffffffffffffffffffff\n      and\n        /* \"wmbToken.sol\":3064:3070  sender */\n      dup5\n        /* \"wmbToken.sol\":3055:3090  Transfer(sender, recipient, amount) */\n      0xffffffffffffffffffffffffffffffffffffffff\n      and\n      0xddf252ad1be2c89b69c2b068fc378daa952ba7f163c4a11628f55a4df523b3ef\n        /* \"wmbToken.sol\":3083:3089  amount */\n      dup5\n        /* \"wmbToken.sol\":3055:3090  Transfer(sender, recipient, amount) */\n      mload(0x40)\n      tag_117\n      swap2\n      swap1\n      tag_41\n      jump\t// in\n    tag_117:\n      mload(0x40)\n      dup1\n      swap2\n      sub\n      swap1\n      log3\n        /* \"wmbToken.sol\":3108:3112  true */\n      0x01\n        /* \"wmbToken.sol\":3101:3112  return true */\n      swap1\n      pop\n        /* \"wmbToken.sol\":2746:3120  function transferFrom(address sender, address recipient, uint amount) external returns (bool){... */\n      swap4\n      swap3\n      pop\n      pop\n      pop\n      jump\t// out\n        /* \"wmbToken.sol\":1485:1510  uint8 public decimals = 2 */\n    tag_48:\n      0x05\n      0x00\n      swap1\n      sload\n      swap1\n      0x0100\n      exp\n      swap1\n      div\n      0xff\n      and\n      dup2\n      jump\t// out\n        /* \"wmbToken.sol\":4202:4376  function burn(uint amount) external {... */\n    tag_54:\n        /* \"wmbToken.sol\":4274:4280  amount */\n      dup1\n        /* \"wmbToken.sol\":4249:4258  balanceOf */\n      0x01\n        /* \"wmbToken.sol\":4249:4270  balanceOf[msg.sender] */\n      0x00\n        /* \"wmbToken.sol\":4259:4269  msg.sender */\n      caller\n        /* \"wmbToken.sol\":4249:4270  balanceOf[msg.sender] */\n      0xffffffffffffffffffffffffffffffffffffffff\n      and\n      0xffffffffffffffffffffffffffffffffffffffff\n      and\n      dup2\n      mstore\n      0x20\n      add\n      swap1\n      dup2\n      mstore\n      0x20\n      add\n      0x00\n      keccak256\n      0x00\n        /* \"wmbToken.sol\":4249:4280  balanceOf[msg.sender] -= amount */\n      dup3\n      dup3\n      sload\n      tag_119\n      swap2\n      swap1\n      tag_113\n      jump\t// in\n    tag_119:\n      swap3\n      pop\n      pop\n      dup2\n      swap1\n      sstore\n      pop\n        /* \"wmbToken.sol\":4306:4312  amount */\n      dup1\n        /* \"wmbToken.sol\":4291:4302  totalSupply */\n      0x00\n      dup1\n        /* \"wmbToken.sol\":4291:4312  totalSupply -= amount */\n      dup3\n      dup3\n      sload\n      tag_120\n      swap2\n      swap1\n      tag_113\n      jump\t// in\n    tag_120:\n      swap3\n      pop\n      pop\n      dup2\n      swap1\n      sstore\n      pop\n        /* \"wmbToken.sol\":4357:4358  0 */\n      0x00\n        /* \"wmbToken.sol\":4328:4368  Transfer(msg.sender, address(0), amount) */\n      0xffffffffffffffffffffffffffffffffffffffff\n      and\n        /* \"wmbToken.sol\":4337:4347  msg.sender */\n      caller\n        /* \"wmbToken.sol\":4328:4368  Transfer(msg.sender, address(0), amount) */\n      0xffffffffffffffffffffffffffffffffffffffff\n      and\n      0xddf252ad1be2c89b69c2b068fc378daa952ba7f163c4a11628f55a4df523b3ef\n        /* \"wmbToken.sol\":4361:4367  amount */\n      dup4\n        /* \"wmbToken.sol\":4328:4368  Transfer(msg.sender, address(0), amount) */\n      mload(0x40)\n      tag_121\n      swap2\n      swap1\n      tag_41\n      jump\t// in\n    tag_121:\n      mload(0x40)\n      dup1\n      swap2\n      sub\n      swap1\n      log3\n        /* \"wmbToken.sol\":4202:4376  function burn(uint amount) external {... */\n      pop\n      jump\t// out\n        /* \"wmbToken.sol\":2632:2738  function setPersonName(string calldata person) external {... */\n    tag_58:\n        /* \"wmbToken.sol\":2724:2730  person */\n      dup2\n      dup2\n        /* \"wmbToken.sol\":2699:2709  personName */\n      0x07\n        /* \"wmbToken.sol\":2699:2721  personName[msg.sender] */\n      0x00\n        /* \"wmbToken.sol\":2710:2720  msg.sender */\n      caller\n        /* \"wmbToken.sol\":2699:2721  personName[msg.sender] */\n      0xffffffffffffffffffffffffffffffffffffffff\n      and\n      0xffffffffffffffffffffffffffffffffffffffff\n      and\n      dup2\n      mstore\n      0x20\n      add\n      swap1\n      dup2\n      mstore\n      0x20\n      add\n      0x00\n      keccak256\n        /* \"wmbToken.sol\":2699:2730  personName[msg.sender] = person */\n      swap2\n      dup3\n      tag_123\n      swap3\n      swap2\n      swap1\n      tag_124\n      jump\t// in\n    tag_123:\n      pop\n        /* \"wmbToken.sol\":2632:2738  function setPersonName(string calldata person) external {... */\n      pop\n      pop\n      jump\t// out\n        /* \"wmbToken.sol\":1517:1558  mapping(address => uint) public startDate */\n    tag_61:\n      mstore(0x20, 0x06)\n      dup1\n      0x00\n      mstore\n      keccak256(0x00, 0x40)\n      0x00\n      swap2\n      pop\n      swap1\n      pop\n      sload\n      dup2\n      jump\t// out\n        /* \"wmbToken.sol\":1296:1337  mapping(address => uint) public balanceOf */\n    tag_65:\n      mstore(0x20, 0x01)\n      dup1\n      0x00\n      mstore\n      keccak256(0x00, 0x40)\n      0x00\n      swap2\n      pop\n      swap1\n      pop\n      sload\n      dup2\n      jump\t// out\n        /* \"wmbToken.sol\":4495:4708  function setStartDate() external{... */\n    tag_68:\n        /* \"wmbToken.sol\":4571:4572  0 */\n      0x00\n        /* \"wmbToken.sol\":4546:4555  startDate */\n      0x06\n        /* \"wmbToken.sol\":4546:4567  startDate[msg.sender] */\n      0x00\n        /* \"wmbToken.sol\":4556:4566  msg.sender */\n      caller\n        /* \"wmbToken.sol\":4546:4567  startDate[msg.sender] */\n      0xffffffffffffffffffffffffffffffffffffffff\n      and\n      0xffffffffffffffffffffffffffffffffffffffff\n      and\n      dup2\n      mstore\n      0x20\n      add\n      swap1\n      dup2\n      mstore\n      0x20\n      add\n      0x00\n      keccak256\n      sload\n        /* \"wmbToken.sol\":4546:4572  startDate[msg.sender] == 0 */\n      eq\n        /* \"wmbToken.sol\":4538:4573  require(startDate[msg.sender] == 0) */\n      tag_126\n      jumpi\n      0x00\n      dup1\n      revert\n    tag_126:\n        /* \"wmbToken.sol\":4684:4699  block.timestamp */\n      timestamp\n        /* \"wmbToken.sol\":4660:4669  startDate */\n      0x06\n        /* \"wmbToken.sol\":4660:4681  startDate[msg.sender] */\n      0x00\n        /* \"wmbToken.sol\":4670:4680  msg.sender */\n      caller\n        /* \"wmbToken.sol\":4660:4681  startDate[msg.sender] */\n      0xffffffffffffffffffffffffffffffffffffffff\n      and\n      0xffffffffffffffffffffffffffffffffffffffff\n      and\n      dup2\n      mstore\n      0x20\n      add\n      swap1\n      dup2\n      mstore\n      0x20\n      add\n      0x00\n      keccak256\n        /* \"wmbToken.sol\":4660:4699  startDate[msg.sender] = block.timestamp */\n      dup2\n      swap1\n      sstore\n      pop\n        /* \"wmbToken.sol\":4495:4708  function setStartDate() external{... */\n      jump\t// out\n        /* \"wmbToken.sol\":1450:1478  string public symbol = \"WMB\" */\n    tag_70:\n      0x04\n      dup1\n      sload\n      tag_127\n      swap1\n      tag_93\n      jump\t// in\n    tag_127:\n      dup1\n      0x1f\n      add\n      0x20\n      dup1\n      swap2\n      div\n      mul\n      0x20\n      add\n      mload(0x40)\n      swap1\n      dup2\n      add\n      0x40\n      mstore\n      dup1\n      swap3\n      swap2\n      swap1\n      dup2\n      dup2\n      mstore\n      0x20\n      add\n      dup3\n      dup1\n      sload\n      tag_128\n      swap1\n      tag_93\n      jump\t// in\n    tag_128:\n      dup1\n      iszero\n      tag_129\n      jumpi\n      dup1\n      0x1f\n      lt\n      tag_130\n      jumpi\n      0x0100\n      dup1\n      dup4\n      sload\n      div\n      mul\n      dup4\n      mstore\n      swap2\n      0x20\n      add\n      swap2\n      jump(tag_129)\n    tag_130:\n      dup3\n      add\n      swap2\n      swap1\n      0x00\n      mstore\n      keccak256(0x00, 0x20)\n      swap1\n    tag_131:\n      dup2\n      sload\n      dup2\n      mstore\n      swap1\n      0x01\n      add\n      swap1\n      0x20\n      add\n      dup1\n      dup4\n      gt\n      tag_131\n      jumpi\n      dup3\n      swap1\n      sub\n      0x1f\n      and\n      dup3\n      add\n      swap2\n    tag_129:\n      pop\n      pop\n      pop\n      pop\n      pop\n      dup2\n      jump\t// out\n        /* \"wmbToken.sol\":3153:3547  function mint(uint amount) external {... */\n    tag_74:\n        /* \"wmbToken.sol\":3228:3229  0 */\n      0x00\n        /* \"wmbToken.sol\":3203:3212  balanceOf */\n      0x01\n        /* \"wmbToken.sol\":3203:3224  balanceOf[msg.sender] */\n      0x00\n        /* \"wmbToken.sol\":3213:3223  msg.sender */\n      caller\n        /* \"wmbToken.sol\":3203:3224  balanceOf[msg.sender] */\n      0xffffffffffffffffffffffffffffffffffffffff\n      and\n      0xffffffffffffffffffffffffffffffffffffffff\n      and\n      dup2\n      mstore\n      0x20\n      add\n      swap1\n      dup2\n      mstore\n      0x20\n      add\n      0x00\n      keccak256\n      sload\n        /* \"wmbToken.sol\":3203:3229  balanceOf[msg.sender] == 0 */\n      eq\n        /* \"wmbToken.sol\":3203:3259  balanceOf[msg.sender] == 0 && startDate[msg.sender] == 0 */\n      dup1\n      iszero\n      tag_133\n      jumpi\n      pop\n        /* \"wmbToken.sol\":3258:3259  0 */\n      0x00\n        /* \"wmbToken.sol\":3233:3242  startDate */\n      0x06\n        /* \"wmbToken.sol\":3233:3254  startDate[msg.sender] */\n      0x00\n        /* \"wmbToken.sol\":3243:3253  msg.sender */\n      caller\n        /* \"wmbToken.sol\":3233:3254  startDate[msg.sender] */\n      0xffffffffffffffffffffffffffffffffffffffff\n      and\n      0xffffffffffffffffffffffffffffffffffffffff\n      and\n      dup2\n      mstore\n      0x20\n      add\n      swap1\n      dup2\n      mstore\n      0x20\n      add\n      0x00\n      keccak256\n      sload\n        /* \"wmbToken.sol\":3233:3259  startDate[msg.sender] == 0 */\n      eq\n        /* \"wmbToken.sol\":3203:3259  balanceOf[msg.sender] == 0 && startDate[msg.sender] == 0 */\n    tag_133:\n        /* \"wmbToken.sol\":3200:3347  if(balanceOf[msg.sender] == 0 && startDate[msg.sender] == 0){... */\n      iszero\n      tag_134\n      jumpi\n        /* \"wmbToken.sol\":3299:3314  block.timestamp */\n      timestamp\n        /* \"wmbToken.sol\":3275:3284  startDate */\n      0x06\n        /* \"wmbToken.sol\":3275:3296  startDate[msg.sender] */\n      0x00\n        /* \"wmbToken.sol\":3285:3295  msg.sender */\n      caller\n        /* \"wmbToken.sol\":3275:3296  startDate[msg.sender] */\n      0xffffffffffffffffffffffffffffffffffffffff\n      and\n      0xffffffffffffffffffffffffffffffffffffffff\n      and\n      dup2\n      mstore\n      0x20\n      add\n      swap1\n      dup2\n      mstore\n      0x20\n      add\n      0x00\n      keccak256\n        /* \"wmbToken.sol\":3275:3314  startDate[msg.sender] = block.timestamp */\n      dup2\n      swap1\n      sstore\n      pop\n        /* \"wmbToken.sol\":3329:3336  return; */\n      jump(tag_132)\n        /* \"wmbToken.sol\":3200:3347  if(balanceOf[msg.sender] == 0 && startDate[msg.sender] == 0){... */\n    tag_134:\n        /* \"wmbToken.sol\":3382:3388  amount */\n      dup1\n        /* \"wmbToken.sol\":3357:3366  balanceOf */\n      0x01\n        /* \"wmbToken.sol\":3357:3378  balanceOf[msg.sender] */\n      0x00\n        /* \"wmbToken.sol\":3367:3377  msg.sender */\n      caller\n        /* \"wmbToken.sol\":3357:3378  balanceOf[msg.sender] */\n      0xffffffffffffffffffffffffffffffffffffffff\n      and\n      0xffffffffffffffffffffffffffffffffffffffff\n      and\n      dup2\n      mstore\n      0x20\n      add\n      swap1\n      dup2\n      mstore\n      0x20\n      add\n      0x00\n      keccak256\n      0x00\n        /* \"wmbToken.sol\":3357:3388  balanceOf[msg.sender] += amount */\n      dup3\n      dup3\n      sload\n      tag_135\n      swap2\n      swap1\n      tag_116\n      jump\t// in\n    tag_135:\n      swap3\n      pop\n      pop\n      dup2\n      swap1\n      sstore\n      pop\n        /* \"wmbToken.sol\":3414:3420  amount */\n      dup1\n        /* \"wmbToken.sol\":3399:3410  totalSupply */\n      0x00\n      dup1\n        /* \"wmbToken.sol\":3399:3420  totalSupply += amount */\n      dup3\n      dup3\n      sload\n      tag_136\n      swap2\n      swap1\n      tag_116\n      jump\t// in\n    tag_136:\n      swap3\n      pop\n      pop\n      dup2\n      swap1\n      sstore\n      pop\n        /* \"wmbToken.sol\":3457:3467  msg.sender */\n      caller\n        /* \"wmbToken.sol\":3436:3476  Transfer(address(0), msg.sender, amount) */\n      0xffffffffffffffffffffffffffffffffffffffff\n      and\n        /* \"wmbToken.sol\":3453:3454  0 */\n      0x00\n        /* \"wmbToken.sol\":3436:3476  Transfer(address(0), msg.sender, amount) */\n      0xffffffffffffffffffffffffffffffffffffffff\n      and\n      0xddf252ad1be2c89b69c2b068fc378daa952ba7f163c4a11628f55a4df523b3ef\n        /* \"wmbToken.sol\":3469:3475  amount */\n      dup4\n        /* \"wmbToken.sol\":3436:3476  Transfer(address(0), msg.sender, amount) */\n      mload(0x40)\n      tag_137\n      swap2\n      swap1\n      tag_41\n      jump\t// in\n    tag_137:\n      mload(0x40)\n      dup1\n      swap2\n      sub\n      swap1\n      log3\n        /* \"wmbToken.sol\":3487:3539  updateLeaderBoard(balanceOf[msg.sender], msg.sender) */\n      tag_138\n        /* \"wmbToken.sol\":3505:3514  balanceOf */\n      0x01\n        /* \"wmbToken.sol\":3505:3526  balanceOf[msg.sender] */\n      0x00\n        /* \"wmbToken.sol\":3515:3525  msg.sender */\n      caller\n        /* \"wmbToken.sol\":3505:3526  balanceOf[msg.sender] */\n      0xffffffffffffffffffffffffffffffffffffffff\n      and\n      0xffffffffffffffffffffffffffffffffffffffff\n      and\n      dup2\n      mstore\n      0x20\n      add\n      swap1\n      dup2\n      mstore\n      0x20\n      add\n      0x00\n      keccak256\n      sload\n        /* \"wmbToken.sol\":3528:3538  msg.sender */\n      caller\n        /* \"wmbToken.sol\":3487:3504  updateLeaderBoard */\n      tag_139\n        /* \"wmbToken.sol\":3487:3539  updateLeaderBoard(balanceOf[msg.sender], msg.sender) */\n      jump\t// in\n    tag_138:\n        /* \"wmbToken.sol\":3153:3547  function mint(uint amount) external {... */\n    tag_132:\n      pop\n      jump\t// out\n        /* \"wmbToken.sol\":1801:1825  scores[5] public leaders */\n    tag_77:\n      0x08\n      dup2\n      0x05\n      dup2\n      lt\n      tag_140\n      jumpi\n      0x00\n      dup1\n      revert\n    tag_140:\n      0x03\n      mul\n      add\n      0x00\n      swap2\n      pop\n      swap1\n      pop\n      dup1\n      0x00\n      add\n      0x00\n      swap1\n      sload\n      swap1\n      0x0100\n      exp\n      swap1\n      div\n      0xffffffffffffffffffffffffffffffffffffffff\n      and\n      swap1\n      dup1\n      0x01\n      add\n      dup1\n      sload\n      tag_142\n      swap1\n      tag_93\n      jump\t// in\n    tag_142:\n      dup1\n      0x1f\n      add\n      0x20\n      dup1\n      swap2\n      div\n      mul\n      0x20\n      add\n      mload(0x40)\n      swap1\n      dup2\n      add\n      0x40\n      mstore\n      dup1\n      swap3\n      swap2\n      swap1\n      dup2\n      dup2\n      mstore\n      0x20\n      add\n      dup3\n      dup1\n      sload\n      tag_143\n      swap1\n      tag_93\n      jump\t// in\n    tag_143:\n      dup1\n      iszero\n      tag_144\n      jumpi\n      dup1\n      0x1f\n      lt\n      tag_145\n      jumpi\n      0x0100\n      dup1\n      dup4\n      sload\n      div\n      mul\n      dup4\n      mstore\n      swap2\n      0x20\n      add\n      swap2\n      jump(tag_144)\n    tag_145:\n      dup3\n      add\n      swap2\n      swap1\n      0x00\n      mstore\n      keccak256(0x00, 0x20)\n      swap1\n    tag_146:\n      dup2\n      sload\n      dup2\n      mstore\n      swap1\n      0x01\n      add\n      swap1\n      0x20\n      add\n      dup1\n      dup4\n      gt\n      tag_146\n      jumpi\n      dup3\n      swap1\n      sub\n      0x1f\n      and\n      dup3\n      add\n      swap2\n    tag_144:\n      pop\n      pop\n      pop\n      pop\n      pop\n      swap1\n      dup1\n      0x02\n      add\n      sload\n      swap1\n      pop\n      dup4\n      jump\t// out\n        /* \"wmbToken.sol\":2030:2342  function transfer (address recipient, uint amount) external returns (bool){... */\n    tag_82:\n        /* \"wmbToken.sol\":2099:2103  bool */\n      0x00\n        /* \"wmbToken.sol\":2133:2135  10 */\n      0x0a\n        /* \"wmbToken.sol\":2123:2129  amount */\n      dup3\n        /* \"wmbToken.sol\":2123:2135  amount <= 10 */\n      gt\n      iszero\n        /* \"wmbToken.sol\":2115:2174  require(amount <= 10, \"Maximum transfer of 0.1 WMB Tokens\") */\n      tag_148\n      jumpi\n      mload(0x40)\n      0x08c379a000000000000000000000000000000000000000000000000000000000\n      dup2\n      mstore\n      0x04\n      add\n      tag_149\n      swap1\n      tag_111\n      jump\t// in\n    tag_149:\n      mload(0x40)\n      dup1\n      swap2\n      sub\n      swap1\n      revert\n    tag_148:\n        /* \"wmbToken.sol\":2210:2216  amount */\n      dup2\n        /* \"wmbToken.sol\":2185:2194  balanceOf */\n      0x01\n        /* \"wmbToken.sol\":2185:2206  balanceOf[msg.sender] */\n      0x00\n        /* \"wmbToken.sol\":2195:2205  msg.sender */\n      caller\n        /* \"wmbToken.sol\":2185:2206  balanceOf[msg.sender] */\n      0xffffffffffffffffffffffffffffffffffffffff\n      and\n      0xffffffffffffffffffffffffffffffffffffffff\n      and\n      dup2\n      mstore\n      0x20\n      add\n      swap1\n      dup2\n      mstore\n      0x20\n      add\n      0x00\n      keccak256\n      0x00\n        /* \"wmbToken.sol\":2185:2216  balanceOf[msg.sender] -= amount */\n      dup3\n      dup3\n      sload\n      tag_150\n      swap2\n      swap1\n      tag_113\n      jump\t// in\n    tag_150:\n      swap3\n      pop\n      pop\n      dup2\n      swap1\n      sstore\n      pop\n        /* \"wmbToken.sol\":2251:2257  amount */\n      dup2\n        /* \"wmbToken.sol\":2227:2236  balanceOf */\n      0x01\n        /* \"wmbToken.sol\":2227:2247  balanceOf[recipient] */\n      0x00\n        /* \"wmbToken.sol\":2237:2246  recipient */\n      dup6\n        /* \"wmbToken.sol\":2227:2247  balanceOf[recipient] */\n      0xffffffffffffffffffffffffffffffffffffffff\n      and\n      0xffffffffffffffffffffffffffffffffffffffff\n      and\n      dup2\n      mstore\n      0x20\n      add\n      swap1\n      dup2\n      mstore\n      0x20\n      add\n      0x00\n      keccak256\n      0x00\n        /* \"wmbToken.sol\":2227:2257  balanceOf[recipient] += amount */\n      dup3\n      dup3\n      sload\n      tag_151\n      swap2\n      swap1\n      tag_116\n      jump\t// in\n    tag_151:\n      swap3\n      pop\n      pop\n      dup2\n      swap1\n      sstore\n      pop\n        /* \"wmbToken.sol\":2294:2303  recipient */\n      dup3\n        /* \"wmbToken.sol\":2273:2312  Transfer(msg.sender, recipient, amount) */\n      0xffffffffffffffffffffffffffffffffffffffff\n      and\n        /* \"wmbToken.sol\":2282:2292  msg.sender */\n      caller\n        /* \"wmbToken.sol\":2273:2312  Transfer(msg.sender, recipient, amount) */\n      0xffffffffffffffffffffffffffffffffffffffff\n      and\n      0xddf252ad1be2c89b69c2b068fc378daa952ba7f163c4a11628f55a4df523b3ef\n        /* \"wmbToken.sol\":2305:2311  amount */\n      dup5\n        /* \"wmbToken.sol\":2273:2312  Transfer(msg.sender, recipient, amount) */\n      mload(0x40)\n      tag_152\n      swap2\n      swap1\n      tag_41\n      jump\t// in\n    tag_152:\n      mload(0x40)\n      dup1\n      swap2\n      sub\n      swap1\n      log3\n        /* \"wmbToken.sol\":2330:2334  true */\n      0x01\n        /* \"wmbToken.sol\":2323:2334  return true */\n      swap1\n      pop\n        /* \"wmbToken.sol\":2030:2342  function transfer (address recipient, uint amount) external returns (bool){... */\n      swap3\n      swap2\n      pop\n      pop\n      jump\t// out\n        /* \"wmbToken.sol\":4390:4487  function setName(string calldata Pname) external{... */\n    tag_86:\n        /* \"wmbToken.sol\":4474:4479  Pname */\n      dup2\n      dup2\n        /* \"wmbToken.sol\":4449:4459  personName */\n      0x07\n        /* \"wmbToken.sol\":4449:4471  personName[msg.sender] */\n      0x00\n        /* \"wmbToken.sol\":4460:4470  msg.sender */\n      caller\n        /* \"wmbToken.sol\":4449:4471  personName[msg.sender] */\n      0xffffffffffffffffffffffffffffffffffffffff\n      and\n      0xffffffffffffffffffffffffffffffffffffffff\n      and\n      dup2\n      mstore\n      0x20\n      add\n      swap1\n      dup2\n      mstore\n      0x20\n      add\n      0x00\n      keccak256\n        /* \"wmbToken.sol\":4449:4479  personName[msg.sender] = Pname */\n      swap2\n      dup3\n      tag_154\n      swap3\n      swap2\n      swap1\n      tag_124\n      jump\t// in\n    tag_154:\n      pop\n        /* \"wmbToken.sol\":4390:4487  function setName(string calldata Pname) external{... */\n      pop\n      pop\n      jump\t// out\n        /* \"wmbToken.sol\":1344:1405  mapping(address => mapping(address => uint)) public allowance */\n    tag_90:\n      mstore(0x20, 0x02)\n      dup2\n      0x00\n      mstore\n      mstore(0x20, keccak256(0x00, 0x40))\n      dup1\n      0x00\n      mstore\n      keccak256(0x00, 0x40)\n      0x00\n      swap2\n      pop\n      swap2\n      pop\n      pop\n      sload\n      dup2\n      jump\t// out\n        /* \"wmbToken.sol\":3555:4154  function updateLeaderBoard(uint newDistance, address accountAdd) internal {... */\n    tag_139:\n        /* \"wmbToken.sol\":3640:3657  scores memory cur */\n      0x00\n        /* \"wmbToken.sol\":3660:3757  scores({accountAddress : accountAdd, accountName: personName[accountAdd], distance: newDistance}) */\n      mload(0x40)\n      dup1\n      0x60\n      add\n      0x40\n      mstore\n      dup1\n        /* \"wmbToken.sol\":3685:3695  accountAdd */\n      dup4\n        /* \"wmbToken.sol\":3660:3757  scores({accountAddress : accountAdd, accountName: personName[accountAdd], distance: newDistance}) */\n      0xffffffffffffffffffffffffffffffffffffffff\n      and\n      dup2\n      mstore\n      0x20\n      add\n        /* \"wmbToken.sol\":3710:3720  personName */\n      0x07\n        /* \"wmbToken.sol\":3710:3732  personName[accountAdd] */\n      0x00\n        /* \"wmbToken.sol\":3721:3731  accountAdd */\n      dup6\n        /* \"wmbToken.sol\":3710:3732  personName[accountAdd] */\n      0xffffffffffffffffffffffffffffffffffffffff\n      and\n      0xffffffffffffffffffffffffffffffffffffffff\n      and\n      dup2\n      mstore\n      0x20\n      add\n      swap1\n      dup2\n      mstore\n      0x20\n      add\n      0x00\n      keccak256\n        /* \"wmbToken.sol\":3660:3757  scores({accountAddress : accountAdd, accountName: personName[accountAdd], distance: newDistance}) */\n      dup1\n      sload\n      tag_156\n      swap1\n      tag_93\n      jump\t// in\n    tag_156:\n      dup1\n      0x1f\n      add\n      0x20\n      dup1\n      swap2\n      div\n      mul\n      0x20\n      add\n      mload(0x40)\n      swap1\n      dup2\n      add\n      0x40\n      mstore\n      dup1\n      swap3\n      swap2\n      swap1\n      dup2\n      dup2\n      mstore\n      0x20\n      add\n      dup3\n      dup1\n      sload\n      tag_157\n      swap1\n      tag_93\n      jump\t// in\n    tag_157:\n      dup1\n      iszero\n      tag_158\n      jumpi\n      dup1\n      0x1f\n      lt\n      tag_159\n      jumpi\n      0x0100\n      dup1\n      dup4\n      sload\n      div\n      mul\n      dup4\n      mstore\n      swap2\n      0x20\n      add\n      swap2\n      jump(tag_158)\n    tag_159:\n      dup3\n      add\n      swap2\n      swap1\n      0x00\n      mstore\n      keccak256(0x00, 0x20)\n      swap1\n    tag_160:\n      dup2\n      sload\n      dup2\n      mstore\n      swap1\n      0x01\n      add\n      swap1\n      0x20\n      add\n      dup1\n      dup4\n      gt\n      tag_160\n      jumpi\n      dup3\n      swap1\n      sub\n      0x1f\n      and\n      dup3\n      add\n      swap2\n    tag_158:\n      pop\n      pop\n      pop\n      pop\n      pop\n      dup2\n      mstore\n      0x20\n      add\n        /* \"wmbToken.sol\":3744:3755  newDistance */\n      dup5\n        /* \"wmbToken.sol\":3660:3757  scores({accountAddress : accountAdd, accountName: personName[accountAdd], distance: newDistance}) */\n      dup2\n      mstore\n      pop\n        /* \"wmbToken.sol\":3640:3757  scores memory cur = scores({accountAddress : accountAdd, accountName: personName[accountAdd], distance: newDistance}) */\n      swap1\n      pop\n        /* \"wmbToken.sol\":3768:3775  uint8 i */\n      0x00\n        /* \"wmbToken.sol\":3790:4147  while(i < 5){... */\n    tag_161:\n        /* \"wmbToken.sol\":3800:3801  5 */\n      0x05\n        /* \"wmbToken.sol\":3796:3797  i */\n      dup2\n        /* \"wmbToken.sol\":3796:3801  i < 5 */\n      0xff\n      and\n      lt\n        /* \"wmbToken.sol\":3790:4147  while(i < 5){... */\n      iszero\n      tag_162\n      jumpi\n        /* \"wmbToken.sol\":3849:3859  accountAdd */\n      dup3\n        /* \"wmbToken.sol\":3820:3859  leaders[i].accountAddress == accountAdd */\n      0xffffffffffffffffffffffffffffffffffffffff\n      and\n        /* \"wmbToken.sol\":3820:3827  leaders */\n      0x08\n        /* \"wmbToken.sol\":3828:3829  i */\n      dup3\n        /* \"wmbToken.sol\":3820:3830  leaders[i] */\n      0xff\n      and\n      0x05\n      dup2\n      lt\n      tag_163\n      jumpi\n      tag_164\n      tag_165\n      jump\t// in\n    tag_164:\n    tag_163:\n      0x03\n      mul\n      add\n        /* \"wmbToken.sol\":3820:3845  leaders[i].accountAddress */\n      0x00\n      add\n      0x00\n      swap1\n      sload\n      swap1\n      0x0100\n      exp\n      swap1\n      div\n      0xffffffffffffffffffffffffffffffffffffffff\n      and\n        /* \"wmbToken.sol\":3820:3859  leaders[i].accountAddress == accountAdd */\n      0xffffffffffffffffffffffffffffffffffffffff\n      and\n      sub\n        /* \"wmbToken.sol\":3817:3936  if(leaders[i].accountAddress == accountAdd){... */\n      tag_167\n      jumpi\n        /* \"wmbToken.sol\":3892:3895  cur */\n      dup2\n        /* \"wmbToken.sol\":3879:3886  leaders */\n      0x08\n        /* \"wmbToken.sol\":3887:3888  i */\n      dup3\n        /* \"wmbToken.sol\":3879:3889  leaders[i] */\n      0xff\n      and\n      0x05\n      dup2\n      lt\n      tag_168\n      jumpi\n      tag_169\n      tag_165\n      jump\t// in\n    tag_169:\n    tag_168:\n      0x03\n      mul\n      add\n        /* \"wmbToken.sol\":3879:3895  leaders[i] = cur */\n      0x00\n      dup3\n      add\n      mload\n      dup2\n      0x00\n      add\n      exp(0x0100, 0x00)\n      dup2\n      sload\n      dup2\n      0xffffffffffffffffffffffffffffffffffffffff\n      mul\n      not\n      and\n      swap1\n      dup4\n      0xffffffffffffffffffffffffffffffffffffffff\n      and\n      mul\n      or\n      swap1\n      sstore\n      pop\n      0x20\n      dup3\n      add\n      mload\n      dup2\n      0x01\n      add\n      swap1\n      dup2\n      tag_171\n      swap2\n      swap1\n      tag_172\n      jump\t// in\n    tag_171:\n      pop\n      0x40\n      dup3\n      add\n      mload\n      dup2\n      0x02\n      add\n      sstore\n      swap1\n      pop\n      pop\n        /* \"wmbToken.sol\":3914:3921  return; */\n      pop\n      pop\n      jump(tag_155)\n        /* \"wmbToken.sol\":3817:3936  if(leaders[i].accountAddress == accountAdd){... */\n    tag_167:\n        /* \"wmbToken.sol\":3975:3978  cur */\n      dup2\n        /* \"wmbToken.sol\":3975:3987  cur.distance */\n      0x40\n      add\n      mload\n        /* \"wmbToken.sol\":3953:3960  leaders */\n      0x08\n        /* \"wmbToken.sol\":3961:3962  i */\n      dup3\n        /* \"wmbToken.sol\":3953:3963  leaders[i] */\n      0xff\n      and\n      0x05\n      dup2\n      lt\n      tag_173\n      jumpi\n      tag_174\n      tag_165\n      jump\t// in\n    tag_174:\n    tag_173:\n      0x03\n      mul\n      add\n        /* \"wmbToken.sol\":3953:3972  leaders[i].distance */\n      0x02\n      add\n      sload\n        /* \"wmbToken.sol\":3953:3987  leaders[i].distance < cur.distance */\n      lt\n        /* \"wmbToken.sol\":3950:4118  if(leaders[i].distance < cur.distance){... */\n      iszero\n      tag_176\n      jumpi\n        /* \"wmbToken.sol\":4007:4025  scores memory temp */\n      0x00\n        /* \"wmbToken.sol\":4028:4035  leaders */\n      0x08\n        /* \"wmbToken.sol\":4036:4037  i */\n      dup3\n        /* \"wmbToken.sol\":4028:4038  leaders[i] */\n      0xff\n      and\n      0x05\n      dup2\n      lt\n      tag_177\n      jumpi\n      tag_178\n      tag_165\n      jump\t// in\n    tag_178:\n    tag_177:\n      0x03\n      mul\n      add\n        /* \"wmbToken.sol\":4007:4038  scores memory temp = leaders[i] */\n      mload(0x40)\n      dup1\n      0x60\n      add\n      0x40\n      mstore\n      swap1\n      dup2\n      0x00\n      dup3\n      add\n      0x00\n      swap1\n      sload\n      swap1\n      0x0100\n      exp\n      swap1\n      div\n      0xffffffffffffffffffffffffffffffffffffffff\n      and\n      0xffffffffffffffffffffffffffffffffffffffff\n      and\n      0xffffffffffffffffffffffffffffffffffffffff\n      and\n      dup2\n      mstore\n      0x20\n      add\n      0x01\n      dup3\n      add\n      dup1\n      sload\n      tag_180\n      swap1\n      tag_93\n      jump\t// in\n    tag_180:\n      dup1\n      0x1f\n      add\n      0x20\n      dup1\n      swap2\n      div\n      mul\n      0x20\n      add\n      mload(0x40)\n      swap1\n      dup2\n      add\n      0x40\n      mstore\n      dup1\n      swap3\n      swap2\n      swap1\n      dup2\n      dup2\n      mstore\n      0x20\n      add\n      dup3\n      dup1\n      sload\n      tag_181\n      swap1\n      tag_93\n      jump\t// in\n    tag_181:\n      dup1\n      iszero\n      tag_182\n      jumpi\n      dup1\n      0x1f\n      lt\n      tag_183\n      jumpi\n      0x0100\n      dup1\n      dup4\n      sload\n      div\n      mul\n      dup4\n      mstore\n      swap2\n      0x20\n      add\n      swap2\n      jump(tag_182)\n    tag_183:\n      dup3\n      add\n      swap2\n      swap1\n      0x00\n      mstore\n      keccak256(0x00, 0x20)\n      swap1\n    tag_184:\n      dup2\n      sload\n      dup2\n      mstore\n      swap1\n      0x01\n      add\n      swap1\n      0x20\n      add\n      dup1\n      dup4\n      gt\n      tag_184\n      jumpi\n      dup3\n      swap1\n      sub\n      0x1f\n      and\n      dup3\n      add\n      swap2\n    tag_182:\n      pop\n      pop\n      pop\n      pop\n      pop\n      dup2\n      mstore\n      0x20\n      add\n      0x02\n      dup3\n      add\n      sload\n      dup2\n      mstore\n      pop\n      pop\n      swap1\n      pop\n        /* \"wmbToken.sol\":4070:4073  cur */\n      dup3\n        /* \"wmbToken.sol\":4057:4064  leaders */\n      0x08\n        /* \"wmbToken.sol\":4065:4066  i */\n      dup4\n        /* \"wmbToken.sol\":4057:4067  leaders[i] */\n      0xff\n      and\n      0x05\n      dup2\n      lt\n      tag_185\n      jumpi\n      tag_186\n      tag_165\n      jump\t// in\n    tag_186:\n    tag_185:\n      0x03\n      mul\n      add\n        /* \"wmbToken.sol\":4057:4073  leaders[i] = cur */\n      0x00\n      dup3\n      add\n      mload\n      dup2\n      0x00\n      add\n      exp(0x0100, 0x00)\n      dup2\n      sload\n      dup2\n      0xffffffffffffffffffffffffffffffffffffffff\n      mul\n      not\n      and\n      swap1\n      dup4\n      0xffffffffffffffffffffffffffffffffffffffff\n      and\n      mul\n      or\n      swap1\n      sstore\n      pop\n      0x20\n      dup3\n      add\n      mload\n      dup2\n      0x01\n      add\n      swap1\n      dup2\n      tag_188\n      swap2\n      swap1\n      tag_172\n      jump\t// in\n    tag_188:\n      pop\n      0x40\n      dup3\n      add\n      mload\n      dup2\n      0x02\n      add\n      sstore\n      swap1\n      pop\n      pop\n        /* \"wmbToken.sol\":4098:4102  temp */\n      dup1\n        /* \"wmbToken.sol\":4092:4102  cur = temp */\n      swap3\n      pop\n        /* \"wmbToken.sol\":3988:4118  {... */\n      pop\n        /* \"wmbToken.sol\":3950:4118  if(leaders[i].distance < cur.distance){... */\n    tag_176:\n        /* \"wmbToken.sol\":4132:4135  i++ */\n      dup1\n      dup1\n      tag_189\n      swap1\n      tag_190\n      jump\t// in\n    tag_189:\n      swap2\n      pop\n      pop\n        /* \"wmbToken.sol\":3790:4147  while(i < 5){... */\n      jump(tag_161)\n    tag_162:\n        /* \"wmbToken.sol\":3629:4154  {... */\n      pop\n      pop\n        /* \"wmbToken.sol\":3555:4154  function updateLeaderBoard(uint newDistance, address accountAdd) internal {... */\n    tag_155:\n      pop\n      pop\n      jump\t// out\n        /* \"#utility.yul\":7:106   */\n    tag_191:\n        /* \"#utility.yul\":59:65   */\n      0x00\n        /* \"#utility.yul\":93:98   */\n      dup2\n        /* \"#utility.yul\":87:99   */\n      mload\n        /* \"#utility.yul\":77:99   */\n      swap1\n      pop\n        /* \"#utility.yul\":7:106   */\n      swap2\n      swap1\n      pop\n      jump\t// out\n        /* \"#utility.yul\":112:281   */\n    tag_192:\n        /* \"#utility.yul\":196:207   */\n      0x00\n        /* \"#utility.yul\":230:236   */\n      dup3\n        /* \"#utility.yul\":225:228   */\n      dup3\n        /* \"#utility.yul\":218:237   */\n      mstore\n        /* \"#utility.yul\":270:274   */\n      0x20\n        /* \"#utility.yul\":265:268   */\n      dup3\n        /* \"#utility.yul\":261:275   */\n      add\n        /* \"#utility.yul\":246:275   */\n      swap1\n      pop\n        /* \"#utility.yul\":112:281   */\n      swap3\n      swap2\n      pop\n      pop\n      jump\t// out\n        /* \"#utility.yul\":287:533   */\n    tag_193:\n        /* \"#utility.yul\":368:369   */\n      0x00\n        /* \"#utility.yul\":378:491   */\n    tag_243:\n        /* \"#utility.yul\":392:398   */\n      dup4\n        /* \"#utility.yul\":389:390   */\n      dup2\n        /* \"#utility.yul\":386:399   */\n      lt\n        /* \"#utility.yul\":378:491   */\n      iszero\n      tag_245\n      jumpi\n        /* \"#utility.yul\":477:478   */\n      dup1\n        /* \"#utility.yul\":472:475   */\n      dup3\n        /* \"#utility.yul\":468:479   */\n      add\n        /* \"#utility.yul\":462:480   */\n      mload\n        /* \"#utility.yul\":458:459   */\n      dup2\n        /* \"#utility.yul\":453:456   */\n      dup5\n        /* \"#utility.yul\":449:460   */\n      add\n        /* \"#utility.yul\":442:481   */\n      mstore\n        /* \"#utility.yul\":414:416   */\n      0x20\n        /* \"#utility.yul\":411:412   */\n      dup2\n        /* \"#utility.yul\":407:417   */\n      add\n        /* \"#utility.yul\":402:417   */\n      swap1\n      pop\n        /* \"#utility.yul\":378:491   */\n      jump(tag_243)\n    tag_245:\n        /* \"#utility.yul\":525:526   */\n      0x00\n        /* \"#utility.yul\":516:522   */\n      dup5\n        /* \"#utility.yul\":511:514   */\n      dup5\n        /* \"#utility.yul\":507:523   */\n      add\n        /* \"#utility.yul\":500:527   */\n      mstore\n        /* \"#utility.yul\":349:533   */\n      pop\n        /* \"#utility.yul\":287:533   */\n      pop\n      pop\n      pop\n      jump\t// out\n        /* \"#utility.yul\":539:641   */\n    tag_194:\n        /* \"#utility.yul\":580:586   */\n      0x00\n        /* \"#utility.yul\":631:633   */\n      0x1f\n        /* \"#utility.yul\":627:634   */\n      not\n        /* \"#utility.yul\":622:624   */\n      0x1f\n        /* \"#utility.yul\":615:620   */\n      dup4\n        /* \"#utility.yul\":611:625   */\n      add\n        /* \"#utility.yul\":607:635   */\n      and\n        /* \"#utility.yul\":597:635   */\n      swap1\n      pop\n        /* \"#utility.yul\":539:641   */\n      swap2\n      swap1\n      pop\n      jump\t// out\n        /* \"#utility.yul\":647:1024   */\n    tag_195:\n        /* \"#utility.yul\":735:738   */\n      0x00\n        /* \"#utility.yul\":763:802   */\n      tag_248\n        /* \"#utility.yul\":796:801   */\n      dup3\n        /* \"#utility.yul\":763:802   */\n      tag_191\n      jump\t// in\n    tag_248:\n        /* \"#utility.yul\":818:889   */\n      tag_249\n        /* \"#utility.yul\":882:888   */\n      dup2\n        /* \"#utility.yul\":877:880   */\n      dup6\n        /* \"#utility.yul\":818:889   */\n      tag_192\n      jump\t// in\n    tag_249:\n        /* \"#utility.yul\":811:889   */\n      swap4\n      pop\n        /* \"#utility.yul\":898:963   */\n      tag_250\n        /* \"#utility.yul\":956:962   */\n      dup2\n        /* \"#utility.yul\":951:954   */\n      dup6\n        /* \"#utility.yul\":944:948   */\n      0x20\n        /* \"#utility.yul\":937:942   */\n      dup7\n        /* \"#utility.yul\":933:949   */\n      add\n        /* \"#utility.yul\":898:963   */\n      tag_193\n      jump\t// in\n    tag_250:\n        /* \"#utility.yul\":988:1017   */\n      tag_251\n        /* \"#utility.yul\":1010:1016   */\n      dup2\n        /* \"#utility.yul\":988:1017   */\n      tag_194\n      jump\t// in\n    tag_251:\n        /* \"#utility.yul\":983:986   */\n      dup5\n        /* \"#utility.yul\":979:1018   */\n      add\n        /* \"#utility.yul\":972:1018   */\n      swap2\n      pop\n        /* \"#utility.yul\":739:1024   */\n      pop\n        /* \"#utility.yul\":647:1024   */\n      swap3\n      swap2\n      pop\n      pop\n      jump\t// out\n        /* \"#utility.yul\":1030:1343   */\n    tag_26:\n        /* \"#utility.yul\":1143:1147   */\n      0x00\n        /* \"#utility.yul\":1181:1183   */\n      0x20\n        /* \"#utility.yul\":1170:1179   */\n      dup3\n        /* \"#utility.yul\":1166:1184   */\n      add\n        /* \"#utility.yul\":1158:1184   */\n      swap1\n      pop\n        /* \"#utility.yul\":1230:1239   */\n      dup2\n        /* \"#utility.yul\":1224:1228   */\n      dup2\n        /* \"#utility.yul\":1220:1240   */\n      sub\n        /* \"#utility.yul\":1216:1217   */\n      0x00\n        /* \"#utility.yul\":1205:1214   */\n      dup4\n        /* \"#utility.yul\":1201:1218   */\n      add\n        /* \"#utility.yul\":1194:1241   */\n      mstore\n        /* \"#utility.yul\":1258:1336   */\n      tag_253\n        /* \"#utility.yul\":1331:1335   */\n      dup2\n        /* \"#utility.yul\":1322:1328   */\n      dup5\n        /* \"#utility.yul\":1258:1336   */\n      tag_195\n      jump\t// in\n    tag_253:\n        /* \"#utility.yul\":1250:1336   */\n      swap1\n      pop\n        /* \"#utility.yul\":1030:1343   */\n      swap3\n      swap2\n      pop\n      pop\n      jump\t// out\n        /* \"#utility.yul\":1430:1547   */\n    tag_197:\n        /* \"#utility.yul\":1539:1540   */\n      0x00\n        /* \"#utility.yul\":1536:1537   */\n      dup1\n        /* \"#utility.yul\":1529:1541   */\n      revert\n        /* \"#utility.yul\":1553:1670   */\n    tag_198:\n        /* \"#utility.yul\":1662:1663   */\n      0x00\n        /* \"#utility.yul\":1659:1660   */\n      dup1\n        /* \"#utility.yul\":1652:1664   */\n      revert\n        /* \"#utility.yul\":1676:1802   */\n    tag_199:\n        /* \"#utility.yul\":1713:1720   */\n      0x00\n        /* \"#utility.yul\":1753:1795   */\n      0xffffffffffffffffffffffffffffffffffffffff\n        /* \"#utility.yul\":1746:1751   */\n      dup3\n        /* \"#utility.yul\":1742:1796   */\n      and\n        /* \"#utility.yul\":1731:1796   */\n      swap1\n      pop\n        /* \"#utility.yul\":1676:1802   */\n      swap2\n      swap1\n      pop\n      jump\t// out\n        /* \"#utility.yul\":1808:1904   */\n    tag_200:\n        /* \"#utility.yul\":1845:1852   */\n      0x00\n        /* \"#utility.yul\":1874:1898   */\n      tag_259\n        /* \"#utility.yul\":1892:1897   */\n      dup3\n        /* \"#utility.yul\":1874:1898   */\n      tag_199\n      jump\t// in\n    tag_259:\n        /* \"#utility.yul\":1863:1898   */\n      swap1\n      pop\n        /* \"#utility.yul\":1808:1904   */\n      swap2\n      swap1\n      pop\n      jump\t// out\n        /* \"#utility.yul\":1910:2032   */\n    tag_201:\n        /* \"#utility.yul\":1983:2007   */\n      tag_261\n        /* \"#utility.yul\":2001:2006   */\n      dup2\n        /* \"#utility.yul\":1983:2007   */\n      tag_200\n      jump\t// in\n    tag_261:\n        /* \"#utility.yul\":1976:1981   */\n      dup2\n        /* \"#utility.yul\":1973:2008   */\n      eq\n        /* \"#utility.yul\":1963:2026   */\n      tag_262\n      jumpi\n        /* \"#utility.yul\":2022:2023   */\n      0x00\n        /* \"#utility.yul\":2019:2020   */\n      dup1\n        /* \"#utility.yul\":2012:2024   */\n      revert\n        /* \"#utility.yul\":1963:2026   */\n    tag_262:\n        /* \"#utility.yul\":1910:2032   */\n      pop\n      jump\t// out\n        /* \"#utility.yul\":2038:2177   */\n    tag_202:\n        /* \"#utility.yul\":2084:2089   */\n      0x00\n        /* \"#utility.yul\":2122:2128   */\n      dup2\n        /* \"#utility.yul\":2109:2129   */\n      calldataload\n        /* \"#utility.yul\":2100:2129   */\n      swap1\n      pop\n        /* \"#utility.yul\":2138:2171   */\n      tag_264\n        /* \"#utility.yul\":2165:2170   */\n      dup2\n        /* \"#utility.yul\":2138:2171   */\n      tag_201\n      jump\t// in\n    tag_264:\n        /* \"#utility.yul\":2038:2177   */\n      swap3\n      swap2\n      pop\n      pop\n      jump\t// out\n        /* \"#utility.yul\":2183:2260   */\n    tag_203:\n        /* \"#utility.yul\":2220:2227   */\n      0x00\n        /* \"#utility.yul\":2249:2254   */\n      dup2\n        /* \"#utility.yul\":2238:2254   */\n      swap1\n      pop\n        /* \"#utility.yul\":2183:2260   */\n      swap2\n      swap1\n      pop\n      jump\t// out\n        /* \"#utility.yul\":2266:2388   */\n    tag_204:\n        /* \"#utility.yul\":2339:2363   */\n      tag_267\n        /* \"#utility.yul\":2357:2362   */\n      dup2\n        /* \"#utility.yul\":2339:2363   */\n      tag_203\n      jump\t// in\n    tag_267:\n        /* \"#utility.yul\":2332:2337   */\n      dup2\n        /* \"#utility.yul\":2329:2364   */\n      eq\n        /* \"#utility.yul\":2319:2382   */\n      tag_268\n      jumpi\n        /* \"#utility.yul\":2378:2379   */\n      0x00\n        /* \"#utility.yul\":2375:2376   */\n      dup1\n        /* \"#utility.yul\":2368:2380   */\n      revert\n        /* \"#utility.yul\":2319:2382   */\n    tag_268:\n        /* \"#utility.yul\":2266:2388   */\n      pop\n      jump\t// out\n        /* \"#utility.yul\":2394:2533   */\n    tag_205:\n        /* \"#utility.yul\":2440:2445   */\n      0x00\n        /* \"#utility.yul\":2478:2484   */\n      dup2\n        /* \"#utility.yul\":2465:2485   */\n      calldataload\n        /* \"#utility.yul\":2456:2485   */\n      swap1\n      pop\n        /* \"#utility.yul\":2494:2527   */\n      tag_270\n        /* \"#utility.yul\":2521:2526   */\n      dup2\n        /* \"#utility.yul\":2494:2527   */\n      tag_204\n      jump\t// in\n    tag_270:\n        /* \"#utility.yul\":2394:2533   */\n      swap3\n      swap2\n      pop\n      pop\n      jump\t// out\n        /* \"#utility.yul\":2539:3013   */\n    tag_29:\n        /* \"#utility.yul\":2607:2613   */\n      0x00\n        /* \"#utility.yul\":2615:2621   */\n      dup1\n        /* \"#utility.yul\":2664:2666   */\n      0x40\n        /* \"#utility.yul\":2652:2661   */\n      dup4\n        /* \"#utility.yul\":2643:2650   */\n      dup6\n        /* \"#utility.yul\":2639:2662   */\n      sub\n        /* \"#utility.yul\":2635:2667   */\n      slt\n        /* \"#utility.yul\":2632:2751   */\n      iszero\n      tag_272\n      jumpi\n        /* \"#utility.yul\":2670:2749   */\n      tag_273\n      tag_197\n      jump\t// in\n    tag_273:\n        /* \"#utility.yul\":2632:2751   */\n    tag_272:\n        /* \"#utility.yul\":2790:2791   */\n      0x00\n        /* \"#utility.yul\":2815:2868   */\n      tag_274\n        /* \"#utility.yul\":2860:2867   */\n      dup6\n        /* \"#utility.yul\":2851:2857   */\n      dup3\n        /* \"#utility.yul\":2840:2849   */\n      dup7\n        /* \"#utility.yul\":2836:2858   */\n      add\n        /* \"#utility.yul\":2815:2868   */\n      tag_202\n      jump\t// in\n    tag_274:\n        /* \"#utility.yul\":2805:2868   */\n      swap3\n      pop\n        /* \"#utility.yul\":2761:2878   */\n      pop\n        /* \"#utility.yul\":2917:2919   */\n      0x20\n        /* \"#utility.yul\":2943:2996   */\n      tag_275\n        /* \"#utility.yul\":2988:2995   */\n      dup6\n        /* \"#utility.yul\":2979:2985   */\n      dup3\n        /* \"#utility.yul\":2968:2977   */\n      dup7\n        /* \"#utility.yul\":2964:2986   */\n      add\n        /* \"#utility.yul\":2943:2996   */\n      tag_205\n      jump\t// in\n    tag_275:\n        /* \"#utility.yul\":2933:2996   */\n      swap2\n      pop\n        /* \"#utility.yul\":2888:3006   */\n      pop\n        /* \"#utility.yul\":2539:3013   */\n      swap3\n      pop\n      swap3\n      swap1\n      pop\n      jump\t// out\n        /* \"#utility.yul\":3019:3109   */\n    tag_206:\n        /* \"#utility.yul\":3053:3060   */\n      0x00\n        /* \"#utility.yul\":3096:3101   */\n      dup2\n        /* \"#utility.yul\":3089:3102   */\n      iszero\n        /* \"#utility.yul\":3082:3103   */\n      iszero\n        /* \"#utility.yul\":3071:3103   */\n      swap1\n      pop\n        /* \"#utility.yul\":3019:3109   */\n      swap2\n      swap1\n      pop\n      jump\t// out\n        /* \"#utility.yul\":3115:3224   */\n    tag_207:\n        /* \"#utility.yul\":3196:3217   */\n      tag_278\n        /* \"#utility.yul\":3211:3216   */\n      dup2\n        /* \"#utility.yul\":3196:3217   */\n      tag_206\n      jump\t// in\n    tag_278:\n        /* \"#utility.yul\":3191:3194   */\n      dup3\n        /* \"#utility.yul\":3184:3218   */\n      mstore\n        /* \"#utility.yul\":3115:3224   */\n      pop\n      pop\n      jump\t// out\n        /* \"#utility.yul\":3230:3440   */\n    tag_32:\n        /* \"#utility.yul\":3317:3321   */\n      0x00\n        /* \"#utility.yul\":3355:3357   */\n      0x20\n        /* \"#utility.yul\":3344:3353   */\n      dup3\n        /* \"#utility.yul\":3340:3358   */\n      add\n        /* \"#utility.yul\":3332:3358   */\n      swap1\n      pop\n        /* \"#utility.yul\":3368:3433   */\n      tag_280\n        /* \"#utility.yul\":3430:3431   */\n      0x00\n        /* \"#utility.yul\":3419:3428   */\n      dup4\n        /* \"#utility.yul\":3415:3432   */\n      add\n        /* \"#utility.yul\":3406:3412   */\n      dup5\n        /* \"#utility.yul\":3368:3433   */\n      tag_207\n      jump\t// in\n    tag_280:\n        /* \"#utility.yul\":3230:3440   */\n      swap3\n      swap2\n      pop\n      pop\n      jump\t// out\n        /* \"#utility.yul\":3446:3775   */\n    tag_35:\n        /* \"#utility.yul\":3505:3511   */\n      0x00\n        /* \"#utility.yul\":3554:3556   */\n      0x20\n        /* \"#utility.yul\":3542:3551   */\n      dup3\n        /* \"#utility.yul\":3533:3540   */\n      dup5\n        /* \"#utility.yul\":3529:3552   */\n      sub\n        /* \"#utility.yul\":3525:3557   */\n      slt\n        /* \"#utility.yul\":3522:3641   */\n      iszero\n      tag_282\n      jumpi\n        /* \"#utility.yul\":3560:3639   */\n      tag_283\n      tag_197\n      jump\t// in\n    tag_283:\n        /* \"#utility.yul\":3522:3641   */\n    tag_282:\n        /* \"#utility.yul\":3680:3681   */\n      0x00\n        /* \"#utility.yul\":3705:3758   */\n      tag_284\n        /* \"#utility.yul\":3750:3757   */\n      dup5\n        /* \"#utility.yul\":3741:3747   */\n      dup3\n        /* \"#utility.yul\":3730:3739   */\n      dup6\n        /* \"#utility.yul\":3726:3748   */\n      add\n        /* \"#utility.yul\":3705:3758   */\n      tag_202\n      jump\t// in\n    tag_284:\n        /* \"#utility.yul\":3695:3758   */\n      swap2\n      pop\n        /* \"#utility.yul\":3651:3768   */\n      pop\n        /* \"#utility.yul\":3446:3775   */\n      swap3\n      swap2\n      pop\n      pop\n      jump\t// out\n        /* \"#utility.yul\":3781:3899   */\n    tag_208:\n        /* \"#utility.yul\":3868:3892   */\n      tag_286\n        /* \"#utility.yul\":3886:3891   */\n      dup2\n        /* \"#utility.yul\":3868:3892   */\n      tag_203\n      jump\t// in\n    tag_286:\n        /* \"#utility.yul\":3863:3866   */\n      dup3\n        /* \"#utility.yul\":3856:3893   */\n      mstore\n        /* \"#utility.yul\":3781:3899   */\n      pop\n      pop\n      jump\t// out\n        /* \"#utility.yul\":3905:4127   */\n    tag_41:\n        /* \"#utility.yul\":3998:4002   */\n      0x00\n        /* \"#utility.yul\":4036:4038   */\n      0x20\n        /* \"#utility.yul\":4025:4034   */\n      dup3\n        /* \"#utility.yul\":4021:4039   */\n      add\n        /* \"#utility.yul\":4013:4039   */\n      swap1\n      pop\n        /* \"#utility.yul\":4049:4120   */\n      tag_288\n        /* \"#utility.yul\":4117:4118   */\n      0x00\n        /* \"#utility.yul\":4106:4115   */\n      dup4\n        /* \"#utility.yul\":4102:4119   */\n      add\n        /* \"#utility.yul\":4093:4099   */\n      dup5\n        /* \"#utility.yul\":4049:4120   */\n      tag_208\n      jump\t// in\n    tag_288:\n        /* \"#utility.yul\":3905:4127   */\n      swap3\n      swap2\n      pop\n      pop\n      jump\t// out\n        /* \"#utility.yul\":4133:4752   */\n    tag_44:\n        /* \"#utility.yul\":4210:4216   */\n      0x00\n        /* \"#utility.yul\":4218:4224   */\n      dup1\n        /* \"#utility.yul\":4226:4232   */\n      0x00\n        /* \"#utility.yul\":4275:4277   */\n      0x60\n        /* \"#utility.yul\":4263:4272   */\n      dup5\n        /* \"#utility.yul\":4254:4261   */\n      dup7\n        /* \"#utility.yul\":4250:4273   */\n      sub\n        /* \"#utility.yul\":4246:4278   */\n      slt\n        /* \"#utility.yul\":4243:4362   */\n      iszero\n      tag_290\n      jumpi\n        /* \"#utility.yul\":4281:4360   */\n      tag_291\n      tag_197\n      jump\t// in\n    tag_291:\n        /* \"#utility.yul\":4243:4362   */\n    tag_290:\n        /* \"#utility.yul\":4401:4402   */\n      0x00\n        /* \"#utility.yul\":4426:4479   */\n      tag_292\n        /* \"#utility.yul\":4471:4478   */\n      dup7\n        /* \"#utility.yul\":4462:4468   */\n      dup3\n        /* \"#utility.yul\":4451:4460   */\n      dup8\n        /* \"#utility.yul\":4447:4469   */\n      add\n        /* \"#utility.yul\":4426:4479   */\n      tag_202\n      jump\t// in\n    tag_292:\n        /* \"#utility.yul\":4416:4479   */\n      swap4\n      pop\n        /* \"#utility.yul\":4372:4489   */\n      pop\n        /* \"#utility.yul\":4528:4530   */\n      0x20\n        /* \"#utility.yul\":4554:4607   */\n      tag_293\n        /* \"#utility.yul\":4599:4606   */\n      dup7\n        /* \"#utility.yul\":4590:4596   */\n      dup3\n        /* \"#utility.yul\":4579:4588   */\n      dup8\n        /* \"#utility.yul\":4575:4597   */\n      add\n        /* \"#utility.yul\":4554:4607   */\n      tag_202\n      jump\t// in\n    tag_293:\n        /* \"#utility.yul\":4544:4607   */\n      swap3\n      pop\n        /* \"#utility.yul\":4499:4617   */\n      pop\n        /* \"#utility.yul\":4656:4658   */\n      0x40\n        /* \"#utility.yul\":4682:4735   */\n      tag_294\n        /* \"#utility.yul\":4727:4734   */\n      dup7\n        /* \"#utility.yul\":4718:4724   */\n      dup3\n        /* \"#utility.yul\":4707:4716   */\n      dup8\n        /* \"#utility.yul\":4703:4725   */\n      add\n        /* \"#utility.yul\":4682:4735   */\n      tag_205\n      jump\t// in\n    tag_294:\n        /* \"#utility.yul\":4672:4735   */\n      swap2\n      pop\n        /* \"#utility.yul\":4627:4745   */\n      pop\n        /* \"#utility.yul\":4133:4752   */\n      swap3\n      pop\n      swap3\n      pop\n      swap3\n      jump\t// out\n        /* \"#utility.yul\":4758:4844   */\n    tag_209:\n        /* \"#utility.yul\":4793:4800   */\n      0x00\n        /* \"#utility.yul\":4833:4837   */\n      0xff\n        /* \"#utility.yul\":4826:4831   */\n      dup3\n        /* \"#utility.yul\":4822:4838   */\n      and\n        /* \"#utility.yul\":4811:4838   */\n      swap1\n      pop\n        /* \"#utility.yul\":4758:4844   */\n      swap2\n      swap1\n      pop\n      jump\t// out\n        /* \"#utility.yul\":4850:4962   */\n    tag_210:\n        /* \"#utility.yul\":4933:4955   */\n      tag_297\n        /* \"#utility.yul\":4949:4954   */\n      dup2\n        /* \"#utility.yul\":4933:4955   */\n      tag_209\n      jump\t// in\n    tag_297:\n        /* \"#utility.yul\":4928:4931   */\n      dup3\n        /* \"#utility.yul\":4921:4956   */\n      mstore\n        /* \"#utility.yul\":4850:4962   */\n      pop\n      pop\n      jump\t// out\n        /* \"#utility.yul\":4968:5182   */\n    tag_50:\n        /* \"#utility.yul\":5057:5061   */\n      0x00\n        /* \"#utility.yul\":5095:5097   */\n      0x20\n        /* \"#utility.yul\":5084:5093   */\n      dup3\n        /* \"#utility.yul\":5080:5098   */\n      add\n        /* \"#utility.yul\":5072:5098   */\n      swap1\n      pop\n        /* \"#utility.yul\":5108:5175   */\n      tag_299\n        /* \"#utility.yul\":5172:5173   */\n      0x00\n        /* \"#utility.yul\":5161:5170   */\n      dup4\n        /* \"#utility.yul\":5157:5174   */\n      add\n        /* \"#utility.yul\":5148:5154   */\n      dup5\n        /* \"#utility.yul\":5108:5175   */\n      tag_210\n      jump\t// in\n    tag_299:\n        /* \"#utility.yul\":4968:5182   */\n      swap3\n      swap2\n      pop\n      pop\n      jump\t// out\n        /* \"#utility.yul\":5188:5517   */\n    tag_53:\n        /* \"#utility.yul\":5247:5253   */\n      0x00\n        /* \"#utility.yul\":5296:5298   */\n      0x20\n        /* \"#utility.yul\":5284:5293   */\n      dup3\n        /* \"#utility.yul\":5275:5282   */\n      dup5\n        /* \"#utility.yul\":5271:5294   */\n      sub\n        /* \"#utility.yul\":5267:5299   */\n      slt\n        /* \"#utility.yul\":5264:5383   */\n      iszero\n      tag_301\n      jumpi\n        /* \"#utility.yul\":5302:5381   */\n      tag_302\n      tag_197\n      jump\t// in\n    tag_302:\n        /* \"#utility.yul\":5264:5383   */\n    tag_301:\n        /* \"#utility.yul\":5422:5423   */\n      0x00\n        /* \"#utility.yul\":5447:5500   */\n      tag_303\n        /* \"#utility.yul\":5492:5499   */\n      dup5\n        /* \"#utility.yul\":5483:5489   */\n      dup3\n        /* \"#utility.yul\":5472:5481   */\n      dup6\n        /* \"#utility.yul\":5468:5490   */\n      add\n        /* \"#utility.yul\":5447:5500   */\n      tag_205\n      jump\t// in\n    tag_303:\n        /* \"#utility.yul\":5437:5500   */\n      swap2\n      pop\n        /* \"#utility.yul\":5393:5510   */\n      pop\n        /* \"#utility.yul\":5188:5517   */\n      swap3\n      swap2\n      pop\n      pop\n      jump\t// out\n        /* \"#utility.yul\":5523:5640   */\n    tag_211:\n        /* \"#utility.yul\":5632:5633   */\n      0x00\n        /* \"#utility.yul\":5629:5630   */\n      dup1\n        /* \"#utility.yul\":5622:5634   */\n      revert\n        /* \"#utility.yul\":5646:5763   */\n    tag_212:\n        /* \"#utility.yul\":5755:5756   */\n      0x00\n        /* \"#utility.yul\":5752:5753   */\n      dup1\n        /* \"#utility.yul\":5745:5757   */\n      revert\n        /* \"#utility.yul\":5769:5886   */\n    tag_213:\n        /* \"#utility.yul\":5878:5879   */\n      0x00\n        /* \"#utility.yul\":5875:5876   */\n      dup1\n        /* \"#utility.yul\":5868:5880   */\n      revert\n        /* \"#utility.yul\":5906:6459   */\n    tag_214:\n        /* \"#utility.yul\":5964:5972   */\n      0x00\n        /* \"#utility.yul\":5974:5980   */\n      dup1\n        /* \"#utility.yul\":6024:6027   */\n      dup4\n        /* \"#utility.yul\":6017:6021   */\n      0x1f\n        /* \"#utility.yul\":6009:6015   */\n      dup5\n        /* \"#utility.yul\":6005:6022   */\n      add\n        /* \"#utility.yul\":6001:6028   */\n      slt\n        /* \"#utility.yul\":5991:6113   */\n      tag_308\n      jumpi\n        /* \"#utility.yul\":6032:6111   */\n      tag_309\n      tag_211\n      jump\t// in\n    tag_309:\n        /* \"#utility.yul\":5991:6113   */\n    tag_308:\n        /* \"#utility.yul\":6145:6151   */\n      dup3\n        /* \"#utility.yul\":6132:6152   */\n      calldataload\n        /* \"#utility.yul\":6122:6152   */\n      swap1\n      pop\n        /* \"#utility.yul\":6175:6193   */\n      0xffffffffffffffff\n        /* \"#utility.yul\":6167:6173   */\n      dup2\n        /* \"#utility.yul\":6164:6194   */\n      gt\n        /* \"#utility.yul\":6161:6278   */\n      iszero\n      tag_310\n      jumpi\n        /* \"#utility.yul\":6197:6276   */\n      tag_311\n      tag_212\n      jump\t// in\n    tag_311:\n        /* \"#utility.yul\":6161:6278   */\n    tag_310:\n        /* \"#utility.yul\":6311:6315   */\n      0x20\n        /* \"#utility.yul\":6303:6309   */\n      dup4\n        /* \"#utility.yul\":6299:6316   */\n      add\n        /* \"#utility.yul\":6287:6316   */\n      swap2\n      pop\n        /* \"#utility.yul\":6365:6368   */\n      dup4\n        /* \"#utility.yul\":6357:6361   */\n      0x01\n        /* \"#utility.yul\":6349:6355   */\n      dup3\n        /* \"#utility.yul\":6345:6362   */\n      mul\n        /* \"#utility.yul\":6335:6343   */\n      dup4\n        /* \"#utility.yul\":6331:6363   */\n      add\n        /* \"#utility.yul\":6328:6369   */\n      gt\n        /* \"#utility.yul\":6325:6453   */\n      iszero\n      tag_312\n      jumpi\n        /* \"#utility.yul\":6372:6451   */\n      tag_313\n      tag_213\n      jump\t// in\n    tag_313:\n        /* \"#utility.yul\":6325:6453   */\n    tag_312:\n        /* \"#utility.yul\":5906:6459   */\n      swap3\n      pop\n      swap3\n      swap1\n      pop\n      jump\t// out\n        /* \"#utility.yul\":6465:6994   */\n    tag_57:\n        /* \"#utility.yul\":6536:6542   */\n      0x00\n        /* \"#utility.yul\":6544:6550   */\n      dup1\n        /* \"#utility.yul\":6593:6595   */\n      0x20\n        /* \"#utility.yul\":6581:6590   */\n      dup4\n        /* \"#utility.yul\":6572:6579   */\n      dup6\n        /* \"#utility.yul\":6568:6591   */\n      sub\n        /* \"#utility.yul\":6564:6596   */\n      slt\n        /* \"#utility.yul\":6561:6680   */\n      iszero\n      tag_315\n      jumpi\n        /* \"#utility.yul\":6599:6678   */\n      tag_316\n      tag_197\n      jump\t// in\n    tag_316:\n        /* \"#utility.yul\":6561:6680   */\n    tag_315:\n        /* \"#utility.yul\":6747:6748   */\n      0x00\n        /* \"#utility.yul\":6736:6745   */\n      dup4\n        /* \"#utility.yul\":6732:6749   */\n      add\n        /* \"#utility.yul\":6719:6750   */\n      calldataload\n        /* \"#utility.yul\":6777:6795   */\n      0xffffffffffffffff\n        /* \"#utility.yul\":6769:6775   */\n      dup2\n        /* \"#utility.yul\":6766:6796   */\n      gt\n        /* \"#utility.yul\":6763:6880   */\n      iszero\n      tag_317\n      jumpi\n        /* \"#utility.yul\":6799:6878   */\n      tag_318\n      tag_198\n      jump\t// in\n    tag_318:\n        /* \"#utility.yul\":6763:6880   */\n    tag_317:\n        /* \"#utility.yul\":6912:6977   */\n      tag_319\n        /* \"#utility.yul\":6969:6976   */\n      dup6\n        /* \"#utility.yul\":6960:6966   */\n      dup3\n        /* \"#utility.yul\":6949:6958   */\n      dup7\n        /* \"#utility.yul\":6945:6967   */\n      add\n        /* \"#utility.yul\":6912:6977   */\n      tag_214\n      jump\t// in\n    tag_319:\n        /* \"#utility.yul\":6894:6977   */\n      swap3\n      pop\n      swap3\n      pop\n        /* \"#utility.yul\":6690:6987   */\n      pop\n        /* \"#utility.yul\":6465:6994   */\n      swap3\n      pop\n      swap3\n      swap1\n      pop\n      jump\t// out\n        /* \"#utility.yul\":7000:7118   */\n    tag_215:\n        /* \"#utility.yul\":7087:7111   */\n      tag_321\n        /* \"#utility.yul\":7105:7110   */\n      dup2\n        /* \"#utility.yul\":7087:7111   */\n      tag_200\n      jump\t// in\n    tag_321:\n        /* \"#utility.yul\":7082:7085   */\n      dup3\n        /* \"#utility.yul\":7075:7112   */\n      mstore\n        /* \"#utility.yul\":7000:7118   */\n      pop\n      pop\n      jump\t// out\n        /* \"#utility.yul\":7124:7657   */\n    tag_79:\n        /* \"#utility.yul\":7293:7297   */\n      0x00\n        /* \"#utility.yul\":7331:7333   */\n      0x60\n        /* \"#utility.yul\":7320:7329   */\n      dup3\n        /* \"#utility.yul\":7316:7334   */\n      add\n        /* \"#utility.yul\":7308:7334   */\n      swap1\n      pop\n        /* \"#utility.yul\":7344:7415   */\n      tag_323\n        /* \"#utility.yul\":7412:7413   */\n      0x00\n        /* \"#utility.yul\":7401:7410   */\n      dup4\n        /* \"#utility.yul\":7397:7414   */\n      add\n        /* \"#utility.yul\":7388:7394   */\n      dup7\n        /* \"#utility.yul\":7344:7415   */\n      tag_215\n      jump\t// in\n    tag_323:\n        /* \"#utility.yul\":7462:7471   */\n      dup2\n        /* \"#utility.yul\":7456:7460   */\n      dup2\n        /* \"#utility.yul\":7452:7472   */\n      sub\n        /* \"#utility.yul\":7447:7449   */\n      0x20\n        /* \"#utility.yul\":7436:7445   */\n      dup4\n        /* \"#utility.yul\":7432:7450   */\n      add\n        /* \"#utility.yul\":7425:7473   */\n      mstore\n        /* \"#utility.yul\":7490:7568   */\n      tag_324\n        /* \"#utility.yul\":7563:7567   */\n      dup2\n        /* \"#utility.yul\":7554:7560   */\n      dup6\n        /* \"#utility.yul\":7490:7568   */\n      tag_195\n      jump\t// in\n    tag_324:\n        /* \"#utility.yul\":7482:7568   */\n      swap1\n      pop\n        /* \"#utility.yul\":7578:7650   */\n      tag_325\n        /* \"#utility.yul\":7646:7648   */\n      0x40\n        /* \"#utility.yul\":7635:7644   */\n      dup4\n        /* \"#utility.yul\":7631:7649   */\n      add\n        /* \"#utility.yul\":7622:7628   */\n      dup5\n        /* \"#utility.yul\":7578:7650   */\n      tag_208\n      jump\t// in\n    tag_325:\n        /* \"#utility.yul\":7124:7657   */\n      swap5\n      swap4\n      pop\n      pop\n      pop\n      pop\n      jump\t// out\n        /* \"#utility.yul\":7663:8137   */\n    tag_89:\n        /* \"#utility.yul\":7731:7737   */\n      0x00\n        /* \"#utility.yul\":7739:7745   */\n      dup1\n        /* \"#utility.yul\":7788:7790   */\n      0x40\n        /* \"#utility.yul\":7776:7785   */\n      dup4\n        /* \"#utility.yul\":7767:7774   */\n      dup6\n        /* \"#utility.yul\":7763:7786   */\n      sub\n        /* \"#utility.yul\":7759:7791   */\n      slt\n        /* \"#utility.yul\":7756:7875   */\n      iszero\n      tag_327\n      jumpi\n        /* \"#utility.yul\":7794:7873   */\n      tag_328\n      tag_197\n      jump\t// in\n    tag_328:\n        /* \"#utility.yul\":7756:7875   */\n    tag_327:\n        /* \"#utility.yul\":7914:7915   */\n      0x00\n        /* \"#utility.yul\":7939:7992   */\n      tag_329\n        /* \"#utility.yul\":7984:7991   */\n      dup6\n        /* \"#utility.yul\":7975:7981   */\n      dup3\n        /* \"#utility.yul\":7964:7973   */\n      dup7\n        /* \"#utility.yul\":7960:7982   */\n      add\n        /* \"#utility.yul\":7939:7992   */\n      tag_202\n      jump\t// in\n    tag_329:\n        /* \"#utility.yul\":7929:7992   */\n      swap3\n      pop\n        /* \"#utility.yul\":7885:8002   */\n      pop\n        /* \"#utility.yul\":8041:8043   */\n      0x20\n        /* \"#utility.yul\":8067:8120   */\n      tag_330\n        /* \"#utility.yul\":8112:8119   */\n      dup6\n        /* \"#utility.yul\":8103:8109   */\n      dup3\n        /* \"#utility.yul\":8092:8101   */\n      dup7\n        /* \"#utility.yul\":8088:8110   */\n      add\n        /* \"#utility.yul\":8067:8120   */\n      tag_202\n      jump\t// in\n    tag_330:\n        /* \"#utility.yul\":8057:8120   */\n      swap2\n      pop\n        /* \"#utility.yul\":8012:8130   */\n      pop\n        /* \"#utility.yul\":7663:8137   */\n      swap3\n      pop\n      swap3\n      swap1\n      pop\n      jump\t// out\n        /* \"#utility.yul\":8143:8323   */\n    tag_216:\n        /* \"#utility.yul\":8191:8268   */\n      0x4e487b7100000000000000000000000000000000000000000000000000000000\n        /* \"#utility.yul\":8188:8189   */\n      0x00\n        /* \"#utility.yul\":8181:8269   */\n      mstore\n        /* \"#utility.yul\":8288:8292   */\n      0x22\n        /* \"#utility.yul\":8285:8286   */\n      0x04\n        /* \"#utility.yul\":8278:8293   */\n      mstore\n        /* \"#utility.yul\":8312:8316   */\n      0x24\n        /* \"#utility.yul\":8309:8310   */\n      0x00\n        /* \"#utility.yul\":8302:8317   */\n      revert\n        /* \"#utility.yul\":8329:8649   */\n    tag_93:\n        /* \"#utility.yul\":8373:8379   */\n      0x00\n        /* \"#utility.yul\":8410:8411   */\n      0x02\n        /* \"#utility.yul\":8404:8408   */\n      dup3\n        /* \"#utility.yul\":8400:8412   */\n      div\n        /* \"#utility.yul\":8390:8412   */\n      swap1\n      pop\n        /* \"#utility.yul\":8457:8458   */\n      0x01\n        /* \"#utility.yul\":8451:8455   */\n      dup3\n        /* \"#utility.yul\":8447:8459   */\n      and\n        /* \"#utility.yul\":8478:8496   */\n      dup1\n        /* \"#utility.yul\":8468:8549   */\n      tag_333\n      jumpi\n        /* \"#utility.yul\":8534:8538   */\n      0x7f\n        /* \"#utility.yul\":8526:8532   */\n      dup3\n        /* \"#utility.yul\":8522:8539   */\n      and\n        /* \"#utility.yul\":8512:8539   */\n      swap2\n      pop\n        /* \"#utility.yul\":8468:8549   */\n    tag_333:\n        /* \"#utility.yul\":8596:8598   */\n      0x20\n        /* \"#utility.yul\":8588:8594   */\n      dup3\n        /* \"#utility.yul\":8585:8599   */\n      lt\n        /* \"#utility.yul\":8565:8583   */\n      dup2\n        /* \"#utility.yul\":8562:8600   */\n      sub\n        /* \"#utility.yul\":8559:8643   */\n      tag_334\n      jumpi\n        /* \"#utility.yul\":8615:8633   */\n      tag_335\n      tag_216\n      jump\t// in\n    tag_335:\n        /* \"#utility.yul\":8559:8643   */\n    tag_334:\n        /* \"#utility.yul\":8380:8649   */\n      pop\n        /* \"#utility.yul\":8329:8649   */\n      swap2\n      swap1\n      pop\n      jump\t// out\n        /* \"#utility.yul\":8655:8837   */\n    tag_217:\n        /* \"#utility.yul\":8795:8829   */\n      0x4d6178696d756d20617070726f76616c206f66203120574d4220546f6b656e73\n        /* \"#utility.yul\":8791:8792   */\n      0x00\n        /* \"#utility.yul\":8783:8789   */\n      dup3\n        /* \"#utility.yul\":8779:8793   */\n      add\n        /* \"#utility.yul\":8772:8830   */\n      mstore\n        /* \"#utility.yul\":8655:8837   */\n      pop\n      jump\t// out\n        /* \"#utility.yul\":8843:9209   */\n    tag_218:\n        /* \"#utility.yul\":8985:8988   */\n      0x00\n        /* \"#utility.yul\":9006:9073   */\n      tag_338\n        /* \"#utility.yul\":9070:9072   */\n      0x20\n        /* \"#utility.yul\":9065:9068   */\n      dup4\n        /* \"#utility.yul\":9006:9073   */\n      tag_192\n      jump\t// in\n    tag_338:\n        /* \"#utility.yul\":8999:9073   */\n      swap2\n      pop\n        /* \"#utility.yul\":9082:9175   */\n      tag_339\n        /* \"#utility.yul\":9171:9174   */\n      dup3\n        /* \"#utility.yul\":9082:9175   */\n      tag_217\n      jump\t// in\n    tag_339:\n        /* \"#utility.yul\":9200:9202   */\n      0x20\n        /* \"#utility.yul\":9195:9198   */\n      dup3\n        /* \"#utility.yul\":9191:9203   */\n      add\n        /* \"#utility.yul\":9184:9203   */\n      swap1\n      pop\n        /* \"#utility.yul\":8843:9209   */\n      swap2\n      swap1\n      pop\n      jump\t// out\n        /* \"#utility.yul\":9215:9634   */\n    tag_101:\n        /* \"#utility.yul\":9381:9385   */\n      0x00\n        /* \"#utility.yul\":9419:9421   */\n      0x20\n        /* \"#utility.yul\":9408:9417   */\n      dup3\n        /* \"#utility.yul\":9404:9422   */\n      add\n        /* \"#utility.yul\":9396:9422   */\n      swap1\n      pop\n        /* \"#utility.yul\":9468:9477   */\n      dup2\n        /* \"#utility.yul\":9462:9466   */\n      dup2\n        /* \"#utility.yul\":9458:9478   */\n      sub\n        /* \"#utility.yul\":9454:9455   */\n      0x00\n        /* \"#utility.yul\":9443:9452   */\n      dup4\n        /* \"#utility.yul\":9439:9456   */\n      add\n        /* \"#utility.yul\":9432:9479   */\n      mstore\n        /* \"#utility.yul\":9496:9627   */\n      tag_341\n        /* \"#utility.yul\":9622:9626   */\n      dup2\n        /* \"#utility.yul\":9496:9627   */\n      tag_218\n      jump\t// in\n    tag_341:\n        /* \"#utility.yul\":9488:9627   */\n      swap1\n      pop\n        /* \"#utility.yul\":9215:9634   */\n      swap2\n      swap1\n      pop\n      jump\t// out\n        /* \"#utility.yul\":9640:9861   */\n    tag_219:\n        /* \"#utility.yul\":9780:9814   */\n      0x4d6178696d756d207472616e73666572206f6620302e3120574d4220546f6b65\n        /* \"#utility.yul\":9776:9777   */\n      0x00\n        /* \"#utility.yul\":9768:9774   */\n      dup3\n        /* \"#utility.yul\":9764:9778   */\n      add\n        /* \"#utility.yul\":9757:9815   */\n      mstore\n        /* \"#utility.yul\":9849:9853   */\n      0x6e73000000000000000000000000000000000000000000000000000000000000\n        /* \"#utility.yul\":9844:9846   */\n      0x20\n        /* \"#utility.yul\":9836:9842   */\n      dup3\n        /* \"#utility.yul\":9832:9847   */\n      add\n        /* \"#utility.yul\":9825:9854   */\n      mstore\n        /* \"#utility.yul\":9640:9861   */\n      pop\n      jump\t// out\n        /* \"#utility.yul\":9867:10233   */\n    tag_220:\n        /* \"#utility.yul\":10009:10012   */\n      0x00\n        /* \"#utility.yul\":10030:10097   */\n      tag_344\n        /* \"#utility.yul\":10094:10096   */\n      0x22\n        /* \"#utility.yul\":10089:10092   */\n      dup4\n        /* \"#utility.yul\":10030:10097   */\n      tag_192\n      jump\t// in\n    tag_344:\n        /* \"#utility.yul\":10023:10097   */\n      swap2\n      pop\n        /* \"#utility.yul\":10106:10199   */\n      tag_345\n        /* \"#utility.yul\":10195:10198   */\n      dup3\n        /* \"#utility.yul\":10106:10199   */\n      tag_219\n      jump\t// in\n    tag_345:\n        /* \"#utility.yul\":10224:10226   */\n      0x40\n        /* \"#utility.yul\":10219:10222   */\n      dup3\n        /* \"#utility.yul\":10215:10227   */\n      add\n        /* \"#utility.yul\":10208:10227   */\n      swap1\n      pop\n        /* \"#utility.yul\":9867:10233   */\n      swap2\n      swap1\n      pop\n      jump\t// out\n        /* \"#utility.yul\":10239:10658   */\n    tag_111:\n        /* \"#utility.yul\":10405:10409   */\n      0x00\n        /* \"#utility.yul\":10443:10445   */\n      0x20\n        /* \"#utility.yul\":10432:10441   */\n      dup3\n        /* \"#utility.yul\":10428:10446   */\n      add\n        /* \"#utility.yul\":10420:10446   */\n      swap1\n      pop\n        /* \"#utility.yul\":10492:10501   */\n      dup2\n        /* \"#utility.yul\":10486:10490   */\n      dup2\n        /* \"#utility.yul\":10482:10502   */\n      sub\n        /* \"#utility.yul\":10478:10479   */\n      0x00\n        /* \"#utility.yul\":10467:10476   */\n      dup4\n        /* \"#utility.yul\":10463:10480   */\n      add\n        /* \"#utility.yul\":10456:10503   */\n      mstore\n        /* \"#utility.yul\":10520:10651   */\n      tag_347\n        /* \"#utility.yul\":10646:10650   */\n      dup2\n        /* \"#utility.yul\":10520:10651   */\n      tag_220\n      jump\t// in\n    tag_347:\n        /* \"#utility.yul\":10512:10651   */\n      swap1\n      pop\n        /* \"#utility.yul\":10239:10658   */\n      swap2\n      swap1\n      pop\n      jump\t// out\n        /* \"#utility.yul\":10664:10844   */\n    tag_221:\n        /* \"#utility.yul\":10712:10789   */\n      0x4e487b7100000000000000000000000000000000000000000000000000000000\n        /* \"#utility.yul\":10709:10710   */\n      0x00\n        /* \"#utility.yul\":10702:10790   */\n      mstore\n        /* \"#utility.yul\":10809:10813   */\n      0x11\n        /* \"#utility.yul\":10806:10807   */\n      0x04\n        /* \"#utility.yul\":10799:10814   */\n      mstore\n        /* \"#utility.yul\":10833:10837   */\n      0x24\n        /* \"#utility.yul\":10830:10831   */\n      0x00\n        /* \"#utility.yul\":10823:10838   */\n      revert\n        /* \"#utility.yul\":10850:11044   */\n    tag_113:\n        /* \"#utility.yul\":10890:10894   */\n      0x00\n        /* \"#utility.yul\":10910:10930   */\n      tag_350\n        /* \"#utility.yul\":10928:10929   */\n      dup3\n        /* \"#utility.yul\":10910:10930   */\n      tag_203\n      jump\t// in\n    tag_350:\n        /* \"#utility.yul\":10905:10930   */\n      swap2\n      pop\n        /* \"#utility.yul\":10944:10964   */\n      tag_351\n        /* \"#utility.yul\":10962:10963   */\n      dup4\n        /* \"#utility.yul\":10944:10964   */\n      tag_203\n      jump\t// in\n    tag_351:\n        /* \"#utility.yul\":10939:10964   */\n      swap3\n      pop\n        /* \"#utility.yul\":10988:10989   */\n      dup3\n        /* \"#utility.yul\":10985:10986   */\n      dup3\n        /* \"#utility.yul\":10981:10990   */\n      sub\n        /* \"#utility.yul\":10973:10990   */\n      swap1\n      pop\n        /* \"#utility.yul\":11012:11013   */\n      dup2\n        /* \"#utility.yul\":11006:11010   */\n      dup2\n        /* \"#utility.yul\":11003:11014   */\n      gt\n        /* \"#utility.yul\":11000:11037   */\n      iszero\n      tag_352\n      jumpi\n        /* \"#utility.yul\":11017:11035   */\n      tag_353\n      tag_221\n      jump\t// in\n    tag_353:\n        /* \"#utility.yul\":11000:11037   */\n    tag_352:\n        /* \"#utility.yul\":10850:11044   */\n      swap3\n      swap2\n      pop\n      pop\n      jump\t// out\n        /* \"#utility.yul\":11050:11241   */\n    tag_116:\n        /* \"#utility.yul\":11090:11093   */\n      0x00\n        /* \"#utility.yul\":11109:11129   */\n      tag_355\n        /* \"#utility.yul\":11127:11128   */\n      dup3\n        /* \"#utility.yul\":11109:11129   */\n      tag_203\n      jump\t// in\n    tag_355:\n        /* \"#utility.yul\":11104:11129   */\n      swap2\n      pop\n        /* \"#utility.yul\":11143:11163   */\n      tag_356\n        /* \"#utility.yul\":11161:11162   */\n      dup4\n        /* \"#utility.yul\":11143:11163   */\n      tag_203\n      jump\t// in\n    tag_356:\n        /* \"#utility.yul\":11138:11163   */\n      swap3\n      pop\n        /* \"#utility.yul\":11186:11187   */\n      dup3\n        /* \"#utility.yul\":11183:11184   */\n      dup3\n        /* \"#utility.yul\":11179:11188   */\n      add\n        /* \"#utility.yul\":11172:11188   */\n      swap1\n      pop\n        /* \"#utility.yul\":11207:11210   */\n      dup1\n        /* \"#utility.yul\":11204:11205   */\n      dup3\n        /* \"#utility.yul\":11201:11211   */\n      gt\n        /* \"#utility.yul\":11198:11234   */\n      iszero\n      tag_357\n      jumpi\n        /* \"#utility.yul\":11214:11232   */\n      tag_358\n      tag_221\n      jump\t// in\n    tag_358:\n        /* \"#utility.yul\":11198:11234   */\n    tag_357:\n        /* \"#utility.yul\":11050:11241   */\n      swap3\n      swap2\n      pop\n      pop\n      jump\t// out\n        /* \"#utility.yul\":11247:11344   */\n    tag_222:\n        /* \"#utility.yul\":11306:11312   */\n      0x00\n        /* \"#utility.yul\":11334:11337   */\n      dup3\n        /* \"#utility.yul\":11324:11337   */\n      swap1\n      pop\n        /* \"#utility.yul\":11247:11344   */\n      swap3\n      swap2\n      pop\n      pop\n      jump\t// out\n        /* \"#utility.yul\":11350:11530   */\n    tag_223:\n        /* \"#utility.yul\":11398:11475   */\n      0x4e487b7100000000000000000000000000000000000000000000000000000000\n        /* \"#utility.yul\":11395:11396   */\n      0x00\n        /* \"#utility.yul\":11388:11476   */\n      mstore\n        /* \"#utility.yul\":11495:11499   */\n      0x41\n        /* \"#utility.yul\":11492:11493   */\n      0x04\n        /* \"#utility.yul\":11485:11500   */\n      mstore\n        /* \"#utility.yul\":11519:11523   */\n      0x24\n        /* \"#utility.yul\":11516:11517   */\n      0x00\n        /* \"#utility.yul\":11509:11524   */\n      revert\n        /* \"#utility.yul\":11536:11677   */\n    tag_224:\n        /* \"#utility.yul\":11585:11589   */\n      0x00\n        /* \"#utility.yul\":11608:11611   */\n      dup2\n        /* \"#utility.yul\":11600:11611   */\n      swap1\n      pop\n        /* \"#utility.yul\":11631:11634   */\n      dup2\n        /* \"#utility.yul\":11628:11629   */\n      0x00\n        /* \"#utility.yul\":11621:11635   */\n      mstore\n        /* \"#utility.yul\":11665:11669   */\n      0x20\n        /* \"#utility.yul\":11662:11663   */\n      0x00\n        /* \"#utility.yul\":11652:11670   */\n      keccak256\n        /* \"#utility.yul\":11644:11670   */\n      swap1\n      pop\n        /* \"#utility.yul\":11536:11677   */\n      swap2\n      swap1\n      pop\n      jump\t// out\n        /* \"#utility.yul\":11683:11776   */\n    tag_225:\n        /* \"#utility.yul\":11720:11726   */\n      0x00\n        /* \"#utility.yul\":11767:11769   */\n      0x20\n        /* \"#utility.yul\":11762:11764   */\n      0x1f\n        /* \"#utility.yul\":11755:11760   */\n      dup4\n        /* \"#utility.yul\":11751:11765   */\n      add\n        /* \"#utility.yul\":11747:11770   */\n      div\n        /* \"#utility.yul\":11737:11770   */\n      swap1\n      pop\n        /* \"#utility.yul\":11683:11776   */\n      swap2\n      swap1\n      pop\n      jump\t// out\n        /* \"#utility.yul\":11782:11889   */\n    tag_226:\n        /* \"#utility.yul\":11826:11834   */\n      0x00\n        /* \"#utility.yul\":11876:11881   */\n      dup3\n        /* \"#utility.yul\":11870:11874   */\n      dup3\n        /* \"#utility.yul\":11866:11882   */\n      shl\n        /* \"#utility.yul\":11845:11882   */\n      swap1\n      pop\n        /* \"#utility.yul\":11782:11889   */\n      swap3\n      swap2\n      pop\n      pop\n      jump\t// out\n        /* \"#utility.yul\":11895:12288   */\n    tag_227:\n        /* \"#utility.yul\":11964:11970   */\n      0x00\n        /* \"#utility.yul\":12014:12015   */\n      0x08\n        /* \"#utility.yul\":12002:12012   */\n      dup4\n        /* \"#utility.yul\":11998:12016   */\n      mul\n        /* \"#utility.yul\":12037:12134   */\n      tag_365\n        /* \"#utility.yul\":12067:12133   */\n      0xffffffffffffffffffffffffffffffffffffffffffffffffffffffffffffffff\n        /* \"#utility.yul\":12056:12065   */\n      dup3\n        /* \"#utility.yul\":12037:12134   */\n      tag_226\n      jump\t// in\n    tag_365:\n        /* \"#utility.yul\":12155:12194   */\n      tag_366\n        /* \"#utility.yul\":12185:12193   */\n      dup7\n        /* \"#utility.yul\":12174:12183   */\n      dup4\n        /* \"#utility.yul\":12155:12194   */\n      tag_226\n      jump\t// in\n    tag_366:\n        /* \"#utility.yul\":12143:12194   */\n      swap6\n      pop\n        /* \"#utility.yul\":12227:12231   */\n      dup1\n        /* \"#utility.yul\":12223:12232   */\n      not\n        /* \"#utility.yul\":12216:12221   */\n      dup5\n        /* \"#utility.yul\":12212:12233   */\n      and\n        /* \"#utility.yul\":12203:12233   */\n      swap4\n      pop\n        /* \"#utility.yul\":12276:12280   */\n      dup1\n        /* \"#utility.yul\":12266:12274   */\n      dup7\n        /* \"#utility.yul\":12262:12281   */\n      and\n        /* \"#utility.yul\":12255:12260   */\n      dup5\n        /* \"#utility.yul\":12252:12282   */\n      or\n        /* \"#utility.yul\":12242:12282   */\n      swap3\n      pop\n        /* \"#utility.yul\":11971:12288   */\n      pop\n      pop\n        /* \"#utility.yul\":11895:12288   */\n      swap4\n      swap3\n      pop\n      pop\n      pop\n      jump\t// out\n        /* \"#utility.yul\":12294:12354   */\n    tag_228:\n        /* \"#utility.yul\":12322:12325   */\n      0x00\n        /* \"#utility.yul\":12343:12348   */\n      dup2\n        /* \"#utility.yul\":12336:12348   */\n      swap1\n      pop\n        /* \"#utility.yul\":12294:12354   */\n      swap2\n      swap1\n      pop\n      jump\t// out\n        /* \"#utility.yul\":12360:12502   */\n    tag_229:\n        /* \"#utility.yul\":12410:12419   */\n      0x00\n        /* \"#utility.yul\":12443:12496   */\n      tag_369\n        /* \"#utility.yul\":12461:12495   */\n      tag_370\n        /* \"#utility.yul\":12470:12494   */\n      tag_371\n        /* \"#utility.yul\":12488:12493   */\n      dup5\n        /* \"#utility.yul\":12470:12494   */\n      tag_203\n      jump\t// in\n    tag_371:\n        /* \"#utility.yul\":12461:12495   */\n      tag_228\n      jump\t// in\n    tag_370:\n        /* \"#utility.yul\":12443:12496   */\n      tag_203\n      jump\t// in\n    tag_369:\n        /* \"#utility.yul\":12430:12496   */\n      swap1\n      pop\n        /* \"#utility.yul\":12360:12502   */\n      swap2\n      swap1\n      pop\n      jump\t// out\n        /* \"#utility.yul\":12508:12583   */\n    tag_230:\n        /* \"#utility.yul\":12551:12554   */\n      0x00\n        /* \"#utility.yul\":12572:12577   */\n      dup2\n        /* \"#utility.yul\":12565:12577   */\n      swap1\n      pop\n        /* \"#utility.yul\":12508:12583   */\n      swap2\n      swap1\n      pop\n      jump\t// out\n        /* \"#utility.yul\":12589:12858   */\n    tag_231:\n        /* \"#utility.yul\":12699:12738   */\n      tag_374\n        /* \"#utility.yul\":12730:12737   */\n      dup4\n        /* \"#utility.yul\":12699:12738   */\n      tag_229\n      jump\t// in\n    tag_374:\n        /* \"#utility.yul\":12760:12851   */\n      tag_375\n        /* \"#utility.yul\":12809:12850   */\n      tag_376\n        /* \"#utility.yul\":12833:12849   */\n      dup3\n        /* \"#utility.yul\":12809:12850   */\n      tag_230\n      jump\t// in\n    tag_376:\n        /* \"#utility.yul\":12801:12807   */\n      dup5\n        /* \"#utility.yul\":12794:12798   */\n      dup5\n        /* \"#utility.yul\":12788:12799   */\n      sload\n        /* \"#utility.yul\":12760:12851   */\n      tag_227\n      jump\t// in\n    tag_375:\n        /* \"#utility.yul\":12754:12758   */\n      dup3\n        /* \"#utility.yul\":12747:12852   */\n      sstore\n        /* \"#utility.yul\":12665:12858   */\n      pop\n        /* \"#utility.yul\":12589:12858   */\n      pop\n      pop\n      pop\n      jump\t// out\n        /* \"#utility.yul\":12864:12937   */\n    tag_232:\n        /* \"#utility.yul\":12909:12912   */\n      0x00\n        /* \"#utility.yul\":12864:12937   */\n      swap1\n      jump\t// out\n        /* \"#utility.yul\":12943:13132   */\n    tag_233:\n        /* \"#utility.yul\":13020:13052   */\n      tag_379\n      tag_232\n      jump\t// in\n    tag_379:\n        /* \"#utility.yul\":13061:13126   */\n      tag_380\n        /* \"#utility.yul\":13119:13125   */\n      dup2\n        /* \"#utility.yul\":13111:13117   */\n      dup5\n        /* \"#utility.yul\":13105:13109   */\n      dup5\n        /* \"#utility.yul\":13061:13126   */\n      tag_231\n      jump\t// in\n    tag_380:\n        /* \"#utility.yul\":12996:13132   */\n      pop\n        /* \"#utility.yul\":12943:13132   */\n      pop\n      pop\n      jump\t// out\n        /* \"#utility.yul\":13138:13324   */\n    tag_234:\n        /* \"#utility.yul\":13198:13318   */\n    tag_382:\n        /* \"#utility.yul\":13215:13218   */\n      dup2\n        /* \"#utility.yul\":13208:13213   */\n      dup2\n        /* \"#utility.yul\":13205:13219   */\n      lt\n        /* \"#utility.yul\":13198:13318   */\n      iszero\n      tag_384\n      jumpi\n        /* \"#utility.yul\":13269:13308   */\n      tag_385\n        /* \"#utility.yul\":13306:13307   */\n      0x00\n        /* \"#utility.yul\":13299:13304   */\n      dup3\n        /* \"#utility.yul\":13269:13308   */\n      tag_233\n      jump\t// in\n    tag_385:\n        /* \"#utility.yul\":13242:13243   */\n      0x01\n        /* \"#utility.yul\":13235:13240   */\n      dup2\n        /* \"#utility.yul\":13231:13244   */\n      add\n        /* \"#utility.yul\":13222:13244   */\n      swap1\n      pop\n        /* \"#utility.yul\":13198:13318   */\n      jump(tag_382)\n    tag_384:\n        /* \"#utility.yul\":13138:13324   */\n      pop\n      pop\n      jump\t// out\n        /* \"#utility.yul\":13330:13873   */\n    tag_235:\n        /* \"#utility.yul\":13431:13433   */\n      0x1f\n        /* \"#utility.yul\":13426:13429   */\n      dup3\n        /* \"#utility.yul\":13423:13434   */\n      gt\n        /* \"#utility.yul\":13420:13866   */\n      iszero\n      tag_387\n      jumpi\n        /* \"#utility.yul\":13465:13503   */\n      tag_388\n        /* \"#utility.yul\":13497:13502   */\n      dup2\n        /* \"#utility.yul\":13465:13503   */\n      tag_224\n      jump\t// in\n    tag_388:\n        /* \"#utility.yul\":13549:13578   */\n      tag_389\n        /* \"#utility.yul\":13567:13577   */\n      dup5\n        /* \"#utility.yul\":13549:13578   */\n      tag_225\n      jump\t// in\n    tag_389:\n        /* \"#utility.yul\":13539:13547   */\n      dup2\n        /* \"#utility.yul\":13535:13579   */\n      add\n        /* \"#utility.yul\":13732:13734   */\n      0x20\n        /* \"#utility.yul\":13720:13730   */\n      dup6\n        /* \"#utility.yul\":13717:13735   */\n      lt\n        /* \"#utility.yul\":13714:13763   */\n      iszero\n      tag_390\n      jumpi\n        /* \"#utility.yul\":13753:13761   */\n      dup2\n        /* \"#utility.yul\":13738:13761   */\n      swap1\n      pop\n        /* \"#utility.yul\":13714:13763   */\n    tag_390:\n        /* \"#utility.yul\":13776:13856   */\n      tag_391\n        /* \"#utility.yul\":13832:13854   */\n      tag_392\n        /* \"#utility.yul\":13850:13853   */\n      dup6\n        /* \"#utility.yul\":13832:13854   */\n      tag_225\n      jump\t// in\n    tag_392:\n        /* \"#utility.yul\":13822:13830   */\n      dup4\n        /* \"#utility.yul\":13818:13855   */\n      add\n        /* \"#utility.yul\":13805:13816   */\n      dup3\n        /* \"#utility.yul\":13776:13856   */\n      tag_234\n      jump\t// in\n    tag_391:\n        /* \"#utility.yul\":13435:13866   */\n      pop\n      pop\n        /* \"#utility.yul\":13420:13866   */\n    tag_387:\n        /* \"#utility.yul\":13330:13873   */\n      pop\n      pop\n      pop\n      jump\t// out\n        /* \"#utility.yul\":13879:13996   */\n    tag_236:\n        /* \"#utility.yul\":13933:13941   */\n      0x00\n        /* \"#utility.yul\":13983:13988   */\n      dup3\n        /* \"#utility.yul\":13977:13981   */\n      dup3\n        /* \"#utility.yul\":13973:13989   */\n      shr\n        /* \"#utility.yul\":13952:13989   */\n      swap1\n      pop\n        /* \"#utility.yul\":13879:13996   */\n      swap3\n      swap2\n      pop\n      pop\n      jump\t// out\n        /* \"#utility.yul\":14002:14171   */\n    tag_237:\n        /* \"#utility.yul\":14046:14052   */\n      0x00\n        /* \"#utility.yul\":14079:14130   */\n      tag_395\n        /* \"#utility.yul\":14127:14128   */\n      0x00\n        /* \"#utility.yul\":14123:14129   */\n      not\n        /* \"#utility.yul\":14115:14120   */\n      dup5\n        /* \"#utility.yul\":14112:14113   */\n      0x08\n        /* \"#utility.yul\":14108:14121   */\n      mul\n        /* \"#utility.yul\":14079:14130   */\n      tag_236\n      jump\t// in\n    tag_395:\n        /* \"#utility.yul\":14075:14131   */\n      not\n        /* \"#utility.yul\":14160:14164   */\n      dup1\n        /* \"#utility.yul\":14154:14158   */\n      dup4\n        /* \"#utility.yul\":14150:14165   */\n      and\n        /* \"#utility.yul\":14140:14165   */\n      swap2\n      pop\n        /* \"#utility.yul\":14053:14171   */\n      pop\n        /* \"#utility.yul\":14002:14171   */\n      swap3\n      swap2\n      pop\n      pop\n      jump\t// out\n        /* \"#utility.yul\":14176:14471   */\n    tag_238:\n        /* \"#utility.yul\":14252:14256   */\n      0x00\n        /* \"#utility.yul\":14398:14427   */\n      tag_397\n        /* \"#utility.yul\":14423:14426   */\n      dup4\n        /* \"#utility.yul\":14417:14421   */\n      dup4\n        /* \"#utility.yul\":14398:14427   */\n      tag_237\n      jump\t// in\n    tag_397:\n        /* \"#utility.yul\":14390:14427   */\n      swap2\n      pop\n        /* \"#utility.yul\":14460:14463   */\n      dup3\n        /* \"#utility.yul\":14457:14458   */\n      0x02\n        /* \"#utility.yul\":14453:14464   */\n      mul\n        /* \"#utility.yul\":14447:14451   */\n      dup3\n        /* \"#utility.yul\":14444:14465   */\n      or\n        /* \"#utility.yul\":14436:14465   */\n      swap1\n      pop\n        /* \"#utility.yul\":14176:14471   */\n      swap3\n      swap2\n      pop\n      pop\n      jump\t// out\n        /* \"#utility.yul\":14476:15879   */\n    tag_124:\n        /* \"#utility.yul\":14600:14644   */\n      tag_399\n        /* \"#utility.yul\":14640:14643   */\n      dup4\n        /* \"#utility.yul\":14635:14638   */\n      dup4\n        /* \"#utility.yul\":14600:14644   */\n      tag_222\n      jump\t// in\n    tag_399:\n        /* \"#utility.yul\":14709:14727   */\n      0xffffffffffffffff\n        /* \"#utility.yul\":14701:14707   */\n      dup2\n        /* \"#utility.yul\":14698:14728   */\n      gt\n        /* \"#utility.yul\":14695:14751   */\n      iszero\n      tag_400\n      jumpi\n        /* \"#utility.yul\":14731:14749   */\n      tag_401\n      tag_223\n      jump\t// in\n    tag_401:\n        /* \"#utility.yul\":14695:14751   */\n    tag_400:\n        /* \"#utility.yul\":14775:14813   */\n      tag_402\n        /* \"#utility.yul\":14807:14811   */\n      dup3\n        /* \"#utility.yul\":14801:14812   */\n      sload\n        /* \"#utility.yul\":14775:14813   */\n      tag_93\n      jump\t// in\n    tag_402:\n        /* \"#utility.yul\":14860:14927   */\n      tag_403\n        /* \"#utility.yul\":14920:14926   */\n      dup3\n        /* \"#utility.yul\":14912:14918   */\n      dup3\n        /* \"#utility.yul\":14906:14910   */\n      dup6\n        /* \"#utility.yul\":14860:14927   */\n      tag_235\n      jump\t// in\n    tag_403:\n        /* \"#utility.yul\":14954:14955   */\n      0x00\n        /* \"#utility.yul\":14983:14985   */\n      0x1f\n        /* \"#utility.yul\":14975:14981   */\n      dup4\n        /* \"#utility.yul\":14972:14986   */\n      gt\n        /* \"#utility.yul\":15000:15001   */\n      0x01\n        /* \"#utility.yul\":14995:15627   */\n      dup2\n      eq\n      tag_405\n      jumpi\n        /* \"#utility.yul\":15671:15672   */\n      0x00\n        /* \"#utility.yul\":15688:15694   */\n      dup5\n        /* \"#utility.yul\":15685:15769   */\n      iszero\n      tag_406\n      jumpi\n        /* \"#utility.yul\":15744:15753   */\n      dup3\n        /* \"#utility.yul\":15739:15742   */\n      dup8\n        /* \"#utility.yul\":15735:15754   */\n      add\n        /* \"#utility.yul\":15722:15755   */\n      calldataload\n        /* \"#utility.yul\":15713:15755   */\n      swap1\n      pop\n        /* \"#utility.yul\":15685:15769   */\n    tag_406:\n        /* \"#utility.yul\":15795:15862   */\n      tag_407\n        /* \"#utility.yul\":15855:15861   */\n      dup6\n        /* \"#utility.yul\":15848:15853   */\n      dup3\n        /* \"#utility.yul\":15795:15862   */\n      tag_238\n      jump\t// in\n    tag_407:\n        /* \"#utility.yul\":15789:15793   */\n      dup7\n        /* \"#utility.yul\":15782:15863   */\n      sstore\n        /* \"#utility.yul\":15644:15873   */\n      pop\n        /* \"#utility.yul\":14965:15873   */\n      jump(tag_404)\n        /* \"#utility.yul\":14995:15627   */\n    tag_405:\n        /* \"#utility.yul\":15047:15051   */\n      0x1f\n        /* \"#utility.yul\":15043:15052   */\n      not\n        /* \"#utility.yul\":15035:15041   */\n      dup5\n        /* \"#utility.yul\":15031:15053   */\n      and\n        /* \"#utility.yul\":15081:15118   */\n      tag_408\n        /* \"#utility.yul\":15113:15117   */\n      dup7\n        /* \"#utility.yul\":15081:15118   */\n      tag_224\n      jump\t// in\n    tag_408:\n        /* \"#utility.yul\":15140:15141   */\n      0x00\n        /* \"#utility.yul\":15154:15369   */\n    tag_409:\n        /* \"#utility.yul\":15168:15175   */\n      dup3\n        /* \"#utility.yul\":15165:15166   */\n      dup2\n        /* \"#utility.yul\":15162:15176   */\n      lt\n        /* \"#utility.yul\":15154:15369   */\n      iszero\n      tag_411\n      jumpi\n        /* \"#utility.yul\":15254:15263   */\n      dup5\n        /* \"#utility.yul\":15249:15252   */\n      dup10\n        /* \"#utility.yul\":15245:15264   */\n      add\n        /* \"#utility.yul\":15232:15265   */\n      calldataload\n        /* \"#utility.yul\":15224:15230   */\n      dup3\n        /* \"#utility.yul\":15217:15266   */\n      sstore\n        /* \"#utility.yul\":15305:15306   */\n      0x01\n        /* \"#utility.yul\":15297:15303   */\n      dup3\n        /* \"#utility.yul\":15293:15307   */\n      add\n        /* \"#utility.yul\":15283:15307   */\n      swap2\n      pop\n        /* \"#utility.yul\":15352:15354   */\n      0x20\n        /* \"#utility.yul\":15341:15350   */\n      dup6\n        /* \"#utility.yul\":15337:15355   */\n      add\n        /* \"#utility.yul\":15324:15355   */\n      swap5\n      pop\n        /* \"#utility.yul\":15191:15195   */\n      0x20\n        /* \"#utility.yul\":15188:15189   */\n      dup2\n        /* \"#utility.yul\":15184:15196   */\n      add\n        /* \"#utility.yul\":15179:15196   */\n      swap1\n      pop\n        /* \"#utility.yul\":15154:15369   */\n      jump(tag_409)\n    tag_411:\n        /* \"#utility.yul\":15397:15403   */\n      dup7\n        /* \"#utility.yul\":15388:15395   */\n      dup4\n        /* \"#utility.yul\":15385:15404   */\n      lt\n        /* \"#utility.yul\":15382:15568   */\n      iszero\n      tag_412\n      jumpi\n        /* \"#utility.yul\":15462:15471   */\n      dup5\n        /* \"#utility.yul\":15457:15460   */\n      dup10\n        /* \"#utility.yul\":15453:15472   */\n      add\n        /* \"#utility.yul\":15440:15473   */\n      calldataload\n        /* \"#utility.yul\":15505:15553   */\n      tag_413\n        /* \"#utility.yul\":15547:15551   */\n      0x1f\n        /* \"#utility.yul\":15539:15545   */\n      dup10\n        /* \"#utility.yul\":15535:15552   */\n      and\n        /* \"#utility.yul\":15524:15533   */\n      dup3\n        /* \"#utility.yul\":15505:15553   */\n      tag_237\n      jump\t// in\n    tag_413:\n        /* \"#utility.yul\":15497:15503   */\n      dup4\n        /* \"#utility.yul\":15490:15554   */\n      sstore\n        /* \"#utility.yul\":15405:15568   */\n      pop\n        /* \"#utility.yul\":15382:15568   */\n    tag_412:\n        /* \"#utility.yul\":15614:15615   */\n      0x01\n        /* \"#utility.yul\":15610:15611   */\n      0x02\n        /* \"#utility.yul\":15602:15608   */\n      dup9\n        /* \"#utility.yul\":15598:15612   */\n      mul\n        /* \"#utility.yul\":15594:15616   */\n      add\n        /* \"#utility.yul\":15588:15592   */\n      dup9\n        /* \"#utility.yul\":15581:15617   */\n      sstore\n        /* \"#utility.yul\":15002:15627   */\n      pop\n      pop\n      pop\n        /* \"#utility.yul\":14965:15873   */\n    tag_404:\n      pop\n        /* \"#utility.yul\":14575:15879   */\n      pop\n      pop\n      pop\n        /* \"#utility.yul\":14476:15879   */\n      pop\n      pop\n      pop\n      jump\t// out\n        /* \"#utility.yul\":15885:16065   */\n    tag_165:\n        /* \"#utility.yul\":15933:16010   */\n      0x4e487b7100000000000000000000000000000000000000000000000000000000\n        /* \"#utility.yul\":15930:15931   */\n      0x00\n        /* \"#utility.yul\":15923:16011   */\n      mstore\n        /* \"#utility.yul\":16030:16034   */\n      0x32\n        /* \"#utility.yul\":16027:16028   */\n      0x04\n        /* \"#utility.yul\":16020:16035   */\n      mstore\n        /* \"#utility.yul\":16054:16058   */\n      0x24\n        /* \"#utility.yul\":16051:16052   */\n      0x00\n        /* \"#utility.yul\":16044:16059   */\n      revert\n        /* \"#utility.yul\":16071:17466   */\n    tag_172:\n        /* \"#utility.yul\":16188:16225   */\n      tag_416\n        /* \"#utility.yul\":16221:16224   */\n      dup3\n        /* \"#utility.yul\":16188:16225   */\n      tag_191\n      jump\t// in\n    tag_416:\n        /* \"#utility.yul\":16290:16308   */\n      0xffffffffffffffff\n        /* \"#utility.yul\":16282:16288   */\n      dup2\n        /* \"#utility.yul\":16279:16309   */\n      gt\n        /* \"#utility.yul\":16276:16332   */\n      iszero\n      tag_417\n      jumpi\n        /* \"#utility.yul\":16312:16330   */\n      tag_418\n      tag_223\n      jump\t// in\n    tag_418:\n        /* \"#utility.yul\":16276:16332   */\n    tag_417:\n        /* \"#utility.yul\":16356:16394   */\n      tag_419\n        /* \"#utility.yul\":16388:16392   */\n      dup3\n        /* \"#utility.yul\":16382:16393   */\n      sload\n        /* \"#utility.yul\":16356:16394   */\n      tag_93\n      jump\t// in\n    tag_419:\n        /* \"#utility.yul\":16441:16508   */\n      tag_420\n        /* \"#utility.yul\":16501:16507   */\n      dup3\n        /* \"#utility.yul\":16493:16499   */\n      dup3\n        /* \"#utility.yul\":16487:16491   */\n      dup6\n        /* \"#utility.yul\":16441:16508   */\n      tag_235\n      jump\t// in\n    tag_420:\n        /* \"#utility.yul\":16535:16536   */\n      0x00\n        /* \"#utility.yul\":16559:16563   */\n      0x20\n        /* \"#utility.yul\":16546:16563   */\n      swap1\n      pop\n        /* \"#utility.yul\":16591:16593   */\n      0x1f\n        /* \"#utility.yul\":16583:16589   */\n      dup4\n        /* \"#utility.yul\":16580:16594   */\n      gt\n        /* \"#utility.yul\":16608:16609   */\n      0x01\n        /* \"#utility.yul\":16603:17221   */\n      dup2\n      eq\n      tag_422\n      jumpi\n        /* \"#utility.yul\":17265:17266   */\n      0x00\n        /* \"#utility.yul\":17282:17288   */\n      dup5\n        /* \"#utility.yul\":17279:17356   */\n      iszero\n      tag_423\n      jumpi\n        /* \"#utility.yul\":17331:17340   */\n      dup3\n        /* \"#utility.yul\":17326:17329   */\n      dup8\n        /* \"#utility.yul\":17322:17341   */\n      add\n        /* \"#utility.yul\":17316:17342   */\n      mload\n        /* \"#utility.yul\":17307:17342   */\n      swap1\n      pop\n        /* \"#utility.yul\":17279:17356   */\n    tag_423:\n        /* \"#utility.yul\":17382:17449   */\n      tag_424\n        /* \"#utility.yul\":17442:17448   */\n      dup6\n        /* \"#utility.yul\":17435:17440   */\n      dup3\n        /* \"#utility.yul\":17382:17449   */\n      tag_238\n      jump\t// in\n    tag_424:\n        /* \"#utility.yul\":17376:17380   */\n      dup7\n        /* \"#utility.yul\":17369:17450   */\n      sstore\n        /* \"#utility.yul\":17238:17460   */\n      pop\n        /* \"#utility.yul\":16573:17460   */\n      jump(tag_421)\n        /* \"#utility.yul\":16603:17221   */\n    tag_422:\n        /* \"#utility.yul\":16655:16659   */\n      0x1f\n        /* \"#utility.yul\":16651:16660   */\n      not\n        /* \"#utility.yul\":16643:16649   */\n      dup5\n        /* \"#utility.yul\":16639:16661   */\n      and\n        /* \"#utility.yul\":16689:16726   */\n      tag_425\n        /* \"#utility.yul\":16721:16725   */\n      dup7\n        /* \"#utility.yul\":16689:16726   */\n      tag_224\n      jump\t// in\n    tag_425:\n        /* \"#utility.yul\":16748:16749   */\n      0x00\n        /* \"#utility.yul\":16762:16970   */\n    tag_426:\n        /* \"#utility.yul\":16776:16783   */\n      dup3\n        /* \"#utility.yul\":16773:16774   */\n      dup2\n        /* \"#utility.yul\":16770:16784   */\n      lt\n        /* \"#utility.yul\":16762:16970   */\n      iszero\n      tag_428\n      jumpi\n        /* \"#utility.yul\":16855:16864   */\n      dup5\n        /* \"#utility.yul\":16850:16853   */\n      dup10\n        /* \"#utility.yul\":16846:16865   */\n      add\n        /* \"#utility.yul\":16840:16866   */\n      mload\n        /* \"#utility.yul\":16832:16838   */\n      dup3\n        /* \"#utility.yul\":16825:16867   */\n      sstore\n        /* \"#utility.yul\":16906:16907   */\n      0x01\n        /* \"#utility.yul\":16898:16904   */\n      dup3\n        /* \"#utility.yul\":16894:16908   */\n      add\n        /* \"#utility.yul\":16884:16908   */\n      swap2\n      pop\n        /* \"#utility.yul\":16953:16955   */\n      0x20\n        /* \"#utility.yul\":16942:16951   */\n      dup6\n        /* \"#utility.yul\":16938:16956   */\n      add\n        /* \"#utility.yul\":16925:16956   */\n      swap5\n      pop\n        /* \"#utility.yul\":16799:16803   */\n      0x20\n        /* \"#utility.yul\":16796:16797   */\n      dup2\n        /* \"#utility.yul\":16792:16804   */\n      add\n        /* \"#utility.yul\":16787:16804   */\n      swap1\n      pop\n        /* \"#utility.yul\":16762:16970   */\n      jump(tag_426)\n    tag_428:\n        /* \"#utility.yul\":16998:17004   */\n      dup7\n        /* \"#utility.yul\":16989:16996   */\n      dup4\n        /* \"#utility.yul\":16986:17005   */\n      lt\n        /* \"#utility.yul\":16983:17162   */\n      iszero\n      tag_429\n      jumpi\n        /* \"#utility.yul\":17056:17065   */\n      dup5\n        /* \"#utility.yul\":17051:17054   */\n      dup10\n        /* \"#utility.yul\":17047:17066   */\n      add\n        /* \"#utility.yul\":17041:17067   */\n      mload\n        /* \"#utility.yul\":17099:17147   */\n      tag_430\n        /* \"#utility.yul\":17141:17145   */\n      0x1f\n        /* \"#utility.yul\":17133:17139   */\n      dup10\n        /* \"#utility.yul\":17129:17146   */\n      and\n        /* \"#utility.yul\":17118:17127   */\n      dup3\n        /* \"#utility.yul\":17099:17147   */\n      tag_237\n      jump\t// in\n    tag_430:\n        /* \"#utility.yul\":17091:17097   */\n      dup4\n        /* \"#utility.yul\":17084:17148   */\n      sstore\n        /* \"#utility.yul\":17006:17162   */\n      pop\n        /* \"#utility.yul\":16983:17162   */\n    tag_429:\n        /* \"#utility.yul\":17208:17209   */\n      0x01\n        /* \"#utility.yul\":17204:17205   */\n      0x02\n        /* \"#utility.yul\":17196:17202   */\n      dup9\n        /* \"#utility.yul\":17192:17206   */\n      mul\n        /* \"#utility.yul\":17188:17210   */\n      add\n        /* \"#utility.yul\":17182:17186   */\n      dup9\n        /* \"#utility.yul\":17175:17211   */\n      sstore\n        /* \"#utility.yul\":16610:17221   */\n      pop\n      pop\n      pop\n        /* \"#utility.yul\":16573:17460   */\n    tag_421:\n      pop\n        /* \"#utility.yul\":16163:17466   */\n      pop\n      pop\n      pop\n        /* \"#utility.yul\":16071:17466   */\n      pop\n      pop\n      jump\t// out\n        /* \"#utility.yul\":17472:17639   */\n    tag_190:\n        /* \"#utility.yul\":17509:17512   */\n      0x00\n        /* \"#utility.yul\":17532:17554   */\n      tag_432\n        /* \"#utility.yul\":17548:17553   */\n      dup3\n        /* \"#utility.yul\":17532:17554   */\n      tag_209\n      jump\t// in\n    tag_432:\n        /* \"#utility.yul\":17523:17554   */\n      swap2\n      pop\n        /* \"#utility.yul\":17576:17580   */\n      0xff\n        /* \"#utility.yul\":17569:17574   */\n      dup3\n        /* \"#utility.yul\":17566:17581   */\n      sub\n        /* \"#utility.yul\":17563:17604   */\n      tag_433\n      jumpi\n        /* \"#utility.yul\":17584:17602   */\n      tag_434\n      tag_221\n      jump\t// in\n    tag_434:\n        /* \"#utility.yul\":17563:17604   */\n    tag_433:\n        /* \"#utility.yul\":17631:17632   */\n      0x01\n        /* \"#utility.yul\":17624:17629   */\n      dup3\n        /* \"#utility.yul\":17620:17633   */\n      add\n        /* \"#utility.yul\":17613:17633   */\n      swap1\n      pop\n        /* \"#utility.yul\":17472:17639   */\n      swap2\n      swap1\n      pop\n      jump\t// out\n\n    auxdata: 0xa264697066735822122066780c94b173e5e4a90d7172b9e3bca27723dc2362b7d7668a35dd6ab87fa58f64736f6c63430008110033\n}\n","bytecode":{"linkReferences":{},"object":"60806040526040518060400160405280600881526020017f574d4257616c6b73000000000000000000000000000000000000000000000000815250600390816200004a91906200033c565b506040518060400160405280600381526020017f574d420000000000000000000000000000000000000000000000000000000000815250600490816200009191906200033c565b506002600560006101000a81548160ff021916908360ff160217905550348015620000bb57600080fd5b5062000423565b600081519050919050565b7f4e487b7100000000000000000000000000000000000000000000000000000000600052604160045260246000fd5b7f4e487b7100000000000000000000000000000000000000000000000000000000600052602260045260246000fd5b600060028204905060018216806200014457607f821691505b6020821081036200015a5762000159620000fc565b5b50919050565b60008190508160005260206000209050919050565b60006020601f8301049050919050565b600082821b905092915050565b600060088302620001c47fffffffffffffffffffffffffffffffffffffffffffffffffffffffffffffffff8262000185565b620001d0868362000185565b95508019841693508086168417925050509392505050565b6000819050919050565b6000819050919050565b60006200021d620002176200021184620001e8565b620001f2565b620001e8565b9050919050565b6000819050919050565b6200023983620001fc565b62000251620002488262000224565b84845462000192565b825550505050565b600090565b6200026862000259565b620002758184846200022e565b505050565b5b818110156200029d57620002916000826200025e565b6001810190506200027b565b5050565b601f821115620002ec57620002b68162000160565b620002c18462000175565b81016020851015620002d1578190505b620002e9620002e08562000175565b8301826200027a565b50505b505050565b600082821c905092915050565b60006200031160001984600802620002f1565b1980831691505092915050565b60006200032c8383620002fe565b9150826002028217905092915050565b6200034782620000c2565b67ffffffffffffffff811115620003635762000362620000cd565b5b6200036f82546200012b565b6200037c828285620002a1565b600060209050601f831160018114620003b457600084156200039f578287015190505b620003ab85826200031e565b8655506200041b565b601f198416620003c48662000160565b60005b82811015620003ee57848901518255600182019150602085019450602081019050620003c7565b868310156200040e57848901516200040a601f891682620002fe565b8355505b6001600288020188555050505b505050505050565b611d3080620004336000396000f3fe608060405234801561001057600080fd5b506004361061010b5760003560e01c806350702ec9116100a2578063a0712d6811610071578063a0712d68146102ba578063a36e6577146102d6578063a9059cbb14610308578063c47f002714610338578063dd62ed3e146103545761010b565b806350702ec91461023257806370a08231146102625780637c69710f1461029257806395d89b411461029c5761010b565b806323b872dd116100de57806323b872dd146101ac578063313ce567146101dc57806342966c68146101fa5780634e863271146102165761010b565b806306fdde0314610110578063095ea7b31461012e5780630b7555561461015e57806318160ddd1461018e575b600080fd5b610118610384565b60405161012591906113a2565b60405180910390f35b61014860048036038101906101439190611462565b610412565b60405161015591906114bd565b60405180910390f35b610178600480360381019061017391906114d8565b610548565b60405161018591906113a2565b60405180910390f35b6101966105e8565b6040516101a39190611514565b60405180910390f35b6101c660048036038101906101c1919061152f565b6105ee565b6040516101d391906114bd565b60405180910390f35b6101e46107e3565b6040516101f1919061159e565b60405180910390f35b610214600480360381019061020f91906115b9565b6107f6565b005b610230600480360381019061022b919061164b565b6108cd565b005b61024c600480360381019061024791906114d8565b610920565b6040516102599190611514565b60405180910390f35b61027c600480360381019061027791906114d8565b610938565b6040516102899190611514565b60405180910390f35b61029a610950565b005b6102a46109e2565b6040516102b191906113a2565b60405180910390f35b6102d460048036038101906102cf91906115b9565b610a70565b005b6102f060048036038101906102eb91906115b9565b610c6d565b6040516102ff939291906116a7565b60405180910390f35b610322600480360381019061031d9190611462565b610d45565b60405161032f91906114bd565b60405180910390f35b610352600480360381019061034d919061164b565b610ea6565b005b61036e600480360381019061036991906116e5565b610ef9565b60405161037b9190611514565b60405180910390f35b6003805461039190611754565b80601f01602080910402602001604051908101604052809291908181526020018280546103bd90611754565b801561040a5780601f106103df5761010080835404028352916020019161040a565b820191906000526020600020905b8154815290600101906020018083116103ed57829003601f168201915b505050505081565b60006064821115610458576040517f08c379a000000000000000000000000000000000000000000000000000000000815260040161044f906117d1565b60405180910390fd5b81600260003373ffffffffffffffffffffffffffffffffffffffff1673ffffffffffffffffffffffffffffffffffffffff16815260200190815260200160002060008573ffffffffffffffffffffffffffffffffffffffff1673ffffffffffffffffffffffffffffffffffffffff168152602001908152602001600020819055508273ffffffffffffffffffffffffffffffffffffffff163373ffffffffffffffffffffffffffffffffffffffff167f8c5be1e5ebec7d5bd14f71427d1e84f3dd0314c0f7b2291e5b200ac8c7c3b925846040516105369190611514565b60405180910390a36001905092915050565b6007602052806000526040600020600091509050805461056790611754565b80601f016020809104026020016040519081016040528092919081815260200182805461059390611754565b80156105e05780601f106105b5576101008083540402835291602001916105e0565b820191906000526020600020905b8154815290600101906020018083116105c357829003601f168201915b505050505081565b60005481565b6000600a821115610634576040517f08c379a000000000000000000000000000000000000000000000000000000000815260040161062b90611863565b60405180910390fd5b81600260008673ffffffffffffffffffffffffffffffffffffffff1673ffffffffffffffffffffffffffffffffffffffff16815260200190815260200160002060003373ffffffffffffffffffffffffffffffffffffffff1673ffffffffffffffffffffffffffffffffffffffff16815260200190815260200160002060008282546106c091906118b2565b9250508190555081600160008673ffffffffffffffffffffffffffffffffffffffff1673ffffffffffffffffffffffffffffffffffffffff168152602001908152602001600020600082825461071691906118b2565b9250508190555081600160008573ffffffffffffffffffffffffffffffffffffffff1673ffffffffffffffffffffffffffffffffffffffff168152602001908152602001600020600082825461076c91906118e6565b925050819055508273ffffffffffffffffffffffffffffffffffffffff168473ffffffffffffffffffffffffffffffffffffffff167fddf252ad1be2c89b69c2b068fc378daa952ba7f163c4a11628f55a4df523b3ef846040516107d09190611514565b60405180910390a3600190509392505050565b600560009054906101000a900460ff1681565b80600160003373ffffffffffffffffffffffffffffffffffffffff1673ffffffffffffffffffffffffffffffffffffffff168152602001908152602001600020600082825461084591906118b2565b925050819055508060008082825461085d91906118b2565b92505081905550600073ffffffffffffffffffffffffffffffffffffffff163373ffffffffffffffffffffffffffffffffffffffff167fddf252ad1be2c89b69c2b068fc378daa952ba7f163c4a11628f55a4df523b3ef836040516108c29190611514565b60405180910390a350565b8181600760003373ffffffffffffffffffffffffffffffffffffffff1673ffffffffffffffffffffffffffffffffffffffff168152602001908152602001600020918261091b929190611b00565b505050565b60066020528060005260406000206000915090505481565b60016020528060005260406000206000915090505481565b6000600660003373ffffffffffffffffffffffffffffffffffffffff1673ffffffffffffffffffffffffffffffffffffffff168152602001908152602001600020541461099c57600080fd5b42600660003373ffffffffffffffffffffffffffffffffffffffff1673ffffffffffffffffffffffffffffffffffffffff16815260200190815260200160002081905550565b600480546109ef90611754565b80601f0160208091040260200160405190810160405280929190818152602001828054610a1b90611754565b8015610a685780601f10610a3d57610100808354040283529160200191610a68565b820191906000526020600020905b815481529060010190602001808311610a4b57829003601f168201915b505050505081565b6000600160003373ffffffffffffffffffffffffffffffffffffffff1673ffffffffffffffffffffffffffffffffffffffff16815260200190815260200160002054148015610afe57506000600660003373ffffffffffffffffffffffffffffffffffffffff1673ffffffffffffffffffffffffffffffffffffffff16815260200190815260200160002054145b15610b4c5742600660003373ffffffffffffffffffffffffffffffffffffffff1673ffffffffffffffffffffffffffffffffffffffff16815260200190815260200160002081905550610c6a565b80600160003373ffffffffffffffffffffffffffffffffffffffff1673ffffffffffffffffffffffffffffffffffffffff1681526020019081526020016000206000828254610b9b91906118e6565b9250508190555080600080828254610bb391906118e6565b925050819055503373ffffffffffffffffffffffffffffffffffffffff16600073ffffffffffffffffffffffffffffffffffffffff167fddf252ad1be2c89b69c2b068fc378daa952ba7f163c4a11628f55a4df523b3ef83604051610c189190611514565b60405180910390a3610c69600160003373ffffffffffffffffffffffffffffffffffffffff1673ffffffffffffffffffffffffffffffffffffffff1681526020019081526020016000205433610f1e565b5b50565b60088160058110610c7d57600080fd5b600302016000915090508060000160009054906101000a900473ffffffffffffffffffffffffffffffffffffffff1690806001018054610cbc90611754565b80601f0160208091040260200160405190810160405280929190818152602001828054610ce890611754565b8015610d355780601f10610d0a57610100808354040283529160200191610d35565b820191906000526020600020905b815481529060010190602001808311610d1857829003601f168201915b5050505050908060020154905083565b6000600a821115610d8b576040517f08c379a0000000000000000000000000000000000000000000000000000000008152600401610d8290611863565b60405180910390fd5b81600160003373ffffffffffffffffffffffffffffffffffffffff1673ffffffffffffffffffffffffffffffffffffffff1681526020019081526020016000206000828254610dda91906118b2565b9250508190555081600160008573ffffffffffffffffffffffffffffffffffffffff1673ffffffffffffffffffffffffffffffffffffffff1681526020019081526020016000206000828254610e3091906118e6565b925050819055508273ffffffffffffffffffffffffffffffffffffffff163373ffffffffffffffffffffffffffffffffffffffff167fddf252ad1be2c89b69c2b068fc378daa952ba7f163c4a11628f55a4df523b3ef84604051610e949190611514565b60405180910390a36001905092915050565b8181600760003373ffffffffffffffffffffffffffffffffffffffff1673ffffffffffffffffffffffffffffffffffffffff1681526020019081526020016000209182610ef4929190611b00565b505050565b6002602052816000526040600020602052806000526040600020600091509150505481565b600060405180606001604052808373ffffffffffffffffffffffffffffffffffffffff168152602001600760008573ffffffffffffffffffffffffffffffffffffffff1673ffffffffffffffffffffffffffffffffffffffff1681526020019081526020016000208054610f9190611754565b80601f0160208091040260200160405190810160405280929190818152602001828054610fbd90611754565b801561100a5780601f10610fdf5761010080835404028352916020019161100a565b820191906000526020600020905b815481529060010190602001808311610fed57829003601f168201915b5050505050815260200184815250905060005b60058160ff16101561130b578273ffffffffffffffffffffffffffffffffffffffff1660088260ff166005811061105757611056611bd0565b5b6003020160000160009054906101000a900473ffffffffffffffffffffffffffffffffffffffff1673ffffffffffffffffffffffffffffffffffffffff1603611127578160088260ff16600581106110b2576110b1611bd0565b5b6003020160008201518160000160006101000a81548173ffffffffffffffffffffffffffffffffffffffff021916908373ffffffffffffffffffffffffffffffffffffffff16021790555060208201518160010190816111129190611bff565b5060408201518160020155905050505061130e565b816040015160088260ff166005811061114357611142611bd0565b5b600302016002015410156112f857600060088260ff166005811061116a57611169611bd0565b5b600302016040518060600160405290816000820160009054906101000a900473ffffffffffffffffffffffffffffffffffffffff1673ffffffffffffffffffffffffffffffffffffffff1673ffffffffffffffffffffffffffffffffffffffff1681526020016001820180546111df90611754565b80601f016020809104026020016040519081016040528092919081815260200182805461120b90611754565b80156112585780601f1061122d57610100808354040283529160200191611258565b820191906000526020600020905b81548152906001019060200180831161123b57829003601f168201915b5050505050815260200160028201548152505090508260088360ff166005811061128557611284611bd0565b5b6003020160008201518160000160006101000a81548173ffffffffffffffffffffffffffffffffffffffff021916908373ffffffffffffffffffffffffffffffffffffffff16021790555060208201518160010190816112e59190611bff565b5060408201518160020155905050809250505b808061130390611cd1565b91505061101d565b50505b5050565b600081519050919050565b600082825260208201905092915050565b60005b8381101561134c578082015181840152602081019050611331565b60008484015250505050565b6000601f19601f8301169050919050565b600061137482611312565b61137e818561131d565b935061138e81856020860161132e565b61139781611358565b840191505092915050565b600060208201905081810360008301526113bc8184611369565b905092915050565b600080fd5b600080fd5b600073ffffffffffffffffffffffffffffffffffffffff82169050919050565b60006113f9826113ce565b9050919050565b611409816113ee565b811461141457600080fd5b50565b60008135905061142681611400565b92915050565b6000819050919050565b61143f8161142c565b811461144a57600080fd5b50565b60008135905061145c81611436565b92915050565b60008060408385031215611479576114786113c4565b5b600061148785828601611417565b92505060206114988582860161144d565b9150509250929050565b60008115159050919050565b6114b7816114a2565b82525050565b60006020820190506114d260008301846114ae565b92915050565b6000602082840312156114ee576114ed6113c4565b5b60006114fc84828501611417565b91505092915050565b61150e8161142c565b82525050565b60006020820190506115296000830184611505565b92915050565b600080600060608486031215611548576115476113c4565b5b600061155686828701611417565b935050602061156786828701611417565b92505060406115788682870161144d565b9150509250925092565b600060ff82169050919050565b61159881611582565b82525050565b60006020820190506115b3600083018461158f565b92915050565b6000602082840312156115cf576115ce6113c4565b5b60006115dd8482850161144d565b91505092915050565b600080fd5b600080fd5b600080fd5b60008083601f84011261160b5761160a6115e6565b5b8235905067ffffffffffffffff811115611628576116276115eb565b5b602083019150836001820283011115611644576116436115f0565b5b9250929050565b60008060208385031215611662576116616113c4565b5b600083013567ffffffffffffffff8111156116805761167f6113c9565b5b61168c858286016115f5565b92509250509250929050565b6116a1816113ee565b82525050565b60006060820190506116bc6000830186611698565b81810360208301526116ce8185611369565b90506116dd6040830184611505565b949350505050565b600080604083850312156116fc576116fb6113c4565b5b600061170a85828601611417565b925050602061171b85828601611417565b9150509250929050565b7f4e487b7100000000000000000000000000000000000000000000000000000000600052602260045260246000fd5b6000600282049050600182168061176c57607f821691505b60208210810361177f5761177e611725565b5b50919050565b7f4d6178696d756d20617070726f76616c206f66203120574d4220546f6b656e73600082015250565b60006117bb60208361131d565b91506117c682611785565b602082019050919050565b600060208201905081810360008301526117ea816117ae565b9050919050565b7f4d6178696d756d207472616e73666572206f6620302e3120574d4220546f6b6560008201527f6e73000000000000000000000000000000000000000000000000000000000000602082015250565b600061184d60228361131d565b9150611858826117f1565b604082019050919050565b6000602082019050818103600083015261187c81611840565b9050919050565b7f4e487b7100000000000000000000000000000000000000000000000000000000600052601160045260246000fd5b60006118bd8261142c565b91506118c88361142c565b92508282039050818111156118e0576118df611883565b5b92915050565b60006118f18261142c565b91506118fc8361142c565b925082820190508082111561191457611913611883565b5b92915050565b600082905092915050565b7f4e487b7100000000000000000000000000000000000000000000000000000000600052604160045260246000fd5b60008190508160005260206000209050919050565b60006020601f8301049050919050565b600082821b905092915050565b6000600883026119b67fffffffffffffffffffffffffffffffffffffffffffffffffffffffffffffffff82611979565b6119c08683611979565b95508019841693508086168417925050509392505050565b6000819050919050565b60006119fd6119f86119f38461142c565b6119d8565b61142c565b9050919050565b6000819050919050565b611a17836119e2565b611a2b611a2382611a04565b848454611986565b825550505050565b600090565b611a40611a33565b611a4b818484611a0e565b505050565b5b81811015611a6f57611a64600082611a38565b600181019050611a51565b5050565b601f821115611ab457611a8581611954565b611a8e84611969565b81016020851015611a9d578190505b611ab1611aa985611969565b830182611a50565b50505b505050565b600082821c905092915050565b6000611ad760001984600802611ab9565b1980831691505092915050565b6000611af08383611ac6565b9150826002028217905092915050565b611b0a838361191a565b67ffffffffffffffff811115611b2357611b22611925565b5b611b2d8254611754565b611b38828285611a73565b6000601f831160018114611b675760008415611b55578287013590505b611b5f8582611ae4565b865550611bc7565b601f198416611b7586611954565b60005b82811015611b9d57848901358255600182019150602085019450602081019050611b78565b86831015611bba5784890135611bb6601f891682611ac6565b8355505b6001600288020188555050505b50505050505050565b7f4e487b7100000000000000000000000000000000000000000000000000000000600052603260045260246000fd5b611c0882611312565b67ffffffffffffffff811115611c2157611c20611925565b5b611c2b8254611754565b611c36828285611a73565b600060209050601f831160018114611c695760008415611c57578287015190505b611c618582611ae4565b865550611cc9565b601f198416611c7786611954565b60005b82811015611c9f57848901518255600182019150602085019450602081019050611c7a565b86831015611cbc5784890151611cb8601f891682611ac6565b8355505b6001600288020188555050505b505050505050565b6000611cdc82611582565b915060ff8203611cef57611cee611883565b5b60018201905091905056fea264697066735822122066780c94b173e5e4a90d7172b9e3bca27723dc2362b7d7668a35dd6ab87fa58f64736f6c63430008110033","opcodes":"PUSH1 0x80 PUSH1 0x40 MSTORE PUSH1 0x40 MLOAD DUP1 PUSH1 0x40 ADD PUSH1 0x40 MSTORE DUP1 PUSH1 0x8 DUP2 MSTORE PUSH1 0x20 ADD PUSH32 0x574D4257616C6B73000000000000000000000000000000000000000000000000 DUP2 MSTORE POP PUSH1 0x3 SWAP1 DUP2 PUSH3 0x4A SWAP2 SWAP1 PUSH3 0x33C JUMP JUMPDEST POP PUSH1 0x40 MLOAD DUP1 PUSH1 0x40 ADD PUSH1 0x40 MSTORE DUP1 PUSH1 0x3 DUP2 MSTORE PUSH1 0x20 ADD PUSH32 0x574D420000000000000000000000000000000000000000000000000000000000 DUP2 MSTORE POP PUSH1 0x4 SWAP1 DUP2 PUSH3 0x91 SWAP2 SWAP1 PUSH3 0x33C JUMP JUMPDEST POP PUSH1 0x2 PUSH1 0x5 PUSH1 0x0 PUSH2 0x100 EXP DUP2 SLOAD DUP2 PUSH1 0xFF MUL NOT AND SWAP1 DUP4 PUSH1 0xFF AND MUL OR SWAP1 SSTORE POP CALLVALUE DUP1 ISZERO PUSH3 0xBB JUMPI PUSH1 0x0 DUP1 REVERT JUMPDEST POP PUSH3 0x423 JUMP JUMPDEST PUSH1 0x0 DUP2 MLOAD SWAP1 POP SWAP2 SWAP1 POP JUMP JUMPDEST PUSH32 0x4E487B7100000000000000000000000000000000000000000000000000000000 PUSH1 0x0 MSTORE PUSH1 0x41 PUSH1 0x4 MSTORE PUSH1 0x24 PUSH1 0x0 REVERT JUMPDEST PUSH32 0x4E487B7100000000000000000000000000000000000000000000000000000000 PUSH1 0x0 MSTORE PUSH1 0x22 PUSH1 0x4 MSTORE PUSH1 0x24 PUSH1 0x0 REVERT JUMPDEST PUSH1 0x0 PUSH1 0x2 DUP3 DIV SWAP1 POP PUSH1 0x1 DUP3 AND DUP1 PUSH3 0x144 JUMPI PUSH1 0x7F DUP3 AND SWAP2 POP JUMPDEST PUSH1 0x20 DUP3 LT DUP2 SUB PUSH3 0x15A JUMPI PUSH3 0x159 PUSH3 0xFC JUMP JUMPDEST JUMPDEST POP SWAP2 SWAP1 POP JUMP JUMPDEST PUSH1 0x0 DUP2 SWAP1 POP DUP2 PUSH1 0x0 MSTORE PUSH1 0x20 PUSH1 0x0 KECCAK256 SWAP1 POP SWAP2 SWAP1 POP JUMP JUMPDEST PUSH1 0x0 PUSH1 0x20 PUSH1 0x1F DUP4 ADD DIV SWAP1 POP SWAP2 SWAP1 POP JUMP JUMPDEST PUSH1 0x0 DUP3 DUP3 SHL SWAP1 POP SWAP3 SWAP2 POP POP JUMP JUMPDEST PUSH1 0x0 PUSH1 0x8 DUP4 MUL PUSH3 0x1C4 PUSH32 0xFFFFFFFFFFFFFFFFFFFFFFFFFFFFFFFFFFFFFFFFFFFFFFFFFFFFFFFFFFFFFFFF DUP3 PUSH3 0x185 JUMP JUMPDEST PUSH3 0x1D0 DUP7 DUP4 PUSH3 0x185 JUMP JUMPDEST SWAP6 POP DUP1 NOT DUP5 AND SWAP4 POP DUP1 DUP7 AND DUP5 OR SWAP3 POP POP POP SWAP4 SWAP3 POP POP POP JUMP JUMPDEST PUSH1 0x0 DUP2 SWAP1 POP SWAP2 SWAP1 POP JUMP JUMPDEST PUSH1 0x0 DUP2 SWAP1 POP SWAP2 SWAP1 POP JUMP JUMPDEST PUSH1 0x0 PUSH3 0x21D PUSH3 0x217 PUSH3 0x211 DUP5 PUSH3 0x1E8 JUMP JUMPDEST PUSH3 0x1F2 JUMP JUMPDEST PUSH3 0x1E8 JUMP JUMPDEST SWAP1 POP SWAP2 SWAP1 POP JUMP JUMPDEST PUSH1 0x0 DUP2 SWAP1 POP SWAP2 SWAP1 POP JUMP JUMPDEST PUSH3 0x239 DUP4 PUSH3 0x1FC JUMP JUMPDEST PUSH3 0x251 PUSH3 0x248 DUP3 PUSH3 0x224 JUMP JUMPDEST DUP5 DUP5 SLOAD PUSH3 0x192 JUMP JUMPDEST DUP3 SSTORE POP POP POP POP JUMP JUMPDEST PUSH1 0x0 SWAP1 JUMP JUMPDEST PUSH3 0x268 PUSH3 0x259 JUMP JUMPDEST PUSH3 0x275 DUP2 DUP5 DUP5 PUSH3 0x22E JUMP JUMPDEST POP POP POP JUMP JUMPDEST JUMPDEST DUP2 DUP2 LT ISZERO PUSH3 0x29D JUMPI PUSH3 0x291 PUSH1 0x0 DUP3 PUSH3 0x25E JUMP JUMPDEST PUSH1 0x1 DUP2 ADD SWAP1 POP PUSH3 0x27B JUMP JUMPDEST POP POP JUMP JUMPDEST PUSH1 0x1F DUP3 GT ISZERO PUSH3 0x2EC JUMPI PUSH3 0x2B6 DUP2 PUSH3 0x160 JUMP JUMPDEST PUSH3 0x2C1 DUP5 PUSH3 0x175 JUMP JUMPDEST DUP2 ADD PUSH1 0x20 DUP6 LT ISZERO PUSH3 0x2D1 JUMPI DUP2 SWAP1 POP JUMPDEST PUSH3 0x2E9 PUSH3 0x2E0 DUP6 PUSH3 0x175 JUMP JUMPDEST DUP4 ADD DUP3 PUSH3 0x27A JUMP JUMPDEST POP POP JUMPDEST POP POP POP JUMP JUMPDEST PUSH1 0x0 DUP3 DUP3 SHR SWAP1 POP SWAP3 SWAP2 POP POP JUMP JUMPDEST PUSH1 0x0 PUSH3 0x311 PUSH1 0x0 NOT DUP5 PUSH1 0x8 MUL PUSH3 0x2F1 JUMP JUMPDEST NOT DUP1 DUP4 AND SWAP2 POP POP SWAP3 SWAP2 POP POP JUMP JUMPDEST PUSH1 0x0 PUSH3 0x32C DUP4 DUP4 PUSH3 0x2FE JUMP JUMPDEST SWAP2 POP DUP3 PUSH1 0x2 MUL DUP3 OR SWAP1 POP SWAP3 SWAP2 POP POP JUMP JUMPDEST PUSH3 0x347 DUP3 PUSH3 0xC2 JUMP JUMPDEST PUSH8 0xFFFFFFFFFFFFFFFF DUP2 GT ISZERO PUSH3 0x363 JUMPI PUSH3 0x362 PUSH3 0xCD JUMP JUMPDEST JUMPDEST PUSH3 0x36F DUP3 SLOAD PUSH3 0x12B JUMP JUMPDEST PUSH3 0x37C DUP3 DUP3 DUP6 PUSH3 0x2A1 JUMP JUMPDEST PUSH1 0x0 PUSH1 0x20 SWAP1 POP PUSH1 0x1F DUP4 GT PUSH1 0x1 DUP2 EQ PUSH3 0x3B4 JUMPI PUSH1 0x0 DUP5 ISZERO PUSH3 0x39F JUMPI DUP3 DUP8 ADD MLOAD SWAP1 POP JUMPDEST PUSH3 0x3AB DUP6 DUP3 PUSH3 0x31E JUMP JUMPDEST DUP7 SSTORE POP PUSH3 0x41B JUMP JUMPDEST PUSH1 0x1F NOT DUP5 AND PUSH3 0x3C4 DUP7 PUSH3 0x160 JUMP JUMPDEST PUSH1 0x0 JUMPDEST DUP3 DUP2 LT ISZERO PUSH3 0x3EE JUMPI DUP5 DUP10 ADD MLOAD DUP3 SSTORE PUSH1 0x1 DUP3 ADD SWAP2 POP PUSH1 0x20 DUP6 ADD SWAP5 POP PUSH1 0x20 DUP2 ADD SWAP1 POP PUSH3 0x3C7 JUMP JUMPDEST DUP7 DUP4 LT ISZERO PUSH3 0x40E JUMPI DUP5 DUP10 ADD MLOAD PUSH3 0x40A PUSH1 0x1F DUP10 AND DUP3 PUSH3 0x2FE JUMP JUMPDEST DUP4 SSTORE POP JUMPDEST PUSH1 0x1 PUSH1 0x2 DUP9 MUL ADD DUP9 SSTORE POP POP POP JUMPDEST POP POP POP POP POP POP JUMP JUMPDEST PUSH2 0x1D30 DUP1 PUSH3 0x433 PUSH1 0x0 CODECOPY PUSH1 0x0 RETURN INVALID PUSH1 0x80 PUSH1 0x40 MSTORE CALLVALUE DUP1 ISZERO PUSH2 0x10 JUMPI PUSH1 0x0 DUP1 REVERT JUMPDEST POP PUSH1 0x4 CALLDATASIZE LT PUSH2 0x10B JUMPI PUSH1 0x0 CALLDATALOAD PUSH1 0xE0 SHR DUP1 PUSH4 0x50702EC9 GT PUSH2 0xA2 JUMPI DUP1 PUSH4 0xA0712D68 GT PUSH2 0x71 JUMPI DUP1 PUSH4 0xA0712D68 EQ PUSH2 0x2BA JUMPI DUP1 PUSH4 0xA36E6577 EQ PUSH2 0x2D6 JUMPI DUP1 PUSH4 0xA9059CBB EQ PUSH2 0x308 JUMPI DUP1 PUSH4 0xC47F0027 EQ PUSH2 0x338 JUMPI DUP1 PUSH4 0xDD62ED3E EQ PUSH2 0x354 JUMPI PUSH2 0x10B JUMP JUMPDEST DUP1 PUSH4 0x50702EC9 EQ PUSH2 0x232 JUMPI DUP1 PUSH4 0x70A08231 EQ PUSH2 0x262 JUMPI DUP1 PUSH4 0x7C69710F EQ PUSH2 0x292 JUMPI DUP1 PUSH4 0x95D89B41 EQ PUSH2 0x29C JUMPI PUSH2 0x10B JUMP JUMPDEST DUP1 PUSH4 0x23B872DD GT PUSH2 0xDE JUMPI DUP1 PUSH4 0x23B872DD EQ PUSH2 0x1AC JUMPI DUP1 PUSH4 0x313CE567 EQ PUSH2 0x1DC JUMPI DUP1 PUSH4 0x42966C68 EQ PUSH2 0x1FA JUMPI DUP1 PUSH4 0x4E863271 EQ PUSH2 0x216 JUMPI PUSH2 0x10B JUMP JUMPDEST DUP1 PUSH4 0x6FDDE03 EQ PUSH2 0x110 JUMPI DUP1 PUSH4 0x95EA7B3 EQ PUSH2 0x12E JUMPI DUP1 PUSH4 0xB755556 EQ PUSH2 0x15E JUMPI DUP1 PUSH4 0x18160DDD EQ PUSH2 0x18E JUMPI JUMPDEST PUSH1 0x0 DUP1 REVERT JUMPDEST PUSH2 0x118 PUSH2 0x384 JUMP JUMPDEST PUSH1 0x40 MLOAD PUSH2 0x125 SWAP2 SWAP1 PUSH2 0x13A2 JUMP JUMPDEST PUSH1 0x40 MLOAD DUP1 SWAP2 SUB SWAP1 RETURN JUMPDEST PUSH2 0x148 PUSH1 0x4 DUP1 CALLDATASIZE SUB DUP2 ADD SWAP1 PUSH2 0x143 SWAP2 SWAP1 PUSH2 0x1462 JUMP JUMPDEST PUSH2 0x412 JUMP JUMPDEST PUSH1 0x40 MLOAD PUSH2 0x155 SWAP2 SWAP1 PUSH2 0x14BD JUMP JUMPDEST PUSH1 0x40 MLOAD DUP1 SWAP2 SUB SWAP1 RETURN JUMPDEST PUSH2 0x178 PUSH1 0x4 DUP1 CALLDATASIZE SUB DUP2 ADD SWAP1 PUSH2 0x173 SWAP2 SWAP1 PUSH2 0x14D8 JUMP JUMPDEST PUSH2 0x548 JUMP JUMPDEST PUSH1 0x40 MLOAD PUSH2 0x185 SWAP2 SWAP1 PUSH2 0x13A2 JUMP JUMPDEST PUSH1 0x40 MLOAD DUP1 SWAP2 SUB SWAP1 RETURN JUMPDEST PUSH2 0x196 PUSH2 0x5E8 JUMP JUMPDEST PUSH1 0x40 MLOAD PUSH2 0x1A3 SWAP2 SWAP1 PUSH2 0x1514 JUMP JUMPDEST PUSH1 0x40 MLOAD DUP1 SWAP2 SUB SWAP1 RETURN JUMPDEST PUSH2 0x1C6 PUSH1 0x4 DUP1 CALLDATASIZE SUB DUP2 ADD SWAP1 PUSH2 0x1C1 SWAP2 SWAP1 PUSH2 0x152F JUMP JUMPDEST PUSH2 0x5EE JUMP JUMPDEST PUSH1 0x40 MLOAD PUSH2 0x1D3 SWAP2 SWAP1 PUSH2 0x14BD JUMP JUMPDEST PUSH1 0x40 MLOAD DUP1 SWAP2 SUB SWAP1 RETURN JUMPDEST PUSH2 0x1E4 PUSH2 0x7E3 JUMP JUMPDEST PUSH1 0x40 MLOAD PUSH2 0x1F1 SWAP2 SWAP1 PUSH2 0x159E JUMP JUMPDEST PUSH1 0x40 MLOAD DUP1 SWAP2 SUB SWAP1 RETURN JUMPDEST PUSH2 0x214 PUSH1 0x4 DUP1 CALLDATASIZE SUB DUP2 ADD SWAP1 PUSH2 0x20F SWAP2 SWAP1 PUSH2 0x15B9 JUMP JUMPDEST PUSH2 0x7F6 JUMP JUMPDEST STOP JUMPDEST PUSH2 0x230 PUSH1 0x4 DUP1 CALLDATASIZE SUB DUP2 ADD SWAP1 PUSH2 0x22B SWAP2 SWAP1 PUSH2 0x164B JUMP JUMPDEST PUSH2 0x8CD JUMP JUMPDEST STOP JUMPDEST PUSH2 0x24C PUSH1 0x4 DUP1 CALLDATASIZE SUB DUP2 ADD SWAP1 PUSH2 0x247 SWAP2 SWAP1 PUSH2 0x14D8 JUMP JUMPDEST PUSH2 0x920 JUMP JUMPDEST PUSH1 0x40 MLOAD PUSH2 0x259 SWAP2 SWAP1 PUSH2 0x1514 JUMP JUMPDEST PUSH1 0x40 MLOAD DUP1 SWAP2 SUB SWAP1 RETURN JUMPDEST PUSH2 0x27C PUSH1 0x4 DUP1 CALLDATASIZE SUB DUP2 ADD SWAP1 PUSH2 0x277 SWAP2 SWAP1 PUSH2 0x14D8 JUMP JUMPDEST PUSH2 0x938 JUMP JUMPDEST PUSH1 0x40 MLOAD PUSH2 0x289 SWAP2 SWAP1 PUSH2 0x1514 JUMP JUMPDEST PUSH1 0x40 MLOAD DUP1 SWAP2 SUB SWAP1 RETURN JUMPDEST PUSH2 0x29A PUSH2 0x950 JUMP JUMPDEST STOP JUMPDEST PUSH2 0x2A4 PUSH2 0x9E2 JUMP JUMPDEST PUSH1 0x40 MLOAD PUSH2 0x2B1 SWAP2 SWAP1 PUSH2 0x13A2 JUMP JUMPDEST PUSH1 0x40 MLOAD DUP1 SWAP2 SUB SWAP1 RETURN JUMPDEST PUSH2 0x2D4 PUSH1 0x4 DUP1 CALLDATASIZE SUB DUP2 ADD SWAP1 PUSH2 0x2CF SWAP2 SWAP1 PUSH2 0x15B9 JUMP JUMPDEST PUSH2 0xA70 JUMP JUMPDEST STOP JUMPDEST PUSH2 0x2F0 PUSH1 0x4 DUP1 CALLDATASIZE SUB DUP2 ADD SWAP1 PUSH2 0x2EB SWAP2 SWAP1 PUSH2 0x15B9 JUMP JUMPDEST PUSH2 0xC6D JUMP JUMPDEST PUSH1 0x40 MLOAD PUSH2 0x2FF SWAP4 SWAP3 SWAP2 SWAP1 PUSH2 0x16A7 JUMP JUMPDEST PUSH1 0x40 MLOAD DUP1 SWAP2 SUB SWAP1 RETURN JUMPDEST PUSH2 0x322 PUSH1 0x4 DUP1 CALLDATASIZE SUB DUP2 ADD SWAP1 PUSH2 0x31D SWAP2 SWAP1 PUSH2 0x1462 JUMP JUMPDEST PUSH2 0xD45 JUMP JUMPDEST PUSH1 0x40 MLOAD PUSH2 0x32F SWAP2 SWAP1 PUSH2 0x14BD JUMP JUMPDEST PUSH1 0x40 MLOAD DUP1 SWAP2 SUB SWAP1 RETURN JUMPDEST PUSH2 0x352 PUSH1 0x4 DUP1 CALLDATASIZE SUB DUP2 ADD SWAP1 PUSH2 0x34D SWAP2 SWAP1 PUSH2 0x164B JUMP JUMPDEST PUSH2 0xEA6 JUMP JUMPDEST STOP JUMPDEST PUSH2 0x36E PUSH1 0x4 DUP1 CALLDATASIZE SUB DUP2 ADD SWAP1 PUSH2 0x369 SWAP2 SWAP1 PUSH2 0x16E5 JUMP JUMPDEST PUSH2 0xEF9 JUMP JUMPDEST PUSH1 0x40 MLOAD PUSH2 0x37B SWAP2 SWAP1 PUSH2 0x1514 JUMP JUMPDEST PUSH1 0x40 MLOAD DUP1 SWAP2 SUB SWAP1 RETURN JUMPDEST PUSH1 0x3 DUP1 SLOAD PUSH2 0x391 SWAP1 PUSH2 0x1754 JUMP JUMPDEST DUP1 PUSH1 0x1F ADD PUSH1 0x20 DUP1 SWAP2 DIV MUL PUSH1 0x20 ADD PUSH1 0x40 MLOAD SWAP1 DUP2 ADD PUSH1 0x40 MSTORE DUP1 SWAP3 SWAP2 SWAP1 DUP2 DUP2 MSTORE PUSH1 0x20 ADD DUP3 DUP1 SLOAD PUSH2 0x3BD SWAP1 PUSH2 0x1754 JUMP JUMPDEST DUP1 ISZERO PUSH2 0x40A JUMPI DUP1 PUSH1 0x1F LT PUSH2 0x3DF JUMPI PUSH2 0x100 DUP1 DUP4 SLOAD DIV MUL DUP4 MSTORE SWAP2 PUSH1 0x20 ADD SWAP2 PUSH2 0x40A JUMP JUMPDEST DUP3 ADD SWAP2 SWAP1 PUSH1 0x0 MSTORE PUSH1 0x20 PUSH1 0x0 KECCAK256 SWAP1 JUMPDEST DUP2 SLOAD DUP2 MSTORE SWAP1 PUSH1 0x1 ADD SWAP1 PUSH1 0x20 ADD DUP1 DUP4 GT PUSH2 0x3ED JUMPI DUP3 SWAP1 SUB PUSH1 0x1F AND DUP3 ADD SWAP2 JUMPDEST POP POP POP POP POP DUP2 JUMP JUMPDEST PUSH1 0x0 PUSH1 0x64 DUP3 GT ISZERO PUSH2 0x458 JUMPI PUSH1 0x40 MLOAD PUSH32 0x8C379A000000000000000000000000000000000000000000000000000000000 DUP2 MSTORE PUSH1 0x4 ADD PUSH2 0x44F SWAP1 PUSH2 0x17D1 JUMP JUMPDEST PUSH1 0x40 MLOAD DUP1 SWAP2 SUB SWAP1 REVERT JUMPDEST DUP2 PUSH1 0x2 PUSH1 0x0 CALLER PUSH20 0xFFFFFFFFFFFFFFFFFFFFFFFFFFFFFFFFFFFFFFFF AND PUSH20 0xFFFFFFFFFFFFFFFFFFFFFFFFFFFFFFFFFFFFFFFF AND DUP2 MSTORE PUSH1 0x20 ADD SWAP1 DUP2 MSTORE PUSH1 0x20 ADD PUSH1 0x0 KECCAK256 PUSH1 0x0 DUP6 PUSH20 0xFFFFFFFFFFFFFFFFFFFFFFFFFFFFFFFFFFFFFFFF AND PUSH20 0xFFFFFFFFFFFFFFFFFFFFFFFFFFFFFFFFFFFFFFFF AND DUP2 MSTORE PUSH1 0x20 ADD SWAP1 DUP2 MSTORE PUSH1 0x20 ADD PUSH1 0x0 KECCAK256 DUP2 SWAP1 SSTORE POP DUP3 PUSH20 0xFFFFFFFFFFFFFFFFFFFFFFFFFFFFFFFFFFFFFFFF AND CALLER PUSH20 0xFFFFFFFFFFFFFFFFFFFFFFFFFFFFFFFFFFFFFFFF AND PUSH32 0x8C5BE1E5EBEC7D5BD14F71427D1E84F3DD0314C0F7B2291E5B200AC8C7C3B925 DUP5 PUSH1 0x40 MLOAD PUSH2 0x536 SWAP2 SWAP1 PUSH2 0x1514 JUMP JUMPDEST PUSH1 0x40 MLOAD DUP1 SWAP2 SUB SWAP1 LOG3 PUSH1 0x1 SWAP1 POP SWAP3 SWAP2 POP POP JUMP JUMPDEST PUSH1 0x7 PUSH1 0x20 MSTORE DUP1 PUSH1 0x0 MSTORE PUSH1 0x40 PUSH1 0x0 KECCAK256 PUSH1 0x0 SWAP2 POP SWAP1 POP DUP1 SLOAD PUSH2 0x567 SWAP1 PUSH2 0x1754 JUMP JUMPDEST DUP1 PUSH1 0x1F ADD PUSH1 0x20 DUP1 SWAP2 DIV MUL PUSH1 0x20 ADD PUSH1 0x40 MLOAD SWAP1 DUP2 ADD PUSH1 0x40 MSTORE DUP1 SWAP3 SWAP2 SWAP1 DUP2 DUP2 MSTORE PUSH1 0x20 ADD DUP3 DUP1 SLOAD PUSH2 0x593 SWAP1 PUSH2 0x1754 JUMP JUMPDEST DUP1 ISZERO PUSH2 0x5E0 JUMPI DUP1 PUSH1 0x1F LT PUSH2 0x5B5 JUMPI PUSH2 0x100 DUP1 DUP4 SLOAD DIV MUL DUP4 MSTORE SWAP2 PUSH1 0x20 ADD SWAP2 PUSH2 0x5E0 JUMP JUMPDEST DUP3 ADD SWAP2 SWAP1 PUSH1 0x0 MSTORE PUSH1 0x20 PUSH1 0x0 KECCAK256 SWAP1 JUMPDEST DUP2 SLOAD DUP2 MSTORE SWAP1 PUSH1 0x1 ADD SWAP1 PUSH1 0x20 ADD DUP1 DUP4 GT PUSH2 0x5C3 JUMPI DUP3 SWAP1 SUB PUSH1 0x1F AND DUP3 ADD SWAP2 JUMPDEST POP POP POP POP POP DUP2 JUMP JUMPDEST PUSH1 0x0 SLOAD DUP2 JUMP JUMPDEST PUSH1 0x0 PUSH1 0xA DUP3 GT ISZERO PUSH2 0x634 JUMPI PUSH1 0x40 MLOAD PUSH32 0x8C379A000000000000000000000000000000000000000000000000000000000 DUP2 MSTORE PUSH1 0x4 ADD PUSH2 0x62B SWAP1 PUSH2 0x1863 JUMP JUMPDEST PUSH1 0x40 MLOAD DUP1 SWAP2 SUB SWAP1 REVERT JUMPDEST DUP2 PUSH1 0x2 PUSH1 0x0 DUP7 PUSH20 0xFFFFFFFFFFFFFFFFFFFFFFFFFFFFFFFFFFFFFFFF AND PUSH20 0xFFFFFFFFFFFFFFFFFFFFFFFFFFFFFFFFFFFFFFFF AND DUP2 MSTORE PUSH1 0x20 ADD SWAP1 DUP2 MSTORE PUSH1 0x20 ADD PUSH1 0x0 KECCAK256 PUSH1 0x0 CALLER PUSH20 0xFFFFFFFFFFFFFFFFFFFFFFFFFFFFFFFFFFFFFFFF AND PUSH20 0xFFFFFFFFFFFFFFFFFFFFFFFFFFFFFFFFFFFFFFFF AND DUP2 MSTORE PUSH1 0x20 ADD SWAP1 DUP2 MSTORE PUSH1 0x20 ADD PUSH1 0x0 KECCAK256 PUSH1 0x0 DUP3 DUP3 SLOAD PUSH2 0x6C0 SWAP2 SWAP1 PUSH2 0x18B2 JUMP JUMPDEST SWAP3 POP POP DUP2 SWAP1 SSTORE POP DUP2 PUSH1 0x1 PUSH1 0x0 DUP7 PUSH20 0xFFFFFFFFFFFFFFFFFFFFFFFFFFFFFFFFFFFFFFFF AND PUSH20 0xFFFFFFFFFFFFFFFFFFFFFFFFFFFFFFFFFFFFFFFF AND DUP2 MSTORE PUSH1 0x20 ADD SWAP1 DUP2 MSTORE PUSH1 0x20 ADD PUSH1 0x0 KECCAK256 PUSH1 0x0 DUP3 DUP3 SLOAD PUSH2 0x716 SWAP2 SWAP1 PUSH2 0x18B2 JUMP JUMPDEST SWAP3 POP POP DUP2 SWAP1 SSTORE POP DUP2 PUSH1 0x1 PUSH1 0x0 DUP6 PUSH20 0xFFFFFFFFFFFFFFFFFFFFFFFFFFFFFFFFFFFFFFFF AND PUSH20 0xFFFFFFFFFFFFFFFFFFFFFFFFFFFFFFFFFFFFFFFF AND DUP2 MSTORE PUSH1 0x20 ADD SWAP1 DUP2 MSTORE PUSH1 0x20 ADD PUSH1 0x0 KECCAK256 PUSH1 0x0 DUP3 DUP3 SLOAD PUSH2 0x76C SWAP2 SWAP1 PUSH2 0x18E6 JUMP JUMPDEST SWAP3 POP POP DUP2 SWAP1 SSTORE POP DUP3 PUSH20 0xFFFFFFFFFFFFFFFFFFFFFFFFFFFFFFFFFFFFFFFF AND DUP5 PUSH20 0xFFFFFFFFFFFFFFFFFFFFFFFFFFFFFFFFFFFFFFFF AND PUSH32 0xDDF252AD1BE2C89B69C2B068FC378DAA952BA7F163C4A11628F55A4DF523B3EF DUP5 PUSH1 0x40 MLOAD PUSH2 0x7D0 SWAP2 SWAP1 PUSH2 0x1514 JUMP JUMPDEST PUSH1 0x40 MLOAD DUP1 SWAP2 SUB SWAP1 LOG3 PUSH1 0x1 SWAP1 POP SWAP4 SWAP3 POP POP POP JUMP JUMPDEST PUSH1 0x5 PUSH1 0x0 SWAP1 SLOAD SWAP1 PUSH2 0x100 EXP SWAP1 DIV PUSH1 0xFF AND DUP2 JUMP JUMPDEST DUP1 PUSH1 0x1 PUSH1 0x0 CALLER PUSH20 0xFFFFFFFFFFFFFFFFFFFFFFFFFFFFFFFFFFFFFFFF AND PUSH20 0xFFFFFFFFFFFFFFFFFFFFFFFFFFFFFFFFFFFFFFFF AND DUP2 MSTORE PUSH1 0x20 ADD SWAP1 DUP2 MSTORE PUSH1 0x20 ADD PUSH1 0x0 KECCAK256 PUSH1 0x0 DUP3 DUP3 SLOAD PUSH2 0x845 SWAP2 SWAP1 PUSH2 0x18B2 JUMP JUMPDEST SWAP3 POP POP DUP2 SWAP1 SSTORE POP DUP1 PUSH1 0x0 DUP1 DUP3 DUP3 SLOAD PUSH2 0x85D SWAP2 SWAP1 PUSH2 0x18B2 JUMP JUMPDEST SWAP3 POP POP DUP2 SWAP1 SSTORE POP PUSH1 0x0 PUSH20 0xFFFFFFFFFFFFFFFFFFFFFFFFFFFFFFFFFFFFFFFF AND CALLER PUSH20 0xFFFFFFFFFFFFFFFFFFFFFFFFFFFFFFFFFFFFFFFF AND PUSH32 0xDDF252AD1BE2C89B69C2B068FC378DAA952BA7F163C4A11628F55A4DF523B3EF DUP4 PUSH1 0x40 MLOAD PUSH2 0x8C2 SWAP2 SWAP1 PUSH2 0x1514 JUMP JUMPDEST PUSH1 0x40 MLOAD DUP1 SWAP2 SUB SWAP1 LOG3 POP JUMP JUMPDEST DUP2 DUP2 PUSH1 0x7 PUSH1 0x0 CALLER PUSH20 0xFFFFFFFFFFFFFFFFFFFFFFFFFFFFFFFFFFFFFFFF AND PUSH20 0xFFFFFFFFFFFFFFFFFFFFFFFFFFFFFFFFFFFFFFFF AND DUP2 MSTORE PUSH1 0x20 ADD SWAP1 DUP2 MSTORE PUSH1 0x20 ADD PUSH1 0x0 KECCAK256 SWAP2 DUP3 PUSH2 0x91B SWAP3 SWAP2 SWAP1 PUSH2 0x1B00 JUMP JUMPDEST POP POP POP JUMP JUMPDEST PUSH1 0x6 PUSH1 0x20 MSTORE DUP1 PUSH1 0x0 MSTORE PUSH1 0x40 PUSH1 0x0 KECCAK256 PUSH1 0x0 SWAP2 POP SWAP1 POP SLOAD DUP2 JUMP JUMPDEST PUSH1 0x1 PUSH1 0x20 MSTORE DUP1 PUSH1 0x0 MSTORE PUSH1 0x40 PUSH1 0x0 KECCAK256 PUSH1 0x0 SWAP2 POP SWAP1 POP SLOAD DUP2 JUMP JUMPDEST PUSH1 0x0 PUSH1 0x6 PUSH1 0x0 CALLER PUSH20 0xFFFFFFFFFFFFFFFFFFFFFFFFFFFFFFFFFFFFFFFF AND PUSH20 0xFFFFFFFFFFFFFFFFFFFFFFFFFFFFFFFFFFFFFFFF AND DUP2 MSTORE PUSH1 0x20 ADD SWAP1 DUP2 MSTORE PUSH1 0x20 ADD PUSH1 0x0 KECCAK256 SLOAD EQ PUSH2 0x99C JUMPI PUSH1 0x0 DUP1 REVERT JUMPDEST TIMESTAMP PUSH1 0x6 PUSH1 0x0 CALLER PUSH20 0xFFFFFFFFFFFFFFFFFFFFFFFFFFFFFFFFFFFFFFFF AND PUSH20 0xFFFFFFFFFFFFFFFFFFFFFFFFFFFFFFFFFFFFFFFF AND DUP2 MSTORE PUSH1 0x20 ADD SWAP1 DUP2 MSTORE PUSH1 0x20 ADD PUSH1 0x0 KECCAK256 DUP2 SWAP1 SSTORE POP JUMP JUMPDEST PUSH1 0x4 DUP1 SLOAD PUSH2 0x9EF SWAP1 PUSH2 0x1754 JUMP JUMPDEST DUP1 PUSH1 0x1F ADD PUSH1 0x20 DUP1 SWAP2 DIV MUL PUSH1 0x20 ADD PUSH1 0x40 MLOAD SWAP1 DUP2 ADD PUSH1 0x40 MSTORE DUP1 SWAP3 SWAP2 SWAP1 DUP2 DUP2 MSTORE PUSH1 0x20 ADD DUP3 DUP1 SLOAD PUSH2 0xA1B SWAP1 PUSH2 0x1754 JUMP JUMPDEST DUP1 ISZERO PUSH2 0xA68 JUMPI DUP1 PUSH1 0x1F LT PUSH2 0xA3D JUMPI PUSH2 0x100 DUP1 DUP4 SLOAD DIV MUL DUP4 MSTORE SWAP2 PUSH1 0x20 ADD SWAP2 PUSH2 0xA68 JUMP JUMPDEST DUP3 ADD SWAP2 SWAP1 PUSH1 0x0 MSTORE PUSH1 0x20 PUSH1 0x0 KECCAK256 SWAP1 JUMPDEST DUP2 SLOAD DUP2 MSTORE SWAP1 PUSH1 0x1 ADD SWAP1 PUSH1 0x20 ADD DUP1 DUP4 GT PUSH2 0xA4B JUMPI DUP3 SWAP1 SUB PUSH1 0x1F AND DUP3 ADD SWAP2 JUMPDEST POP POP POP POP POP DUP2 JUMP JUMPDEST PUSH1 0x0 PUSH1 0x1 PUSH1 0x0 CALLER PUSH20 0xFFFFFFFFFFFFFFFFFFFFFFFFFFFFFFFFFFFFFFFF AND PUSH20 0xFFFFFFFFFFFFFFFFFFFFFFFFFFFFFFFFFFFFFFFF AND DUP2 MSTORE PUSH1 0x20 ADD SWAP1 DUP2 MSTORE PUSH1 0x20 ADD PUSH1 0x0 KECCAK256 SLOAD EQ DUP1 ISZERO PUSH2 0xAFE JUMPI POP PUSH1 0x0 PUSH1 0x6 PUSH1 0x0 CALLER PUSH20 0xFFFFFFFFFFFFFFFFFFFFFFFFFFFFFFFFFFFFFFFF AND PUSH20 0xFFFFFFFFFFFFFFFFFFFFFFFFFFFFFFFFFFFFFFFF AND DUP2 MSTORE PUSH1 0x20 ADD SWAP1 DUP2 MSTORE PUSH1 0x20 ADD PUSH1 0x0 KECCAK256 SLOAD EQ JUMPDEST ISZERO PUSH2 0xB4C JUMPI TIMESTAMP PUSH1 0x6 PUSH1 0x0 CALLER PUSH20 0xFFFFFFFFFFFFFFFFFFFFFFFFFFFFFFFFFFFFFFFF AND PUSH20 0xFFFFFFFFFFFFFFFFFFFFFFFFFFFFFFFFFFFFFFFF AND DUP2 MSTORE PUSH1 0x20 ADD SWAP1 DUP2 MSTORE PUSH1 0x20 ADD PUSH1 0x0 KECCAK256 DUP2 SWAP1 SSTORE POP PUSH2 0xC6A JUMP JUMPDEST DUP1 PUSH1 0x1 PUSH1 0x0 CALLER PUSH20 0xFFFFFFFFFFFFFFFFFFFFFFFFFFFFFFFFFFFFFFFF AND PUSH20 0xFFFFFFFFFFFFFFFFFFFFFFFFFFFFFFFFFFFFFFFF AND DUP2 MSTORE PUSH1 0x20 ADD SWAP1 DUP2 MSTORE PUSH1 0x20 ADD PUSH1 0x0 KECCAK256 PUSH1 0x0 DUP3 DUP3 SLOAD PUSH2 0xB9B SWAP2 SWAP1 PUSH2 0x18E6 JUMP JUMPDEST SWAP3 POP POP DUP2 SWAP1 SSTORE POP DUP1 PUSH1 0x0 DUP1 DUP3 DUP3 SLOAD PUSH2 0xBB3 SWAP2 SWAP1 PUSH2 0x18E6 JUMP JUMPDEST SWAP3 POP POP DUP2 SWAP1 SSTORE POP CALLER PUSH20 0xFFFFFFFFFFFFFFFFFFFFFFFFFFFFFFFFFFFFFFFF AND PUSH1 0x0 PUSH20 0xFFFFFFFFFFFFFFFFFFFFFFFFFFFFFFFFFFFFFFFF AND PUSH32 0xDDF252AD1BE2C89B69C2B068FC378DAA952BA7F163C4A11628F55A4DF523B3EF DUP4 PUSH1 0x40 MLOAD PUSH2 0xC18 SWAP2 SWAP1 PUSH2 0x1514 JUMP JUMPDEST PUSH1 0x40 MLOAD DUP1 SWAP2 SUB SWAP1 LOG3 PUSH2 0xC69 PUSH1 0x1 PUSH1 0x0 CALLER PUSH20 0xFFFFFFFFFFFFFFFFFFFFFFFFFFFFFFFFFFFFFFFF AND PUSH20 0xFFFFFFFFFFFFFFFFFFFFFFFFFFFFFFFFFFFFFFFF AND DUP2 MSTORE PUSH1 0x20 ADD SWAP1 DUP2 MSTORE PUSH1 0x20 ADD PUSH1 0x0 KECCAK256 SLOAD CALLER PUSH2 0xF1E JUMP JUMPDEST JUMPDEST POP JUMP JUMPDEST PUSH1 0x8 DUP2 PUSH1 0x5 DUP2 LT PUSH2 0xC7D JUMPI PUSH1 0x0 DUP1 REVERT JUMPDEST PUSH1 0x3 MUL ADD PUSH1 0x0 SWAP2 POP SWAP1 POP DUP1 PUSH1 0x0 ADD PUSH1 0x0 SWAP1 SLOAD SWAP1 PUSH2 0x100 EXP SWAP1 DIV PUSH20 0xFFFFFFFFFFFFFFFFFFFFFFFFFFFFFFFFFFFFFFFF AND SWAP1 DUP1 PUSH1 0x1 ADD DUP1 SLOAD PUSH2 0xCBC SWAP1 PUSH2 0x1754 JUMP JUMPDEST DUP1 PUSH1 0x1F ADD PUSH1 0x20 DUP1 SWAP2 DIV MUL PUSH1 0x20 ADD PUSH1 0x40 MLOAD SWAP1 DUP2 ADD PUSH1 0x40 MSTORE DUP1 SWAP3 SWAP2 SWAP1 DUP2 DUP2 MSTORE PUSH1 0x20 ADD DUP3 DUP1 SLOAD PUSH2 0xCE8 SWAP1 PUSH2 0x1754 JUMP JUMPDEST DUP1 ISZERO PUSH2 0xD35 JUMPI DUP1 PUSH1 0x1F LT PUSH2 0xD0A JUMPI PUSH2 0x100 DUP1 DUP4 SLOAD DIV MUL DUP4 MSTORE SWAP2 PUSH1 0x20 ADD SWAP2 PUSH2 0xD35 JUMP JUMPDEST DUP3 ADD SWAP2 SWAP1 PUSH1 0x0 MSTORE PUSH1 0x20 PUSH1 0x0 KECCAK256 SWAP1 JUMPDEST DUP2 SLOAD DUP2 MSTORE SWAP1 PUSH1 0x1 ADD SWAP1 PUSH1 0x20 ADD DUP1 DUP4 GT PUSH2 0xD18 JUMPI DUP3 SWAP1 SUB PUSH1 0x1F AND DUP3 ADD SWAP2 JUMPDEST POP POP POP POP POP SWAP1 DUP1 PUSH1 0x2 ADD SLOAD SWAP1 POP DUP4 JUMP JUMPDEST PUSH1 0x0 PUSH1 0xA DUP3 GT ISZERO PUSH2 0xD8B JUMPI PUSH1 0x40 MLOAD PUSH32 0x8C379A000000000000000000000000000000000000000000000000000000000 DUP2 MSTORE PUSH1 0x4 ADD PUSH2 0xD82 SWAP1 PUSH2 0x1863 JUMP JUMPDEST PUSH1 0x40 MLOAD DUP1 SWAP2 SUB SWAP1 REVERT JUMPDEST DUP2 PUSH1 0x1 PUSH1 0x0 CALLER PUSH20 0xFFFFFFFFFFFFFFFFFFFFFFFFFFFFFFFFFFFFFFFF AND PUSH20 0xFFFFFFFFFFFFFFFFFFFFFFFFFFFFFFFFFFFFFFFF AND DUP2 MSTORE PUSH1 0x20 ADD SWAP1 DUP2 MSTORE PUSH1 0x20 ADD PUSH1 0x0 KECCAK256 PUSH1 0x0 DUP3 DUP3 SLOAD PUSH2 0xDDA SWAP2 SWAP1 PUSH2 0x18B2 JUMP JUMPDEST SWAP3 POP POP DUP2 SWAP1 SSTORE POP DUP2 PUSH1 0x1 PUSH1 0x0 DUP6 PUSH20 0xFFFFFFFFFFFFFFFFFFFFFFFFFFFFFFFFFFFFFFFF AND PUSH20 0xFFFFFFFFFFFFFFFFFFFFFFFFFFFFFFFFFFFFFFFF AND DUP2 MSTORE PUSH1 0x20 ADD SWAP1 DUP2 MSTORE PUSH1 0x20 ADD PUSH1 0x0 KECCAK256 PUSH1 0x0 DUP3 DUP3 SLOAD PUSH2 0xE30 SWAP2 SWAP1 PUSH2 0x18E6 JUMP JUMPDEST SWAP3 POP POP DUP2 SWAP1 SSTORE POP DUP3 PUSH20 0xFFFFFFFFFFFFFFFFFFFFFFFFFFFFFFFFFFFFFFFF AND CALLER PUSH20 0xFFFFFFFFFFFFFFFFFFFFFFFFFFFFFFFFFFFFFFFF AND PUSH32 0xDDF252AD1BE2C89B69C2B068FC378DAA952BA7F163C4A11628F55A4DF523B3EF DUP5 PUSH1 0x40 MLOAD PUSH2 0xE94 SWAP2 SWAP1 PUSH2 0x1514 JUMP JUMPDEST PUSH1 0x40 MLOAD DUP1 SWAP2 SUB SWAP1 LOG3 PUSH1 0x1 SWAP1 POP SWAP3 SWAP2 POP POP JUMP JUMPDEST DUP2 DUP2 PUSH1 0x7 PUSH1 0x0 CALLER PUSH20 0xFFFFFFFFFFFFFFFFFFFFFFFFFFFFFFFFFFFFFFFF AND PUSH20 0xFFFFFFFFFFFFFFFFFFFFFFFFFFFFFFFFFFFFFFFF AND DUP2 MSTORE PUSH1 0x20 ADD SWAP1 DUP2 MSTORE PUSH1 0x20 ADD PUSH1 0x0 KECCAK256 SWAP2 DUP3 PUSH2 0xEF4 SWAP3 SWAP2 SWAP1 PUSH2 0x1B00 JUMP JUMPDEST POP POP POP JUMP JUMPDEST PUSH1 0x2 PUSH1 0x20 MSTORE DUP2 PUSH1 0x0 MSTORE PUSH1 0x40 PUSH1 0x0 KECCAK256 PUSH1 0x20 MSTORE DUP1 PUSH1 0x0 MSTORE PUSH1 0x40 PUSH1 0x0 KECCAK256 PUSH1 0x0 SWAP2 POP SWAP2 POP POP SLOAD DUP2 JUMP JUMPDEST PUSH1 0x0 PUSH1 0x40 MLOAD DUP1 PUSH1 0x60 ADD PUSH1 0x40 MSTORE DUP1 DUP4 PUSH20 0xFFFFFFFFFFFFFFFFFFFFFFFFFFFFFFFFFFFFFFFF AND DUP2 MSTORE PUSH1 0x20 ADD PUSH1 0x7 PUSH1 0x0 DUP6 PUSH20 0xFFFFFFFFFFFFFFFFFFFFFFFFFFFFFFFFFFFFFFFF AND PUSH20 0xFFFFFFFFFFFFFFFFFFFFFFFFFFFFFFFFFFFFFFFF AND DUP2 MSTORE PUSH1 0x20 ADD SWAP1 DUP2 MSTORE PUSH1 0x20 ADD PUSH1 0x0 KECCAK256 DUP1 SLOAD PUSH2 0xF91 SWAP1 PUSH2 0x1754 JUMP JUMPDEST DUP1 PUSH1 0x1F ADD PUSH1 0x20 DUP1 SWAP2 DIV MUL PUSH1 0x20 ADD PUSH1 0x40 MLOAD SWAP1 DUP2 ADD PUSH1 0x40 MSTORE DUP1 SWAP3 SWAP2 SWAP1 DUP2 DUP2 MSTORE PUSH1 0x20 ADD DUP3 DUP1 SLOAD PUSH2 0xFBD SWAP1 PUSH2 0x1754 JUMP JUMPDEST DUP1 ISZERO PUSH2 0x100A JUMPI DUP1 PUSH1 0x1F LT PUSH2 0xFDF JUMPI PUSH2 0x100 DUP1 DUP4 SLOAD DIV MUL DUP4 MSTORE SWAP2 PUSH1 0x20 ADD SWAP2 PUSH2 0x100A JUMP JUMPDEST DUP3 ADD SWAP2 SWAP1 PUSH1 0x0 MSTORE PUSH1 0x20 PUSH1 0x0 KECCAK256 SWAP1 JUMPDEST DUP2 SLOAD DUP2 MSTORE SWAP1 PUSH1 0x1 ADD SWAP1 PUSH1 0x20 ADD DUP1 DUP4 GT PUSH2 0xFED JUMPI DUP3 SWAP1 SUB PUSH1 0x1F AND DUP3 ADD SWAP2 JUMPDEST POP POP POP POP POP DUP2 MSTORE PUSH1 0x20 ADD DUP5 DUP2 MSTORE POP SWAP1 POP PUSH1 0x0 JUMPDEST PUSH1 0x5 DUP2 PUSH1 0xFF AND LT ISZERO PUSH2 0x130B JUMPI DUP3 PUSH20 0xFFFFFFFFFFFFFFFFFFFFFFFFFFFFFFFFFFFFFFFF AND PUSH1 0x8 DUP3 PUSH1 0xFF AND PUSH1 0x5 DUP2 LT PUSH2 0x1057 JUMPI PUSH2 0x1056 PUSH2 0x1BD0 JUMP JUMPDEST JUMPDEST PUSH1 0x3 MUL ADD PUSH1 0x0 ADD PUSH1 0x0 SWAP1 SLOAD SWAP1 PUSH2 0x100 EXP SWAP1 DIV PUSH20 0xFFFFFFFFFFFFFFFFFFFFFFFFFFFFFFFFFFFFFFFF AND PUSH20 0xFFFFFFFFFFFFFFFFFFFFFFFFFFFFFFFFFFFFFFFF AND SUB PUSH2 0x1127 JUMPI DUP2 PUSH1 0x8 DUP3 PUSH1 0xFF AND PUSH1 0x5 DUP2 LT PUSH2 0x10B2 JUMPI PUSH2 0x10B1 PUSH2 0x1BD0 JUMP JUMPDEST JUMPDEST PUSH1 0x3 MUL ADD PUSH1 0x0 DUP3 ADD MLOAD DUP2 PUSH1 0x0 ADD PUSH1 0x0 PUSH2 0x100 EXP DUP2 SLOAD DUP2 PUSH20 0xFFFFFFFFFFFFFFFFFFFFFFFFFFFFFFFFFFFFFFFF MUL NOT AND SWAP1 DUP4 PUSH20 0xFFFFFFFFFFFFFFFFFFFFFFFFFFFFFFFFFFFFFFFF AND MUL OR SWAP1 SSTORE POP PUSH1 0x20 DUP3 ADD MLOAD DUP2 PUSH1 0x1 ADD SWAP1 DUP2 PUSH2 0x1112 SWAP2 SWAP1 PUSH2 0x1BFF JUMP JUMPDEST POP PUSH1 0x40 DUP3 ADD MLOAD DUP2 PUSH1 0x2 ADD SSTORE SWAP1 POP POP POP POP PUSH2 0x130E JUMP JUMPDEST DUP2 PUSH1 0x40 ADD MLOAD PUSH1 0x8 DUP3 PUSH1 0xFF AND PUSH1 0x5 DUP2 LT PUSH2 0x1143 JUMPI PUSH2 0x1142 PUSH2 0x1BD0 JUMP JUMPDEST JUMPDEST PUSH1 0x3 MUL ADD PUSH1 0x2 ADD SLOAD LT ISZERO PUSH2 0x12F8 JUMPI PUSH1 0x0 PUSH1 0x8 DUP3 PUSH1 0xFF AND PUSH1 0x5 DUP2 LT PUSH2 0x116A JUMPI PUSH2 0x1169 PUSH2 0x1BD0 JUMP JUMPDEST JUMPDEST PUSH1 0x3 MUL ADD PUSH1 0x40 MLOAD DUP1 PUSH1 0x60 ADD PUSH1 0x40 MSTORE SWAP1 DUP2 PUSH1 0x0 DUP3 ADD PUSH1 0x0 SWAP1 SLOAD SWAP1 PUSH2 0x100 EXP SWAP1 DIV PUSH20 0xFFFFFFFFFFFFFFFFFFFFFFFFFFFFFFFFFFFFFFFF AND PUSH20 0xFFFFFFFFFFFFFFFFFFFFFFFFFFFFFFFFFFFFFFFF AND PUSH20 0xFFFFFFFFFFFFFFFFFFFFFFFFFFFFFFFFFFFFFFFF AND DUP2 MSTORE PUSH1 0x20 ADD PUSH1 0x1 DUP3 ADD DUP1 SLOAD PUSH2 0x11DF SWAP1 PUSH2 0x1754 JUMP JUMPDEST DUP1 PUSH1 0x1F ADD PUSH1 0x20 DUP1 SWAP2 DIV MUL PUSH1 0x20 ADD PUSH1 0x40 MLOAD SWAP1 DUP2 ADD PUSH1 0x40 MSTORE DUP1 SWAP3 SWAP2 SWAP1 DUP2 DUP2 MSTORE PUSH1 0x20 ADD DUP3 DUP1 SLOAD PUSH2 0x120B SWAP1 PUSH2 0x1754 JUMP JUMPDEST DUP1 ISZERO PUSH2 0x1258 JUMPI DUP1 PUSH1 0x1F LT PUSH2 0x122D JUMPI PUSH2 0x100 DUP1 DUP4 SLOAD DIV MUL DUP4 MSTORE SWAP2 PUSH1 0x20 ADD SWAP2 PUSH2 0x1258 JUMP JUMPDEST DUP3 ADD SWAP2 SWAP1 PUSH1 0x0 MSTORE PUSH1 0x20 PUSH1 0x0 KECCAK256 SWAP1 JUMPDEST DUP2 SLOAD DUP2 MSTORE SWAP1 PUSH1 0x1 ADD SWAP1 PUSH1 0x20 ADD DUP1 DUP4 GT PUSH2 0x123B JUMPI DUP3 SWAP1 SUB PUSH1 0x1F AND DUP3 ADD SWAP2 JUMPDEST POP POP POP POP POP DUP2 MSTORE PUSH1 0x20 ADD PUSH1 0x2 DUP3 ADD SLOAD DUP2 MSTORE POP POP SWAP1 POP DUP3 PUSH1 0x8 DUP4 PUSH1 0xFF AND PUSH1 0x5 DUP2 LT PUSH2 0x1285 JUMPI PUSH2 0x1284 PUSH2 0x1BD0 JUMP JUMPDEST JUMPDEST PUSH1 0x3 MUL ADD PUSH1 0x0 DUP3 ADD MLOAD DUP2 PUSH1 0x0 ADD PUSH1 0x0 PUSH2 0x100 EXP DUP2 SLOAD DUP2 PUSH20 0xFFFFFFFFFFFFFFFFFFFFFFFFFFFFFFFFFFFFFFFF MUL NOT AND SWAP1 DUP4 PUSH20 0xFFFFFFFFFFFFFFFFFFFFFFFFFFFFFFFFFFFFFFFF AND MUL OR SWAP1 SSTORE POP PUSH1 0x20 DUP3 ADD MLOAD DUP2 PUSH1 0x1 ADD SWAP1 DUP2 PUSH2 0x12E5 SWAP2 SWAP1 PUSH2 0x1BFF JUMP JUMPDEST POP PUSH1 0x40 DUP3 ADD MLOAD DUP2 PUSH1 0x2 ADD SSTORE SWAP1 POP POP DUP1 SWAP3 POP POP JUMPDEST DUP1 DUP1 PUSH2 0x1303 SWAP1 PUSH2 0x1CD1 JUMP JUMPDEST SWAP2 POP POP PUSH2 0x101D JUMP JUMPDEST POP POP JUMPDEST POP POP JUMP JUMPDEST PUSH1 0x0 DUP2 MLOAD SWAP1 POP SWAP2 SWAP1 POP JUMP JUMPDEST PUSH1 0x0 DUP3 DUP3 MSTORE PUSH1 0x20 DUP3 ADD SWAP1 POP SWAP3 SWAP2 POP POP JUMP JUMPDEST PUSH1 0x0 JUMPDEST DUP4 DUP2 LT ISZERO PUSH2 0x134C JUMPI DUP1 DUP3 ADD MLOAD DUP2 DUP5 ADD MSTORE PUSH1 0x20 DUP2 ADD SWAP1 POP PUSH2 0x1331 JUMP JUMPDEST PUSH1 0x0 DUP5 DUP5 ADD MSTORE POP POP POP POP JUMP JUMPDEST PUSH1 0x0 PUSH1 0x1F NOT PUSH1 0x1F DUP4 ADD AND SWAP1 POP SWAP2 SWAP1 POP JUMP JUMPDEST PUSH1 0x0 PUSH2 0x1374 DUP3 PUSH2 0x1312 JUMP JUMPDEST PUSH2 0x137E DUP2 DUP6 PUSH2 0x131D JUMP JUMPDEST SWAP4 POP PUSH2 0x138E DUP2 DUP6 PUSH1 0x20 DUP7 ADD PUSH2 0x132E JUMP JUMPDEST PUSH2 0x1397 DUP2 PUSH2 0x1358 JUMP JUMPDEST DUP5 ADD SWAP2 POP POP SWAP3 SWAP2 POP POP JUMP JUMPDEST PUSH1 0x0 PUSH1 0x20 DUP3 ADD SWAP1 POP DUP2 DUP2 SUB PUSH1 0x0 DUP4 ADD MSTORE PUSH2 0x13BC DUP2 DUP5 PUSH2 0x1369 JUMP JUMPDEST SWAP1 POP SWAP3 SWAP2 POP POP JUMP JUMPDEST PUSH1 0x0 DUP1 REVERT JUMPDEST PUSH1 0x0 DUP1 REVERT JUMPDEST PUSH1 0x0 PUSH20 0xFFFFFFFFFFFFFFFFFFFFFFFFFFFFFFFFFFFFFFFF DUP3 AND SWAP1 POP SWAP2 SWAP1 POP JUMP JUMPDEST PUSH1 0x0 PUSH2 0x13F9 DUP3 PUSH2 0x13CE JUMP JUMPDEST SWAP1 POP SWAP2 SWAP1 POP JUMP JUMPDEST PUSH2 0x1409 DUP2 PUSH2 0x13EE JUMP JUMPDEST DUP2 EQ PUSH2 0x1414 JUMPI PUSH1 0x0 DUP1 REVERT JUMPDEST POP JUMP JUMPDEST PUSH1 0x0 DUP2 CALLDATALOAD SWAP1 POP PUSH2 0x1426 DUP2 PUSH2 0x1400 JUMP JUMPDEST SWAP3 SWAP2 POP POP JUMP JUMPDEST PUSH1 0x0 DUP2 SWAP1 POP SWAP2 SWAP1 POP JUMP JUMPDEST PUSH2 0x143F DUP2 PUSH2 0x142C JUMP JUMPDEST DUP2 EQ PUSH2 0x144A JUMPI PUSH1 0x0 DUP1 REVERT JUMPDEST POP JUMP JUMPDEST PUSH1 0x0 DUP2 CALLDATALOAD SWAP1 POP PUSH2 0x145C DUP2 PUSH2 0x1436 JUMP JUMPDEST SWAP3 SWAP2 POP POP JUMP JUMPDEST PUSH1 0x0 DUP1 PUSH1 0x40 DUP4 DUP6 SUB SLT ISZERO PUSH2 0x1479 JUMPI PUSH2 0x1478 PUSH2 0x13C4 JUMP JUMPDEST JUMPDEST PUSH1 0x0 PUSH2 0x1487 DUP6 DUP3 DUP7 ADD PUSH2 0x1417 JUMP JUMPDEST SWAP3 POP POP PUSH1 0x20 PUSH2 0x1498 DUP6 DUP3 DUP7 ADD PUSH2 0x144D JUMP JUMPDEST SWAP2 POP POP SWAP3 POP SWAP3 SWAP1 POP JUMP JUMPDEST PUSH1 0x0 DUP2 ISZERO ISZERO SWAP1 POP SWAP2 SWAP1 POP JUMP JUMPDEST PUSH2 0x14B7 DUP2 PUSH2 0x14A2 JUMP JUMPDEST DUP3 MSTORE POP POP JUMP JUMPDEST PUSH1 0x0 PUSH1 0x20 DUP3 ADD SWAP1 POP PUSH2 0x14D2 PUSH1 0x0 DUP4 ADD DUP5 PUSH2 0x14AE JUMP JUMPDEST SWAP3 SWAP2 POP POP JUMP JUMPDEST PUSH1 0x0 PUSH1 0x20 DUP3 DUP5 SUB SLT ISZERO PUSH2 0x14EE JUMPI PUSH2 0x14ED PUSH2 0x13C4 JUMP JUMPDEST JUMPDEST PUSH1 0x0 PUSH2 0x14FC DUP5 DUP3 DUP6 ADD PUSH2 0x1417 JUMP JUMPDEST SWAP2 POP POP SWAP3 SWAP2 POP POP JUMP JUMPDEST PUSH2 0x150E DUP2 PUSH2 0x142C JUMP JUMPDEST DUP3 MSTORE POP POP JUMP JUMPDEST PUSH1 0x0 PUSH1 0x20 DUP3 ADD SWAP1 POP PUSH2 0x1529 PUSH1 0x0 DUP4 ADD DUP5 PUSH2 0x1505 JUMP JUMPDEST SWAP3 SWAP2 POP POP JUMP JUMPDEST PUSH1 0x0 DUP1 PUSH1 0x0 PUSH1 0x60 DUP5 DUP7 SUB SLT ISZERO PUSH2 0x1548 JUMPI PUSH2 0x1547 PUSH2 0x13C4 JUMP JUMPDEST JUMPDEST PUSH1 0x0 PUSH2 0x1556 DUP7 DUP3 DUP8 ADD PUSH2 0x1417 JUMP JUMPDEST SWAP4 POP POP PUSH1 0x20 PUSH2 0x1567 DUP7 DUP3 DUP8 ADD PUSH2 0x1417 JUMP JUMPDEST SWAP3 POP POP PUSH1 0x40 PUSH2 0x1578 DUP7 DUP3 DUP8 ADD PUSH2 0x144D JUMP JUMPDEST SWAP2 POP POP SWAP3 POP SWAP3 POP SWAP3 JUMP JUMPDEST PUSH1 0x0 PUSH1 0xFF DUP3 AND SWAP1 POP SWAP2 SWAP1 POP JUMP JUMPDEST PUSH2 0x1598 DUP2 PUSH2 0x1582 JUMP JUMPDEST DUP3 MSTORE POP POP JUMP JUMPDEST PUSH1 0x0 PUSH1 0x20 DUP3 ADD SWAP1 POP PUSH2 0x15B3 PUSH1 0x0 DUP4 ADD DUP5 PUSH2 0x158F JUMP JUMPDEST SWAP3 SWAP2 POP POP JUMP JUMPDEST PUSH1 0x0 PUSH1 0x20 DUP3 DUP5 SUB SLT ISZERO PUSH2 0x15CF JUMPI PUSH2 0x15CE PUSH2 0x13C4 JUMP JUMPDEST JUMPDEST PUSH1 0x0 PUSH2 0x15DD DUP5 DUP3 DUP6 ADD PUSH2 0x144D JUMP JUMPDEST SWAP2 POP POP SWAP3 SWAP2 POP POP JUMP JUMPDEST PUSH1 0x0 DUP1 REVERT JUMPDEST PUSH1 0x0 DUP1 REVERT JUMPDEST PUSH1 0x0 DUP1 REVERT JUMPDEST PUSH1 0x0 DUP1 DUP4 PUSH1 0x1F DUP5 ADD SLT PUSH2 0x160B JUMPI PUSH2 0x160A PUSH2 0x15E6 JUMP JUMPDEST JUMPDEST DUP3 CALLDATALOAD SWAP1 POP PUSH8 0xFFFFFFFFFFFFFFFF DUP2 GT ISZERO PUSH2 0x1628 JUMPI PUSH2 0x1627 PUSH2 0x15EB JUMP JUMPDEST JUMPDEST PUSH1 0x20 DUP4 ADD SWAP2 POP DUP4 PUSH1 0x1 DUP3 MUL DUP4 ADD GT ISZERO PUSH2 0x1644 JUMPI PUSH2 0x1643 PUSH2 0x15F0 JUMP JUMPDEST JUMPDEST SWAP3 POP SWAP3 SWAP1 POP JUMP JUMPDEST PUSH1 0x0 DUP1 PUSH1 0x20 DUP4 DUP6 SUB SLT ISZERO PUSH2 0x1662 JUMPI PUSH2 0x1661 PUSH2 0x13C4 JUMP JUMPDEST JUMPDEST PUSH1 0x0 DUP4 ADD CALLDATALOAD PUSH8 0xFFFFFFFFFFFFFFFF DUP2 GT ISZERO PUSH2 0x1680 JUMPI PUSH2 0x167F PUSH2 0x13C9 JUMP JUMPDEST JUMPDEST PUSH2 0x168C DUP6 DUP3 DUP7 ADD PUSH2 0x15F5 JUMP JUMPDEST SWAP3 POP SWAP3 POP POP SWAP3 POP SWAP3 SWAP1 POP JUMP JUMPDEST PUSH2 0x16A1 DUP2 PUSH2 0x13EE JUMP JUMPDEST DUP3 MSTORE POP POP JUMP JUMPDEST PUSH1 0x0 PUSH1 0x60 DUP3 ADD SWAP1 POP PUSH2 0x16BC PUSH1 0x0 DUP4 ADD DUP7 PUSH2 0x1698 JUMP JUMPDEST DUP2 DUP2 SUB PUSH1 0x20 DUP4 ADD MSTORE PUSH2 0x16CE DUP2 DUP6 PUSH2 0x1369 JUMP JUMPDEST SWAP1 POP PUSH2 0x16DD PUSH1 0x40 DUP4 ADD DUP5 PUSH2 0x1505 JUMP JUMPDEST SWAP5 SWAP4 POP POP POP POP JUMP JUMPDEST PUSH1 0x0 DUP1 PUSH1 0x40 DUP4 DUP6 SUB SLT ISZERO PUSH2 0x16FC JUMPI PUSH2 0x16FB PUSH2 0x13C4 JUMP JUMPDEST JUMPDEST PUSH1 0x0 PUSH2 0x170A DUP6 DUP3 DUP7 ADD PUSH2 0x1417 JUMP JUMPDEST SWAP3 POP POP PUSH1 0x20 PUSH2 0x171B DUP6 DUP3 DUP7 ADD PUSH2 0x1417 JUMP JUMPDEST SWAP2 POP POP SWAP3 POP SWAP3 SWAP1 POP JUMP JUMPDEST PUSH32 0x4E487B7100000000000000000000000000000000000000000000000000000000 PUSH1 0x0 MSTORE PUSH1 0x22 PUSH1 0x4 MSTORE PUSH1 0x24 PUSH1 0x0 REVERT JUMPDEST PUSH1 0x0 PUSH1 0x2 DUP3 DIV SWAP1 POP PUSH1 0x1 DUP3 AND DUP1 PUSH2 0x176C JUMPI PUSH1 0x7F DUP3 AND SWAP2 POP JUMPDEST PUSH1 0x20 DUP3 LT DUP2 SUB PUSH2 0x177F JUMPI PUSH2 0x177E PUSH2 0x1725 JUMP JUMPDEST JUMPDEST POP SWAP2 SWAP1 POP JUMP JUMPDEST PUSH32 0x4D6178696D756D20617070726F76616C206F66203120574D4220546F6B656E73 PUSH1 0x0 DUP3 ADD MSTORE POP JUMP JUMPDEST PUSH1 0x0 PUSH2 0x17BB PUSH1 0x20 DUP4 PUSH2 0x131D JUMP JUMPDEST SWAP2 POP PUSH2 0x17C6 DUP3 PUSH2 0x1785 JUMP JUMPDEST PUSH1 0x20 DUP3 ADD SWAP1 POP SWAP2 SWAP1 POP JUMP JUMPDEST PUSH1 0x0 PUSH1 0x20 DUP3 ADD SWAP1 POP DUP2 DUP2 SUB PUSH1 0x0 DUP4 ADD MSTORE PUSH2 0x17EA DUP2 PUSH2 0x17AE JUMP JUMPDEST SWAP1 POP SWAP2 SWAP1 POP JUMP JUMPDEST PUSH32 0x4D6178696D756D207472616E73666572206F6620302E3120574D4220546F6B65 PUSH1 0x0 DUP3 ADD MSTORE PUSH32 0x6E73000000000000000000000000000000000000000000000000000000000000 PUSH1 0x20 DUP3 ADD MSTORE POP JUMP JUMPDEST PUSH1 0x0 PUSH2 0x184D PUSH1 0x22 DUP4 PUSH2 0x131D JUMP JUMPDEST SWAP2 POP PUSH2 0x1858 DUP3 PUSH2 0x17F1 JUMP JUMPDEST PUSH1 0x40 DUP3 ADD SWAP1 POP SWAP2 SWAP1 POP JUMP JUMPDEST PUSH1 0x0 PUSH1 0x20 DUP3 ADD SWAP1 POP DUP2 DUP2 SUB PUSH1 0x0 DUP4 ADD MSTORE PUSH2 0x187C DUP2 PUSH2 0x1840 JUMP JUMPDEST SWAP1 POP SWAP2 SWAP1 POP JUMP JUMPDEST PUSH32 0x4E487B7100000000000000000000000000000000000000000000000000000000 PUSH1 0x0 MSTORE PUSH1 0x11 PUSH1 0x4 MSTORE PUSH1 0x24 PUSH1 0x0 REVERT JUMPDEST PUSH1 0x0 PUSH2 0x18BD DUP3 PUSH2 0x142C JUMP JUMPDEST SWAP2 POP PUSH2 0x18C8 DUP4 PUSH2 0x142C JUMP JUMPDEST SWAP3 POP DUP3 DUP3 SUB SWAP1 POP DUP2 DUP2 GT ISZERO PUSH2 0x18E0 JUMPI PUSH2 0x18DF PUSH2 0x1883 JUMP JUMPDEST JUMPDEST SWAP3 SWAP2 POP POP JUMP JUMPDEST PUSH1 0x0 PUSH2 0x18F1 DUP3 PUSH2 0x142C JUMP JUMPDEST SWAP2 POP PUSH2 0x18FC DUP4 PUSH2 0x142C JUMP JUMPDEST SWAP3 POP DUP3 DUP3 ADD SWAP1 POP DUP1 DUP3 GT ISZERO PUSH2 0x1914 JUMPI PUSH2 0x1913 PUSH2 0x1883 JUMP JUMPDEST JUMPDEST SWAP3 SWAP2 POP POP JUMP JUMPDEST PUSH1 0x0 DUP3 SWAP1 POP SWAP3 SWAP2 POP POP JUMP JUMPDEST PUSH32 0x4E487B7100000000000000000000000000000000000000000000000000000000 PUSH1 0x0 MSTORE PUSH1 0x41 PUSH1 0x4 MSTORE PUSH1 0x24 PUSH1 0x0 REVERT JUMPDEST PUSH1 0x0 DUP2 SWAP1 POP DUP2 PUSH1 0x0 MSTORE PUSH1 0x20 PUSH1 0x0 KECCAK256 SWAP1 POP SWAP2 SWAP1 POP JUMP JUMPDEST PUSH1 0x0 PUSH1 0x20 PUSH1 0x1F DUP4 ADD DIV SWAP1 POP SWAP2 SWAP1 POP JUMP JUMPDEST PUSH1 0x0 DUP3 DUP3 SHL SWAP1 POP SWAP3 SWAP2 POP POP JUMP JUMPDEST PUSH1 0x0 PUSH1 0x8 DUP4 MUL PUSH2 0x19B6 PUSH32 0xFFFFFFFFFFFFFFFFFFFFFFFFFFFFFFFFFFFFFFFFFFFFFFFFFFFFFFFFFFFFFFFF DUP3 PUSH2 0x1979 JUMP JUMPDEST PUSH2 0x19C0 DUP7 DUP4 PUSH2 0x1979 JUMP JUMPDEST SWAP6 POP DUP1 NOT DUP5 AND SWAP4 POP DUP1 DUP7 AND DUP5 OR SWAP3 POP POP POP SWAP4 SWAP3 POP POP POP JUMP JUMPDEST PUSH1 0x0 DUP2 SWAP1 POP SWAP2 SWAP1 POP JUMP JUMPDEST PUSH1 0x0 PUSH2 0x19FD PUSH2 0x19F8 PUSH2 0x19F3 DUP5 PUSH2 0x142C JUMP JUMPDEST PUSH2 0x19D8 JUMP JUMPDEST PUSH2 0x142C JUMP JUMPDEST SWAP1 POP SWAP2 SWAP1 POP JUMP JUMPDEST PUSH1 0x0 DUP2 SWAP1 POP SWAP2 SWAP1 POP JUMP JUMPDEST PUSH2 0x1A17 DUP4 PUSH2 0x19E2 JUMP JUMPDEST PUSH2 0x1A2B PUSH2 0x1A23 DUP3 PUSH2 0x1A04 JUMP JUMPDEST DUP5 DUP5 SLOAD PUSH2 0x1986 JUMP JUMPDEST DUP3 SSTORE POP POP POP POP JUMP JUMPDEST PUSH1 0x0 SWAP1 JUMP JUMPDEST PUSH2 0x1A40 PUSH2 0x1A33 JUMP JUMPDEST PUSH2 0x1A4B DUP2 DUP5 DUP5 PUSH2 0x1A0E JUMP JUMPDEST POP POP POP JUMP JUMPDEST JUMPDEST DUP2 DUP2 LT ISZERO PUSH2 0x1A6F JUMPI PUSH2 0x1A64 PUSH1 0x0 DUP3 PUSH2 0x1A38 JUMP JUMPDEST PUSH1 0x1 DUP2 ADD SWAP1 POP PUSH2 0x1A51 JUMP JUMPDEST POP POP JUMP JUMPDEST PUSH1 0x1F DUP3 GT ISZERO PUSH2 0x1AB4 JUMPI PUSH2 0x1A85 DUP2 PUSH2 0x1954 JUMP JUMPDEST PUSH2 0x1A8E DUP5 PUSH2 0x1969 JUMP JUMPDEST DUP2 ADD PUSH1 0x20 DUP6 LT ISZERO PUSH2 0x1A9D JUMPI DUP2 SWAP1 POP JUMPDEST PUSH2 0x1AB1 PUSH2 0x1AA9 DUP6 PUSH2 0x1969 JUMP JUMPDEST DUP4 ADD DUP3 PUSH2 0x1A50 JUMP JUMPDEST POP POP JUMPDEST POP POP POP JUMP JUMPDEST PUSH1 0x0 DUP3 DUP3 SHR SWAP1 POP SWAP3 SWAP2 POP POP JUMP JUMPDEST PUSH1 0x0 PUSH2 0x1AD7 PUSH1 0x0 NOT DUP5 PUSH1 0x8 MUL PUSH2 0x1AB9 JUMP JUMPDEST NOT DUP1 DUP4 AND SWAP2 POP POP SWAP3 SWAP2 POP POP JUMP JUMPDEST PUSH1 0x0 PUSH2 0x1AF0 DUP4 DUP4 PUSH2 0x1AC6 JUMP JUMPDEST SWAP2 POP DUP3 PUSH1 0x2 MUL DUP3 OR SWAP1 POP SWAP3 SWAP2 POP POP JUMP JUMPDEST PUSH2 0x1B0A DUP4 DUP4 PUSH2 0x191A JUMP JUMPDEST PUSH8 0xFFFFFFFFFFFFFFFF DUP2 GT ISZERO PUSH2 0x1B23 JUMPI PUSH2 0x1B22 PUSH2 0x1925 JUMP JUMPDEST JUMPDEST PUSH2 0x1B2D DUP3 SLOAD PUSH2 0x1754 JUMP JUMPDEST PUSH2 0x1B38 DUP3 DUP3 DUP6 PUSH2 0x1A73 JUMP JUMPDEST PUSH1 0x0 PUSH1 0x1F DUP4 GT PUSH1 0x1 DUP2 EQ PUSH2 0x1B67 JUMPI PUSH1 0x0 DUP5 ISZERO PUSH2 0x1B55 JUMPI DUP3 DUP8 ADD CALLDATALOAD SWAP1 POP JUMPDEST PUSH2 0x1B5F DUP6 DUP3 PUSH2 0x1AE4 JUMP JUMPDEST DUP7 SSTORE POP PUSH2 0x1BC7 JUMP JUMPDEST PUSH1 0x1F NOT DUP5 AND PUSH2 0x1B75 DUP7 PUSH2 0x1954 JUMP JUMPDEST PUSH1 0x0 JUMPDEST DUP3 DUP2 LT ISZERO PUSH2 0x1B9D JUMPI DUP5 DUP10 ADD CALLDATALOAD DUP3 SSTORE PUSH1 0x1 DUP3 ADD SWAP2 POP PUSH1 0x20 DUP6 ADD SWAP5 POP PUSH1 0x20 DUP2 ADD SWAP1 POP PUSH2 0x1B78 JUMP JUMPDEST DUP7 DUP4 LT ISZERO PUSH2 0x1BBA JUMPI DUP5 DUP10 ADD CALLDATALOAD PUSH2 0x1BB6 PUSH1 0x1F DUP10 AND DUP3 PUSH2 0x1AC6 JUMP JUMPDEST DUP4 SSTORE POP JUMPDEST PUSH1 0x1 PUSH1 0x2 DUP9 MUL ADD DUP9 SSTORE POP POP POP JUMPDEST POP POP POP POP POP POP POP JUMP JUMPDEST PUSH32 0x4E487B7100000000000000000000000000000000000000000000000000000000 PUSH1 0x0 MSTORE PUSH1 0x32 PUSH1 0x4 MSTORE PUSH1 0x24 PUSH1 0x0 REVERT JUMPDEST PUSH2 0x1C08 DUP3 PUSH2 0x1312 JUMP JUMPDEST PUSH8 0xFFFFFFFFFFFFFFFF DUP2 GT ISZERO PUSH2 0x1C21 JUMPI PUSH2 0x1C20 PUSH2 0x1925 JUMP JUMPDEST JUMPDEST PUSH2 0x1C2B DUP3 SLOAD PUSH2 0x1754 JUMP JUMPDEST PUSH2 0x1C36 DUP3 DUP3 DUP6 PUSH2 0x1A73 JUMP JUMPDEST PUSH1 0x0 PUSH1 0x20 SWAP1 POP PUSH1 0x1F DUP4 GT PUSH1 0x1 DUP2 EQ PUSH2 0x1C69 JUMPI PUSH1 0x0 DUP5 ISZERO PUSH2 0x1C57 JUMPI DUP3 DUP8 ADD MLOAD SWAP1 POP JUMPDEST PUSH2 0x1C61 DUP6 DUP3 PUSH2 0x1AE4 JUMP JUMPDEST DUP7 SSTORE POP PUSH2 0x1CC9 JUMP JUMPDEST PUSH1 0x1F NOT DUP5 AND PUSH2 0x1C77 DUP7 PUSH2 0x1954 JUMP JUMPDEST PUSH1 0x0 JUMPDEST DUP3 DUP2 LT ISZERO PUSH2 0x1C9F JUMPI DUP5 DUP10 ADD MLOAD DUP3 SSTORE PUSH1 0x1 DUP3 ADD SWAP2 POP PUSH1 0x20 DUP6 ADD SWAP5 POP PUSH1 0x20 DUP2 ADD SWAP1 POP PUSH2 0x1C7A JUMP JUMPDEST DUP7 DUP4 LT ISZERO PUSH2 0x1CBC JUMPI DUP5 DUP10 ADD MLOAD PUSH2 0x1CB8 PUSH1 0x1F DUP10 AND DUP3 PUSH2 0x1AC6 JUMP JUMPDEST DUP4 SSTORE POP JUMPDEST PUSH1 0x1 PUSH1 0x2 DUP9 MUL ADD DUP9 SSTORE POP POP POP JUMPDEST POP POP POP POP POP POP JUMP JUMPDEST PUSH1 0x0 PUSH2 0x1CDC DUP3 PUSH2 0x1582 JUMP JUMPDEST SWAP2 POP PUSH1 0xFF DUP3 SUB PUSH2 0x1CEF JUMPI PUSH2 0x1CEE PUSH2 0x1883 JUMP JUMPDEST JUMPDEST PUSH1 0x1 DUP3 ADD SWAP1 POP SWAP2 SWAP1 POP JUMP INVALID LOG2 PUSH5 0x6970667358 0x22 SLT KECCAK256 PUSH7 0x780C94B173E5E4 0xA9 0xD PUSH18 0x72B9E3BCA27723DC2362B7D7668A35DD6AB8 PUSH32 0xA58F64736F6C6343000811003300000000000000000000000000000000000000 "},"gasEstimates":{"creation":{"codeDepositCost":"1494400","executionCost":"infinite","totalCost":"infinite"},"external":{"allowance(address,address)":"infinite","approve(address,uint256)":"infinite","balanceOf(address)":"2859","burn(uint256)":"infinite","decimals()":"2516","leaders(uint256)":"infinite","mint(uint256)":"infinite","name()":"infinite","personName(address)":"infinite","setName(string)":"infinite","setPersonName(string)":"infinite","setStartDate()":"24625","startDate(address)":"2837","symbol()":"infinite","totalSupply()":"2519","transfer(address,uint256)":"infinite","transferFrom(address,address,uint256)":"infinite"},"internal":{"updateLeaderBoard(uint256,address)":"infinite"}},"methodIdentifiers":{"allowance(address,address)":"dd62ed3e","approve(address,uint256)":"095ea7b3","balanceOf(address)":"70a08231","burn(uint256)":"42966c68","decimals()":"313ce567","leaders(uint256)":"a36e6577","mint(uint256)":"a0712d68","name()":"06fdde03","personName(address)":"0b755556","setName(string)":"c47f0027","setPersonName(string)":"4e863271","setStartDate()":"7c69710f","startDate(address)":"50702ec9","symbol()":"95d89b41","totalSupply()":"18160ddd","transfer(address,uint256)":"a9059cbb","transferFrom(address,address,uint256)":"23b872dd"}},"storageLayout":{"storage":[{"astId":72,"contract":"wmbToken.sol:wmbToken","label":"totalSupply","offset":0,"slot":"0","type":"t_uint256"},{"astId":76,"contract":"wmbToken.sol:wmbToken","label":"balanceOf","offset":0,"slot":"1","type":"t_mapping(t_address,t_uint256)"},{"astId":82,"contract":"wmbToken.sol:wmbToken","label":"allowance","offset":0,"slot":"2","type":"t_mapping(t_address,t_mapping(t_address,t_uint256))"},{"astId":85,"contract":"wmbToken.sol:wmbToken","label":"name","offset":0,"slot":"3","type":"t_string_storage"},{"astId":88,"contract":"wmbToken.sol:wmbToken","label":"symbol","offset":0,"slot":"4","type":"t_string_storage"},{"astId":91,"contract":"wmbToken.sol:wmbToken","label":"decimals","offset":0,"slot":"5","type":"t_uint8"},{"astId":95,"contract":"wmbToken.sol:wmbToken","label":"startDate","offset":0,"slot":"6","type":"t_mapping(t_address,t_uint256)"},{"astId":99,"contract":"wmbToken.sol:wmbToken","label":"personName","offset":0,"slot":"7","type":"t_mapping(t_address,t_string_storage)"},{"astId":111,"contract":"wmbToken.sol:wmbToken","label":"leaders","offset":0,"slot":"8","type":"t_array(t_struct(scores)106_storage)5_storage"}],"types":{"t_address":{"encoding":"inplace","label":"address","numberOfBytes":"20"},"t_array(t_struct(scores)106_storage)5_storage":{"base":"t_struct(scores)106_storage","encoding":"inplace","label":"struct wmbToken.scores[5]","numberOfBytes":"480"},"t_mapping(t_address,t_mapping(t_address,t_uint256))":{"encoding":"mapping","key":"t_address","label":"mapping(address => mapping(address => uint256))","numberOfBytes":"32","value":"t_mapping(t_address,t_uint256)"},"t_mapping(t_address,t_string_storage)":{"encoding":"mapping","key":"t_address","label":"mapping(address => string)","numberOfBytes":"32","value":"t_string_storage"},"t_mapping(t_address,t_uint256)":{"encoding":"mapping","key":"t_address","label":"mapping(address => uint256)","numberOfBytes":"32","value":"t_uint256"},"t_string_storage":{"encoding":"bytes","label":"string","numberOfBytes":"32"},"t_struct(scores)106_storage":{"encoding":"inplace","label":"struct wmbToken.scores","members":[{"astId":101,"contract":"wmbToken.sol:wmbToken","label":"accountAddress","offset":0,"slot":"0","type":"t_address"},{"astId":103,"contract":"wmbToken.sol:wmbToken","label":"accountName","offset":0,"slot":"1","type":"t_string_storage"},{"astId":105,"contract":"wmbToken.sol:wmbToken","label":"distance","offset":0,"slot":"2","type":"t_uint256"}],"numberOfBytes":"96"},"t_uint256":{"encoding":"inplace","label":"uint256","numberOfBytes":"32"},"t_uint8":{"encoding":"inplace","label":"uint8","numberOfBytes":"1"}}},"userdoc":{"kind":"user","methods":{},"version":1}}