{"abi":[{"anonymous":false,"inputs":[{"indexed":true,"internalType":"address","name":"owner","type":"address"},{"indexed":true,"internalType":"address","name":"spender","type":"address"},{"indexed":false,"internalType":"uint256","name":"amount","type":"uint256"}],"name":"Approval","type":"event"},{"anonymous":false,"inputs":[{"indexed":true,"internalType":"address","name":"from","type":"address"},{"indexed":true,"internalType":"address","name":"to","type":"address"},{"indexed":false,"internalType":"uint256","name":"amount","type":"uint256"}],"name":"Transfer","type":"event"},{"inputs":[{"internalType":"address","name":"","type":"address"},{"internalType":"address","name":"","type":"address"}],"name":"allowance","outputs":[{"internalType":"uint256","name":"","type":"uint256"}],"stateMutability":"view","type":"function"},{"inputs":[{"internalType":"address","name":"spender","type":"address"},{"internalType":"uint256","name":"amount","type":"uint256"}],"name":"approve","outputs":[{"internalType":"bool","name":"","type":"bool"}],"stateMutability":"nonpayable","type":"function"},{"inputs":[{"internalType":"address","name":"","type":"address"}],"name":"balanceOf","outputs":[{"internalType":"uint256","name":"","type":"uint256"}],"stateMutability":"view","type":"function"},{"inputs":[{"internalType":"uint256","name":"amount","type":"uint256"}],"name":"burn","outputs":[],"stateMutability":"nonpayable","type":"function"},{"inputs":[],"name":"decimals","outputs":[{"internalType":"uint8","name":"","type":"uint8"}],"stateMutability":"view","type":"function"},{"inputs":[{"internalType":"address","name":"","type":"address"}],"name":"has10000km","outputs":[{"internalType":"bool","name":"","type":"bool"}],"stateMutability":"view","type":"function"},{"inputs":[{"internalType":"address","name":"","type":"address"}],"name":"has1000km","outputs":[{"internalType":"bool","name":"","type":"bool"}],"stateMutability":"view","type":"function"},{"inputs":[{"internalType":"address","name":"","type":"address"}],"name":"has100km","outputs":[{"internalType":"bool","name":"","type":"bool"}],"stateMutability":"view","type":"function"},{"inputs":[{"internalType":"address","name":"","type":"address"}],"name":"has10km","outputs":[{"internalType":"bool","name":"","type":"bool"}],"stateMutability":"view","type":"function"},{"inputs":[{"internalType":"address","name":"","type":"address"}],"name":"has500km","outputs":[{"internalType":"bool","name":"","type":"bool"}],"stateMutability":"view","type":"function"},{"inputs":[{"internalType":"address","name":"","type":"address"}],"name":"has5km","outputs":[{"internalType":"bool","name":"","type":"bool"}],"stateMutability":"view","type":"function"},{"inputs":[{"internalType":"uint256","name":"amount","type":"uint256"}],"name":"mint","outputs":[],"stateMutability":"nonpayable","type":"function"},{"inputs":[],"name":"name","outputs":[{"internalType":"string","name":"","type":"string"}],"stateMutability":"view","type":"function"},{"inputs":[{"internalType":"address","name":"","type":"address"}],"name":"personName","outputs":[{"internalType":"string","name":"","type":"string"}],"stateMutability":"view","type":"function"},{"inputs":[{"internalType":"string","name":"Pname","type":"string"}],"name":"setName","outputs":[],"stateMutability":"nonpayable","type":"function"},{"inputs":[{"internalType":"string","name":"person","type":"string"}],"name":"setPersonName","outputs":[],"stateMutability":"nonpayable","type":"function"},{"inputs":[],"name":"setStartDate","outputs":[],"stateMutability":"nonpayable","type":"function"},{"inputs":[{"internalType":"address","name":"","type":"address"}],"name":"startDate","outputs":[{"internalType":"uint256","name":"","type":"uint256"}],"stateMutability":"view","type":"function"},{"inputs":[],"name":"symbol","outputs":[{"internalType":"string","name":"","type":"string"}],"stateMutability":"view","type":"function"},{"inputs":[],"name":"totalSupply","outputs":[{"internalType":"uint256","name":"","type":"uint256"}],"stateMutability":"view","type":"function"},{"inputs":[{"internalType":"address","name":"recipient","type":"address"},{"internalType":"uint256","name":"amount","type":"uint256"}],"name":"transfer","outputs":[{"internalType":"bool","name":"","type":"bool"}],"stateMutability":"nonpayable","type":"function"},{"inputs":[{"internalType":"address","name":"sender","type":"address"},{"internalType":"address","name":"recipient","type":"address"},{"internalType":"uint256","name":"amount","type":"uint256"}],"name":"transferFrom","outputs":[{"internalType":"bool","name":"","type":"bool"}],"stateMutability":"nonpayable","type":"function"}],"devdoc":{"kind":"dev","methods":{},"version":1},"evm":{"assembly":"    /* \"wmbToken.sol\":1231:5351  contract wmbToken is IERC20 {... */\n  mstore(0x40, 0x80)\n    /* \"wmbToken.sol\":1412:1443  string public name = \"WMBWalks\" */\n  mload(0x40)\n  dup1\n  0x40\n  add\n  0x40\n  mstore\n  dup1\n  0x08\n  dup2\n  mstore\n  0x20\n  add\n  0x574d4257616c6b73000000000000000000000000000000000000000000000000\n  dup2\n  mstore\n  pop\n  0x03\n  swap1\n  dup2\n  tag_1\n  swap2\n  swap1\n  tag_2\n  jump\t// in\ntag_1:\n  pop\n    /* \"wmbToken.sol\":1450:1478  string public symbol = \"WMB\" */\n  mload(0x40)\n  dup1\n  0x40\n  add\n  0x40\n  mstore\n  dup1\n  0x03\n  dup2\n  mstore\n  0x20\n  add\n  0x574d420000000000000000000000000000000000000000000000000000000000\n  dup2\n  mstore\n  pop\n  0x04\n  swap1\n  dup2\n  tag_3\n  swap2\n  swap1\n  tag_2\n  jump\t// in\ntag_3:\n  pop\n    /* \"wmbToken.sol\":1509:1510  2 */\n  0x02\n    /* \"wmbToken.sol\":1485:1510  uint8 public decimals = 2 */\n  0x05\n  exp(0x0100, 0x00)\n  dup2\n  sload\n  dup2\n  0xff\n  mul\n  not\n  and\n  swap1\n  dup4\n  0xff\n  and\n  mul\n  or\n  swap1\n  sstore\n  pop\n    /* \"wmbToken.sol\":1231:5351  contract wmbToken is IERC20 {... */\n  callvalue\n  dup1\n  iszero\n  tag_4\n  jumpi\n  0x00\n  dup1\n  revert\ntag_4:\n  pop\n  jump(tag_5)\n    /* \"#utility.yul\":7:106   */\ntag_6:\n    /* \"#utility.yul\":59:65   */\n  0x00\n    /* \"#utility.yul\":93:98   */\n  dup2\n    /* \"#utility.yul\":87:99   */\n  mload\n    /* \"#utility.yul\":77:99   */\n  swap1\n  pop\n    /* \"#utility.yul\":7:106   */\n  swap2\n  swap1\n  pop\n  jump\t// out\n    /* \"#utility.yul\":112:292   */\ntag_7:\n    /* \"#utility.yul\":160:237   */\n  0x4e487b7100000000000000000000000000000000000000000000000000000000\n    /* \"#utility.yul\":157:158   */\n  0x00\n    /* \"#utility.yul\":150:238   */\n  mstore\n    /* \"#utility.yul\":257:261   */\n  0x41\n    /* \"#utility.yul\":254:255   */\n  0x04\n    /* \"#utility.yul\":247:262   */\n  mstore\n    /* \"#utility.yul\":281:285   */\n  0x24\n    /* \"#utility.yul\":278:279   */\n  0x00\n    /* \"#utility.yul\":271:286   */\n  revert\n    /* \"#utility.yul\":298:478   */\ntag_8:\n    /* \"#utility.yul\":346:423   */\n  0x4e487b7100000000000000000000000000000000000000000000000000000000\n    /* \"#utility.yul\":343:344   */\n  0x00\n    /* \"#utility.yul\":336:424   */\n  mstore\n    /* \"#utility.yul\":443:447   */\n  0x22\n    /* \"#utility.yul\":440:441   */\n  0x04\n    /* \"#utility.yul\":433:448   */\n  mstore\n    /* \"#utility.yul\":467:471   */\n  0x24\n    /* \"#utility.yul\":464:465   */\n  0x00\n    /* \"#utility.yul\":457:472   */\n  revert\n    /* \"#utility.yul\":484:804   */\ntag_9:\n    /* \"#utility.yul\":528:534   */\n  0x00\n    /* \"#utility.yul\":565:566   */\n  0x02\n    /* \"#utility.yul\":559:563   */\n  dup3\n    /* \"#utility.yul\":555:567   */\n  div\n    /* \"#utility.yul\":545:567   */\n  swap1\n  pop\n    /* \"#utility.yul\":612:613   */\n  0x01\n    /* \"#utility.yul\":606:610   */\n  dup3\n    /* \"#utility.yul\":602:614   */\n  and\n    /* \"#utility.yul\":633:651   */\n  dup1\n    /* \"#utility.yul\":623:704   */\n  tag_31\n  jumpi\n    /* \"#utility.yul\":689:693   */\n  0x7f\n    /* \"#utility.yul\":681:687   */\n  dup3\n    /* \"#utility.yul\":677:694   */\n  and\n    /* \"#utility.yul\":667:694   */\n  swap2\n  pop\n    /* \"#utility.yul\":623:704   */\ntag_31:\n    /* \"#utility.yul\":751:753   */\n  0x20\n    /* \"#utility.yul\":743:749   */\n  dup3\n    /* \"#utility.yul\":740:754   */\n  lt\n    /* \"#utility.yul\":720:738   */\n  dup2\n    /* \"#utility.yul\":717:755   */\n  sub\n    /* \"#utility.yul\":714:798   */\n  tag_32\n  jumpi\n    /* \"#utility.yul\":770:788   */\n  tag_33\n  tag_8\n  jump\t// in\ntag_33:\n    /* \"#utility.yul\":714:798   */\ntag_32:\n    /* \"#utility.yul\":535:804   */\n  pop\n    /* \"#utility.yul\":484:804   */\n  swap2\n  swap1\n  pop\n  jump\t// out\n    /* \"#utility.yul\":810:951   */\ntag_10:\n    /* \"#utility.yul\":859:863   */\n  0x00\n    /* \"#utility.yul\":882:885   */\n  dup2\n    /* \"#utility.yul\":874:885   */\n  swap1\n  pop\n    /* \"#utility.yul\":905:908   */\n  dup2\n    /* \"#utility.yul\":902:903   */\n  0x00\n    /* \"#utility.yul\":895:909   */\n  mstore\n    /* \"#utility.yul\":939:943   */\n  0x20\n    /* \"#utility.yul\":936:937   */\n  0x00\n    /* \"#utility.yul\":926:944   */\n  keccak256\n    /* \"#utility.yul\":918:944   */\n  swap1\n  pop\n    /* \"#utility.yul\":810:951   */\n  swap2\n  swap1\n  pop\n  jump\t// out\n    /* \"#utility.yul\":957:1050   */\ntag_11:\n    /* \"#utility.yul\":994:1000   */\n  0x00\n    /* \"#utility.yul\":1041:1043   */\n  0x20\n    /* \"#utility.yul\":1036:1038   */\n  0x1f\n    /* \"#utility.yul\":1029:1034   */\n  dup4\n    /* \"#utility.yul\":1025:1039   */\n  add\n    /* \"#utility.yul\":1021:1044   */\n  div\n    /* \"#utility.yul\":1011:1044   */\n  swap1\n  pop\n    /* \"#utility.yul\":957:1050   */\n  swap2\n  swap1\n  pop\n  jump\t// out\n    /* \"#utility.yul\":1056:1163   */\ntag_12:\n    /* \"#utility.yul\":1100:1108   */\n  0x00\n    /* \"#utility.yul\":1150:1155   */\n  dup3\n    /* \"#utility.yul\":1144:1148   */\n  dup3\n    /* \"#utility.yul\":1140:1156   */\n  shl\n    /* \"#utility.yul\":1119:1156   */\n  swap1\n  pop\n    /* \"#utility.yul\":1056:1163   */\n  swap3\n  swap2\n  pop\n  pop\n  jump\t// out\n    /* \"#utility.yul\":1169:1562   */\ntag_13:\n    /* \"#utility.yul\":1238:1244   */\n  0x00\n    /* \"#utility.yul\":1288:1289   */\n  0x08\n    /* \"#utility.yul\":1276:1286   */\n  dup4\n    /* \"#utility.yul\":1272:1290   */\n  mul\n    /* \"#utility.yul\":1311:1408   */\n  tag_38\n    /* \"#utility.yul\":1341:1407   */\n  0xffffffffffffffffffffffffffffffffffffffffffffffffffffffffffffffff\n    /* \"#utility.yul\":1330:1339   */\n  dup3\n    /* \"#utility.yul\":1311:1408   */\n  tag_12\n  jump\t// in\ntag_38:\n    /* \"#utility.yul\":1429:1468   */\n  tag_39\n    /* \"#utility.yul\":1459:1467   */\n  dup7\n    /* \"#utility.yul\":1448:1457   */\n  dup4\n    /* \"#utility.yul\":1429:1468   */\n  tag_12\n  jump\t// in\ntag_39:\n    /* \"#utility.yul\":1417:1468   */\n  swap6\n  pop\n    /* \"#utility.yul\":1501:1505   */\n  dup1\n    /* \"#utility.yul\":1497:1506   */\n  not\n    /* \"#utility.yul\":1490:1495   */\n  dup5\n    /* \"#utility.yul\":1486:1507   */\n  and\n    /* \"#utility.yul\":1477:1507   */\n  swap4\n  pop\n    /* \"#utility.yul\":1550:1554   */\n  dup1\n    /* \"#utility.yul\":1540:1548   */\n  dup7\n    /* \"#utility.yul\":1536:1555   */\n  and\n    /* \"#utility.yul\":1529:1534   */\n  dup5\n    /* \"#utility.yul\":1526:1556   */\n  or\n    /* \"#utility.yul\":1516:1556   */\n  swap3\n  pop\n    /* \"#utility.yul\":1245:1562   */\n  pop\n  pop\n    /* \"#utility.yul\":1169:1562   */\n  swap4\n  swap3\n  pop\n  pop\n  pop\n  jump\t// out\n    /* \"#utility.yul\":1568:1645   */\ntag_14:\n    /* \"#utility.yul\":1605:1612   */\n  0x00\n    /* \"#utility.yul\":1634:1639   */\n  dup2\n    /* \"#utility.yul\":1623:1639   */\n  swap1\n  pop\n    /* \"#utility.yul\":1568:1645   */\n  swap2\n  swap1\n  pop\n  jump\t// out\n    /* \"#utility.yul\":1651:1711   */\ntag_15:\n    /* \"#utility.yul\":1679:1682   */\n  0x00\n    /* \"#utility.yul\":1700:1705   */\n  dup2\n    /* \"#utility.yul\":1693:1705   */\n  swap1\n  pop\n    /* \"#utility.yul\":1651:1711   */\n  swap2\n  swap1\n  pop\n  jump\t// out\n    /* \"#utility.yul\":1717:1859   */\ntag_16:\n    /* \"#utility.yul\":1767:1776   */\n  0x00\n    /* \"#utility.yul\":1800:1853   */\n  tag_43\n    /* \"#utility.yul\":1818:1852   */\n  tag_44\n    /* \"#utility.yul\":1827:1851   */\n  tag_45\n    /* \"#utility.yul\":1845:1850   */\n  dup5\n    /* \"#utility.yul\":1827:1851   */\n  tag_14\n  jump\t// in\ntag_45:\n    /* \"#utility.yul\":1818:1852   */\n  tag_15\n  jump\t// in\ntag_44:\n    /* \"#utility.yul\":1800:1853   */\n  tag_14\n  jump\t// in\ntag_43:\n    /* \"#utility.yul\":1787:1853   */\n  swap1\n  pop\n    /* \"#utility.yul\":1717:1859   */\n  swap2\n  swap1\n  pop\n  jump\t// out\n    /* \"#utility.yul\":1865:1940   */\ntag_17:\n    /* \"#utility.yul\":1908:1911   */\n  0x00\n    /* \"#utility.yul\":1929:1934   */\n  dup2\n    /* \"#utility.yul\":1922:1934   */\n  swap1\n  pop\n    /* \"#utility.yul\":1865:1940   */\n  swap2\n  swap1\n  pop\n  jump\t// out\n    /* \"#utility.yul\":1946:2215   */\ntag_18:\n    /* \"#utility.yul\":2056:2095   */\n  tag_48\n    /* \"#utility.yul\":2087:2094   */\n  dup4\n    /* \"#utility.yul\":2056:2095   */\n  tag_16\n  jump\t// in\ntag_48:\n    /* \"#utility.yul\":2117:2208   */\n  tag_49\n    /* \"#utility.yul\":2166:2207   */\n  tag_50\n    /* \"#utility.yul\":2190:2206   */\n  dup3\n    /* \"#utility.yul\":2166:2207   */\n  tag_17\n  jump\t// in\ntag_50:\n    /* \"#utility.yul\":2158:2164   */\n  dup5\n    /* \"#utility.yul\":2151:2155   */\n  dup5\n    /* \"#utility.yul\":2145:2156   */\n  sload\n    /* \"#utility.yul\":2117:2208   */\n  tag_13\n  jump\t// in\ntag_49:\n    /* \"#utility.yul\":2111:2115   */\n  dup3\n    /* \"#utility.yul\":2104:2209   */\n  sstore\n    /* \"#utility.yul\":2022:2215   */\n  pop\n    /* \"#utility.yul\":1946:2215   */\n  pop\n  pop\n  pop\n  jump\t// out\n    /* \"#utility.yul\":2221:2294   */\ntag_19:\n    /* \"#utility.yul\":2266:2269   */\n  0x00\n    /* \"#utility.yul\":2221:2294   */\n  swap1\n  jump\t// out\n    /* \"#utility.yul\":2300:2489   */\ntag_20:\n    /* \"#utility.yul\":2377:2409   */\n  tag_53\n  tag_19\n  jump\t// in\ntag_53:\n    /* \"#utility.yul\":2418:2483   */\n  tag_54\n    /* \"#utility.yul\":2476:2482   */\n  dup2\n    /* \"#utility.yul\":2468:2474   */\n  dup5\n    /* \"#utility.yul\":2462:2466   */\n  dup5\n    /* \"#utility.yul\":2418:2483   */\n  tag_18\n  jump\t// in\ntag_54:\n    /* \"#utility.yul\":2353:2489   */\n  pop\n    /* \"#utility.yul\":2300:2489   */\n  pop\n  pop\n  jump\t// out\n    /* \"#utility.yul\":2495:2681   */\ntag_21:\n    /* \"#utility.yul\":2555:2675   */\ntag_56:\n    /* \"#utility.yul\":2572:2575   */\n  dup2\n    /* \"#utility.yul\":2565:2570   */\n  dup2\n    /* \"#utility.yul\":2562:2576   */\n  lt\n    /* \"#utility.yul\":2555:2675   */\n  iszero\n  tag_58\n  jumpi\n    /* \"#utility.yul\":2626:2665   */\n  tag_59\n    /* \"#utility.yul\":2663:2664   */\n  0x00\n    /* \"#utility.yul\":2656:2661   */\n  dup3\n    /* \"#utility.yul\":2626:2665   */\n  tag_20\n  jump\t// in\ntag_59:\n    /* \"#utility.yul\":2599:2600   */\n  0x01\n    /* \"#utility.yul\":2592:2597   */\n  dup2\n    /* \"#utility.yul\":2588:2601   */\n  add\n    /* \"#utility.yul\":2579:2601   */\n  swap1\n  pop\n    /* \"#utility.yul\":2555:2675   */\n  jump(tag_56)\ntag_58:\n    /* \"#utility.yul\":2495:2681   */\n  pop\n  pop\n  jump\t// out\n    /* \"#utility.yul\":2687:3230   */\ntag_22:\n    /* \"#utility.yul\":2788:2790   */\n  0x1f\n    /* \"#utility.yul\":2783:2786   */\n  dup3\n    /* \"#utility.yul\":2780:2791   */\n  gt\n    /* \"#utility.yul\":2777:3223   */\n  iszero\n  tag_61\n  jumpi\n    /* \"#utility.yul\":2822:2860   */\n  tag_62\n    /* \"#utility.yul\":2854:2859   */\n  dup2\n    /* \"#utility.yul\":2822:2860   */\n  tag_10\n  jump\t// in\ntag_62:\n    /* \"#utility.yul\":2906:2935   */\n  tag_63\n    /* \"#utility.yul\":2924:2934   */\n  dup5\n    /* \"#utility.yul\":2906:2935   */\n  tag_11\n  jump\t// in\ntag_63:\n    /* \"#utility.yul\":2896:2904   */\n  dup2\n    /* \"#utility.yul\":2892:2936   */\n  add\n    /* \"#utility.yul\":3089:3091   */\n  0x20\n    /* \"#utility.yul\":3077:3087   */\n  dup6\n    /* \"#utility.yul\":3074:3092   */\n  lt\n    /* \"#utility.yul\":3071:3120   */\n  iszero\n  tag_64\n  jumpi\n    /* \"#utility.yul\":3110:3118   */\n  dup2\n    /* \"#utility.yul\":3095:3118   */\n  swap1\n  pop\n    /* \"#utility.yul\":3071:3120   */\ntag_64:\n    /* \"#utility.yul\":3133:3213   */\n  tag_65\n    /* \"#utility.yul\":3189:3211   */\n  tag_66\n    /* \"#utility.yul\":3207:3210   */\n  dup6\n    /* \"#utility.yul\":3189:3211   */\n  tag_11\n  jump\t// in\ntag_66:\n    /* \"#utility.yul\":3179:3187   */\n  dup4\n    /* \"#utility.yul\":3175:3212   */\n  add\n    /* \"#utility.yul\":3162:3173   */\n  dup3\n    /* \"#utility.yul\":3133:3213   */\n  tag_21\n  jump\t// in\ntag_65:\n    /* \"#utility.yul\":2792:3223   */\n  pop\n  pop\n    /* \"#utility.yul\":2777:3223   */\ntag_61:\n    /* \"#utility.yul\":2687:3230   */\n  pop\n  pop\n  pop\n  jump\t// out\n    /* \"#utility.yul\":3236:3353   */\ntag_23:\n    /* \"#utility.yul\":3290:3298   */\n  0x00\n    /* \"#utility.yul\":3340:3345   */\n  dup3\n    /* \"#utility.yul\":3334:3338   */\n  dup3\n    /* \"#utility.yul\":3330:3346   */\n  shr\n    /* \"#utility.yul\":3309:3346   */\n  swap1\n  pop\n    /* \"#utility.yul\":3236:3353   */\n  swap3\n  swap2\n  pop\n  pop\n  jump\t// out\n    /* \"#utility.yul\":3359:3528   */\ntag_24:\n    /* \"#utility.yul\":3403:3409   */\n  0x00\n    /* \"#utility.yul\":3436:3487   */\n  tag_69\n    /* \"#utility.yul\":3484:3485   */\n  0x00\n    /* \"#utility.yul\":3480:3486   */\n  not\n    /* \"#utility.yul\":3472:3477   */\n  dup5\n    /* \"#utility.yul\":3469:3470   */\n  0x08\n    /* \"#utility.yul\":3465:3478   */\n  mul\n    /* \"#utility.yul\":3436:3487   */\n  tag_23\n  jump\t// in\ntag_69:\n    /* \"#utility.yul\":3432:3488   */\n  not\n    /* \"#utility.yul\":3517:3521   */\n  dup1\n    /* \"#utility.yul\":3511:3515   */\n  dup4\n    /* \"#utility.yul\":3507:3522   */\n  and\n    /* \"#utility.yul\":3497:3522   */\n  swap2\n  pop\n    /* \"#utility.yul\":3410:3528   */\n  pop\n    /* \"#utility.yul\":3359:3528   */\n  swap3\n  swap2\n  pop\n  pop\n  jump\t// out\n    /* \"#utility.yul\":3533:3828   */\ntag_25:\n    /* \"#utility.yul\":3609:3613   */\n  0x00\n    /* \"#utility.yul\":3755:3784   */\n  tag_71\n    /* \"#utility.yul\":3780:3783   */\n  dup4\n    /* \"#utility.yul\":3774:3778   */\n  dup4\n    /* \"#utility.yul\":3755:3784   */\n  tag_24\n  jump\t// in\ntag_71:\n    /* \"#utility.yul\":3747:3784   */\n  swap2\n  pop\n    /* \"#utility.yul\":3817:3820   */\n  dup3\n    /* \"#utility.yul\":3814:3815   */\n  0x02\n    /* \"#utility.yul\":3810:3821   */\n  mul\n    /* \"#utility.yul\":3804:3808   */\n  dup3\n    /* \"#utility.yul\":3801:3822   */\n  or\n    /* \"#utility.yul\":3793:3822   */\n  swap1\n  pop\n    /* \"#utility.yul\":3533:3828   */\n  swap3\n  swap2\n  pop\n  pop\n  jump\t// out\n    /* \"#utility.yul\":3833:5228   */\ntag_2:\n    /* \"#utility.yul\":3950:3987   */\n  tag_73\n    /* \"#utility.yul\":3983:3986   */\n  dup3\n    /* \"#utility.yul\":3950:3987   */\n  tag_6\n  jump\t// in\ntag_73:\n    /* \"#utility.yul\":4052:4070   */\n  0xffffffffffffffff\n    /* \"#utility.yul\":4044:4050   */\n  dup2\n    /* \"#utility.yul\":4041:4071   */\n  gt\n    /* \"#utility.yul\":4038:4094   */\n  iszero\n  tag_74\n  jumpi\n    /* \"#utility.yul\":4074:4092   */\n  tag_75\n  tag_7\n  jump\t// in\ntag_75:\n    /* \"#utility.yul\":4038:4094   */\ntag_74:\n    /* \"#utility.yul\":4118:4156   */\n  tag_76\n    /* \"#utility.yul\":4150:4154   */\n  dup3\n    /* \"#utility.yul\":4144:4155   */\n  sload\n    /* \"#utility.yul\":4118:4156   */\n  tag_9\n  jump\t// in\ntag_76:\n    /* \"#utility.yul\":4203:4270   */\n  tag_77\n    /* \"#utility.yul\":4263:4269   */\n  dup3\n    /* \"#utility.yul\":4255:4261   */\n  dup3\n    /* \"#utility.yul\":4249:4253   */\n  dup6\n    /* \"#utility.yul\":4203:4270   */\n  tag_22\n  jump\t// in\ntag_77:\n    /* \"#utility.yul\":4297:4298   */\n  0x00\n    /* \"#utility.yul\":4321:4325   */\n  0x20\n    /* \"#utility.yul\":4308:4325   */\n  swap1\n  pop\n    /* \"#utility.yul\":4353:4355   */\n  0x1f\n    /* \"#utility.yul\":4345:4351   */\n  dup4\n    /* \"#utility.yul\":4342:4356   */\n  gt\n    /* \"#utility.yul\":4370:4371   */\n  0x01\n    /* \"#utility.yul\":4365:4983   */\n  dup2\n  eq\n  tag_79\n  jumpi\n    /* \"#utility.yul\":5027:5028   */\n  0x00\n    /* \"#utility.yul\":5044:5050   */\n  dup5\n    /* \"#utility.yul\":5041:5118   */\n  iszero\n  tag_80\n  jumpi\n    /* \"#utility.yul\":5093:5102   */\n  dup3\n    /* \"#utility.yul\":5088:5091   */\n  dup8\n    /* \"#utility.yul\":5084:5103   */\n  add\n    /* \"#utility.yul\":5078:5104   */\n  mload\n    /* \"#utility.yul\":5069:5104   */\n  swap1\n  pop\n    /* \"#utility.yul\":5041:5118   */\ntag_80:\n    /* \"#utility.yul\":5144:5211   */\n  tag_81\n    /* \"#utility.yul\":5204:5210   */\n  dup6\n    /* \"#utility.yul\":5197:5202   */\n  dup3\n    /* \"#utility.yul\":5144:5211   */\n  tag_25\n  jump\t// in\ntag_81:\n    /* \"#utility.yul\":5138:5142   */\n  dup7\n    /* \"#utility.yul\":5131:5212   */\n  sstore\n    /* \"#utility.yul\":5000:5222   */\n  pop\n    /* \"#utility.yul\":4335:5222   */\n  jump(tag_78)\n    /* \"#utility.yul\":4365:4983   */\ntag_79:\n    /* \"#utility.yul\":4417:4421   */\n  0x1f\n    /* \"#utility.yul\":4413:4422   */\n  not\n    /* \"#utility.yul\":4405:4411   */\n  dup5\n    /* \"#utility.yul\":4401:4423   */\n  and\n    /* \"#utility.yul\":4451:4488   */\n  tag_82\n    /* \"#utility.yul\":4483:4487   */\n  dup7\n    /* \"#utility.yul\":4451:4488   */\n  tag_10\n  jump\t// in\ntag_82:\n    /* \"#utility.yul\":4510:4511   */\n  0x00\n    /* \"#utility.yul\":4524:4732   */\ntag_83:\n    /* \"#utility.yul\":4538:4545   */\n  dup3\n    /* \"#utility.yul\":4535:4536   */\n  dup2\n    /* \"#utility.yul\":4532:4546   */\n  lt\n    /* \"#utility.yul\":4524:4732   */\n  iszero\n  tag_85\n  jumpi\n    /* \"#utility.yul\":4617:4626   */\n  dup5\n    /* \"#utility.yul\":4612:4615   */\n  dup10\n    /* \"#utility.yul\":4608:4627   */\n  add\n    /* \"#utility.yul\":4602:4628   */\n  mload\n    /* \"#utility.yul\":4594:4600   */\n  dup3\n    /* \"#utility.yul\":4587:4629   */\n  sstore\n    /* \"#utility.yul\":4668:4669   */\n  0x01\n    /* \"#utility.yul\":4660:4666   */\n  dup3\n    /* \"#utility.yul\":4656:4670   */\n  add\n    /* \"#utility.yul\":4646:4670   */\n  swap2\n  pop\n    /* \"#utility.yul\":4715:4717   */\n  0x20\n    /* \"#utility.yul\":4704:4713   */\n  dup6\n    /* \"#utility.yul\":4700:4718   */\n  add\n    /* \"#utility.yul\":4687:4718   */\n  swap5\n  pop\n    /* \"#utility.yul\":4561:4565   */\n  0x20\n    /* \"#utility.yul\":4558:4559   */\n  dup2\n    /* \"#utility.yul\":4554:4566   */\n  add\n    /* \"#utility.yul\":4549:4566   */\n  swap1\n  pop\n    /* \"#utility.yul\":4524:4732   */\n  jump(tag_83)\ntag_85:\n    /* \"#utility.yul\":4760:4766   */\n  dup7\n    /* \"#utility.yul\":4751:4758   */\n  dup4\n    /* \"#utility.yul\":4748:4767   */\n  lt\n    /* \"#utility.yul\":4745:4924   */\n  iszero\n  tag_86\n  jumpi\n    /* \"#utility.yul\":4818:4827   */\n  dup5\n    /* \"#utility.yul\":4813:4816   */\n  dup10\n    /* \"#utility.yul\":4809:4828   */\n  add\n    /* \"#utility.yul\":4803:4829   */\n  mload\n    /* \"#utility.yul\":4861:4909   */\n  tag_87\n    /* \"#utility.yul\":4903:4907   */\n  0x1f\n    /* \"#utility.yul\":4895:4901   */\n  dup10\n    /* \"#utility.yul\":4891:4908   */\n  and\n    /* \"#utility.yul\":4880:4889   */\n  dup3\n    /* \"#utility.yul\":4861:4909   */\n  tag_24\n  jump\t// in\ntag_87:\n    /* \"#utility.yul\":4853:4859   */\n  dup4\n    /* \"#utility.yul\":4846:4910   */\n  sstore\n    /* \"#utility.yul\":4768:4924   */\n  pop\n    /* \"#utility.yul\":4745:4924   */\ntag_86:\n    /* \"#utility.yul\":4970:4971   */\n  0x01\n    /* \"#utility.yul\":4966:4967   */\n  0x02\n    /* \"#utility.yul\":4958:4964   */\n  dup9\n    /* \"#utility.yul\":4954:4968   */\n  mul\n    /* \"#utility.yul\":4950:4972   */\n  add\n    /* \"#utility.yul\":4944:4948   */\n  dup9\n    /* \"#utility.yul\":4937:4973   */\n  sstore\n    /* \"#utility.yul\":4372:4983   */\n  pop\n  pop\n  pop\n    /* \"#utility.yul\":4335:5222   */\ntag_78:\n  pop\n    /* \"#utility.yul\":3925:5228   */\n  pop\n  pop\n  pop\n    /* \"#utility.yul\":3833:5228   */\n  pop\n  pop\n  jump\t// out\n    /* \"wmbToken.sol\":1231:5351  contract wmbToken is IERC20 {... */\ntag_5:\n  dataSize(sub_0)\n  dup1\n  dataOffset(sub_0)\n  0x00\n  codecopy\n  0x00\n  return\nstop\n\nsub_0: assembly {\n        /* \"wmbToken.sol\":1231:5351  contract wmbToken is IERC20 {... */\n      mstore(0x40, 0x80)\n      callvalue\n      dup1\n      iszero\n      tag_1\n      jumpi\n      0x00\n      dup1\n      revert\n    tag_1:\n      pop\n      jumpi(tag_2, lt(calldatasize, 0x04))\n      shr(0xe0, calldataload(0x00))\n      dup1\n      0x698aad67\n      gt\n      tag_25\n      jumpi\n      dup1\n      0xa9059cbb\n      gt\n      tag_26\n      jumpi\n      dup1\n      0xa9059cbb\n      eq\n      tag_19\n      jumpi\n      dup1\n      0xc47f0027\n      eq\n      tag_20\n      jumpi\n      dup1\n      0xcf315815\n      eq\n      tag_21\n      jumpi\n      dup1\n      0xd9caa2d7\n      eq\n      tag_22\n      jumpi\n      dup1\n      0xdd62ed3e\n      eq\n      tag_23\n      jumpi\n      dup1\n      0xec98ce3f\n      eq\n      tag_24\n      jumpi\n      jump(tag_2)\n    tag_26:\n      dup1\n      0x698aad67\n      eq\n      tag_14\n      jumpi\n      dup1\n      0x70a08231\n      eq\n      tag_15\n      jumpi\n      dup1\n      0x7c69710f\n      eq\n      tag_16\n      jumpi\n      dup1\n      0x95d89b41\n      eq\n      tag_17\n      jumpi\n      dup1\n      0xa0712d68\n      eq\n      tag_18\n      jumpi\n      jump(tag_2)\n    tag_25:\n      dup1\n      0x23b872dd\n      gt\n      tag_27\n      jumpi\n      dup1\n      0x23b872dd\n      eq\n      tag_8\n      jumpi\n      dup1\n      0x313ce567\n      eq\n      tag_9\n      jumpi\n      dup1\n      0x42966c68\n      eq\n      tag_10\n      jumpi\n      dup1\n      0x4e863271\n      eq\n      tag_11\n      jumpi\n      dup1\n      0x50702ec9\n      eq\n      tag_12\n      jumpi\n      dup1\n      0x5415ee4e\n      eq\n      tag_13\n      jumpi\n      jump(tag_2)\n    tag_27:\n      dup1\n      0x06fdde03\n      eq\n      tag_3\n      jumpi\n      dup1\n      0x095ea7b3\n      eq\n      tag_4\n      jumpi\n      dup1\n      0x0b755556\n      eq\n      tag_5\n      jumpi\n      dup1\n      0x18160ddd\n      eq\n      tag_6\n      jumpi\n      dup1\n      0x19f5b1d2\n      eq\n      tag_7\n      jumpi\n    tag_2:\n      0x00\n      dup1\n      revert\n        /* \"wmbToken.sol\":1412:1443  string public name = \"WMBWalks\" */\n    tag_3:\n      tag_28\n      tag_29\n      jump\t// in\n    tag_28:\n      mload(0x40)\n      tag_30\n      swap2\n      swap1\n      tag_31\n      jump\t// in\n    tag_30:\n      mload(0x40)\n      dup1\n      swap2\n      sub\n      swap1\n      return\n        /* \"wmbToken.sol\":2471:2674  function approve(address spender, uint amount) external returns (bool){... */\n    tag_4:\n      tag_32\n      0x04\n      dup1\n      calldatasize\n      sub\n      dup2\n      add\n      swap1\n      tag_33\n      swap2\n      swap1\n      tag_34\n      jump\t// in\n    tag_33:\n      tag_35\n      jump\t// in\n    tag_32:\n      mload(0x40)\n      tag_36\n      swap2\n      swap1\n      tag_37\n      jump\t// in\n    tag_36:\n      mload(0x40)\n      dup1\n      swap2\n      sub\n      swap1\n      return\n        /* \"wmbToken.sol\":1627:1671  mapping(address => string) public personName */\n    tag_5:\n      tag_38\n      0x04\n      dup1\n      calldatasize\n      sub\n      dup2\n      add\n      swap1\n      tag_39\n      swap2\n      swap1\n      tag_40\n      jump\t// in\n    tag_39:\n      tag_41\n      jump\t// in\n    tag_38:\n      mload(0x40)\n      tag_42\n      swap2\n      swap1\n      tag_31\n      jump\t// in\n    tag_42:\n      mload(0x40)\n      dup1\n      swap2\n      sub\n      swap1\n      return\n        /* \"wmbToken.sol\":1266:1289  uint public totalSupply */\n    tag_6:\n      tag_43\n      tag_44\n      jump\t// in\n    tag_43:\n      mload(0x40)\n      tag_45\n      swap2\n      swap1\n      tag_46\n      jump\t// in\n    tag_45:\n      mload(0x40)\n      dup1\n      swap2\n      sub\n      swap1\n      return\n        /* \"wmbToken.sol\":1940:1982  mapping(address => bool) public has10000km */\n    tag_7:\n      tag_47\n      0x04\n      dup1\n      calldatasize\n      sub\n      dup2\n      add\n      swap1\n      tag_48\n      swap2\n      swap1\n      tag_40\n      jump\t// in\n    tag_48:\n      tag_49\n      jump\t// in\n    tag_47:\n      mload(0x40)\n      tag_50\n      swap2\n      swap1\n      tag_37\n      jump\t// in\n    tag_50:\n      mload(0x40)\n      dup1\n      swap2\n      sub\n      swap1\n      return\n        /* \"wmbToken.sol\":2797:3133  function transferFrom(address sender, address recipient, uint amount) external returns (bool){... */\n    tag_8:\n      tag_51\n      0x04\n      dup1\n      calldatasize\n      sub\n      dup2\n      add\n      swap1\n      tag_52\n      swap2\n      swap1\n      tag_53\n      jump\t// in\n    tag_52:\n      tag_54\n      jump\t// in\n    tag_51:\n      mload(0x40)\n      tag_55\n      swap2\n      swap1\n      tag_37\n      jump\t// in\n    tag_55:\n      mload(0x40)\n      dup1\n      swap2\n      sub\n      swap1\n      return\n        /* \"wmbToken.sol\":1485:1510  uint8 public decimals = 2 */\n    tag_9:\n      tag_56\n      tag_57\n      jump\t// in\n    tag_56:\n      mload(0x40)\n      tag_58\n      swap2\n      swap1\n      tag_59\n      jump\t// in\n    tag_58:\n      mload(0x40)\n      dup1\n      swap2\n      sub\n      swap1\n      return\n        /* \"wmbToken.sol\":4840:5014  function burn(uint amount) external {... */\n    tag_10:\n      tag_60\n      0x04\n      dup1\n      calldatasize\n      sub\n      dup2\n      add\n      swap1\n      tag_61\n      swap2\n      swap1\n      tag_62\n      jump\t// in\n    tag_61:\n      tag_63\n      jump\t// in\n    tag_60:\n      stop\n        /* \"wmbToken.sol\":2683:2789  function setPersonName(string calldata person) external {... */\n    tag_11:\n      tag_64\n      0x04\n      dup1\n      calldatasize\n      sub\n      dup2\n      add\n      swap1\n      tag_65\n      swap2\n      swap1\n      tag_66\n      jump\t// in\n    tag_65:\n      tag_67\n      jump\t// in\n    tag_64:\n      stop\n        /* \"wmbToken.sol\":1517:1558  mapping(address => uint) public startDate */\n    tag_12:\n      tag_68\n      0x04\n      dup1\n      calldatasize\n      sub\n      dup2\n      add\n      swap1\n      tag_69\n      swap2\n      swap1\n      tag_40\n      jump\t// in\n    tag_69:\n      tag_70\n      jump\t// in\n    tag_68:\n      mload(0x40)\n      tag_71\n      swap2\n      swap1\n      tag_46\n      jump\t// in\n    tag_71:\n      mload(0x40)\n      dup1\n      swap2\n      sub\n      swap1\n      return\n        /* \"wmbToken.sol\":1750:1789  mapping(address => bool) public has10km */\n    tag_13:\n      tag_72\n      0x04\n      dup1\n      calldatasize\n      sub\n      dup2\n      add\n      swap1\n      tag_73\n      swap2\n      swap1\n      tag_40\n      jump\t// in\n    tag_73:\n      tag_74\n      jump\t// in\n    tag_72:\n      mload(0x40)\n      tag_75\n      swap2\n      swap1\n      tag_37\n      jump\t// in\n    tag_75:\n      mload(0x40)\n      dup1\n      swap2\n      sub\n      swap1\n      return\n        /* \"wmbToken.sol\":1705:1743  mapping(address => bool) public has5km */\n    tag_14:\n      tag_76\n      0x04\n      dup1\n      calldatasize\n      sub\n      dup2\n      add\n      swap1\n      tag_77\n      swap2\n      swap1\n      tag_40\n      jump\t// in\n    tag_77:\n      tag_78\n      jump\t// in\n    tag_76:\n      mload(0x40)\n      tag_79\n      swap2\n      swap1\n      tag_37\n      jump\t// in\n    tag_79:\n      mload(0x40)\n      dup1\n      swap2\n      sub\n      swap1\n      return\n        /* \"wmbToken.sol\":1296:1337  mapping(address => uint) public balanceOf */\n    tag_15:\n      tag_80\n      0x04\n      dup1\n      calldatasize\n      sub\n      dup2\n      add\n      swap1\n      tag_81\n      swap2\n      swap1\n      tag_40\n      jump\t// in\n    tag_81:\n      tag_82\n      jump\t// in\n    tag_80:\n      mload(0x40)\n      tag_83\n      swap2\n      swap1\n      tag_46\n      jump\t// in\n    tag_83:\n      mload(0x40)\n      dup1\n      swap2\n      sub\n      swap1\n      return\n        /* \"wmbToken.sol\":5133:5346  function setStartDate() external{... */\n    tag_16:\n      tag_84\n      tag_85\n      jump\t// in\n    tag_84:\n      stop\n        /* \"wmbToken.sol\":1450:1478  string public symbol = \"WMB\" */\n    tag_17:\n      tag_86\n      tag_87\n      jump\t// in\n    tag_86:\n      mload(0x40)\n      tag_88\n      swap2\n      swap1\n      tag_31\n      jump\t// in\n    tag_88:\n      mload(0x40)\n      dup1\n      swap2\n      sub\n      swap1\n      return\n        /* \"wmbToken.sol\":3166:4796  function mint(uint amount) external {... */\n    tag_18:\n      tag_89\n      0x04\n      dup1\n      calldatasize\n      sub\n      dup2\n      add\n      swap1\n      tag_90\n      swap2\n      swap1\n      tag_62\n      jump\t// in\n    tag_90:\n      tag_91\n      jump\t// in\n    tag_89:\n      stop\n        /* \"wmbToken.sol\":2188:2463  function transfer (address recipient, uint amount) external returns (bool){... */\n    tag_19:\n      tag_92\n      0x04\n      dup1\n      calldatasize\n      sub\n      dup2\n      add\n      swap1\n      tag_93\n      swap2\n      swap1\n      tag_34\n      jump\t// in\n    tag_93:\n      tag_94\n      jump\t// in\n    tag_92:\n      mload(0x40)\n      tag_95\n      swap2\n      swap1\n      tag_37\n      jump\t// in\n    tag_95:\n      mload(0x40)\n      dup1\n      swap2\n      sub\n      swap1\n      return\n        /* \"wmbToken.sol\":5028:5125  function setName(string calldata Pname) external{... */\n    tag_20:\n      tag_96\n      0x04\n      dup1\n      calldatasize\n      sub\n      dup2\n      add\n      swap1\n      tag_97\n      swap2\n      swap1\n      tag_66\n      jump\t// in\n    tag_97:\n      tag_98\n      jump\t// in\n    tag_96:\n      stop\n        /* \"wmbToken.sol\":1796:1836  mapping(address => bool) public has100km */\n    tag_21:\n      tag_99\n      0x04\n      dup1\n      calldatasize\n      sub\n      dup2\n      add\n      swap1\n      tag_100\n      swap2\n      swap1\n      tag_40\n      jump\t// in\n    tag_100:\n      tag_101\n      jump\t// in\n    tag_99:\n      mload(0x40)\n      tag_102\n      swap2\n      swap1\n      tag_37\n      jump\t// in\n    tag_102:\n      mload(0x40)\n      dup1\n      swap2\n      sub\n      swap1\n      return\n        /* \"wmbToken.sol\":1843:1883  mapping(address => bool) public has500km */\n    tag_22:\n      tag_103\n      0x04\n      dup1\n      calldatasize\n      sub\n      dup2\n      add\n      swap1\n      tag_104\n      swap2\n      swap1\n      tag_40\n      jump\t// in\n    tag_104:\n      tag_105\n      jump\t// in\n    tag_103:\n      mload(0x40)\n      tag_106\n      swap2\n      swap1\n      tag_37\n      jump\t// in\n    tag_106:\n      mload(0x40)\n      dup1\n      swap2\n      sub\n      swap1\n      return\n        /* \"wmbToken.sol\":1344:1405  mapping(address => mapping(address => uint)) public allowance */\n    tag_23:\n      tag_107\n      0x04\n      dup1\n      calldatasize\n      sub\n      dup2\n      add\n      swap1\n      tag_108\n      swap2\n      swap1\n      tag_109\n      jump\t// in\n    tag_108:\n      tag_110\n      jump\t// in\n    tag_107:\n      mload(0x40)\n      tag_111\n      swap2\n      swap1\n      tag_46\n      jump\t// in\n    tag_111:\n      mload(0x40)\n      dup1\n      swap2\n      sub\n      swap1\n      return\n        /* \"wmbToken.sol\":1891:1932  mapping(address => bool) public has1000km */\n    tag_24:\n      tag_112\n      0x04\n      dup1\n      calldatasize\n      sub\n      dup2\n      add\n      swap1\n      tag_113\n      swap2\n      swap1\n      tag_40\n      jump\t// in\n    tag_113:\n      tag_114\n      jump\t// in\n    tag_112:\n      mload(0x40)\n      tag_115\n      swap2\n      swap1\n      tag_37\n      jump\t// in\n    tag_115:\n      mload(0x40)\n      dup1\n      swap2\n      sub\n      swap1\n      return\n        /* \"wmbToken.sol\":1412:1443  string public name = \"WMBWalks\" */\n    tag_29:\n      0x03\n      dup1\n      sload\n      tag_116\n      swap1\n      tag_117\n      jump\t// in\n    tag_116:\n      dup1\n      0x1f\n      add\n      0x20\n      dup1\n      swap2\n      div\n      mul\n      0x20\n      add\n      mload(0x40)\n      swap1\n      dup2\n      add\n      0x40\n      mstore\n      dup1\n      swap3\n      swap2\n      swap1\n      dup2\n      dup2\n      mstore\n      0x20\n      add\n      dup3\n      dup1\n      sload\n      tag_118\n      swap1\n      tag_117\n      jump\t// in\n    tag_118:\n      dup1\n      iszero\n      tag_119\n      jumpi\n      dup1\n      0x1f\n      lt\n      tag_120\n      jumpi\n      0x0100\n      dup1\n      dup4\n      sload\n      div\n      mul\n      dup4\n      mstore\n      swap2\n      0x20\n      add\n      swap2\n      jump(tag_119)\n    tag_120:\n      dup3\n      add\n      swap2\n      swap1\n      0x00\n      mstore\n      keccak256(0x00, 0x20)\n      swap1\n    tag_121:\n      dup2\n      sload\n      dup2\n      mstore\n      swap1\n      0x01\n      add\n      swap1\n      0x20\n      add\n      dup1\n      dup4\n      gt\n      tag_121\n      jumpi\n      dup3\n      swap1\n      sub\n      0x1f\n      and\n      dup3\n      add\n      swap2\n    tag_119:\n      pop\n      pop\n      pop\n      pop\n      pop\n      dup2\n      jump\t// out\n        /* \"wmbToken.sol\":2471:2674  function approve(address spender, uint amount) external returns (bool){... */\n    tag_35:\n        /* \"wmbToken.sol\":2536:2540  bool */\n      0x00\n        /* \"wmbToken.sol\":2585:2591  amount */\n      dup2\n        /* \"wmbToken.sol\":2552:2561  allowance */\n      0x02\n        /* \"wmbToken.sol\":2552:2573  allowance[msg.sender] */\n      0x00\n        /* \"wmbToken.sol\":2562:2572  msg.sender */\n      caller\n        /* \"wmbToken.sol\":2552:2573  allowance[msg.sender] */\n      0xffffffffffffffffffffffffffffffffffffffff\n      and\n      0xffffffffffffffffffffffffffffffffffffffff\n      and\n      dup2\n      mstore\n      0x20\n      add\n      swap1\n      dup2\n      mstore\n      0x20\n      add\n      0x00\n      keccak256\n        /* \"wmbToken.sol\":2552:2582  allowance[msg.sender][spender] */\n      0x00\n        /* \"wmbToken.sol\":2574:2581  spender */\n      dup6\n        /* \"wmbToken.sol\":2552:2582  allowance[msg.sender][spender] */\n      0xffffffffffffffffffffffffffffffffffffffff\n      and\n      0xffffffffffffffffffffffffffffffffffffffff\n      and\n      dup2\n      mstore\n      0x20\n      add\n      swap1\n      dup2\n      mstore\n      0x20\n      add\n      0x00\n      keccak256\n        /* \"wmbToken.sol\":2552:2591  allowance[msg.sender][spender] = amount */\n      dup2\n      swap1\n      sstore\n      pop\n        /* \"wmbToken.sol\":2628:2635  spender */\n      dup3\n        /* \"wmbToken.sol\":2607:2644  Approval(msg.sender, spender, amount) */\n      0xffffffffffffffffffffffffffffffffffffffff\n      and\n        /* \"wmbToken.sol\":2616:2626  msg.sender */\n      caller\n        /* \"wmbToken.sol\":2607:2644  Approval(msg.sender, spender, amount) */\n      0xffffffffffffffffffffffffffffffffffffffff\n      and\n      0x8c5be1e5ebec7d5bd14f71427d1e84f3dd0314c0f7b2291e5b200ac8c7c3b925\n        /* \"wmbToken.sol\":2637:2643  amount */\n      dup5\n        /* \"wmbToken.sol\":2607:2644  Approval(msg.sender, spender, amount) */\n      mload(0x40)\n      tag_123\n      swap2\n      swap1\n      tag_46\n      jump\t// in\n    tag_123:\n      mload(0x40)\n      dup1\n      swap2\n      sub\n      swap1\n      log3\n        /* \"wmbToken.sol\":2662:2666  true */\n      0x01\n        /* \"wmbToken.sol\":2655:2666  return true */\n      swap1\n      pop\n        /* \"wmbToken.sol\":2471:2674  function approve(address spender, uint amount) external returns (bool){... */\n      swap3\n      swap2\n      pop\n      pop\n      jump\t// out\n        /* \"wmbToken.sol\":1627:1671  mapping(address => string) public personName */\n    tag_41:\n      mstore(0x20, 0x07)\n      dup1\n      0x00\n      mstore\n      keccak256(0x00, 0x40)\n      0x00\n      swap2\n      pop\n      swap1\n      pop\n      dup1\n      sload\n      tag_124\n      swap1\n      tag_117\n      jump\t// in\n    tag_124:\n      dup1\n      0x1f\n      add\n      0x20\n      dup1\n      swap2\n      div\n      mul\n      0x20\n      add\n      mload(0x40)\n      swap1\n      dup2\n      add\n      0x40\n      mstore\n      dup1\n      swap3\n      swap2\n      swap1\n      dup2\n      dup2\n      mstore\n      0x20\n      add\n      dup3\n      dup1\n      sload\n      tag_125\n      swap1\n      tag_117\n      jump\t// in\n    tag_125:\n      dup1\n      iszero\n      tag_126\n      jumpi\n      dup1\n      0x1f\n      lt\n      tag_127\n      jumpi\n      0x0100\n      dup1\n      dup4\n      sload\n      div\n      mul\n      dup4\n      mstore\n      swap2\n      0x20\n      add\n      swap2\n      jump(tag_126)\n    tag_127:\n      dup3\n      add\n      swap2\n      swap1\n      0x00\n      mstore\n      keccak256(0x00, 0x20)\n      swap1\n    tag_128:\n      dup2\n      sload\n      dup2\n      mstore\n      swap1\n      0x01\n      add\n      swap1\n      0x20\n      add\n      dup1\n      dup4\n      gt\n      tag_128\n      jumpi\n      dup3\n      swap1\n      sub\n      0x1f\n      and\n      dup3\n      add\n      swap2\n    tag_126:\n      pop\n      pop\n      pop\n      pop\n      pop\n      dup2\n      jump\t// out\n        /* \"wmbToken.sol\":1266:1289  uint public totalSupply */\n    tag_44:\n      sload(0x00)\n      dup2\n      jump\t// out\n        /* \"wmbToken.sol\":1940:1982  mapping(address => bool) public has10000km */\n    tag_49:\n      mstore(0x20, 0x0d)\n      dup1\n      0x00\n      mstore\n      keccak256(0x00, 0x40)\n      0x00\n      swap2\n      pop\n      sload\n      swap1\n      0x0100\n      exp\n      swap1\n      div\n      0xff\n      and\n      dup2\n      jump\t// out\n        /* \"wmbToken.sol\":2797:3133  function transferFrom(address sender, address recipient, uint amount) external returns (bool){... */\n    tag_54:\n        /* \"wmbToken.sol\":2885:2889  bool */\n      0x00\n        /* \"wmbToken.sol\":2919:2922  100 */\n      0x64\n        /* \"wmbToken.sol\":2909:2915  amount */\n      dup3\n        /* \"wmbToken.sol\":2909:2922  amount <= 100 */\n      gt\n      iszero\n        /* \"wmbToken.sol\":2901:2923  require(amount <= 100) */\n      tag_130\n      jumpi\n      0x00\n      dup1\n      revert\n    tag_130:\n        /* \"wmbToken.sol\":2967:2973  amount */\n      dup2\n        /* \"wmbToken.sol\":2934:2943  allowance */\n      0x02\n        /* \"wmbToken.sol\":2934:2951  allowance[sender] */\n      0x00\n        /* \"wmbToken.sol\":2944:2950  sender */\n      dup7\n        /* \"wmbToken.sol\":2934:2951  allowance[sender] */\n      0xffffffffffffffffffffffffffffffffffffffff\n      and\n      0xffffffffffffffffffffffffffffffffffffffff\n      and\n      dup2\n      mstore\n      0x20\n      add\n      swap1\n      dup2\n      mstore\n      0x20\n      add\n      0x00\n      keccak256\n        /* \"wmbToken.sol\":2934:2963  allowance[sender][msg.sender] */\n      0x00\n        /* \"wmbToken.sol\":2952:2962  msg.sender */\n      caller\n        /* \"wmbToken.sol\":2934:2963  allowance[sender][msg.sender] */\n      0xffffffffffffffffffffffffffffffffffffffff\n      and\n      0xffffffffffffffffffffffffffffffffffffffff\n      and\n      dup2\n      mstore\n      0x20\n      add\n      swap1\n      dup2\n      mstore\n      0x20\n      add\n      0x00\n      keccak256\n      0x00\n        /* \"wmbToken.sol\":2934:2973  allowance[sender][msg.sender] -= amount */\n      dup3\n      dup3\n      sload\n      tag_131\n      swap2\n      swap1\n      tag_132\n      jump\t// in\n    tag_131:\n      swap3\n      pop\n      pop\n      dup2\n      swap1\n      sstore\n      pop\n        /* \"wmbToken.sol\":3005:3011  amount */\n      dup2\n        /* \"wmbToken.sol\":2984:2993  balanceOf */\n      0x01\n        /* \"wmbToken.sol\":2984:3001  balanceOf[sender] */\n      0x00\n        /* \"wmbToken.sol\":2994:3000  sender */\n      dup7\n        /* \"wmbToken.sol\":2984:3001  balanceOf[sender] */\n      0xffffffffffffffffffffffffffffffffffffffff\n      and\n      0xffffffffffffffffffffffffffffffffffffffff\n      and\n      dup2\n      mstore\n      0x20\n      add\n      swap1\n      dup2\n      mstore\n      0x20\n      add\n      0x00\n      keccak256\n      0x00\n        /* \"wmbToken.sol\":2984:3011  balanceOf[sender] -= amount */\n      dup3\n      dup3\n      sload\n      tag_133\n      swap2\n      swap1\n      tag_132\n      jump\t// in\n    tag_133:\n      swap3\n      pop\n      pop\n      dup2\n      swap1\n      sstore\n      pop\n        /* \"wmbToken.sol\":3046:3052  amount */\n      dup2\n        /* \"wmbToken.sol\":3022:3031  balanceOf */\n      0x01\n        /* \"wmbToken.sol\":3022:3042  balanceOf[recipient] */\n      0x00\n        /* \"wmbToken.sol\":3032:3041  recipient */\n      dup6\n        /* \"wmbToken.sol\":3022:3042  balanceOf[recipient] */\n      0xffffffffffffffffffffffffffffffffffffffff\n      and\n      0xffffffffffffffffffffffffffffffffffffffff\n      and\n      dup2\n      mstore\n      0x20\n      add\n      swap1\n      dup2\n      mstore\n      0x20\n      add\n      0x00\n      keccak256\n      0x00\n        /* \"wmbToken.sol\":3022:3052  balanceOf[recipient] += amount */\n      dup3\n      dup3\n      sload\n      tag_134\n      swap2\n      swap1\n      tag_135\n      jump\t// in\n    tag_134:\n      swap3\n      pop\n      pop\n      dup2\n      swap1\n      sstore\n      pop\n        /* \"wmbToken.sol\":3085:3094  recipient */\n      dup3\n        /* \"wmbToken.sol\":3068:3103  Transfer(sender, recipient, amount) */\n      0xffffffffffffffffffffffffffffffffffffffff\n      and\n        /* \"wmbToken.sol\":3077:3083  sender */\n      dup5\n        /* \"wmbToken.sol\":3068:3103  Transfer(sender, recipient, amount) */\n      0xffffffffffffffffffffffffffffffffffffffff\n      and\n      0xddf252ad1be2c89b69c2b068fc378daa952ba7f163c4a11628f55a4df523b3ef\n        /* \"wmbToken.sol\":3096:3102  amount */\n      dup5\n        /* \"wmbToken.sol\":3068:3103  Transfer(sender, recipient, amount) */\n      mload(0x40)\n      tag_136\n      swap2\n      swap1\n      tag_46\n      jump\t// in\n    tag_136:\n      mload(0x40)\n      dup1\n      swap2\n      sub\n      swap1\n      log3\n        /* \"wmbToken.sol\":3121:3125  true */\n      0x01\n        /* \"wmbToken.sol\":3114:3125  return true */\n      swap1\n      pop\n        /* \"wmbToken.sol\":2797:3133  function transferFrom(address sender, address recipient, uint amount) external returns (bool){... */\n      swap4\n      swap3\n      pop\n      pop\n      pop\n      jump\t// out\n        /* \"wmbToken.sol\":1485:1510  uint8 public decimals = 2 */\n    tag_57:\n      0x05\n      0x00\n      swap1\n      sload\n      swap1\n      0x0100\n      exp\n      swap1\n      div\n      0xff\n      and\n      dup2\n      jump\t// out\n        /* \"wmbToken.sol\":4840:5014  function burn(uint amount) external {... */\n    tag_63:\n        /* \"wmbToken.sol\":4912:4918  amount */\n      dup1\n        /* \"wmbToken.sol\":4887:4896  balanceOf */\n      0x01\n        /* \"wmbToken.sol\":4887:4908  balanceOf[msg.sender] */\n      0x00\n        /* \"wmbToken.sol\":4897:4907  msg.sender */\n      caller\n        /* \"wmbToken.sol\":4887:4908  balanceOf[msg.sender] */\n      0xffffffffffffffffffffffffffffffffffffffff\n      and\n      0xffffffffffffffffffffffffffffffffffffffff\n      and\n      dup2\n      mstore\n      0x20\n      add\n      swap1\n      dup2\n      mstore\n      0x20\n      add\n      0x00\n      keccak256\n      0x00\n        /* \"wmbToken.sol\":4887:4918  balanceOf[msg.sender] -= amount */\n      dup3\n      dup3\n      sload\n      tag_138\n      swap2\n      swap1\n      tag_132\n      jump\t// in\n    tag_138:\n      swap3\n      pop\n      pop\n      dup2\n      swap1\n      sstore\n      pop\n        /* \"wmbToken.sol\":4944:4950  amount */\n      dup1\n        /* \"wmbToken.sol\":4929:4940  totalSupply */\n      0x00\n      dup1\n        /* \"wmbToken.sol\":4929:4950  totalSupply -= amount */\n      dup3\n      dup3\n      sload\n      tag_139\n      swap2\n      swap1\n      tag_132\n      jump\t// in\n    tag_139:\n      swap3\n      pop\n      pop\n      dup2\n      swap1\n      sstore\n      pop\n        /* \"wmbToken.sol\":4995:4996  0 */\n      0x00\n        /* \"wmbToken.sol\":4966:5006  Transfer(msg.sender, address(0), amount) */\n      0xffffffffffffffffffffffffffffffffffffffff\n      and\n        /* \"wmbToken.sol\":4975:4985  msg.sender */\n      caller\n        /* \"wmbToken.sol\":4966:5006  Transfer(msg.sender, address(0), amount) */\n      0xffffffffffffffffffffffffffffffffffffffff\n      and\n      0xddf252ad1be2c89b69c2b068fc378daa952ba7f163c4a11628f55a4df523b3ef\n        /* \"wmbToken.sol\":4999:5005  amount */\n      dup4\n        /* \"wmbToken.sol\":4966:5006  Transfer(msg.sender, address(0), amount) */\n      mload(0x40)\n      tag_140\n      swap2\n      swap1\n      tag_46\n      jump\t// in\n    tag_140:\n      mload(0x40)\n      dup1\n      swap2\n      sub\n      swap1\n      log3\n        /* \"wmbToken.sol\":4840:5014  function burn(uint amount) external {... */\n      pop\n      jump\t// out\n        /* \"wmbToken.sol\":2683:2789  function setPersonName(string calldata person) external {... */\n    tag_67:\n        /* \"wmbToken.sol\":2775:2781  person */\n      dup2\n      dup2\n        /* \"wmbToken.sol\":2750:2760  personName */\n      0x07\n        /* \"wmbToken.sol\":2750:2772  personName[msg.sender] */\n      0x00\n        /* \"wmbToken.sol\":2761:2771  msg.sender */\n      caller\n        /* \"wmbToken.sol\":2750:2772  personName[msg.sender] */\n      0xffffffffffffffffffffffffffffffffffffffff\n      and\n      0xffffffffffffffffffffffffffffffffffffffff\n      and\n      dup2\n      mstore\n      0x20\n      add\n      swap1\n      dup2\n      mstore\n      0x20\n      add\n      0x00\n      keccak256\n        /* \"wmbToken.sol\":2750:2781  personName[msg.sender] = person */\n      swap2\n      dup3\n      tag_142\n      swap3\n      swap2\n      swap1\n      tag_143\n      jump\t// in\n    tag_142:\n      pop\n        /* \"wmbToken.sol\":2683:2789  function setPersonName(string calldata person) external {... */\n      pop\n      pop\n      jump\t// out\n        /* \"wmbToken.sol\":1517:1558  mapping(address => uint) public startDate */\n    tag_70:\n      mstore(0x20, 0x06)\n      dup1\n      0x00\n      mstore\n      keccak256(0x00, 0x40)\n      0x00\n      swap2\n      pop\n      swap1\n      pop\n      sload\n      dup2\n      jump\t// out\n        /* \"wmbToken.sol\":1750:1789  mapping(address => bool) public has10km */\n    tag_74:\n      mstore(0x20, 0x09)\n      dup1\n      0x00\n      mstore\n      keccak256(0x00, 0x40)\n      0x00\n      swap2\n      pop\n      sload\n      swap1\n      0x0100\n      exp\n      swap1\n      div\n      0xff\n      and\n      dup2\n      jump\t// out\n        /* \"wmbToken.sol\":1705:1743  mapping(address => bool) public has5km */\n    tag_78:\n      mstore(0x20, 0x08)\n      dup1\n      0x00\n      mstore\n      keccak256(0x00, 0x40)\n      0x00\n      swap2\n      pop\n      sload\n      swap1\n      0x0100\n      exp\n      swap1\n      div\n      0xff\n      and\n      dup2\n      jump\t// out\n        /* \"wmbToken.sol\":1296:1337  mapping(address => uint) public balanceOf */\n    tag_82:\n      mstore(0x20, 0x01)\n      dup1\n      0x00\n      mstore\n      keccak256(0x00, 0x40)\n      0x00\n      swap2\n      pop\n      swap1\n      pop\n      sload\n      dup2\n      jump\t// out\n        /* \"wmbToken.sol\":5133:5346  function setStartDate() external{... */\n    tag_85:\n        /* \"wmbToken.sol\":5209:5210  0 */\n      0x00\n        /* \"wmbToken.sol\":5184:5193  startDate */\n      0x06\n        /* \"wmbToken.sol\":5184:5205  startDate[msg.sender] */\n      0x00\n        /* \"wmbToken.sol\":5194:5204  msg.sender */\n      caller\n        /* \"wmbToken.sol\":5184:5205  startDate[msg.sender] */\n      0xffffffffffffffffffffffffffffffffffffffff\n      and\n      0xffffffffffffffffffffffffffffffffffffffff\n      and\n      dup2\n      mstore\n      0x20\n      add\n      swap1\n      dup2\n      mstore\n      0x20\n      add\n      0x00\n      keccak256\n      sload\n        /* \"wmbToken.sol\":5184:5210  startDate[msg.sender] == 0 */\n      eq\n        /* \"wmbToken.sol\":5176:5211  require(startDate[msg.sender] == 0) */\n      tag_145\n      jumpi\n      0x00\n      dup1\n      revert\n    tag_145:\n        /* \"wmbToken.sol\":5322:5337  block.timestamp */\n      timestamp\n        /* \"wmbToken.sol\":5298:5307  startDate */\n      0x06\n        /* \"wmbToken.sol\":5298:5319  startDate[msg.sender] */\n      0x00\n        /* \"wmbToken.sol\":5308:5318  msg.sender */\n      caller\n        /* \"wmbToken.sol\":5298:5319  startDate[msg.sender] */\n      0xffffffffffffffffffffffffffffffffffffffff\n      and\n      0xffffffffffffffffffffffffffffffffffffffff\n      and\n      dup2\n      mstore\n      0x20\n      add\n      swap1\n      dup2\n      mstore\n      0x20\n      add\n      0x00\n      keccak256\n        /* \"wmbToken.sol\":5298:5337  startDate[msg.sender] = block.timestamp */\n      dup2\n      swap1\n      sstore\n      pop\n        /* \"wmbToken.sol\":5133:5346  function setStartDate() external{... */\n      jump\t// out\n        /* \"wmbToken.sol\":1450:1478  string public symbol = \"WMB\" */\n    tag_87:\n      0x04\n      dup1\n      sload\n      tag_146\n      swap1\n      tag_117\n      jump\t// in\n    tag_146:\n      dup1\n      0x1f\n      add\n      0x20\n      dup1\n      swap2\n      div\n      mul\n      0x20\n      add\n      mload(0x40)\n      swap1\n      dup2\n      add\n      0x40\n      mstore\n      dup1\n      swap3\n      swap2\n      swap1\n      dup2\n      dup2\n      mstore\n      0x20\n      add\n      dup3\n      dup1\n      sload\n      tag_147\n      swap1\n      tag_117\n      jump\t// in\n    tag_147:\n      dup1\n      iszero\n      tag_148\n      jumpi\n      dup1\n      0x1f\n      lt\n      tag_149\n      jumpi\n      0x0100\n      dup1\n      dup4\n      sload\n      div\n      mul\n      dup4\n      mstore\n      swap2\n      0x20\n      add\n      swap2\n      jump(tag_148)\n    tag_149:\n      dup3\n      add\n      swap2\n      swap1\n      0x00\n      mstore\n      keccak256(0x00, 0x20)\n      swap1\n    tag_150:\n      dup2\n      sload\n      dup2\n      mstore\n      swap1\n      0x01\n      add\n      swap1\n      0x20\n      add\n      dup1\n      dup4\n      gt\n      tag_150\n      jumpi\n      dup3\n      swap1\n      sub\n      0x1f\n      and\n      dup3\n      add\n      swap2\n    tag_148:\n      pop\n      pop\n      pop\n      pop\n      pop\n      dup2\n      jump\t// out\n        /* \"wmbToken.sol\":3166:4796  function mint(uint amount) external {... */\n    tag_91:\n        /* \"wmbToken.sol\":3241:3242  0 */\n      0x00\n        /* \"wmbToken.sol\":3216:3225  balanceOf */\n      0x01\n        /* \"wmbToken.sol\":3216:3237  balanceOf[msg.sender] */\n      0x00\n        /* \"wmbToken.sol\":3226:3236  msg.sender */\n      caller\n        /* \"wmbToken.sol\":3216:3237  balanceOf[msg.sender] */\n      0xffffffffffffffffffffffffffffffffffffffff\n      and\n      0xffffffffffffffffffffffffffffffffffffffff\n      and\n      dup2\n      mstore\n      0x20\n      add\n      swap1\n      dup2\n      mstore\n      0x20\n      add\n      0x00\n      keccak256\n      sload\n        /* \"wmbToken.sol\":3216:3242  balanceOf[msg.sender] == 0 */\n      eq\n        /* \"wmbToken.sol\":3216:3272  balanceOf[msg.sender] == 0 && startDate[msg.sender] == 0 */\n      dup1\n      iszero\n      tag_152\n      jumpi\n      pop\n        /* \"wmbToken.sol\":3271:3272  0 */\n      0x00\n        /* \"wmbToken.sol\":3246:3255  startDate */\n      0x06\n        /* \"wmbToken.sol\":3246:3267  startDate[msg.sender] */\n      0x00\n        /* \"wmbToken.sol\":3256:3266  msg.sender */\n      caller\n        /* \"wmbToken.sol\":3246:3267  startDate[msg.sender] */\n      0xffffffffffffffffffffffffffffffffffffffff\n      and\n      0xffffffffffffffffffffffffffffffffffffffff\n      and\n      dup2\n      mstore\n      0x20\n      add\n      swap1\n      dup2\n      mstore\n      0x20\n      add\n      0x00\n      keccak256\n      sload\n        /* \"wmbToken.sol\":3246:3272  startDate[msg.sender] == 0 */\n      eq\n        /* \"wmbToken.sol\":3216:3272  balanceOf[msg.sender] == 0 && startDate[msg.sender] == 0 */\n    tag_152:\n        /* \"wmbToken.sol\":3213:3360  if(balanceOf[msg.sender] == 0 && startDate[msg.sender] == 0){... */\n      iszero\n      tag_153\n      jumpi\n        /* \"wmbToken.sol\":3312:3327  block.timestamp */\n      timestamp\n        /* \"wmbToken.sol\":3288:3297  startDate */\n      0x06\n        /* \"wmbToken.sol\":3288:3309  startDate[msg.sender] */\n      0x00\n        /* \"wmbToken.sol\":3298:3308  msg.sender */\n      caller\n        /* \"wmbToken.sol\":3288:3309  startDate[msg.sender] */\n      0xffffffffffffffffffffffffffffffffffffffff\n      and\n      0xffffffffffffffffffffffffffffffffffffffff\n      and\n      dup2\n      mstore\n      0x20\n      add\n      swap1\n      dup2\n      mstore\n      0x20\n      add\n      0x00\n      keccak256\n        /* \"wmbToken.sol\":3288:3327  startDate[msg.sender] = block.timestamp */\n      dup2\n      swap1\n      sstore\n      pop\n        /* \"wmbToken.sol\":3342:3349  return; */\n      jump(tag_151)\n        /* \"wmbToken.sol\":3213:3360  if(balanceOf[msg.sender] == 0 && startDate[msg.sender] == 0){... */\n    tag_153:\n        /* \"wmbToken.sol\":3395:3401  amount */\n      dup1\n        /* \"wmbToken.sol\":3370:3379  balanceOf */\n      0x01\n        /* \"wmbToken.sol\":3370:3391  balanceOf[msg.sender] */\n      0x00\n        /* \"wmbToken.sol\":3380:3390  msg.sender */\n      caller\n        /* \"wmbToken.sol\":3370:3391  balanceOf[msg.sender] */\n      0xffffffffffffffffffffffffffffffffffffffff\n      and\n      0xffffffffffffffffffffffffffffffffffffffff\n      and\n      dup2\n      mstore\n      0x20\n      add\n      swap1\n      dup2\n      mstore\n      0x20\n      add\n      0x00\n      keccak256\n      0x00\n        /* \"wmbToken.sol\":3370:3401  balanceOf[msg.sender] += amount */\n      dup3\n      dup3\n      sload\n      tag_154\n      swap2\n      swap1\n      tag_135\n      jump\t// in\n    tag_154:\n      swap3\n      pop\n      pop\n      dup2\n      swap1\n      sstore\n      pop\n        /* \"wmbToken.sol\":3427:3433  amount */\n      dup1\n        /* \"wmbToken.sol\":3412:3423  totalSupply */\n      0x00\n      dup1\n        /* \"wmbToken.sol\":3412:3433  totalSupply += amount */\n      dup3\n      dup3\n      sload\n      tag_155\n      swap2\n      swap1\n      tag_135\n      jump\t// in\n    tag_155:\n      swap3\n      pop\n      pop\n      dup2\n      swap1\n      sstore\n      pop\n        /* \"wmbToken.sol\":3470:3480  msg.sender */\n      caller\n        /* \"wmbToken.sol\":3449:3489  Transfer(address(0), msg.sender, amount) */\n      0xffffffffffffffffffffffffffffffffffffffff\n      and\n        /* \"wmbToken.sol\":3466:3467  0 */\n      0x00\n        /* \"wmbToken.sol\":3449:3489  Transfer(address(0), msg.sender, amount) */\n      0xffffffffffffffffffffffffffffffffffffffff\n      and\n      0xddf252ad1be2c89b69c2b068fc378daa952ba7f163c4a11628f55a4df523b3ef\n        /* \"wmbToken.sol\":3482:3488  amount */\n      dup4\n        /* \"wmbToken.sol\":3449:3489  Transfer(address(0), msg.sender, amount) */\n      mload(0x40)\n      tag_156\n      swap2\n      swap1\n      tag_46\n      jump\t// in\n    tag_156:\n      mload(0x40)\n      dup1\n      swap2\n      sub\n      swap1\n      log3\n        /* \"wmbToken.sol\":3528:3531  500 */\n      0x01f4\n        /* \"wmbToken.sol\":3503:3512  balanceOf */\n      0x01\n        /* \"wmbToken.sol\":3503:3524  balanceOf[msg.sender] */\n      0x00\n        /* \"wmbToken.sol\":3513:3523  msg.sender */\n      caller\n        /* \"wmbToken.sol\":3503:3524  balanceOf[msg.sender] */\n      0xffffffffffffffffffffffffffffffffffffffff\n      and\n      0xffffffffffffffffffffffffffffffffffffffff\n      and\n      dup2\n      mstore\n      0x20\n      add\n      swap1\n      dup2\n      mstore\n      0x20\n      add\n      0x00\n      keccak256\n      sload\n        /* \"wmbToken.sol\":3503:3531  balanceOf[msg.sender] >= 500 */\n      lt\n        /* \"wmbToken.sol\":3500:4789  if(balanceOf[msg.sender] >= 500){... */\n      tag_157\n      jumpi\n        /* \"wmbToken.sol\":3572:3577  false */\n      0x00\n        /* \"wmbToken.sol\":3550:3577  has5km[msg.sender] == false */\n      iszero\n      iszero\n        /* \"wmbToken.sol\":3550:3556  has5km */\n      0x08\n        /* \"wmbToken.sol\":3550:3568  has5km[msg.sender] */\n      0x00\n        /* \"wmbToken.sol\":3557:3567  msg.sender */\n      caller\n        /* \"wmbToken.sol\":3550:3568  has5km[msg.sender] */\n      0xffffffffffffffffffffffffffffffffffffffff\n      and\n      0xffffffffffffffffffffffffffffffffffffffff\n      and\n      dup2\n      mstore\n      0x20\n      add\n      swap1\n      dup2\n      mstore\n      0x20\n      add\n      0x00\n      keccak256\n      0x00\n      swap1\n      sload\n      swap1\n      0x0100\n      exp\n      swap1\n      div\n      0xff\n      and\n        /* \"wmbToken.sol\":3550:3577  has5km[msg.sender] == false */\n      iszero\n      iszero\n      sub\n        /* \"wmbToken.sol\":3547:3638  if(has5km[msg.sender] == false){... */\n      tag_158\n      jumpi\n        /* \"wmbToken.sol\":3618:3622  true */\n      0x01\n        /* \"wmbToken.sol\":3597:3603  has5km */\n      0x08\n        /* \"wmbToken.sol\":3597:3615  has5km[msg.sender] */\n      0x00\n        /* \"wmbToken.sol\":3604:3614  msg.sender */\n      caller\n        /* \"wmbToken.sol\":3597:3615  has5km[msg.sender] */\n      0xffffffffffffffffffffffffffffffffffffffff\n      and\n      0xffffffffffffffffffffffffffffffffffffffff\n      and\n      dup2\n      mstore\n      0x20\n      add\n      swap1\n      dup2\n      mstore\n      0x20\n      add\n      0x00\n      keccak256\n      0x00\n        /* \"wmbToken.sol\":3597:3622  has5km[msg.sender] = true */\n      0x0100\n      exp\n      dup2\n      sload\n      dup2\n      0xff\n      mul\n      not\n      and\n      swap1\n      dup4\n      iszero\n      iszero\n      mul\n      or\n      swap1\n      sstore\n      pop\n        /* \"wmbToken.sol\":3547:3638  if(has5km[msg.sender] == false){... */\n    tag_158:\n        /* \"wmbToken.sol\":3681:3685  1000 */\n      0x03e8\n        /* \"wmbToken.sol\":3656:3665  balanceOf */\n      0x01\n        /* \"wmbToken.sol\":3656:3677  balanceOf[msg.sender] */\n      0x00\n        /* \"wmbToken.sol\":3666:3676  msg.sender */\n      caller\n        /* \"wmbToken.sol\":3656:3677  balanceOf[msg.sender] */\n      0xffffffffffffffffffffffffffffffffffffffff\n      and\n      0xffffffffffffffffffffffffffffffffffffffff\n      and\n      dup2\n      mstore\n      0x20\n      add\n      swap1\n      dup2\n      mstore\n      0x20\n      add\n      0x00\n      keccak256\n      sload\n        /* \"wmbToken.sol\":3656:3685  balanceOf[msg.sender] >= 1000 */\n      lt\n        /* \"wmbToken.sol\":3653:4778  if(balanceOf[msg.sender] >= 1000){... */\n      tag_159\n      jumpi\n        /* \"wmbToken.sol\":3731:3736  false */\n      0x00\n        /* \"wmbToken.sol\":3708:3736  has10km[msg.sender] == false */\n      iszero\n      iszero\n        /* \"wmbToken.sol\":3708:3715  has10km */\n      0x09\n        /* \"wmbToken.sol\":3708:3727  has10km[msg.sender] */\n      0x00\n        /* \"wmbToken.sol\":3716:3726  msg.sender */\n      caller\n        /* \"wmbToken.sol\":3708:3727  has10km[msg.sender] */\n      0xffffffffffffffffffffffffffffffffffffffff\n      and\n      0xffffffffffffffffffffffffffffffffffffffff\n      and\n      dup2\n      mstore\n      0x20\n      add\n      swap1\n      dup2\n      mstore\n      0x20\n      add\n      0x00\n      keccak256\n      0x00\n      swap1\n      sload\n      swap1\n      0x0100\n      exp\n      swap1\n      div\n      0xff\n      and\n        /* \"wmbToken.sol\":3708:3736  has10km[msg.sender] == false */\n      iszero\n      iszero\n      sub\n        /* \"wmbToken.sol\":3705:3806  if(has10km[msg.sender] == false){... */\n      tag_160\n      jumpi\n        /* \"wmbToken.sol\":3781:3785  true */\n      0x01\n        /* \"wmbToken.sol\":3759:3766  has10km */\n      0x09\n        /* \"wmbToken.sol\":3759:3778  has10km[msg.sender] */\n      0x00\n        /* \"wmbToken.sol\":3767:3777  msg.sender */\n      caller\n        /* \"wmbToken.sol\":3759:3778  has10km[msg.sender] */\n      0xffffffffffffffffffffffffffffffffffffffff\n      and\n      0xffffffffffffffffffffffffffffffffffffffff\n      and\n      dup2\n      mstore\n      0x20\n      add\n      swap1\n      dup2\n      mstore\n      0x20\n      add\n      0x00\n      keccak256\n      0x00\n        /* \"wmbToken.sol\":3759:3785  has10km[msg.sender] = true */\n      0x0100\n      exp\n      dup2\n      sload\n      dup2\n      0xff\n      mul\n      not\n      and\n      swap1\n      dup4\n      iszero\n      iszero\n      mul\n      or\n      swap1\n      sstore\n      pop\n        /* \"wmbToken.sol\":3705:3806  if(has10km[msg.sender] == false){... */\n    tag_160:\n        /* \"wmbToken.sol\":3853:3858  10000 */\n      0x2710\n        /* \"wmbToken.sol\":3828:3837  balanceOf */\n      0x01\n        /* \"wmbToken.sol\":3828:3849  balanceOf[msg.sender] */\n      0x00\n        /* \"wmbToken.sol\":3838:3848  msg.sender */\n      caller\n        /* \"wmbToken.sol\":3828:3849  balanceOf[msg.sender] */\n      0xffffffffffffffffffffffffffffffffffffffff\n      and\n      0xffffffffffffffffffffffffffffffffffffffff\n      and\n      dup2\n      mstore\n      0x20\n      add\n      swap1\n      dup2\n      mstore\n      0x20\n      add\n      0x00\n      keccak256\n      sload\n        /* \"wmbToken.sol\":3828:3858  balanceOf[msg.sender] >= 10000 */\n      lt\n        /* \"wmbToken.sol\":3824:4763  if (balanceOf[msg.sender] >= 10000){... */\n      tag_161\n      jumpi\n        /* \"wmbToken.sol\":3910:3915  false */\n      0x00\n        /* \"wmbToken.sol\":3886:3915  has100km[msg.sender] == false */\n      iszero\n      iszero\n        /* \"wmbToken.sol\":3886:3894  has100km */\n      0x0a\n        /* \"wmbToken.sol\":3886:3906  has100km[msg.sender] */\n      0x00\n        /* \"wmbToken.sol\":3895:3905  msg.sender */\n      caller\n        /* \"wmbToken.sol\":3886:3906  has100km[msg.sender] */\n      0xffffffffffffffffffffffffffffffffffffffff\n      and\n      0xffffffffffffffffffffffffffffffffffffffff\n      and\n      dup2\n      mstore\n      0x20\n      add\n      swap1\n      dup2\n      mstore\n      0x20\n      add\n      0x00\n      keccak256\n      0x00\n      swap1\n      sload\n      swap1\n      0x0100\n      exp\n      swap1\n      div\n      0xff\n      and\n        /* \"wmbToken.sol\":3886:3915  has100km[msg.sender] == false */\n      iszero\n      iszero\n      sub\n        /* \"wmbToken.sol\":3882:3994  if (has100km[msg.sender] == false){... */\n      tag_162\n      jumpi\n        /* \"wmbToken.sol\":3966:3970  true */\n      0x01\n        /* \"wmbToken.sol\":3943:3951  has100km */\n      0x0a\n        /* \"wmbToken.sol\":3943:3963  has100km[msg.sender] */\n      0x00\n        /* \"wmbToken.sol\":3952:3962  msg.sender */\n      caller\n        /* \"wmbToken.sol\":3943:3963  has100km[msg.sender] */\n      0xffffffffffffffffffffffffffffffffffffffff\n      and\n      0xffffffffffffffffffffffffffffffffffffffff\n      and\n      dup2\n      mstore\n      0x20\n      add\n      swap1\n      dup2\n      mstore\n      0x20\n      add\n      0x00\n      keccak256\n      0x00\n        /* \"wmbToken.sol\":3943:3970  has100km[msg.sender] = true */\n      0x0100\n      exp\n      dup2\n      sload\n      dup2\n      0xff\n      mul\n      not\n      and\n      swap1\n      dup4\n      iszero\n      iszero\n      mul\n      or\n      swap1\n      sstore\n      pop\n        /* \"wmbToken.sol\":3882:3994  if (has100km[msg.sender] == false){... */\n    tag_162:\n        /* \"wmbToken.sol\":4046:4051  50000 */\n      0xc350\n        /* \"wmbToken.sol\":4021:4030  balanceOf */\n      0x01\n        /* \"wmbToken.sol\":4021:4042  balanceOf[msg.sender] */\n      0x00\n        /* \"wmbToken.sol\":4031:4041  msg.sender */\n      caller\n        /* \"wmbToken.sol\":4021:4042  balanceOf[msg.sender] */\n      0xffffffffffffffffffffffffffffffffffffffff\n      and\n      0xffffffffffffffffffffffffffffffffffffffff\n      and\n      dup2\n      mstore\n      0x20\n      add\n      swap1\n      dup2\n      mstore\n      0x20\n      add\n      0x00\n      keccak256\n      sload\n        /* \"wmbToken.sol\":4021:4051  balanceOf[msg.sender] >= 50000 */\n      lt\n        /* \"wmbToken.sol\":4017:4744  if (balanceOf[msg.sender] >= 50000){... */\n      tag_163\n      jumpi\n        /* \"wmbToken.sol\":4106:4111  false */\n      0x00\n        /* \"wmbToken.sol\":4082:4111  has500km[msg.sender] == false */\n      iszero\n      iszero\n        /* \"wmbToken.sol\":4082:4090  has500km */\n      0x0b\n        /* \"wmbToken.sol\":4082:4102  has500km[msg.sender] */\n      0x00\n        /* \"wmbToken.sol\":4091:4101  msg.sender */\n      caller\n        /* \"wmbToken.sol\":4082:4102  has500km[msg.sender] */\n      0xffffffffffffffffffffffffffffffffffffffff\n      and\n      0xffffffffffffffffffffffffffffffffffffffff\n      and\n      dup2\n      mstore\n      0x20\n      add\n      swap1\n      dup2\n      mstore\n      0x20\n      add\n      0x00\n      keccak256\n      0x00\n      swap1\n      sload\n      swap1\n      0x0100\n      exp\n      swap1\n      div\n      0xff\n      and\n        /* \"wmbToken.sol\":4082:4111  has500km[msg.sender] == false */\n      iszero\n      iszero\n      sub\n        /* \"wmbToken.sol\":4079:4198  if(has500km[msg.sender] == false){... */\n      tag_164\n      jumpi\n        /* \"wmbToken.sol\":4166:4170  true */\n      0x01\n        /* \"wmbToken.sol\":4143:4151  has500km */\n      0x0b\n        /* \"wmbToken.sol\":4143:4163  has500km[msg.sender] */\n      0x00\n        /* \"wmbToken.sol\":4152:4162  msg.sender */\n      caller\n        /* \"wmbToken.sol\":4143:4163  has500km[msg.sender] */\n      0xffffffffffffffffffffffffffffffffffffffff\n      and\n      0xffffffffffffffffffffffffffffffffffffffff\n      and\n      dup2\n      mstore\n      0x20\n      add\n      swap1\n      dup2\n      mstore\n      0x20\n      add\n      0x00\n      keccak256\n      0x00\n        /* \"wmbToken.sol\":4143:4170  has500km[msg.sender] = true */\n      0x0100\n      exp\n      dup2\n      sload\n      dup2\n      0xff\n      mul\n      not\n      and\n      swap1\n      dup4\n      iszero\n      iszero\n      mul\n      or\n      swap1\n      sstore\n      pop\n        /* \"wmbToken.sol\":4079:4198  if(has500km[msg.sender] == false){... */\n    tag_164:\n        /* \"wmbToken.sol\":4254:4260  100000 */\n      0x0186a0\n        /* \"wmbToken.sol\":4229:4238  balanceOf */\n      0x01\n        /* \"wmbToken.sol\":4229:4250  balanceOf[msg.sender] */\n      0x00\n        /* \"wmbToken.sol\":4239:4249  msg.sender */\n      caller\n        /* \"wmbToken.sol\":4229:4250  balanceOf[msg.sender] */\n      0xffffffffffffffffffffffffffffffffffffffff\n      and\n      0xffffffffffffffffffffffffffffffffffffffff\n      and\n      dup2\n      mstore\n      0x20\n      add\n      swap1\n      dup2\n      mstore\n      0x20\n      add\n      0x00\n      keccak256\n      sload\n        /* \"wmbToken.sol\":4229:4260  balanceOf[msg.sender] >= 100000 */\n      lt\n        /* \"wmbToken.sol\":4225:4721  if (balanceOf[msg.sender] >= 100000){... */\n      tag_165\n      jumpi\n        /* \"wmbToken.sol\":4320:4325  false */\n      0x00\n        /* \"wmbToken.sol\":4295:4325  has1000km[msg.sender] == false */\n      iszero\n      iszero\n        /* \"wmbToken.sol\":4295:4304  has1000km */\n      0x0c\n        /* \"wmbToken.sol\":4295:4316  has1000km[msg.sender] */\n      0x00\n        /* \"wmbToken.sol\":4305:4315  msg.sender */\n      caller\n        /* \"wmbToken.sol\":4295:4316  has1000km[msg.sender] */\n      0xffffffffffffffffffffffffffffffffffffffff\n      and\n      0xffffffffffffffffffffffffffffffffffffffff\n      and\n      dup2\n      mstore\n      0x20\n      add\n      swap1\n      dup2\n      mstore\n      0x20\n      add\n      0x00\n      keccak256\n      0x00\n      swap1\n      sload\n      swap1\n      0x0100\n      exp\n      swap1\n      div\n      0xff\n      and\n        /* \"wmbToken.sol\":4295:4325  has1000km[msg.sender] == false */\n      iszero\n      iszero\n      sub\n        /* \"wmbToken.sol\":4292:4421  if(has1000km[msg.sender] == false){... */\n      tag_166\n      jumpi\n        /* \"wmbToken.sol\":4385:4389  true */\n      0x01\n        /* \"wmbToken.sol\":4361:4370  has1000km */\n      0x0c\n        /* \"wmbToken.sol\":4361:4382  has1000km[msg.sender] */\n      0x00\n        /* \"wmbToken.sol\":4371:4381  msg.sender */\n      caller\n        /* \"wmbToken.sol\":4361:4382  has1000km[msg.sender] */\n      0xffffffffffffffffffffffffffffffffffffffff\n      and\n      0xffffffffffffffffffffffffffffffffffffffff\n      and\n      dup2\n      mstore\n      0x20\n      add\n      swap1\n      dup2\n      mstore\n      0x20\n      add\n      0x00\n      keccak256\n      0x00\n        /* \"wmbToken.sol\":4361:4389  has1000km[msg.sender] = true */\n      0x0100\n      exp\n      dup2\n      sload\n      dup2\n      0xff\n      mul\n      not\n      and\n      swap1\n      dup4\n      iszero\n      iszero\n      mul\n      or\n      swap1\n      sstore\n      pop\n        /* \"wmbToken.sol\":4292:4421  if(has1000km[msg.sender] == false){... */\n    tag_166:\n        /* \"wmbToken.sol\":4481:4488  1000000 */\n      0x0f4240\n        /* \"wmbToken.sol\":4456:4465  balanceOf */\n      0x01\n        /* \"wmbToken.sol\":4456:4477  balanceOf[msg.sender] */\n      0x00\n        /* \"wmbToken.sol\":4466:4476  msg.sender */\n      caller\n        /* \"wmbToken.sol\":4456:4477  balanceOf[msg.sender] */\n      0xffffffffffffffffffffffffffffffffffffffff\n      and\n      0xffffffffffffffffffffffffffffffffffffffff\n      and\n      dup2\n      mstore\n      0x20\n      add\n      swap1\n      dup2\n      mstore\n      0x20\n      add\n      0x00\n      keccak256\n      sload\n        /* \"wmbToken.sol\":4456:4488  balanceOf[msg.sender] >= 1000000 */\n      lt\n        /* \"wmbToken.sol\":4452:4694  if (balanceOf[msg.sender] >= 1000000){... */\n      tag_167\n      jumpi\n        /* \"wmbToken.sol\":4553:4558  false */\n      0x00\n        /* \"wmbToken.sol\":4527:4558  has10000km[msg.sender] == false */\n      iszero\n      iszero\n        /* \"wmbToken.sol\":4527:4537  has10000km */\n      0x0d\n        /* \"wmbToken.sol\":4527:4549  has10000km[msg.sender] */\n      0x00\n        /* \"wmbToken.sol\":4538:4548  msg.sender */\n      caller\n        /* \"wmbToken.sol\":4527:4549  has10000km[msg.sender] */\n      0xffffffffffffffffffffffffffffffffffffffff\n      and\n      0xffffffffffffffffffffffffffffffffffffffff\n      and\n      dup2\n      mstore\n      0x20\n      add\n      swap1\n      dup2\n      mstore\n      0x20\n      add\n      0x00\n      keccak256\n      0x00\n      swap1\n      sload\n      swap1\n      0x0100\n      exp\n      swap1\n      div\n      0xff\n      and\n        /* \"wmbToken.sol\":4527:4558  has10000km[msg.sender] == false */\n      iszero\n      iszero\n      sub\n        /* \"wmbToken.sol\":4524:4663  if(has10000km[msg.sender] == false){... */\n      tag_168\n      jumpi\n        /* \"wmbToken.sol\":4623:4627  true */\n      0x01\n        /* \"wmbToken.sol\":4598:4608  has10000km */\n      0x0d\n        /* \"wmbToken.sol\":4598:4620  has10000km[msg.sender] */\n      0x00\n        /* \"wmbToken.sol\":4609:4619  msg.sender */\n      caller\n        /* \"wmbToken.sol\":4598:4620  has10000km[msg.sender] */\n      0xffffffffffffffffffffffffffffffffffffffff\n      and\n      0xffffffffffffffffffffffffffffffffffffffff\n      and\n      dup2\n      mstore\n      0x20\n      add\n      swap1\n      dup2\n      mstore\n      0x20\n      add\n      0x00\n      keccak256\n      0x00\n        /* \"wmbToken.sol\":4598:4627  has10000km[msg.sender] = true */\n      0x0100\n      exp\n      dup2\n      sload\n      dup2\n      0xff\n      mul\n      not\n      and\n      swap1\n      dup4\n      iszero\n      iszero\n      mul\n      or\n      swap1\n      sstore\n      pop\n        /* \"wmbToken.sol\":4524:4663  if(has10000km[msg.sender] == false){... */\n    tag_168:\n        /* \"wmbToken.sol\":4452:4694  if (balanceOf[msg.sender] >= 1000000){... */\n    tag_167:\n        /* \"wmbToken.sol\":4225:4721  if (balanceOf[msg.sender] >= 100000){... */\n    tag_165:\n        /* \"wmbToken.sol\":4017:4744  if (balanceOf[msg.sender] >= 50000){... */\n    tag_163:\n        /* \"wmbToken.sol\":3824:4763  if (balanceOf[msg.sender] >= 10000){... */\n    tag_161:\n        /* \"wmbToken.sol\":3653:4778  if(balanceOf[msg.sender] >= 1000){... */\n    tag_159:\n        /* \"wmbToken.sol\":3500:4789  if(balanceOf[msg.sender] >= 500){... */\n    tag_157:\n        /* \"wmbToken.sol\":3166:4796  function mint(uint amount) external {... */\n    tag_151:\n      pop\n      jump\t// out\n        /* \"wmbToken.sol\":2188:2463  function transfer (address recipient, uint amount) external returns (bool){... */\n    tag_94:\n        /* \"wmbToken.sol\":2257:2261  bool */\n      0x00\n        /* \"wmbToken.sol\":2291:2294  100 */\n      0x64\n        /* \"wmbToken.sol\":2281:2287  amount */\n      dup3\n        /* \"wmbToken.sol\":2281:2294  amount <= 100 */\n      gt\n      iszero\n        /* \"wmbToken.sol\":2273:2295  require(amount <= 100) */\n      tag_170\n      jumpi\n      0x00\n      dup1\n      revert\n    tag_170:\n        /* \"wmbToken.sol\":2331:2337  amount */\n      dup2\n        /* \"wmbToken.sol\":2306:2315  balanceOf */\n      0x01\n        /* \"wmbToken.sol\":2306:2327  balanceOf[msg.sender] */\n      0x00\n        /* \"wmbToken.sol\":2316:2326  msg.sender */\n      caller\n        /* \"wmbToken.sol\":2306:2327  balanceOf[msg.sender] */\n      0xffffffffffffffffffffffffffffffffffffffff\n      and\n      0xffffffffffffffffffffffffffffffffffffffff\n      and\n      dup2\n      mstore\n      0x20\n      add\n      swap1\n      dup2\n      mstore\n      0x20\n      add\n      0x00\n      keccak256\n      0x00\n        /* \"wmbToken.sol\":2306:2337  balanceOf[msg.sender] -= amount */\n      dup3\n      dup3\n      sload\n      tag_171\n      swap2\n      swap1\n      tag_132\n      jump\t// in\n    tag_171:\n      swap3\n      pop\n      pop\n      dup2\n      swap1\n      sstore\n      pop\n        /* \"wmbToken.sol\":2372:2378  amount */\n      dup2\n        /* \"wmbToken.sol\":2348:2357  balanceOf */\n      0x01\n        /* \"wmbToken.sol\":2348:2368  balanceOf[recipient] */\n      0x00\n        /* \"wmbToken.sol\":2358:2367  recipient */\n      dup6\n        /* \"wmbToken.sol\":2348:2368  balanceOf[recipient] */\n      0xffffffffffffffffffffffffffffffffffffffff\n      and\n      0xffffffffffffffffffffffffffffffffffffffff\n      and\n      dup2\n      mstore\n      0x20\n      add\n      swap1\n      dup2\n      mstore\n      0x20\n      add\n      0x00\n      keccak256\n      0x00\n        /* \"wmbToken.sol\":2348:2378  balanceOf[recipient] += amount */\n      dup3\n      dup3\n      sload\n      tag_172\n      swap2\n      swap1\n      tag_135\n      jump\t// in\n    tag_172:\n      swap3\n      pop\n      pop\n      dup2\n      swap1\n      sstore\n      pop\n        /* \"wmbToken.sol\":2415:2424  recipient */\n      dup3\n        /* \"wmbToken.sol\":2394:2433  Transfer(msg.sender, recipient, amount) */\n      0xffffffffffffffffffffffffffffffffffffffff\n      and\n        /* \"wmbToken.sol\":2403:2413  msg.sender */\n      caller\n        /* \"wmbToken.sol\":2394:2433  Transfer(msg.sender, recipient, amount) */\n      0xffffffffffffffffffffffffffffffffffffffff\n      and\n      0xddf252ad1be2c89b69c2b068fc378daa952ba7f163c4a11628f55a4df523b3ef\n        /* \"wmbToken.sol\":2426:2432  amount */\n      dup5\n        /* \"wmbToken.sol\":2394:2433  Transfer(msg.sender, recipient, amount) */\n      mload(0x40)\n      tag_173\n      swap2\n      swap1\n      tag_46\n      jump\t// in\n    tag_173:\n      mload(0x40)\n      dup1\n      swap2\n      sub\n      swap1\n      log3\n        /* \"wmbToken.sol\":2451:2455  true */\n      0x01\n        /* \"wmbToken.sol\":2444:2455  return true */\n      swap1\n      pop\n        /* \"wmbToken.sol\":2188:2463  function transfer (address recipient, uint amount) external returns (bool){... */\n      swap3\n      swap2\n      pop\n      pop\n      jump\t// out\n        /* \"wmbToken.sol\":5028:5125  function setName(string calldata Pname) external{... */\n    tag_98:\n        /* \"wmbToken.sol\":5112:5117  Pname */\n      dup2\n      dup2\n        /* \"wmbToken.sol\":5087:5097  personName */\n      0x07\n        /* \"wmbToken.sol\":5087:5109  personName[msg.sender] */\n      0x00\n        /* \"wmbToken.sol\":5098:5108  msg.sender */\n      caller\n        /* \"wmbToken.sol\":5087:5109  personName[msg.sender] */\n      0xffffffffffffffffffffffffffffffffffffffff\n      and\n      0xffffffffffffffffffffffffffffffffffffffff\n      and\n      dup2\n      mstore\n      0x20\n      add\n      swap1\n      dup2\n      mstore\n      0x20\n      add\n      0x00\n      keccak256\n        /* \"wmbToken.sol\":5087:5117  personName[msg.sender] = Pname */\n      swap2\n      dup3\n      tag_175\n      swap3\n      swap2\n      swap1\n      tag_143\n      jump\t// in\n    tag_175:\n      pop\n        /* \"wmbToken.sol\":5028:5125  function setName(string calldata Pname) external{... */\n      pop\n      pop\n      jump\t// out\n        /* \"wmbToken.sol\":1796:1836  mapping(address => bool) public has100km */\n    tag_101:\n      mstore(0x20, 0x0a)\n      dup1\n      0x00\n      mstore\n      keccak256(0x00, 0x40)\n      0x00\n      swap2\n      pop\n      sload\n      swap1\n      0x0100\n      exp\n      swap1\n      div\n      0xff\n      and\n      dup2\n      jump\t// out\n        /* \"wmbToken.sol\":1843:1883  mapping(address => bool) public has500km */\n    tag_105:\n      mstore(0x20, 0x0b)\n      dup1\n      0x00\n      mstore\n      keccak256(0x00, 0x40)\n      0x00\n      swap2\n      pop\n      sload\n      swap1\n      0x0100\n      exp\n      swap1\n      div\n      0xff\n      and\n      dup2\n      jump\t// out\n        /* \"wmbToken.sol\":1344:1405  mapping(address => mapping(address => uint)) public allowance */\n    tag_110:\n      mstore(0x20, 0x02)\n      dup2\n      0x00\n      mstore\n      mstore(0x20, keccak256(0x00, 0x40))\n      dup1\n      0x00\n      mstore\n      keccak256(0x00, 0x40)\n      0x00\n      swap2\n      pop\n      swap2\n      pop\n      pop\n      sload\n      dup2\n      jump\t// out\n        /* \"wmbToken.sol\":1891:1932  mapping(address => bool) public has1000km */\n    tag_114:\n      mstore(0x20, 0x0c)\n      dup1\n      0x00\n      mstore\n      keccak256(0x00, 0x40)\n      0x00\n      swap2\n      pop\n      sload\n      swap1\n      0x0100\n      exp\n      swap1\n      div\n      0xff\n      and\n      dup2\n      jump\t// out\n        /* \"#utility.yul\":7:106   */\n    tag_176:\n        /* \"#utility.yul\":59:65   */\n      0x00\n        /* \"#utility.yul\":93:98   */\n      dup2\n        /* \"#utility.yul\":87:99   */\n      mload\n        /* \"#utility.yul\":77:99   */\n      swap1\n      pop\n        /* \"#utility.yul\":7:106   */\n      swap2\n      swap1\n      pop\n      jump\t// out\n        /* \"#utility.yul\":112:281   */\n    tag_177:\n        /* \"#utility.yul\":196:207   */\n      0x00\n        /* \"#utility.yul\":230:236   */\n      dup3\n        /* \"#utility.yul\":225:228   */\n      dup3\n        /* \"#utility.yul\":218:237   */\n      mstore\n        /* \"#utility.yul\":270:274   */\n      0x20\n        /* \"#utility.yul\":265:268   */\n      dup3\n        /* \"#utility.yul\":261:275   */\n      add\n        /* \"#utility.yul\":246:275   */\n      swap1\n      pop\n        /* \"#utility.yul\":112:281   */\n      swap3\n      swap2\n      pop\n      pop\n      jump\t// out\n        /* \"#utility.yul\":287:533   */\n    tag_178:\n        /* \"#utility.yul\":368:369   */\n      0x00\n        /* \"#utility.yul\":378:491   */\n    tag_223:\n        /* \"#utility.yul\":392:398   */\n      dup4\n        /* \"#utility.yul\":389:390   */\n      dup2\n        /* \"#utility.yul\":386:399   */\n      lt\n        /* \"#utility.yul\":378:491   */\n      iszero\n      tag_225\n      jumpi\n        /* \"#utility.yul\":477:478   */\n      dup1\n        /* \"#utility.yul\":472:475   */\n      dup3\n        /* \"#utility.yul\":468:479   */\n      add\n        /* \"#utility.yul\":462:480   */\n      mload\n        /* \"#utility.yul\":458:459   */\n      dup2\n        /* \"#utility.yul\":453:456   */\n      dup5\n        /* \"#utility.yul\":449:460   */\n      add\n        /* \"#utility.yul\":442:481   */\n      mstore\n        /* \"#utility.yul\":414:416   */\n      0x20\n        /* \"#utility.yul\":411:412   */\n      dup2\n        /* \"#utility.yul\":407:417   */\n      add\n        /* \"#utility.yul\":402:417   */\n      swap1\n      pop\n        /* \"#utility.yul\":378:491   */\n      jump(tag_223)\n    tag_225:\n        /* \"#utility.yul\":525:526   */\n      0x00\n        /* \"#utility.yul\":516:522   */\n      dup5\n        /* \"#utility.yul\":511:514   */\n      dup5\n        /* \"#utility.yul\":507:523   */\n      add\n        /* \"#utility.yul\":500:527   */\n      mstore\n        /* \"#utility.yul\":349:533   */\n      pop\n        /* \"#utility.yul\":287:533   */\n      pop\n      pop\n      pop\n      jump\t// out\n        /* \"#utility.yul\":539:641   */\n    tag_179:\n        /* \"#utility.yul\":580:586   */\n      0x00\n        /* \"#utility.yul\":631:633   */\n      0x1f\n        /* \"#utility.yul\":627:634   */\n      not\n        /* \"#utility.yul\":622:624   */\n      0x1f\n        /* \"#utility.yul\":615:620   */\n      dup4\n        /* \"#utility.yul\":611:625   */\n      add\n        /* \"#utility.yul\":607:635   */\n      and\n        /* \"#utility.yul\":597:635   */\n      swap1\n      pop\n        /* \"#utility.yul\":539:641   */\n      swap2\n      swap1\n      pop\n      jump\t// out\n        /* \"#utility.yul\":647:1024   */\n    tag_180:\n        /* \"#utility.yul\":735:738   */\n      0x00\n        /* \"#utility.yul\":763:802   */\n      tag_228\n        /* \"#utility.yul\":796:801   */\n      dup3\n        /* \"#utility.yul\":763:802   */\n      tag_176\n      jump\t// in\n    tag_228:\n        /* \"#utility.yul\":818:889   */\n      tag_229\n        /* \"#utility.yul\":882:888   */\n      dup2\n        /* \"#utility.yul\":877:880   */\n      dup6\n        /* \"#utility.yul\":818:889   */\n      tag_177\n      jump\t// in\n    tag_229:\n        /* \"#utility.yul\":811:889   */\n      swap4\n      pop\n        /* \"#utility.yul\":898:963   */\n      tag_230\n        /* \"#utility.yul\":956:962   */\n      dup2\n        /* \"#utility.yul\":951:954   */\n      dup6\n        /* \"#utility.yul\":944:948   */\n      0x20\n        /* \"#utility.yul\":937:942   */\n      dup7\n        /* \"#utility.yul\":933:949   */\n      add\n        /* \"#utility.yul\":898:963   */\n      tag_178\n      jump\t// in\n    tag_230:\n        /* \"#utility.yul\":988:1017   */\n      tag_231\n        /* \"#utility.yul\":1010:1016   */\n      dup2\n        /* \"#utility.yul\":988:1017   */\n      tag_179\n      jump\t// in\n    tag_231:\n        /* \"#utility.yul\":983:986   */\n      dup5\n        /* \"#utility.yul\":979:1018   */\n      add\n        /* \"#utility.yul\":972:1018   */\n      swap2\n      pop\n        /* \"#utility.yul\":739:1024   */\n      pop\n        /* \"#utility.yul\":647:1024   */\n      swap3\n      swap2\n      pop\n      pop\n      jump\t// out\n        /* \"#utility.yul\":1030:1343   */\n    tag_31:\n        /* \"#utility.yul\":1143:1147   */\n      0x00\n        /* \"#utility.yul\":1181:1183   */\n      0x20\n        /* \"#utility.yul\":1170:1179   */\n      dup3\n        /* \"#utility.yul\":1166:1184   */\n      add\n        /* \"#utility.yul\":1158:1184   */\n      swap1\n      pop\n        /* \"#utility.yul\":1230:1239   */\n      dup2\n        /* \"#utility.yul\":1224:1228   */\n      dup2\n        /* \"#utility.yul\":1220:1240   */\n      sub\n        /* \"#utility.yul\":1216:1217   */\n      0x00\n        /* \"#utility.yul\":1205:1214   */\n      dup4\n        /* \"#utility.yul\":1201:1218   */\n      add\n        /* \"#utility.yul\":1194:1241   */\n      mstore\n        /* \"#utility.yul\":1258:1336   */\n      tag_233\n        /* \"#utility.yul\":1331:1335   */\n      dup2\n        /* \"#utility.yul\":1322:1328   */\n      dup5\n        /* \"#utility.yul\":1258:1336   */\n      tag_180\n      jump\t// in\n    tag_233:\n        /* \"#utility.yul\":1250:1336   */\n      swap1\n      pop\n        /* \"#utility.yul\":1030:1343   */\n      swap3\n      swap2\n      pop\n      pop\n      jump\t// out\n        /* \"#utility.yul\":1430:1547   */\n    tag_182:\n        /* \"#utility.yul\":1539:1540   */\n      0x00\n        /* \"#utility.yul\":1536:1537   */\n      dup1\n        /* \"#utility.yul\":1529:1541   */\n      revert\n        /* \"#utility.yul\":1553:1670   */\n    tag_183:\n        /* \"#utility.yul\":1662:1663   */\n      0x00\n        /* \"#utility.yul\":1659:1660   */\n      dup1\n        /* \"#utility.yul\":1652:1664   */\n      revert\n        /* \"#utility.yul\":1676:1802   */\n    tag_184:\n        /* \"#utility.yul\":1713:1720   */\n      0x00\n        /* \"#utility.yul\":1753:1795   */\n      0xffffffffffffffffffffffffffffffffffffffff\n        /* \"#utility.yul\":1746:1751   */\n      dup3\n        /* \"#utility.yul\":1742:1796   */\n      and\n        /* \"#utility.yul\":1731:1796   */\n      swap1\n      pop\n        /* \"#utility.yul\":1676:1802   */\n      swap2\n      swap1\n      pop\n      jump\t// out\n        /* \"#utility.yul\":1808:1904   */\n    tag_185:\n        /* \"#utility.yul\":1845:1852   */\n      0x00\n        /* \"#utility.yul\":1874:1898   */\n      tag_239\n        /* \"#utility.yul\":1892:1897   */\n      dup3\n        /* \"#utility.yul\":1874:1898   */\n      tag_184\n      jump\t// in\n    tag_239:\n        /* \"#utility.yul\":1863:1898   */\n      swap1\n      pop\n        /* \"#utility.yul\":1808:1904   */\n      swap2\n      swap1\n      pop\n      jump\t// out\n        /* \"#utility.yul\":1910:2032   */\n    tag_186:\n        /* \"#utility.yul\":1983:2007   */\n      tag_241\n        /* \"#utility.yul\":2001:2006   */\n      dup2\n        /* \"#utility.yul\":1983:2007   */\n      tag_185\n      jump\t// in\n    tag_241:\n        /* \"#utility.yul\":1976:1981   */\n      dup2\n        /* \"#utility.yul\":1973:2008   */\n      eq\n        /* \"#utility.yul\":1963:2026   */\n      tag_242\n      jumpi\n        /* \"#utility.yul\":2022:2023   */\n      0x00\n        /* \"#utility.yul\":2019:2020   */\n      dup1\n        /* \"#utility.yul\":2012:2024   */\n      revert\n        /* \"#utility.yul\":1963:2026   */\n    tag_242:\n        /* \"#utility.yul\":1910:2032   */\n      pop\n      jump\t// out\n        /* \"#utility.yul\":2038:2177   */\n    tag_187:\n        /* \"#utility.yul\":2084:2089   */\n      0x00\n        /* \"#utility.yul\":2122:2128   */\n      dup2\n        /* \"#utility.yul\":2109:2129   */\n      calldataload\n        /* \"#utility.yul\":2100:2129   */\n      swap1\n      pop\n        /* \"#utility.yul\":2138:2171   */\n      tag_244\n        /* \"#utility.yul\":2165:2170   */\n      dup2\n        /* \"#utility.yul\":2138:2171   */\n      tag_186\n      jump\t// in\n    tag_244:\n        /* \"#utility.yul\":2038:2177   */\n      swap3\n      swap2\n      pop\n      pop\n      jump\t// out\n        /* \"#utility.yul\":2183:2260   */\n    tag_188:\n        /* \"#utility.yul\":2220:2227   */\n      0x00\n        /* \"#utility.yul\":2249:2254   */\n      dup2\n        /* \"#utility.yul\":2238:2254   */\n      swap1\n      pop\n        /* \"#utility.yul\":2183:2260   */\n      swap2\n      swap1\n      pop\n      jump\t// out\n        /* \"#utility.yul\":2266:2388   */\n    tag_189:\n        /* \"#utility.yul\":2339:2363   */\n      tag_247\n        /* \"#utility.yul\":2357:2362   */\n      dup2\n        /* \"#utility.yul\":2339:2363   */\n      tag_188\n      jump\t// in\n    tag_247:\n        /* \"#utility.yul\":2332:2337   */\n      dup2\n        /* \"#utility.yul\":2329:2364   */\n      eq\n        /* \"#utility.yul\":2319:2382   */\n      tag_248\n      jumpi\n        /* \"#utility.yul\":2378:2379   */\n      0x00\n        /* \"#utility.yul\":2375:2376   */\n      dup1\n        /* \"#utility.yul\":2368:2380   */\n      revert\n        /* \"#utility.yul\":2319:2382   */\n    tag_248:\n        /* \"#utility.yul\":2266:2388   */\n      pop\n      jump\t// out\n        /* \"#utility.yul\":2394:2533   */\n    tag_190:\n        /* \"#utility.yul\":2440:2445   */\n      0x00\n        /* \"#utility.yul\":2478:2484   */\n      dup2\n        /* \"#utility.yul\":2465:2485   */\n      calldataload\n        /* \"#utility.yul\":2456:2485   */\n      swap1\n      pop\n        /* \"#utility.yul\":2494:2527   */\n      tag_250\n        /* \"#utility.yul\":2521:2526   */\n      dup2\n        /* \"#utility.yul\":2494:2527   */\n      tag_189\n      jump\t// in\n    tag_250:\n        /* \"#utility.yul\":2394:2533   */\n      swap3\n      swap2\n      pop\n      pop\n      jump\t// out\n        /* \"#utility.yul\":2539:3013   */\n    tag_34:\n        /* \"#utility.yul\":2607:2613   */\n      0x00\n        /* \"#utility.yul\":2615:2621   */\n      dup1\n        /* \"#utility.yul\":2664:2666   */\n      0x40\n        /* \"#utility.yul\":2652:2661   */\n      dup4\n        /* \"#utility.yul\":2643:2650   */\n      dup6\n        /* \"#utility.yul\":2639:2662   */\n      sub\n        /* \"#utility.yul\":2635:2667   */\n      slt\n        /* \"#utility.yul\":2632:2751   */\n      iszero\n      tag_252\n      jumpi\n        /* \"#utility.yul\":2670:2749   */\n      tag_253\n      tag_182\n      jump\t// in\n    tag_253:\n        /* \"#utility.yul\":2632:2751   */\n    tag_252:\n        /* \"#utility.yul\":2790:2791   */\n      0x00\n        /* \"#utility.yul\":2815:2868   */\n      tag_254\n        /* \"#utility.yul\":2860:2867   */\n      dup6\n        /* \"#utility.yul\":2851:2857   */\n      dup3\n        /* \"#utility.yul\":2840:2849   */\n      dup7\n        /* \"#utility.yul\":2836:2858   */\n      add\n        /* \"#utility.yul\":2815:2868   */\n      tag_187\n      jump\t// in\n    tag_254:\n        /* \"#utility.yul\":2805:2868   */\n      swap3\n      pop\n        /* \"#utility.yul\":2761:2878   */\n      pop\n        /* \"#utility.yul\":2917:2919   */\n      0x20\n        /* \"#utility.yul\":2943:2996   */\n      tag_255\n        /* \"#utility.yul\":2988:2995   */\n      dup6\n        /* \"#utility.yul\":2979:2985   */\n      dup3\n        /* \"#utility.yul\":2968:2977   */\n      dup7\n        /* \"#utility.yul\":2964:2986   */\n      add\n        /* \"#utility.yul\":2943:2996   */\n      tag_190\n      jump\t// in\n    tag_255:\n        /* \"#utility.yul\":2933:2996   */\n      swap2\n      pop\n        /* \"#utility.yul\":2888:3006   */\n      pop\n        /* \"#utility.yul\":2539:3013   */\n      swap3\n      pop\n      swap3\n      swap1\n      pop\n      jump\t// out\n        /* \"#utility.yul\":3019:3109   */\n    tag_191:\n        /* \"#utility.yul\":3053:3060   */\n      0x00\n        /* \"#utility.yul\":3096:3101   */\n      dup2\n        /* \"#utility.yul\":3089:3102   */\n      iszero\n        /* \"#utility.yul\":3082:3103   */\n      iszero\n        /* \"#utility.yul\":3071:3103   */\n      swap1\n      pop\n        /* \"#utility.yul\":3019:3109   */\n      swap2\n      swap1\n      pop\n      jump\t// out\n        /* \"#utility.yul\":3115:3224   */\n    tag_192:\n        /* \"#utility.yul\":3196:3217   */\n      tag_258\n        /* \"#utility.yul\":3211:3216   */\n      dup2\n        /* \"#utility.yul\":3196:3217   */\n      tag_191\n      jump\t// in\n    tag_258:\n        /* \"#utility.yul\":3191:3194   */\n      dup3\n        /* \"#utility.yul\":3184:3218   */\n      mstore\n        /* \"#utility.yul\":3115:3224   */\n      pop\n      pop\n      jump\t// out\n        /* \"#utility.yul\":3230:3440   */\n    tag_37:\n        /* \"#utility.yul\":3317:3321   */\n      0x00\n        /* \"#utility.yul\":3355:3357   */\n      0x20\n        /* \"#utility.yul\":3344:3353   */\n      dup3\n        /* \"#utility.yul\":3340:3358   */\n      add\n        /* \"#utility.yul\":3332:3358   */\n      swap1\n      pop\n        /* \"#utility.yul\":3368:3433   */\n      tag_260\n        /* \"#utility.yul\":3430:3431   */\n      0x00\n        /* \"#utility.yul\":3419:3428   */\n      dup4\n        /* \"#utility.yul\":3415:3432   */\n      add\n        /* \"#utility.yul\":3406:3412   */\n      dup5\n        /* \"#utility.yul\":3368:3433   */\n      tag_192\n      jump\t// in\n    tag_260:\n        /* \"#utility.yul\":3230:3440   */\n      swap3\n      swap2\n      pop\n      pop\n      jump\t// out\n        /* \"#utility.yul\":3446:3775   */\n    tag_40:\n        /* \"#utility.yul\":3505:3511   */\n      0x00\n        /* \"#utility.yul\":3554:3556   */\n      0x20\n        /* \"#utility.yul\":3542:3551   */\n      dup3\n        /* \"#utility.yul\":3533:3540   */\n      dup5\n        /* \"#utility.yul\":3529:3552   */\n      sub\n        /* \"#utility.yul\":3525:3557   */\n      slt\n        /* \"#utility.yul\":3522:3641   */\n      iszero\n      tag_262\n      jumpi\n        /* \"#utility.yul\":3560:3639   */\n      tag_263\n      tag_182\n      jump\t// in\n    tag_263:\n        /* \"#utility.yul\":3522:3641   */\n    tag_262:\n        /* \"#utility.yul\":3680:3681   */\n      0x00\n        /* \"#utility.yul\":3705:3758   */\n      tag_264\n        /* \"#utility.yul\":3750:3757   */\n      dup5\n        /* \"#utility.yul\":3741:3747   */\n      dup3\n        /* \"#utility.yul\":3730:3739   */\n      dup6\n        /* \"#utility.yul\":3726:3748   */\n      add\n        /* \"#utility.yul\":3705:3758   */\n      tag_187\n      jump\t// in\n    tag_264:\n        /* \"#utility.yul\":3695:3758   */\n      swap2\n      pop\n        /* \"#utility.yul\":3651:3768   */\n      pop\n        /* \"#utility.yul\":3446:3775   */\n      swap3\n      swap2\n      pop\n      pop\n      jump\t// out\n        /* \"#utility.yul\":3781:3899   */\n    tag_193:\n        /* \"#utility.yul\":3868:3892   */\n      tag_266\n        /* \"#utility.yul\":3886:3891   */\n      dup2\n        /* \"#utility.yul\":3868:3892   */\n      tag_188\n      jump\t// in\n    tag_266:\n        /* \"#utility.yul\":3863:3866   */\n      dup3\n        /* \"#utility.yul\":3856:3893   */\n      mstore\n        /* \"#utility.yul\":3781:3899   */\n      pop\n      pop\n      jump\t// out\n        /* \"#utility.yul\":3905:4127   */\n    tag_46:\n        /* \"#utility.yul\":3998:4002   */\n      0x00\n        /* \"#utility.yul\":4036:4038   */\n      0x20\n        /* \"#utility.yul\":4025:4034   */\n      dup3\n        /* \"#utility.yul\":4021:4039   */\n      add\n        /* \"#utility.yul\":4013:4039   */\n      swap1\n      pop\n        /* \"#utility.yul\":4049:4120   */\n      tag_268\n        /* \"#utility.yul\":4117:4118   */\n      0x00\n        /* \"#utility.yul\":4106:4115   */\n      dup4\n        /* \"#utility.yul\":4102:4119   */\n      add\n        /* \"#utility.yul\":4093:4099   */\n      dup5\n        /* \"#utility.yul\":4049:4120   */\n      tag_193\n      jump\t// in\n    tag_268:\n        /* \"#utility.yul\":3905:4127   */\n      swap3\n      swap2\n      pop\n      pop\n      jump\t// out\n        /* \"#utility.yul\":4133:4752   */\n    tag_53:\n        /* \"#utility.yul\":4210:4216   */\n      0x00\n        /* \"#utility.yul\":4218:4224   */\n      dup1\n        /* \"#utility.yul\":4226:4232   */\n      0x00\n        /* \"#utility.yul\":4275:4277   */\n      0x60\n        /* \"#utility.yul\":4263:4272   */\n      dup5\n        /* \"#utility.yul\":4254:4261   */\n      dup7\n        /* \"#utility.yul\":4250:4273   */\n      sub\n        /* \"#utility.yul\":4246:4278   */\n      slt\n        /* \"#utility.yul\":4243:4362   */\n      iszero\n      tag_270\n      jumpi\n        /* \"#utility.yul\":4281:4360   */\n      tag_271\n      tag_182\n      jump\t// in\n    tag_271:\n        /* \"#utility.yul\":4243:4362   */\n    tag_270:\n        /* \"#utility.yul\":4401:4402   */\n      0x00\n        /* \"#utility.yul\":4426:4479   */\n      tag_272\n        /* \"#utility.yul\":4471:4478   */\n      dup7\n        /* \"#utility.yul\":4462:4468   */\n      dup3\n        /* \"#utility.yul\":4451:4460   */\n      dup8\n        /* \"#utility.yul\":4447:4469   */\n      add\n        /* \"#utility.yul\":4426:4479   */\n      tag_187\n      jump\t// in\n    tag_272:\n        /* \"#utility.yul\":4416:4479   */\n      swap4\n      pop\n        /* \"#utility.yul\":4372:4489   */\n      pop\n        /* \"#utility.yul\":4528:4530   */\n      0x20\n        /* \"#utility.yul\":4554:4607   */\n      tag_273\n        /* \"#utility.yul\":4599:4606   */\n      dup7\n        /* \"#utility.yul\":4590:4596   */\n      dup3\n        /* \"#utility.yul\":4579:4588   */\n      dup8\n        /* \"#utility.yul\":4575:4597   */\n      add\n        /* \"#utility.yul\":4554:4607   */\n      tag_187\n      jump\t// in\n    tag_273:\n        /* \"#utility.yul\":4544:4607   */\n      swap3\n      pop\n        /* \"#utility.yul\":4499:4617   */\n      pop\n        /* \"#utility.yul\":4656:4658   */\n      0x40\n        /* \"#utility.yul\":4682:4735   */\n      tag_274\n        /* \"#utility.yul\":4727:4734   */\n      dup7\n        /* \"#utility.yul\":4718:4724   */\n      dup3\n        /* \"#utility.yul\":4707:4716   */\n      dup8\n        /* \"#utility.yul\":4703:4725   */\n      add\n        /* \"#utility.yul\":4682:4735   */\n      tag_190\n      jump\t// in\n    tag_274:\n        /* \"#utility.yul\":4672:4735   */\n      swap2\n      pop\n        /* \"#utility.yul\":4627:4745   */\n      pop\n        /* \"#utility.yul\":4133:4752   */\n      swap3\n      pop\n      swap3\n      pop\n      swap3\n      jump\t// out\n        /* \"#utility.yul\":4758:4844   */\n    tag_194:\n        /* \"#utility.yul\":4793:4800   */\n      0x00\n        /* \"#utility.yul\":4833:4837   */\n      0xff\n        /* \"#utility.yul\":4826:4831   */\n      dup3\n        /* \"#utility.yul\":4822:4838   */\n      and\n        /* \"#utility.yul\":4811:4838   */\n      swap1\n      pop\n        /* \"#utility.yul\":4758:4844   */\n      swap2\n      swap1\n      pop\n      jump\t// out\n        /* \"#utility.yul\":4850:4962   */\n    tag_195:\n        /* \"#utility.yul\":4933:4955   */\n      tag_277\n        /* \"#utility.yul\":4949:4954   */\n      dup2\n        /* \"#utility.yul\":4933:4955   */\n      tag_194\n      jump\t// in\n    tag_277:\n        /* \"#utility.yul\":4928:4931   */\n      dup3\n        /* \"#utility.yul\":4921:4956   */\n      mstore\n        /* \"#utility.yul\":4850:4962   */\n      pop\n      pop\n      jump\t// out\n        /* \"#utility.yul\":4968:5182   */\n    tag_59:\n        /* \"#utility.yul\":5057:5061   */\n      0x00\n        /* \"#utility.yul\":5095:5097   */\n      0x20\n        /* \"#utility.yul\":5084:5093   */\n      dup3\n        /* \"#utility.yul\":5080:5098   */\n      add\n        /* \"#utility.yul\":5072:5098   */\n      swap1\n      pop\n        /* \"#utility.yul\":5108:5175   */\n      tag_279\n        /* \"#utility.yul\":5172:5173   */\n      0x00\n        /* \"#utility.yul\":5161:5170   */\n      dup4\n        /* \"#utility.yul\":5157:5174   */\n      add\n        /* \"#utility.yul\":5148:5154   */\n      dup5\n        /* \"#utility.yul\":5108:5175   */\n      tag_195\n      jump\t// in\n    tag_279:\n        /* \"#utility.yul\":4968:5182   */\n      swap3\n      swap2\n      pop\n      pop\n      jump\t// out\n        /* \"#utility.yul\":5188:5517   */\n    tag_62:\n        /* \"#utility.yul\":5247:5253   */\n      0x00\n        /* \"#utility.yul\":5296:5298   */\n      0x20\n        /* \"#utility.yul\":5284:5293   */\n      dup3\n        /* \"#utility.yul\":5275:5282   */\n      dup5\n        /* \"#utility.yul\":5271:5294   */\n      sub\n        /* \"#utility.yul\":5267:5299   */\n      slt\n        /* \"#utility.yul\":5264:5383   */\n      iszero\n      tag_281\n      jumpi\n        /* \"#utility.yul\":5302:5381   */\n      tag_282\n      tag_182\n      jump\t// in\n    tag_282:\n        /* \"#utility.yul\":5264:5383   */\n    tag_281:\n        /* \"#utility.yul\":5422:5423   */\n      0x00\n        /* \"#utility.yul\":5447:5500   */\n      tag_283\n        /* \"#utility.yul\":5492:5499   */\n      dup5\n        /* \"#utility.yul\":5483:5489   */\n      dup3\n        /* \"#utility.yul\":5472:5481   */\n      dup6\n        /* \"#utility.yul\":5468:5490   */\n      add\n        /* \"#utility.yul\":5447:5500   */\n      tag_190\n      jump\t// in\n    tag_283:\n        /* \"#utility.yul\":5437:5500   */\n      swap2\n      pop\n        /* \"#utility.yul\":5393:5510   */\n      pop\n        /* \"#utility.yul\":5188:5517   */\n      swap3\n      swap2\n      pop\n      pop\n      jump\t// out\n        /* \"#utility.yul\":5523:5640   */\n    tag_196:\n        /* \"#utility.yul\":5632:5633   */\n      0x00\n        /* \"#utility.yul\":5629:5630   */\n      dup1\n        /* \"#utility.yul\":5622:5634   */\n      revert\n        /* \"#utility.yul\":5646:5763   */\n    tag_197:\n        /* \"#utility.yul\":5755:5756   */\n      0x00\n        /* \"#utility.yul\":5752:5753   */\n      dup1\n        /* \"#utility.yul\":5745:5757   */\n      revert\n        /* \"#utility.yul\":5769:5886   */\n    tag_198:\n        /* \"#utility.yul\":5878:5879   */\n      0x00\n        /* \"#utility.yul\":5875:5876   */\n      dup1\n        /* \"#utility.yul\":5868:5880   */\n      revert\n        /* \"#utility.yul\":5906:6459   */\n    tag_199:\n        /* \"#utility.yul\":5964:5972   */\n      0x00\n        /* \"#utility.yul\":5974:5980   */\n      dup1\n        /* \"#utility.yul\":6024:6027   */\n      dup4\n        /* \"#utility.yul\":6017:6021   */\n      0x1f\n        /* \"#utility.yul\":6009:6015   */\n      dup5\n        /* \"#utility.yul\":6005:6022   */\n      add\n        /* \"#utility.yul\":6001:6028   */\n      slt\n        /* \"#utility.yul\":5991:6113   */\n      tag_288\n      jumpi\n        /* \"#utility.yul\":6032:6111   */\n      tag_289\n      tag_196\n      jump\t// in\n    tag_289:\n        /* \"#utility.yul\":5991:6113   */\n    tag_288:\n        /* \"#utility.yul\":6145:6151   */\n      dup3\n        /* \"#utility.yul\":6132:6152   */\n      calldataload\n        /* \"#utility.yul\":6122:6152   */\n      swap1\n      pop\n        /* \"#utility.yul\":6175:6193   */\n      0xffffffffffffffff\n        /* \"#utility.yul\":6167:6173   */\n      dup2\n        /* \"#utility.yul\":6164:6194   */\n      gt\n        /* \"#utility.yul\":6161:6278   */\n      iszero\n      tag_290\n      jumpi\n        /* \"#utility.yul\":6197:6276   */\n      tag_291\n      tag_197\n      jump\t// in\n    tag_291:\n        /* \"#utility.yul\":6161:6278   */\n    tag_290:\n        /* \"#utility.yul\":6311:6315   */\n      0x20\n        /* \"#utility.yul\":6303:6309   */\n      dup4\n        /* \"#utility.yul\":6299:6316   */\n      add\n        /* \"#utility.yul\":6287:6316   */\n      swap2\n      pop\n        /* \"#utility.yul\":6365:6368   */\n      dup4\n        /* \"#utility.yul\":6357:6361   */\n      0x01\n        /* \"#utility.yul\":6349:6355   */\n      dup3\n        /* \"#utility.yul\":6345:6362   */\n      mul\n        /* \"#utility.yul\":6335:6343   */\n      dup4\n        /* \"#utility.yul\":6331:6363   */\n      add\n        /* \"#utility.yul\":6328:6369   */\n      gt\n        /* \"#utility.yul\":6325:6453   */\n      iszero\n      tag_292\n      jumpi\n        /* \"#utility.yul\":6372:6451   */\n      tag_293\n      tag_198\n      jump\t// in\n    tag_293:\n        /* \"#utility.yul\":6325:6453   */\n    tag_292:\n        /* \"#utility.yul\":5906:6459   */\n      swap3\n      pop\n      swap3\n      swap1\n      pop\n      jump\t// out\n        /* \"#utility.yul\":6465:6994   */\n    tag_66:\n        /* \"#utility.yul\":6536:6542   */\n      0x00\n        /* \"#utility.yul\":6544:6550   */\n      dup1\n        /* \"#utility.yul\":6593:6595   */\n      0x20\n        /* \"#utility.yul\":6581:6590   */\n      dup4\n        /* \"#utility.yul\":6572:6579   */\n      dup6\n        /* \"#utility.yul\":6568:6591   */\n      sub\n        /* \"#utility.yul\":6564:6596   */\n      slt\n        /* \"#utility.yul\":6561:6680   */\n      iszero\n      tag_295\n      jumpi\n        /* \"#utility.yul\":6599:6678   */\n      tag_296\n      tag_182\n      jump\t// in\n    tag_296:\n        /* \"#utility.yul\":6561:6680   */\n    tag_295:\n        /* \"#utility.yul\":6747:6748   */\n      0x00\n        /* \"#utility.yul\":6736:6745   */\n      dup4\n        /* \"#utility.yul\":6732:6749   */\n      add\n        /* \"#utility.yul\":6719:6750   */\n      calldataload\n        /* \"#utility.yul\":6777:6795   */\n      0xffffffffffffffff\n        /* \"#utility.yul\":6769:6775   */\n      dup2\n        /* \"#utility.yul\":6766:6796   */\n      gt\n        /* \"#utility.yul\":6763:6880   */\n      iszero\n      tag_297\n      jumpi\n        /* \"#utility.yul\":6799:6878   */\n      tag_298\n      tag_183\n      jump\t// in\n    tag_298:\n        /* \"#utility.yul\":6763:6880   */\n    tag_297:\n        /* \"#utility.yul\":6912:6977   */\n      tag_299\n        /* \"#utility.yul\":6969:6976   */\n      dup6\n        /* \"#utility.yul\":6960:6966   */\n      dup3\n        /* \"#utility.yul\":6949:6958   */\n      dup7\n        /* \"#utility.yul\":6945:6967   */\n      add\n        /* \"#utility.yul\":6912:6977   */\n      tag_199\n      jump\t// in\n    tag_299:\n        /* \"#utility.yul\":6894:6977   */\n      swap3\n      pop\n      swap3\n      pop\n        /* \"#utility.yul\":6690:6987   */\n      pop\n        /* \"#utility.yul\":6465:6994   */\n      swap3\n      pop\n      swap3\n      swap1\n      pop\n      jump\t// out\n        /* \"#utility.yul\":7000:7474   */\n    tag_109:\n        /* \"#utility.yul\":7068:7074   */\n      0x00\n        /* \"#utility.yul\":7076:7082   */\n      dup1\n        /* \"#utility.yul\":7125:7127   */\n      0x40\n        /* \"#utility.yul\":7113:7122   */\n      dup4\n        /* \"#utility.yul\":7104:7111   */\n      dup6\n        /* \"#utility.yul\":7100:7123   */\n      sub\n        /* \"#utility.yul\":7096:7128   */\n      slt\n        /* \"#utility.yul\":7093:7212   */\n      iszero\n      tag_301\n      jumpi\n        /* \"#utility.yul\":7131:7210   */\n      tag_302\n      tag_182\n      jump\t// in\n    tag_302:\n        /* \"#utility.yul\":7093:7212   */\n    tag_301:\n        /* \"#utility.yul\":7251:7252   */\n      0x00\n        /* \"#utility.yul\":7276:7329   */\n      tag_303\n        /* \"#utility.yul\":7321:7328   */\n      dup6\n        /* \"#utility.yul\":7312:7318   */\n      dup3\n        /* \"#utility.yul\":7301:7310   */\n      dup7\n        /* \"#utility.yul\":7297:7319   */\n      add\n        /* \"#utility.yul\":7276:7329   */\n      tag_187\n      jump\t// in\n    tag_303:\n        /* \"#utility.yul\":7266:7329   */\n      swap3\n      pop\n        /* \"#utility.yul\":7222:7339   */\n      pop\n        /* \"#utility.yul\":7378:7380   */\n      0x20\n        /* \"#utility.yul\":7404:7457   */\n      tag_304\n        /* \"#utility.yul\":7449:7456   */\n      dup6\n        /* \"#utility.yul\":7440:7446   */\n      dup3\n        /* \"#utility.yul\":7429:7438   */\n      dup7\n        /* \"#utility.yul\":7425:7447   */\n      add\n        /* \"#utility.yul\":7404:7457   */\n      tag_187\n      jump\t// in\n    tag_304:\n        /* \"#utility.yul\":7394:7457   */\n      swap2\n      pop\n        /* \"#utility.yul\":7349:7467   */\n      pop\n        /* \"#utility.yul\":7000:7474   */\n      swap3\n      pop\n      swap3\n      swap1\n      pop\n      jump\t// out\n        /* \"#utility.yul\":7480:7660   */\n    tag_200:\n        /* \"#utility.yul\":7528:7605   */\n      0x4e487b7100000000000000000000000000000000000000000000000000000000\n        /* \"#utility.yul\":7525:7526   */\n      0x00\n        /* \"#utility.yul\":7518:7606   */\n      mstore\n        /* \"#utility.yul\":7625:7629   */\n      0x22\n        /* \"#utility.yul\":7622:7623   */\n      0x04\n        /* \"#utility.yul\":7615:7630   */\n      mstore\n        /* \"#utility.yul\":7649:7653   */\n      0x24\n        /* \"#utility.yul\":7646:7647   */\n      0x00\n        /* \"#utility.yul\":7639:7654   */\n      revert\n        /* \"#utility.yul\":7666:7986   */\n    tag_117:\n        /* \"#utility.yul\":7710:7716   */\n      0x00\n        /* \"#utility.yul\":7747:7748   */\n      0x02\n        /* \"#utility.yul\":7741:7745   */\n      dup3\n        /* \"#utility.yul\":7737:7749   */\n      div\n        /* \"#utility.yul\":7727:7749   */\n      swap1\n      pop\n        /* \"#utility.yul\":7794:7795   */\n      0x01\n        /* \"#utility.yul\":7788:7792   */\n      dup3\n        /* \"#utility.yul\":7784:7796   */\n      and\n        /* \"#utility.yul\":7815:7833   */\n      dup1\n        /* \"#utility.yul\":7805:7886   */\n      tag_307\n      jumpi\n        /* \"#utility.yul\":7871:7875   */\n      0x7f\n        /* \"#utility.yul\":7863:7869   */\n      dup3\n        /* \"#utility.yul\":7859:7876   */\n      and\n        /* \"#utility.yul\":7849:7876   */\n      swap2\n      pop\n        /* \"#utility.yul\":7805:7886   */\n    tag_307:\n        /* \"#utility.yul\":7933:7935   */\n      0x20\n        /* \"#utility.yul\":7925:7931   */\n      dup3\n        /* \"#utility.yul\":7922:7936   */\n      lt\n        /* \"#utility.yul\":7902:7920   */\n      dup2\n        /* \"#utility.yul\":7899:7937   */\n      sub\n        /* \"#utility.yul\":7896:7980   */\n      tag_308\n      jumpi\n        /* \"#utility.yul\":7952:7970   */\n      tag_309\n      tag_200\n      jump\t// in\n    tag_309:\n        /* \"#utility.yul\":7896:7980   */\n    tag_308:\n        /* \"#utility.yul\":7717:7986   */\n      pop\n        /* \"#utility.yul\":7666:7986   */\n      swap2\n      swap1\n      pop\n      jump\t// out\n        /* \"#utility.yul\":7992:8172   */\n    tag_201:\n        /* \"#utility.yul\":8040:8117   */\n      0x4e487b7100000000000000000000000000000000000000000000000000000000\n        /* \"#utility.yul\":8037:8038   */\n      0x00\n        /* \"#utility.yul\":8030:8118   */\n      mstore\n        /* \"#utility.yul\":8137:8141   */\n      0x11\n        /* \"#utility.yul\":8134:8135   */\n      0x04\n        /* \"#utility.yul\":8127:8142   */\n      mstore\n        /* \"#utility.yul\":8161:8165   */\n      0x24\n        /* \"#utility.yul\":8158:8159   */\n      0x00\n        /* \"#utility.yul\":8151:8166   */\n      revert\n        /* \"#utility.yul\":8178:8372   */\n    tag_132:\n        /* \"#utility.yul\":8218:8222   */\n      0x00\n        /* \"#utility.yul\":8238:8258   */\n      tag_312\n        /* \"#utility.yul\":8256:8257   */\n      dup3\n        /* \"#utility.yul\":8238:8258   */\n      tag_188\n      jump\t// in\n    tag_312:\n        /* \"#utility.yul\":8233:8258   */\n      swap2\n      pop\n        /* \"#utility.yul\":8272:8292   */\n      tag_313\n        /* \"#utility.yul\":8290:8291   */\n      dup4\n        /* \"#utility.yul\":8272:8292   */\n      tag_188\n      jump\t// in\n    tag_313:\n        /* \"#utility.yul\":8267:8292   */\n      swap3\n      pop\n        /* \"#utility.yul\":8316:8317   */\n      dup3\n        /* \"#utility.yul\":8313:8314   */\n      dup3\n        /* \"#utility.yul\":8309:8318   */\n      sub\n        /* \"#utility.yul\":8301:8318   */\n      swap1\n      pop\n        /* \"#utility.yul\":8340:8341   */\n      dup2\n        /* \"#utility.yul\":8334:8338   */\n      dup2\n        /* \"#utility.yul\":8331:8342   */\n      gt\n        /* \"#utility.yul\":8328:8365   */\n      iszero\n      tag_314\n      jumpi\n        /* \"#utility.yul\":8345:8363   */\n      tag_315\n      tag_201\n      jump\t// in\n    tag_315:\n        /* \"#utility.yul\":8328:8365   */\n    tag_314:\n        /* \"#utility.yul\":8178:8372   */\n      swap3\n      swap2\n      pop\n      pop\n      jump\t// out\n        /* \"#utility.yul\":8378:8569   */\n    tag_135:\n        /* \"#utility.yul\":8418:8421   */\n      0x00\n        /* \"#utility.yul\":8437:8457   */\n      tag_317\n        /* \"#utility.yul\":8455:8456   */\n      dup3\n        /* \"#utility.yul\":8437:8457   */\n      tag_188\n      jump\t// in\n    tag_317:\n        /* \"#utility.yul\":8432:8457   */\n      swap2\n      pop\n        /* \"#utility.yul\":8471:8491   */\n      tag_318\n        /* \"#utility.yul\":8489:8490   */\n      dup4\n        /* \"#utility.yul\":8471:8491   */\n      tag_188\n      jump\t// in\n    tag_318:\n        /* \"#utility.yul\":8466:8491   */\n      swap3\n      pop\n        /* \"#utility.yul\":8514:8515   */\n      dup3\n        /* \"#utility.yul\":8511:8512   */\n      dup3\n        /* \"#utility.yul\":8507:8516   */\n      add\n        /* \"#utility.yul\":8500:8516   */\n      swap1\n      pop\n        /* \"#utility.yul\":8535:8538   */\n      dup1\n        /* \"#utility.yul\":8532:8533   */\n      dup3\n        /* \"#utility.yul\":8529:8539   */\n      gt\n        /* \"#utility.yul\":8526:8562   */\n      iszero\n      tag_319\n      jumpi\n        /* \"#utility.yul\":8542:8560   */\n      tag_320\n      tag_201\n      jump\t// in\n    tag_320:\n        /* \"#utility.yul\":8526:8562   */\n    tag_319:\n        /* \"#utility.yul\":8378:8569   */\n      swap3\n      swap2\n      pop\n      pop\n      jump\t// out\n        /* \"#utility.yul\":8575:8672   */\n    tag_202:\n        /* \"#utility.yul\":8634:8640   */\n      0x00\n        /* \"#utility.yul\":8662:8665   */\n      dup3\n        /* \"#utility.yul\":8652:8665   */\n      swap1\n      pop\n        /* \"#utility.yul\":8575:8672   */\n      swap3\n      swap2\n      pop\n      pop\n      jump\t// out\n        /* \"#utility.yul\":8678:8858   */\n    tag_203:\n        /* \"#utility.yul\":8726:8803   */\n      0x4e487b7100000000000000000000000000000000000000000000000000000000\n        /* \"#utility.yul\":8723:8724   */\n      0x00\n        /* \"#utility.yul\":8716:8804   */\n      mstore\n        /* \"#utility.yul\":8823:8827   */\n      0x41\n        /* \"#utility.yul\":8820:8821   */\n      0x04\n        /* \"#utility.yul\":8813:8828   */\n      mstore\n        /* \"#utility.yul\":8847:8851   */\n      0x24\n        /* \"#utility.yul\":8844:8845   */\n      0x00\n        /* \"#utility.yul\":8837:8852   */\n      revert\n        /* \"#utility.yul\":8864:9005   */\n    tag_204:\n        /* \"#utility.yul\":8913:8917   */\n      0x00\n        /* \"#utility.yul\":8936:8939   */\n      dup2\n        /* \"#utility.yul\":8928:8939   */\n      swap1\n      pop\n        /* \"#utility.yul\":8959:8962   */\n      dup2\n        /* \"#utility.yul\":8956:8957   */\n      0x00\n        /* \"#utility.yul\":8949:8963   */\n      mstore\n        /* \"#utility.yul\":8993:8997   */\n      0x20\n        /* \"#utility.yul\":8990:8991   */\n      0x00\n        /* \"#utility.yul\":8980:8998   */\n      keccak256\n        /* \"#utility.yul\":8972:8998   */\n      swap1\n      pop\n        /* \"#utility.yul\":8864:9005   */\n      swap2\n      swap1\n      pop\n      jump\t// out\n        /* \"#utility.yul\":9011:9104   */\n    tag_205:\n        /* \"#utility.yul\":9048:9054   */\n      0x00\n        /* \"#utility.yul\":9095:9097   */\n      0x20\n        /* \"#utility.yul\":9090:9092   */\n      0x1f\n        /* \"#utility.yul\":9083:9088   */\n      dup4\n        /* \"#utility.yul\":9079:9093   */\n      add\n        /* \"#utility.yul\":9075:9098   */\n      div\n        /* \"#utility.yul\":9065:9098   */\n      swap1\n      pop\n        /* \"#utility.yul\":9011:9104   */\n      swap2\n      swap1\n      pop\n      jump\t// out\n        /* \"#utility.yul\":9110:9217   */\n    tag_206:\n        /* \"#utility.yul\":9154:9162   */\n      0x00\n        /* \"#utility.yul\":9204:9209   */\n      dup3\n        /* \"#utility.yul\":9198:9202   */\n      dup3\n        /* \"#utility.yul\":9194:9210   */\n      shl\n        /* \"#utility.yul\":9173:9210   */\n      swap1\n      pop\n        /* \"#utility.yul\":9110:9217   */\n      swap3\n      swap2\n      pop\n      pop\n      jump\t// out\n        /* \"#utility.yul\":9223:9616   */\n    tag_207:\n        /* \"#utility.yul\":9292:9298   */\n      0x00\n        /* \"#utility.yul\":9342:9343   */\n      0x08\n        /* \"#utility.yul\":9330:9340   */\n      dup4\n        /* \"#utility.yul\":9326:9344   */\n      mul\n        /* \"#utility.yul\":9365:9462   */\n      tag_327\n        /* \"#utility.yul\":9395:9461   */\n      0xffffffffffffffffffffffffffffffffffffffffffffffffffffffffffffffff\n        /* \"#utility.yul\":9384:9393   */\n      dup3\n        /* \"#utility.yul\":9365:9462   */\n      tag_206\n      jump\t// in\n    tag_327:\n        /* \"#utility.yul\":9483:9522   */\n      tag_328\n        /* \"#utility.yul\":9513:9521   */\n      dup7\n        /* \"#utility.yul\":9502:9511   */\n      dup4\n        /* \"#utility.yul\":9483:9522   */\n      tag_206\n      jump\t// in\n    tag_328:\n        /* \"#utility.yul\":9471:9522   */\n      swap6\n      pop\n        /* \"#utility.yul\":9555:9559   */\n      dup1\n        /* \"#utility.yul\":9551:9560   */\n      not\n        /* \"#utility.yul\":9544:9549   */\n      dup5\n        /* \"#utility.yul\":9540:9561   */\n      and\n        /* \"#utility.yul\":9531:9561   */\n      swap4\n      pop\n        /* \"#utility.yul\":9604:9608   */\n      dup1\n        /* \"#utility.yul\":9594:9602   */\n      dup7\n        /* \"#utility.yul\":9590:9609   */\n      and\n        /* \"#utility.yul\":9583:9588   */\n      dup5\n        /* \"#utility.yul\":9580:9610   */\n      or\n        /* \"#utility.yul\":9570:9610   */\n      swap3\n      pop\n        /* \"#utility.yul\":9299:9616   */\n      pop\n      pop\n        /* \"#utility.yul\":9223:9616   */\n      swap4\n      swap3\n      pop\n      pop\n      pop\n      jump\t// out\n        /* \"#utility.yul\":9622:9682   */\n    tag_208:\n        /* \"#utility.yul\":9650:9653   */\n      0x00\n        /* \"#utility.yul\":9671:9676   */\n      dup2\n        /* \"#utility.yul\":9664:9676   */\n      swap1\n      pop\n        /* \"#utility.yul\":9622:9682   */\n      swap2\n      swap1\n      pop\n      jump\t// out\n        /* \"#utility.yul\":9688:9830   */\n    tag_209:\n        /* \"#utility.yul\":9738:9747   */\n      0x00\n        /* \"#utility.yul\":9771:9824   */\n      tag_331\n        /* \"#utility.yul\":9789:9823   */\n      tag_332\n        /* \"#utility.yul\":9798:9822   */\n      tag_333\n        /* \"#utility.yul\":9816:9821   */\n      dup5\n        /* \"#utility.yul\":9798:9822   */\n      tag_188\n      jump\t// in\n    tag_333:\n        /* \"#utility.yul\":9789:9823   */\n      tag_208\n      jump\t// in\n    tag_332:\n        /* \"#utility.yul\":9771:9824   */\n      tag_188\n      jump\t// in\n    tag_331:\n        /* \"#utility.yul\":9758:9824   */\n      swap1\n      pop\n        /* \"#utility.yul\":9688:9830   */\n      swap2\n      swap1\n      pop\n      jump\t// out\n        /* \"#utility.yul\":9836:9911   */\n    tag_210:\n        /* \"#utility.yul\":9879:9882   */\n      0x00\n        /* \"#utility.yul\":9900:9905   */\n      dup2\n        /* \"#utility.yul\":9893:9905   */\n      swap1\n      pop\n        /* \"#utility.yul\":9836:9911   */\n      swap2\n      swap1\n      pop\n      jump\t// out\n        /* \"#utility.yul\":9917:10186   */\n    tag_211:\n        /* \"#utility.yul\":10027:10066   */\n      tag_336\n        /* \"#utility.yul\":10058:10065   */\n      dup4\n        /* \"#utility.yul\":10027:10066   */\n      tag_209\n      jump\t// in\n    tag_336:\n        /* \"#utility.yul\":10088:10179   */\n      tag_337\n        /* \"#utility.yul\":10137:10178   */\n      tag_338\n        /* \"#utility.yul\":10161:10177   */\n      dup3\n        /* \"#utility.yul\":10137:10178   */\n      tag_210\n      jump\t// in\n    tag_338:\n        /* \"#utility.yul\":10129:10135   */\n      dup5\n        /* \"#utility.yul\":10122:10126   */\n      dup5\n        /* \"#utility.yul\":10116:10127   */\n      sload\n        /* \"#utility.yul\":10088:10179   */\n      tag_207\n      jump\t// in\n    tag_337:\n        /* \"#utility.yul\":10082:10086   */\n      dup3\n        /* \"#utility.yul\":10075:10180   */\n      sstore\n        /* \"#utility.yul\":9993:10186   */\n      pop\n        /* \"#utility.yul\":9917:10186   */\n      pop\n      pop\n      pop\n      jump\t// out\n        /* \"#utility.yul\":10192:10265   */\n    tag_212:\n        /* \"#utility.yul\":10237:10240   */\n      0x00\n        /* \"#utility.yul\":10192:10265   */\n      swap1\n      jump\t// out\n        /* \"#utility.yul\":10271:10460   */\n    tag_213:\n        /* \"#utility.yul\":10348:10380   */\n      tag_341\n      tag_212\n      jump\t// in\n    tag_341:\n        /* \"#utility.yul\":10389:10454   */\n      tag_342\n        /* \"#utility.yul\":10447:10453   */\n      dup2\n        /* \"#utility.yul\":10439:10445   */\n      dup5\n        /* \"#utility.yul\":10433:10437   */\n      dup5\n        /* \"#utility.yul\":10389:10454   */\n      tag_211\n      jump\t// in\n    tag_342:\n        /* \"#utility.yul\":10324:10460   */\n      pop\n        /* \"#utility.yul\":10271:10460   */\n      pop\n      pop\n      jump\t// out\n        /* \"#utility.yul\":10466:10652   */\n    tag_214:\n        /* \"#utility.yul\":10526:10646   */\n    tag_344:\n        /* \"#utility.yul\":10543:10546   */\n      dup2\n        /* \"#utility.yul\":10536:10541   */\n      dup2\n        /* \"#utility.yul\":10533:10547   */\n      lt\n        /* \"#utility.yul\":10526:10646   */\n      iszero\n      tag_346\n      jumpi\n        /* \"#utility.yul\":10597:10636   */\n      tag_347\n        /* \"#utility.yul\":10634:10635   */\n      0x00\n        /* \"#utility.yul\":10627:10632   */\n      dup3\n        /* \"#utility.yul\":10597:10636   */\n      tag_213\n      jump\t// in\n    tag_347:\n        /* \"#utility.yul\":10570:10571   */\n      0x01\n        /* \"#utility.yul\":10563:10568   */\n      dup2\n        /* \"#utility.yul\":10559:10572   */\n      add\n        /* \"#utility.yul\":10550:10572   */\n      swap1\n      pop\n        /* \"#utility.yul\":10526:10646   */\n      jump(tag_344)\n    tag_346:\n        /* \"#utility.yul\":10466:10652   */\n      pop\n      pop\n      jump\t// out\n        /* \"#utility.yul\":10658:11201   */\n    tag_215:\n        /* \"#utility.yul\":10759:10761   */\n      0x1f\n        /* \"#utility.yul\":10754:10757   */\n      dup3\n        /* \"#utility.yul\":10751:10762   */\n      gt\n        /* \"#utility.yul\":10748:11194   */\n      iszero\n      tag_349\n      jumpi\n        /* \"#utility.yul\":10793:10831   */\n      tag_350\n        /* \"#utility.yul\":10825:10830   */\n      dup2\n        /* \"#utility.yul\":10793:10831   */\n      tag_204\n      jump\t// in\n    tag_350:\n        /* \"#utility.yul\":10877:10906   */\n      tag_351\n        /* \"#utility.yul\":10895:10905   */\n      dup5\n        /* \"#utility.yul\":10877:10906   */\n      tag_205\n      jump\t// in\n    tag_351:\n        /* \"#utility.yul\":10867:10875   */\n      dup2\n        /* \"#utility.yul\":10863:10907   */\n      add\n        /* \"#utility.yul\":11060:11062   */\n      0x20\n        /* \"#utility.yul\":11048:11058   */\n      dup6\n        /* \"#utility.yul\":11045:11063   */\n      lt\n        /* \"#utility.yul\":11042:11091   */\n      iszero\n      tag_352\n      jumpi\n        /* \"#utility.yul\":11081:11089   */\n      dup2\n        /* \"#utility.yul\":11066:11089   */\n      swap1\n      pop\n        /* \"#utility.yul\":11042:11091   */\n    tag_352:\n        /* \"#utility.yul\":11104:11184   */\n      tag_353\n        /* \"#utility.yul\":11160:11182   */\n      tag_354\n        /* \"#utility.yul\":11178:11181   */\n      dup6\n        /* \"#utility.yul\":11160:11182   */\n      tag_205\n      jump\t// in\n    tag_354:\n        /* \"#utility.yul\":11150:11158   */\n      dup4\n        /* \"#utility.yul\":11146:11183   */\n      add\n        /* \"#utility.yul\":11133:11144   */\n      dup3\n        /* \"#utility.yul\":11104:11184   */\n      tag_214\n      jump\t// in\n    tag_353:\n        /* \"#utility.yul\":10763:11194   */\n      pop\n      pop\n        /* \"#utility.yul\":10748:11194   */\n    tag_349:\n        /* \"#utility.yul\":10658:11201   */\n      pop\n      pop\n      pop\n      jump\t// out\n        /* \"#utility.yul\":11207:11324   */\n    tag_216:\n        /* \"#utility.yul\":11261:11269   */\n      0x00\n        /* \"#utility.yul\":11311:11316   */\n      dup3\n        /* \"#utility.yul\":11305:11309   */\n      dup3\n        /* \"#utility.yul\":11301:11317   */\n      shr\n        /* \"#utility.yul\":11280:11317   */\n      swap1\n      pop\n        /* \"#utility.yul\":11207:11324   */\n      swap3\n      swap2\n      pop\n      pop\n      jump\t// out\n        /* \"#utility.yul\":11330:11499   */\n    tag_217:\n        /* \"#utility.yul\":11374:11380   */\n      0x00\n        /* \"#utility.yul\":11407:11458   */\n      tag_357\n        /* \"#utility.yul\":11455:11456   */\n      0x00\n        /* \"#utility.yul\":11451:11457   */\n      not\n        /* \"#utility.yul\":11443:11448   */\n      dup5\n        /* \"#utility.yul\":11440:11441   */\n      0x08\n        /* \"#utility.yul\":11436:11449   */\n      mul\n        /* \"#utility.yul\":11407:11458   */\n      tag_216\n      jump\t// in\n    tag_357:\n        /* \"#utility.yul\":11403:11459   */\n      not\n        /* \"#utility.yul\":11488:11492   */\n      dup1\n        /* \"#utility.yul\":11482:11486   */\n      dup4\n        /* \"#utility.yul\":11478:11493   */\n      and\n        /* \"#utility.yul\":11468:11493   */\n      swap2\n      pop\n        /* \"#utility.yul\":11381:11499   */\n      pop\n        /* \"#utility.yul\":11330:11499   */\n      swap3\n      swap2\n      pop\n      pop\n      jump\t// out\n        /* \"#utility.yul\":11504:11799   */\n    tag_218:\n        /* \"#utility.yul\":11580:11584   */\n      0x00\n        /* \"#utility.yul\":11726:11755   */\n      tag_359\n        /* \"#utility.yul\":11751:11754   */\n      dup4\n        /* \"#utility.yul\":11745:11749   */\n      dup4\n        /* \"#utility.yul\":11726:11755   */\n      tag_217\n      jump\t// in\n    tag_359:\n        /* \"#utility.yul\":11718:11755   */\n      swap2\n      pop\n        /* \"#utility.yul\":11788:11791   */\n      dup3\n        /* \"#utility.yul\":11785:11786   */\n      0x02\n        /* \"#utility.yul\":11781:11792   */\n      mul\n        /* \"#utility.yul\":11775:11779   */\n      dup3\n        /* \"#utility.yul\":11772:11793   */\n      or\n        /* \"#utility.yul\":11764:11793   */\n      swap1\n      pop\n        /* \"#utility.yul\":11504:11799   */\n      swap3\n      swap2\n      pop\n      pop\n      jump\t// out\n        /* \"#utility.yul\":11804:13207   */\n    tag_143:\n        /* \"#utility.yul\":11928:11972   */\n      tag_361\n        /* \"#utility.yul\":11968:11971   */\n      dup4\n        /* \"#utility.yul\":11963:11966   */\n      dup4\n        /* \"#utility.yul\":11928:11972   */\n      tag_202\n      jump\t// in\n    tag_361:\n        /* \"#utility.yul\":12037:12055   */\n      0xffffffffffffffff\n        /* \"#utility.yul\":12029:12035   */\n      dup2\n        /* \"#utility.yul\":12026:12056   */\n      gt\n        /* \"#utility.yul\":12023:12079   */\n      iszero\n      tag_362\n      jumpi\n        /* \"#utility.yul\":12059:12077   */\n      tag_363\n      tag_203\n      jump\t// in\n    tag_363:\n        /* \"#utility.yul\":12023:12079   */\n    tag_362:\n        /* \"#utility.yul\":12103:12141   */\n      tag_364\n        /* \"#utility.yul\":12135:12139   */\n      dup3\n        /* \"#utility.yul\":12129:12140   */\n      sload\n        /* \"#utility.yul\":12103:12141   */\n      tag_117\n      jump\t// in\n    tag_364:\n        /* \"#utility.yul\":12188:12255   */\n      tag_365\n        /* \"#utility.yul\":12248:12254   */\n      dup3\n        /* \"#utility.yul\":12240:12246   */\n      dup3\n        /* \"#utility.yul\":12234:12238   */\n      dup6\n        /* \"#utility.yul\":12188:12255   */\n      tag_215\n      jump\t// in\n    tag_365:\n        /* \"#utility.yul\":12282:12283   */\n      0x00\n        /* \"#utility.yul\":12311:12313   */\n      0x1f\n        /* \"#utility.yul\":12303:12309   */\n      dup4\n        /* \"#utility.yul\":12300:12314   */\n      gt\n        /* \"#utility.yul\":12328:12329   */\n      0x01\n        /* \"#utility.yul\":12323:12955   */\n      dup2\n      eq\n      tag_367\n      jumpi\n        /* \"#utility.yul\":12999:13000   */\n      0x00\n        /* \"#utility.yul\":13016:13022   */\n      dup5\n        /* \"#utility.yul\":13013:13097   */\n      iszero\n      tag_368\n      jumpi\n        /* \"#utility.yul\":13072:13081   */\n      dup3\n        /* \"#utility.yul\":13067:13070   */\n      dup8\n        /* \"#utility.yul\":13063:13082   */\n      add\n        /* \"#utility.yul\":13050:13083   */\n      calldataload\n        /* \"#utility.yul\":13041:13083   */\n      swap1\n      pop\n        /* \"#utility.yul\":13013:13097   */\n    tag_368:\n        /* \"#utility.yul\":13123:13190   */\n      tag_369\n        /* \"#utility.yul\":13183:13189   */\n      dup6\n        /* \"#utility.yul\":13176:13181   */\n      dup3\n        /* \"#utility.yul\":13123:13190   */\n      tag_218\n      jump\t// in\n    tag_369:\n        /* \"#utility.yul\":13117:13121   */\n      dup7\n        /* \"#utility.yul\":13110:13191   */\n      sstore\n        /* \"#utility.yul\":12972:13201   */\n      pop\n        /* \"#utility.yul\":12293:13201   */\n      jump(tag_366)\n        /* \"#utility.yul\":12323:12955   */\n    tag_367:\n        /* \"#utility.yul\":12375:12379   */\n      0x1f\n        /* \"#utility.yul\":12371:12380   */\n      not\n        /* \"#utility.yul\":12363:12369   */\n      dup5\n        /* \"#utility.yul\":12359:12381   */\n      and\n        /* \"#utility.yul\":12409:12446   */\n      tag_370\n        /* \"#utility.yul\":12441:12445   */\n      dup7\n        /* \"#utility.yul\":12409:12446   */\n      tag_204\n      jump\t// in\n    tag_370:\n        /* \"#utility.yul\":12468:12469   */\n      0x00\n        /* \"#utility.yul\":12482:12697   */\n    tag_371:\n        /* \"#utility.yul\":12496:12503   */\n      dup3\n        /* \"#utility.yul\":12493:12494   */\n      dup2\n        /* \"#utility.yul\":12490:12504   */\n      lt\n        /* \"#utility.yul\":12482:12697   */\n      iszero\n      tag_373\n      jumpi\n        /* \"#utility.yul\":12582:12591   */\n      dup5\n        /* \"#utility.yul\":12577:12580   */\n      dup10\n        /* \"#utility.yul\":12573:12592   */\n      add\n        /* \"#utility.yul\":12560:12593   */\n      calldataload\n        /* \"#utility.yul\":12552:12558   */\n      dup3\n        /* \"#utility.yul\":12545:12594   */\n      sstore\n        /* \"#utility.yul\":12633:12634   */\n      0x01\n        /* \"#utility.yul\":12625:12631   */\n      dup3\n        /* \"#utility.yul\":12621:12635   */\n      add\n        /* \"#utility.yul\":12611:12635   */\n      swap2\n      pop\n        /* \"#utility.yul\":12680:12682   */\n      0x20\n        /* \"#utility.yul\":12669:12678   */\n      dup6\n        /* \"#utility.yul\":12665:12683   */\n      add\n        /* \"#utility.yul\":12652:12683   */\n      swap5\n      pop\n        /* \"#utility.yul\":12519:12523   */\n      0x20\n        /* \"#utility.yul\":12516:12517   */\n      dup2\n        /* \"#utility.yul\":12512:12524   */\n      add\n        /* \"#utility.yul\":12507:12524   */\n      swap1\n      pop\n        /* \"#utility.yul\":12482:12697   */\n      jump(tag_371)\n    tag_373:\n        /* \"#utility.yul\":12725:12731   */\n      dup7\n        /* \"#utility.yul\":12716:12723   */\n      dup4\n        /* \"#utility.yul\":12713:12732   */\n      lt\n        /* \"#utility.yul\":12710:12896   */\n      iszero\n      tag_374\n      jumpi\n        /* \"#utility.yul\":12790:12799   */\n      dup5\n        /* \"#utility.yul\":12785:12788   */\n      dup10\n        /* \"#utility.yul\":12781:12800   */\n      add\n        /* \"#utility.yul\":12768:12801   */\n      calldataload\n        /* \"#utility.yul\":12833:12881   */\n      tag_375\n        /* \"#utility.yul\":12875:12879   */\n      0x1f\n        /* \"#utility.yul\":12867:12873   */\n      dup10\n        /* \"#utility.yul\":12863:12880   */\n      and\n        /* \"#utility.yul\":12852:12861   */\n      dup3\n        /* \"#utility.yul\":12833:12881   */\n      tag_217\n      jump\t// in\n    tag_375:\n        /* \"#utility.yul\":12825:12831   */\n      dup4\n        /* \"#utility.yul\":12818:12882   */\n      sstore\n        /* \"#utility.yul\":12733:12896   */\n      pop\n        /* \"#utility.yul\":12710:12896   */\n    tag_374:\n        /* \"#utility.yul\":12942:12943   */\n      0x01\n        /* \"#utility.yul\":12938:12939   */\n      0x02\n        /* \"#utility.yul\":12930:12936   */\n      dup9\n        /* \"#utility.yul\":12926:12940   */\n      mul\n        /* \"#utility.yul\":12922:12944   */\n      add\n        /* \"#utility.yul\":12916:12920   */\n      dup9\n        /* \"#utility.yul\":12909:12945   */\n      sstore\n        /* \"#utility.yul\":12330:12955   */\n      pop\n      pop\n      pop\n        /* \"#utility.yul\":12293:13201   */\n    tag_366:\n      pop\n        /* \"#utility.yul\":11903:13207   */\n      pop\n      pop\n      pop\n        /* \"#utility.yul\":11804:13207   */\n      pop\n      pop\n      pop\n      jump\t// out\n\n    auxdata: 0xa2646970667358221220e12dd3496552d57755c581f46a862f74b6aa4dcaa42c5ce144cf706db6f9381e64736f6c63430008110033\n}\n","bytecode":{"linkReferences":{},"object":"60806040526040518060400160405280600881526020017f574d4257616c6b73000000000000000000000000000000000000000000000000815250600390816200004a91906200033c565b506040518060400160405280600381526020017f574d420000000000000000000000000000000000000000000000000000000000815250600490816200009191906200033c565b506002600560006101000a81548160ff021916908360ff160217905550348015620000bb57600080fd5b5062000423565b600081519050919050565b7f4e487b7100000000000000000000000000000000000000000000000000000000600052604160045260246000fd5b7f4e487b7100000000000000000000000000000000000000000000000000000000600052602260045260246000fd5b600060028204905060018216806200014457607f821691505b6020821081036200015a5762000159620000fc565b5b50919050565b60008190508160005260206000209050919050565b60006020601f8301049050919050565b600082821b905092915050565b600060088302620001c47fffffffffffffffffffffffffffffffffffffffffffffffffffffffffffffffff8262000185565b620001d0868362000185565b95508019841693508086168417925050509392505050565b6000819050919050565b6000819050919050565b60006200021d620002176200021184620001e8565b620001f2565b620001e8565b9050919050565b6000819050919050565b6200023983620001fc565b62000251620002488262000224565b84845462000192565b825550505050565b600090565b6200026862000259565b620002758184846200022e565b505050565b5b818110156200029d57620002916000826200025e565b6001810190506200027b565b5050565b601f821115620002ec57620002b68162000160565b620002c18462000175565b81016020851015620002d1578190505b620002e9620002e08562000175565b8301826200027a565b50505b505050565b600082821c905092915050565b60006200031160001984600802620002f1565b1980831691505092915050565b60006200032c8383620002fe565b9150826002028217905092915050565b6200034782620000c2565b67ffffffffffffffff811115620003635762000362620000cd565b5b6200036f82546200012b565b6200037c828285620002a1565b600060209050601f831160018114620003b457600084156200039f578287015190505b620003ab85826200031e565b8655506200041b565b601f198416620003c48662000160565b60005b82811015620003ee57848901518255600182019150602085019450602081019050620003c7565b868310156200040e57848901516200040a601f891682620002fe565b8355505b6001600288020188555050505b505050505050565b611cb980620004336000396000f3fe608060405234801561001057600080fd5b50600436106101425760003560e01c8063698aad67116100b8578063a9059cbb1161007c578063a9059cbb1461039d578063c47f0027146103cd578063cf315815146103e9578063d9caa2d714610419578063dd62ed3e14610449578063ec98ce3f1461047957610142565b8063698aad67146102f957806370a08231146103295780637c69710f1461035957806395d89b4114610363578063a0712d681461038157610142565b806323b872dd1161010a57806323b872dd14610213578063313ce5671461024357806342966c68146102615780634e8632711461027d57806350702ec9146102995780635415ee4e146102c957610142565b806306fdde0314610147578063095ea7b3146101655780630b7555561461019557806318160ddd146101c557806319f5b1d2146101e3575b600080fd5b61014f6104a9565b60405161015c91906115a0565b60405180910390f35b61017f600480360381019061017a9190611660565b610537565b60405161018c91906116bb565b60405180910390f35b6101af60048036038101906101aa91906116d6565b610629565b6040516101bc91906115a0565b60405180910390f35b6101cd6106c9565b6040516101da9190611712565b60405180910390f35b6101fd60048036038101906101f891906116d6565b6106cf565b60405161020a91906116bb565b60405180910390f35b61022d6004803603810190610228919061172d565b6106ef565b60405161023a91906116bb565b60405180910390f35b61024b6108ae565b604051610258919061179c565b60405180910390f35b61027b600480360381019061027691906117b7565b6108c1565b005b61029760048036038101906102929190611849565b610998565b005b6102b360048036038101906102ae91906116d6565b6109eb565b6040516102c09190611712565b60405180910390f35b6102e360048036038101906102de91906116d6565b610a03565b6040516102f091906116bb565b60405180910390f35b610313600480360381019061030e91906116d6565b610a23565b60405161032091906116bb565b60405180910390f35b610343600480360381019061033e91906116d6565b610a43565b6040516103509190611712565b60405180910390f35b610361610a5b565b005b61036b610aed565b60405161037891906115a0565b60405180910390f35b61039b600480360381019061039691906117b7565b610b7b565b005b6103b760048036038101906103b29190611660565b61130d565b6040516103c491906116bb565b60405180910390f35b6103e760048036038101906103e29190611849565b611438565b005b61040360048036038101906103fe91906116d6565b61148b565b60405161041091906116bb565b60405180910390f35b610433600480360381019061042e91906116d6565b6114ab565b60405161044091906116bb565b60405180910390f35b610463600480360381019061045e9190611896565b6114cb565b6040516104709190611712565b60405180910390f35b610493600480360381019061048e91906116d6565b6114f0565b6040516104a091906116bb565b60405180910390f35b600380546104b690611905565b80601f01602080910402602001604051908101604052809291908181526020018280546104e290611905565b801561052f5780601f106105045761010080835404028352916020019161052f565b820191906000526020600020905b81548152906001019060200180831161051257829003601f168201915b505050505081565b600081600260003373ffffffffffffffffffffffffffffffffffffffff1673ffffffffffffffffffffffffffffffffffffffff16815260200190815260200160002060008573ffffffffffffffffffffffffffffffffffffffff1673ffffffffffffffffffffffffffffffffffffffff168152602001908152602001600020819055508273ffffffffffffffffffffffffffffffffffffffff163373ffffffffffffffffffffffffffffffffffffffff167f8c5be1e5ebec7d5bd14f71427d1e84f3dd0314c0f7b2291e5b200ac8c7c3b925846040516106179190611712565b60405180910390a36001905092915050565b6007602052806000526040600020600091509050805461064890611905565b80601f016020809104026020016040519081016040528092919081815260200182805461067490611905565b80156106c15780601f10610696576101008083540402835291602001916106c1565b820191906000526020600020905b8154815290600101906020018083116106a457829003601f168201915b505050505081565b60005481565b600d6020528060005260406000206000915054906101000a900460ff1681565b600060648211156106ff57600080fd5b81600260008673ffffffffffffffffffffffffffffffffffffffff1673ffffffffffffffffffffffffffffffffffffffff16815260200190815260200160002060003373ffffffffffffffffffffffffffffffffffffffff1673ffffffffffffffffffffffffffffffffffffffff168152602001908152602001600020600082825461078b9190611965565b9250508190555081600160008673ffffffffffffffffffffffffffffffffffffffff1673ffffffffffffffffffffffffffffffffffffffff16815260200190815260200160002060008282546107e19190611965565b9250508190555081600160008573ffffffffffffffffffffffffffffffffffffffff1673ffffffffffffffffffffffffffffffffffffffff16815260200190815260200160002060008282546108379190611999565b925050819055508273ffffffffffffffffffffffffffffffffffffffff168473ffffffffffffffffffffffffffffffffffffffff167fddf252ad1be2c89b69c2b068fc378daa952ba7f163c4a11628f55a4df523b3ef8460405161089b9190611712565b60405180910390a3600190509392505050565b600560009054906101000a900460ff1681565b80600160003373ffffffffffffffffffffffffffffffffffffffff1673ffffffffffffffffffffffffffffffffffffffff16815260200190815260200160002060008282546109109190611965565b92505081905550806000808282546109289190611965565b92505081905550600073ffffffffffffffffffffffffffffffffffffffff163373ffffffffffffffffffffffffffffffffffffffff167fddf252ad1be2c89b69c2b068fc378daa952ba7f163c4a11628f55a4df523b3ef8360405161098d9190611712565b60405180910390a350565b8181600760003373ffffffffffffffffffffffffffffffffffffffff1673ffffffffffffffffffffffffffffffffffffffff16815260200190815260200160002091826109e6929190611bb3565b505050565b60066020528060005260406000206000915090505481565b60096020528060005260406000206000915054906101000a900460ff1681565b60086020528060005260406000206000915054906101000a900460ff1681565b60016020528060005260406000206000915090505481565b6000600660003373ffffffffffffffffffffffffffffffffffffffff1673ffffffffffffffffffffffffffffffffffffffff1681526020019081526020016000205414610aa757600080fd5b42600660003373ffffffffffffffffffffffffffffffffffffffff1673ffffffffffffffffffffffffffffffffffffffff16815260200190815260200160002081905550565b60048054610afa90611905565b80601f0160208091040260200160405190810160405280929190818152602001828054610b2690611905565b8015610b735780601f10610b4857610100808354040283529160200191610b73565b820191906000526020600020905b815481529060010190602001808311610b5657829003601f168201915b505050505081565b6000600160003373ffffffffffffffffffffffffffffffffffffffff1673ffffffffffffffffffffffffffffffffffffffff16815260200190815260200160002054148015610c0957506000600660003373ffffffffffffffffffffffffffffffffffffffff1673ffffffffffffffffffffffffffffffffffffffff16815260200190815260200160002054145b15610c575742600660003373ffffffffffffffffffffffffffffffffffffffff1673ffffffffffffffffffffffffffffffffffffffff1681526020019081526020016000208190555061130a565b80600160003373ffffffffffffffffffffffffffffffffffffffff1673ffffffffffffffffffffffffffffffffffffffff1681526020019081526020016000206000828254610ca69190611999565b9250508190555080600080828254610cbe9190611999565b925050819055503373ffffffffffffffffffffffffffffffffffffffff16600073ffffffffffffffffffffffffffffffffffffffff167fddf252ad1be2c89b69c2b068fc378daa952ba7f163c4a11628f55a4df523b3ef83604051610d239190611712565b60405180910390a36101f4600160003373ffffffffffffffffffffffffffffffffffffffff1673ffffffffffffffffffffffffffffffffffffffff16815260200190815260200160002054106113095760001515600860003373ffffffffffffffffffffffffffffffffffffffff1673ffffffffffffffffffffffffffffffffffffffff16815260200190815260200160002060009054906101000a900460ff16151503610e24576001600860003373ffffffffffffffffffffffffffffffffffffffff1673ffffffffffffffffffffffffffffffffffffffff16815260200190815260200160002060006101000a81548160ff0219169083151502179055505b6103e8600160003373ffffffffffffffffffffffffffffffffffffffff1673ffffffffffffffffffffffffffffffffffffffff16815260200190815260200160002054106113085760001515600960003373ffffffffffffffffffffffffffffffffffffffff1673ffffffffffffffffffffffffffffffffffffffff16815260200190815260200160002060009054906101000a900460ff16151503610f1d576001600960003373ffffffffffffffffffffffffffffffffffffffff1673ffffffffffffffffffffffffffffffffffffffff16815260200190815260200160002060006101000a81548160ff0219169083151502179055505b612710600160003373ffffffffffffffffffffffffffffffffffffffff1673ffffffffffffffffffffffffffffffffffffffff16815260200190815260200160002054106113075760001515600a60003373ffffffffffffffffffffffffffffffffffffffff1673ffffffffffffffffffffffffffffffffffffffff16815260200190815260200160002060009054906101000a900460ff16151503611016576001600a60003373ffffffffffffffffffffffffffffffffffffffff1673ffffffffffffffffffffffffffffffffffffffff16815260200190815260200160002060006101000a81548160ff0219169083151502179055505b61c350600160003373ffffffffffffffffffffffffffffffffffffffff1673ffffffffffffffffffffffffffffffffffffffff16815260200190815260200160002054106113065760001515600b60003373ffffffffffffffffffffffffffffffffffffffff1673ffffffffffffffffffffffffffffffffffffffff16815260200190815260200160002060009054906101000a900460ff1615150361110f576001600b60003373ffffffffffffffffffffffffffffffffffffffff1673ffffffffffffffffffffffffffffffffffffffff16815260200190815260200160002060006101000a81548160ff0219169083151502179055505b620186a0600160003373ffffffffffffffffffffffffffffffffffffffff1673ffffffffffffffffffffffffffffffffffffffff16815260200190815260200160002054106113055760001515600c60003373ffffffffffffffffffffffffffffffffffffffff1673ffffffffffffffffffffffffffffffffffffffff16815260200190815260200160002060009054906101000a900460ff16151503611209576001600c60003373ffffffffffffffffffffffffffffffffffffffff1673ffffffffffffffffffffffffffffffffffffffff16815260200190815260200160002060006101000a81548160ff0219169083151502179055505b620f4240600160003373ffffffffffffffffffffffffffffffffffffffff1673ffffffffffffffffffffffffffffffffffffffff16815260200190815260200160002054106113045760001515600d60003373ffffffffffffffffffffffffffffffffffffffff1673ffffffffffffffffffffffffffffffffffffffff16815260200190815260200160002060009054906101000a900460ff16151503611303576001600d60003373ffffffffffffffffffffffffffffffffffffffff1673ffffffffffffffffffffffffffffffffffffffff16815260200190815260200160002060006101000a81548160ff0219169083151502179055505b5b5b5b5b5b5b5b50565b6000606482111561131d57600080fd5b81600160003373ffffffffffffffffffffffffffffffffffffffff1673ffffffffffffffffffffffffffffffffffffffff168152602001908152602001600020600082825461136c9190611965565b9250508190555081600160008573ffffffffffffffffffffffffffffffffffffffff1673ffffffffffffffffffffffffffffffffffffffff16815260200190815260200160002060008282546113c29190611999565b925050819055508273ffffffffffffffffffffffffffffffffffffffff163373ffffffffffffffffffffffffffffffffffffffff167fddf252ad1be2c89b69c2b068fc378daa952ba7f163c4a11628f55a4df523b3ef846040516114269190611712565b60405180910390a36001905092915050565b8181600760003373ffffffffffffffffffffffffffffffffffffffff1673ffffffffffffffffffffffffffffffffffffffff1681526020019081526020016000209182611486929190611bb3565b505050565b600a6020528060005260406000206000915054906101000a900460ff1681565b600b6020528060005260406000206000915054906101000a900460ff1681565b6002602052816000526040600020602052806000526040600020600091509150505481565b600c6020528060005260406000206000915054906101000a900460ff1681565b600081519050919050565b600082825260208201905092915050565b60005b8381101561154a57808201518184015260208101905061152f565b60008484015250505050565b6000601f19601f8301169050919050565b600061157282611510565b61157c818561151b565b935061158c81856020860161152c565b61159581611556565b840191505092915050565b600060208201905081810360008301526115ba8184611567565b905092915050565b600080fd5b600080fd5b600073ffffffffffffffffffffffffffffffffffffffff82169050919050565b60006115f7826115cc565b9050919050565b611607816115ec565b811461161257600080fd5b50565b600081359050611624816115fe565b92915050565b6000819050919050565b61163d8161162a565b811461164857600080fd5b50565b60008135905061165a81611634565b92915050565b60008060408385031215611677576116766115c2565b5b600061168585828601611615565b92505060206116968582860161164b565b9150509250929050565b60008115159050919050565b6116b5816116a0565b82525050565b60006020820190506116d060008301846116ac565b92915050565b6000602082840312156116ec576116eb6115c2565b5b60006116fa84828501611615565b91505092915050565b61170c8161162a565b82525050565b60006020820190506117276000830184611703565b92915050565b600080600060608486031215611746576117456115c2565b5b600061175486828701611615565b935050602061176586828701611615565b92505060406117768682870161164b565b9150509250925092565b600060ff82169050919050565b61179681611780565b82525050565b60006020820190506117b1600083018461178d565b92915050565b6000602082840312156117cd576117cc6115c2565b5b60006117db8482850161164b565b91505092915050565b600080fd5b600080fd5b600080fd5b60008083601f840112611809576118086117e4565b5b8235905067ffffffffffffffff811115611826576118256117e9565b5b602083019150836001820283011115611842576118416117ee565b5b9250929050565b600080602083850312156118605761185f6115c2565b5b600083013567ffffffffffffffff81111561187e5761187d6115c7565b5b61188a858286016117f3565b92509250509250929050565b600080604083850312156118ad576118ac6115c2565b5b60006118bb85828601611615565b92505060206118cc85828601611615565b9150509250929050565b7f4e487b7100000000000000000000000000000000000000000000000000000000600052602260045260246000fd5b6000600282049050600182168061191d57607f821691505b6020821081036119305761192f6118d6565b5b50919050565b7f4e487b7100000000000000000000000000000000000000000000000000000000600052601160045260246000fd5b60006119708261162a565b915061197b8361162a565b925082820390508181111561199357611992611936565b5b92915050565b60006119a48261162a565b91506119af8361162a565b92508282019050808211156119c7576119c6611936565b5b92915050565b600082905092915050565b7f4e487b7100000000000000000000000000000000000000000000000000000000600052604160045260246000fd5b60008190508160005260206000209050919050565b60006020601f8301049050919050565b600082821b905092915050565b600060088302611a697fffffffffffffffffffffffffffffffffffffffffffffffffffffffffffffffff82611a2c565b611a738683611a2c565b95508019841693508086168417925050509392505050565b6000819050919050565b6000611ab0611aab611aa68461162a565b611a8b565b61162a565b9050919050565b6000819050919050565b611aca83611a95565b611ade611ad682611ab7565b848454611a39565b825550505050565b600090565b611af3611ae6565b611afe818484611ac1565b505050565b5b81811015611b2257611b17600082611aeb565b600181019050611b04565b5050565b601f821115611b6757611b3881611a07565b611b4184611a1c565b81016020851015611b50578190505b611b64611b5c85611a1c565b830182611b03565b50505b505050565b600082821c905092915050565b6000611b8a60001984600802611b6c565b1980831691505092915050565b6000611ba38383611b79565b9150826002028217905092915050565b611bbd83836119cd565b67ffffffffffffffff811115611bd657611bd56119d8565b5b611be08254611905565b611beb828285611b26565b6000601f831160018114611c1a5760008415611c08578287013590505b611c128582611b97565b865550611c7a565b601f198416611c2886611a07565b60005b82811015611c5057848901358255600182019150602085019450602081019050611c2b565b86831015611c6d5784890135611c69601f891682611b79565b8355505b6001600288020188555050505b5050505050505056fea2646970667358221220e12dd3496552d57755c581f46a862f74b6aa4dcaa42c5ce144cf706db6f9381e64736f6c63430008110033","opcodes":"PUSH1 0x80 PUSH1 0x40 MSTORE PUSH1 0x40 MLOAD DUP1 PUSH1 0x40 ADD PUSH1 0x40 MSTORE DUP1 PUSH1 0x8 DUP2 MSTORE PUSH1 0x20 ADD PUSH32 0x574D4257616C6B73000000000000000000000000000000000000000000000000 DUP2 MSTORE POP PUSH1 0x3 SWAP1 DUP2 PUSH3 0x4A SWAP2 SWAP1 PUSH3 0x33C JUMP JUMPDEST POP PUSH1 0x40 MLOAD DUP1 PUSH1 0x40 ADD PUSH1 0x40 MSTORE DUP1 PUSH1 0x3 DUP2 MSTORE PUSH1 0x20 ADD PUSH32 0x574D420000000000000000000000000000000000000000000000000000000000 DUP2 MSTORE POP PUSH1 0x4 SWAP1 DUP2 PUSH3 0x91 SWAP2 SWAP1 PUSH3 0x33C JUMP JUMPDEST POP PUSH1 0x2 PUSH1 0x5 PUSH1 0x0 PUSH2 0x100 EXP DUP2 SLOAD DUP2 PUSH1 0xFF MUL NOT AND SWAP1 DUP4 PUSH1 0xFF AND MUL OR SWAP1 SSTORE POP CALLVALUE DUP1 ISZERO PUSH3 0xBB JUMPI PUSH1 0x0 DUP1 REVERT JUMPDEST POP PUSH3 0x423 JUMP JUMPDEST PUSH1 0x0 DUP2 MLOAD SWAP1 POP SWAP2 SWAP1 POP JUMP JUMPDEST PUSH32 0x4E487B7100000000000000000000000000000000000000000000000000000000 PUSH1 0x0 MSTORE PUSH1 0x41 PUSH1 0x4 MSTORE PUSH1 0x24 PUSH1 0x0 REVERT JUMPDEST PUSH32 0x4E487B7100000000000000000000000000000000000000000000000000000000 PUSH1 0x0 MSTORE PUSH1 0x22 PUSH1 0x4 MSTORE PUSH1 0x24 PUSH1 0x0 REVERT JUMPDEST PUSH1 0x0 PUSH1 0x2 DUP3 DIV SWAP1 POP PUSH1 0x1 DUP3 AND DUP1 PUSH3 0x144 JUMPI PUSH1 0x7F DUP3 AND SWAP2 POP JUMPDEST PUSH1 0x20 DUP3 LT DUP2 SUB PUSH3 0x15A JUMPI PUSH3 0x159 PUSH3 0xFC JUMP JUMPDEST JUMPDEST POP SWAP2 SWAP1 POP JUMP JUMPDEST PUSH1 0x0 DUP2 SWAP1 POP DUP2 PUSH1 0x0 MSTORE PUSH1 0x20 PUSH1 0x0 KECCAK256 SWAP1 POP SWAP2 SWAP1 POP JUMP JUMPDEST PUSH1 0x0 PUSH1 0x20 PUSH1 0x1F DUP4 ADD DIV SWAP1 POP SWAP2 SWAP1 POP JUMP JUMPDEST PUSH1 0x0 DUP3 DUP3 SHL SWAP1 POP SWAP3 SWAP2 POP POP JUMP JUMPDEST PUSH1 0x0 PUSH1 0x8 DUP4 MUL PUSH3 0x1C4 PUSH32 0xFFFFFFFFFFFFFFFFFFFFFFFFFFFFFFFFFFFFFFFFFFFFFFFFFFFFFFFFFFFFFFFF DUP3 PUSH3 0x185 JUMP JUMPDEST PUSH3 0x1D0 DUP7 DUP4 PUSH3 0x185 JUMP JUMPDEST SWAP6 POP DUP1 NOT DUP5 AND SWAP4 POP DUP1 DUP7 AND DUP5 OR SWAP3 POP POP POP SWAP4 SWAP3 POP POP POP JUMP JUMPDEST PUSH1 0x0 DUP2 SWAP1 POP SWAP2 SWAP1 POP JUMP JUMPDEST PUSH1 0x0 DUP2 SWAP1 POP SWAP2 SWAP1 POP JUMP JUMPDEST PUSH1 0x0 PUSH3 0x21D PUSH3 0x217 PUSH3 0x211 DUP5 PUSH3 0x1E8 JUMP JUMPDEST PUSH3 0x1F2 JUMP JUMPDEST PUSH3 0x1E8 JUMP JUMPDEST SWAP1 POP SWAP2 SWAP1 POP JUMP JUMPDEST PUSH1 0x0 DUP2 SWAP1 POP SWAP2 SWAP1 POP JUMP JUMPDEST PUSH3 0x239 DUP4 PUSH3 0x1FC JUMP JUMPDEST PUSH3 0x251 PUSH3 0x248 DUP3 PUSH3 0x224 JUMP JUMPDEST DUP5 DUP5 SLOAD PUSH3 0x192 JUMP JUMPDEST DUP3 SSTORE POP POP POP POP JUMP JUMPDEST PUSH1 0x0 SWAP1 JUMP JUMPDEST PUSH3 0x268 PUSH3 0x259 JUMP JUMPDEST PUSH3 0x275 DUP2 DUP5 DUP5 PUSH3 0x22E JUMP JUMPDEST POP POP POP JUMP JUMPDEST JUMPDEST DUP2 DUP2 LT ISZERO PUSH3 0x29D JUMPI PUSH3 0x291 PUSH1 0x0 DUP3 PUSH3 0x25E JUMP JUMPDEST PUSH1 0x1 DUP2 ADD SWAP1 POP PUSH3 0x27B JUMP JUMPDEST POP POP JUMP JUMPDEST PUSH1 0x1F DUP3 GT ISZERO PUSH3 0x2EC JUMPI PUSH3 0x2B6 DUP2 PUSH3 0x160 JUMP JUMPDEST PUSH3 0x2C1 DUP5 PUSH3 0x175 JUMP JUMPDEST DUP2 ADD PUSH1 0x20 DUP6 LT ISZERO PUSH3 0x2D1 JUMPI DUP2 SWAP1 POP JUMPDEST PUSH3 0x2E9 PUSH3 0x2E0 DUP6 PUSH3 0x175 JUMP JUMPDEST DUP4 ADD DUP3 PUSH3 0x27A JUMP JUMPDEST POP POP JUMPDEST POP POP POP JUMP JUMPDEST PUSH1 0x0 DUP3 DUP3 SHR SWAP1 POP SWAP3 SWAP2 POP POP JUMP JUMPDEST PUSH1 0x0 PUSH3 0x311 PUSH1 0x0 NOT DUP5 PUSH1 0x8 MUL PUSH3 0x2F1 JUMP JUMPDEST NOT DUP1 DUP4 AND SWAP2 POP POP SWAP3 SWAP2 POP POP JUMP JUMPDEST PUSH1 0x0 PUSH3 0x32C DUP4 DUP4 PUSH3 0x2FE JUMP JUMPDEST SWAP2 POP DUP3 PUSH1 0x2 MUL DUP3 OR SWAP1 POP SWAP3 SWAP2 POP POP JUMP JUMPDEST PUSH3 0x347 DUP3 PUSH3 0xC2 JUMP JUMPDEST PUSH8 0xFFFFFFFFFFFFFFFF DUP2 GT ISZERO PUSH3 0x363 JUMPI PUSH3 0x362 PUSH3 0xCD JUMP JUMPDEST JUMPDEST PUSH3 0x36F DUP3 SLOAD PUSH3 0x12B JUMP JUMPDEST PUSH3 0x37C DUP3 DUP3 DUP6 PUSH3 0x2A1 JUMP JUMPDEST PUSH1 0x0 PUSH1 0x20 SWAP1 POP PUSH1 0x1F DUP4 GT PUSH1 0x1 DUP2 EQ PUSH3 0x3B4 JUMPI PUSH1 0x0 DUP5 ISZERO PUSH3 0x39F JUMPI DUP3 DUP8 ADD MLOAD SWAP1 POP JUMPDEST PUSH3 0x3AB DUP6 DUP3 PUSH3 0x31E JUMP JUMPDEST DUP7 SSTORE POP PUSH3 0x41B JUMP JUMPDEST PUSH1 0x1F NOT DUP5 AND PUSH3 0x3C4 DUP7 PUSH3 0x160 JUMP JUMPDEST PUSH1 0x0 JUMPDEST DUP3 DUP2 LT ISZERO PUSH3 0x3EE JUMPI DUP5 DUP10 ADD MLOAD DUP3 SSTORE PUSH1 0x1 DUP3 ADD SWAP2 POP PUSH1 0x20 DUP6 ADD SWAP5 POP PUSH1 0x20 DUP2 ADD SWAP1 POP PUSH3 0x3C7 JUMP JUMPDEST DUP7 DUP4 LT ISZERO PUSH3 0x40E JUMPI DUP5 DUP10 ADD MLOAD PUSH3 0x40A PUSH1 0x1F DUP10 AND DUP3 PUSH3 0x2FE JUMP JUMPDEST DUP4 SSTORE POP JUMPDEST PUSH1 0x1 PUSH1 0x2 DUP9 MUL ADD DUP9 SSTORE POP POP POP JUMPDEST POP POP POP POP POP POP JUMP JUMPDEST PUSH2 0x1CB9 DUP1 PUSH3 0x433 PUSH1 0x0 CODECOPY PUSH1 0x0 RETURN INVALID PUSH1 0x80 PUSH1 0x40 MSTORE CALLVALUE DUP1 ISZERO PUSH2 0x10 JUMPI PUSH1 0x0 DUP1 REVERT JUMPDEST POP PUSH1 0x4 CALLDATASIZE LT PUSH2 0x142 JUMPI PUSH1 0x0 CALLDATALOAD PUSH1 0xE0 SHR DUP1 PUSH4 0x698AAD67 GT PUSH2 0xB8 JUMPI DUP1 PUSH4 0xA9059CBB GT PUSH2 0x7C JUMPI DUP1 PUSH4 0xA9059CBB EQ PUSH2 0x39D JUMPI DUP1 PUSH4 0xC47F0027 EQ PUSH2 0x3CD JUMPI DUP1 PUSH4 0xCF315815 EQ PUSH2 0x3E9 JUMPI DUP1 PUSH4 0xD9CAA2D7 EQ PUSH2 0x419 JUMPI DUP1 PUSH4 0xDD62ED3E EQ PUSH2 0x449 JUMPI DUP1 PUSH4 0xEC98CE3F EQ PUSH2 0x479 JUMPI PUSH2 0x142 JUMP JUMPDEST DUP1 PUSH4 0x698AAD67 EQ PUSH2 0x2F9 JUMPI DUP1 PUSH4 0x70A08231 EQ PUSH2 0x329 JUMPI DUP1 PUSH4 0x7C69710F EQ PUSH2 0x359 JUMPI DUP1 PUSH4 0x95D89B41 EQ PUSH2 0x363 JUMPI DUP1 PUSH4 0xA0712D68 EQ PUSH2 0x381 JUMPI PUSH2 0x142 JUMP JUMPDEST DUP1 PUSH4 0x23B872DD GT PUSH2 0x10A JUMPI DUP1 PUSH4 0x23B872DD EQ PUSH2 0x213 JUMPI DUP1 PUSH4 0x313CE567 EQ PUSH2 0x243 JUMPI DUP1 PUSH4 0x42966C68 EQ PUSH2 0x261 JUMPI DUP1 PUSH4 0x4E863271 EQ PUSH2 0x27D JUMPI DUP1 PUSH4 0x50702EC9 EQ PUSH2 0x299 JUMPI DUP1 PUSH4 0x5415EE4E EQ PUSH2 0x2C9 JUMPI PUSH2 0x142 JUMP JUMPDEST DUP1 PUSH4 0x6FDDE03 EQ PUSH2 0x147 JUMPI DUP1 PUSH4 0x95EA7B3 EQ PUSH2 0x165 JUMPI DUP1 PUSH4 0xB755556 EQ PUSH2 0x195 JUMPI DUP1 PUSH4 0x18160DDD EQ PUSH2 0x1C5 JUMPI DUP1 PUSH4 0x19F5B1D2 EQ PUSH2 0x1E3 JUMPI JUMPDEST PUSH1 0x0 DUP1 REVERT JUMPDEST PUSH2 0x14F PUSH2 0x4A9 JUMP JUMPDEST PUSH1 0x40 MLOAD PUSH2 0x15C SWAP2 SWAP1 PUSH2 0x15A0 JUMP JUMPDEST PUSH1 0x40 MLOAD DUP1 SWAP2 SUB SWAP1 RETURN JUMPDEST PUSH2 0x17F PUSH1 0x4 DUP1 CALLDATASIZE SUB DUP2 ADD SWAP1 PUSH2 0x17A SWAP2 SWAP1 PUSH2 0x1660 JUMP JUMPDEST PUSH2 0x537 JUMP JUMPDEST PUSH1 0x40 MLOAD PUSH2 0x18C SWAP2 SWAP1 PUSH2 0x16BB JUMP JUMPDEST PUSH1 0x40 MLOAD DUP1 SWAP2 SUB SWAP1 RETURN JUMPDEST PUSH2 0x1AF PUSH1 0x4 DUP1 CALLDATASIZE SUB DUP2 ADD SWAP1 PUSH2 0x1AA SWAP2 SWAP1 PUSH2 0x16D6 JUMP JUMPDEST PUSH2 0x629 JUMP JUMPDEST PUSH1 0x40 MLOAD PUSH2 0x1BC SWAP2 SWAP1 PUSH2 0x15A0 JUMP JUMPDEST PUSH1 0x40 MLOAD DUP1 SWAP2 SUB SWAP1 RETURN JUMPDEST PUSH2 0x1CD PUSH2 0x6C9 JUMP JUMPDEST PUSH1 0x40 MLOAD PUSH2 0x1DA SWAP2 SWAP1 PUSH2 0x1712 JUMP JUMPDEST PUSH1 0x40 MLOAD DUP1 SWAP2 SUB SWAP1 RETURN JUMPDEST PUSH2 0x1FD PUSH1 0x4 DUP1 CALLDATASIZE SUB DUP2 ADD SWAP1 PUSH2 0x1F8 SWAP2 SWAP1 PUSH2 0x16D6 JUMP JUMPDEST PUSH2 0x6CF JUMP JUMPDEST PUSH1 0x40 MLOAD PUSH2 0x20A SWAP2 SWAP1 PUSH2 0x16BB JUMP JUMPDEST PUSH1 0x40 MLOAD DUP1 SWAP2 SUB SWAP1 RETURN JUMPDEST PUSH2 0x22D PUSH1 0x4 DUP1 CALLDATASIZE SUB DUP2 ADD SWAP1 PUSH2 0x228 SWAP2 SWAP1 PUSH2 0x172D JUMP JUMPDEST PUSH2 0x6EF JUMP JUMPDEST PUSH1 0x40 MLOAD PUSH2 0x23A SWAP2 SWAP1 PUSH2 0x16BB JUMP JUMPDEST PUSH1 0x40 MLOAD DUP1 SWAP2 SUB SWAP1 RETURN JUMPDEST PUSH2 0x24B PUSH2 0x8AE JUMP JUMPDEST PUSH1 0x40 MLOAD PUSH2 0x258 SWAP2 SWAP1 PUSH2 0x179C JUMP JUMPDEST PUSH1 0x40 MLOAD DUP1 SWAP2 SUB SWAP1 RETURN JUMPDEST PUSH2 0x27B PUSH1 0x4 DUP1 CALLDATASIZE SUB DUP2 ADD SWAP1 PUSH2 0x276 SWAP2 SWAP1 PUSH2 0x17B7 JUMP JUMPDEST PUSH2 0x8C1 JUMP JUMPDEST STOP JUMPDEST PUSH2 0x297 PUSH1 0x4 DUP1 CALLDATASIZE SUB DUP2 ADD SWAP1 PUSH2 0x292 SWAP2 SWAP1 PUSH2 0x1849 JUMP JUMPDEST PUSH2 0x998 JUMP JUMPDEST STOP JUMPDEST PUSH2 0x2B3 PUSH1 0x4 DUP1 CALLDATASIZE SUB DUP2 ADD SWAP1 PUSH2 0x2AE SWAP2 SWAP1 PUSH2 0x16D6 JUMP JUMPDEST PUSH2 0x9EB JUMP JUMPDEST PUSH1 0x40 MLOAD PUSH2 0x2C0 SWAP2 SWAP1 PUSH2 0x1712 JUMP JUMPDEST PUSH1 0x40 MLOAD DUP1 SWAP2 SUB SWAP1 RETURN JUMPDEST PUSH2 0x2E3 PUSH1 0x4 DUP1 CALLDATASIZE SUB DUP2 ADD SWAP1 PUSH2 0x2DE SWAP2 SWAP1 PUSH2 0x16D6 JUMP JUMPDEST PUSH2 0xA03 JUMP JUMPDEST PUSH1 0x40 MLOAD PUSH2 0x2F0 SWAP2 SWAP1 PUSH2 0x16BB JUMP JUMPDEST PUSH1 0x40 MLOAD DUP1 SWAP2 SUB SWAP1 RETURN JUMPDEST PUSH2 0x313 PUSH1 0x4 DUP1 CALLDATASIZE SUB DUP2 ADD SWAP1 PUSH2 0x30E SWAP2 SWAP1 PUSH2 0x16D6 JUMP JUMPDEST PUSH2 0xA23 JUMP JUMPDEST PUSH1 0x40 MLOAD PUSH2 0x320 SWAP2 SWAP1 PUSH2 0x16BB JUMP JUMPDEST PUSH1 0x40 MLOAD DUP1 SWAP2 SUB SWAP1 RETURN JUMPDEST PUSH2 0x343 PUSH1 0x4 DUP1 CALLDATASIZE SUB DUP2 ADD SWAP1 PUSH2 0x33E SWAP2 SWAP1 PUSH2 0x16D6 JUMP JUMPDEST PUSH2 0xA43 JUMP JUMPDEST PUSH1 0x40 MLOAD PUSH2 0x350 SWAP2 SWAP1 PUSH2 0x1712 JUMP JUMPDEST PUSH1 0x40 MLOAD DUP1 SWAP2 SUB SWAP1 RETURN JUMPDEST PUSH2 0x361 PUSH2 0xA5B JUMP JUMPDEST STOP JUMPDEST PUSH2 0x36B PUSH2 0xAED JUMP JUMPDEST PUSH1 0x40 MLOAD PUSH2 0x378 SWAP2 SWAP1 PUSH2 0x15A0 JUMP JUMPDEST PUSH1 0x40 MLOAD DUP1 SWAP2 SUB SWAP1 RETURN JUMPDEST PUSH2 0x39B PUSH1 0x4 DUP1 CALLDATASIZE SUB DUP2 ADD SWAP1 PUSH2 0x396 SWAP2 SWAP1 PUSH2 0x17B7 JUMP JUMPDEST PUSH2 0xB7B JUMP JUMPDEST STOP JUMPDEST PUSH2 0x3B7 PUSH1 0x4 DUP1 CALLDATASIZE SUB DUP2 ADD SWAP1 PUSH2 0x3B2 SWAP2 SWAP1 PUSH2 0x1660 JUMP JUMPDEST PUSH2 0x130D JUMP JUMPDEST PUSH1 0x40 MLOAD PUSH2 0x3C4 SWAP2 SWAP1 PUSH2 0x16BB JUMP JUMPDEST PUSH1 0x40 MLOAD DUP1 SWAP2 SUB SWAP1 RETURN JUMPDEST PUSH2 0x3E7 PUSH1 0x4 DUP1 CALLDATASIZE SUB DUP2 ADD SWAP1 PUSH2 0x3E2 SWAP2 SWAP1 PUSH2 0x1849 JUMP JUMPDEST PUSH2 0x1438 JUMP JUMPDEST STOP JUMPDEST PUSH2 0x403 PUSH1 0x4 DUP1 CALLDATASIZE SUB DUP2 ADD SWAP1 PUSH2 0x3FE SWAP2 SWAP1 PUSH2 0x16D6 JUMP JUMPDEST PUSH2 0x148B JUMP JUMPDEST PUSH1 0x40 MLOAD PUSH2 0x410 SWAP2 SWAP1 PUSH2 0x16BB JUMP JUMPDEST PUSH1 0x40 MLOAD DUP1 SWAP2 SUB SWAP1 RETURN JUMPDEST PUSH2 0x433 PUSH1 0x4 DUP1 CALLDATASIZE SUB DUP2 ADD SWAP1 PUSH2 0x42E SWAP2 SWAP1 PUSH2 0x16D6 JUMP JUMPDEST PUSH2 0x14AB JUMP JUMPDEST PUSH1 0x40 MLOAD PUSH2 0x440 SWAP2 SWAP1 PUSH2 0x16BB JUMP JUMPDEST PUSH1 0x40 MLOAD DUP1 SWAP2 SUB SWAP1 RETURN JUMPDEST PUSH2 0x463 PUSH1 0x4 DUP1 CALLDATASIZE SUB DUP2 ADD SWAP1 PUSH2 0x45E SWAP2 SWAP1 PUSH2 0x1896 JUMP JUMPDEST PUSH2 0x14CB JUMP JUMPDEST PUSH1 0x40 MLOAD PUSH2 0x470 SWAP2 SWAP1 PUSH2 0x1712 JUMP JUMPDEST PUSH1 0x40 MLOAD DUP1 SWAP2 SUB SWAP1 RETURN JUMPDEST PUSH2 0x493 PUSH1 0x4 DUP1 CALLDATASIZE SUB DUP2 ADD SWAP1 PUSH2 0x48E SWAP2 SWAP1 PUSH2 0x16D6 JUMP JUMPDEST PUSH2 0x14F0 JUMP JUMPDEST PUSH1 0x40 MLOAD PUSH2 0x4A0 SWAP2 SWAP1 PUSH2 0x16BB JUMP JUMPDEST PUSH1 0x40 MLOAD DUP1 SWAP2 SUB SWAP1 RETURN JUMPDEST PUSH1 0x3 DUP1 SLOAD PUSH2 0x4B6 SWAP1 PUSH2 0x1905 JUMP JUMPDEST DUP1 PUSH1 0x1F ADD PUSH1 0x20 DUP1 SWAP2 DIV MUL PUSH1 0x20 ADD PUSH1 0x40 MLOAD SWAP1 DUP2 ADD PUSH1 0x40 MSTORE DUP1 SWAP3 SWAP2 SWAP1 DUP2 DUP2 MSTORE PUSH1 0x20 ADD DUP3 DUP1 SLOAD PUSH2 0x4E2 SWAP1 PUSH2 0x1905 JUMP JUMPDEST DUP1 ISZERO PUSH2 0x52F JUMPI DUP1 PUSH1 0x1F LT PUSH2 0x504 JUMPI PUSH2 0x100 DUP1 DUP4 SLOAD DIV MUL DUP4 MSTORE SWAP2 PUSH1 0x20 ADD SWAP2 PUSH2 0x52F JUMP JUMPDEST DUP3 ADD SWAP2 SWAP1 PUSH1 0x0 MSTORE PUSH1 0x20 PUSH1 0x0 KECCAK256 SWAP1 JUMPDEST DUP2 SLOAD DUP2 MSTORE SWAP1 PUSH1 0x1 ADD SWAP1 PUSH1 0x20 ADD DUP1 DUP4 GT PUSH2 0x512 JUMPI DUP3 SWAP1 SUB PUSH1 0x1F AND DUP3 ADD SWAP2 JUMPDEST POP POP POP POP POP DUP2 JUMP JUMPDEST PUSH1 0x0 DUP2 PUSH1 0x2 PUSH1 0x0 CALLER PUSH20 0xFFFFFFFFFFFFFFFFFFFFFFFFFFFFFFFFFFFFFFFF AND PUSH20 0xFFFFFFFFFFFFFFFFFFFFFFFFFFFFFFFFFFFFFFFF AND DUP2 MSTORE PUSH1 0x20 ADD SWAP1 DUP2 MSTORE PUSH1 0x20 ADD PUSH1 0x0 KECCAK256 PUSH1 0x0 DUP6 PUSH20 0xFFFFFFFFFFFFFFFFFFFFFFFFFFFFFFFFFFFFFFFF AND PUSH20 0xFFFFFFFFFFFFFFFFFFFFFFFFFFFFFFFFFFFFFFFF AND DUP2 MSTORE PUSH1 0x20 ADD SWAP1 DUP2 MSTORE PUSH1 0x20 ADD PUSH1 0x0 KECCAK256 DUP2 SWAP1 SSTORE POP DUP3 PUSH20 0xFFFFFFFFFFFFFFFFFFFFFFFFFFFFFFFFFFFFFFFF AND CALLER PUSH20 0xFFFFFFFFFFFFFFFFFFFFFFFFFFFFFFFFFFFFFFFF AND PUSH32 0x8C5BE1E5EBEC7D5BD14F71427D1E84F3DD0314C0F7B2291E5B200AC8C7C3B925 DUP5 PUSH1 0x40 MLOAD PUSH2 0x617 SWAP2 SWAP1 PUSH2 0x1712 JUMP JUMPDEST PUSH1 0x40 MLOAD DUP1 SWAP2 SUB SWAP1 LOG3 PUSH1 0x1 SWAP1 POP SWAP3 SWAP2 POP POP JUMP JUMPDEST PUSH1 0x7 PUSH1 0x20 MSTORE DUP1 PUSH1 0x0 MSTORE PUSH1 0x40 PUSH1 0x0 KECCAK256 PUSH1 0x0 SWAP2 POP SWAP1 POP DUP1 SLOAD PUSH2 0x648 SWAP1 PUSH2 0x1905 JUMP JUMPDEST DUP1 PUSH1 0x1F ADD PUSH1 0x20 DUP1 SWAP2 DIV MUL PUSH1 0x20 ADD PUSH1 0x40 MLOAD SWAP1 DUP2 ADD PUSH1 0x40 MSTORE DUP1 SWAP3 SWAP2 SWAP1 DUP2 DUP2 MSTORE PUSH1 0x20 ADD DUP3 DUP1 SLOAD PUSH2 0x674 SWAP1 PUSH2 0x1905 JUMP JUMPDEST DUP1 ISZERO PUSH2 0x6C1 JUMPI DUP1 PUSH1 0x1F LT PUSH2 0x696 JUMPI PUSH2 0x100 DUP1 DUP4 SLOAD DIV MUL DUP4 MSTORE SWAP2 PUSH1 0x20 ADD SWAP2 PUSH2 0x6C1 JUMP JUMPDEST DUP3 ADD SWAP2 SWAP1 PUSH1 0x0 MSTORE PUSH1 0x20 PUSH1 0x0 KECCAK256 SWAP1 JUMPDEST DUP2 SLOAD DUP2 MSTORE SWAP1 PUSH1 0x1 ADD SWAP1 PUSH1 0x20 ADD DUP1 DUP4 GT PUSH2 0x6A4 JUMPI DUP3 SWAP1 SUB PUSH1 0x1F AND DUP3 ADD SWAP2 JUMPDEST POP POP POP POP POP DUP2 JUMP JUMPDEST PUSH1 0x0 SLOAD DUP2 JUMP JUMPDEST PUSH1 0xD PUSH1 0x20 MSTORE DUP1 PUSH1 0x0 MSTORE PUSH1 0x40 PUSH1 0x0 KECCAK256 PUSH1 0x0 SWAP2 POP SLOAD SWAP1 PUSH2 0x100 EXP SWAP1 DIV PUSH1 0xFF AND DUP2 JUMP JUMPDEST PUSH1 0x0 PUSH1 0x64 DUP3 GT ISZERO PUSH2 0x6FF JUMPI PUSH1 0x0 DUP1 REVERT JUMPDEST DUP2 PUSH1 0x2 PUSH1 0x0 DUP7 PUSH20 0xFFFFFFFFFFFFFFFFFFFFFFFFFFFFFFFFFFFFFFFF AND PUSH20 0xFFFFFFFFFFFFFFFFFFFFFFFFFFFFFFFFFFFFFFFF AND DUP2 MSTORE PUSH1 0x20 ADD SWAP1 DUP2 MSTORE PUSH1 0x20 ADD PUSH1 0x0 KECCAK256 PUSH1 0x0 CALLER PUSH20 0xFFFFFFFFFFFFFFFFFFFFFFFFFFFFFFFFFFFFFFFF AND PUSH20 0xFFFFFFFFFFFFFFFFFFFFFFFFFFFFFFFFFFFFFFFF AND DUP2 MSTORE PUSH1 0x20 ADD SWAP1 DUP2 MSTORE PUSH1 0x20 ADD PUSH1 0x0 KECCAK256 PUSH1 0x0 DUP3 DUP3 SLOAD PUSH2 0x78B SWAP2 SWAP1 PUSH2 0x1965 JUMP JUMPDEST SWAP3 POP POP DUP2 SWAP1 SSTORE POP DUP2 PUSH1 0x1 PUSH1 0x0 DUP7 PUSH20 0xFFFFFFFFFFFFFFFFFFFFFFFFFFFFFFFFFFFFFFFF AND PUSH20 0xFFFFFFFFFFFFFFFFFFFFFFFFFFFFFFFFFFFFFFFF AND DUP2 MSTORE PUSH1 0x20 ADD SWAP1 DUP2 MSTORE PUSH1 0x20 ADD PUSH1 0x0 KECCAK256 PUSH1 0x0 DUP3 DUP3 SLOAD PUSH2 0x7E1 SWAP2 SWAP1 PUSH2 0x1965 JUMP JUMPDEST SWAP3 POP POP DUP2 SWAP1 SSTORE POP DUP2 PUSH1 0x1 PUSH1 0x0 DUP6 PUSH20 0xFFFFFFFFFFFFFFFFFFFFFFFFFFFFFFFFFFFFFFFF AND PUSH20 0xFFFFFFFFFFFFFFFFFFFFFFFFFFFFFFFFFFFFFFFF AND DUP2 MSTORE PUSH1 0x20 ADD SWAP1 DUP2 MSTORE PUSH1 0x20 ADD PUSH1 0x0 KECCAK256 PUSH1 0x0 DUP3 DUP3 SLOAD PUSH2 0x837 SWAP2 SWAP1 PUSH2 0x1999 JUMP JUMPDEST SWAP3 POP POP DUP2 SWAP1 SSTORE POP DUP3 PUSH20 0xFFFFFFFFFFFFFFFFFFFFFFFFFFFFFFFFFFFFFFFF AND DUP5 PUSH20 0xFFFFFFFFFFFFFFFFFFFFFFFFFFFFFFFFFFFFFFFF AND PUSH32 0xDDF252AD1BE2C89B69C2B068FC378DAA952BA7F163C4A11628F55A4DF523B3EF DUP5 PUSH1 0x40 MLOAD PUSH2 0x89B SWAP2 SWAP1 PUSH2 0x1712 JUMP JUMPDEST PUSH1 0x40 MLOAD DUP1 SWAP2 SUB SWAP1 LOG3 PUSH1 0x1 SWAP1 POP SWAP4 SWAP3 POP POP POP JUMP JUMPDEST PUSH1 0x5 PUSH1 0x0 SWAP1 SLOAD SWAP1 PUSH2 0x100 EXP SWAP1 DIV PUSH1 0xFF AND DUP2 JUMP JUMPDEST DUP1 PUSH1 0x1 PUSH1 0x0 CALLER PUSH20 0xFFFFFFFFFFFFFFFFFFFFFFFFFFFFFFFFFFFFFFFF AND PUSH20 0xFFFFFFFFFFFFFFFFFFFFFFFFFFFFFFFFFFFFFFFF AND DUP2 MSTORE PUSH1 0x20 ADD SWAP1 DUP2 MSTORE PUSH1 0x20 ADD PUSH1 0x0 KECCAK256 PUSH1 0x0 DUP3 DUP3 SLOAD PUSH2 0x910 SWAP2 SWAP1 PUSH2 0x1965 JUMP JUMPDEST SWAP3 POP POP DUP2 SWAP1 SSTORE POP DUP1 PUSH1 0x0 DUP1 DUP3 DUP3 SLOAD PUSH2 0x928 SWAP2 SWAP1 PUSH2 0x1965 JUMP JUMPDEST SWAP3 POP POP DUP2 SWAP1 SSTORE POP PUSH1 0x0 PUSH20 0xFFFFFFFFFFFFFFFFFFFFFFFFFFFFFFFFFFFFFFFF AND CALLER PUSH20 0xFFFFFFFFFFFFFFFFFFFFFFFFFFFFFFFFFFFFFFFF AND PUSH32 0xDDF252AD1BE2C89B69C2B068FC378DAA952BA7F163C4A11628F55A4DF523B3EF DUP4 PUSH1 0x40 MLOAD PUSH2 0x98D SWAP2 SWAP1 PUSH2 0x1712 JUMP JUMPDEST PUSH1 0x40 MLOAD DUP1 SWAP2 SUB SWAP1 LOG3 POP JUMP JUMPDEST DUP2 DUP2 PUSH1 0x7 PUSH1 0x0 CALLER PUSH20 0xFFFFFFFFFFFFFFFFFFFFFFFFFFFFFFFFFFFFFFFF AND PUSH20 0xFFFFFFFFFFFFFFFFFFFFFFFFFFFFFFFFFFFFFFFF AND DUP2 MSTORE PUSH1 0x20 ADD SWAP1 DUP2 MSTORE PUSH1 0x20 ADD PUSH1 0x0 KECCAK256 SWAP2 DUP3 PUSH2 0x9E6 SWAP3 SWAP2 SWAP1 PUSH2 0x1BB3 JUMP JUMPDEST POP POP POP JUMP JUMPDEST PUSH1 0x6 PUSH1 0x20 MSTORE DUP1 PUSH1 0x0 MSTORE PUSH1 0x40 PUSH1 0x0 KECCAK256 PUSH1 0x0 SWAP2 POP SWAP1 POP SLOAD DUP2 JUMP JUMPDEST PUSH1 0x9 PUSH1 0x20 MSTORE DUP1 PUSH1 0x0 MSTORE PUSH1 0x40 PUSH1 0x0 KECCAK256 PUSH1 0x0 SWAP2 POP SLOAD SWAP1 PUSH2 0x100 EXP SWAP1 DIV PUSH1 0xFF AND DUP2 JUMP JUMPDEST PUSH1 0x8 PUSH1 0x20 MSTORE DUP1 PUSH1 0x0 MSTORE PUSH1 0x40 PUSH1 0x0 KECCAK256 PUSH1 0x0 SWAP2 POP SLOAD SWAP1 PUSH2 0x100 EXP SWAP1 DIV PUSH1 0xFF AND DUP2 JUMP JUMPDEST PUSH1 0x1 PUSH1 0x20 MSTORE DUP1 PUSH1 0x0 MSTORE PUSH1 0x40 PUSH1 0x0 KECCAK256 PUSH1 0x0 SWAP2 POP SWAP1 POP SLOAD DUP2 JUMP JUMPDEST PUSH1 0x0 PUSH1 0x6 PUSH1 0x0 CALLER PUSH20 0xFFFFFFFFFFFFFFFFFFFFFFFFFFFFFFFFFFFFFFFF AND PUSH20 0xFFFFFFFFFFFFFFFFFFFFFFFFFFFFFFFFFFFFFFFF AND DUP2 MSTORE PUSH1 0x20 ADD SWAP1 DUP2 MSTORE PUSH1 0x20 ADD PUSH1 0x0 KECCAK256 SLOAD EQ PUSH2 0xAA7 JUMPI PUSH1 0x0 DUP1 REVERT JUMPDEST TIMESTAMP PUSH1 0x6 PUSH1 0x0 CALLER PUSH20 0xFFFFFFFFFFFFFFFFFFFFFFFFFFFFFFFFFFFFFFFF AND PUSH20 0xFFFFFFFFFFFFFFFFFFFFFFFFFFFFFFFFFFFFFFFF AND DUP2 MSTORE PUSH1 0x20 ADD SWAP1 DUP2 MSTORE PUSH1 0x20 ADD PUSH1 0x0 KECCAK256 DUP2 SWAP1 SSTORE POP JUMP JUMPDEST PUSH1 0x4 DUP1 SLOAD PUSH2 0xAFA SWAP1 PUSH2 0x1905 JUMP JUMPDEST DUP1 PUSH1 0x1F ADD PUSH1 0x20 DUP1 SWAP2 DIV MUL PUSH1 0x20 ADD PUSH1 0x40 MLOAD SWAP1 DUP2 ADD PUSH1 0x40 MSTORE DUP1 SWAP3 SWAP2 SWAP1 DUP2 DUP2 MSTORE PUSH1 0x20 ADD DUP3 DUP1 SLOAD PUSH2 0xB26 SWAP1 PUSH2 0x1905 JUMP JUMPDEST DUP1 ISZERO PUSH2 0xB73 JUMPI DUP1 PUSH1 0x1F LT PUSH2 0xB48 JUMPI PUSH2 0x100 DUP1 DUP4 SLOAD DIV MUL DUP4 MSTORE SWAP2 PUSH1 0x20 ADD SWAP2 PUSH2 0xB73 JUMP JUMPDEST DUP3 ADD SWAP2 SWAP1 PUSH1 0x0 MSTORE PUSH1 0x20 PUSH1 0x0 KECCAK256 SWAP1 JUMPDEST DUP2 SLOAD DUP2 MSTORE SWAP1 PUSH1 0x1 ADD SWAP1 PUSH1 0x20 ADD DUP1 DUP4 GT PUSH2 0xB56 JUMPI DUP3 SWAP1 SUB PUSH1 0x1F AND DUP3 ADD SWAP2 JUMPDEST POP POP POP POP POP DUP2 JUMP JUMPDEST PUSH1 0x0 PUSH1 0x1 PUSH1 0x0 CALLER PUSH20 0xFFFFFFFFFFFFFFFFFFFFFFFFFFFFFFFFFFFFFFFF AND PUSH20 0xFFFFFFFFFFFFFFFFFFFFFFFFFFFFFFFFFFFFFFFF AND DUP2 MSTORE PUSH1 0x20 ADD SWAP1 DUP2 MSTORE PUSH1 0x20 ADD PUSH1 0x0 KECCAK256 SLOAD EQ DUP1 ISZERO PUSH2 0xC09 JUMPI POP PUSH1 0x0 PUSH1 0x6 PUSH1 0x0 CALLER PUSH20 0xFFFFFFFFFFFFFFFFFFFFFFFFFFFFFFFFFFFFFFFF AND PUSH20 0xFFFFFFFFFFFFFFFFFFFFFFFFFFFFFFFFFFFFFFFF AND DUP2 MSTORE PUSH1 0x20 ADD SWAP1 DUP2 MSTORE PUSH1 0x20 ADD PUSH1 0x0 KECCAK256 SLOAD EQ JUMPDEST ISZERO PUSH2 0xC57 JUMPI TIMESTAMP PUSH1 0x6 PUSH1 0x0 CALLER PUSH20 0xFFFFFFFFFFFFFFFFFFFFFFFFFFFFFFFFFFFFFFFF AND PUSH20 0xFFFFFFFFFFFFFFFFFFFFFFFFFFFFFFFFFFFFFFFF AND DUP2 MSTORE PUSH1 0x20 ADD SWAP1 DUP2 MSTORE PUSH1 0x20 ADD PUSH1 0x0 KECCAK256 DUP2 SWAP1 SSTORE POP PUSH2 0x130A JUMP JUMPDEST DUP1 PUSH1 0x1 PUSH1 0x0 CALLER PUSH20 0xFFFFFFFFFFFFFFFFFFFFFFFFFFFFFFFFFFFFFFFF AND PUSH20 0xFFFFFFFFFFFFFFFFFFFFFFFFFFFFFFFFFFFFFFFF AND DUP2 MSTORE PUSH1 0x20 ADD SWAP1 DUP2 MSTORE PUSH1 0x20 ADD PUSH1 0x0 KECCAK256 PUSH1 0x0 DUP3 DUP3 SLOAD PUSH2 0xCA6 SWAP2 SWAP1 PUSH2 0x1999 JUMP JUMPDEST SWAP3 POP POP DUP2 SWAP1 SSTORE POP DUP1 PUSH1 0x0 DUP1 DUP3 DUP3 SLOAD PUSH2 0xCBE SWAP2 SWAP1 PUSH2 0x1999 JUMP JUMPDEST SWAP3 POP POP DUP2 SWAP1 SSTORE POP CALLER PUSH20 0xFFFFFFFFFFFFFFFFFFFFFFFFFFFFFFFFFFFFFFFF AND PUSH1 0x0 PUSH20 0xFFFFFFFFFFFFFFFFFFFFFFFFFFFFFFFFFFFFFFFF AND PUSH32 0xDDF252AD1BE2C89B69C2B068FC378DAA952BA7F163C4A11628F55A4DF523B3EF DUP4 PUSH1 0x40 MLOAD PUSH2 0xD23 SWAP2 SWAP1 PUSH2 0x1712 JUMP JUMPDEST PUSH1 0x40 MLOAD DUP1 SWAP2 SUB SWAP1 LOG3 PUSH2 0x1F4 PUSH1 0x1 PUSH1 0x0 CALLER PUSH20 0xFFFFFFFFFFFFFFFFFFFFFFFFFFFFFFFFFFFFFFFF AND PUSH20 0xFFFFFFFFFFFFFFFFFFFFFFFFFFFFFFFFFFFFFFFF AND DUP2 MSTORE PUSH1 0x20 ADD SWAP1 DUP2 MSTORE PUSH1 0x20 ADD PUSH1 0x0 KECCAK256 SLOAD LT PUSH2 0x1309 JUMPI PUSH1 0x0 ISZERO ISZERO PUSH1 0x8 PUSH1 0x0 CALLER PUSH20 0xFFFFFFFFFFFFFFFFFFFFFFFFFFFFFFFFFFFFFFFF AND PUSH20 0xFFFFFFFFFFFFFFFFFFFFFFFFFFFFFFFFFFFFFFFF AND DUP2 MSTORE PUSH1 0x20 ADD SWAP1 DUP2 MSTORE PUSH1 0x20 ADD PUSH1 0x0 KECCAK256 PUSH1 0x0 SWAP1 SLOAD SWAP1 PUSH2 0x100 EXP SWAP1 DIV PUSH1 0xFF AND ISZERO ISZERO SUB PUSH2 0xE24 JUMPI PUSH1 0x1 PUSH1 0x8 PUSH1 0x0 CALLER PUSH20 0xFFFFFFFFFFFFFFFFFFFFFFFFFFFFFFFFFFFFFFFF AND PUSH20 0xFFFFFFFFFFFFFFFFFFFFFFFFFFFFFFFFFFFFFFFF AND DUP2 MSTORE PUSH1 0x20 ADD SWAP1 DUP2 MSTORE PUSH1 0x20 ADD PUSH1 0x0 KECCAK256 PUSH1 0x0 PUSH2 0x100 EXP DUP2 SLOAD DUP2 PUSH1 0xFF MUL NOT AND SWAP1 DUP4 ISZERO ISZERO MUL OR SWAP1 SSTORE POP JUMPDEST PUSH2 0x3E8 PUSH1 0x1 PUSH1 0x0 CALLER PUSH20 0xFFFFFFFFFFFFFFFFFFFFFFFFFFFFFFFFFFFFFFFF AND PUSH20 0xFFFFFFFFFFFFFFFFFFFFFFFFFFFFFFFFFFFFFFFF AND DUP2 MSTORE PUSH1 0x20 ADD SWAP1 DUP2 MSTORE PUSH1 0x20 ADD PUSH1 0x0 KECCAK256 SLOAD LT PUSH2 0x1308 JUMPI PUSH1 0x0 ISZERO ISZERO PUSH1 0x9 PUSH1 0x0 CALLER PUSH20 0xFFFFFFFFFFFFFFFFFFFFFFFFFFFFFFFFFFFFFFFF AND PUSH20 0xFFFFFFFFFFFFFFFFFFFFFFFFFFFFFFFFFFFFFFFF AND DUP2 MSTORE PUSH1 0x20 ADD SWAP1 DUP2 MSTORE PUSH1 0x20 ADD PUSH1 0x0 KECCAK256 PUSH1 0x0 SWAP1 SLOAD SWAP1 PUSH2 0x100 EXP SWAP1 DIV PUSH1 0xFF AND ISZERO ISZERO SUB PUSH2 0xF1D JUMPI PUSH1 0x1 PUSH1 0x9 PUSH1 0x0 CALLER PUSH20 0xFFFFFFFFFFFFFFFFFFFFFFFFFFFFFFFFFFFFFFFF AND PUSH20 0xFFFFFFFFFFFFFFFFFFFFFFFFFFFFFFFFFFFFFFFF AND DUP2 MSTORE PUSH1 0x20 ADD SWAP1 DUP2 MSTORE PUSH1 0x20 ADD PUSH1 0x0 KECCAK256 PUSH1 0x0 PUSH2 0x100 EXP DUP2 SLOAD DUP2 PUSH1 0xFF MUL NOT AND SWAP1 DUP4 ISZERO ISZERO MUL OR SWAP1 SSTORE POP JUMPDEST PUSH2 0x2710 PUSH1 0x1 PUSH1 0x0 CALLER PUSH20 0xFFFFFFFFFFFFFFFFFFFFFFFFFFFFFFFFFFFFFFFF AND PUSH20 0xFFFFFFFFFFFFFFFFFFFFFFFFFFFFFFFFFFFFFFFF AND DUP2 MSTORE PUSH1 0x20 ADD SWAP1 DUP2 MSTORE PUSH1 0x20 ADD PUSH1 0x0 KECCAK256 SLOAD LT PUSH2 0x1307 JUMPI PUSH1 0x0 ISZERO ISZERO PUSH1 0xA PUSH1 0x0 CALLER PUSH20 0xFFFFFFFFFFFFFFFFFFFFFFFFFFFFFFFFFFFFFFFF AND PUSH20 0xFFFFFFFFFFFFFFFFFFFFFFFFFFFFFFFFFFFFFFFF AND DUP2 MSTORE PUSH1 0x20 ADD SWAP1 DUP2 MSTORE PUSH1 0x20 ADD PUSH1 0x0 KECCAK256 PUSH1 0x0 SWAP1 SLOAD SWAP1 PUSH2 0x100 EXP SWAP1 DIV PUSH1 0xFF AND ISZERO ISZERO SUB PUSH2 0x1016 JUMPI PUSH1 0x1 PUSH1 0xA PUSH1 0x0 CALLER PUSH20 0xFFFFFFFFFFFFFFFFFFFFFFFFFFFFFFFFFFFFFFFF AND PUSH20 0xFFFFFFFFFFFFFFFFFFFFFFFFFFFFFFFFFFFFFFFF AND DUP2 MSTORE PUSH1 0x20 ADD SWAP1 DUP2 MSTORE PUSH1 0x20 ADD PUSH1 0x0 KECCAK256 PUSH1 0x0 PUSH2 0x100 EXP DUP2 SLOAD DUP2 PUSH1 0xFF MUL NOT AND SWAP1 DUP4 ISZERO ISZERO MUL OR SWAP1 SSTORE POP JUMPDEST PUSH2 0xC350 PUSH1 0x1 PUSH1 0x0 CALLER PUSH20 0xFFFFFFFFFFFFFFFFFFFFFFFFFFFFFFFFFFFFFFFF AND PUSH20 0xFFFFFFFFFFFFFFFFFFFFFFFFFFFFFFFFFFFFFFFF AND DUP2 MSTORE PUSH1 0x20 ADD SWAP1 DUP2 MSTORE PUSH1 0x20 ADD PUSH1 0x0 KECCAK256 SLOAD LT PUSH2 0x1306 JUMPI PUSH1 0x0 ISZERO ISZERO PUSH1 0xB PUSH1 0x0 CALLER PUSH20 0xFFFFFFFFFFFFFFFFFFFFFFFFFFFFFFFFFFFFFFFF AND PUSH20 0xFFFFFFFFFFFFFFFFFFFFFFFFFFFFFFFFFFFFFFFF AND DUP2 MSTORE PUSH1 0x20 ADD SWAP1 DUP2 MSTORE PUSH1 0x20 ADD PUSH1 0x0 KECCAK256 PUSH1 0x0 SWAP1 SLOAD SWAP1 PUSH2 0x100 EXP SWAP1 DIV PUSH1 0xFF AND ISZERO ISZERO SUB PUSH2 0x110F JUMPI PUSH1 0x1 PUSH1 0xB PUSH1 0x0 CALLER PUSH20 0xFFFFFFFFFFFFFFFFFFFFFFFFFFFFFFFFFFFFFFFF AND PUSH20 0xFFFFFFFFFFFFFFFFFFFFFFFFFFFFFFFFFFFFFFFF AND DUP2 MSTORE PUSH1 0x20 ADD SWAP1 DUP2 MSTORE PUSH1 0x20 ADD PUSH1 0x0 KECCAK256 PUSH1 0x0 PUSH2 0x100 EXP DUP2 SLOAD DUP2 PUSH1 0xFF MUL NOT AND SWAP1 DUP4 ISZERO ISZERO MUL OR SWAP1 SSTORE POP JUMPDEST PUSH3 0x186A0 PUSH1 0x1 PUSH1 0x0 CALLER PUSH20 0xFFFFFFFFFFFFFFFFFFFFFFFFFFFFFFFFFFFFFFFF AND PUSH20 0xFFFFFFFFFFFFFFFFFFFFFFFFFFFFFFFFFFFFFFFF AND DUP2 MSTORE PUSH1 0x20 ADD SWAP1 DUP2 MSTORE PUSH1 0x20 ADD PUSH1 0x0 KECCAK256 SLOAD LT PUSH2 0x1305 JUMPI PUSH1 0x0 ISZERO ISZERO PUSH1 0xC PUSH1 0x0 CALLER PUSH20 0xFFFFFFFFFFFFFFFFFFFFFFFFFFFFFFFFFFFFFFFF AND PUSH20 0xFFFFFFFFFFFFFFFFFFFFFFFFFFFFFFFFFFFFFFFF AND DUP2 MSTORE PUSH1 0x20 ADD SWAP1 DUP2 MSTORE PUSH1 0x20 ADD PUSH1 0x0 KECCAK256 PUSH1 0x0 SWAP1 SLOAD SWAP1 PUSH2 0x100 EXP SWAP1 DIV PUSH1 0xFF AND ISZERO ISZERO SUB PUSH2 0x1209 JUMPI PUSH1 0x1 PUSH1 0xC PUSH1 0x0 CALLER PUSH20 0xFFFFFFFFFFFFFFFFFFFFFFFFFFFFFFFFFFFFFFFF AND PUSH20 0xFFFFFFFFFFFFFFFFFFFFFFFFFFFFFFFFFFFFFFFF AND DUP2 MSTORE PUSH1 0x20 ADD SWAP1 DUP2 MSTORE PUSH1 0x20 ADD PUSH1 0x0 KECCAK256 PUSH1 0x0 PUSH2 0x100 EXP DUP2 SLOAD DUP2 PUSH1 0xFF MUL NOT AND SWAP1 DUP4 ISZERO ISZERO MUL OR SWAP1 SSTORE POP JUMPDEST PUSH3 0xF4240 PUSH1 0x1 PUSH1 0x0 CALLER PUSH20 0xFFFFFFFFFFFFFFFFFFFFFFFFFFFFFFFFFFFFFFFF AND PUSH20 0xFFFFFFFFFFFFFFFFFFFFFFFFFFFFFFFFFFFFFFFF AND DUP2 MSTORE PUSH1 0x20 ADD SWAP1 DUP2 MSTORE PUSH1 0x20 ADD PUSH1 0x0 KECCAK256 SLOAD LT PUSH2 0x1304 JUMPI PUSH1 0x0 ISZERO ISZERO PUSH1 0xD PUSH1 0x0 CALLER PUSH20 0xFFFFFFFFFFFFFFFFFFFFFFFFFFFFFFFFFFFFFFFF AND PUSH20 0xFFFFFFFFFFFFFFFFFFFFFFFFFFFFFFFFFFFFFFFF AND DUP2 MSTORE PUSH1 0x20 ADD SWAP1 DUP2 MSTORE PUSH1 0x20 ADD PUSH1 0x0 KECCAK256 PUSH1 0x0 SWAP1 SLOAD SWAP1 PUSH2 0x100 EXP SWAP1 DIV PUSH1 0xFF AND ISZERO ISZERO SUB PUSH2 0x1303 JUMPI PUSH1 0x1 PUSH1 0xD PUSH1 0x0 CALLER PUSH20 0xFFFFFFFFFFFFFFFFFFFFFFFFFFFFFFFFFFFFFFFF AND PUSH20 0xFFFFFFFFFFFFFFFFFFFFFFFFFFFFFFFFFFFFFFFF AND DUP2 MSTORE PUSH1 0x20 ADD SWAP1 DUP2 MSTORE PUSH1 0x20 ADD PUSH1 0x0 KECCAK256 PUSH1 0x0 PUSH2 0x100 EXP DUP2 SLOAD DUP2 PUSH1 0xFF MUL NOT AND SWAP1 DUP4 ISZERO ISZERO MUL OR SWAP1 SSTORE POP JUMPDEST JUMPDEST JUMPDEST JUMPDEST JUMPDEST JUMPDEST JUMPDEST JUMPDEST POP JUMP JUMPDEST PUSH1 0x0 PUSH1 0x64 DUP3 GT ISZERO PUSH2 0x131D JUMPI PUSH1 0x0 DUP1 REVERT JUMPDEST DUP2 PUSH1 0x1 PUSH1 0x0 CALLER PUSH20 0xFFFFFFFFFFFFFFFFFFFFFFFFFFFFFFFFFFFFFFFF AND PUSH20 0xFFFFFFFFFFFFFFFFFFFFFFFFFFFFFFFFFFFFFFFF AND DUP2 MSTORE PUSH1 0x20 ADD SWAP1 DUP2 MSTORE PUSH1 0x20 ADD PUSH1 0x0 KECCAK256 PUSH1 0x0 DUP3 DUP3 SLOAD PUSH2 0x136C SWAP2 SWAP1 PUSH2 0x1965 JUMP JUMPDEST SWAP3 POP POP DUP2 SWAP1 SSTORE POP DUP2 PUSH1 0x1 PUSH1 0x0 DUP6 PUSH20 0xFFFFFFFFFFFFFFFFFFFFFFFFFFFFFFFFFFFFFFFF AND PUSH20 0xFFFFFFFFFFFFFFFFFFFFFFFFFFFFFFFFFFFFFFFF AND DUP2 MSTORE PUSH1 0x20 ADD SWAP1 DUP2 MSTORE PUSH1 0x20 ADD PUSH1 0x0 KECCAK256 PUSH1 0x0 DUP3 DUP3 SLOAD PUSH2 0x13C2 SWAP2 SWAP1 PUSH2 0x1999 JUMP JUMPDEST SWAP3 POP POP DUP2 SWAP1 SSTORE POP DUP3 PUSH20 0xFFFFFFFFFFFFFFFFFFFFFFFFFFFFFFFFFFFFFFFF AND CALLER PUSH20 0xFFFFFFFFFFFFFFFFFFFFFFFFFFFFFFFFFFFFFFFF AND PUSH32 0xDDF252AD1BE2C89B69C2B068FC378DAA952BA7F163C4A11628F55A4DF523B3EF DUP5 PUSH1 0x40 MLOAD PUSH2 0x1426 SWAP2 SWAP1 PUSH2 0x1712 JUMP JUMPDEST PUSH1 0x40 MLOAD DUP1 SWAP2 SUB SWAP1 LOG3 PUSH1 0x1 SWAP1 POP SWAP3 SWAP2 POP POP JUMP JUMPDEST DUP2 DUP2 PUSH1 0x7 PUSH1 0x0 CALLER PUSH20 0xFFFFFFFFFFFFFFFFFFFFFFFFFFFFFFFFFFFFFFFF AND PUSH20 0xFFFFFFFFFFFFFFFFFFFFFFFFFFFFFFFFFFFFFFFF AND DUP2 MSTORE PUSH1 0x20 ADD SWAP1 DUP2 MSTORE PUSH1 0x20 ADD PUSH1 0x0 KECCAK256 SWAP2 DUP3 PUSH2 0x1486 SWAP3 SWAP2 SWAP1 PUSH2 0x1BB3 JUMP JUMPDEST POP POP POP JUMP JUMPDEST PUSH1 0xA PUSH1 0x20 MSTORE DUP1 PUSH1 0x0 MSTORE PUSH1 0x40 PUSH1 0x0 KECCAK256 PUSH1 0x0 SWAP2 POP SLOAD SWAP1 PUSH2 0x100 EXP SWAP1 DIV PUSH1 0xFF AND DUP2 JUMP JUMPDEST PUSH1 0xB PUSH1 0x20 MSTORE DUP1 PUSH1 0x0 MSTORE PUSH1 0x40 PUSH1 0x0 KECCAK256 PUSH1 0x0 SWAP2 POP SLOAD SWAP1 PUSH2 0x100 EXP SWAP1 DIV PUSH1 0xFF AND DUP2 JUMP JUMPDEST PUSH1 0x2 PUSH1 0x20 MSTORE DUP2 PUSH1 0x0 MSTORE PUSH1 0x40 PUSH1 0x0 KECCAK256 PUSH1 0x20 MSTORE DUP1 PUSH1 0x0 MSTORE PUSH1 0x40 PUSH1 0x0 KECCAK256 PUSH1 0x0 SWAP2 POP SWAP2 POP POP SLOAD DUP2 JUMP JUMPDEST PUSH1 0xC PUSH1 0x20 MSTORE DUP1 PUSH1 0x0 MSTORE PUSH1 0x40 PUSH1 0x0 KECCAK256 PUSH1 0x0 SWAP2 POP SLOAD SWAP1 PUSH2 0x100 EXP SWAP1 DIV PUSH1 0xFF AND DUP2 JUMP JUMPDEST PUSH1 0x0 DUP2 MLOAD SWAP1 POP SWAP2 SWAP1 POP JUMP JUMPDEST PUSH1 0x0 DUP3 DUP3 MSTORE PUSH1 0x20 DUP3 ADD SWAP1 POP SWAP3 SWAP2 POP POP JUMP JUMPDEST PUSH1 0x0 JUMPDEST DUP4 DUP2 LT ISZERO PUSH2 0x154A JUMPI DUP1 DUP3 ADD MLOAD DUP2 DUP5 ADD MSTORE PUSH1 0x20 DUP2 ADD SWAP1 POP PUSH2 0x152F JUMP JUMPDEST PUSH1 0x0 DUP5 DUP5 ADD MSTORE POP POP POP POP JUMP JUMPDEST PUSH1 0x0 PUSH1 0x1F NOT PUSH1 0x1F DUP4 ADD AND SWAP1 POP SWAP2 SWAP1 POP JUMP JUMPDEST PUSH1 0x0 PUSH2 0x1572 DUP3 PUSH2 0x1510 JUMP JUMPDEST PUSH2 0x157C DUP2 DUP6 PUSH2 0x151B JUMP JUMPDEST SWAP4 POP PUSH2 0x158C DUP2 DUP6 PUSH1 0x20 DUP7 ADD PUSH2 0x152C JUMP JUMPDEST PUSH2 0x1595 DUP2 PUSH2 0x1556 JUMP JUMPDEST DUP5 ADD SWAP2 POP POP SWAP3 SWAP2 POP POP JUMP JUMPDEST PUSH1 0x0 PUSH1 0x20 DUP3 ADD SWAP1 POP DUP2 DUP2 SUB PUSH1 0x0 DUP4 ADD MSTORE PUSH2 0x15BA DUP2 DUP5 PUSH2 0x1567 JUMP JUMPDEST SWAP1 POP SWAP3 SWAP2 POP POP JUMP JUMPDEST PUSH1 0x0 DUP1 REVERT JUMPDEST PUSH1 0x0 DUP1 REVERT JUMPDEST PUSH1 0x0 PUSH20 0xFFFFFFFFFFFFFFFFFFFFFFFFFFFFFFFFFFFFFFFF DUP3 AND SWAP1 POP SWAP2 SWAP1 POP JUMP JUMPDEST PUSH1 0x0 PUSH2 0x15F7 DUP3 PUSH2 0x15CC JUMP JUMPDEST SWAP1 POP SWAP2 SWAP1 POP JUMP JUMPDEST PUSH2 0x1607 DUP2 PUSH2 0x15EC JUMP JUMPDEST DUP2 EQ PUSH2 0x1612 JUMPI PUSH1 0x0 DUP1 REVERT JUMPDEST POP JUMP JUMPDEST PUSH1 0x0 DUP2 CALLDATALOAD SWAP1 POP PUSH2 0x1624 DUP2 PUSH2 0x15FE JUMP JUMPDEST SWAP3 SWAP2 POP POP JUMP JUMPDEST PUSH1 0x0 DUP2 SWAP1 POP SWAP2 SWAP1 POP JUMP JUMPDEST PUSH2 0x163D DUP2 PUSH2 0x162A JUMP JUMPDEST DUP2 EQ PUSH2 0x1648 JUMPI PUSH1 0x0 DUP1 REVERT JUMPDEST POP JUMP JUMPDEST PUSH1 0x0 DUP2 CALLDATALOAD SWAP1 POP PUSH2 0x165A DUP2 PUSH2 0x1634 JUMP JUMPDEST SWAP3 SWAP2 POP POP JUMP JUMPDEST PUSH1 0x0 DUP1 PUSH1 0x40 DUP4 DUP6 SUB SLT ISZERO PUSH2 0x1677 JUMPI PUSH2 0x1676 PUSH2 0x15C2 JUMP JUMPDEST JUMPDEST PUSH1 0x0 PUSH2 0x1685 DUP6 DUP3 DUP7 ADD PUSH2 0x1615 JUMP JUMPDEST SWAP3 POP POP PUSH1 0x20 PUSH2 0x1696 DUP6 DUP3 DUP7 ADD PUSH2 0x164B JUMP JUMPDEST SWAP2 POP POP SWAP3 POP SWAP3 SWAP1 POP JUMP JUMPDEST PUSH1 0x0 DUP2 ISZERO ISZERO SWAP1 POP SWAP2 SWAP1 POP JUMP JUMPDEST PUSH2 0x16B5 DUP2 PUSH2 0x16A0 JUMP JUMPDEST DUP3 MSTORE POP POP JUMP JUMPDEST PUSH1 0x0 PUSH1 0x20 DUP3 ADD SWAP1 POP PUSH2 0x16D0 PUSH1 0x0 DUP4 ADD DUP5 PUSH2 0x16AC JUMP JUMPDEST SWAP3 SWAP2 POP POP JUMP JUMPDEST PUSH1 0x0 PUSH1 0x20 DUP3 DUP5 SUB SLT ISZERO PUSH2 0x16EC JUMPI PUSH2 0x16EB PUSH2 0x15C2 JUMP JUMPDEST JUMPDEST PUSH1 0x0 PUSH2 0x16FA DUP5 DUP3 DUP6 ADD PUSH2 0x1615 JUMP JUMPDEST SWAP2 POP POP SWAP3 SWAP2 POP POP JUMP JUMPDEST PUSH2 0x170C DUP2 PUSH2 0x162A JUMP JUMPDEST DUP3 MSTORE POP POP JUMP JUMPDEST PUSH1 0x0 PUSH1 0x20 DUP3 ADD SWAP1 POP PUSH2 0x1727 PUSH1 0x0 DUP4 ADD DUP5 PUSH2 0x1703 JUMP JUMPDEST SWAP3 SWAP2 POP POP JUMP JUMPDEST PUSH1 0x0 DUP1 PUSH1 0x0 PUSH1 0x60 DUP5 DUP7 SUB SLT ISZERO PUSH2 0x1746 JUMPI PUSH2 0x1745 PUSH2 0x15C2 JUMP JUMPDEST JUMPDEST PUSH1 0x0 PUSH2 0x1754 DUP7 DUP3 DUP8 ADD PUSH2 0x1615 JUMP JUMPDEST SWAP4 POP POP PUSH1 0x20 PUSH2 0x1765 DUP7 DUP3 DUP8 ADD PUSH2 0x1615 JUMP JUMPDEST SWAP3 POP POP PUSH1 0x40 PUSH2 0x1776 DUP7 DUP3 DUP8 ADD PUSH2 0x164B JUMP JUMPDEST SWAP2 POP POP SWAP3 POP SWAP3 POP SWAP3 JUMP JUMPDEST PUSH1 0x0 PUSH1 0xFF DUP3 AND SWAP1 POP SWAP2 SWAP1 POP JUMP JUMPDEST PUSH2 0x1796 DUP2 PUSH2 0x1780 JUMP JUMPDEST DUP3 MSTORE POP POP JUMP JUMPDEST PUSH1 0x0 PUSH1 0x20 DUP3 ADD SWAP1 POP PUSH2 0x17B1 PUSH1 0x0 DUP4 ADD DUP5 PUSH2 0x178D JUMP JUMPDEST SWAP3 SWAP2 POP POP JUMP JUMPDEST PUSH1 0x0 PUSH1 0x20 DUP3 DUP5 SUB SLT ISZERO PUSH2 0x17CD JUMPI PUSH2 0x17CC PUSH2 0x15C2 JUMP JUMPDEST JUMPDEST PUSH1 0x0 PUSH2 0x17DB DUP5 DUP3 DUP6 ADD PUSH2 0x164B JUMP JUMPDEST SWAP2 POP POP SWAP3 SWAP2 POP POP JUMP JUMPDEST PUSH1 0x0 DUP1 REVERT JUMPDEST PUSH1 0x0 DUP1 REVERT JUMPDEST PUSH1 0x0 DUP1 REVERT JUMPDEST PUSH1 0x0 DUP1 DUP4 PUSH1 0x1F DUP5 ADD SLT PUSH2 0x1809 JUMPI PUSH2 0x1808 PUSH2 0x17E4 JUMP JUMPDEST JUMPDEST DUP3 CALLDATALOAD SWAP1 POP PUSH8 0xFFFFFFFFFFFFFFFF DUP2 GT ISZERO PUSH2 0x1826 JUMPI PUSH2 0x1825 PUSH2 0x17E9 JUMP JUMPDEST JUMPDEST PUSH1 0x20 DUP4 ADD SWAP2 POP DUP4 PUSH1 0x1 DUP3 MUL DUP4 ADD GT ISZERO PUSH2 0x1842 JUMPI PUSH2 0x1841 PUSH2 0x17EE JUMP JUMPDEST JUMPDEST SWAP3 POP SWAP3 SWAP1 POP JUMP JUMPDEST PUSH1 0x0 DUP1 PUSH1 0x20 DUP4 DUP6 SUB SLT ISZERO PUSH2 0x1860 JUMPI PUSH2 0x185F PUSH2 0x15C2 JUMP JUMPDEST JUMPDEST PUSH1 0x0 DUP4 ADD CALLDATALOAD PUSH8 0xFFFFFFFFFFFFFFFF DUP2 GT ISZERO PUSH2 0x187E JUMPI PUSH2 0x187D PUSH2 0x15C7 JUMP JUMPDEST JUMPDEST PUSH2 0x188A DUP6 DUP3 DUP7 ADD PUSH2 0x17F3 JUMP JUMPDEST SWAP3 POP SWAP3 POP POP SWAP3 POP SWAP3 SWAP1 POP JUMP JUMPDEST PUSH1 0x0 DUP1 PUSH1 0x40 DUP4 DUP6 SUB SLT ISZERO PUSH2 0x18AD JUMPI PUSH2 0x18AC PUSH2 0x15C2 JUMP JUMPDEST JUMPDEST PUSH1 0x0 PUSH2 0x18BB DUP6 DUP3 DUP7 ADD PUSH2 0x1615 JUMP JUMPDEST SWAP3 POP POP PUSH1 0x20 PUSH2 0x18CC DUP6 DUP3 DUP7 ADD PUSH2 0x1615 JUMP JUMPDEST SWAP2 POP POP SWAP3 POP SWAP3 SWAP1 POP JUMP JUMPDEST PUSH32 0x4E487B7100000000000000000000000000000000000000000000000000000000 PUSH1 0x0 MSTORE PUSH1 0x22 PUSH1 0x4 MSTORE PUSH1 0x24 PUSH1 0x0 REVERT JUMPDEST PUSH1 0x0 PUSH1 0x2 DUP3 DIV SWAP1 POP PUSH1 0x1 DUP3 AND DUP1 PUSH2 0x191D JUMPI PUSH1 0x7F DUP3 AND SWAP2 POP JUMPDEST PUSH1 0x20 DUP3 LT DUP2 SUB PUSH2 0x1930 JUMPI PUSH2 0x192F PUSH2 0x18D6 JUMP JUMPDEST JUMPDEST POP SWAP2 SWAP1 POP JUMP JUMPDEST PUSH32 0x4E487B7100000000000000000000000000000000000000000000000000000000 PUSH1 0x0 MSTORE PUSH1 0x11 PUSH1 0x4 MSTORE PUSH1 0x24 PUSH1 0x0 REVERT JUMPDEST PUSH1 0x0 PUSH2 0x1970 DUP3 PUSH2 0x162A JUMP JUMPDEST SWAP2 POP PUSH2 0x197B DUP4 PUSH2 0x162A JUMP JUMPDEST SWAP3 POP DUP3 DUP3 SUB SWAP1 POP DUP2 DUP2 GT ISZERO PUSH2 0x1993 JUMPI PUSH2 0x1992 PUSH2 0x1936 JUMP JUMPDEST JUMPDEST SWAP3 SWAP2 POP POP JUMP JUMPDEST PUSH1 0x0 PUSH2 0x19A4 DUP3 PUSH2 0x162A JUMP JUMPDEST SWAP2 POP PUSH2 0x19AF DUP4 PUSH2 0x162A JUMP JUMPDEST SWAP3 POP DUP3 DUP3 ADD SWAP1 POP DUP1 DUP3 GT ISZERO PUSH2 0x19C7 JUMPI PUSH2 0x19C6 PUSH2 0x1936 JUMP JUMPDEST JUMPDEST SWAP3 SWAP2 POP POP JUMP JUMPDEST PUSH1 0x0 DUP3 SWAP1 POP SWAP3 SWAP2 POP POP JUMP JUMPDEST PUSH32 0x4E487B7100000000000000000000000000000000000000000000000000000000 PUSH1 0x0 MSTORE PUSH1 0x41 PUSH1 0x4 MSTORE PUSH1 0x24 PUSH1 0x0 REVERT JUMPDEST PUSH1 0x0 DUP2 SWAP1 POP DUP2 PUSH1 0x0 MSTORE PUSH1 0x20 PUSH1 0x0 KECCAK256 SWAP1 POP SWAP2 SWAP1 POP JUMP JUMPDEST PUSH1 0x0 PUSH1 0x20 PUSH1 0x1F DUP4 ADD DIV SWAP1 POP SWAP2 SWAP1 POP JUMP JUMPDEST PUSH1 0x0 DUP3 DUP3 SHL SWAP1 POP SWAP3 SWAP2 POP POP JUMP JUMPDEST PUSH1 0x0 PUSH1 0x8 DUP4 MUL PUSH2 0x1A69 PUSH32 0xFFFFFFFFFFFFFFFFFFFFFFFFFFFFFFFFFFFFFFFFFFFFFFFFFFFFFFFFFFFFFFFF DUP3 PUSH2 0x1A2C JUMP JUMPDEST PUSH2 0x1A73 DUP7 DUP4 PUSH2 0x1A2C JUMP JUMPDEST SWAP6 POP DUP1 NOT DUP5 AND SWAP4 POP DUP1 DUP7 AND DUP5 OR SWAP3 POP POP POP SWAP4 SWAP3 POP POP POP JUMP JUMPDEST PUSH1 0x0 DUP2 SWAP1 POP SWAP2 SWAP1 POP JUMP JUMPDEST PUSH1 0x0 PUSH2 0x1AB0 PUSH2 0x1AAB PUSH2 0x1AA6 DUP5 PUSH2 0x162A JUMP JUMPDEST PUSH2 0x1A8B JUMP JUMPDEST PUSH2 0x162A JUMP JUMPDEST SWAP1 POP SWAP2 SWAP1 POP JUMP JUMPDEST PUSH1 0x0 DUP2 SWAP1 POP SWAP2 SWAP1 POP JUMP JUMPDEST PUSH2 0x1ACA DUP4 PUSH2 0x1A95 JUMP JUMPDEST PUSH2 0x1ADE PUSH2 0x1AD6 DUP3 PUSH2 0x1AB7 JUMP JUMPDEST DUP5 DUP5 SLOAD PUSH2 0x1A39 JUMP JUMPDEST DUP3 SSTORE POP POP POP POP JUMP JUMPDEST PUSH1 0x0 SWAP1 JUMP JUMPDEST PUSH2 0x1AF3 PUSH2 0x1AE6 JUMP JUMPDEST PUSH2 0x1AFE DUP2 DUP5 DUP5 PUSH2 0x1AC1 JUMP JUMPDEST POP POP POP JUMP JUMPDEST JUMPDEST DUP2 DUP2 LT ISZERO PUSH2 0x1B22 JUMPI PUSH2 0x1B17 PUSH1 0x0 DUP3 PUSH2 0x1AEB JUMP JUMPDEST PUSH1 0x1 DUP2 ADD SWAP1 POP PUSH2 0x1B04 JUMP JUMPDEST POP POP JUMP JUMPDEST PUSH1 0x1F DUP3 GT ISZERO PUSH2 0x1B67 JUMPI PUSH2 0x1B38 DUP2 PUSH2 0x1A07 JUMP JUMPDEST PUSH2 0x1B41 DUP5 PUSH2 0x1A1C JUMP JUMPDEST DUP2 ADD PUSH1 0x20 DUP6 LT ISZERO PUSH2 0x1B50 JUMPI DUP2 SWAP1 POP JUMPDEST PUSH2 0x1B64 PUSH2 0x1B5C DUP6 PUSH2 0x1A1C JUMP JUMPDEST DUP4 ADD DUP3 PUSH2 0x1B03 JUMP JUMPDEST POP POP JUMPDEST POP POP POP JUMP JUMPDEST PUSH1 0x0 DUP3 DUP3 SHR SWAP1 POP SWAP3 SWAP2 POP POP JUMP JUMPDEST PUSH1 0x0 PUSH2 0x1B8A PUSH1 0x0 NOT DUP5 PUSH1 0x8 MUL PUSH2 0x1B6C JUMP JUMPDEST NOT DUP1 DUP4 AND SWAP2 POP POP SWAP3 SWAP2 POP POP JUMP JUMPDEST PUSH1 0x0 PUSH2 0x1BA3 DUP4 DUP4 PUSH2 0x1B79 JUMP JUMPDEST SWAP2 POP DUP3 PUSH1 0x2 MUL DUP3 OR SWAP1 POP SWAP3 SWAP2 POP POP JUMP JUMPDEST PUSH2 0x1BBD DUP4 DUP4 PUSH2 0x19CD JUMP JUMPDEST PUSH8 0xFFFFFFFFFFFFFFFF DUP2 GT ISZERO PUSH2 0x1BD6 JUMPI PUSH2 0x1BD5 PUSH2 0x19D8 JUMP JUMPDEST JUMPDEST PUSH2 0x1BE0 DUP3 SLOAD PUSH2 0x1905 JUMP JUMPDEST PUSH2 0x1BEB DUP3 DUP3 DUP6 PUSH2 0x1B26 JUMP JUMPDEST PUSH1 0x0 PUSH1 0x1F DUP4 GT PUSH1 0x1 DUP2 EQ PUSH2 0x1C1A JUMPI PUSH1 0x0 DUP5 ISZERO PUSH2 0x1C08 JUMPI DUP3 DUP8 ADD CALLDATALOAD SWAP1 POP JUMPDEST PUSH2 0x1C12 DUP6 DUP3 PUSH2 0x1B97 JUMP JUMPDEST DUP7 SSTORE POP PUSH2 0x1C7A JUMP JUMPDEST PUSH1 0x1F NOT DUP5 AND PUSH2 0x1C28 DUP7 PUSH2 0x1A07 JUMP JUMPDEST PUSH1 0x0 JUMPDEST DUP3 DUP2 LT ISZERO PUSH2 0x1C50 JUMPI DUP5 DUP10 ADD CALLDATALOAD DUP3 SSTORE PUSH1 0x1 DUP3 ADD SWAP2 POP PUSH1 0x20 DUP6 ADD SWAP5 POP PUSH1 0x20 DUP2 ADD SWAP1 POP PUSH2 0x1C2B JUMP JUMPDEST DUP7 DUP4 LT ISZERO PUSH2 0x1C6D JUMPI DUP5 DUP10 ADD CALLDATALOAD PUSH2 0x1C69 PUSH1 0x1F DUP10 AND DUP3 PUSH2 0x1B79 JUMP JUMPDEST DUP4 SSTORE POP JUMPDEST PUSH1 0x1 PUSH1 0x2 DUP9 MUL ADD DUP9 SSTORE POP POP POP JUMPDEST POP POP POP POP POP POP POP JUMP INVALID LOG2 PUSH5 0x6970667358 0x22 SLT KECCAK256 0xE1 0x2D 0xD3 0x49 PUSH6 0x52D57755C581 DELEGATECALL PUSH11 0x862F74B6AA4DCAA42C5CE1 DIFFICULTY 0xCF PUSH17 0x6DB6F9381E64736F6C6343000811003300 "},"gasEstimates":{"creation":{"codeDepositCost":"1470600","executionCost":"infinite","totalCost":"infinite"},"external":{"allowance(address,address)":"infinite","approve(address,uint256)":"infinite","balanceOf(address)":"2859","burn(uint256)":"infinite","decimals()":"2516","has10000km(address)":"2957","has1000km(address)":"2977","has100km(address)":"2911","has10km(address)":"2978","has500km(address)":"2933","has5km(address)":"2868","mint(uint256)":"infinite","name()":"infinite","personName(address)":"infinite","setName(string)":"infinite","setPersonName(string)":"infinite","setStartDate()":"24625","startDate(address)":"2925","symbol()":"infinite","totalSupply()":"2519","transfer(address,uint256)":"infinite","transferFrom(address,address,uint256)":"infinite"}},"methodIdentifiers":{"allowance(address,address)":"dd62ed3e","approve(address,uint256)":"095ea7b3","balanceOf(address)":"70a08231","burn(uint256)":"42966c68","decimals()":"313ce567","has10000km(address)":"19f5b1d2","has1000km(address)":"ec98ce3f","has100km(address)":"cf315815","has10km(address)":"5415ee4e","has500km(address)":"d9caa2d7","has5km(address)":"698aad67","mint(uint256)":"a0712d68","name()":"06fdde03","personName(address)":"0b755556","setName(string)":"c47f0027","setPersonName(string)":"4e863271","setStartDate()":"7c69710f","startDate(address)":"50702ec9","symbol()":"95d89b41","totalSupply()":"18160ddd","transfer(address,uint256)":"a9059cbb","transferFrom(address,address,uint256)":"23b872dd"}},"storageLayout":{"storage":[{"astId":72,"contract":"wmbToken.sol:wmbToken","label":"totalSupply","offset":0,"slot":"0","type":"t_uint256"},{"astId":76,"contract":"wmbToken.sol:wmbToken","label":"balanceOf","offset":0,"slot":"1","type":"t_mapping(t_address,t_uint256)"},{"astId":82,"contract":"wmbToken.sol:wmbToken","label":"allowance","offset":0,"slot":"2","type":"t_mapping(t_address,t_mapping(t_address,t_uint256))"},{"astId":85,"contract":"wmbToken.sol:wmbToken","label":"name","offset":0,"slot":"3","type":"t_string_storage"},{"astId":88,"contract":"wmbToken.sol:wmbToken","label":"symbol","offset":0,"slot":"4","type":"t_string_storage"},{"astId":91,"contract":"wmbToken.sol:wmbToken","label":"decimals","offset":0,"slot":"5","type":"t_uint8"},{"astId":95,"contract":"wmbToken.sol:wmbToken","label":"startDate","offset":0,"slot":"6","type":"t_mapping(t_address,t_uint256)"},{"astId":99,"contract":"wmbToken.sol:wmbToken","label":"personName","offset":0,"slot":"7","type":"t_mapping(t_address,t_string_storage)"},{"astId":103,"contract":"wmbToken.sol:wmbToken","label":"has5km","offset":0,"slot":"8","type":"t_mapping(t_address,t_bool)"},{"astId":107,"contract":"wmbToken.sol:wmbToken","label":"has10km","offset":0,"slot":"9","type":"t_mapping(t_address,t_bool)"},{"astId":111,"contract":"wmbToken.sol:wmbToken","label":"has100km","offset":0,"slot":"10","type":"t_mapping(t_address,t_bool)"},{"astId":115,"contract":"wmbToken.sol:wmbToken","label":"has500km","offset":0,"slot":"11","type":"t_mapping(t_address,t_bool)"},{"astId":119,"contract":"wmbToken.sol:wmbToken","label":"has1000km","offset":0,"slot":"12","type":"t_mapping(t_address,t_bool)"},{"astId":123,"contract":"wmbToken.sol:wmbToken","label":"has10000km","offset":0,"slot":"13","type":"t_mapping(t_address,t_bool)"}],"types":{"t_address":{"encoding":"inplace","label":"address","numberOfBytes":"20"},"t_bool":{"encoding":"inplace","label":"bool","numberOfBytes":"1"},"t_mapping(t_address,t_bool)":{"encoding":"mapping","key":"t_address","label":"mapping(address => bool)","numberOfBytes":"32","value":"t_bool"},"t_mapping(t_address,t_mapping(t_address,t_uint256))":{"encoding":"mapping","key":"t_address","label":"mapping(address => mapping(address => uint256))","numberOfBytes":"32","value":"t_mapping(t_address,t_uint256)"},"t_mapping(t_address,t_string_storage)":{"encoding":"mapping","key":"t_address","label":"mapping(address => string)","numberOfBytes":"32","value":"t_string_storage"},"t_mapping(t_address,t_uint256)":{"encoding":"mapping","key":"t_address","label":"mapping(address => uint256)","numberOfBytes":"32","value":"t_uint256"},"t_string_storage":{"encoding":"bytes","label":"string","numberOfBytes":"32"},"t_uint256":{"encoding":"inplace","label":"uint256","numberOfBytes":"32"},"t_uint8":{"encoding":"inplace","label":"uint8","numberOfBytes":"1"}}},"userdoc":{"kind":"user","methods":{},"version":1}}